{
  "_format": "hh-sol-artifact-1",
  "contractName": "Evoting",
  "sourceName": "contracts/Evoting.sol",
  "abi": [
    {
      "inputs": [
        {
          "internalType": "bytes32",
          "name": "_voteID",
          "type": "bytes32"
        },
        {
          "internalType": "string",
          "name": "_name",
          "type": "string"
        },
        {
          "internalType": "string",
          "name": "_description",
          "type": "string"
        },
        {
          "internalType": "address",
          "name": "_admin",
          "type": "address"
        },
        {
          "internalType": "uint256",
          "name": "_start_time",
          "type": "uint256"
        },
        {
          "internalType": "uint256",
          "name": "_end_time",
          "type": "uint256"
        },
        {
          "components": [
            {
              "internalType": "uint8",
              "name": "ballotType",
              "type": "uint8"
            },
            {
              "internalType": "string",
              "name": "name",
              "type": "string"
            },
            {
              "internalType": "string",
              "name": "information",
              "type": "string"
            },
            {
              "internalType": "string",
              "name": "title",
              "type": "string"
            },
            {
              "internalType": "string[]",
              "name": "candidates",
              "type": "string[]"
            },
            {
              "internalType": "uint256",
              "name": "maxSelectableAnswer",
              "type": "uint256"
            }
          ],
          "internalType": "struct Utils2.BallotPaper[]",
          "name": "_ballot_papers",
          "type": "tuple[]"
        }
      ],
      "stateMutability": "nonpayable",
      "type": "constructor"
    },
    {
      "anonymous": false,
      "inputs": [],
      "name": "BallotsAdded",
      "type": "event"
    },
    {
      "anonymous": false,
      "inputs": [],
      "name": "BallotsRemoved",
      "type": "event"
    },
    {
      "anonymous": false,
      "inputs": [],
      "name": "VoteReceived",
      "type": "event"
    },
    {
      "anonymous": false,
      "inputs": [
        {
          "indexed": false,
          "internalType": "bool",
          "name": "",
          "type": "bool"
        }
      ],
      "name": "VoterAdded",
      "type": "event"
    },
    {
      "anonymous": false,
      "inputs": [],
      "name": "VotingCanceled",
      "type": "event"
    },
    {
      "anonymous": false,
      "inputs": [],
      "name": "VotingClosed",
      "type": "event"
    },
    {
      "anonymous": false,
      "inputs": [],
      "name": "VotingOpened",
      "type": "event"
    },
    {
      "anonymous": false,
      "inputs": [],
      "name": "VotingUpdated",
      "type": "event"
    },
    {
      "inputs": [],
      "name": "admin",
      "outputs": [
        {
          "internalType": "address",
          "name": "",
          "type": "address"
        }
      ],
      "stateMutability": "view",
      "type": "function"
    },
    {
      "inputs": [
        {
          "internalType": "uint256",
          "name": "",
          "type": "uint256"
        }
      ],
      "name": "ballot_papers",
      "outputs": [
        {
          "internalType": "uint8",
          "name": "ballotType",
          "type": "uint8"
        },
        {
          "internalType": "string",
          "name": "name",
          "type": "string"
        },
        {
          "internalType": "string",
          "name": "information",
          "type": "string"
        },
        {
          "internalType": "string",
          "name": "title",
          "type": "string"
        },
        {
          "internalType": "uint256",
          "name": "maxSelectableAnswer",
          "type": "uint256"
        }
      ],
      "stateMutability": "view",
      "type": "function"
    },
    {
      "inputs": [],
      "name": "cancel_vote",
      "outputs": [],
      "stateMutability": "nonpayable",
      "type": "function"
    },
    {
      "inputs": [],
      "name": "canceled",
      "outputs": [
        {
          "internalType": "bool",
          "name": "",
          "type": "bool"
        }
      ],
      "stateMutability": "view",
      "type": "function"
    },
    {
      "inputs": [
        {
          "components": [
            {
              "internalType": "string",
              "name": "sessionId",
              "type": "string"
            },
            {
              "internalType": "string",
              "name": "cipherText",
              "type": "string"
            },
            {
              "components": [
                {
                  "internalType": "string[]",
                  "name": "p1",
                  "type": "string[]"
                },
                {
                  "internalType": "string[]",
                  "name": "p2",
                  "type": "string[]"
                },
                {
                  "internalType": "string[]",
                  "name": "p3",
                  "type": "string[]"
                }
              ],
              "internalType": "struct Utils2.Proof",
              "name": "proof",
              "type": "tuple"
            },
            {
              "components": [
                {
                  "internalType": "string",
                  "name": "y0",
                  "type": "string"
                },
                {
                  "internalType": "string",
                  "name": "s",
                  "type": "string"
                },
                {
                  "internalType": "string[]",
                  "name": "c",
                  "type": "string[]"
                }
              ],
              "internalType": "struct Utils2.Signature",
              "name": "signature",
              "type": "tuple"
            },
            {
              "internalType": "string",
              "name": "groupId",
              "type": "string"
            },
            {
              "internalType": "string",
              "name": "token",
              "type": "string"
            }
          ],
          "internalType": "struct Utils2.Vote[][]",
          "name": "_votes",
          "type": "tuple[][]"
        }
      ],
      "name": "cast_vote",
      "outputs": [],
      "stateMutability": "nonpayable",
      "type": "function"
    },
    {
      "inputs": [],
      "name": "createdAt",
      "outputs": [
        {
          "internalType": "uint256",
          "name": "",
          "type": "uint256"
        }
      ],
      "stateMutability": "view",
      "type": "function"
    },
    {
      "inputs": [],
      "name": "description",
      "outputs": [
        {
          "internalType": "string",
          "name": "",
          "type": "string"
        }
      ],
      "stateMutability": "view",
      "type": "function"
    },
    {
      "inputs": [],
      "name": "end_time",
      "outputs": [
        {
          "internalType": "uint256",
          "name": "",
          "type": "uint256"
        }
      ],
      "stateMutability": "view",
      "type": "function"
    },
    {
      "inputs": [
        {
          "internalType": "uint256",
          "name": "",
          "type": "uint256"
        },
        {
          "internalType": "uint256",
          "name": "",
          "type": "uint256"
        }
      ],
      "name": "finalVotes",
      "outputs": [
        {
          "internalType": "string",
          "name": "sessionId",
          "type": "string"
        },
        {
          "internalType": "string",
          "name": "cipherText",
          "type": "string"
        },
        {
          "components": [
            {
              "internalType": "string[]",
              "name": "p1",
              "type": "string[]"
            },
            {
              "internalType": "string[]",
              "name": "p2",
              "type": "string[]"
            },
            {
              "internalType": "string[]",
              "name": "p3",
              "type": "string[]"
            }
          ],
          "internalType": "struct Utils2.Proof",
          "name": "proof",
          "type": "tuple"
        },
        {
          "components": [
            {
              "internalType": "string",
              "name": "y0",
              "type": "string"
            },
            {
              "internalType": "string",
              "name": "s",
              "type": "string"
            },
            {
              "internalType": "string[]",
              "name": "c",
              "type": "string[]"
            }
          ],
          "internalType": "struct Utils2.Signature",
          "name": "signature",
          "type": "tuple"
        },
        {
          "internalType": "string",
          "name": "groupId",
          "type": "string"
        },
        {
          "internalType": "string",
          "name": "token",
          "type": "string"
        }
      ],
      "stateMutability": "view",
      "type": "function"
    },
    {
      "inputs": [],
      "name": "get_ballot_papers",
      "outputs": [
        {
          "components": [
            {
              "internalType": "uint8",
              "name": "ballotType",
              "type": "uint8"
            },
            {
              "internalType": "string",
              "name": "name",
              "type": "string"
            },
            {
              "internalType": "string",
              "name": "information",
              "type": "string"
            },
            {
              "internalType": "string",
              "name": "title",
              "type": "string"
            },
            {
              "internalType": "string[]",
              "name": "candidates",
              "type": "string[]"
            },
            {
              "internalType": "uint256",
              "name": "maxSelectableAnswer",
              "type": "uint256"
            }
          ],
          "internalType": "struct Utils2.BallotPaper[]",
          "name": "",
          "type": "tuple[]"
        }
      ],
      "stateMutability": "view",
      "type": "function"
    },
    {
      "inputs": [],
      "name": "get_ballots_length",
      "outputs": [
        {
          "internalType": "uint256",
          "name": "_length",
          "type": "uint256"
        }
      ],
      "stateMutability": "view",
      "type": "function"
    },
    {
      "inputs": [],
      "name": "get_count_total_votes",
      "outputs": [
        {
          "internalType": "uint256[]",
          "name": "",
          "type": "uint256[]"
        }
      ],
      "stateMutability": "view",
      "type": "function"
    },
    {
      "inputs": [],
      "name": "get_state",
      "outputs": [
        {
          "internalType": "enum Evoting.VotingState",
          "name": "state",
          "type": "uint8"
        }
      ],
      "stateMutability": "view",
      "type": "function"
    },
    {
      "inputs": [],
      "name": "get_vote_details",
      "outputs": [
        {
          "internalType": "address",
          "name": "_admin",
          "type": "address"
        },
        {
          "internalType": "string",
          "name": "_name",
          "type": "string"
        },
        {
          "internalType": "string",
          "name": "_description",
          "type": "string"
        },
        {
          "internalType": "enum Evoting.VotingState",
          "name": "_state",
          "type": "uint8"
        },
        {
          "internalType": "uint256",
          "name": "_start_time",
          "type": "uint256"
        },
        {
          "internalType": "uint256",
          "name": "_end_time",
          "type": "uint256"
        },
        {
          "internalType": "uint256",
          "name": "_createdAt",
          "type": "uint256"
        },
        {
          "internalType": "bytes32",
          "name": "_voteID",
          "type": "bytes32"
        },
        {
          "components": [
            {
              "internalType": "uint8",
              "name": "ballotType",
              "type": "uint8"
            },
            {
              "internalType": "string",
              "name": "name",
              "type": "string"
            },
            {
              "internalType": "string",
              "name": "information",
              "type": "string"
            },
            {
              "internalType": "string",
              "name": "title",
              "type": "string"
            },
            {
              "internalType": "string[]",
              "name": "candidates",
              "type": "string[]"
            },
            {
              "internalType": "uint256",
              "name": "maxSelectableAnswer",
              "type": "uint256"
            }
          ],
          "internalType": "struct Utils2.BallotPaper[]",
          "name": "_ballot_papers",
          "type": "tuple[]"
        }
      ],
      "stateMutability": "view",
      "type": "function"
    },
    {
      "inputs": [],
      "name": "get_votes",
      "outputs": [
        {
          "components": [
            {
              "internalType": "string",
              "name": "sessionId",
              "type": "string"
            },
            {
              "internalType": "string",
              "name": "cipherText",
              "type": "string"
            },
            {
              "components": [
                {
                  "internalType": "string[]",
                  "name": "p1",
                  "type": "string[]"
                },
                {
                  "internalType": "string[]",
                  "name": "p2",
                  "type": "string[]"
                },
                {
                  "internalType": "string[]",
                  "name": "p3",
                  "type": "string[]"
                }
              ],
              "internalType": "struct Utils2.Proof",
              "name": "proof",
              "type": "tuple"
            },
            {
              "components": [
                {
                  "internalType": "string",
                  "name": "y0",
                  "type": "string"
                },
                {
                  "internalType": "string",
                  "name": "s",
                  "type": "string"
                },
                {
                  "internalType": "string[]",
                  "name": "c",
                  "type": "string[]"
                }
              ],
              "internalType": "struct Utils2.Signature",
              "name": "signature",
              "type": "tuple"
            },
            {
              "internalType": "string",
              "name": "groupId",
              "type": "string"
            },
            {
              "internalType": "string",
              "name": "token",
              "type": "string"
            }
          ],
          "internalType": "struct Utils2.Vote[][]",
          "name": "",
          "type": "tuple[][]"
        }
      ],
      "stateMutability": "view",
      "type": "function"
    },
    {
      "inputs": [
        {
          "internalType": "uint256",
          "name": "",
          "type": "uint256"
        }
      ],
      "name": "is_valid_ballot",
      "outputs": [
        {
          "internalType": "bool",
          "name": "",
          "type": "bool"
        }
      ],
      "stateMutability": "view",
      "type": "function"
    },
    {
      "inputs": [],
      "name": "name",
      "outputs": [
        {
          "internalType": "string",
          "name": "",
          "type": "string"
        }
      ],
      "stateMutability": "view",
      "type": "function"
    },
    {
      "inputs": [],
      "name": "start_time",
      "outputs": [
        {
          "internalType": "uint256",
          "name": "",
          "type": "uint256"
        }
      ],
      "stateMutability": "view",
      "type": "function"
    },
    {
      "inputs": [
        {
          "components": [
            {
              "internalType": "string",
              "name": "name",
              "type": "string"
            },
            {
              "internalType": "string",
              "name": "description",
              "type": "string"
            },
            {
              "internalType": "uint256",
              "name": "start_time",
              "type": "uint256"
            },
            {
              "internalType": "uint256",
              "name": "end_time",
              "type": "uint256"
            }
          ],
          "internalType": "struct Utils2.VoteDetails",
          "name": "_details",
          "type": "tuple"
        },
        {
          "components": [
            {
              "internalType": "uint256",
              "name": "index",
              "type": "uint256"
            },
            {
              "components": [
                {
                  "internalType": "uint8",
                  "name": "ballotType",
                  "type": "uint8"
                },
                {
                  "internalType": "string",
                  "name": "name",
                  "type": "string"
                },
                {
                  "internalType": "string",
                  "name": "information",
                  "type": "string"
                },
                {
                  "internalType": "string",
                  "name": "title",
                  "type": "string"
                },
                {
                  "internalType": "string[]",
                  "name": "candidates",
                  "type": "string[]"
                },
                {
                  "internalType": "uint256",
                  "name": "maxSelectableAnswer",
                  "type": "uint256"
                }
              ],
              "internalType": "struct Utils2.BallotPaper",
              "name": "ballot_paper",
              "type": "tuple"
            }
          ],
          "internalType": "struct Utils2.BallotDetails[]",
          "name": "_to_update",
          "type": "tuple[]"
        },
        {
          "components": [
            {
              "internalType": "uint8",
              "name": "ballotType",
              "type": "uint8"
            },
            {
              "internalType": "string",
              "name": "name",
              "type": "string"
            },
            {
              "internalType": "string",
              "name": "information",
              "type": "string"
            },
            {
              "internalType": "string",
              "name": "title",
              "type": "string"
            },
            {
              "internalType": "string[]",
              "name": "candidates",
              "type": "string[]"
            },
            {
              "internalType": "uint256",
              "name": "maxSelectableAnswer",
              "type": "uint256"
            }
          ],
          "internalType": "struct Utils2.BallotPaper[]",
          "name": "_to_add",
          "type": "tuple[]"
        },
        {
          "internalType": "uint256[]",
          "name": "_to_delete",
          "type": "uint256[]"
        }
      ],
      "name": "update_vote",
      "outputs": [],
      "stateMutability": "nonpayable",
      "type": "function"
    },
    {
      "inputs": [],
      "name": "voteID",
      "outputs": [
        {
          "internalType": "bytes32",
          "name": "",
          "type": "bytes32"
        }
      ],
      "stateMutability": "view",
      "type": "function"
    },
    {
      "inputs": [
        {
          "internalType": "uint256",
          "name": "",
          "type": "uint256"
        }
      ],
      "name": "votes",
      "outputs": [
        {
          "internalType": "uint8",
          "name": "index",
          "type": "uint8"
        }
      ],
      "stateMutability": "view",
      "type": "function"
    },
    {
      "inputs": [
        {
          "internalType": "uint256",
          "name": "",
          "type": "uint256"
        },
        {
          "internalType": "uint256",
          "name": "",
          "type": "uint256"
        }
      ],
      "name": "votes_per_ballot_paper_type1",
      "outputs": [
        {
          "internalType": "string",
          "name": "sessionId",
          "type": "string"
        },
        {
          "internalType": "string",
          "name": "cipherText",
          "type": "string"
        },
        {
          "components": [
            {
              "internalType": "string[]",
              "name": "p1",
              "type": "string[]"
            },
            {
              "internalType": "string[]",
              "name": "p2",
              "type": "string[]"
            },
            {
              "internalType": "string[]",
              "name": "p3",
              "type": "string[]"
            }
          ],
          "internalType": "struct Utils2.Proof",
          "name": "proof",
          "type": "tuple"
        },
        {
          "components": [
            {
              "internalType": "string",
              "name": "y0",
              "type": "string"
            },
            {
              "internalType": "string",
              "name": "s",
              "type": "string"
            },
            {
              "internalType": "string[]",
              "name": "c",
              "type": "string[]"
            }
          ],
          "internalType": "struct Utils2.Signature",
          "name": "signature",
          "type": "tuple"
        },
        {
          "internalType": "string",
          "name": "groupId",
          "type": "string"
        },
        {
          "internalType": "string",
          "name": "token",
          "type": "string"
        }
      ],
      "stateMutability": "view",
      "type": "function"
    },
    {
      "inputs": [
        {
          "internalType": "uint256",
          "name": "",
          "type": "uint256"
        },
        {
          "internalType": "uint256",
          "name": "",
          "type": "uint256"
        },
        {
          "internalType": "uint256",
          "name": "",
          "type": "uint256"
        }
      ],
      "name": "votes_per_ballot_paper_type2_per_candidates",
      "outputs": [
        {
          "internalType": "string",
          "name": "sessionId",
          "type": "string"
        },
        {
          "internalType": "string",
          "name": "cipherText",
          "type": "string"
        },
        {
          "components": [
            {
              "internalType": "string[]",
              "name": "p1",
              "type": "string[]"
            },
            {
              "internalType": "string[]",
              "name": "p2",
              "type": "string[]"
            },
            {
              "internalType": "string[]",
              "name": "p3",
              "type": "string[]"
            }
          ],
          "internalType": "struct Utils2.Proof",
          "name": "proof",
          "type": "tuple"
        },
        {
          "components": [
            {
              "internalType": "string",
              "name": "y0",
              "type": "string"
            },
            {
              "internalType": "string",
              "name": "s",
              "type": "string"
            },
            {
              "internalType": "string[]",
              "name": "c",
              "type": "string[]"
            }
          ],
          "internalType": "struct Utils2.Signature",
          "name": "signature",
          "type": "tuple"
        },
        {
          "internalType": "string",
          "name": "groupId",
          "type": "string"
        },
        {
          "internalType": "string",
          "name": "token",
          "type": "string"
        }
      ],
      "stateMutability": "view",
      "type": "function"
    },
    {
      "inputs": [
        {
          "internalType": "address",
          "name": "",
          "type": "address"
        },
        {
          "internalType": "uint256",
          "name": "",
          "type": "uint256"
        }
      ],
      "name": "votes_per_voters",
      "outputs": [
        {
          "internalType": "string",
          "name": "sessionId",
          "type": "string"
        },
        {
          "internalType": "string",
          "name": "cipherText",
          "type": "string"
        },
        {
          "components": [
            {
              "internalType": "string[]",
              "name": "p1",
              "type": "string[]"
            },
            {
              "internalType": "string[]",
              "name": "p2",
              "type": "string[]"
            },
            {
              "internalType": "string[]",
              "name": "p3",
              "type": "string[]"
            }
          ],
          "internalType": "struct Utils2.Proof",
          "name": "proof",
          "type": "tuple"
        },
        {
          "components": [
            {
              "internalType": "string",
              "name": "y0",
              "type": "string"
            },
            {
              "internalType": "string",
              "name": "s",
              "type": "string"
            },
            {
              "internalType": "string[]",
              "name": "c",
              "type": "string[]"
            }
          ],
          "internalType": "struct Utils2.Signature",
          "name": "signature",
          "type": "tuple"
        },
        {
          "internalType": "string",
          "name": "groupId",
          "type": "string"
        },
        {
          "internalType": "string",
          "name": "token",
          "type": "string"
        }
      ],
      "stateMutability": "view",
      "type": "function"
    }
  ],
  "bytecode": "0x60806040523480156200001157600080fd5b50604051620053f3380380620053f38339810160408190526200003491620006eb565b818310620000a35760405162461bcd60e51b815260206004820152603160248201527f54686520656e642074696d65206d75737420626520677265617465722074686160448201527037103a34329039ba30b93a103a34b6b29760791b60648201526084015b60405180910390fd5b60008790556001620000b687826200084c565b506002620000c586826200084c565b50600380546001600160a01b0319166001600160a01b0386161790556004839055600582905542600655620000fa8162000107565b5050505050505062000956565b805160005b81811015620002a6578281815181106200012a576200012a62000918565b60200260200101516000015160ff16600203620001d45782818151811062000156576200015662000918565b6020026020010151608001515183828151811062000178576200017862000918565b602002602001015160a001511115620001d45760405162461bcd60e51b815260206004820152601960248201527f42616c6c6f7473206e6f742073657420636f72726563746c790000000000000060448201526064016200009a565b6008838281518110620001eb57620001eb62000918565b6020908102919091018101518254600180820185556000948552938390208251600690920201805460ff191660ff9092169190911781559181015190928201906200023790826200084c565b50604082015160028201906200024e90826200084c565b50606082015160038201906200026590826200084c565b506080820151805162000283916004840191602090910190620002d4565b5060a08201518160050155505080806200029d906200092e565b9150506200010c565b506040517f6692f63de48205073382c0f71d7ecb24505640478dcc5f61c8aced55400ca08390600090a15050565b8280548282559060005260206000209081019282156200031f579160200282015b828111156200031f57825182906200030e90826200084c565b5091602001919060010190620002f5565b506200032d92915062000331565b5090565b808211156200032d57600062000348828262000352565b5060010162000331565b5080546200036090620007bd565b6000825580601f1062000371575050565b601f01602090049060005260206000209081019062000391919062000394565b50565b5b808211156200032d576000815560010162000395565b634e487b7160e01b600052604160045260246000fd5b60405160c081016001600160401b0381118282101715620003e657620003e6620003ab565b60405290565b604051601f8201601f191681016001600160401b0381118282101715620004175762000417620003ab565b604052919050565b600082601f8301126200043157600080fd5b81516001600160401b038111156200044d576200044d620003ab565b602062000463601f8301601f19168201620003ec565b82815285828487010111156200047857600080fd5b60005b83811015620004985785810183015182820184015282016200047b565b506000928101909101919091529392505050565b60006001600160401b03821115620004c857620004c8620003ab565b5060051b60200190565b805160ff81168114620004e457600080fd5b919050565b600082601f830112620004fb57600080fd5b81516020620005146200050e83620004ac565b620003ec565b82815260059290921b840181019181810190868411156200053457600080fd5b8286015b84811015620005785780516001600160401b03811115620005595760008081fd5b620005698986838b01016200041f565b84525091830191830162000538565b509695505050505050565b600082601f8301126200059557600080fd5b81516020620005a86200050e83620004ac565b82815260059290921b84018101918181019086841115620005c857600080fd5b8286015b84811015620005785780516001600160401b0380821115620005ee5760008081fd5b9088019060c0828b03601f1901811315620006095760008081fd5b62000613620003c1565b62000620888501620004d2565b815260408085015184811115620006375760008081fd5b620006478e8b838901016200041f565b8a8401525060608086015185811115620006615760008081fd5b620006718f8c838a01016200041f565b83850152506080915081860151858111156200068d5760008081fd5b6200069d8f8c838a01016200041f565b82850152505060a08086015185811115620006b85760008081fd5b620006c88f8c838a0101620004e9565b9284019290925294909201519381019390935250508352918301918301620005cc565b600080600080600080600060e0888a0312156200070757600080fd5b875160208901519097506001600160401b03808211156200072757600080fd5b620007358b838c016200041f565b975060408a01519150808211156200074c57600080fd5b6200075a8b838c016200041f565b60608b015190975091506001600160a01b03821682146200077a57600080fd5b60808a015160a08b015160c08c01519397509095509350808211156200079f57600080fd5b50620007ae8a828b0162000583565b91505092959891949750929550565b600181811c90821680620007d257607f821691505b602082108103620007f357634e487b7160e01b600052602260045260246000fd5b50919050565b601f8211156200084757600081815260208120601f850160051c81016020861015620008225750805b601f850160051c820191505b8181101562000843578281556001016200082e565b5050505b505050565b81516001600160401b03811115620008685762000868620003ab565b6200088081620008798454620007bd565b84620007f9565b602080601f831160018114620008b857600084156200089f5750858301515b600019600386901b1c1916600185901b17855562000843565b600085815260208120601f198616915b82811015620008e957888601518255948401946001909101908401620008c8565b5085821015620009085787850151600019600388901b60f8161c191681555b5050505050600190811b01905550565b634e487b7160e01b600052603260045260246000fd5b6000600182016200094f57634e487b7160e01b600052601160045260246000fd5b5060010190565b614a8d80620009666000396000f3fe608060405234801561001057600080fd5b50600436106101585760003560e01c806384e8d531116100c3578063cf09e0d01161007c578063cf09e0d0146102ed578063e68f10ed146102f6578063eba62c51146102fe578063f59b7a1714610311578063f851a4401461032e578063fbd21f501461035957600080fd5b806384e8d5311461025257806384e913951461027757806386b301ad1461028c57806394f183cb146102a1578063b18280d0146102b6578063be94990e146102da57600080fd5b80633f10b6e5116101155780633f10b6e5146101f45780633f9942ff146101fc5780635dd39e56146102095780635df813301461021c5780637284e41614610241578063834ee4171461024957600080fd5b8063066d5dc71461015d57806306fdde03146101795780630cf503ad1461018e578063109bd47f146101a357806316243356146101b857806322a2a00b146101c1575b600080fd5b61016660005481565b6040519081526020015b60405180910390f35b61018161036c565b60405161017091906139a3565b6101a161019c366004613ca6565b6103fa565b005b6101ab61083a565b6040516101709190613ece565b61016660055481565b6101e46101cf366004613f12565b600a6020526000908152604090205460ff1681565b6040519015158152602001610170565b6101a16108d8565b6007546101e49060ff1681565b6101a16102173660046141af565b6109f1565b61022f61022a366004613f12565b610b3d565b60405160ff9091168152602001610170565b610181610b66565b61016660045481565b6102656102603660046142c3565b610b73565b604051610170969594939291906143c3565b61027f611295565b6040516101709190614502565b610294611636565b604051610170919061454d565b6102a9611695565b6040516101709190614561565b6102c96102c4366004613f12565b611e7d565b604051610170959493929190614695565b6102656102e83660046146ea565b61205b565b61016660065481565b600854610166565b61026561030c36600461470c565b612647565b610319612c33565b60405161017099989796959493929190614744565b600354610341906001600160a01b031681565b6040516001600160a01b039091168152602001610170565b6102656103673660046146ea565b612da7565b60018054610379906147c7565b80601f01602080910402602001604051908101604052809291908181526020018280546103a5906147c7565b80156103f25780601f106103c7576101008083540402835291602001916103f2565b820191906000526020600020905b8154815290600101906020018083116103d557829003601f168201915b505050505081565b805160005b8181101561080c57600083828151811061041b5761041b614801565b602002602001015151905060005b818110156107f757601060008481526020019081526020016000206040518060c0016040528087868151811061046157610461614801565b6020026020010151848151811061047a5761047a614801565b602002602001015160000151815260200187868151811061049d5761049d614801565b602002602001015184815181106104b6576104b6614801565b602002602001015160200151815260200160405180606001604052808988815181106104e4576104e4614801565b602002602001015186815181106104fd576104fd614801565b60200260200101516040015160000151815260200189888151811061052457610524614801565b6020026020010151868151811061053d5761053d614801565b60200260200101516040015160200151815260200189888151811061056457610564614801565b6020026020010151868151811061057d5761057d614801565b60200260200101516040015160400151815250815260200160405180606001604052808988815181106105b2576105b2614801565b602002602001015186815181106105cb576105cb614801565b6020026020010151606001516000015181526020018988815181106105f2576105f2614801565b6020026020010151868151811061060b5761060b614801565b60200260200101516060015160200151815260200189888151811061063257610632614801565b6020026020010151868151811061064b5761064b614801565b60200260200101516060015160400151815250815260200187868151811061067557610675614801565b6020026020010151848151811061068e5761068e614801565b60200260200101516080015181526020018786815181106106b1576106b1614801565b602002602001015184815181106106ca576106ca614801565b60209081029190910181015160a0015190915282546001810184556000938452922081519192600a02019081906107019082614866565b50602082015160018201906107169082614866565b50604082015180518051600284019161073491839160200190613836565b50602082810151805161074d9260018501920190613836565b5060408201518051610769916002840191602090910190613836565b50505060608201518051600583019081906107849082614866565b50602082015160018201906107999082614866565b50604082015180516107b5916002840191602090910190613836565b505050608082015160088201906107cc9082614866565b5060a082015160098201906107e19082614866565b50505080806107ef9061493b565b915050610429565b505080806108049061493b565b9150506103ff565b506040517f64e5b0178e6f7ac2b1d7103882fd082322122fc630637afe744c584f727ffa9090600090a15050565b6008546060906000816001600160401b0381111561085a5761085a6139bd565b604051908082528060200260200182016040528015610883578160200160208202803683370190505b50905060005b828110156108d1576000818152600d602052604090205482518390839081106108b4576108b4614801565b6020908102919091010152806108c98161493b565b915050610889565b5092915050565b6003546001600160a01b0316331461092f5760405162461bcd60e51b81526020600482015260156024820152742cb7ba9030b932903737ba1030b71020b236b4b71760591b60448201526064015b60405180910390fd5b6000610939611636565b9050600081600381111561094f5761094f614515565b146109b85760405162461bcd60e51b815260206004820152603360248201527f54686520766f74696e672068617320616c72656164792073746172746564206f6044820152721c881a185cc8185b1c9958591e48195b991959606a1b6064820152608401610926565b6007805460ff191660011790556040517fb7f1abbcdfcfff2dbaa12177264f358cf20420c7bf3af655f82a7a89de5e04bb90600090a150565b6003546001600160a01b03163314610a435760405162461bcd60e51b81526020600482015260156024820152742cb7ba9030b932903737ba1030b71020b236b4b71760591b6044820152606401610926565b6000610a4d611636565b6003811115610a5e57610a5e614515565b14610ac05760405162461bcd60e51b815260206004820152602c60248201527f54686520766f74696e672068617320616c72656164792073746172746564206f60448201526b39103430b99032b73232b21760a11b6064820152608401610926565b8351600190610acf9082614866565b506020840151600290610ae29082614866565b5060408401516004556060840151600555610afc83613393565b610b0582613495565b610b0e81613647565b6040517f66c71b14043393c3fb92f9eaae32e02d8aff3371c3810c2c2d2743a8e662324890600090a150505050565b600f8181548110610b4d57600080fd5b600091825260209091206002909102015460ff16905081565b60028054610379906147c7565b60096020528260005260406000206020528160005260406000208181548110610b9b57600080fd5b90600052602060002090600a02016000925092505050806000018054610bc0906147c7565b80601f0160208091040260200160405190810160405280929190818152602001828054610bec906147c7565b8015610c395780601f10610c0e57610100808354040283529160200191610c39565b820191906000526020600020905b815481529060010190602001808311610c1c57829003601f168201915b505050505090806001018054610c4e906147c7565b80601f0160208091040260200160405190810160405280929190818152602001828054610c7a906147c7565b8015610cc75780601f10610c9c57610100808354040283529160200191610cc7565b820191906000526020600020905b815481529060010190602001808311610caa57829003601f168201915b5050505050908060020160405180606001604052908160008201805480602002602001604051908101604052809291908181526020016000905b82821015610dad578382906000526020600020018054610d20906147c7565b80601f0160208091040260200160405190810160405280929190818152602001828054610d4c906147c7565b8015610d995780601f10610d6e57610100808354040283529160200191610d99565b820191906000526020600020905b815481529060010190602001808311610d7c57829003601f168201915b505050505081526020019060010190610d01565b50505050815260200160018201805480602002602001604051908101604052809291908181526020016000905b82821015610e86578382906000526020600020018054610df9906147c7565b80601f0160208091040260200160405190810160405280929190818152602001828054610e25906147c7565b8015610e725780601f10610e4757610100808354040283529160200191610e72565b820191906000526020600020905b815481529060010190602001808311610e5557829003601f168201915b505050505081526020019060010190610dda565b50505050815260200160028201805480602002602001604051908101604052809291908181526020016000905b82821015610f5f578382906000526020600020018054610ed2906147c7565b80601f0160208091040260200160405190810160405280929190818152602001828054610efe906147c7565b8015610f4b5780601f10610f2057610100808354040283529160200191610f4b565b820191906000526020600020905b815481529060010190602001808311610f2e57829003601f168201915b505050505081526020019060010190610eb3565b50505050815250509080600501604051806060016040529081600082018054610f87906147c7565b80601f0160208091040260200160405190810160405280929190818152602001828054610fb3906147c7565b80156110005780601f10610fd557610100808354040283529160200191611000565b820191906000526020600020905b815481529060010190602001808311610fe357829003601f168201915b50505050508152602001600182018054611019906147c7565b80601f0160208091040260200160405190810160405280929190818152602001828054611045906147c7565b80156110925780601f1061106757610100808354040283529160200191611092565b820191906000526020600020905b81548152906001019060200180831161107557829003601f168201915b5050505050815260200160028201805480602002602001604051908101604052809291908181526020016000905b8282101561116c5783829060005260206000200180546110df906147c7565b80601f016020809104026020016040519081016040528092919081815260200182805461110b906147c7565b80156111585780601f1061112d57610100808354040283529160200191611158565b820191906000526020600020905b81548152906001019060200180831161113b57829003601f168201915b5050505050815260200190600101906110c0565b505050508152505090806008018054611184906147c7565b80601f01602080910402602001604051908101604052809291908181526020018280546111b0906147c7565b80156111fd5780601f106111d2576101008083540402835291602001916111fd565b820191906000526020600020905b8154815290600101906020018083116111e057829003601f168201915b505050505090806009018054611212906147c7565b80601f016020809104026020016040519081016040528092919081815260200182805461123e906147c7565b801561128b5780601f106112605761010080835404028352916020019161128b565b820191906000526020600020905b81548152906001019060200180831161126e57829003601f168201915b5050505050905086565b6008546060906000816001600160401b038111156112b5576112b56139bd565b60405190808252806020026020018201604052801561132257816020015b61130f6040518060c00160405280600060ff16815260200160608152602001606081526020016060815260200160608152602001600081525090565b8152602001906001900390816112d35790505b50905060005b828110156108d1576008818154811061134357611343614801565b60009182526020918290206040805160c08101909152600690920201805460ff168252600181018054929391929184019161137d906147c7565b80601f01602080910402602001604051908101604052809291908181526020018280546113a9906147c7565b80156113f65780601f106113cb576101008083540402835291602001916113f6565b820191906000526020600020905b8154815290600101906020018083116113d957829003601f168201915b5050505050815260200160028201805461140f906147c7565b80601f016020809104026020016040519081016040528092919081815260200182805461143b906147c7565b80156114885780601f1061145d57610100808354040283529160200191611488565b820191906000526020600020905b81548152906001019060200180831161146b57829003601f168201915b505050505081526020016003820180546114a1906147c7565b80601f01602080910402602001604051908101604052809291908181526020018280546114cd906147c7565b801561151a5780601f106114ef5761010080835404028352916020019161151a565b820191906000526020600020905b8154815290600101906020018083116114fd57829003601f168201915b5050505050815260200160048201805480602002602001604051908101604052809291908181526020016000905b828210156115f4578382906000526020600020018054611567906147c7565b80601f0160208091040260200160405190810160405280929190818152602001828054611593906147c7565b80156115e05780601f106115b5576101008083540402835291602001916115e0565b820191906000526020600020905b8154815290600101906020018083116115c357829003601f168201915b505050505081526020019060010190611548565b50505050815260200160058201548152505082828151811061161857611618614801565b6020026020010181905250808061162e9061493b565b915050611328565b60075460009060ff161561164a5750600390565b4260045411801561165c575042600554115b156116675750600090565b42600454108015611679575042600554115b156116845750600190565b426005541015611692575060025b90565b6008546060906000816001600160401b038111156116b5576116b56139bd565b6040519080825280602002602001820160405280156116e857816020015b60608152602001906001900390816116d35790505b50905060005b828110156108d157600081815260106020908152604080832080548251818502810185019093528083529193909284015b82821015611e4957838290600052602060002090600a02016040518060c0016040529081600082018054611752906147c7565b80601f016020809104026020016040519081016040528092919081815260200182805461177e906147c7565b80156117cb5780601f106117a0576101008083540402835291602001916117cb565b820191906000526020600020905b8154815290600101906020018083116117ae57829003601f168201915b505050505081526020016001820180546117e4906147c7565b80601f0160208091040260200160405190810160405280929190818152602001828054611810906147c7565b801561185d5780601f106118325761010080835404028352916020019161185d565b820191906000526020600020905b81548152906001019060200180831161184057829003601f168201915b505050505081526020016002820160405180606001604052908160008201805480602002602001604051908101604052809291908181526020016000905b828210156119475783829060005260206000200180546118ba906147c7565b80601f01602080910402602001604051908101604052809291908181526020018280546118e6906147c7565b80156119335780601f1061190857610100808354040283529160200191611933565b820191906000526020600020905b81548152906001019060200180831161191657829003601f168201915b50505050508152602001906001019061189b565b50505050815260200160018201805480602002602001604051908101604052809291908181526020016000905b82821015611a20578382906000526020600020018054611993906147c7565b80601f01602080910402602001604051908101604052809291908181526020018280546119bf906147c7565b8015611a0c5780601f106119e157610100808354040283529160200191611a0c565b820191906000526020600020905b8154815290600101906020018083116119ef57829003601f168201915b505050505081526020019060010190611974565b50505050815260200160028201805480602002602001604051908101604052809291908181526020016000905b82821015611af9578382906000526020600020018054611a6c906147c7565b80601f0160208091040260200160405190810160405280929190818152602001828054611a98906147c7565b8015611ae55780601f10611aba57610100808354040283529160200191611ae5565b820191906000526020600020905b815481529060010190602001808311611ac857829003601f168201915b505050505081526020019060010190611a4d565b5050505081525050815260200160058201604051806060016040529081600082018054611b25906147c7565b80601f0160208091040260200160405190810160405280929190818152602001828054611b51906147c7565b8015611b9e5780601f10611b7357610100808354040283529160200191611b9e565b820191906000526020600020905b815481529060010190602001808311611b8157829003601f168201915b50505050508152602001600182018054611bb7906147c7565b80601f0160208091040260200160405190810160405280929190818152602001828054611be3906147c7565b8015611c305780601f10611c0557610100808354040283529160200191611c30565b820191906000526020600020905b815481529060010190602001808311611c1357829003601f168201915b5050505050815260200160028201805480602002602001604051908101604052809291908181526020016000905b82821015611d0a578382906000526020600020018054611c7d906147c7565b80601f0160208091040260200160405190810160405280929190818152602001828054611ca9906147c7565b8015611cf65780601f10611ccb57610100808354040283529160200191611cf6565b820191906000526020600020905b815481529060010190602001808311611cd957829003601f168201915b505050505081526020019060010190611c5e565b50505050815250508152602001600882018054611d26906147c7565b80601f0160208091040260200160405190810160405280929190818152602001828054611d52906147c7565b8015611d9f5780601f10611d7457610100808354040283529160200191611d9f565b820191906000526020600020905b815481529060010190602001808311611d8257829003601f168201915b50505050508152602001600982018054611db8906147c7565b80601f0160208091040260200160405190810160405280929190818152602001828054611de4906147c7565b8015611e315780601f10611e0657610100808354040283529160200191611e31565b820191906000526020600020905b815481529060010190602001808311611e1457829003601f168201915b5050505050815250508152602001906001019061171f565b50505050828281518110611e5f57611e5f614801565b60200260200101819052508080611e759061493b565b9150506116ee565b60088181548110611e8d57600080fd5b60009182526020909120600690910201805460018201805460ff909216935090611eb6906147c7565b80601f0160208091040260200160405190810160405280929190818152602001828054611ee2906147c7565b8015611f2f5780601f10611f0457610100808354040283529160200191611f2f565b820191906000526020600020905b815481529060010190602001808311611f1257829003601f168201915b505050505090806002018054611f44906147c7565b80601f0160208091040260200160405190810160405280929190818152602001828054611f70906147c7565b8015611fbd5780601f10611f9257610100808354040283529160200191611fbd565b820191906000526020600020905b815481529060010190602001808311611fa057829003601f168201915b505050505090806003018054611fd2906147c7565b80601f0160208091040260200160405190810160405280929190818152602001828054611ffe906147c7565b801561204b5780601f106120205761010080835404028352916020019161204b565b820191906000526020600020905b81548152906001019060200180831161202e57829003601f168201915b5050505050908060050154905085565b600b602052816000526040600020818154811061207757600080fd5b90600052602060002090600a02016000915091505080600001805461209b906147c7565b80601f01602080910402602001604051908101604052809291908181526020018280546120c7906147c7565b80156121145780601f106120e957610100808354040283529160200191612114565b820191906000526020600020905b8154815290600101906020018083116120f757829003601f168201915b505050505090806001018054612129906147c7565b80601f0160208091040260200160405190810160405280929190818152602001828054612155906147c7565b80156121a25780601f10612177576101008083540402835291602001916121a2565b820191906000526020600020905b81548152906001019060200180831161218557829003601f168201915b5050505050908060020160405180606001604052908160008201805480602002602001604051908101604052809291908181526020016000905b828210156122885783829060005260206000200180546121fb906147c7565b80601f0160208091040260200160405190810160405280929190818152602001828054612227906147c7565b80156122745780601f1061224957610100808354040283529160200191612274565b820191906000526020600020905b81548152906001019060200180831161225757829003601f168201915b5050505050815260200190600101906121dc565b50505050815260200160018201805480602002602001604051908101604052809291908181526020016000905b828210156123615783829060005260206000200180546122d4906147c7565b80601f0160208091040260200160405190810160405280929190818152602001828054612300906147c7565b801561234d5780601f106123225761010080835404028352916020019161234d565b820191906000526020600020905b81548152906001019060200180831161233057829003601f168201915b5050505050815260200190600101906122b5565b50505050815260200160028201805480602002602001604051908101604052809291908181526020016000905b8282101561243a5783829060005260206000200180546123ad906147c7565b80601f01602080910402602001604051908101604052809291908181526020018280546123d9906147c7565b80156124265780601f106123fb57610100808354040283529160200191612426565b820191906000526020600020905b81548152906001019060200180831161240957829003601f168201915b50505050508152602001906001019061238e565b50505050815250509080600501604051806060016040529081600082018054612462906147c7565b80601f016020809104026020016040519081016040528092919081815260200182805461248e906147c7565b80156124db5780601f106124b0576101008083540402835291602001916124db565b820191906000526020600020905b8154815290600101906020018083116124be57829003601f168201915b505050505081526020016001820180546124f4906147c7565b80601f0160208091040260200160405190810160405280929190818152602001828054612520906147c7565b801561256d5780601f106125425761010080835404028352916020019161256d565b820191906000526020600020905b81548152906001019060200180831161255057829003601f168201915b5050505050815260200160028201805480602002602001604051908101604052809291908181526020016000905b8282101561116c5783829060005260206000200180546125ba906147c7565b80601f01602080910402602001604051908101604052809291908181526020018280546125e6906147c7565b80156126335780601f1061260857610100808354040283529160200191612633565b820191906000526020600020905b81548152906001019060200180831161261657829003601f168201915b50505050508152602001906001019061259b565b600c602052816000526040600020818154811061266357600080fd5b90600052602060002090600a020160009150915050806000018054612687906147c7565b80601f01602080910402602001604051908101604052809291908181526020018280546126b3906147c7565b80156127005780601f106126d557610100808354040283529160200191612700565b820191906000526020600020905b8154815290600101906020018083116126e357829003601f168201915b505050505090806001018054612715906147c7565b80601f0160208091040260200160405190810160405280929190818152602001828054612741906147c7565b801561278e5780601f106127635761010080835404028352916020019161278e565b820191906000526020600020905b81548152906001019060200180831161277157829003601f168201915b5050505050908060020160405180606001604052908160008201805480602002602001604051908101604052809291908181526020016000905b828210156128745783829060005260206000200180546127e7906147c7565b80601f0160208091040260200160405190810160405280929190818152602001828054612813906147c7565b80156128605780601f1061283557610100808354040283529160200191612860565b820191906000526020600020905b81548152906001019060200180831161284357829003601f168201915b5050505050815260200190600101906127c8565b50505050815260200160018201805480602002602001604051908101604052809291908181526020016000905b8282101561294d5783829060005260206000200180546128c0906147c7565b80601f01602080910402602001604051908101604052809291908181526020018280546128ec906147c7565b80156129395780601f1061290e57610100808354040283529160200191612939565b820191906000526020600020905b81548152906001019060200180831161291c57829003601f168201915b5050505050815260200190600101906128a1565b50505050815260200160028201805480602002602001604051908101604052809291908181526020016000905b82821015612a26578382906000526020600020018054612999906147c7565b80601f01602080910402602001604051908101604052809291908181526020018280546129c5906147c7565b8015612a125780601f106129e757610100808354040283529160200191612a12565b820191906000526020600020905b8154815290600101906020018083116129f557829003601f168201915b50505050508152602001906001019061297a565b50505050815250509080600501604051806060016040529081600082018054612a4e906147c7565b80601f0160208091040260200160405190810160405280929190818152602001828054612a7a906147c7565b8015612ac75780601f10612a9c57610100808354040283529160200191612ac7565b820191906000526020600020905b815481529060010190602001808311612aaa57829003601f168201915b50505050508152602001600182018054612ae0906147c7565b80601f0160208091040260200160405190810160405280929190818152602001828054612b0c906147c7565b8015612b595780601f10612b2e57610100808354040283529160200191612b59565b820191906000526020600020905b815481529060010190602001808311612b3c57829003601f168201915b5050505050815260200160028201805480602002602001604051908101604052809291908181526020016000905b8282101561116c578382906000526020600020018054612ba6906147c7565b80601f0160208091040260200160405190810160405280929190818152602001828054612bd2906147c7565b8015612c1f5780601f10612bf457610100808354040283529160200191612c1f565b820191906000526020600020905b815481529060010190602001808311612c0257829003601f168201915b505050505081526020019060010190612b87565b600060608060008060008060006060600360009054906101000a90046001600160a01b0316985060018054612c67906147c7565b80601f0160208091040260200160405190810160405280929190818152602001828054612c93906147c7565b8015612ce05780601f10612cb557610100808354040283529160200191612ce0565b820191906000526020600020905b815481529060010190602001808311612cc357829003601f168201915b5050505050975060028054612cf4906147c7565b80601f0160208091040260200160405190810160405280929190818152602001828054612d20906147c7565b8015612d6d5780601f10612d4257610100808354040283529160200191612d6d565b820191906000526020600020905b815481529060010190602001808311612d5057829003601f168201915b50505050509650612d7c611636565b95506004549450600554935060065492506000549150612d9a611295565b9050909192939495969798565b60106020528160005260406000208181548110612dc357600080fd5b90600052602060002090600a020160009150915050806000018054612de7906147c7565b80601f0160208091040260200160405190810160405280929190818152602001828054612e13906147c7565b8015612e605780601f10612e3557610100808354040283529160200191612e60565b820191906000526020600020905b815481529060010190602001808311612e4357829003601f168201915b505050505090806001018054612e75906147c7565b80601f0160208091040260200160405190810160405280929190818152602001828054612ea1906147c7565b8015612eee5780601f10612ec357610100808354040283529160200191612eee565b820191906000526020600020905b815481529060010190602001808311612ed157829003601f168201915b5050505050908060020160405180606001604052908160008201805480602002602001604051908101604052809291908181526020016000905b82821015612fd4578382906000526020600020018054612f47906147c7565b80601f0160208091040260200160405190810160405280929190818152602001828054612f73906147c7565b8015612fc05780601f10612f9557610100808354040283529160200191612fc0565b820191906000526020600020905b815481529060010190602001808311612fa357829003601f168201915b505050505081526020019060010190612f28565b50505050815260200160018201805480602002602001604051908101604052809291908181526020016000905b828210156130ad578382906000526020600020018054613020906147c7565b80601f016020809104026020016040519081016040528092919081815260200182805461304c906147c7565b80156130995780601f1061306e57610100808354040283529160200191613099565b820191906000526020600020905b81548152906001019060200180831161307c57829003601f168201915b505050505081526020019060010190613001565b50505050815260200160028201805480602002602001604051908101604052809291908181526020016000905b828210156131865783829060005260206000200180546130f9906147c7565b80601f0160208091040260200160405190810160405280929190818152602001828054613125906147c7565b80156131725780601f1061314757610100808354040283529160200191613172565b820191906000526020600020905b81548152906001019060200180831161315557829003601f168201915b5050505050815260200190600101906130da565b505050508152505090806005016040518060600160405290816000820180546131ae906147c7565b80601f01602080910402602001604051908101604052809291908181526020018280546131da906147c7565b80156132275780601f106131fc57610100808354040283529160200191613227565b820191906000526020600020905b81548152906001019060200180831161320a57829003601f168201915b50505050508152602001600182018054613240906147c7565b80601f016020809104026020016040519081016040528092919081815260200182805461326c906147c7565b80156132b95780601f1061328e576101008083540402835291602001916132b9565b820191906000526020600020905b81548152906001019060200180831161329c57829003601f168201915b5050505050815260200160028201805480602002602001604051908101604052809291908181526020016000905b8282101561116c578382906000526020600020018054613306906147c7565b80601f0160208091040260200160405190810160405280929190818152602001828054613332906147c7565b801561337f5780601f106133545761010080835404028352916020019161337f565b820191906000526020600020905b81548152906001019060200180831161336257829003601f168201915b5050505050815260200190600101906132e7565b60005b81518110156134915760008282815181106133b3576133b3614801565b60200260200101516000015190508282815181106133d3576133d3614801565b602002602001015160200151600882815481106133f2576133f2614801565b6000918252602091829020835160069290920201805460ff191660ff90921691909117815590820151600182019061342a9082614866565b506040820151600282019061343f9082614866565b50606082015160038201906134549082614866565b5060808201518051613470916004840191602090910190613836565b5060a0919091015160059091015550806134898161493b565b915050613396565b5050565b805160005b81811015613619578281815181106134b4576134b4614801565b60200260200101516000015160ff16600203613555578281815181106134dc576134dc614801565b602002602001015160800151518382815181106134fb576134fb614801565b602002602001015160a0015111156135555760405162461bcd60e51b815260206004820152601960248201527f42616c6c6f7473206e6f742073657420636f72726563746c79000000000000006044820152606401610926565b600883828151811061356957613569614801565b6020908102919091018101518254600180820185556000948552938390208251600690920201805460ff191660ff9092169190911781559181015190928201906135b39082614866565b50604082015160028201906135c89082614866565b50606082015160038201906135dd9082614866565b50608082015180516135f9916004840191602090910190613836565b5060a08201518160050155505080806136119061493b565b91505061349a565b506040517f6692f63de48205073382c0f71d7ecb24505640478dcc5f61c8aced55400ca08390600090a15050565b60005b815181101561380957600854825183908390811061366a5761366a614801565b6020026020010151106136b15760405162461bcd60e51b815260206004820152600f60248201526e2b37ba32903737ba103337bab7321760891b6044820152606401610926565b600880546136c190600190614954565b815481106136d1576136d1614801565b906000526020600020906006020160088383815181106136f3576136f3614801565b60200260200101518154811061370b5761370b614801565b600091825260209091208254600690920201805460ff191660ff90921691909117815560018082019061374090840182614967565b5060028181019061375390840182614967565b5060038181019061376690840182614967565b506004828101805461377b928401919061388c565b50600591820154910155600880548061379657613796614a41565b600082815260208120600660001990930192830201805460ff19168155906137c160018301826138d4565b6137cf6002830160006138d4565b6137dd6003830160006138d4565b6137eb600483016000613911565b506000600591909101559055806138018161493b565b91505061364a565b506040517fb40bf43f519ed7700dfa950fec11d32f3b7038299b360e9bcc971915d65ab0b990600090a150565b82805482825590600052602060002090810192821561387c579160200282015b8281111561387c578251829061386c9082614866565b5091602001919060010190613856565b5061388892915061392b565b5090565b82805482825590600052602060002090810192821561387c5760005260206000209182015b8281111561387c57816138c48482614967565b50916001019190600101906138b1565b5080546138e0906147c7565b6000825580601f106138f0575050565b601f01602090049060005260206000209081019061390e9190613948565b50565b508054600082559060005260206000209081019061390e91905b8082111561388857600061393f82826138d4565b5060010161392b565b5b808211156138885760008155600101613949565b6000815180845260005b8181101561398357602081850181015186830182015201613967565b506000602082860101526020601f19601f83011685010191505092915050565b6020815260006139b6602083018461395d565b9392505050565b634e487b7160e01b600052604160045260246000fd5b604051606081016001600160401b03811182821017156139f5576139f56139bd565b60405290565b60405160c081016001600160401b03811182821017156139f5576139f56139bd565b604080519081016001600160401b03811182821017156139f5576139f56139bd565b604051608081016001600160401b03811182821017156139f5576139f56139bd565b604051601f8201601f191681016001600160401b0381118282101715613a8957613a896139bd565b604052919050565b60006001600160401b03821115613aaa57613aaa6139bd565b5060051b60200190565b600082601f830112613ac557600080fd5b81356001600160401b03811115613ade57613ade6139bd565b613af1601f8201601f1916602001613a61565b818152846020838601011115613b0657600080fd5b816020850160208301376000918101602001919091529392505050565b600082601f830112613b3457600080fd5b81356020613b49613b4483613a91565b613a61565b82815260059290921b84018101918181019086841115613b6857600080fd5b8286015b84811015613ba75780356001600160401b03811115613b8b5760008081fd5b613b998986838b0101613ab4565b845250918301918301613b6c565b509695505050505050565b600060608284031215613bc457600080fd5b613bcc6139d3565b905081356001600160401b0380821115613be557600080fd5b613bf185838601613b23565b83526020840135915080821115613c0757600080fd5b613c1385838601613b23565b60208401526040840135915080821115613c2c57600080fd5b50613c3984828501613b23565b60408301525092915050565b600060608284031215613c5757600080fd5b613c5f6139d3565b905081356001600160401b0380821115613c7857600080fd5b613c8485838601613ab4565b83526020840135915080821115613c9a57600080fd5b613c1385838601613ab4565b600060208284031215613cb857600080fd5b6001600160401b038083351115613cce57600080fd5b8235830184601f820112613ce157600080fd5b613cee613b448235613a91565b81358082526020808301929160051b840101871015613d0c57600080fd5b602083015b6020843560051b850101811015613ba7578481351115613d3057600080fd5b8035840188603f820112613d4357600080fd5b613d53613b446020830135613a91565b602082810135808352908201919060051b83016040018b1015613d7557600080fd5b604083015b6040602085013560051b850101811015613ebd578881351115613d9c57600080fd5b8035840160c0818e03603f19011215613db457600080fd5b613dbc6139fb565b8a60408301351115613dcd57600080fd5b613ddf8e604080850135850101613ab4565b81528a60608301351115613df257600080fd5b613e058e60406060850135850101613ab4565b60208201528a60808301351115613e1b57600080fd5b613e2e8e60406080850135850101613bb2565b60408201528a60a08301351115613e4457600080fd5b613e578e604060a0850135850101613c45565b60608201528a60c08301351115613e6d57600080fd5b613e808e604060c0850135850101613ab4565b60808201528a60e08301351115613e9657600080fd5b613ea98e604060e0850135850101613ab4565b60a082015284525060209283019201613d7a565b508552505060209283019201613d11565b6020808252825182820181905260009190848201906040850190845b81811015613f0657835183529284019291840191600101613eea565b50909695505050505050565b600060208284031215613f2457600080fd5b5035919050565b803560ff81168114613f3c57600080fd5b919050565b600060c08284031215613f5357600080fd5b613f5b6139fb565b9050613f6682613f2b565b815260208201356001600160401b0380821115613f8257600080fd5b613f8e85838601613ab4565b60208401526040840135915080821115613fa757600080fd5b613fb385838601613ab4565b60408401526060840135915080821115613fcc57600080fd5b613fd885838601613ab4565b60608401526080840135915080821115613ff157600080fd5b50613ffe84828501613b23565b60808301525060a082013560a082015292915050565b600082601f83011261402557600080fd5b81356020614035613b4483613a91565b82815260059290921b8401810191818101908684111561405457600080fd5b8286015b84811015613ba75780356001600160401b03808211156140785760008081fd5b908801906040828b03601f19018113156140925760008081fd5b61409a613a1d565b8388013581529083013590828211156140b35760008081fd5b6140c18c8984870101613f41565b818901528652505050918301918301614058565b600082601f8301126140e657600080fd5b813560206140f6613b4483613a91565b82815260059290921b8401810191818101908684111561411557600080fd5b8286015b84811015613ba75780356001600160401b038111156141385760008081fd5b6141468986838b0101613f41565b845250918301918301614119565b600082601f83011261416557600080fd5b81356020614175613b4483613a91565b82815260059290921b8401810191818101908684111561419457600080fd5b8286015b84811015613ba75780358352918301918301614198565b600080600080608085870312156141c557600080fd5b84356001600160401b03808211156141dc57600080fd5b90860190608082890312156141f057600080fd5b6141f8613a3f565b82358281111561420757600080fd5b6142138a828601613ab4565b82525060208301358281111561422857600080fd5b6142348a828601613ab4565b602083015250604083013560408201526060830135606082015280965050602087013591508082111561426657600080fd5b61427288838901614014565b9450604087013591508082111561428857600080fd5b614294888389016140d5565b935060608701359150808211156142aa57600080fd5b506142b787828801614154565b91505092959194509250565b6000806000606084860312156142d857600080fd5b505081359360208301359350604090920135919050565b600081518084526020808501808196508360051b8101915082860160005b8581101561433757828403895261432584835161395d565b9885019893509084019060010161430d565b5091979650505050505050565b600081516060845261435960608501826142ef565b90506020830151848203602086015261437282826142ef565b9150506040830151848203604086015261438c82826142ef565b95945050505050565b60008151606084526143aa606085018261395d565b905060208301518482036020860152614372828261395d565b60c0815260006143d660c083018961395d565b82810360208401526143e8818961395d565b905082810360408401526143fc8188614344565b905082810360608401526144108187614395565b90508281036080840152614424818661395d565b905082810360a0840152614438818561395d565b9998505050505050505050565b600081518084526020808501808196508360051b8101915082860160005b85811015614337578284038952815160c060ff82511686528682015181888801526144908288018261395d565b915050604080830151878303828901526144aa838261395d565b92505050606080830151878303828901526144c5838261395d565b92505050608080830151878303828901526144e083826142ef565b60a0948501519890940197909752505098850198935090840190600101614463565b6020815260006139b66020830184614445565b634e487b7160e01b600052602160045260246000fd5b6004811061454957634e487b7160e01b600052602160045260246000fd5b9052565b6020810161455b828461452b565b92915050565b60006020808301818452808551808352604092508286019150828160051b87010184880160005b8381101561468757888303603f19018552815180518085529088019088850190600581901b86018a0160005b8281101561467157601f19888303018452845160c081518185526145da8286018261395d565b9150508d8201518482038f8601526145f2828261395d565b9150508c8201518482038e86015261460a8282614344565b915050606080830151858303828701526146248382614395565b925050506080808301518583038287015261463f838261395d565b9250505060a0808301519250848203818601525061465d818361395d565b968e0196958e0195935050506001016145b4565b50978a0197955050509187019150600101614588565b509098975050505050505050565b60ff8616815260a0602082015260006146b160a083018761395d565b82810360408401526146c3818761395d565b905082810360608401526146d7818661395d565b9150508260808301529695505050505050565b600080604083850312156146fd57600080fd5b50508035926020909101359150565b6000806040838503121561471f57600080fd5b82356001600160a01b038116811461473657600080fd5b946020939093013593505050565b6001600160a01b038a168152610120602082018190526000906147698382018c61395d565b9050828103604084015261477d818b61395d565b905061478c606084018a61452b565b8760808401528660a08401528560c08401528460e08401528281036101008401526147b78185614445565b9c9b505050505050505050505050565b600181811c908216806147db57607f821691505b6020821081036147fb57634e487b7160e01b600052602260045260246000fd5b50919050565b634e487b7160e01b600052603260045260246000fd5b601f82111561486157600081815260208120601f850160051c8101602086101561483e5750805b601f850160051c820191505b8181101561485d5782815560010161484a565b5050505b505050565b81516001600160401b0381111561487f5761487f6139bd565b6148938161488d84546147c7565b84614817565b602080601f8311600181146148c857600084156148b05750858301515b600019600386901b1c1916600185901b17855561485d565b600085815260208120601f198616915b828110156148f7578886015182559484019460019091019084016148d8565b50858210156149155787850151600019600388901b60f8161c191681555b5050505050600190811b01905550565b634e487b7160e01b600052601160045260246000fd5b60006001820161494d5761494d614925565b5060010190565b8181038181111561455b5761455b614925565b818103614972575050565b61497c82546147c7565b6001600160401b03811115614993576149936139bd565b6149a18161488d84546147c7565b6000601f8211600181146149d557600083156149bd5750848201545b600019600385901b1c1916600184901b178455614a3a565b600085815260209020601f19841690600086815260209020845b83811015614a0f57828601548255600195860195909101906020016149ef565b5085831015614a2d5781850154600019600388901b60f8161c191681555b50505060018360011b0184555b5050505050565b634e487b7160e01b600052603160045260246000fdfea2646970667358221220df56807602831e4c502a2ad6b79851a3c3664982524cf88b6fa2aea122082da764736f6c63430008110033",
  "linkReferences": {},
  "deployedLinkReferences": {}
}