{
  "_format": "hh-sol-artifact-1",
  "contractName": "Paymaster",
  "sourceName": "contracts/Paymaster.sol",
  "abi": [
    {
      "anonymous": false,
      "inputs": [
        {
          "indexed": true,
          "internalType": "address",
          "name": "previousOwner",
          "type": "address"
        },
        {
          "indexed": true,
          "internalType": "address",
          "name": "newOwner",
          "type": "address"
        }
      ],
      "name": "OwnershipTransferred",
      "type": "event"
    },
    {
      "anonymous": false,
      "inputs": [
        {
          "indexed": false,
          "internalType": "address",
          "name": "target",
          "type": "address"
        }
      ],
      "name": "TargetSet",
      "type": "event"
    },
    {
      "inputs": [],
      "name": "CALLDATA_SIZE_LIMIT",
      "outputs": [
        {
          "internalType": "uint256",
          "name": "",
          "type": "uint256"
        }
      ],
      "stateMutability": "view",
      "type": "function"
    },
    {
      "inputs": [],
      "name": "FORWARDER_HUB_OVERHEAD",
      "outputs": [
        {
          "internalType": "uint256",
          "name": "",
          "type": "uint256"
        }
      ],
      "stateMutability": "view",
      "type": "function"
    },
    {
      "inputs": [],
      "name": "PAYMASTER_ACCEPTANCE_BUDGET",
      "outputs": [
        {
          "internalType": "uint256",
          "name": "",
          "type": "uint256"
        }
      ],
      "stateMutability": "view",
      "type": "function"
    },
    {
      "inputs": [],
      "name": "POST_RELAYED_CALL_GAS_LIMIT",
      "outputs": [
        {
          "internalType": "uint256",
          "name": "",
          "type": "uint256"
        }
      ],
      "stateMutability": "view",
      "type": "function"
    },
    {
      "inputs": [],
      "name": "PRE_RELAYED_CALL_GAS_LIMIT",
      "outputs": [
        {
          "internalType": "uint256",
          "name": "",
          "type": "uint256"
        }
      ],
      "stateMutability": "view",
      "type": "function"
    },
    {
      "inputs": [],
      "name": "deposit",
      "outputs": [],
      "stateMutability": "payable",
      "type": "function"
    },
    {
      "inputs": [],
      "name": "getGasAndDataLimits",
      "outputs": [
        {
          "components": [
            {
              "internalType": "uint256",
              "name": "acceptanceBudget",
              "type": "uint256"
            },
            {
              "internalType": "uint256",
              "name": "preRelayedCallGasLimit",
              "type": "uint256"
            },
            {
              "internalType": "uint256",
              "name": "postRelayedCallGasLimit",
              "type": "uint256"
            },
            {
              "internalType": "uint256",
              "name": "calldataSizeLimit",
              "type": "uint256"
            }
          ],
          "internalType": "struct IPaymaster.GasAndDataLimits",
          "name": "limits",
          "type": "tuple"
        }
      ],
      "stateMutability": "view",
      "type": "function"
    },
    {
      "inputs": [],
      "name": "getRelayHub",
      "outputs": [
        {
          "internalType": "address",
          "name": "",
          "type": "address"
        }
      ],
      "stateMutability": "view",
      "type": "function"
    },
    {
      "inputs": [],
      "name": "getTrustedForwarder",
      "outputs": [
        {
          "internalType": "address",
          "name": "",
          "type": "address"
        }
      ],
      "stateMutability": "view",
      "type": "function"
    },
    {
      "inputs": [],
      "name": "ourTarget",
      "outputs": [
        {
          "internalType": "address",
          "name": "",
          "type": "address"
        }
      ],
      "stateMutability": "view",
      "type": "function"
    },
    {
      "inputs": [],
      "name": "owner",
      "outputs": [
        {
          "internalType": "address",
          "name": "",
          "type": "address"
        }
      ],
      "stateMutability": "view",
      "type": "function"
    },
    {
      "inputs": [
        {
          "internalType": "bytes",
          "name": "context",
          "type": "bytes"
        },
        {
          "internalType": "bool",
          "name": "success",
          "type": "bool"
        },
        {
          "internalType": "uint256",
          "name": "gasUseWithoutPost",
          "type": "uint256"
        },
        {
          "components": [
            {
              "internalType": "uint256",
              "name": "maxFeePerGas",
              "type": "uint256"
            },
            {
              "internalType": "uint256",
              "name": "maxPriorityFeePerGas",
              "type": "uint256"
            },
            {
              "internalType": "uint256",
              "name": "transactionCalldataGasUsed",
              "type": "uint256"
            },
            {
              "internalType": "address",
              "name": "relayWorker",
              "type": "address"
            },
            {
              "internalType": "address",
              "name": "paymaster",
              "type": "address"
            },
            {
              "internalType": "address",
              "name": "forwarder",
              "type": "address"
            },
            {
              "internalType": "bytes",
              "name": "paymasterData",
              "type": "bytes"
            },
            {
              "internalType": "uint256",
              "name": "clientId",
              "type": "uint256"
            }
          ],
          "internalType": "struct GsnTypes.RelayData",
          "name": "relayData",
          "type": "tuple"
        }
      ],
      "name": "postRelayedCall",
      "outputs": [],
      "stateMutability": "nonpayable",
      "type": "function"
    },
    {
      "inputs": [
        {
          "components": [
            {
              "components": [
                {
                  "internalType": "address",
                  "name": "from",
                  "type": "address"
                },
                {
                  "internalType": "address",
                  "name": "to",
                  "type": "address"
                },
                {
                  "internalType": "uint256",
                  "name": "value",
                  "type": "uint256"
                },
                {
                  "internalType": "uint256",
                  "name": "gas",
                  "type": "uint256"
                },
                {
                  "internalType": "uint256",
                  "name": "nonce",
                  "type": "uint256"
                },
                {
                  "internalType": "bytes",
                  "name": "data",
                  "type": "bytes"
                },
                {
                  "internalType": "uint256",
                  "name": "validUntilTime",
                  "type": "uint256"
                }
              ],
              "internalType": "struct IForwarder.ForwardRequest",
              "name": "request",
              "type": "tuple"
            },
            {
              "components": [
                {
                  "internalType": "uint256",
                  "name": "maxFeePerGas",
                  "type": "uint256"
                },
                {
                  "internalType": "uint256",
                  "name": "maxPriorityFeePerGas",
                  "type": "uint256"
                },
                {
                  "internalType": "uint256",
                  "name": "transactionCalldataGasUsed",
                  "type": "uint256"
                },
                {
                  "internalType": "address",
                  "name": "relayWorker",
                  "type": "address"
                },
                {
                  "internalType": "address",
                  "name": "paymaster",
                  "type": "address"
                },
                {
                  "internalType": "address",
                  "name": "forwarder",
                  "type": "address"
                },
                {
                  "internalType": "bytes",
                  "name": "paymasterData",
                  "type": "bytes"
                },
                {
                  "internalType": "uint256",
                  "name": "clientId",
                  "type": "uint256"
                }
              ],
              "internalType": "struct GsnTypes.RelayData",
              "name": "relayData",
              "type": "tuple"
            }
          ],
          "internalType": "struct GsnTypes.RelayRequest",
          "name": "relayRequest",
          "type": "tuple"
        },
        {
          "internalType": "bytes",
          "name": "signature",
          "type": "bytes"
        },
        {
          "internalType": "bytes",
          "name": "approvalData",
          "type": "bytes"
        },
        {
          "internalType": "uint256",
          "name": "maxPossibleGas",
          "type": "uint256"
        }
      ],
      "name": "preRelayedCall",
      "outputs": [
        {
          "internalType": "bytes",
          "name": "",
          "type": "bytes"
        },
        {
          "internalType": "bool",
          "name": "",
          "type": "bool"
        }
      ],
      "stateMutability": "nonpayable",
      "type": "function"
    },
    {
      "inputs": [],
      "name": "renounceOwnership",
      "outputs": [],
      "stateMutability": "nonpayable",
      "type": "function"
    },
    {
      "inputs": [
        {
          "internalType": "contract IRelayHub",
          "name": "hub",
          "type": "address"
        }
      ],
      "name": "setRelayHub",
      "outputs": [],
      "stateMutability": "nonpayable",
      "type": "function"
    },
    {
      "inputs": [
        {
          "internalType": "address",
          "name": "target",
          "type": "address"
        }
      ],
      "name": "setTarget",
      "outputs": [],
      "stateMutability": "nonpayable",
      "type": "function"
    },
    {
      "inputs": [
        {
          "internalType": "address",
          "name": "forwarder",
          "type": "address"
        }
      ],
      "name": "setTrustedForwarder",
      "outputs": [],
      "stateMutability": "nonpayable",
      "type": "function"
    },
    {
      "inputs": [
        {
          "internalType": "bytes4",
          "name": "interfaceId",
          "type": "bytes4"
        }
      ],
      "name": "supportsInterface",
      "outputs": [
        {
          "internalType": "bool",
          "name": "",
          "type": "bool"
        }
      ],
      "stateMutability": "view",
      "type": "function"
    },
    {
      "inputs": [
        {
          "internalType": "address",
          "name": "newOwner",
          "type": "address"
        }
      ],
      "name": "transferOwnership",
      "outputs": [],
      "stateMutability": "nonpayable",
      "type": "function"
    },
    {
      "inputs": [],
      "name": "versionPaymaster",
      "outputs": [
        {
          "internalType": "string",
          "name": "",
          "type": "string"
        }
      ],
      "stateMutability": "view",
      "type": "function"
    },
    {
      "inputs": [
        {
          "internalType": "address payable",
          "name": "destination",
          "type": "address"
        }
      ],
      "name": "withdrawAll",
      "outputs": [],
      "stateMutability": "nonpayable",
      "type": "function"
    },
    {
      "inputs": [
        {
          "internalType": "uint256",
          "name": "amount",
          "type": "uint256"
        },
        {
          "internalType": "address payable",
          "name": "target",
          "type": "address"
        }
      ],
      "name": "withdrawRelayHubDepositTo",
      "outputs": [],
      "stateMutability": "nonpayable",
      "type": "function"
    },
    {
      "stateMutability": "payable",
      "type": "receive"
    }
  ],
  "bytecode": "0x608060405234801561001057600080fd5b5061002d61002261003260201b60201c565b61003a60201b60201c565b6100fe565b600033905090565b60008060009054906101000a900473ffffffffffffffffffffffffffffffffffffffff169050816000806101000a81548173ffffffffffffffffffffffffffffffffffffffff021916908373ffffffffffffffffffffffffffffffffffffffff1602179055508173ffffffffffffffffffffffffffffffffffffffff168173ffffffffffffffffffffffffffffffffffffffff167f8be0079c531659141344cd1fd0a4f28419497f9722a3daafe3b4186f6b6457e060405160405180910390a35050565b612463806200010e6000396000f3fe6080604052600436106101385760003560e01c8063921276ea116100ab578063d0e30db01161006f578063d0e30db014610517578063da74222814610521578063df463a661461054a578063f2fde38b14610575578063f9c002f71461059e578063fa09e630146105c957610259565b8063921276ea14610440578063b039a88f1461046b578063b90b41cf14610496578063bbdaa3c9146104c1578063ce1b815f146104ec57610259565b806376fa01c3116100fd57806376fa01c314610344578063776d1a011461036d5780637bb05264146103965780637bdf2ec7146103bf57806380d324f1146103ea5780638da5cb5b1461041557610259565b8062be5dd41461025e57806301ffc9a71461029c5780632d14c4b7146102d95780635c5e3db114610302578063715018a61461032d57610259565b3661025957600073ffffffffffffffffffffffffffffffffffffffff16600160009054906101000a900473ffffffffffffffffffffffffffffffffffffffff1673ffffffffffffffffffffffffffffffffffffffff16036101ce576040517f08c379a00000000000000000000000000000000000000000000000000000000081526004016101c59061157f565b60405180910390fd5b600160009054906101000a900473ffffffffffffffffffffffffffffffffffffffff1673ffffffffffffffffffffffffffffffffffffffff1663aa67c91934306040518363ffffffff1660e01b815260040161022a91906115e0565b6000604051808303818588803b15801561024357600080fd5b505af1158015610257573d6000803e3d6000fd5b005b600080fd5b34801561026a57600080fd5b50610285600480360381019061028091906116c4565b6105f2565b604051610293929190611832565b60405180910390f35b3480156102a857600080fd5b506102c360048036038101906102be91906118ba565b610640565b6040516102d091906118e7565b60405180910390f35b3480156102e557600080fd5b5061030060048036038101906102fb9190611940565b610722565b005b34801561030e57600080fd5b506103176107bd565b604051610324919061198f565b60405180910390f35b34801561033957600080fd5b506103426107c3565b005b34801561035057600080fd5b5061036b600480360381019061036691906119f6565b6107d7565b005b34801561037957600080fd5b50610394600480360381019061038f9190611ac6565b6107f3565b005b3480156103a257600080fd5b506103bd60048036038101906103b89190611b31565b610876565b005b3480156103cb57600080fd5b506103d461094a565b6040516103e191906115e0565b60405180910390f35b3480156103f657600080fd5b506103ff610974565b60405161040c91906115e0565b60405180910390f35b34801561042157600080fd5b5061042a61099a565b60405161043791906115e0565b60405180910390f35b34801561044c57600080fd5b506104556109c3565b6040516104629190611ba2565b60405180910390f35b34801561047757600080fd5b506104806109e3565b60405161048d9190611c28565b60405180910390f35b3480156104a257600080fd5b506104ab610a29565b6040516104b8919061198f565b60405180910390f35b3480156104cd57600080fd5b506104d6610a2f565b6040516104e3919061198f565b60405180910390f35b3480156104f857600080fd5b50610501610a36565b60405161050e91906115e0565b60405180910390f35b61051f610a60565b005b34801561052d57600080fd5b5061054860048036038101906105439190611ac6565b610b81565b005b34801561055657600080fd5b5061055f610c55565b60405161056c919061198f565b60405180910390f35b34801561058157600080fd5b5061059c60048036038101906105979190611ac6565b610c69565b005b3480156105aa57600080fd5b506105b3610cec565b6040516105c0919061198f565b60405180910390f35b3480156105d557600080fd5b506105f060048036038101906105eb9190611c43565b610cf3565b005b606060006105fe610da1565b61060788610e18565b61061088610eba565b61061988610f13565b6106238585610f79565b610631888888888888610fc3565b91509150965096945050505050565b60007fe1ab2dea000000000000000000000000000000000000000000000000000000007bffffffffffffffffffffffffffffffffffffffffffffffffffffffff1916827bffffffffffffffffffffffffffffffffffffffffffffffffffffffff1916148061070b57507f0e083076000000000000000000000000000000000000000000000000000000007bffffffffffffffffffffffffffffffffffffffffffffffffffffffff1916827bffffffffffffffffffffffffffffffffffffffffffffffffffffffff1916145b8061071b575061071a8261100e565b5b9050919050565b61072a611078565b600160009054906101000a900473ffffffffffffffffffffffffffffffffffffffff1673ffffffffffffffffffffffffffffffffffffffff1663f3fef3a382846040518363ffffffff1660e01b8152600401610787929190611c7f565b600060405180830381600087803b1580156107a157600080fd5b505af11580156107b5573d6000803e3d6000fd5b505050505050565b61290481565b6107cb611078565b6107d560006110f6565b565b6107df610da1565b6107ec85858585856111ba565b5050505050565b6107fb611078565b80600360006101000a81548173ffffffffffffffffffffffffffffffffffffffff021916908373ffffffffffffffffffffffffffffffffffffffff1602179055507f3bfb4bbf112628248058745a3c57e35b13369386e474b8e56c552f3063a4a1968160405161086b91906115e0565b60405180910390a150565b61087e611078565b6108c77fe9fb30f7000000000000000000000000000000000000000000000000000000008273ffffffffffffffffffffffffffffffffffffffff166111c190919063ffffffff16565b610906576040517f08c379a00000000000000000000000000000000000000000000000000000000081526004016108fd90611cf4565b60405180910390fd5b80600160006101000a81548173ffffffffffffffffffffffffffffffffffffffff021916908373ffffffffffffffffffffffffffffffffffffffff16021790555050565b6000600160009054906101000a900473ffffffffffffffffffffffffffffffffffffffff16905090565b600360009054906101000a900473ffffffffffffffffffffffffffffffffffffffff1681565b60008060009054906101000a900473ffffffffffffffffffffffffffffffffffffffff16905090565b606060405180606001604052806028815260200161240660289139905090565b6109eb6114fa565b604051806080016040528061c350620186a0610a079190611d43565b8152602001620186a081526020016201adb08152602001612904815250905090565b61c35081565b6201adb081565b6000600260009054906101000a900473ffffffffffffffffffffffffffffffffffffffff16905090565b600073ffffffffffffffffffffffffffffffffffffffff16600160009054906101000a900473ffffffffffffffffffffffffffffffffffffffff1673ffffffffffffffffffffffffffffffffffffffff1603610af1576040517f08c379a0000000000000000000000000000000000000000000000000000000008152600401610ae89061157f565b60405180910390fd5b600160009054906101000a900473ffffffffffffffffffffffffffffffffffffffff1673ffffffffffffffffffffffffffffffffffffffff1663aa67c91934306040518363ffffffff1660e01b8152600401610b4d91906115e0565b6000604051808303818588803b158015610b6657600080fd5b505af1158015610b7a573d6000803e3d6000fd5b5050505050565b610b89611078565b610bd27f25e23e64000000000000000000000000000000000000000000000000000000008273ffffffffffffffffffffffffffffffffffffffff166111c190919063ffffffff16565b610c11576040517f08c379a0000000000000000000000000000000000000000000000000000000008152600401610c0890611dc3565b60405180910390fd5b80600260006101000a81548173ffffffffffffffffffffffffffffffffffffffff021916908373ffffffffffffffffffffffffffffffffffffffff16021790555050565b61c350620186a0610c669190611d43565b81565b610c71611078565b600073ffffffffffffffffffffffffffffffffffffffff168173ffffffffffffffffffffffffffffffffffffffff1603610ce0576040517f08c379a0000000000000000000000000000000000000000000000000000000008152600401610cd790611e55565b60405180910390fd5b610ce9816110f6565b50565b620186a081565b6000600160009054906101000a900473ffffffffffffffffffffffffffffffffffffffff1673ffffffffffffffffffffffffffffffffffffffff166370a08231306040518263ffffffff1660e01b8152600401610d5091906115e0565b602060405180830381865afa158015610d6d573d6000803e3d6000fd5b505050506040513d601f19601f82011682018060405250810190610d919190611e8a565b9050610d9d8183610722565b5050565b610da961094a565b73ffffffffffffffffffffffffffffffffffffffff163373ffffffffffffffffffffffffffffffffffffffff1614610e16576040517f08c379a0000000000000000000000000000000000000000000000000000000008152600401610e0d90611f03565b60405180910390fd5b565b808060200190610e289190611f32565b60a0016020810190610e3a9190611ac6565b73ffffffffffffffffffffffffffffffffffffffff16610e58610a36565b73ffffffffffffffffffffffffffffffffffffffff1614610eae576040517f08c379a0000000000000000000000000000000000000000000000000000000008152600401610ea590611fa7565b60405180910390fd5b610eb7816111e6565b50565b6000818060000190610ecc9190611fc7565b6040013514610f10576040517f08c379a0000000000000000000000000000000000000000000000000000000008152600401610f079061203b565b60405180910390fd5b50565b6000818060200190610f259190611f32565b8060c00190610f34919061205b565b905014610f76576040517f08c379a0000000000000000000000000000000000000000000000000000000008152600401610f6d9061210a565b60405180910390fd5b50565b60008282905014610fbf576040517f08c379a0000000000000000000000000000000000000000000000000000000008152600401610fb690612176565b60405180910390fd5b5050565b60606000806040518060400160405280600e81526020017f6e6f2072657665727420686572650000000000000000000000000000000000008152509091509150965096945050505050565b60007f01ffc9a7000000000000000000000000000000000000000000000000000000007bffffffffffffffffffffffffffffffffffffffffffffffffffffffff1916827bffffffffffffffffffffffffffffffffffffffffffffffffffffffff1916149050919050565b6110806113e6565b73ffffffffffffffffffffffffffffffffffffffff1661109e61099a565b73ffffffffffffffffffffffffffffffffffffffff16146110f4576040517f08c379a00000000000000000000000000000000000000000000000000000000081526004016110eb906121e2565b60405180910390fd5b565b60008060009054906101000a900473ffffffffffffffffffffffffffffffffffffffff169050816000806101000a81548173ffffffffffffffffffffffffffffffffffffffff021916908373ffffffffffffffffffffffffffffffffffffffff1602179055508173ffffffffffffffffffffffffffffffffffffffff168173ffffffffffffffffffffffffffffffffffffffff167f8be0079c531659141344cd1fd0a4f28419497f9722a3daafe3b4186f6b6457e060405160405180910390a35050565b5050505050565b60006111cc836113ee565b80156111de57506111dd838361143b565b5b905092915050565b6000808280600001906111f99190611fc7565b602001602081019061120b9190611ac6565b73ffffffffffffffffffffffffffffffffffffffff1663572b6c0560e01b8480602001906112399190611f32565b60a001602081019061124b9190611ac6565b60405160240161125b91906115e0565b604051602081830303815290604052907bffffffffffffffffffffffffffffffffffffffffffffffffffffffff19166020820180517bffffffffffffffffffffffffffffffffffffffffffffffffffffffff83818316178352505050506040516112c5919061223e565b600060405180830381855afa9150503d8060008114611300576040519150601f19603f3d011682016040523d82523d6000602084013e611305565b606091505b50915091508161134a576040517f08c379a0000000000000000000000000000000000000000000000000000000008152600401611341906122a1565b60405180910390fd5b602081511461138e576040517f08c379a00000000000000000000000000000000000000000000000000000000081526004016113859061230d565b60405180910390fd5b808060200190518101906113a29190612342565b6113e1576040517f08c379a00000000000000000000000000000000000000000000000000000000081526004016113d8906123bb565b60405180910390fd5b505050565b600033905090565b600061141a827f01ffc9a70000000000000000000000000000000000000000000000000000000061143b565b801561143457506114328263ffffffff60e01b61143b565b155b9050919050565b6000806301ffc9a760e01b8360405160240161145791906123ea565b604051602081830303815290604052907bffffffffffffffffffffffffffffffffffffffffffffffffffffffff19166020820180517bffffffffffffffffffffffffffffffffffffffffffffffffffffffff838183161783525050505090506000806000602060008551602087018a617530fa92503d915060005190508280156114e2575060208210155b80156114ee5750600081115b94505050505092915050565b6040518060800160405280600081526020016000815260200160008152602001600081525090565b600082825260208201905092915050565b7f72656c6179206875622061646472657373206e6f742073657400000000000000600082015250565b6000611569601983611522565b915061157482611533565b602082019050919050565b600060208201905081810360008301526115988161155c565b9050919050565b600073ffffffffffffffffffffffffffffffffffffffff82169050919050565b60006115ca8261159f565b9050919050565b6115da816115bf565b82525050565b60006020820190506115f560008301846115d1565b92915050565b600080fd5b600080fd5b600080fd5b6000604082840312156116205761161f611605565b5b81905092915050565b600080fd5b600080fd5b600080fd5b60008083601f84011261164e5761164d611629565b5b8235905067ffffffffffffffff81111561166b5761166a61162e565b5b60208301915083600182028301111561168757611686611633565b5b9250929050565b6000819050919050565b6116a18161168e565b81146116ac57600080fd5b50565b6000813590506116be81611698565b92915050565b600080600080600080608087890312156116e1576116e06115fb565b5b600087013567ffffffffffffffff8111156116ff576116fe611600565b5b61170b89828a0161160a565b965050602087013567ffffffffffffffff81111561172c5761172b611600565b5b61173889828a01611638565b9550955050604087013567ffffffffffffffff81111561175b5761175a611600565b5b61176789828a01611638565b9350935050606061177a89828a016116af565b9150509295509295509295565b600081519050919050565b600082825260208201905092915050565b60005b838110156117c15780820151818401526020810190506117a6565b60008484015250505050565b6000601f19601f8301169050919050565b60006117e982611787565b6117f38185611792565b93506118038185602086016117a3565b61180c816117cd565b840191505092915050565b60008115159050919050565b61182c81611817565b82525050565b6000604082019050818103600083015261184c81856117de565b905061185b6020830184611823565b9392505050565b60007fffffffff0000000000000000000000000000000000000000000000000000000082169050919050565b61189781611862565b81146118a257600080fd5b50565b6000813590506118b48161188e565b92915050565b6000602082840312156118d0576118cf6115fb565b5b60006118de848285016118a5565b91505092915050565b60006020820190506118fc6000830184611823565b92915050565b600061190d8261159f565b9050919050565b61191d81611902565b811461192857600080fd5b50565b60008135905061193a81611914565b92915050565b60008060408385031215611957576119566115fb565b5b6000611965858286016116af565b92505060206119768582860161192b565b9150509250929050565b6119898161168e565b82525050565b60006020820190506119a46000830184611980565b92915050565b6119b381611817565b81146119be57600080fd5b50565b6000813590506119d0816119aa565b92915050565b600061010082840312156119ed576119ec611605565b5b81905092915050565b600080600080600060808688031215611a1257611a116115fb565b5b600086013567ffffffffffffffff811115611a3057611a2f611600565b5b611a3c88828901611638565b95509550506020611a4f888289016119c1565b9350506040611a60888289016116af565b925050606086013567ffffffffffffffff811115611a8157611a80611600565b5b611a8d888289016119d6565b9150509295509295909350565b611aa3816115bf565b8114611aae57600080fd5b50565b600081359050611ac081611a9a565b92915050565b600060208284031215611adc57611adb6115fb565b5b6000611aea84828501611ab1565b91505092915050565b6000611afe826115bf565b9050919050565b611b0e81611af3565b8114611b1957600080fd5b50565b600081359050611b2b81611b05565b92915050565b600060208284031215611b4757611b466115fb565b5b6000611b5584828501611b1c565b91505092915050565b600081519050919050565b6000611b7482611b5e565b611b7e8185611522565b9350611b8e8185602086016117a3565b611b97816117cd565b840191505092915050565b60006020820190508181036000830152611bbc8184611b69565b905092915050565b611bcd8161168e565b82525050565b608082016000820151611be96000850182611bc4565b506020820151611bfc6020850182611bc4565b506040820151611c0f6040850182611bc4565b506060820151611c226060850182611bc4565b50505050565b6000608082019050611c3d6000830184611bd3565b92915050565b600060208284031215611c5957611c586115fb565b5b6000611c678482850161192b565b91505092915050565b611c7981611902565b82525050565b6000604082019050611c946000830185611c70565b611ca16020830184611980565b9392505050565b7f746172676574206973206e6f7420612076616c6964204952656c617948756200600082015250565b6000611cde601f83611522565b9150611ce982611ca8565b602082019050919050565b60006020820190508181036000830152611d0d81611cd1565b9050919050565b7f4e487b7100000000000000000000000000000000000000000000000000000000600052601160045260246000fd5b6000611d4e8261168e565b9150611d598361168e565b9250828201905080821115611d7157611d70611d14565b5b92915050565b7f746172676574206973206e6f7420612076616c69642049466f72776172646572600082015250565b6000611dad602083611522565b9150611db882611d77565b602082019050919050565b60006020820190508181036000830152611ddc81611da0565b9050919050565b7f4f776e61626c653a206e6577206f776e657220697320746865207a65726f206160008201527f6464726573730000000000000000000000000000000000000000000000000000602082015250565b6000611e3f602683611522565b9150611e4a82611de3565b604082019050919050565b60006020820190508181036000830152611e6e81611e32565b9050919050565b600081519050611e8481611698565b92915050565b600060208284031215611ea057611e9f6115fb565b5b6000611eae84828501611e75565b91505092915050565b7f63616e206f6e6c792062652063616c6c65642062792052656c61794875620000600082015250565b6000611eed601e83611522565b9150611ef882611eb7565b602082019050919050565b60006020820190508181036000830152611f1c81611ee0565b9050919050565b600080fd5b600080fd5b600080fd5b60008235600161010003833603038112611f4f57611f4e611f23565b5b80830191505092915050565b7f466f72776172646572206973206e6f7420747275737465640000000000000000600082015250565b6000611f91601883611522565b9150611f9c82611f5b565b602082019050919050565b60006020820190508181036000830152611fc081611f84565b9050919050565b60008235600160e003833603038112611fe357611fe2611f23565b5b80830191505092915050565b7f76616c7565207472616e73666572206e6f7420737570706f7274656400000000600082015250565b6000612025601c83611522565b915061203082611fef565b602082019050919050565b6000602082019050818103600083015261205481612018565b9050919050565b6000808335600160200384360303811261207857612077611f23565b5b80840192508235915067ffffffffffffffff82111561209a57612099611f28565b5b6020830192506001820236038313156120b6576120b5611f2d565b5b509250929050565b7f73686f756c642068617665206e6f207061796d61737465724461746100000000600082015250565b60006120f4601c83611522565b91506120ff826120be565b602082019050919050565b60006020820190508181036000830152612123816120e7565b9050919050565b7f73686f756c642068617665206e6f20617070726f76616c446174610000000000600082015250565b6000612160601b83611522565b915061216b8261212a565b602082019050919050565b6000602082019050818103600083015261218f81612153565b9050919050565b7f4f776e61626c653a2063616c6c6572206973206e6f7420746865206f776e6572600082015250565b60006121cc602083611522565b91506121d782612196565b602082019050919050565b600060208201905081810360008301526121fb816121bf565b9050919050565b600081905092915050565b600061221882611787565b6122228185612202565b93506122328185602086016117a3565b80840191505092915050565b600061224a828461220d565b915081905092915050565b7f697354727573746564466f727761726465723a20726576657274656400000000600082015250565b600061228b601c83611522565b915061229682612255565b602082019050919050565b600060208201905081810360008301526122ba8161227e565b9050919050565b7f697354727573746564466f727761726465723a2062616420726573706f6e7365600082015250565b60006122f7602083611522565b9150612302826122c1565b602082019050919050565b60006020820190508181036000830152612326816122ea565b9050919050565b60008151905061233c816119aa565b92915050565b600060208284031215612358576123576115fb565b5b60006123668482850161232d565b91505092915050565b7f696e76616c696420666f7277617264657220666f7220726563697069656e7400600082015250565b60006123a5601f83611522565b91506123b08261236f565b602082019050919050565b600060208201905081810360008301526123d481612398565b9050919050565b6123e481611862565b82525050565b60006020820190506123ff60008301846123db565b9291505056fe332e302e302d626574612e332b6f70656e67736e2e746573742d7065612e697061796d6173746572a2646970667358221220859ee34e37e14d6d9bb3258ed4261bae4e5e6a53a001e66dda7e29b546e1f4f864736f6c63430008110033",
  "linkReferences": {},
  "deployedLinkReferences": {}
}