{
  "_format": "hh-sol-artifact-1",
  "contractName": "Paymaster",
  "sourceName": "contracts/Paymaster.sol",
  "abi": [
    {
      "anonymous": false,
      "inputs": [
        {
          "indexed": true,
          "internalType": "address",
          "name": "previousOwner",
          "type": "address"
        },
        {
          "indexed": true,
          "internalType": "address",
          "name": "newOwner",
          "type": "address"
        }
      ],
      "name": "OwnershipTransferred",
      "type": "event"
    },
    {
      "anonymous": false,
      "inputs": [
        {
          "indexed": false,
          "internalType": "address",
          "name": "target",
          "type": "address"
        }
      ],
      "name": "TargetSet",
      "type": "event"
    },
    {
      "inputs": [],
      "name": "CALLDATA_SIZE_LIMIT",
      "outputs": [
        {
          "internalType": "uint256",
          "name": "",
          "type": "uint256"
        }
      ],
      "stateMutability": "view",
      "type": "function"
    },
    {
      "inputs": [],
      "name": "FORWARDER_HUB_OVERHEAD",
      "outputs": [
        {
          "internalType": "uint256",
          "name": "",
          "type": "uint256"
        }
      ],
      "stateMutability": "view",
      "type": "function"
    },
    {
      "inputs": [],
      "name": "PAYMASTER_ACCEPTANCE_BUDGET",
      "outputs": [
        {
          "internalType": "uint256",
          "name": "",
          "type": "uint256"
        }
      ],
      "stateMutability": "view",
      "type": "function"
    },
    {
      "inputs": [],
      "name": "POST_RELAYED_CALL_GAS_LIMIT",
      "outputs": [
        {
          "internalType": "uint256",
          "name": "",
          "type": "uint256"
        }
      ],
      "stateMutability": "view",
      "type": "function"
    },
    {
      "inputs": [],
      "name": "PRE_RELAYED_CALL_GAS_LIMIT",
      "outputs": [
        {
          "internalType": "uint256",
          "name": "",
          "type": "uint256"
        }
      ],
      "stateMutability": "view",
      "type": "function"
    },
    {
      "inputs": [],
      "name": "deposit",
      "outputs": [],
      "stateMutability": "payable",
      "type": "function"
    },
    {
      "inputs": [],
      "name": "getGasAndDataLimits",
      "outputs": [
        {
          "components": [
            {
              "internalType": "uint256",
              "name": "acceptanceBudget",
              "type": "uint256"
            },
            {
              "internalType": "uint256",
              "name": "preRelayedCallGasLimit",
              "type": "uint256"
            },
            {
              "internalType": "uint256",
              "name": "postRelayedCallGasLimit",
              "type": "uint256"
            },
            {
              "internalType": "uint256",
              "name": "calldataSizeLimit",
              "type": "uint256"
            }
          ],
          "internalType": "struct IPaymaster.GasAndDataLimits",
          "name": "limits",
          "type": "tuple"
        }
      ],
      "stateMutability": "view",
      "type": "function"
    },
    {
      "inputs": [],
      "name": "getRelayHub",
      "outputs": [
        {
          "internalType": "address",
          "name": "",
          "type": "address"
        }
      ],
      "stateMutability": "view",
      "type": "function"
    },
    {
      "inputs": [],
      "name": "getTrustedForwarder",
      "outputs": [
        {
          "internalType": "address",
          "name": "",
          "type": "address"
        }
      ],
      "stateMutability": "view",
      "type": "function"
    },
    {
      "inputs": [],
      "name": "ourTarget",
      "outputs": [
        {
          "internalType": "address",
          "name": "",
          "type": "address"
        }
      ],
      "stateMutability": "view",
      "type": "function"
    },
    {
      "inputs": [],
      "name": "owner",
      "outputs": [
        {
          "internalType": "address",
          "name": "",
          "type": "address"
        }
      ],
      "stateMutability": "view",
      "type": "function"
    },
    {
      "inputs": [
        {
          "internalType": "bytes",
          "name": "context",
          "type": "bytes"
        },
        {
          "internalType": "bool",
          "name": "success",
          "type": "bool"
        },
        {
          "internalType": "uint256",
          "name": "gasUseWithoutPost",
          "type": "uint256"
        },
        {
          "components": [
            {
              "internalType": "uint256",
              "name": "maxFeePerGas",
              "type": "uint256"
            },
            {
              "internalType": "uint256",
              "name": "maxPriorityFeePerGas",
              "type": "uint256"
            },
            {
              "internalType": "uint256",
              "name": "transactionCalldataGasUsed",
              "type": "uint256"
            },
            {
              "internalType": "address",
              "name": "relayWorker",
              "type": "address"
            },
            {
              "internalType": "address",
              "name": "paymaster",
              "type": "address"
            },
            {
              "internalType": "address",
              "name": "forwarder",
              "type": "address"
            },
            {
              "internalType": "bytes",
              "name": "paymasterData",
              "type": "bytes"
            },
            {
              "internalType": "uint256",
              "name": "clientId",
              "type": "uint256"
            }
          ],
          "internalType": "struct GsnTypes.RelayData",
          "name": "relayData",
          "type": "tuple"
        }
      ],
      "name": "postRelayedCall",
      "outputs": [],
      "stateMutability": "nonpayable",
      "type": "function"
    },
    {
      "inputs": [
        {
          "components": [
            {
              "components": [
                {
                  "internalType": "address",
                  "name": "from",
                  "type": "address"
                },
                {
                  "internalType": "address",
                  "name": "to",
                  "type": "address"
                },
                {
                  "internalType": "uint256",
                  "name": "value",
                  "type": "uint256"
                },
                {
                  "internalType": "uint256",
                  "name": "gas",
                  "type": "uint256"
                },
                {
                  "internalType": "uint256",
                  "name": "nonce",
                  "type": "uint256"
                },
                {
                  "internalType": "bytes",
                  "name": "data",
                  "type": "bytes"
                },
                {
                  "internalType": "uint256",
                  "name": "validUntilTime",
                  "type": "uint256"
                }
              ],
              "internalType": "struct IForwarder.ForwardRequest",
              "name": "request",
              "type": "tuple"
            },
            {
              "components": [
                {
                  "internalType": "uint256",
                  "name": "maxFeePerGas",
                  "type": "uint256"
                },
                {
                  "internalType": "uint256",
                  "name": "maxPriorityFeePerGas",
                  "type": "uint256"
                },
                {
                  "internalType": "uint256",
                  "name": "transactionCalldataGasUsed",
                  "type": "uint256"
                },
                {
                  "internalType": "address",
                  "name": "relayWorker",
                  "type": "address"
                },
                {
                  "internalType": "address",
                  "name": "paymaster",
                  "type": "address"
                },
                {
                  "internalType": "address",
                  "name": "forwarder",
                  "type": "address"
                },
                {
                  "internalType": "bytes",
                  "name": "paymasterData",
                  "type": "bytes"
                },
                {
                  "internalType": "uint256",
                  "name": "clientId",
                  "type": "uint256"
                }
              ],
              "internalType": "struct GsnTypes.RelayData",
              "name": "relayData",
              "type": "tuple"
            }
          ],
          "internalType": "struct GsnTypes.RelayRequest",
          "name": "relayRequest",
          "type": "tuple"
        },
        {
          "internalType": "bytes",
          "name": "signature",
          "type": "bytes"
        },
        {
          "internalType": "bytes",
          "name": "approvalData",
          "type": "bytes"
        },
        {
          "internalType": "uint256",
          "name": "maxPossibleGas",
          "type": "uint256"
        }
      ],
      "name": "preRelayedCall",
      "outputs": [
        {
          "internalType": "bytes",
          "name": "",
          "type": "bytes"
        },
        {
          "internalType": "bool",
          "name": "",
          "type": "bool"
        }
      ],
      "stateMutability": "nonpayable",
      "type": "function"
    },
    {
      "inputs": [],
      "name": "renounceOwnership",
      "outputs": [],
      "stateMutability": "nonpayable",
      "type": "function"
    },
    {
      "inputs": [
        {
          "internalType": "contract IRelayHub",
          "name": "hub",
          "type": "address"
        }
      ],
      "name": "setRelayHub",
      "outputs": [],
      "stateMutability": "nonpayable",
      "type": "function"
    },
    {
      "inputs": [
        {
          "internalType": "address",
          "name": "target",
          "type": "address"
        }
      ],
      "name": "setTarget",
      "outputs": [],
      "stateMutability": "nonpayable",
      "type": "function"
    },
    {
      "inputs": [
        {
          "internalType": "address",
          "name": "forwarder",
          "type": "address"
        }
      ],
      "name": "setTrustedForwarder",
      "outputs": [],
      "stateMutability": "nonpayable",
      "type": "function"
    },
    {
      "inputs": [
        {
          "internalType": "bytes4",
          "name": "interfaceId",
          "type": "bytes4"
        }
      ],
      "name": "supportsInterface",
      "outputs": [
        {
          "internalType": "bool",
          "name": "",
          "type": "bool"
        }
      ],
      "stateMutability": "view",
      "type": "function"
    },
    {
      "inputs": [
        {
          "internalType": "address",
          "name": "newOwner",
          "type": "address"
        }
      ],
      "name": "transferOwnership",
      "outputs": [],
      "stateMutability": "nonpayable",
      "type": "function"
    },
    {
      "inputs": [],
      "name": "versionPaymaster",
      "outputs": [
        {
          "internalType": "string",
          "name": "",
          "type": "string"
        }
      ],
      "stateMutability": "view",
      "type": "function"
    },
    {
      "inputs": [
        {
          "internalType": "uint256",
          "name": "amount",
          "type": "uint256"
        },
        {
          "internalType": "address payable",
          "name": "target",
          "type": "address"
        }
      ],
      "name": "withdrawRelayHubDepositTo",
      "outputs": [],
      "stateMutability": "nonpayable",
      "type": "function"
    },
    {
      "stateMutability": "payable",
      "type": "receive"
    }
  ],
  "bytecode": "0x60806040523480156200001157600080fd5b5062000032620000266200003860201b60201c565b6200004060201b60201c565b62000104565b600033905090565b60008060009054906101000a900473ffffffffffffffffffffffffffffffffffffffff169050816000806101000a81548173ffffffffffffffffffffffffffffffffffffffff021916908373ffffffffffffffffffffffffffffffffffffffff1602179055508173ffffffffffffffffffffffffffffffffffffffff168173ffffffffffffffffffffffffffffffffffffffff167f8be0079c531659141344cd1fd0a4f28419497f9722a3daafe3b4186f6b6457e060405160405180910390a35050565b6125b880620001146000396000f3fe60806040526004361061012d5760003560e01c80638da5cb5b116100ab578063ce1b815f1161006f578063ce1b815f146104e1578063d0e30db01461050c578063da74222814610516578063df463a661461053f578063f2fde38b1461056a578063f9c002f7146105935761024e565b80638da5cb5b1461040a578063921276ea14610435578063b039a88f14610460578063b90b41cf1461048b578063bbdaa3c9146104b65761024e565b806376fa01c3116100f257806376fa01c314610339578063776d1a01146103625780637bb052641461038b5780637bdf2ec7146103b457806380d324f1146103df5761024e565b8062be5dd41461025357806301ffc9a7146102915780632d14c4b7146102ce5780635c5e3db1146102f7578063715018a6146103225761024e565b3661024e57600073ffffffffffffffffffffffffffffffffffffffff16600160009054906101000a900473ffffffffffffffffffffffffffffffffffffffff1673ffffffffffffffffffffffffffffffffffffffff16036101c3576040517f08c379a00000000000000000000000000000000000000000000000000000000081526004016101ba90611743565b60405180910390fd5b600160009054906101000a900473ffffffffffffffffffffffffffffffffffffffff1673ffffffffffffffffffffffffffffffffffffffff1663aa67c91934306040518363ffffffff1660e01b815260040161021f91906117a4565b6000604051808303818588803b15801561023857600080fd5b505af115801561024c573d6000803e3d6000fd5b005b600080fd5b34801561025f57600080fd5b5061027a60048036038101906102759190611888565b6105be565b6040516102889291906119f6565b60405180910390f35b34801561029d57600080fd5b506102b860048036038101906102b39190611a7e565b61060c565b6040516102c59190611aab565b60405180910390f35b3480156102da57600080fd5b506102f560048036038101906102f09190611b04565b6106ee565b005b34801561030357600080fd5b5061030c6107fd565b6040516103199190611b53565b60405180910390f35b34801561032e57600080fd5b50610337610803565b005b34801561034557600080fd5b50610360600480360381019061035b9190611bba565b61088b565b005b34801561036e57600080fd5b5061038960048036038101906103849190611c8a565b6108a7565b005b34801561039757600080fd5b506103b260048036038101906103ad9190611cf5565b61099e565b005b3480156103c057600080fd5b506103c9610ae6565b6040516103d691906117a4565b60405180910390f35b3480156103eb57600080fd5b506103f4610b10565b60405161040191906117a4565b60405180910390f35b34801561041657600080fd5b5061041f610b36565b60405161042c91906117a4565b60405180910390f35b34801561044157600080fd5b5061044a610b5f565b6040516104579190611d66565b60405180910390f35b34801561046c57600080fd5b50610475610b7f565b6040516104829190611dec565b60405180910390f35b34801561049757600080fd5b506104a0610bc5565b6040516104ad9190611b53565b60405180910390f35b3480156104c257600080fd5b506104cb610bcb565b6040516104d89190611b53565b60405180910390f35b3480156104ed57600080fd5b506104f6610bd2565b60405161050391906117a4565b60405180910390f35b610514610bfc565b005b34801561052257600080fd5b5061053d60048036038101906105389190611c8a565b610d1d565b005b34801561054b57600080fd5b50610554610e65565b6040516105619190611b53565b60405180910390f35b34801561057657600080fd5b50610591600480360381019061058c9190611c8a565b610e79565b005b34801561059f57600080fd5b506105a8610f70565b6040516105b59190611b53565b60405180910390f35b606060006105ca610f77565b6105d388610fee565b6105dc88611090565b6105e5886110e9565b6105ef858561114f565b6105fd888888888888611199565b91509150965096945050505050565b60007fe1ab2dea000000000000000000000000000000000000000000000000000000007bffffffffffffffffffffffffffffffffffffffffffffffffffffffff1916827bffffffffffffffffffffffffffffffffffffffffffffffffffffffff191614806106d757507f0e083076000000000000000000000000000000000000000000000000000000007bffffffffffffffffffffffffffffffffffffffffffffffffffffffff1916827bffffffffffffffffffffffffffffffffffffffffffffffffffffffff1916145b806106e757506106e6826111e4565b5b9050919050565b6106f661124e565b73ffffffffffffffffffffffffffffffffffffffff16610714610b36565b73ffffffffffffffffffffffffffffffffffffffff161461076a576040517f08c379a000000000000000000000000000000000000000000000000000000000815260040161076190611e53565b60405180910390fd5b600160009054906101000a900473ffffffffffffffffffffffffffffffffffffffff1673ffffffffffffffffffffffffffffffffffffffff1663f3fef3a382846040518363ffffffff1660e01b81526004016107c7929190611e82565b600060405180830381600087803b1580156107e157600080fd5b505af11580156107f5573d6000803e3d6000fd5b505050505050565b61290481565b61080b61124e565b73ffffffffffffffffffffffffffffffffffffffff16610829610b36565b73ffffffffffffffffffffffffffffffffffffffff161461087f576040517f08c379a000000000000000000000000000000000000000000000000000000000815260040161087690611e53565b60405180910390fd5b6108896000611256565b565b610893610f77565b6108a0858585858561131a565b5050505050565b6108af61124e565b73ffffffffffffffffffffffffffffffffffffffff166108cd610b36565b73ffffffffffffffffffffffffffffffffffffffff1614610923576040517f08c379a000000000000000000000000000000000000000000000000000000000815260040161091a90611e53565b60405180910390fd5b80600360006101000a81548173ffffffffffffffffffffffffffffffffffffffff021916908373ffffffffffffffffffffffffffffffffffffffff1602179055507f3bfb4bbf112628248058745a3c57e35b13369386e474b8e56c552f3063a4a1968160405161099391906117a4565b60405180910390a150565b6109a661124e565b73ffffffffffffffffffffffffffffffffffffffff166109c4610b36565b73ffffffffffffffffffffffffffffffffffffffff1614610a1a576040517f08c379a0000000000000000000000000000000000000000000000000000000008152600401610a1190611e53565b60405180910390fd5b610a637fe9fb30f7000000000000000000000000000000000000000000000000000000008273ffffffffffffffffffffffffffffffffffffffff1661132190919063ffffffff16565b610aa2576040517f08c379a0000000000000000000000000000000000000000000000000000000008152600401610a9990611ef7565b60405180910390fd5b80600160006101000a81548173ffffffffffffffffffffffffffffffffffffffff021916908373ffffffffffffffffffffffffffffffffffffffff16021790555050565b6000600160009054906101000a900473ffffffffffffffffffffffffffffffffffffffff16905090565b600360009054906101000a900473ffffffffffffffffffffffffffffffffffffffff1681565b60008060009054906101000a900473ffffffffffffffffffffffffffffffffffffffff16905090565b606060405180606001604052806028815260200161255b60289139905090565b610b876116be565b604051806080016040528061c350620186a0610ba39190611f46565b8152602001620186a081526020016201adb08152602001612904815250905090565b61c35081565b6201adb081565b6000600260009054906101000a900473ffffffffffffffffffffffffffffffffffffffff16905090565b600073ffffffffffffffffffffffffffffffffffffffff16600160009054906101000a900473ffffffffffffffffffffffffffffffffffffffff1673ffffffffffffffffffffffffffffffffffffffff1603610c8d576040517f08c379a0000000000000000000000000000000000000000000000000000000008152600401610c8490611743565b60405180910390fd5b600160009054906101000a900473ffffffffffffffffffffffffffffffffffffffff1673ffffffffffffffffffffffffffffffffffffffff1663aa67c91934306040518363ffffffff1660e01b8152600401610ce991906117a4565b6000604051808303818588803b158015610d0257600080fd5b505af1158015610d16573d6000803e3d6000fd5b5050505050565b610d2561124e565b73ffffffffffffffffffffffffffffffffffffffff16610d43610b36565b73ffffffffffffffffffffffffffffffffffffffff1614610d99576040517f08c379a0000000000000000000000000000000000000000000000000000000008152600401610d9090611e53565b60405180910390fd5b610de27f25e23e64000000000000000000000000000000000000000000000000000000008273ffffffffffffffffffffffffffffffffffffffff1661132190919063ffffffff16565b610e21576040517f08c379a0000000000000000000000000000000000000000000000000000000008152600401610e1890611fc6565b60405180910390fd5b80600260006101000a81548173ffffffffffffffffffffffffffffffffffffffff021916908373ffffffffffffffffffffffffffffffffffffffff16021790555050565b61c350620186a0610e769190611f46565b81565b610e8161124e565b73ffffffffffffffffffffffffffffffffffffffff16610e9f610b36565b73ffffffffffffffffffffffffffffffffffffffff1614610ef5576040517f08c379a0000000000000000000000000000000000000000000000000000000008152600401610eec90611e53565b60405180910390fd5b600073ffffffffffffffffffffffffffffffffffffffff168173ffffffffffffffffffffffffffffffffffffffff1603610f64576040517f08c379a0000000000000000000000000000000000000000000000000000000008152600401610f5b90612058565b60405180910390fd5b610f6d81611256565b50565b620186a081565b610f7f610ae6565b73ffffffffffffffffffffffffffffffffffffffff163373ffffffffffffffffffffffffffffffffffffffff1614610fec576040517f08c379a0000000000000000000000000000000000000000000000000000000008152600401610fe3906120c4565b60405180910390fd5b565b808060200190610ffe91906120f3565b60a00160208101906110109190611c8a565b73ffffffffffffffffffffffffffffffffffffffff1661102e610bd2565b73ffffffffffffffffffffffffffffffffffffffff1614611084576040517f08c379a000000000000000000000000000000000000000000000000000000000815260040161107b90612168565b60405180910390fd5b61108d81611346565b50565b60008180600001906110a29190612188565b60400135146110e6576040517f08c379a00000000000000000000000000000000000000000000000000000000081526004016110dd906121fc565b60405180910390fd5b50565b60008180602001906110fb91906120f3565b8060c0019061110a919061221c565b90501461114c576040517f08c379a0000000000000000000000000000000000000000000000000000000008152600401611143906122cb565b60405180910390fd5b50565b60008282905014611195576040517f08c379a000000000000000000000000000000000000000000000000000000000815260040161118c90612337565b60405180910390fd5b5050565b60606000806040518060400160405280600e81526020017f6e6f2072657665727420686572650000000000000000000000000000000000008152509091509150965096945050505050565b60007f01ffc9a7000000000000000000000000000000000000000000000000000000007bffffffffffffffffffffffffffffffffffffffffffffffffffffffff1916827bffffffffffffffffffffffffffffffffffffffffffffffffffffffff1916149050919050565b600033905090565b60008060009054906101000a900473ffffffffffffffffffffffffffffffffffffffff169050816000806101000a81548173ffffffffffffffffffffffffffffffffffffffff021916908373ffffffffffffffffffffffffffffffffffffffff1602179055508173ffffffffffffffffffffffffffffffffffffffff168173ffffffffffffffffffffffffffffffffffffffff167f8be0079c531659141344cd1fd0a4f28419497f9722a3daafe3b4186f6b6457e060405160405180910390a35050565b5050505050565b600061132c83611546565b801561133e575061133d8383611593565b5b905092915050565b6000808280600001906113599190612188565b602001602081019061136b9190611c8a565b73ffffffffffffffffffffffffffffffffffffffff1663572b6c0560e01b84806020019061139991906120f3565b60a00160208101906113ab9190611c8a565b6040516024016113bb91906117a4565b604051602081830303815290604052907bffffffffffffffffffffffffffffffffffffffffffffffffffffffff19166020820180517bffffffffffffffffffffffffffffffffffffffffffffffffffffffff83818316178352505050506040516114259190612393565b600060405180830381855afa9150503d8060008114611460576040519150601f19603f3d011682016040523d82523d6000602084013e611465565b606091505b5091509150816114aa576040517f08c379a00000000000000000000000000000000000000000000000000000000081526004016114a1906123f6565b60405180910390fd5b60208151146114ee576040517f08c379a00000000000000000000000000000000000000000000000000000000081526004016114e590612462565b60405180910390fd5b808060200190518101906115029190612497565b611541576040517f08c379a000000000000000000000000000000000000000000000000000000000815260040161153890612510565b60405180910390fd5b505050565b6000611572827f01ffc9a700000000000000000000000000000000000000000000000000000000611593565b801561158c575061158a8263ffffffff60e01b611593565b155b9050919050565b6000806301ffc9a760e01b836040516024016115af919061253f565b604051602081830303815290604052907bffffffffffffffffffffffffffffffffffffffffffffffffffffffff19166020820180517bffffffffffffffffffffffffffffffffffffffffffffffffffffffff838183161783525050505090506000808573ffffffffffffffffffffffffffffffffffffffff16617530846040516116399190612393565b6000604051808303818686fa925050503d8060008114611675576040519150601f19603f3d011682016040523d82523d6000602084013e61167a565b606091505b509150915060208151101561169557600093505050506116b8565b8180156116b25750808060200190518101906116b19190612497565b5b93505050505b92915050565b6040518060800160405280600081526020016000815260200160008152602001600081525090565b600082825260208201905092915050565b7f72656c6179206875622061646472657373206e6f742073657400000000000000600082015250565b600061172d6019836116e6565b9150611738826116f7565b602082019050919050565b6000602082019050818103600083015261175c81611720565b9050919050565b600073ffffffffffffffffffffffffffffffffffffffff82169050919050565b600061178e82611763565b9050919050565b61179e81611783565b82525050565b60006020820190506117b96000830184611795565b92915050565b600080fd5b600080fd5b600080fd5b6000604082840312156117e4576117e36117c9565b5b81905092915050565b600080fd5b600080fd5b600080fd5b60008083601f840112611812576118116117ed565b5b8235905067ffffffffffffffff81111561182f5761182e6117f2565b5b60208301915083600182028301111561184b5761184a6117f7565b5b9250929050565b6000819050919050565b61186581611852565b811461187057600080fd5b50565b6000813590506118828161185c565b92915050565b600080600080600080608087890312156118a5576118a46117bf565b5b600087013567ffffffffffffffff8111156118c3576118c26117c4565b5b6118cf89828a016117ce565b965050602087013567ffffffffffffffff8111156118f0576118ef6117c4565b5b6118fc89828a016117fc565b9550955050604087013567ffffffffffffffff81111561191f5761191e6117c4565b5b61192b89828a016117fc565b9350935050606061193e89828a01611873565b9150509295509295509295565b600081519050919050565b600082825260208201905092915050565b60005b8381101561198557808201518184015260208101905061196a565b60008484015250505050565b6000601f19601f8301169050919050565b60006119ad8261194b565b6119b78185611956565b93506119c7818560208601611967565b6119d081611991565b840191505092915050565b60008115159050919050565b6119f0816119db565b82525050565b60006040820190508181036000830152611a1081856119a2565b9050611a1f60208301846119e7565b9392505050565b60007fffffffff0000000000000000000000000000000000000000000000000000000082169050919050565b611a5b81611a26565b8114611a6657600080fd5b50565b600081359050611a7881611a52565b92915050565b600060208284031215611a9457611a936117bf565b5b6000611aa284828501611a69565b91505092915050565b6000602082019050611ac060008301846119e7565b92915050565b6000611ad182611763565b9050919050565b611ae181611ac6565b8114611aec57600080fd5b50565b600081359050611afe81611ad8565b92915050565b60008060408385031215611b1b57611b1a6117bf565b5b6000611b2985828601611873565b9250506020611b3a85828601611aef565b9150509250929050565b611b4d81611852565b82525050565b6000602082019050611b686000830184611b44565b92915050565b611b77816119db565b8114611b8257600080fd5b50565b600081359050611b9481611b6e565b92915050565b60006101008284031215611bb157611bb06117c9565b5b81905092915050565b600080600080600060808688031215611bd657611bd56117bf565b5b600086013567ffffffffffffffff811115611bf457611bf36117c4565b5b611c00888289016117fc565b95509550506020611c1388828901611b85565b9350506040611c2488828901611873565b925050606086013567ffffffffffffffff811115611c4557611c446117c4565b5b611c5188828901611b9a565b9150509295509295909350565b611c6781611783565b8114611c7257600080fd5b50565b600081359050611c8481611c5e565b92915050565b600060208284031215611ca057611c9f6117bf565b5b6000611cae84828501611c75565b91505092915050565b6000611cc282611783565b9050919050565b611cd281611cb7565b8114611cdd57600080fd5b50565b600081359050611cef81611cc9565b92915050565b600060208284031215611d0b57611d0a6117bf565b5b6000611d1984828501611ce0565b91505092915050565b600081519050919050565b6000611d3882611d22565b611d4281856116e6565b9350611d52818560208601611967565b611d5b81611991565b840191505092915050565b60006020820190508181036000830152611d808184611d2d565b905092915050565b611d9181611852565b82525050565b608082016000820151611dad6000850182611d88565b506020820151611dc06020850182611d88565b506040820151611dd36040850182611d88565b506060820151611de66060850182611d88565b50505050565b6000608082019050611e016000830184611d97565b92915050565b7f4f776e61626c653a2063616c6c6572206973206e6f7420746865206f776e6572600082015250565b6000611e3d6020836116e6565b9150611e4882611e07565b602082019050919050565b60006020820190508181036000830152611e6c81611e30565b9050919050565b611e7c81611ac6565b82525050565b6000604082019050611e976000830185611e73565b611ea46020830184611b44565b9392505050565b7f746172676574206973206e6f7420612076616c6964204952656c617948756200600082015250565b6000611ee1601f836116e6565b9150611eec82611eab565b602082019050919050565b60006020820190508181036000830152611f1081611ed4565b9050919050565b7f4e487b7100000000000000000000000000000000000000000000000000000000600052601160045260246000fd5b6000611f5182611852565b9150611f5c83611852565b9250828201905080821115611f7457611f73611f17565b5b92915050565b7f746172676574206973206e6f7420612076616c69642049466f72776172646572600082015250565b6000611fb06020836116e6565b9150611fbb82611f7a565b602082019050919050565b60006020820190508181036000830152611fdf81611fa3565b9050919050565b7f4f776e61626c653a206e6577206f776e657220697320746865207a65726f206160008201527f6464726573730000000000000000000000000000000000000000000000000000602082015250565b60006120426026836116e6565b915061204d82611fe6565b604082019050919050565b6000602082019050818103600083015261207181612035565b9050919050565b7f63616e206f6e6c792062652063616c6c65642062792052656c61794875620000600082015250565b60006120ae601e836116e6565b91506120b982612078565b602082019050919050565b600060208201905081810360008301526120dd816120a1565b9050919050565b600080fd5b600080fd5b600080fd5b600082356001610100038336030381126121105761210f6120e4565b5b80830191505092915050565b7f466f72776172646572206973206e6f7420747275737465640000000000000000600082015250565b60006121526018836116e6565b915061215d8261211c565b602082019050919050565b6000602082019050818103600083015261218181612145565b9050919050565b60008235600160e0038336030381126121a4576121a36120e4565b5b80830191505092915050565b7f76616c7565207472616e73666572206e6f7420737570706f7274656400000000600082015250565b60006121e6601c836116e6565b91506121f1826121b0565b602082019050919050565b60006020820190508181036000830152612215816121d9565b9050919050565b60008083356001602003843603038112612239576122386120e4565b5b80840192508235915067ffffffffffffffff82111561225b5761225a6120e9565b5b602083019250600182023603831315612277576122766120ee565b5b509250929050565b7f73686f756c642068617665206e6f207061796d61737465724461746100000000600082015250565b60006122b5601c836116e6565b91506122c08261227f565b602082019050919050565b600060208201905081810360008301526122e4816122a8565b9050919050565b7f73686f756c642068617665206e6f20617070726f76616c446174610000000000600082015250565b6000612321601b836116e6565b915061232c826122eb565b602082019050919050565b6000602082019050818103600083015261235081612314565b9050919050565b600081905092915050565b600061236d8261194b565b6123778185612357565b9350612387818560208601611967565b80840191505092915050565b600061239f8284612362565b915081905092915050565b7f697354727573746564466f727761726465723a20726576657274656400000000600082015250565b60006123e0601c836116e6565b91506123eb826123aa565b602082019050919050565b6000602082019050818103600083015261240f816123d3565b9050919050565b7f697354727573746564466f727761726465723a2062616420726573706f6e7365600082015250565b600061244c6020836116e6565b915061245782612416565b602082019050919050565b6000602082019050818103600083015261247b8161243f565b9050919050565b60008151905061249181611b6e565b92915050565b6000602082840312156124ad576124ac6117bf565b5b60006124bb84828501612482565b91505092915050565b7f696e76616c696420666f7277617264657220666f7220726563697069656e7400600082015250565b60006124fa601f836116e6565b9150612505826124c4565b602082019050919050565b60006020820190508181036000830152612529816124ed565b9050919050565b61253981611a26565b82525050565b60006020820190506125546000830184612530565b9291505056fe332e302e302d626574612e322b6f70656e67736e2e746573742d7065612e697061796d6173746572a2646970667358221220e61d0e76b72d21dcfe8df77b54d33a84946bc324be99a4522d50da6e3e0d37c964736f6c63430008100033",
  "linkReferences": {},
  "deployedLinkReferences": {}
}