{
  "_format": "hh-sol-artifact-1",
  "contractName": "VerifierZKPCorrectDecryption",
  "sourceName": "contracts/VerifierZKPCorrectDecryption.sol",
  "abi": [
    {
      "inputs": [
        {
          "internalType": "bytes",
          "name": "_c",
          "type": "bytes"
        },
        {
          "internalType": "bytes",
          "name": "_ci",
          "type": "bytes"
        },
        {
          "internalType": "bytes",
          "name": "_R1",
          "type": "bytes"
        },
        {
          "internalType": "bytes",
          "name": "_R2",
          "type": "bytes"
        },
        {
          "internalType": "bytes",
          "name": "_z",
          "type": "bytes"
        },
        {
          "internalType": "bytes",
          "name": "_cc",
          "type": "bytes"
        },
        {
          "internalType": "bytes",
          "name": "_vki",
          "type": "bytes"
        },
        {
          "internalType": "bytes",
          "name": "_N",
          "type": "bytes"
        },
        {
          "internalType": "bytes",
          "name": "_delta",
          "type": "bytes"
        },
        {
          "internalType": "bytes",
          "name": "_vk",
          "type": "bytes"
        }
      ],
      "name": "verifyTx",
      "outputs": [
        {
          "internalType": "bool",
          "name": "",
          "type": "bool"
        }
      ],
      "stateMutability": "view",
      "type": "function"
    }
  ],
  "bytecode": "0x608060405234801561001057600080fd5b50611ac6806100206000396000f3fe608060405234801561001057600080fd5b506004361061002b5760003560e01c8063489cb67014610030575b600080fd5b61004a60048036038101906100459190611704565b610060565b6040516100579190611916565b60405180910390f35b60008061006f83858a886100e9565b9050600061007f8b888a89610164565b9050600061008f8e878c8a6101e9565b9050600061009f8c8f8c8b610281565b905060006100b6848661031a90919063ffffffff16565b80156100d157506100d0828461031a90919063ffffffff16565b5b905080955050505050509a9950505050505050505050565b6100f1611587565b60006100fe836000610346565b90506000610115828361036290919063ffffffff16565b90506000610154610127896000610346565b61014e610135896000610346565b6101408b6000610346565b61036290919063ffffffff16565b84610407565b9050809350505050949350505050565b61016c611587565b6000610179866000610346565b90506000610188866000610346565b90506000610197866000610346565b905060006101a6866000610346565b905060006101bd828361036290919063ffffffff16565b905060006101d6866101d0878786610407565b84610504565b9050809650505050505050949350505050565b6101f1611587565b60006101fe836000610346565b90506000610215828361036290919063ffffffff16565b90506000610271610227896000610346565b61026b6102516102388a6000610346565b6102438c6000610346565b61036290919063ffffffff16565b61025d60046000610528565b61036290919063ffffffff16565b84610407565b9050809350505050949350505050565b610289611587565b6000610296866000610346565b905060006102a5866000610346565b905060006102b4866000610346565b905060006102c3866000610346565b905060006102da828361036290919063ffffffff16565b9050600061030786610301876102fb6102f560026000610528565b89610362565b86610407565b84610504565b9050809650505050505050949350505050565b60008061032984846001610563565b90506000811461033a57600061033d565b60015b91505092915050565b61034e611587565b61035a83836000610740565b905092915050565b61036a611587565b6000610376848461080d565b9050600061039682610386610a35565b610391856002610a77565b610407565b90506103a2858561031a565b6103f15760006103b28686610af3565b905060006103d2826103c2610a35565b6103cd856002610a77565b610407565b90506103e86103e18483610af3565b6002610d42565b945050506103ff565b6103fc816002610d42565b92505b505092915050565b61040f611587565b600015158360200151151514801561042f57506000151582602001511515145b801561044557506104438260000151610ea4565b155b61044e57600080fd5b6000610467856000015185600001518560000151610efb565b9050600061047482610fd5565b90506000810361048f57610486611015565b925050506104fd565b856020015180156104a557506104a485611057565b5b156104da576104d16040518060600160405280848152602001600115158152602001838152508561080d565b925050506104fd565b604051806060016040528083815260200160001515815260200182815250925050505b9392505050565b61050c611587565b61051f6105198585610362565b8361106c565b90509392505050565b610530611587565b61055b83604051602001610544919061195c565b604051602081830303815290604052836000610740565b905092915050565b60008060019050821561062e5784602001518015610582575083602001515b156105af577fffffffffffffffffffffffffffffffffffffffffffffffffffffffffffffffff905061062d565b60001515856020015115151480156105cf57506001151584602001511515145b156105de576001915050610739565b60011515856020015115151480156105fe57506000151584602001511515145b1561062c577fffffffffffffffffffffffffffffffffffffffffffffffffffffffffffffffff915050610739565b5b5b8360400151856040015111156106475780915050610739565b84604001518460400151111561068b57807fffffffffffffffffffffffffffffffffffffffffffffffffffffffffffffffff61068391906119b0565b915050610739565b6000806000806000896000015151905060208a510194506020895101935060005b8181101561072d57808601519350808501519250828411156106d75786975050505050505050610739565b8383111561071957867fffffffffffffffffffffffffffffffffffffffffffffffffffffffffffffffff61070b91906119b0565b975050505050505050610739565b6020816107269190611a28565b90506106ac565b50600096505050505050505b9392505050565b610748611587565b602084018451600059600060208406146001811461077a57602084066020036020818401019350808501835250610784565b6020820192508382525b508282848660046101c2fa506020815101810160405280515b600060208214036107d0576000602083015114600181146107be57506107d0565b6020830192505060208103905061079d565b8082528186528760208701525050505050600082146107ef57816107fd565b6107fc8160000151610fd5565b5b8160400181815250509392505050565b610815611587565b6000836040015114801561082d575060008260400151145b156108415761083a611015565b9050610a2f565b600083604001510361085557819050610a2f565b600082604001510361086957829050610a2f565b606060008061087a86866000610563565b905085602001518061088d575084602001515b156109ba57856020015180156108a4575084602001515b1561090b57600081126108d5576108c886600001518660000151886040015161108e565b80935081945050506108f5565b6108ec85600001518760000151876040015161108e565b80935081945050505b60018460200190151590811515815250506109b5565b6001810361094657610925866000015186600001516111c4565b809350819450505085602001518460200190151590811515815250506109b4565b7fffffffffffffffffffffffffffffffffffffffffffffffffffffffffffffffff81036109a15761097f856000015187600001516111c4565b80935081945050508560200151158460200190151590811515815250506109b3565b6109a9611015565b9350505050610a2f565b5b5b610a18565b600081126109e6576109d986600001518660000151886040015161108e565b8093508194505050610a06565b6109fd85600001518760000151876040015161108e565b80935081945050505b60008460200190151590811515815250505b828460000181905250818460400181815250505050505b92915050565b610a3d611587565b6040518060600160405280604051806040016040528060208152602001600281525081526020016000151581526020016002815250905090565b610a7f611587565b6000604051806040016040528060208152602001600081525090506000836040860151029050600161010082061b6020600161010084040102835280602084015260208351018301604052506040518060600160405280838152602001600015158152602001828152509250505092915050565b610afb611587565b60008360400151148015610b13575060008260400151145b15610b2757610b20611015565b9050610d3c565b6060600080610b3886866000610563565b9150856020015180610b4b575084602001515b15610c825785602001518015610b62575084602001515b15610c0e5760018203610b9f57610b81866000015186600001516111c4565b80925081945050506001846020019015159081151581525050610c09565b7fffffffffffffffffffffffffffffffffffffffffffffffffffffffffffffffff8203610bf657610bd8856000015187600001516111c4565b80925081945050506000846020019015159081151581525050610c08565b610bfe611015565b9350505050610d3c565b5b610c7d565b60008212610c3a57610c2d86600001518660000151886040015161108e565b8092508194505050610c5a565b610c5185600001518760000151876040015161108e565b80925081945050505b8560200151610c6a576000610c6d565b60015b8460200190151590811515815250505b610d25565b60018203610cba57610c9c866000015186600001516111c4565b80925081945050506000846020019015159081151581525050610d24565b7fffffffffffffffffffffffffffffffffffffffffffffffffffffffffffffffff8203610d1157610cf3856000015187600001516111c4565b80925081945050506001846020019015159081151581525050610d23565b610d19611015565b9350505050610d3c565b5b5b828460000181905250808460400181815250505050505b92915050565b610d4a611587565b6000835151905083604001518310610d99576040518060600160405280604051806040016040528060208152602001600081525081526020016000151581526020016000815250915050610e9e565b828460400151610da99190611a5c565b846040018181525050610100831461010084111715610dda5760206101008404028103905080845152610100830692505b83516000600885061460018114610e4b576000808661010003858501865b600080821403610e41576020811460018114610e1a5760208303519550610e1f565b600095505b5081518a1c935084831b94508484178252602082039150602081039050610df8565b5050505050610e79565b6008850486518051602081018383018482038282848760046101c2fa6000601f840153848652505050505050505b5060208101600081511460018103610e9657602083510382528187525b505050839150505b92915050565b600080600060208401905060005b8451811015610eee57815192506000831115610ed45760009350505050610ef6565b602082019150602081610ee79190611a28565b9050610eb2565b506001925050505b919050565b606083518351835160405183815282602082015281604082015283606082018560208b0160046101c2fa84606001848184018660208c0160046101c2fa91508481019050838184018560208b0160046101c2fa91508160008103610f5b57fe5b5083810190508360608401828560056105465a03fa91508160008103610f7d57fe5b5083606084015b60006020831403610fb457600081511460018114610fa25750610fb4565b60208201915050602082039150610f84565b60208103985081895285856060010160405250505050505050509392505050565b6000610fe082610ea4565b15610fee5760009050611010565b600060208301519050611000816112ef565b9150600860208451030282019150505b919050565b61101d611587565b6040518060600160405280604051806040016040528060208152602001600081525081526020016000151581526020016000815250905090565b60008151518251016002815106915050919050565b611074611587565b61108683611080611545565b84610407565b905092915050565b606060006060596000600160000388518901885189018a5160208601018b515b60008082140361115a5783518c518e51038211600181146110f25787820184526001881482881416600181146110e757600098506110ec565b600198505b50611141565b8451888184010185528881038803831160018114611133576000821160008b111789851416600181146111285760009a5061112d565b60019a505b50611138565b600199505b50602086039550505b50602083039250602085039450506020810390506110ae565b5060008514600181146111705760018252611177565b6020870196505b50859650846020028c510187526020875101870160405260208701516001816101008d061c146001821417156111ae5760018b019a505b5050505050505080849250925050935093915050565b6060600060606000807fffffffffffffffffffffffffffffffffffffffffffffffffffffffffffffffff90505987518751808203828b01828b0184860160208101865b60008082140361129757845186821160018114611248578c8203855260018d1460008314166001811461123d5760009d50611242565b60019d505b5061127e565b85518d81840303865260018e148d8214168e8201841017600181146112705760009e50611275565b60019e505b50602087039650505b5060208403935060208603955050602081039050611207565b506020820191505b60008251036112bf5760208801975060208703965060208201915061129f565b879a50868b5280604052505050505050505060006112dc84610fd5565b9050838195509550505050509250929050565b60008082146001811461153a578260018403935060028404841793506004840484179350601084048417935061010084048417935062010000840484179350640100000000840484179350680100000000000000008404841793507001000000000000000000000000000000008404841793506001840193506040517ff8f9cbfae6cc78fbefe7cdc3a1793dfcf4f0e8bbd8cec470b6a28a7a5a3e1efd81527ff5ecf1b3e9debc68e1d9cfabc5997135bfb7a7a3938b7b606b5b4b3f2f1f0ffe60208201527ff6e4ed9ff2d6b458eadcdf97bd91692de2d4da8fd2d0ac50c6ae9a827252361660408201527fc8c0b887b0a8a4489c948c7f847c6125746c645c544c444038302820181008ff60608201527ff7cae577eec2a03cf3bad76fb589591debb2dd67e0aa9834bea6925f6a4a2e0e60808201527fe39ed557db96902cd38ed14fad815115c786af479b7e8324736353433727170760a08201527fc976c13bb96e881cb166a933a55e490d9d56952b8d4e801485467d236242260660c08201527f753a6d1b65325d0c552a4d1345224105391a310b29122104190a11030902010060e082015261010081016040527e818283848586878898a8b8c8d8e8f929395969799a9b9d9e9faaeb6bedeeff7f01000000000000000000000000000000000000000000000000000000000000008082880204818160ff038501510496507f800000000000000000000000000000000000000000000000000000000000000085116101000287019650600060018603861603611530576001870196505b505050505061153f565b600091505b50919050565b61154d611587565b6040518060600160405280604051806040016040528060208152602001600181525081526020016000151581526020016001815250905090565b604051806060016040528060608152602001600015158152602001600081525090565b6000604051905090565b600080fd5b600080fd5b600080fd5b600080fd5b6000601f19601f8301169050919050565b7f4e487b7100000000000000000000000000000000000000000000000000000000600052604160045260246000fd5b611611826115c8565b810181811067ffffffffffffffff821117156116305761162f6115d9565b5b80604052505050565b60006116436115aa565b905061164f8282611608565b919050565b600067ffffffffffffffff82111561166f5761166e6115d9565b5b611678826115c8565b9050602081019050919050565b82818337600083830152505050565b60006116a76116a284611654565b611639565b9050828152602081018484840111156116c3576116c26115c3565b5b6116ce848285611685565b509392505050565b600082601f8301126116eb576116ea6115be565b5b81356116fb848260208601611694565b91505092915050565b6000806000806000806000806000806101408b8d031215611728576117276115b4565b5b60008b013567ffffffffffffffff811115611746576117456115b9565b5b6117528d828e016116d6565b9a505060208b013567ffffffffffffffff811115611773576117726115b9565b5b61177f8d828e016116d6565b99505060408b013567ffffffffffffffff8111156117a05761179f6115b9565b5b6117ac8d828e016116d6565b98505060608b013567ffffffffffffffff8111156117cd576117cc6115b9565b5b6117d98d828e016116d6565b97505060808b013567ffffffffffffffff8111156117fa576117f96115b9565b5b6118068d828e016116d6565b96505060a08b013567ffffffffffffffff811115611827576118266115b9565b5b6118338d828e016116d6565b95505060c08b013567ffffffffffffffff811115611854576118536115b9565b5b6118608d828e016116d6565b94505060e08b013567ffffffffffffffff811115611881576118806115b9565b5b61188d8d828e016116d6565b9350506101008b013567ffffffffffffffff8111156118af576118ae6115b9565b5b6118bb8d828e016116d6565b9250506101208b013567ffffffffffffffff8111156118dd576118dc6115b9565b5b6118e98d828e016116d6565b9150509295989b9194979a5092959850565b60008115159050919050565b611910816118fb565b82525050565b600060208201905061192b6000830184611907565b92915050565b6000819050919050565b6000819050919050565b61195661195182611931565b61193b565b82525050565b60006119688284611945565b60208201915081905092915050565b6000819050919050565b7f4e487b7100000000000000000000000000000000000000000000000000000000600052601160045260246000fd5b60006119bb82611977565b91506119c683611977565b92508282026119d481611977565b91507f80000000000000000000000000000000000000000000000000000000000000008414600084121615611a0c57611a0b611981565b5b8282058414831517611a2157611a20611981565b5b5092915050565b6000611a3382611931565b9150611a3e83611931565b9250828201905080821115611a5657611a55611981565b5b92915050565b6000611a6782611931565b9150611a7283611931565b9250828203905081811115611a8a57611a89611981565b5b9291505056fea264697066735822122092f5614c0690534d1a883d18eedbc6f137be6eb7969936bb7a3639c3c97d734964736f6c63430008110033",
  "linkReferences": {},
  "deployedLinkReferences": {}
}