{
  "_format": "hh-sol-artifact-1",
  "contractName": "VerifierMembershipZKP",
  "sourceName": "contracts/VerifierMembershipZKP.sol",
  "abi": [
    {
      "inputs": [
        {
          "internalType": "bytes[]",
          "name": "_values",
          "type": "bytes[]"
        }
      ],
      "name": "BN",
      "outputs": [
        {
          "components": [
            {
              "internalType": "bytes",
              "name": "val",
              "type": "bytes"
            },
            {
              "internalType": "bool",
              "name": "neg",
              "type": "bool"
            },
            {
              "internalType": "uint256",
              "name": "bitlen",
              "type": "uint256"
            }
          ],
          "internalType": "struct BigNumber[]",
          "name": "_bg",
          "type": "tuple[]"
        }
      ],
      "stateMutability": "view",
      "type": "function"
    },
    {
      "inputs": [
        {
          "internalType": "bytes[][]",
          "name": "_proof",
          "type": "bytes[][]"
        },
        {
          "internalType": "bool[]",
          "name": "_isProof0Negativ",
          "type": "bool[]"
        },
        {
          "components": [
            {
              "internalType": "bytes",
              "name": "val",
              "type": "bytes"
            },
            {
              "internalType": "bool",
              "name": "neg",
              "type": "bool"
            },
            {
              "internalType": "uint256",
              "name": "bitlen",
              "type": "uint256"
            }
          ],
          "internalType": "struct BigNumber[]",
          "name": "_as",
          "type": "tuple[]"
        },
        {
          "internalType": "bytes[]",
          "name": "_ias",
          "type": "bytes[]"
        },
        {
          "components": [
            {
              "internalType": "bytes",
              "name": "val",
              "type": "bytes"
            },
            {
              "internalType": "bool",
              "name": "neg",
              "type": "bool"
            },
            {
              "internalType": "uint256",
              "name": "bitlen",
              "type": "uint256"
            }
          ],
          "internalType": "struct BigNumber",
          "name": "_pub",
          "type": "tuple"
        }
      ],
      "name": "checkEvery",
      "outputs": [
        {
          "internalType": "bool",
          "name": "",
          "type": "bool"
        }
      ],
      "stateMutability": "view",
      "type": "function"
    },
    {
      "inputs": [
        {
          "internalType": "bytes",
          "name": "_gmk",
          "type": "bytes"
        },
        {
          "internalType": "bytes",
          "name": "_N",
          "type": "bytes"
        },
        {
          "internalType": "bytes",
          "name": "_r",
          "type": "bytes"
        }
      ],
      "name": "verifyInvMod",
      "outputs": [
        {
          "internalType": "bool",
          "name": "verify",
          "type": "bool"
        }
      ],
      "stateMutability": "view",
      "type": "function"
    },
    {
      "inputs": [
        {
          "internalType": "bytes",
          "name": "_ciphertext",
          "type": "bytes"
        },
        {
          "internalType": "bytes[][]",
          "name": "_proof",
          "type": "bytes[][]"
        },
        {
          "internalType": "bool[]",
          "name": "_isProof0Negativ",
          "type": "bool[]"
        },
        {
          "internalType": "bytes[]",
          "name": "_as",
          "type": "bytes[]"
        },
        {
          "internalType": "bytes[]",
          "name": "_ias",
          "type": "bytes[]"
        },
        {
          "internalType": "bytes[]",
          "name": "_gmk",
          "type": "bytes[]"
        },
        {
          "internalType": "bytes",
          "name": "_e",
          "type": "bytes"
        },
        {
          "internalType": "bytes",
          "name": "_pubKey",
          "type": "bytes"
        }
      ],
      "name": "verifyMembershipZKP",
      "outputs": [
        {
          "internalType": "bool",
          "name": "",
          "type": "bool"
        }
      ],
      "stateMutability": "view",
      "type": "function"
    }
  ],
  "bytecode": "0x608060405234801561001057600080fd5b50612adc806100206000396000f3fe608060405234801561001057600080fd5b506004361061004c5760003560e01c80633d29eeef1461005157806341a3aa0c146100815780636fd08499146100b1578063cd3cf360146100e1575b600080fd5b61006b6004803603810190610066919061204c565b610111565b60405161007891906121f1565b60405180910390f35b61009b6004803603810190610096919061220c565b6104d4565b6040516100a891906121f1565b60405180910390f35b6100cb60048036038101906100c691906122b3565b610519565b6040516100d891906124b5565b60405180910390f35b6100fb60048036038101906100f6919061266e565b6105da565b60405161010891906121f1565b60405180910390f35b60008061011f83600061083e565b90506000610136828361085a90919063ffffffff16565b905060005b86518110156101df57600061018988838151811061015c5761015b612775565b5b602002602001015185600001518c858151811061017c5761017b612775565b5b60200260200101516104d4565b9050806101cb576040517f08c379a00000000000000000000000000000000000000000000000000000000081526004016101c290612827565b60405180910390fd5b5080806101d790612876565b91505061013b565b5060006101ed8c600061083e565b90506000895167ffffffffffffffff81111561020c5761020b611c5f565b5b60405190808252806020026020018201604052801561024557816020015b610232611c0d565b81526020019060019003908161022a5790505b50905060005b8a518110156102c457600061028f61027e8d848151811061026f5761026e612775565b5b6020026020010151600061083e565b86866108ff9092919063ffffffff16565b9050808383815181106102a5576102a4612775565b5b60200260200101819052505080806102bc90612876565b91505061024b565b5060005b815181101561036d5760006103178383815181106102e9576102e8612775565b5b602002602001015160000151898d60008151811061030a57610309612775565b5b60200260200101516104d4565b905080610359576040517f08c379a000000000000000000000000000000000000000000000000000000000815260040161035090612930565b60405180910390fd5b50808061036590612876565b9150506102c8565b506000610378610923565b905060005b8d60008151811061039157610390612775565b5b6020026020010151518110156104835760006103e38f6000815181106103ba576103b9612775565b5b602002602001015183815181106103d4576103d3612775565b5b6020026020010151600061083e565b90508d82815181106103f8576103f7612775565b5b602002602001015115610448576104458f60008151811061041c5761041b612775565b5b6020026020010151838151811061043657610435612775565b5b6020026020010151600161083e565b90505b61046d8761045f838661096590919063ffffffff16565b610b8d90919063ffffffff16565b925050808061047b90612876565b91505061037d565b506104a161049289600061083e565b82610baf90919063ffffffff16565b6104b3576000955050505050506104c8565b6104c08d8d848d896105da565b955050505050505b98975050505050505050565b6000806104e285600061083e565b905060006104f185600061083e565b9050600061050085600061083e565b905061050d838383610bdb565b93505050509392505050565b6060815167ffffffffffffffff81111561053657610535611c5f565b5b60405190808252806020026020018201604052801561056f57816020015b61055c611c0d565b8152602001906001900390816105545790505b50905060005b82518110156105d4576105a383828151811061059457610593612775565b5b6020026020010151600061083e565b8282815181106105b6576105b5612775565b5b602002602001018190525080806105cc90612876565b915050610575565b50919050565b6000806105f0838461085a90919063ffffffff16565b905060005b8760028151811061060957610608612775565b5b60200260200101515181101561082e57600061065b8960028151811061063257610631612775565b5b6020026020010151838151811061064c5761064b612775565b5b6020026020010151600061083e565b9050600061069f8a60018151811061067657610675612775565b5b602002602001015184815181106106905761068f612775565b5b6020026020010151600061083e565b905060008884815181106106b6576106b5612775565b5b6020026020010151905060006106cd848988610c2e565b905060006107118d6000815181106106e8576106e7612775565b5b6020026020010151878151811061070257610701612775565b5b6020026020010151600061083e565b905061071b611c0d565b610723611c0d565b8d888151811061073657610735612775565b5b6020026020010151156107d0576107838f60008151811061075a57610759612775565b5b6020026020010151898151811061077457610773612775565b5b6020026020010151600161083e565b925060006107ad8d60008151811061079e5761079d612775565b5b6020026020010151600061083e565b90506107bb8682868d610d2b565b92506107c887848c6108ff565b9150506107eb565b6107db85848b610c2e565b91506107e886838b6108ff565b90505b6107fe8185610baf90919063ffffffff16565b6108145760009950505050505050505050610835565b50505050505050808061082690612876565b9150506105f5565b5060019150505b95945050505050565b610846611c0d565b61085283836000610e75565b905092915050565b610862611c0d565b600061086e8484610965565b9050600061088e8261087e610f42565b610889856002610f84565b610c2e565b905061089a8585610baf565b6108e95760006108aa8686611000565b905060006108ca826108ba610f42565b6108c5856002610f84565b610c2e565b90506108e06108d98483611000565b600261124f565b945050506108f7565b6108f481600261124f565b92505b505092915050565b610907611c0d565b61091a610914858561085a565b83610b8d565b90509392505050565b61092b611c0d565b6040518060600160405280604051806040016040528060208152602001600081525081526020016000151581526020016000815250905090565b61096d611c0d565b60008360400151148015610985575060008260400151145b1561099957610992610923565b9050610b87565b60008360400151036109ad57819050610b87565b60008260400151036109c157829050610b87565b60606000806109d2868660006113b1565b90508560200151806109e5575084602001515b15610b1257856020015180156109fc575084602001515b15610a635760008112610a2d57610a2086600001518660000151886040015161158e565b8093508194505050610a4d565b610a4485600001518760000151876040015161158e565b80935081945050505b6001846020019015159081151581525050610b0d565b60018103610a9e57610a7d866000015186600001516116c4565b80935081945050508560200151846020019015159081151581525050610b0c565b7fffffffffffffffffffffffffffffffffffffffffffffffffffffffffffffffff8103610af957610ad7856000015187600001516116c4565b8093508194505050856020015115846020019015159081151581525050610b0b565b610b01610923565b9350505050610b87565b5b5b610b70565b60008112610b3e57610b3186600001518660000151886040015161158e565b8093508194505050610b5e565b610b5585600001518760000151876040015161158e565b80935081945050505b60008460200190151590811515815250505b828460000181905250818460400181815250505050505b92915050565b610b95611c0d565b610ba783610ba16117ef565b84610c2e565b905092915050565b600080610bbe848460016113b1565b905060008114610bcf576000610bd2565b60015b91505092915050565b60008360200151158015610bf157508260200151155b610bfa57600080fd5b6000610c19610c0a8685876108ff565b610c126117ef565b60016113b1565b14610c2357600080fd5b600190509392505050565b610c36611c0d565b6000151583602001511515148015610c5657506000151582602001511515145b8015610c6c5750610c6a8260000151611831565b155b610c7557600080fd5b6000610c8e856000015185600001518560000151611888565b90506000610c9b82611962565b905060008103610cb657610cad610923565b92505050610d24565b85602001518015610ccc5750610ccb856119a2565b5b15610d0157610cf860405180606001604052808481526020016001151581526020018381525085610965565b92505050610d24565b604051806060016040528083815260200160001515815260200182815250925050505b9392505050565b610d33611c0d565b8460200151158015610d46575082602001515b610d4f57600080fd5b8160200151158015610d6b5750610d698260000151611831565b155b610d7457600080fd5b610d7f858386610bdb565b610dbe576040517f08c379a0000000000000000000000000000000000000000000000000000000008152600401610db59061299c565b60405180910390fd5b6000610dd7856000015185600001518560000151611888565b90506000610de482611962565b905060008103610dff57610df6610923565b92505050610e6d565b85602001518015610e155750610e14856119a2565b5b15610e4a57610e4160405180606001604052808481526020016001151581526020018381525085610965565b92505050610e6d565b604051806060016040528083815260200160001515815260200182815250925050505b949350505050565b610e7d611c0d565b6020840184516000596000602084061460018114610eaf57602084066020036020818401019350808501835250610eb9565b6020820192508382525b508282848660046101c2fa506020815101810160405280515b60006020821403610f0557600060208301511460018114610ef35750610f05565b60208301925050602081039050610ed2565b808252818652876020870152505050505060008214610f245781610f32565b610f318160000151611962565b5b8160400181815250509392505050565b610f4a611c0d565b6040518060600160405280604051806040016040528060208152602001600281525081526020016000151581526020016002815250905090565b610f8c611c0d565b6000604051806040016040528060208152602001600081525090506000836040860151029050600161010082061b6020600161010084040102835280602084015260208351018301604052506040518060600160405280838152602001600015158152602001828152509250505092915050565b611008611c0d565b60008360400151148015611020575060008260400151145b156110345761102d610923565b9050611249565b6060600080611045868660006113b1565b9150856020015180611058575084602001515b1561118f578560200151801561106f575084602001515b1561111b57600182036110ac5761108e866000015186600001516116c4565b80925081945050506001846020019015159081151581525050611116565b7fffffffffffffffffffffffffffffffffffffffffffffffffffffffffffffffff8203611103576110e5856000015187600001516116c4565b80925081945050506000846020019015159081151581525050611115565b61110b610923565b9350505050611249565b5b61118a565b600082126111475761113a86600001518660000151886040015161158e565b8092508194505050611167565b61115e85600001518760000151876040015161158e565b80925081945050505b856020015161117757600061117a565b60015b8460200190151590811515815250505b611232565b600182036111c7576111a9866000015186600001516116c4565b80925081945050506000846020019015159081151581525050611231565b7fffffffffffffffffffffffffffffffffffffffffffffffffffffffffffffffff820361121e57611200856000015187600001516116c4565b80925081945050506001846020019015159081151581525050611230565b611226610923565b9350505050611249565b5b5b828460000181905250808460400181815250505050505b92915050565b611257611c0d565b60008351519050836040015183106112a65760405180606001604052806040518060400160405280602081526020016000815250815260200160001515815260200160008152509150506113ab565b8284604001516112b691906129bc565b8460400181815250506101008314610100841117156112e75760206101008404028103905080845152610100830692505b83516000600885061460018114611358576000808661010003858501865b60008082140361134e576020811460018114611327576020830351955061132c565b600095505b5081518a1c935084831b94508484178252602082039150602081039050611305565b5050505050611386565b6008850486518051602081018383018482038282848760046101c2fa6000601f840153848652505050505050505b50602081016000815114600181036113a357602083510382528187525b505050839150505b92915050565b60008060019050821561147c57846020015180156113d0575083602001515b156113fd577fffffffffffffffffffffffffffffffffffffffffffffffffffffffffffffffff905061147b565b600015158560200151151514801561141d57506001151584602001511515145b1561142c576001915050611587565b600115158560200151151514801561144c57506000151584602001511515145b1561147a577fffffffffffffffffffffffffffffffffffffffffffffffffffffffffffffffff915050611587565b5b5b8360400151856040015111156114955780915050611587565b8460400151846040015111156114d957807fffffffffffffffffffffffffffffffffffffffffffffffffffffffffffffffff6114d191906129fa565b915050611587565b6000806000806000896000015151905060208a510194506020895101935060005b8181101561157b57808601519350808501519250828411156115255786975050505050505050611587565b8383111561156757867fffffffffffffffffffffffffffffffffffffffffffffffffffffffffffffffff61155991906129fa565b975050505050505050611587565b6020816115749190612a72565b90506114fa565b50600096505050505050505b9392505050565b606060006060596000600160000388518901885189018a5160208601018b515b60008082140361165a5783518c518e51038211600181146115f25787820184526001881482881416600181146115e757600098506115ec565b600198505b50611641565b8451888184010185528881038803831160018114611633576000821160008b111789851416600181146116285760009a5061162d565b60019a505b50611638565b600199505b50602086039550505b50602083039250602085039450506020810390506115ae565b5060008514600181146116705760018252611677565b6020870196505b50859650846020028c510187526020875101870160405260208701516001816101008d061c146001821417156116ae5760018b019a505b5050505050505080849250925050935093915050565b6060600060606000807fffffffffffffffffffffffffffffffffffffffffffffffffffffffffffffffff90505987518751808203828b01828b0184860160208101865b60008082140361179757845186821160018114611748578c8203855260018d1460008314166001811461173d5760009d50611742565b60019d505b5061177e565b85518d81840303865260018e148d8214168e8201841017600181146117705760009e50611775565b60019e505b50602087039650505b5060208403935060208603955050602081039050611707565b506020820191505b60008251036117bf5760208801975060208703965060208201915061179f565b879a50868b5280604052505050505050505060006117dc84611962565b9050838195509550505050509250929050565b6117f7611c0d565b6040518060600160405280604051806040016040528060208152602001600181525081526020016000151581526020016001815250905090565b600080600060208401905060005b845181101561187b578151925060008311156118615760009350505050611883565b6020820191506020816118749190612a72565b905061183f565b506001925050505b919050565b606083518351835160405183815282602082015281604082015283606082018560208b0160046101c2fa84606001848184018660208c0160046101c2fa91508481019050838184018560208b0160046101c2fa915081600081036118e857fe5b5083810190508360608401828560056105465a03fa9150816000810361190a57fe5b5083606084015b600060208314036119415760008151146001811461192f5750611941565b60208201915050602082039150611911565b60208103985081895285856060010160405250505050505050509392505050565b600061196d82611831565b1561197b576000905061199d565b60006020830151905061198d816119b7565b9150600860208451030282019150505b919050565b60008151518251016002815106915050919050565b600080821460018114611c02578260018403935060028404841793506004840484179350601084048417935061010084048417935062010000840484179350640100000000840484179350680100000000000000008404841793507001000000000000000000000000000000008404841793506001840193506040517ff8f9cbfae6cc78fbefe7cdc3a1793dfcf4f0e8bbd8cec470b6a28a7a5a3e1efd81527ff5ecf1b3e9debc68e1d9cfabc5997135bfb7a7a3938b7b606b5b4b3f2f1f0ffe60208201527ff6e4ed9ff2d6b458eadcdf97bd91692de2d4da8fd2d0ac50c6ae9a827252361660408201527fc8c0b887b0a8a4489c948c7f847c6125746c645c544c444038302820181008ff60608201527ff7cae577eec2a03cf3bad76fb589591debb2dd67e0aa9834bea6925f6a4a2e0e60808201527fe39ed557db96902cd38ed14fad815115c786af479b7e8324736353433727170760a08201527fc976c13bb96e881cb166a933a55e490d9d56952b8d4e801485467d236242260660c08201527f753a6d1b65325d0c552a4d1345224105391a310b29122104190a11030902010060e082015261010081016040527e818283848586878898a8b8c8d8e8f929395969799a9b9d9e9faaeb6bedeeff7f01000000000000000000000000000000000000000000000000000000000000008082880204818160ff038501510496507f800000000000000000000000000000000000000000000000000000000000000085116101000287019650600060018603861603611bf8576001870196505b5050505050611c07565b600091505b50919050565b604051806060016040528060608152602001600015158152602001600081525090565b6000604051905090565b600080fd5b600080fd5b600080fd5b600080fd5b6000601f19601f8301169050919050565b7f4e487b7100000000000000000000000000000000000000000000000000000000600052604160045260246000fd5b611c9782611c4e565b810181811067ffffffffffffffff82111715611cb657611cb5611c5f565b5b80604052505050565b6000611cc9611c30565b9050611cd58282611c8e565b919050565b600067ffffffffffffffff821115611cf557611cf4611c5f565b5b611cfe82611c4e565b9050602081019050919050565b82818337600083830152505050565b6000611d2d611d2884611cda565b611cbf565b905082815260208101848484011115611d4957611d48611c49565b5b611d54848285611d0b565b509392505050565b600082601f830112611d7157611d70611c44565b5b8135611d81848260208601611d1a565b91505092915050565b600067ffffffffffffffff821115611da557611da4611c5f565b5b602082029050602081019050919050565b600080fd5b600067ffffffffffffffff821115611dd657611dd5611c5f565b5b602082029050602081019050919050565b6000611dfa611df584611dbb565b611cbf565b90508083825260208201905060208402830185811115611e1d57611e1c611db6565b5b835b81811015611e6457803567ffffffffffffffff811115611e4257611e41611c44565b5b808601611e4f8982611d5c565b85526020850194505050602081019050611e1f565b5050509392505050565b600082601f830112611e8357611e82611c44565b5b8135611e93848260208601611de7565b91505092915050565b6000611eaf611eaa84611d8a565b611cbf565b90508083825260208201905060208402830185811115611ed257611ed1611db6565b5b835b81811015611f1957803567ffffffffffffffff811115611ef757611ef6611c44565b5b808601611f048982611e6e565b85526020850194505050602081019050611ed4565b5050509392505050565b600082601f830112611f3857611f37611c44565b5b8135611f48848260208601611e9c565b91505092915050565b600067ffffffffffffffff821115611f6c57611f6b611c5f565b5b602082029050602081019050919050565b60008115159050919050565b611f9281611f7d565b8114611f9d57600080fd5b50565b600081359050611faf81611f89565b92915050565b6000611fc8611fc384611f51565b611cbf565b90508083825260208201905060208402830185811115611feb57611fea611db6565b5b835b8181101561201457806120008882611fa0565b845260208401935050602081019050611fed565b5050509392505050565b600082601f83011261203357612032611c44565b5b8135612043848260208601611fb5565b91505092915050565b600080600080600080600080610100898b03121561206d5761206c611c3a565b5b600089013567ffffffffffffffff81111561208b5761208a611c3f565b5b6120978b828c01611d5c565b985050602089013567ffffffffffffffff8111156120b8576120b7611c3f565b5b6120c48b828c01611f23565b975050604089013567ffffffffffffffff8111156120e5576120e4611c3f565b5b6120f18b828c0161201e565b965050606089013567ffffffffffffffff81111561211257612111611c3f565b5b61211e8b828c01611e6e565b955050608089013567ffffffffffffffff81111561213f5761213e611c3f565b5b61214b8b828c01611e6e565b94505060a089013567ffffffffffffffff81111561216c5761216b611c3f565b5b6121788b828c01611e6e565b93505060c089013567ffffffffffffffff81111561219957612198611c3f565b5b6121a58b828c01611d5c565b92505060e089013567ffffffffffffffff8111156121c6576121c5611c3f565b5b6121d28b828c01611d5c565b9150509295985092959890939650565b6121eb81611f7d565b82525050565b600060208201905061220660008301846121e2565b92915050565b60008060006060848603121561222557612224611c3a565b5b600084013567ffffffffffffffff81111561224357612242611c3f565b5b61224f86828701611d5c565b935050602084013567ffffffffffffffff8111156122705761226f611c3f565b5b61227c86828701611d5c565b925050604084013567ffffffffffffffff81111561229d5761229c611c3f565b5b6122a986828701611d5c565b9150509250925092565b6000602082840312156122c9576122c8611c3a565b5b600082013567ffffffffffffffff8111156122e7576122e6611c3f565b5b6122f384828501611e6e565b91505092915050565b600081519050919050565b600082825260208201905092915050565b6000819050602082019050919050565b600081519050919050565b600082825260208201905092915050565b60005b83811015612362578082015181840152602081019050612347565b60008484015250505050565b600061237982612328565b6123838185612333565b9350612393818560208601612344565b61239c81611c4e565b840191505092915050565b6123b081611f7d565b82525050565b6000819050919050565b6123c9816123b6565b82525050565b600060608301600083015184820360008601526123ec828261236e565b915050602083015161240160208601826123a7565b50604083015161241460408601826123c0565b508091505092915050565b600061242b83836123cf565b905092915050565b6000602082019050919050565b600061244b826122fc565b6124558185612307565b93508360208202850161246785612318565b8060005b858110156124a35784840389528151612484858261241f565b945061248f83612433565b925060208a0199505060018101905061246b565b50829750879550505050505092915050565b600060208201905081810360008301526124cf8184612440565b905092915050565b600067ffffffffffffffff8211156124f2576124f1611c5f565b5b602082029050602081019050919050565b600080fd5b600080fd5b612516816123b6565b811461252157600080fd5b50565b6000813590506125338161250d565b92915050565b60006060828403121561254f5761254e612503565b5b6125596060611cbf565b9050600082013567ffffffffffffffff81111561257957612578612508565b5b61258584828501611d5c565b600083015250602061259984828501611fa0565b60208301525060406125ad84828501612524565b60408301525092915050565b60006125cc6125c7846124d7565b611cbf565b905080838252602082019050602084028301858111156125ef576125ee611db6565b5b835b8181101561263657803567ffffffffffffffff81111561261457612613611c44565b5b8086016126218982612539565b855260208501945050506020810190506125f1565b5050509392505050565b600082601f83011261265557612654611c44565b5b81356126658482602086016125b9565b91505092915050565b600080600080600060a0868803121561268a57612689611c3a565b5b600086013567ffffffffffffffff8111156126a8576126a7611c3f565b5b6126b488828901611f23565b955050602086013567ffffffffffffffff8111156126d5576126d4611c3f565b5b6126e18882890161201e565b945050604086013567ffffffffffffffff81111561270257612701611c3f565b5b61270e88828901612640565b935050606086013567ffffffffffffffff81111561272f5761272e611c3f565b5b61273b88828901611e6e565b925050608086013567ffffffffffffffff81111561275c5761275b611c3f565b5b61276888828901612539565b9150509295509295909350565b7f4e487b7100000000000000000000000000000000000000000000000000000000600052603260045260246000fd5b600082825260208201905092915050565b7f4d6f64756c617220696e766572736520766572696669636174696f6e2066616960008201527f6c732e0000000000000000000000000000000000000000000000000000000000602082015250565b60006128116023836127a4565b915061281c826127b5565b604082019050919050565b6000602082019050818103600083015261284081612804565b9050919050565b7f4e487b7100000000000000000000000000000000000000000000000000000000600052601160045260246000fd5b6000612881826123b6565b91507fffffffffffffffffffffffffffffffffffffffffffffffffffffffffffffffff82036128b3576128b2612847565b5b600182019050919050565b7f5365636f6e64206d6f64756c617220696e76657273657320766572696669636160008201527f74696f6e206661696c732e000000000000000000000000000000000000000000602082015250565b600061291a602b836127a4565b9150612925826128be565b604082019050919050565b600060208201905081810360008301526129498161290d565b9050919050565b7f77726f6e6720696e766572736500000000000000000000000000000000000000600082015250565b6000612986600d836127a4565b915061299182612950565b602082019050919050565b600060208201905081810360008301526129b581612979565b9050919050565b60006129c7826123b6565b91506129d2836123b6565b92508282039050818111156129ea576129e9612847565b5b92915050565b6000819050919050565b6000612a05826129f0565b9150612a10836129f0565b9250828202612a1e816129f0565b91507f80000000000000000000000000000000000000000000000000000000000000008414600084121615612a5657612a55612847565b5b8282058414831517612a6b57612a6a612847565b5b5092915050565b6000612a7d826123b6565b9150612a88836123b6565b9250828201905080821115612aa057612a9f612847565b5b9291505056fea26469706673582212202ce184a591fecc45e4bc7bf81f0ad8236097d94ed87d12cde2a615f2267143bb64736f6c63430008110033",
  "linkReferences": {},
  "deployedLinkReferences": {}
}