{
  "_format": "hh-sol-artifact-1",
  "contractName": "VerifierZKPCorrectEncryption",
  "sourceName": "contracts/VerifierZKPCorrectEncryption.sol",
  "abi": [
    {
      "inputs": [
        {
          "internalType": "bytes[]",
          "name": "_values",
          "type": "bytes[]"
        }
      ],
      "name": "BN",
      "outputs": [
        {
          "components": [
            {
              "internalType": "bytes",
              "name": "val",
              "type": "bytes"
            },
            {
              "internalType": "bool",
              "name": "neg",
              "type": "bool"
            },
            {
              "internalType": "uint256",
              "name": "bitlen",
              "type": "uint256"
            }
          ],
          "internalType": "struct BigNumber[]",
          "name": "_bg",
          "type": "tuple[]"
        }
      ],
      "stateMutability": "view",
      "type": "function"
    },
    {
      "inputs": [
        {
          "internalType": "bytes[][]",
          "name": "_proof",
          "type": "bytes[][]"
        },
        {
          "internalType": "bool[]",
          "name": "_isProof0Negativ",
          "type": "bool[]"
        },
        {
          "components": [
            {
              "internalType": "bytes",
              "name": "val",
              "type": "bytes"
            },
            {
              "internalType": "bool",
              "name": "neg",
              "type": "bool"
            },
            {
              "internalType": "uint256",
              "name": "bitlen",
              "type": "uint256"
            }
          ],
          "internalType": "struct BigNumber[]",
          "name": "_as",
          "type": "tuple[]"
        },
        {
          "internalType": "bytes[]",
          "name": "_ias",
          "type": "bytes[]"
        },
        {
          "components": [
            {
              "internalType": "bytes",
              "name": "val",
              "type": "bytes"
            },
            {
              "internalType": "bool",
              "name": "neg",
              "type": "bool"
            },
            {
              "internalType": "uint256",
              "name": "bitlen",
              "type": "uint256"
            }
          ],
          "internalType": "struct BigNumber",
          "name": "_pub",
          "type": "tuple"
        }
      ],
      "name": "checkEvery",
      "outputs": [
        {
          "internalType": "bool",
          "name": "",
          "type": "bool"
        }
      ],
      "stateMutability": "view",
      "type": "function"
    },
    {
      "inputs": [
        {
          "internalType": "bytes",
          "name": "_gmk",
          "type": "bytes"
        },
        {
          "internalType": "bytes",
          "name": "_N",
          "type": "bytes"
        },
        {
          "internalType": "bytes",
          "name": "_r",
          "type": "bytes"
        }
      ],
      "name": "verifyInvMod",
      "outputs": [
        {
          "internalType": "bool",
          "name": "verify",
          "type": "bool"
        }
      ],
      "stateMutability": "view",
      "type": "function"
    },
    {
      "inputs": [
        {
          "internalType": "bytes",
          "name": "_ciphertext",
          "type": "bytes"
        },
        {
          "internalType": "bytes[][]",
          "name": "_proof",
          "type": "bytes[][]"
        },
        {
          "internalType": "bool[]",
          "name": "_isProof0Negativ",
          "type": "bool[]"
        },
        {
          "internalType": "bytes[]",
          "name": "_as",
          "type": "bytes[]"
        },
        {
          "internalType": "bytes[]",
          "name": "_ias",
          "type": "bytes[]"
        },
        {
          "internalType": "bytes[]",
          "name": "_gmk",
          "type": "bytes[]"
        },
        {
          "internalType": "bytes",
          "name": "_e",
          "type": "bytes"
        },
        {
          "internalType": "bytes",
          "name": "_pubKey",
          "type": "bytes"
        }
      ],
      "name": "verifyTx",
      "outputs": [
        {
          "internalType": "bool",
          "name": "",
          "type": "bool"
        }
      ],
      "stateMutability": "view",
      "type": "function"
    }
  ],
  "bytecode": "0x608060405234801561001057600080fd5b50612b82806100206000396000f3fe608060405234801561001057600080fd5b506004361061004c5760003560e01c806341a3aa0c146100515780636fd08499146100815780639e97f341146100b1578063cd3cf360146100e1575b600080fd5b61006b60048036038101906100669190611df0565b610111565b6040516100789190611eb2565b60405180910390f35b61009b60048036038101906100969190611fb3565b610156565b6040516100a891906121b5565b60405180910390f35b6100cb60048036038101906100c691906123a7565b610255565b6040516100d89190611eb2565b60405180910390f35b6100fb60048036038101906100f691906126d4565b61055d565b6040516101089190611eb2565b60405180910390f35b60008061011f8560006107c0565b9050600061012e8560006107c0565b9050600061013d8560006107c0565b905061014a8383836107dc565b93505050509392505050565b6060815167ffffffffffffffff81111561017357610172611cc5565b5b6040519080825280602002602001820160405280156101ac57816020015b610199611c73565b8152602001906001900390816101915790505b5090506101ed6040518060400160405280600481526020017f686572650000000000000000000000000000000000000000000000000000000081525061082f565b60005b825181101561024f5761021e83828151811061020f5761020e6127db565b5b602002602001015160006107c0565b828281518110610231576102306127db565b5b6020026020010181905250808061024790612839565b9150506101f0565b50919050565b6000806102638360006107c0565b9050600061027a82836108c890919063ffffffff16565b905060005b86518110156103235760006102cd8883815181106102a05761029f6127db565b5b602002602001015185600001518c85815181106102c0576102bf6127db565b5b6020026020010151610111565b90508061030f576040517f08c379a000000000000000000000000000000000000000000000000000000000815260040161030690612904565b60405180910390fd5b50808061031b90612839565b91505061027f565b5060006103318c60006107c0565b90506000895167ffffffffffffffff8111156103505761034f611cc5565b5b60405190808252806020026020018201604052801561038957816020015b610376611c73565b81526020019060019003908161036e5790505b50905060005b8a518110156104085760006103d36103c28d84815181106103b3576103b26127db565b5b602002602001015160006107c0565b868661096d9092919063ffffffff16565b9050808383815181106103e9576103e86127db565b5b602002602001018190525050808061040090612839565b91505061038f565b506000610413610991565b905060005b8d60008151811061042c5761042b6127db565b5b60200260200101515181101561051e57600061047e8f600081518110610455576104546127db565b5b6020026020010151838151811061046f5761046e6127db565b5b602002602001015160006107c0565b90508d8281518110610493576104926127db565b5b6020026020010151156104e3576104e08f6000815181106104b7576104b66127db565b5b602002602001015183815181106104d1576104d06127db565b5b602002602001015160016107c0565b90505b610508876104fa83866109d390919063ffffffff16565b610bfb90919063ffffffff16565b925050808061051690612839565b915050610418565b5061053c61052d8960006107c0565b82610c1d90919063ffffffff16565b5061054a8d8d848d8961055d565b9550505050505098975050505050505050565b60008061057383846108c890919063ffffffff16565b905060005b8760028151811061058c5761058b6127db565b5b6020026020010151518110156107b05760006105de896002815181106105b5576105b46127db565b5b602002602001015183815181106105cf576105ce6127db565b5b602002602001015160006107c0565b905060006106228a6001815181106105f9576105f86127db565b5b60200260200101518481518110610613576106126127db565b5b602002602001015160006107c0565b90506000888481518110610639576106386127db565b5b602002602001015190506000610650848988610c49565b905060006106948d60008151811061066b5761066a6127db565b5b60200260200101518781518110610685576106846127db565b5b602002602001015160006107c0565b905061069e611c73565b6106a6611c73565b8d88815181106106b9576106b86127db565b5b602002602001015115610752576107068f6000815181106106dd576106dc6127db565b5b602002602001015189815181106106f7576106f66127db565b5b602002602001015160016107c0565b9250600061072f8d8a815181106107205761071f6127db565b5b602002602001015160006107c0565b905061073d8682868d610d46565b925061074a87848c61096d565b91505061076d565b61075d85848b610c49565b915061076a86838b61096d565b90505b6107808185610c1d90919063ffffffff16565b61079657600099505050505050505050506107b7565b5050505050505080806107a890612839565b915050610578565b5060019150505b95945050505050565b6107c8611c73565b6107d483836000610eb2565b905092915050565b600083602001511580156107f257508260200151155b6107fb57600080fd5b600061081a61080b86858761096d565b610813610f7f565b6001610fc1565b1461082457600080fd5b600190509392505050565b6108c5816040516024016108439190612968565b6040516020818303038152906040527f41304fac000000000000000000000000000000000000000000000000000000007bffffffffffffffffffffffffffffffffffffffffffffffffffffffff19166020820180517bffffffffffffffffffffffffffffffffffffffffffffffffffffffff838183161783525050505061119e565b50565b6108d0611c73565b60006108dc84846109d3565b905060006108fc826108ec6111c7565b6108f7856002611209565b610c49565b90506109088585610c1d565b6109575760006109188686611285565b90506000610938826109286111c7565b610933856002611209565b610c49565b905061094e6109478483611285565b60026114d4565b94505050610965565b6109628160026114d4565b92505b505092915050565b610975611c73565b61098861098285856108c8565b83610bfb565b90509392505050565b610999611c73565b6040518060600160405280604051806040016040528060208152602001600081525081526020016000151581526020016000815250905090565b6109db611c73565b600083604001511480156109f3575060008260400151145b15610a0757610a00610991565b9050610bf5565b6000836040015103610a1b57819050610bf5565b6000826040015103610a2f57829050610bf5565b6060600080610a4086866000610fc1565b9050856020015180610a53575084602001515b15610b805785602001518015610a6a575084602001515b15610ad15760008112610a9b57610a8e866000015186600001518860400151611636565b8093508194505050610abb565b610ab2856000015187600001518760400151611636565b80935081945050505b6001846020019015159081151581525050610b7b565b60018103610b0c57610aeb8660000151866000015161176c565b80935081945050508560200151846020019015159081151581525050610b7a565b7fffffffffffffffffffffffffffffffffffffffffffffffffffffffffffffffff8103610b6757610b458560000151876000015161176c565b8093508194505050856020015115846020019015159081151581525050610b79565b610b6f610991565b9350505050610bf5565b5b5b610bde565b60008112610bac57610b9f866000015186600001518860400151611636565b8093508194505050610bcc565b610bc3856000015187600001518760400151611636565b80935081945050505b60008460200190151590811515815250505b828460000181905250818460400181815250505050505b92915050565b610c03611c73565b610c1583610c0f610f7f565b84610c49565b905092915050565b600080610c2c84846001610fc1565b905060008114610c3d576000610c40565b60015b91505092915050565b610c51611c73565b6000151583602001511515148015610c7157506000151582602001511515145b8015610c875750610c858260000151611897565b155b610c9057600080fd5b6000610ca98560000151856000015185600001516118ee565b90506000610cb6826119c8565b905060008103610cd157610cc8610991565b92505050610d3f565b85602001518015610ce75750610ce685611a08565b5b15610d1c57610d13604051806060016040528084815260200160011515815260200183815250856109d3565b92505050610d3f565b604051806060016040528083815260200160001515815260200182815250925050505b9392505050565b610d4e611c73565b8460200151158015610d61575082602001515b610da0576040517f08c379a0000000000000000000000000000000000000000000000000000000008152600401610d97906129d6565b60405180910390fd5b8160200151158015610dbc5750610dba8260000151611897565b155b610dfb576040517f08c379a0000000000000000000000000000000000000000000000000000000008152600401610df290612a42565b60405180910390fd5b6000610e148560000151856000015185600001516118ee565b90506000610e21826119c8565b905060008103610e3c57610e33610991565b92505050610eaa565b85602001518015610e525750610e5185611a08565b5b15610e8757610e7e604051806060016040528084815260200160011515815260200183815250856109d3565b92505050610eaa565b604051806060016040528083815260200160001515815260200182815250925050505b949350505050565b610eba611c73565b6020840184516000596000602084061460018114610eec57602084066020036020818401019350808501835250610ef6565b6020820192508382525b508282848660046101c2fa506020815101810160405280515b60006020821403610f4257600060208301511460018114610f305750610f42565b60208301925050602081039050610f0f565b808252818652876020870152505050505060008214610f615781610f6f565b610f6e81600001516119c8565b5b8160400181815250509392505050565b610f87611c73565b6040518060600160405280604051806040016040528060208152602001600181525081526020016000151581526020016001815250905090565b60008060019050821561108c5784602001518015610fe0575083602001515b1561100d577fffffffffffffffffffffffffffffffffffffffffffffffffffffffffffffffff905061108b565b600015158560200151151514801561102d57506001151584602001511515145b1561103c576001915050611197565b600115158560200151151514801561105c57506000151584602001511515145b1561108a577fffffffffffffffffffffffffffffffffffffffffffffffffffffffffffffffff915050611197565b5b5b8360400151856040015111156110a55780915050611197565b8460400151846040015111156110e957807fffffffffffffffffffffffffffffffffffffffffffffffffffffffffffffffff6110e19190612a6c565b915050611197565b6000806000806000896000015151905060208a510194506020895101935060005b8181101561118b57808601519350808501519250828411156111355786975050505050505050611197565b8383111561117757867fffffffffffffffffffffffffffffffffffffffffffffffffffffffffffffffff6111699190612a6c565b975050505050505050611197565b6020816111849190612ae4565b905061110a565b50600096505050505050505b9392505050565b60008151905060006a636f6e736f6c652e6c6f679050602083016000808483855afa5050505050565b6111cf611c73565b6040518060600160405280604051806040016040528060208152602001600281525081526020016000151581526020016002815250905090565b611211611c73565b6000604051806040016040528060208152602001600081525090506000836040860151029050600161010082061b6020600161010084040102835280602084015260208351018301604052506040518060600160405280838152602001600015158152602001828152509250505092915050565b61128d611c73565b600083604001511480156112a5575060008260400151145b156112b9576112b2610991565b90506114ce565b60606000806112ca86866000610fc1565b91508560200151806112dd575084602001515b1561141457856020015180156112f4575084602001515b156113a05760018203611331576113138660000151866000015161176c565b8092508194505050600184602001901515908115158152505061139b565b7fffffffffffffffffffffffffffffffffffffffffffffffffffffffffffffffff82036113885761136a8560000151876000015161176c565b8092508194505050600084602001901515908115158152505061139a565b611390610991565b93505050506114ce565b5b61140f565b600082126113cc576113bf866000015186600001518860400151611636565b80925081945050506113ec565b6113e3856000015187600001518760400151611636565b80925081945050505b85602001516113fc5760006113ff565b60015b8460200190151590811515815250505b6114b7565b6001820361144c5761142e8660000151866000015161176c565b809250819450505060008460200190151590811515815250506114b6565b7fffffffffffffffffffffffffffffffffffffffffffffffffffffffffffffffff82036114a3576114858560000151876000015161176c565b809250819450505060018460200190151590811515815250506114b5565b6114ab610991565b93505050506114ce565b5b5b828460000181905250808460400181815250505050505b92915050565b6114dc611c73565b600083515190508360400151831061152b576040518060600160405280604051806040016040528060208152602001600081525081526020016000151581526020016000815250915050611630565b82846040015161153b9190612b18565b84604001818152505061010083146101008411171561156c5760206101008404028103905080845152610100830692505b835160006008850614600181146115dd576000808661010003858501865b6000808214036115d35760208114600181146115ac57602083035195506115b1565b600095505b5081518a1c935084831b9450848417825260208203915060208103905061158a565b505050505061160b565b6008850486518051602081018383018482038282848760046101c2fa6000601f840153848652505050505050505b506020810160008151146001810361162857602083510382528187525b505050839150505b92915050565b606060006060596000600160000388518901885189018a5160208601018b515b6000808214036117025783518c518e510382116001811461169a57878201845260018814828814166001811461168f5760009850611694565b600198505b506116e9565b84518881840101855288810388038311600181146116db576000821160008b111789851416600181146116d05760009a506116d5565b60019a505b506116e0565b600199505b50602086039550505b5060208303925060208503945050602081039050611656565b506000851460018114611718576001825261171f565b6020870196505b50859650846020028c510187526020875101870160405260208701516001816101008d061c146001821417156117565760018b019a505b5050505050505080849250925050935093915050565b6060600060606000807fffffffffffffffffffffffffffffffffffffffffffffffffffffffffffffffff90505987518751808203828b01828b0184860160208101865b60008082140361183f578451868211600181146117f0578c8203855260018d146000831416600181146117e55760009d506117ea565b60019d505b50611826565b85518d81840303865260018e148d8214168e8201841017600181146118185760009e5061181d565b60019e505b50602087039650505b50602084039350602086039550506020810390506117af565b506020820191505b600082510361186757602088019750602087039650602082019150611847565b879a50868b528060405250505050505050506000611884846119c8565b9050838195509550505050509250929050565b600080600060208401905060005b84518110156118e1578151925060008311156118c757600093505050506118e9565b6020820191506020816118da9190612ae4565b90506118a5565b506001925050505b919050565b606083518351835160405183815282602082015281604082015283606082018560208b0160046101c2fa84606001848184018660208c0160046101c2fa91508481019050838184018560208b0160046101c2fa9150816000810361194e57fe5b5083810190508360608401828560056105465a03fa9150816000810361197057fe5b5083606084015b600060208314036119a75760008151146001811461199557506119a7565b60208201915050602082039150611977565b60208103985081895285856060010160405250505050505050509392505050565b60006119d382611897565b156119e15760009050611a03565b6000602083015190506119f381611a1d565b9150600860208451030282019150505b919050565b60008151518251016002815106915050919050565b600080821460018114611c68578260018403935060028404841793506004840484179350601084048417935061010084048417935062010000840484179350640100000000840484179350680100000000000000008404841793507001000000000000000000000000000000008404841793506001840193506040517ff8f9cbfae6cc78fbefe7cdc3a1793dfcf4f0e8bbd8cec470b6a28a7a5a3e1efd81527ff5ecf1b3e9debc68e1d9cfabc5997135bfb7a7a3938b7b606b5b4b3f2f1f0ffe60208201527ff6e4ed9ff2d6b458eadcdf97bd91692de2d4da8fd2d0ac50c6ae9a827252361660408201527fc8c0b887b0a8a4489c948c7f847c6125746c645c544c444038302820181008ff60608201527ff7cae577eec2a03cf3bad76fb589591debb2dd67e0aa9834bea6925f6a4a2e0e60808201527fe39ed557db96902cd38ed14fad815115c786af479b7e8324736353433727170760a08201527fc976c13bb96e881cb166a933a55e490d9d56952b8d4e801485467d236242260660c08201527f753a6d1b65325d0c552a4d1345224105391a310b29122104190a11030902010060e082015261010081016040527e818283848586878898a8b8c8d8e8f929395969799a9b9d9e9faaeb6bedeeff7f01000000000000000000000000000000000000000000000000000000000000008082880204818160ff038501510496507f800000000000000000000000000000000000000000000000000000000000000085116101000287019650600060018603861603611c5e576001870196505b5050505050611c6d565b600091505b50919050565b604051806060016040528060608152602001600015158152602001600081525090565b6000604051905090565b600080fd5b600080fd5b600080fd5b600080fd5b6000601f19601f8301169050919050565b7f4e487b7100000000000000000000000000000000000000000000000000000000600052604160045260246000fd5b611cfd82611cb4565b810181811067ffffffffffffffff82111715611d1c57611d1b611cc5565b5b80604052505050565b6000611d2f611c96565b9050611d3b8282611cf4565b919050565b600067ffffffffffffffff821115611d5b57611d5a611cc5565b5b611d6482611cb4565b9050602081019050919050565b82818337600083830152505050565b6000611d93611d8e84611d40565b611d25565b905082815260208101848484011115611daf57611dae611caf565b5b611dba848285611d71565b509392505050565b600082601f830112611dd757611dd6611caa565b5b8135611de7848260208601611d80565b91505092915050565b600080600060608486031215611e0957611e08611ca0565b5b600084013567ffffffffffffffff811115611e2757611e26611ca5565b5b611e3386828701611dc2565b935050602084013567ffffffffffffffff811115611e5457611e53611ca5565b5b611e6086828701611dc2565b925050604084013567ffffffffffffffff811115611e8157611e80611ca5565b5b611e8d86828701611dc2565b9150509250925092565b60008115159050919050565b611eac81611e97565b82525050565b6000602082019050611ec76000830184611ea3565b92915050565b600067ffffffffffffffff821115611ee857611ee7611cc5565b5b602082029050602081019050919050565b600080fd5b6000611f11611f0c84611ecd565b611d25565b90508083825260208201905060208402830185811115611f3457611f33611ef9565b5b835b81811015611f7b57803567ffffffffffffffff811115611f5957611f58611caa565b5b808601611f668982611dc2565b85526020850194505050602081019050611f36565b5050509392505050565b600082601f830112611f9a57611f99611caa565b5b8135611faa848260208601611efe565b91505092915050565b600060208284031215611fc957611fc8611ca0565b5b600082013567ffffffffffffffff811115611fe757611fe6611ca5565b5b611ff384828501611f85565b91505092915050565b600081519050919050565b600082825260208201905092915050565b6000819050602082019050919050565b600081519050919050565b600082825260208201905092915050565b60005b83811015612062578082015181840152602081019050612047565b60008484015250505050565b600061207982612028565b6120838185612033565b9350612093818560208601612044565b61209c81611cb4565b840191505092915050565b6120b081611e97565b82525050565b6000819050919050565b6120c9816120b6565b82525050565b600060608301600083015184820360008601526120ec828261206e565b915050602083015161210160208601826120a7565b50604083015161211460408601826120c0565b508091505092915050565b600061212b83836120cf565b905092915050565b6000602082019050919050565b600061214b82611ffc565b6121558185612007565b93508360208202850161216785612018565b8060005b858110156121a35784840389528151612184858261211f565b945061218f83612133565b925060208a0199505060018101905061216b565b50829750879550505050505092915050565b600060208201905081810360008301526121cf8184612140565b905092915050565b600067ffffffffffffffff8211156121f2576121f1611cc5565b5b602082029050602081019050919050565b6000612216612211846121d7565b611d25565b9050808382526020820190506020840283018581111561223957612238611ef9565b5b835b8181101561228057803567ffffffffffffffff81111561225e5761225d611caa565b5b80860161226b8982611f85565b8552602085019450505060208101905061223b565b5050509392505050565b600082601f83011261229f5761229e611caa565b5b81356122af848260208601612203565b91505092915050565b600067ffffffffffffffff8211156122d3576122d2611cc5565b5b602082029050602081019050919050565b6122ed81611e97565b81146122f857600080fd5b50565b60008135905061230a816122e4565b92915050565b600061232361231e846122b8565b611d25565b9050808382526020820190506020840283018581111561234657612345611ef9565b5b835b8181101561236f578061235b88826122fb565b845260208401935050602081019050612348565b5050509392505050565b600082601f83011261238e5761238d611caa565b5b813561239e848260208601612310565b91505092915050565b600080600080600080600080610100898b0312156123c8576123c7611ca0565b5b600089013567ffffffffffffffff8111156123e6576123e5611ca5565b5b6123f28b828c01611dc2565b985050602089013567ffffffffffffffff81111561241357612412611ca5565b5b61241f8b828c0161228a565b975050604089013567ffffffffffffffff8111156124405761243f611ca5565b5b61244c8b828c01612379565b965050606089013567ffffffffffffffff81111561246d5761246c611ca5565b5b6124798b828c01611f85565b955050608089013567ffffffffffffffff81111561249a57612499611ca5565b5b6124a68b828c01611f85565b94505060a089013567ffffffffffffffff8111156124c7576124c6611ca5565b5b6124d38b828c01611f85565b93505060c089013567ffffffffffffffff8111156124f4576124f3611ca5565b5b6125008b828c01611dc2565b92505060e089013567ffffffffffffffff81111561252157612520611ca5565b5b61252d8b828c01611dc2565b9150509295985092959890939650565b600067ffffffffffffffff82111561255857612557611cc5565b5b602082029050602081019050919050565b600080fd5b600080fd5b61257c816120b6565b811461258757600080fd5b50565b60008135905061259981612573565b92915050565b6000606082840312156125b5576125b4612569565b5b6125bf6060611d25565b9050600082013567ffffffffffffffff8111156125df576125de61256e565b5b6125eb84828501611dc2565b60008301525060206125ff848285016122fb565b60208301525060406126138482850161258a565b60408301525092915050565b600061263261262d8461253d565b611d25565b9050808382526020820190506020840283018581111561265557612654611ef9565b5b835b8181101561269c57803567ffffffffffffffff81111561267a57612679611caa565b5b808601612687898261259f565b85526020850194505050602081019050612657565b5050509392505050565b600082601f8301126126bb576126ba611caa565b5b81356126cb84826020860161261f565b91505092915050565b600080600080600060a086880312156126f0576126ef611ca0565b5b600086013567ffffffffffffffff81111561270e5761270d611ca5565b5b61271a8882890161228a565b955050602086013567ffffffffffffffff81111561273b5761273a611ca5565b5b61274788828901612379565b945050604086013567ffffffffffffffff81111561276857612767611ca5565b5b612774888289016126a6565b935050606086013567ffffffffffffffff81111561279557612794611ca5565b5b6127a188828901611f85565b925050608086013567ffffffffffffffff8111156127c2576127c1611ca5565b5b6127ce8882890161259f565b9150509295509295909350565b7f4e487b7100000000000000000000000000000000000000000000000000000000600052603260045260246000fd5b7f4e487b7100000000000000000000000000000000000000000000000000000000600052601160045260246000fd5b6000612844826120b6565b91507fffffffffffffffffffffffffffffffffffffffffffffffffffffffffffffffff82036128765761287561280a565b5b600182019050919050565b600082825260208201905092915050565b7f4d6f64756c617220696e766572736520766572696669636174696f6e2066616960008201527f6c732e0000000000000000000000000000000000000000000000000000000000602082015250565b60006128ee602383612881565b91506128f982612892565b604082019050919050565b6000602082019050818103600083015261291d816128e1565b9050919050565b600081519050919050565b600061293a82612924565b6129448185612881565b9350612954818560208601612044565b61295d81611cb4565b840191505092915050565b60006020820190508181036000830152612982818461292f565b905092915050565b7f736f6d657468696e672077726f6e672068657265000000000000000000000000600082015250565b60006129c0601483612881565b91506129cb8261298a565b602082019050919050565b600060208201905081810360008301526129ef816129b3565b9050919050565b7f616e64206865726520746f6f0000000000000000000000000000000000000000600082015250565b6000612a2c600c83612881565b9150612a37826129f6565b602082019050919050565b60006020820190508181036000830152612a5b81612a1f565b9050919050565b6000819050919050565b6000612a7782612a62565b9150612a8283612a62565b9250828202612a9081612a62565b91507f80000000000000000000000000000000000000000000000000000000000000008414600084121615612ac857612ac761280a565b5b8282058414831517612add57612adc61280a565b5b5092915050565b6000612aef826120b6565b9150612afa836120b6565b9250828201905080821115612b1257612b1161280a565b5b92915050565b6000612b23826120b6565b9150612b2e836120b6565b9250828203905081811115612b4657612b4561280a565b5b9291505056fea2646970667358221220380d66bb88e59a39952f01a49f5b953702065d81c57d9cc05e2f2fb631eb6c7864736f6c63430008110033",
  "linkReferences": {},
  "deployedLinkReferences": {}
}