{
  "_format": "hh-sol-artifact-1",
  "contractName": "RegisterUpkeeper",
  "sourceName": "contracts/RegisterUpkeeper.sol",
  "abi": [
    {
      "inputs": [
        {
          "internalType": "contract LinkTokenInterface",
          "name": "_link",
          "type": "address"
        },
        {
          "internalType": "address",
          "name": "_registrar",
          "type": "address"
        },
        {
          "internalType": "contract AutomationRegistryInterface",
          "name": "_registry",
          "type": "address"
        }
      ],
      "stateMutability": "nonpayable",
      "type": "constructor"
    },
    {
      "anonymous": false,
      "inputs": [
        {
          "indexed": false,
          "internalType": "uint256",
          "name": "upkeepID",
          "type": "uint256"
        }
      ],
      "name": "UpkeeperID",
      "type": "event"
    },
    {
      "inputs": [],
      "name": "i_link",
      "outputs": [
        {
          "internalType": "contract LinkTokenInterface",
          "name": "",
          "type": "address"
        }
      ],
      "stateMutability": "view",
      "type": "function"
    },
    {
      "inputs": [],
      "name": "i_registry",
      "outputs": [
        {
          "internalType": "contract AutomationRegistryInterface",
          "name": "",
          "type": "address"
        }
      ],
      "stateMutability": "view",
      "type": "function"
    },
    {
      "inputs": [
        {
          "internalType": "string",
          "name": "name",
          "type": "string"
        },
        {
          "internalType": "bytes",
          "name": "encryptedEmail",
          "type": "bytes"
        },
        {
          "internalType": "address",
          "name": "upkeepContract",
          "type": "address"
        },
        {
          "internalType": "uint32",
          "name": "gasLimit",
          "type": "uint32"
        },
        {
          "internalType": "address",
          "name": "adminAddress",
          "type": "address"
        },
        {
          "internalType": "bytes",
          "name": "checkData",
          "type": "bytes"
        },
        {
          "internalType": "uint96",
          "name": "amount",
          "type": "uint96"
        },
        {
          "internalType": "uint8",
          "name": "source",
          "type": "uint8"
        }
      ],
      "name": "registerAndPredictID",
      "outputs": [],
      "stateMutability": "nonpayable",
      "type": "function"
    },
    {
      "inputs": [],
      "name": "registrar",
      "outputs": [
        {
          "internalType": "address",
          "name": "",
          "type": "address"
        }
      ],
      "stateMutability": "view",
      "type": "function"
    },
    {
      "inputs": [
        {
          "internalType": "address",
          "name": "_registrar",
          "type": "address"
        }
      ],
      "name": "set_registrar",
      "outputs": [],
      "stateMutability": "nonpayable",
      "type": "function"
    },
    {
      "inputs": [
        {
          "internalType": "contract AutomationRegistryInterface",
          "name": "_registry",
          "type": "address"
        }
      ],
      "name": "set_registry",
      "outputs": [],
      "stateMutability": "nonpayable",
      "type": "function"
    }
  ],
  "bytecode": "0x60a0604052633659d66660e01b600160146101000a81548163ffffffff021916908360e01c02179055503480156200003657600080fd5b50604051620014193803806200141983398181016040528101906200005c91906200020e565b8273ffffffffffffffffffffffffffffffffffffffff1660808173ffffffffffffffffffffffffffffffffffffffff1681525050816000806101000a81548173ffffffffffffffffffffffffffffffffffffffff021916908373ffffffffffffffffffffffffffffffffffffffff16021790555080600160006101000a81548173ffffffffffffffffffffffffffffffffffffffff021916908373ffffffffffffffffffffffffffffffffffffffff1602179055505050506200026a565b600080fd5b600073ffffffffffffffffffffffffffffffffffffffff82169050919050565b60006200014c826200011f565b9050919050565b600062000160826200013f565b9050919050565b620001728162000153565b81146200017e57600080fd5b50565b600081519050620001928162000167565b92915050565b620001a3816200013f565b8114620001af57600080fd5b50565b600081519050620001c38162000198565b92915050565b6000620001d6826200013f565b9050919050565b620001e881620001c9565b8114620001f457600080fd5b50565b6000815190506200020881620001dd565b92915050565b6000806000606084860312156200022a57620002296200011a565b5b60006200023a8682870162000181565b93505060206200024d86828701620001b2565b92505060406200026086828701620001f7565b9150509250925092565b6080516111936200028660003960006103f801526111936000f3fe608060405234801561001057600080fd5b50600436106100625760003560e01c806318a9fb8a146100675780632a663606146100835780632b20e397146100a15780637d253aff146100bf5780639df590cd146100dd578063f1e300bb146100f9575b600080fd5b610081600480360381019061007c9190610772565b610115565b005b61008b6103ac565b60405161009891906108e4565b60405180910390f35b6100a96103d2565b6040516100b6919061090e565b60405180910390f35b6100c76103f6565b6040516100d4919061094a565b60405180910390f35b6100f760048036038101906100f29190610965565b61041a565b005b610113600480360381019061010e91906109d0565b61045d565b005b6000806000600160009054906101000a900473ffffffffffffffffffffffffffffffffffffffff1673ffffffffffffffffffffffffffffffffffffffff16631865c57d6040518163ffffffff1660e01b8152600401600060405180830381865afa158015610187573d6000803e3d6000fd5b505050506040513d6000823e3d601f19601f820116820180604052508101906101b09190610d49565b9250925092506000836000015163ffffffff16905060008e8e8e8e8e8e8e8e8e8e306040516020016101ec9b9a99989796959493929190610ea4565b6040516020818303038152906040529050600160009054906101000a900473ffffffffffffffffffffffffffffffffffffffff1673ffffffffffffffffffffffffffffffffffffffff16631865c57d6040518163ffffffff1660e01b8152600401600060405180830381865afa15801561026a573d6000803e3d6000fd5b505050506040513d6000823e3d601f19601f820116820180604052508101906102939190610d49565b8095508196508297505050506000856000015163ffffffff1690506001836102bb9190610f79565b810361035f5760006001436102d09190610fad565b40600160009054906101000a900473ffffffffffffffffffffffffffffffffffffffff16856040516020016103079392919061108a565b6040516020818303038152906040528051906020012060001c90507faf453283675bd1a828b70281a16c15640424afc1bcf306fb3bbdf6728692e4908160405161035191906110d6565b60405180910390a15061039a565b6040517f08c379a00000000000000000000000000000000000000000000000000000000081526004016103919061113d565b60405180910390fd5b50505050505050505050505050505050565b600160009054906101000a900473ffffffffffffffffffffffffffffffffffffffff1681565b60008054906101000a900473ffffffffffffffffffffffffffffffffffffffff1681565b7f000000000000000000000000000000000000000000000000000000000000000081565b806000806101000a81548173ffffffffffffffffffffffffffffffffffffffff021916908373ffffffffffffffffffffffffffffffffffffffff16021790555050565b80600160006101000a81548173ffffffffffffffffffffffffffffffffffffffff021916908373ffffffffffffffffffffffffffffffffffffffff16021790555050565b6000604051905090565b600080fd5b600080fd5b600080fd5b600080fd5b6000601f19601f8301169050919050565b7f4e487b7100000000000000000000000000000000000000000000000000000000600052604160045260246000fd5b610508826104bf565b810181811067ffffffffffffffff82111715610527576105266104d0565b5b80604052505050565b600061053a6104a1565b905061054682826104ff565b919050565b600067ffffffffffffffff821115610566576105656104d0565b5b61056f826104bf565b9050602081019050919050565b82818337600083830152505050565b600061059e6105998461054b565b610530565b9050828152602081018484840111156105ba576105b96104ba565b5b6105c584828561057c565b509392505050565b600082601f8301126105e2576105e16104b5565b5b81356105f284826020860161058b565b91505092915050565b600080fd5b600080fd5b60008083601f84011261061b5761061a6104b5565b5b8235905067ffffffffffffffff811115610638576106376105fb565b5b60208301915083600182028301111561065457610653610600565b5b9250929050565b600073ffffffffffffffffffffffffffffffffffffffff82169050919050565b60006106868261065b565b9050919050565b6106968161067b565b81146106a157600080fd5b50565b6000813590506106b38161068d565b92915050565b600063ffffffff82169050919050565b6106d2816106b9565b81146106dd57600080fd5b50565b6000813590506106ef816106c9565b92915050565b60006bffffffffffffffffffffffff82169050919050565b610716816106f5565b811461072157600080fd5b50565b6000813590506107338161070d565b92915050565b600060ff82169050919050565b61074f81610739565b811461075a57600080fd5b50565b60008135905061076c81610746565b92915050565b6000806000806000806000806000806101008b8d031215610796576107956104ab565b5b60008b013567ffffffffffffffff8111156107b4576107b36104b0565b5b6107c08d828e016105cd565b9a505060208b013567ffffffffffffffff8111156107e1576107e06104b0565b5b6107ed8d828e01610605565b995099505060406108008d828e016106a4565b97505060606108118d828e016106e0565b96505060806108228d828e016106a4565b95505060a08b013567ffffffffffffffff811115610843576108426104b0565b5b61084f8d828e01610605565b945094505060c06108628d828e01610724565b92505060e06108738d828e0161075d565b9150509295989b9194979a5092959850565b6000819050919050565b60006108aa6108a56108a08461065b565b610885565b61065b565b9050919050565b60006108bc8261088f565b9050919050565b60006108ce826108b1565b9050919050565b6108de816108c3565b82525050565b60006020820190506108f960008301846108d5565b92915050565b6109088161067b565b82525050565b600060208201905061092360008301846108ff565b92915050565b6000610934826108b1565b9050919050565b61094481610929565b82525050565b600060208201905061095f600083018461093b565b92915050565b60006020828403121561097b5761097a6104ab565b5b6000610989848285016106a4565b91505092915050565b600061099d8261067b565b9050919050565b6109ad81610992565b81146109b857600080fd5b50565b6000813590506109ca816109a4565b92915050565b6000602082840312156109e6576109e56104ab565b5b60006109f4848285016109bb565b91505092915050565b600080fd5b600081519050610a11816106c9565b92915050565b600081519050610a268161070d565b92915050565b6000819050919050565b610a3f81610a2c565b8114610a4a57600080fd5b50565b600081519050610a5c81610a36565b92915050565b600060808284031215610a7857610a776109fd565b5b610a826080610530565b90506000610a9284828501610a02565b6000830152506020610aa684828501610a17565b6020830152506040610aba84828501610a4d565b6040830152506060610ace84828501610a4d565b60608301525092915050565b600062ffffff82169050919050565b610af281610ada565b8114610afd57600080fd5b50565b600081519050610b0f81610ae9565b92915050565b600061ffff82169050919050565b610b2c81610b15565b8114610b3757600080fd5b50565b600081519050610b4981610b23565b92915050565b600081519050610b5e8161068d565b92915050565b60006101808284031215610b7b57610b7a6109fd565b5b610b86610180610530565b90506000610b9684828501610a02565b6000830152506020610baa84828501610a02565b6020830152506040610bbe84828501610b00565b6040830152506060610bd284828501610a02565b6060830152506080610be684828501610b00565b60808301525060a0610bfa84828501610b3a565b60a08301525060c0610c0e84828501610a17565b60c08301525060e0610c2284828501610a02565b60e083015250610100610c3784828501610a4d565b61010083015250610120610c4d84828501610a4d565b61012083015250610140610c6384828501610b4f565b61014083015250610160610c7984828501610b4f565b6101608301525092915050565b600067ffffffffffffffff821115610ca157610ca06104d0565b5b602082029050602081019050919050565b6000610cc5610cc084610c86565b610530565b90508083825260208201905060208402830185811115610ce857610ce7610600565b5b835b81811015610d115780610cfd8882610b4f565b845260208401935050602081019050610cea565b5050509392505050565b600082601f830112610d3057610d2f6104b5565b5b8151610d40848260208601610cb2565b91505092915050565b60008060006102208486031215610d6357610d626104ab565b5b6000610d7186828701610a62565b9350506080610d8286828701610b64565b92505061020084015167ffffffffffffffff811115610da457610da36104b0565b5b610db086828701610d1b565b9150509250925092565b600081519050919050565b600082825260208201905092915050565b60005b83811015610df4578082015181840152602081019050610dd9565b60008484015250505050565b6000610e0b82610dba565b610e158185610dc5565b9350610e25818560208601610dd6565b610e2e816104bf565b840191505092915050565b600082825260208201905092915050565b6000610e568385610e39565b9350610e6383858461057c565b610e6c836104bf565b840190509392505050565b610e80816106b9565b82525050565b610e8f816106f5565b82525050565b610e9e81610739565b82525050565b6000610120820190508181036000830152610ebf818e610e00565b90508181036020830152610ed4818c8e610e4a565b9050610ee3604083018b6108ff565b610ef0606083018a610e77565b610efd60808301896108ff565b81810360a0830152610f10818789610e4a565b9050610f1f60c0830186610e86565b610f2c60e0830185610e95565b610f3a6101008301846108ff565b9c9b505050505050505050505050565b7f4e487b7100000000000000000000000000000000000000000000000000000000600052601160045260246000fd5b6000610f8482610a2c565b9150610f8f83610a2c565b9250828201905080821115610fa757610fa6610f4a565b5b92915050565b6000610fb882610a2c565b9150610fc383610a2c565b9250828203905081811115610fdb57610fda610f4a565b5b92915050565b6000819050919050565b6000819050919050565b61100661100182610fe1565b610feb565b82525050565b60008160601b9050919050565b60006110248261100c565b9050919050565b600061103682611019565b9050919050565b61104e6110498261067b565b61102b565b82525050565b60008160e01b9050919050565b600061106c82611054565b9050919050565b61108461107f826106b9565b611061565b82525050565b60006110968286610ff5565b6020820191506110a6828561103d565b6014820191506110b68284611073565b600482019150819050949350505050565b6110d081610a2c565b82525050565b60006020820190506110eb60008301846110c7565b92915050565b7f6175746f2d617070726f76652064697361626c65640000000000000000000000600082015250565b6000611127601583610dc5565b9150611132826110f1565b602082019050919050565b600060208201905081810360008301526111568161111a565b905091905056fea26469706673582212201d2514096f018d250368ddc5c0dad84c106c619701f081255957bf1436e59f3c64736f6c63430008110033",
  "linkReferences": {},
  "deployedLinkReferences": {}
}