{
  "_format": "hh-sol-artifact-1",
  "contractName": "UpkeepIDConsumerExample",
  "sourceName": "contracts/UpkeeperRegistar.sol",
  "abi": [
    {
      "inputs": [
        {
          "internalType": "contract LinkTokenInterface",
          "name": "_link",
          "type": "address"
        },
        {
          "internalType": "address",
          "name": "_registrar",
          "type": "address"
        },
        {
          "internalType": "contract AutomationRegistryInterface",
          "name": "_registry",
          "type": "address"
        }
      ],
      "stateMutability": "nonpayable",
      "type": "constructor"
    },
    {
      "anonymous": false,
      "inputs": [
        {
          "indexed": false,
          "internalType": "uint256",
          "name": "upkeepID",
          "type": "uint256"
        }
      ],
      "name": "UpkeepID",
      "type": "event"
    },
    {
      "inputs": [],
      "name": "i_link",
      "outputs": [
        {
          "internalType": "contract LinkTokenInterface",
          "name": "",
          "type": "address"
        }
      ],
      "stateMutability": "view",
      "type": "function"
    },
    {
      "inputs": [],
      "name": "i_registry",
      "outputs": [
        {
          "internalType": "contract AutomationRegistryInterface",
          "name": "",
          "type": "address"
        }
      ],
      "stateMutability": "view",
      "type": "function"
    },
    {
      "inputs": [
        {
          "internalType": "string",
          "name": "name",
          "type": "string"
        },
        {
          "internalType": "bytes",
          "name": "encryptedEmail",
          "type": "bytes"
        },
        {
          "internalType": "address",
          "name": "upkeepContract",
          "type": "address"
        },
        {
          "internalType": "uint32",
          "name": "gasLimit",
          "type": "uint32"
        },
        {
          "internalType": "address",
          "name": "adminAddress",
          "type": "address"
        },
        {
          "internalType": "bytes",
          "name": "checkData",
          "type": "bytes"
        },
        {
          "internalType": "uint96",
          "name": "amount",
          "type": "uint96"
        },
        {
          "internalType": "uint8",
          "name": "source",
          "type": "uint8"
        }
      ],
      "name": "registerAndPredictID",
      "outputs": [
        {
          "internalType": "uint256",
          "name": "",
          "type": "uint256"
        }
      ],
      "stateMutability": "nonpayable",
      "type": "function"
    },
    {
      "inputs": [],
      "name": "registrar",
      "outputs": [
        {
          "internalType": "address",
          "name": "",
          "type": "address"
        }
      ],
      "stateMutability": "view",
      "type": "function"
    }
  ],
  "bytecode": "0x60e0604052633659d66660e01b6000806101000a81548163ffffffff021916908360e01c02179055503480156200003557600080fd5b50604051620015923803806200159283398181016040528101906200005b9190620001f4565b8273ffffffffffffffffffffffffffffffffffffffff1660808173ffffffffffffffffffffffffffffffffffffffff16815250508173ffffffffffffffffffffffffffffffffffffffff1660a08173ffffffffffffffffffffffffffffffffffffffff16815250508073ffffffffffffffffffffffffffffffffffffffff1660c08173ffffffffffffffffffffffffffffffffffffffff168152505050505062000250565b600080fd5b600073ffffffffffffffffffffffffffffffffffffffff82169050919050565b6000620001328262000105565b9050919050565b6000620001468262000125565b9050919050565b620001588162000139565b81146200016457600080fd5b50565b60008151905062000178816200014d565b92915050565b620001898162000125565b81146200019557600080fd5b50565b600081519050620001a9816200017e565b92915050565b6000620001bc8262000125565b9050919050565b620001ce81620001af565b8114620001da57600080fd5b50565b600081519050620001ee81620001c3565b92915050565b60008060006060848603121562000210576200020f62000100565b5b6000620002208682870162000167565b9350506020620002338682870162000198565b92505060406200024686828701620001dd565b9150509250925092565b60805160a05160c0516112f0620002a26000396000818160e3015281816102b301528181610385015261046301526000818161020001526104870152600081816101c401526104ab01526112f06000f3fe608060405234801561001057600080fd5b506004361061004c5760003560e01c806318a9fb8a146100515780632a663606146100815780632b20e3971461009f5780637d253aff146100bd575b600080fd5b61006b6004803603810190610066919061079e565b6100db565b60405161007891906108ca565b60405180910390f35b610089610461565b6040516100969190610944565b60405180910390f35b6100a7610485565b6040516100b4919061096e565b60405180910390f35b6100c56104a9565b6040516100d291906109aa565b60405180910390f35b6000806000807f000000000000000000000000000000000000000000000000000000000000000073ffffffffffffffffffffffffffffffffffffffff16631865c57d6040518163ffffffff1660e01b8152600401600060405180830381865afa15801561014c573d6000803e3d6000fd5b505050506040513d6000823e3d601f19601f820116820180604052508101906101759190610d07565b9250925092506000836000015163ffffffff16905060008f8f8f8f8f8f8f8f8f8f306040516020016101b19b9a99989796959493929190610e62565b60405160208183030381529060405290507f000000000000000000000000000000000000000000000000000000000000000073ffffffffffffffffffffffffffffffffffffffff16634000aea07f00000000000000000000000000000000000000000000000000000000000000008a60008054906101000a900460e01b85604051602001610240929190610f9c565b6040516020818303038152906040526040518463ffffffff1660e01b815260040161026d9392919061102e565b6020604051808303816000875af115801561028c573d6000803e3d6000fd5b505050506040513d601f19601f820116820180604052508101906102b091906110a4565b507f000000000000000000000000000000000000000000000000000000000000000073ffffffffffffffffffffffffffffffffffffffff16631865c57d6040518163ffffffff1660e01b8152600401600060405180830381865afa15801561031c573d6000803e3d6000fd5b505050506040513d6000823e3d601f19601f820116820180604052508101906103459190610d07565b8095508196508297505050506000856000015163ffffffff16905060018361036d9190611100565b81036104185760006001436103829190611134565b407f0000000000000000000000000000000000000000000000000000000000000000856040516020016103b793929190611211565b6040516020818303038152906040528051906020012060001c90507f63410b84334e1011f4c6e94909882bd236426deb3c6a08c13ec54cedad72d43c8160405161040191906108ca565b60405180910390a180975050505050505050610453565b6040517f08c379a000000000000000000000000000000000000000000000000000000000815260040161044a9061129a565b60405180910390fd5b9a9950505050505050505050565b7f000000000000000000000000000000000000000000000000000000000000000081565b7f000000000000000000000000000000000000000000000000000000000000000081565b7f000000000000000000000000000000000000000000000000000000000000000081565b6000604051905090565b600080fd5b600080fd5b600080fd5b600080fd5b6000601f19601f8301169050919050565b7f4e487b7100000000000000000000000000000000000000000000000000000000600052604160045260246000fd5b610534826104eb565b810181811067ffffffffffffffff82111715610553576105526104fc565b5b80604052505050565b60006105666104cd565b9050610572828261052b565b919050565b600067ffffffffffffffff821115610592576105916104fc565b5b61059b826104eb565b9050602081019050919050565b82818337600083830152505050565b60006105ca6105c584610577565b61055c565b9050828152602081018484840111156105e6576105e56104e6565b5b6105f18482856105a8565b509392505050565b600082601f83011261060e5761060d6104e1565b5b813561061e8482602086016105b7565b91505092915050565b600080fd5b600080fd5b60008083601f840112610647576106466104e1565b5b8235905067ffffffffffffffff81111561066457610663610627565b5b6020830191508360018202830111156106805761067f61062c565b5b9250929050565b600073ffffffffffffffffffffffffffffffffffffffff82169050919050565b60006106b282610687565b9050919050565b6106c2816106a7565b81146106cd57600080fd5b50565b6000813590506106df816106b9565b92915050565b600063ffffffff82169050919050565b6106fe816106e5565b811461070957600080fd5b50565b60008135905061071b816106f5565b92915050565b60006bffffffffffffffffffffffff82169050919050565b61074281610721565b811461074d57600080fd5b50565b60008135905061075f81610739565b92915050565b600060ff82169050919050565b61077b81610765565b811461078657600080fd5b50565b60008135905061079881610772565b92915050565b6000806000806000806000806000806101008b8d0312156107c2576107c16104d7565b5b60008b013567ffffffffffffffff8111156107e0576107df6104dc565b5b6107ec8d828e016105f9565b9a505060208b013567ffffffffffffffff81111561080d5761080c6104dc565b5b6108198d828e01610631565b9950995050604061082c8d828e016106d0565b975050606061083d8d828e0161070c565b965050608061084e8d828e016106d0565b95505060a08b013567ffffffffffffffff81111561086f5761086e6104dc565b5b61087b8d828e01610631565b945094505060c061088e8d828e01610750565b92505060e061089f8d828e01610789565b9150509295989b9194979a5092959850565b6000819050919050565b6108c4816108b1565b82525050565b60006020820190506108df60008301846108bb565b92915050565b6000819050919050565b600061090a61090561090084610687565b6108e5565b610687565b9050919050565b600061091c826108ef565b9050919050565b600061092e82610911565b9050919050565b61093e81610923565b82525050565b60006020820190506109596000830184610935565b92915050565b610968816106a7565b82525050565b6000602082019050610983600083018461095f565b92915050565b600061099482610911565b9050919050565b6109a481610989565b82525050565b60006020820190506109bf600083018461099b565b92915050565b600080fd5b6000815190506109d9816106f5565b92915050565b6000815190506109ee81610739565b92915050565b6109fd816108b1565b8114610a0857600080fd5b50565b600081519050610a1a816109f4565b92915050565b600060808284031215610a3657610a356109c5565b5b610a40608061055c565b90506000610a50848285016109ca565b6000830152506020610a64848285016109df565b6020830152506040610a7884828501610a0b565b6040830152506060610a8c84828501610a0b565b60608301525092915050565b600062ffffff82169050919050565b610ab081610a98565b8114610abb57600080fd5b50565b600081519050610acd81610aa7565b92915050565b600061ffff82169050919050565b610aea81610ad3565b8114610af557600080fd5b50565b600081519050610b0781610ae1565b92915050565b600081519050610b1c816106b9565b92915050565b60006101808284031215610b3957610b386109c5565b5b610b4461018061055c565b90506000610b54848285016109ca565b6000830152506020610b68848285016109ca565b6020830152506040610b7c84828501610abe565b6040830152506060610b90848285016109ca565b6060830152506080610ba484828501610abe565b60808301525060a0610bb884828501610af8565b60a08301525060c0610bcc848285016109df565b60c08301525060e0610be0848285016109ca565b60e083015250610100610bf584828501610a0b565b61010083015250610120610c0b84828501610a0b565b61012083015250610140610c2184828501610b0d565b61014083015250610160610c3784828501610b0d565b6101608301525092915050565b600067ffffffffffffffff821115610c5f57610c5e6104fc565b5b602082029050602081019050919050565b6000610c83610c7e84610c44565b61055c565b90508083825260208201905060208402830185811115610ca657610ca561062c565b5b835b81811015610ccf5780610cbb8882610b0d565b845260208401935050602081019050610ca8565b5050509392505050565b600082601f830112610cee57610ced6104e1565b5b8151610cfe848260208601610c70565b91505092915050565b60008060006102208486031215610d2157610d206104d7565b5b6000610d2f86828701610a20565b9350506080610d4086828701610b22565b92505061020084015167ffffffffffffffff811115610d6257610d616104dc565b5b610d6e86828701610cd9565b9150509250925092565b600081519050919050565b600082825260208201905092915050565b60005b83811015610db2578082015181840152602081019050610d97565b60008484015250505050565b6000610dc982610d78565b610dd38185610d83565b9350610de3818560208601610d94565b610dec816104eb565b840191505092915050565b600082825260208201905092915050565b6000610e148385610df7565b9350610e218385846105a8565b610e2a836104eb565b840190509392505050565b610e3e816106e5565b82525050565b610e4d81610721565b82525050565b610e5c81610765565b82525050565b6000610120820190508181036000830152610e7d818e610dbe565b90508181036020830152610e92818c8e610e08565b9050610ea1604083018b61095f565b610eae606083018a610e35565b610ebb608083018961095f565b81810360a0830152610ece818789610e08565b9050610edd60c0830186610e44565b610eea60e0830185610e53565b610ef861010083018461095f565b9c9b505050505050505050505050565b60007fffffffff0000000000000000000000000000000000000000000000000000000082169050919050565b6000819050919050565b610f4f610f4a82610f08565b610f34565b82525050565b600081519050919050565b600081905092915050565b6000610f7682610f55565b610f808185610f60565b9350610f90818560208601610d94565b80840191505092915050565b6000610fa88285610f3e565b600482019150610fb88284610f6b565b91508190509392505050565b6000610fdf610fda610fd584610721565b6108e5565b6108b1565b9050919050565b610fef81610fc4565b82525050565b600061100082610f55565b61100a8185610df7565b935061101a818560208601610d94565b611023816104eb565b840191505092915050565b6000606082019050611043600083018661095f565b6110506020830185610fe6565b81810360408301526110628184610ff5565b9050949350505050565b60008115159050919050565b6110818161106c565b811461108c57600080fd5b50565b60008151905061109e81611078565b92915050565b6000602082840312156110ba576110b96104d7565b5b60006110c88482850161108f565b91505092915050565b7f4e487b7100000000000000000000000000000000000000000000000000000000600052601160045260246000fd5b600061110b826108b1565b9150611116836108b1565b925082820190508082111561112e5761112d6110d1565b5b92915050565b600061113f826108b1565b915061114a836108b1565b9250828203905081811115611162576111616110d1565b5b92915050565b6000819050919050565b6000819050919050565b61118d61118882611168565b611172565b82525050565b60008160601b9050919050565b60006111ab82611193565b9050919050565b60006111bd826111a0565b9050919050565b6111d56111d0826106a7565b6111b2565b82525050565b60008160e01b9050919050565b60006111f3826111db565b9050919050565b61120b611206826106e5565b6111e8565b82525050565b600061121d828661117c565b60208201915061122d82856111c4565b60148201915061123d82846111fa565b600482019150819050949350505050565b7f6175746f2d617070726f76652064697361626c65640000000000000000000000600082015250565b6000611284601583610d83565b915061128f8261124e565b602082019050919050565b600060208201905081810360008301526112b381611277565b905091905056fea2646970667358221220334f3aab8d5021fa8005fc1bf4a29922032db07b2880e602a2adaca1869ed69764736f6c63430008100033",
  "linkReferences": {},
  "deployedLinkReferences": {}
}