{
  "_format": "hh-sol-artifact-1",
  "contractName": "VerifierZKPMembership",
  "sourceName": "contracts/VerifierZKPMembership.sol",
  "abi": [
    {
      "inputs": [
        {
          "internalType": "address",
          "name": "_forwarder",
          "type": "address"
        }
      ],
      "stateMutability": "nonpayable",
      "type": "constructor"
    },
    {
      "anonymous": false,
      "inputs": [
        {
          "indexed": false,
          "internalType": "bool",
          "name": "",
          "type": "bool"
        }
      ],
      "name": "AuthentificationStatus",
      "type": "event"
    },
    {
      "inputs": [],
      "name": "getTrustedForwarder",
      "outputs": [
        {
          "internalType": "address",
          "name": "forwarder",
          "type": "address"
        }
      ],
      "stateMutability": "view",
      "type": "function"
    },
    {
      "inputs": [
        {
          "internalType": "address",
          "name": "forwarder",
          "type": "address"
        }
      ],
      "name": "isTrustedForwarder",
      "outputs": [
        {
          "internalType": "bool",
          "name": "",
          "type": "bool"
        }
      ],
      "stateMutability": "view",
      "type": "function"
    },
    {
      "inputs": [
        {
          "components": [
            {
              "components": [
                {
                  "internalType": "uint256[2]",
                  "name": "X",
                  "type": "uint256[2]"
                },
                {
                  "internalType": "uint256[2]",
                  "name": "Y",
                  "type": "uint256[2]"
                }
              ],
              "internalType": "struct Utils.G2Point",
              "name": "beta",
              "type": "tuple"
            },
            {
              "components": [
                {
                  "internalType": "uint256",
                  "name": "X",
                  "type": "uint256"
                },
                {
                  "internalType": "uint256",
                  "name": "Y",
                  "type": "uint256"
                }
              ],
              "internalType": "struct Utils.G1Point",
              "name": "alpha",
              "type": "tuple"
            },
            {
              "components": [
                {
                  "internalType": "uint256[2]",
                  "name": "X",
                  "type": "uint256[2]"
                },
                {
                  "internalType": "uint256[2]",
                  "name": "Y",
                  "type": "uint256[2]"
                }
              ],
              "internalType": "struct Utils.G2Point",
              "name": "gamma",
              "type": "tuple"
            },
            {
              "components": [
                {
                  "internalType": "uint256[2]",
                  "name": "X",
                  "type": "uint256[2]"
                },
                {
                  "internalType": "uint256[2]",
                  "name": "Y",
                  "type": "uint256[2]"
                }
              ],
              "internalType": "struct Utils.G2Point",
              "name": "delta",
              "type": "tuple"
            },
            {
              "components": [
                {
                  "internalType": "uint256",
                  "name": "X",
                  "type": "uint256"
                },
                {
                  "internalType": "uint256",
                  "name": "Y",
                  "type": "uint256"
                }
              ],
              "internalType": "struct Utils.G1Point[]",
              "name": "gamma_abc",
              "type": "tuple[]"
            }
          ],
          "internalType": "struct Utils.VerifyingKey",
          "name": "vk",
          "type": "tuple"
        },
        {
          "components": [
            {
              "components": [
                {
                  "internalType": "uint256",
                  "name": "X",
                  "type": "uint256"
                },
                {
                  "internalType": "uint256",
                  "name": "Y",
                  "type": "uint256"
                }
              ],
              "internalType": "struct Utils.G1Point",
              "name": "a",
              "type": "tuple"
            },
            {
              "components": [
                {
                  "internalType": "uint256[2]",
                  "name": "X",
                  "type": "uint256[2]"
                },
                {
                  "internalType": "uint256[2]",
                  "name": "Y",
                  "type": "uint256[2]"
                }
              ],
              "internalType": "struct Utils.G2Point",
              "name": "b",
              "type": "tuple"
            },
            {
              "components": [
                {
                  "internalType": "uint256",
                  "name": "X",
                  "type": "uint256"
                },
                {
                  "internalType": "uint256",
                  "name": "Y",
                  "type": "uint256"
                }
              ],
              "internalType": "struct Utils.G1Point",
              "name": "c",
              "type": "tuple"
            }
          ],
          "internalType": "struct Utils.Proof",
          "name": "proof",
          "type": "tuple"
        },
        {
          "internalType": "uint256[2]",
          "name": "input",
          "type": "uint256[2]"
        }
      ],
      "name": "verifyTx",
      "outputs": [
        {
          "internalType": "bool",
          "name": "r",
          "type": "bool"
        }
      ],
      "stateMutability": "nonpayable",
      "type": "function"
    }
  ],
  "bytecode": "0x60806040523480156200001157600080fd5b5060405162001497380380620014978339818101604052810190620000379190620000fc565b62000048816200004f60201b60201c565b506200012e565b806000806101000a81548173ffffffffffffffffffffffffffffffffffffffff021916908373ffffffffffffffffffffffffffffffffffffffff16021790555050565b600080fd5b600073ffffffffffffffffffffffffffffffffffffffff82169050919050565b6000620000c48262000097565b9050919050565b620000d681620000b7565b8114620000e257600080fd5b50565b600081519050620000f681620000cb565b92915050565b60006020828403121562000115576200011462000092565b5b60006200012584828501620000e5565b91505092915050565b611359806200013e6000396000f3fe608060405234801561001057600080fd5b50600436106100415760003560e01c80635085cff414610046578063572b6c0514610076578063ce1b815f146100a6575b600080fd5b610060600480360381019061005b9190611017565b6100c4565b60405161006d91906110a3565b60405180910390f35b610090600480360381019061008b919061111c565b610203565b60405161009d91906110a3565b60405180910390f35b6100ae61025c565b6040516100bb9190611158565b60405180910390f35b600080600267ffffffffffffffff8111156100e2576100e1610c33565b5b6040519080825280602002602001820160405280156101105781602001602082028036833780820191505090505b50905060005b60028110156101695783816002811061013257610131611173565b5b602002015182828151811061014a57610149611173565b5b6020026020010181815250508080610161906111d1565b915050610116565b506000610177868387610285565b036101be577fa589151d4dc88ac2a10c6e0cd8aad42f7af34723f2b7468a1ad8267968dd648a60016040516101ac91906110a3565b60405180910390a160019150506101fc565b7fa589151d4dc88ac2a10c6e0cd8aad42f7af34723f2b7468a1ad8267968dd648a60006040516101ee91906110a3565b60405180910390a160009150505b9392505050565b60008060009054906101000a900473ffffffffffffffffffffffffffffffffffffffff1673ffffffffffffffffffffffffffffffffffffffff168273ffffffffffffffffffffffffffffffffffffffff16149050919050565b60008060009054906101000a900473ffffffffffffffffffffffffffffffffffffffff16905090565b6000807f30644e72e131a029b85045b68181585d2833e84879b9709143e1f593f00000019050846080015151600185516102bf9190611219565b146102c957600080fd5b60006040518060400160405280600081526020016000815250905060005b8551811015610382578286828151811061030457610303611173565b5b60200260200101511061031657600080fd5b61036d82610368896080015160018561032f9190611219565b815181106103405761033f611173565b5b602002602001015189858151811061035b5761035a611173565b5b602002602001015161040f565b6104b1565b9150808061037a906111d1565b9150506102e7565b506103ac81876080015160008151811061039f5761039e611173565b5b60200260200101516104b1565b90506103f2846000015185602001516103c484610579565b89604001516103d68960400151610579565b8b606001516103e88d60200151610579565b8d6000015161061e565b61040157600192505050610408565b6000925050505b9392505050565b610417610b41565b61041f610b5b565b83600001518160006003811061043857610437611173565b5b60200201818152505083602001518160016003811061045a57610459611173565b5b602002018181525050828160026003811061047857610477611173565b5b602002018181525050600060608360808460076107d05a03fa9050806000810361049e57fe5b50806104a957600080fd5b505092915050565b6104b9610b41565b6104c1610b7d565b8360000151816000600481106104da576104d9611173565b5b6020020181815250508360200151816001600481106104fc576104fb611173565b5b60200201818152505082600001518160026004811061051e5761051d611173565b5b6020020181815250508260200151816003600481106105405761053f611173565b5b602002018181525050600060608360c08460066107d05a03fa9050806000810361056657fe5b508061057157600080fd5b505092915050565b610581610b41565b60007f30644e72e131a029b85045b68181585d97816a916871ca8d3c208c16d87cfd479050600083600001511480156105be575060008360200151145b156105e2576040518060400160405280600081526020016000815250915050610619565b604051806040016040528084600001518152602001828560200151610607919061127c565b8361061291906112ad565b8152509150505b919050565b600080600467ffffffffffffffff81111561063c5761063b610c33565b5b60405190808252806020026020018201604052801561067557816020015b610662610b41565b81526020019060019003908161065a5790505b5090506000600467ffffffffffffffff81111561069557610694610c33565b5b6040519080825280602002602001820160405280156106ce57816020015b6106bb610b9f565b8152602001906001900390816106b35790505b5090508a826000815181106106e6576106e5611173565b5b6020026020010181905250888260018151811061070657610705611173565b5b6020026020010181905250868260028151811061072657610725611173565b5b6020026020010181905250848260038151811061074657610745611173565b5b6020026020010181905250898160008151811061076657610765611173565b5b6020026020010181905250878160018151811061078657610785611173565b5b602002602001018190525085816002815181106107a6576107a5611173565b5b602002602001018190525083816003815181106107c6576107c5611173565b5b60200260200101819052506107db82826107eb565b9250505098975050505050505050565b600081518351146107fb57600080fd5b600083519050600060068261081091906112e1565b905060008167ffffffffffffffff81111561082e5761082d610c33565b5b60405190808252806020026020018201604052801561085c5781602001602082028036833780820191505090505b50905060005b83811015610ae15786818151811061087d5761087c611173565b5b60200260200101516000015182600060068461089991906112e1565b6108a39190611219565b815181106108b4576108b3611173565b5b6020026020010181815250508681815181106108d3576108d2611173565b5b6020026020010151602001518260016006846108ef91906112e1565b6108f99190611219565b8151811061090a57610909611173565b5b60200260200101818152505085818151811061092957610928611173565b5b60200260200101516000015160016002811061094857610947611173565b5b602002015182600260068461095d91906112e1565b6109679190611219565b8151811061097857610977611173565b5b60200260200101818152505085818151811061099757610996611173565b5b6020026020010151600001516000600281106109b6576109b5611173565b5b60200201518260036006846109cb91906112e1565b6109d59190611219565b815181106109e6576109e5611173565b5b602002602001018181525050858181518110610a0557610a04611173565b5b602002602001015160200151600160028110610a2457610a23611173565b5b6020020151826004600684610a3991906112e1565b610a439190611219565b81518110610a5457610a53611173565b5b602002602001018181525050858181518110610a7357610a72611173565b5b602002602001015160200151600060028110610a9257610a91611173565b5b6020020151826005600684610aa791906112e1565b610ab19190611219565b81518110610ac257610ac1611173565b5b6020026020010181815250508080610ad9906111d1565b915050610862565b50610aea610bc5565b6000602082602086026020860160086107d05a03fa90508060008103610b0c57fe5b5080610b1757600080fd5b600082600060018110610b2d57610b2c611173565b5b602002015114159550505050505092915050565b604051806040016040528060008152602001600081525090565b6040518060600160405280600390602082028036833780820191505090505090565b6040518060800160405280600490602082028036833780820191505090505090565b6040518060400160405280610bb2610be7565b8152602001610bbf610be7565b81525090565b6040518060200160405280600190602082028036833780820191505090505090565b6040518060400160405280600290602082028036833780820191505090505090565b6000604051905090565b600080fd5b600080fd5b600080fd5b6000601f19601f8301169050919050565b7f4e487b7100000000000000000000000000000000000000000000000000000000600052604160045260246000fd5b610c6b82610c22565b810181811067ffffffffffffffff82111715610c8a57610c89610c33565b5b80604052505050565b6000610c9d610c09565b9050610ca98282610c62565b919050565b600080fd5b600080fd5b600067ffffffffffffffff821115610cd357610cd2610c33565b5b602082029050919050565b600080fd5b6000819050919050565b610cf681610ce3565b8114610d0157600080fd5b50565b600081359050610d1381610ced565b92915050565b6000610d2c610d2784610cb8565b610c93565b90508060208402830185811115610d4657610d45610cde565b5b835b81811015610d6f5780610d5b8882610d04565b845260208401935050602081019050610d48565b5050509392505050565b600082601f830112610d8e57610d8d610cb3565b5b6002610d9b848285610d19565b91505092915050565b600060808284031215610dba57610db9610c1d565b5b610dc46040610c93565b90506000610dd484828501610d79565b6000830152506040610de884828501610d79565b60208301525092915050565b600060408284031215610e0a57610e09610c1d565b5b610e146040610c93565b90506000610e2484828501610d04565b6000830152506020610e3884828501610d04565b60208301525092915050565b600067ffffffffffffffff821115610e5f57610e5e610c33565b5b602082029050602081019050919050565b6000610e83610e7e84610e44565b610c93565b90508083825260208201905060408402830185811115610ea657610ea5610cde565b5b835b81811015610ecf5780610ebb8882610df4565b845260208401935050604081019050610ea8565b5050509392505050565b600082601f830112610eee57610eed610cb3565b5b8135610efe848260208601610e70565b91505092915050565b60006101e08284031215610f1e57610f1d610c1d565b5b610f2860a0610c93565b90506000610f3884828501610da4565b6000830152506080610f4c84828501610df4565b60208301525060c0610f6084828501610da4565b604083015250610140610f7584828501610da4565b6060830152506101c082013567ffffffffffffffff811115610f9a57610f99610cae565b5b610fa684828501610ed9565b60808301525092915050565b60006101008284031215610fc957610fc8610c1d565b5b610fd36060610c93565b90506000610fe384828501610df4565b6000830152506040610ff784828501610da4565b60208301525060c061100b84828501610df4565b60408301525092915050565b6000806000610160848603121561103157611030610c13565b5b600084013567ffffffffffffffff81111561104f5761104e610c18565b5b61105b86828701610f07565b935050602061106c86828701610fb2565b92505061012061107e86828701610d79565b9150509250925092565b60008115159050919050565b61109d81611088565b82525050565b60006020820190506110b86000830184611094565b92915050565b600073ffffffffffffffffffffffffffffffffffffffff82169050919050565b60006110e9826110be565b9050919050565b6110f9816110de565b811461110457600080fd5b50565b600081359050611116816110f0565b92915050565b60006020828403121561113257611131610c13565b5b600061114084828501611107565b91505092915050565b611152816110de565b82525050565b600060208201905061116d6000830184611149565b92915050565b7f4e487b7100000000000000000000000000000000000000000000000000000000600052603260045260246000fd5b7f4e487b7100000000000000000000000000000000000000000000000000000000600052601160045260246000fd5b60006111dc82610ce3565b91507fffffffffffffffffffffffffffffffffffffffffffffffffffffffffffffffff820361120e5761120d6111a2565b5b600182019050919050565b600061122482610ce3565b915061122f83610ce3565b9250828201905080821115611247576112466111a2565b5b92915050565b7f4e487b7100000000000000000000000000000000000000000000000000000000600052601260045260246000fd5b600061128782610ce3565b915061129283610ce3565b9250826112a2576112a161124d565b5b828206905092915050565b60006112b882610ce3565b91506112c383610ce3565b92508282039050818111156112db576112da6111a2565b5b92915050565b60006112ec82610ce3565b91506112f783610ce3565b925082820261130581610ce3565b9150828204841483151761131c5761131b6111a2565b5b509291505056fea264697066735822122002e53a2cbf175a389e3141b964df5e6edeb517486f9b7c3d55edecc73c16c4a064736f6c63430008110033",
  "linkReferences": {},
  "deployedLinkReferences": {}
}