{
  "_format": "hh-sol-artifact-1",
  "contractName": "Verifier",
  "sourceName": "contracts/Verifier.sol",
  "abi": [
    {
      "inputs": [
        {
          "internalType": "address",
          "name": "_forwarder",
          "type": "address"
        }
      ],
      "stateMutability": "nonpayable",
      "type": "constructor"
    },
    {
      "anonymous": false,
      "inputs": [
        {
          "indexed": false,
          "internalType": "bool",
          "name": "",
          "type": "bool"
        }
      ],
      "name": "AuthentificationStatus",
      "type": "event"
    },
    {
      "inputs": [],
      "name": "getTrustedForwarder",
      "outputs": [
        {
          "internalType": "address",
          "name": "forwarder",
          "type": "address"
        }
      ],
      "stateMutability": "view",
      "type": "function"
    },
    {
      "inputs": [
        {
          "internalType": "address",
          "name": "forwarder",
          "type": "address"
        }
      ],
      "name": "isTrustedForwarder",
      "outputs": [
        {
          "internalType": "bool",
          "name": "",
          "type": "bool"
        }
      ],
      "stateMutability": "view",
      "type": "function"
    },
    {
      "inputs": [
        {
          "components": [
            {
              "components": [
                {
                  "internalType": "uint256",
                  "name": "X",
                  "type": "uint256"
                },
                {
                  "internalType": "uint256",
                  "name": "Y",
                  "type": "uint256"
                }
              ],
              "internalType": "struct Utils.G1Point",
              "name": "a",
              "type": "tuple"
            },
            {
              "components": [
                {
                  "internalType": "uint256[2]",
                  "name": "X",
                  "type": "uint256[2]"
                },
                {
                  "internalType": "uint256[2]",
                  "name": "Y",
                  "type": "uint256[2]"
                }
              ],
              "internalType": "struct Utils.G2Point",
              "name": "b",
              "type": "tuple"
            },
            {
              "components": [
                {
                  "internalType": "uint256",
                  "name": "X",
                  "type": "uint256"
                },
                {
                  "internalType": "uint256",
                  "name": "Y",
                  "type": "uint256"
                }
              ],
              "internalType": "struct Utils.G1Point",
              "name": "c",
              "type": "tuple"
            }
          ],
          "internalType": "struct Utils.Proof",
          "name": "proof",
          "type": "tuple"
        },
        {
          "internalType": "uint256[2]",
          "name": "input",
          "type": "uint256[2]"
        }
      ],
      "name": "verifyTx",
      "outputs": [
        {
          "internalType": "bool",
          "name": "r",
          "type": "bool"
        }
      ],
      "stateMutability": "nonpayable",
      "type": "function"
    }
  ],
  "bytecode": "0x60806040523480156200001157600080fd5b50604051620017d6380380620017d68339818101604052810190620000379190620000fc565b62000048816200004f60201b60201c565b506200012e565b806000806101000a81548173ffffffffffffffffffffffffffffffffffffffff021916908373ffffffffffffffffffffffffffffffffffffffff16021790555050565b600080fd5b600073ffffffffffffffffffffffffffffffffffffffff82169050919050565b6000620000c48262000097565b9050919050565b620000d681620000b7565b8114620000e257600080fd5b50565b600081519050620000f681620000cb565b92915050565b60006020828403121562000115576200011462000092565b5b60006200012584828501620000e5565b91505092915050565b611698806200013e6000396000f3fe608060405234801561001057600080fd5b50600436106100415760003560e01c806343cd76fc14610046578063572b6c0514610076578063ce1b815f146100a6575b600080fd5b610060600480360381019061005b919061136d565b6100c4565b60405161006d91906113ca565b60405180910390f35b610090600480360381019061008b9190611443565b610201565b60405161009d91906113ca565b60405180910390f35b6100ae61025a565b6040516100bb919061147f565b60405180910390f35b600080600267ffffffffffffffff8111156100e2576100e16110fc565b5b6040519080825280602002602001820160405280156101105781602001602082028036833780820191505090505b50905060005b6002811015610169578381600281106101325761013161149a565b5b602002015182828151811061014a5761014961149a565b5b6020026020010181815250508080610161906114f8565b915050610116565b5060006101768286610283565b036101bd577fa589151d4dc88ac2a10c6e0cd8aad42f7af34723f2b7468a1ad8267968dd648a60016040516101ab91906113ca565b60405180910390a160019150506101fb565b7fa589151d4dc88ac2a10c6e0cd8aad42f7af34723f2b7468a1ad8267968dd648a60006040516101ed91906113ca565b60405180910390a160009150505b92915050565b60008060009054906101000a900473ffffffffffffffffffffffffffffffffffffffff1673ffffffffffffffffffffffffffffffffffffffff168273ffffffffffffffffffffffffffffffffffffffff16149050919050565b60008060009054906101000a900473ffffffffffffffffffffffffffffffffffffffff16905090565b6000807f30644e72e131a029b85045b68181585d2833e84879b9709143e1f593f0000001905060006102b361041a565b9050806080015151600186516102c99190611540565b146102d357600080fd5b60006040518060400160405280600081526020016000815250905060005b865181101561038c578387828151811061030e5761030d61149a565b5b60200260200101511061032057600080fd5b6103778261037285608001516001856103399190611540565b8151811061034a5761034961149a565b5b60200260200101518a85815181106103655761036461149a565b5b6020026020010151610896565b610938565b91508080610384906114f8565b9150506102f1565b506103b68183608001516000815181106103a9576103a861149a565b5b6020026020010151610938565b90506103fc856000015186602001516103ce84610a00565b85604001516103e08a60400151610a00565b87606001516103f28960200151610a00565b8960000151610aa5565b61040c5760019350505050610414565b600093505050505b92915050565b610422610fc8565b60405180604001604052807f066553b8fcba117b33de76a56dd17aaffd849ca7b4fe0d2c6a16e9ec14a8882281526020017f066f78592f981303ddda83b10ba98511eba5a37b4ea9b0853da73f9ef97849748152508160200181905250604051806040016040528060405180604001604052807f07a604c23b2259a5c440f40e0770d6f906e9b42845e5ab2cf664863d4322693c81526020017f144d527bfeed78141d970e24292ccd24d91f9190fda2a09da56dc3f7a52f283e815250815260200160405180604001604052807f20c68e33e17bb1bc424cb2d8212e940d348f25cb2002738b8491ddb16acc6ba181526020017f03237622bda6cd21a559fbb7e525b26d2754178a551e5d6483a13181a8321fa18152508152508160000181905250604051806040016040528060405180604001604052807f2c8d18ec7a27c73c549ae598858e04549a4afbf55b35ac27a33500fa47979a3181526020017f09af3cff8c3632ca41eec1e7b63da858df12912ffb3c8e2d1d24d40ef4727f9d815250815260200160405180604001604052807f0dc4ee154e51be54fc5682bfb2139ef09e7681b25d321ddd717cbf7ba972675181526020017f02c73f32b3d80c1b6f9dce28c840c69cefc7d4b7e0ec4a9dab7019bea724e4cc8152508152508160400181905250604051806040016040528060405180604001604052807f15116ac1900ccf0db1d370fec8291f78e78ddc4b18205f54e6a22a224bbb557f81526020017f267143bc514049ef27a7953e1c0d9587bb5f1dbfec3d717ec41c86137a991f69815250815260200160405180604001604052807f28206e51e757bd8b5e4fe2bafbcd1196498643337aaa9e7afd9a47b76c94435781526020017f0d14f9093dece5d4af5ed4124ae4600d94499253552996fc7073a1dcde9099198152508152508160600181905250600367ffffffffffffffff8111156106e9576106e86110fc565b5b60405190808252806020026020018201604052801561072257816020015b61070f61100f565b8152602001906001900390816107075790505b50816080018190525060405180604001604052807f13ed617263023bbc7a813d5788af3340ade29b94293353cc6d4d3221efe507fe81526020017f2bb8f6be056cb950abf8267afcd9a6d787b704fd92752e8559f4107cb99521d281525081608001516000815181106107985761079761149a565b5b602002602001018190525060405180604001604052807f188edc46c3d2c77dce751077dff767c1988a8f3a5b7d419595c17f6c5eb851ee81526020017f2af8e5df9668af1995b08ef029fabaae04eb8f497cfacbb9eb442c2fc605dd9f81525081608001516001815181106108105761080f61149a565b5b602002602001018190525060405180604001604052807f199f68a740799a5298d65bea4fd65c3ca9add7ef4090b8a9a912ec820e225bea81526020017f24ea1ec41b0ee418fa3c73183ca75c5ea2f0bd0dc33af48a0900b6d347d9597581525081608001516002815181106108885761088761149a565b5b602002602001018190525090565b61089e61100f565b6108a6611029565b8360000151816000600381106108bf576108be61149a565b5b6020020181815250508360200151816001600381106108e1576108e061149a565b5b60200201818152505082816002600381106108ff576108fe61149a565b5b602002018181525050600060608360808460076107d05a03fa9050806000810361092557fe5b508061093057600080fd5b505092915050565b61094061100f565b61094861104b565b8360000151816000600481106109615761096061149a565b5b6020020181815250508360200151816001600481106109835761098261149a565b5b6020020181815250508260000151816002600481106109a5576109a461149a565b5b6020020181815250508260200151816003600481106109c7576109c661149a565b5b602002018181525050600060608360c08460066107d05a03fa905080600081036109ed57fe5b50806109f857600080fd5b505092915050565b610a0861100f565b60007f30644e72e131a029b85045b68181585d97816a916871ca8d3c208c16d87cfd47905060008360000151148015610a45575060008360200151145b15610a69576040518060400160405280600081526020016000815250915050610aa0565b604051806040016040528084600001518152602001828560200151610a8e91906115a3565b83610a9991906115d4565b8152509150505b919050565b600080600467ffffffffffffffff811115610ac357610ac26110fc565b5b604051908082528060200260200182016040528015610afc57816020015b610ae961100f565b815260200190600190039081610ae15790505b5090506000600467ffffffffffffffff811115610b1c57610b1b6110fc565b5b604051908082528060200260200182016040528015610b5557816020015b610b4261106d565b815260200190600190039081610b3a5790505b5090508a82600081518110610b6d57610b6c61149a565b5b60200260200101819052508882600181518110610b8d57610b8c61149a565b5b60200260200101819052508682600281518110610bad57610bac61149a565b5b60200260200101819052508482600381518110610bcd57610bcc61149a565b5b60200260200101819052508981600081518110610bed57610bec61149a565b5b60200260200101819052508781600181518110610c0d57610c0c61149a565b5b60200260200101819052508581600281518110610c2d57610c2c61149a565b5b60200260200101819052508381600381518110610c4d57610c4c61149a565b5b6020026020010181905250610c628282610c72565b9250505098975050505050505050565b60008151835114610c8257600080fd5b6000835190506000600682610c979190611608565b905060008167ffffffffffffffff811115610cb557610cb46110fc565b5b604051908082528060200260200182016040528015610ce35781602001602082028036833780820191505090505b50905060005b83811015610f6857868181518110610d0457610d0361149a565b5b602002602001015160000151826000600684610d209190611608565b610d2a9190611540565b81518110610d3b57610d3a61149a565b5b602002602001018181525050868181518110610d5a57610d5961149a565b5b602002602001015160200151826001600684610d769190611608565b610d809190611540565b81518110610d9157610d9061149a565b5b602002602001018181525050858181518110610db057610daf61149a565b5b602002602001015160000151600160028110610dcf57610dce61149a565b5b6020020151826002600684610de49190611608565b610dee9190611540565b81518110610dff57610dfe61149a565b5b602002602001018181525050858181518110610e1e57610e1d61149a565b5b602002602001015160000151600060028110610e3d57610e3c61149a565b5b6020020151826003600684610e529190611608565b610e5c9190611540565b81518110610e6d57610e6c61149a565b5b602002602001018181525050858181518110610e8c57610e8b61149a565b5b602002602001015160200151600160028110610eab57610eaa61149a565b5b6020020151826004600684610ec09190611608565b610eca9190611540565b81518110610edb57610eda61149a565b5b602002602001018181525050858181518110610efa57610ef961149a565b5b602002602001015160200151600060028110610f1957610f1861149a565b5b6020020151826005600684610f2e9190611608565b610f389190611540565b81518110610f4957610f4861149a565b5b6020026020010181815250508080610f60906114f8565b915050610ce9565b50610f71611093565b6000602082602086026020860160086107d05a03fa90508060008103610f9357fe5b5080610f9e57600080fd5b600082600060018110610fb457610fb361149a565b5b602002015114159550505050505092915050565b6040518060a00160405280610fdb61106d565b8152602001610fe861100f565b8152602001610ff561106d565b815260200161100261106d565b8152602001606081525090565b604051806040016040528060008152602001600081525090565b6040518060600160405280600390602082028036833780820191505090505090565b6040518060800160405280600490602082028036833780820191505090505090565b60405180604001604052806110806110b5565b815260200161108d6110b5565b81525090565b6040518060200160405280600190602082028036833780820191505090505090565b6040518060400160405280600290602082028036833780820191505090505090565b6000604051905090565b600080fd5b600080fd5b6000601f19601f8301169050919050565b7f4e487b7100000000000000000000000000000000000000000000000000000000600052604160045260246000fd5b611134826110eb565b810181811067ffffffffffffffff82111715611153576111526110fc565b5b80604052505050565b60006111666110d7565b9050611172828261112b565b919050565b6000819050919050565b61118a81611177565b811461119557600080fd5b50565b6000813590506111a781611181565b92915050565b6000604082840312156111c3576111c26110e6565b5b6111cd604061115c565b905060006111dd84828501611198565b60008301525060206111f184828501611198565b60208301525092915050565b600080fd5b600067ffffffffffffffff82111561121d5761121c6110fc565b5b602082029050919050565b600080fd5b600061124061123b84611202565b61115c565b9050806020840283018581111561125a57611259611228565b5b835b81811015611283578061126f8882611198565b84526020840193505060208101905061125c565b5050509392505050565b600082601f8301126112a2576112a16111fd565b5b60026112af84828561122d565b91505092915050565b6000608082840312156112ce576112cd6110e6565b5b6112d8604061115c565b905060006112e88482850161128d565b60008301525060406112fc8482850161128d565b60208301525092915050565b6000610100828403121561131f5761131e6110e6565b5b611329606061115c565b90506000611339848285016111ad565b600083015250604061134d848285016112b8565b60208301525060c0611361848285016111ad565b60408301525092915050565b6000806101408385031215611385576113846110e1565b5b600061139385828601611308565b9250506101006113a58582860161128d565b9150509250929050565b60008115159050919050565b6113c4816113af565b82525050565b60006020820190506113df60008301846113bb565b92915050565b600073ffffffffffffffffffffffffffffffffffffffff82169050919050565b6000611410826113e5565b9050919050565b61142081611405565b811461142b57600080fd5b50565b60008135905061143d81611417565b92915050565b600060208284031215611459576114586110e1565b5b60006114678482850161142e565b91505092915050565b61147981611405565b82525050565b60006020820190506114946000830184611470565b92915050565b7f4e487b7100000000000000000000000000000000000000000000000000000000600052603260045260246000fd5b7f4e487b7100000000000000000000000000000000000000000000000000000000600052601160045260246000fd5b600061150382611177565b91507fffffffffffffffffffffffffffffffffffffffffffffffffffffffffffffffff8203611535576115346114c9565b5b600182019050919050565b600061154b82611177565b915061155683611177565b925082820190508082111561156e5761156d6114c9565b5b92915050565b7f4e487b7100000000000000000000000000000000000000000000000000000000600052601260045260246000fd5b60006115ae82611177565b91506115b983611177565b9250826115c9576115c8611574565b5b828206905092915050565b60006115df82611177565b91506115ea83611177565b9250828203905081811115611602576116016114c9565b5b92915050565b600061161382611177565b915061161e83611177565b9250817fffffffffffffffffffffffffffffffffffffffffffffffffffffffffffffffff0483118215151615611657576116566114c9565b5b82820290509291505056fea26469706673582212201deff22ea19a32fc9ac110a19bd4a4019ff0f73cb74cfbec041f5917b840773864736f6c63430008100033",
  "linkReferences": {},
  "deployedLinkReferences": {}
}