{
  "_format": "hh-sol-artifact-1",
  "contractName": "VerifierZKPCorrectEncryption",
  "sourceName": "contracts/VerifierZKPCorrectEncryption.sol",
  "abi": [
    {
      "inputs": [
        {
          "internalType": "bytes[]",
          "name": "_values",
          "type": "bytes[]"
        }
      ],
      "name": "BN",
      "outputs": [
        {
          "components": [
            {
              "internalType": "bytes",
              "name": "val",
              "type": "bytes"
            },
            {
              "internalType": "bool",
              "name": "neg",
              "type": "bool"
            },
            {
              "internalType": "uint256",
              "name": "bitlen",
              "type": "uint256"
            }
          ],
          "internalType": "struct BigNumber[]",
          "name": "_bg",
          "type": "tuple[]"
        }
      ],
      "stateMutability": "view",
      "type": "function"
    },
    {
      "inputs": [
        {
          "internalType": "bytes[][]",
          "name": "_proof",
          "type": "bytes[][]"
        },
        {
          "internalType": "bool[]",
          "name": "_isProof0Negativ",
          "type": "bool[]"
        },
        {
          "components": [
            {
              "internalType": "bytes",
              "name": "val",
              "type": "bytes"
            },
            {
              "internalType": "bool",
              "name": "neg",
              "type": "bool"
            },
            {
              "internalType": "uint256",
              "name": "bitlen",
              "type": "uint256"
            }
          ],
          "internalType": "struct BigNumber[]",
          "name": "_as",
          "type": "tuple[]"
        },
        {
          "internalType": "bytes[]",
          "name": "_ias",
          "type": "bytes[]"
        },
        {
          "components": [
            {
              "internalType": "bytes",
              "name": "val",
              "type": "bytes"
            },
            {
              "internalType": "bool",
              "name": "neg",
              "type": "bool"
            },
            {
              "internalType": "uint256",
              "name": "bitlen",
              "type": "uint256"
            }
          ],
          "internalType": "struct BigNumber",
          "name": "_pub",
          "type": "tuple"
        }
      ],
      "name": "checkEvery",
      "outputs": [
        {
          "internalType": "bool",
          "name": "",
          "type": "bool"
        }
      ],
      "stateMutability": "view",
      "type": "function"
    },
    {
      "inputs": [
        {
          "internalType": "bytes",
          "name": "_gmk",
          "type": "bytes"
        },
        {
          "internalType": "bytes",
          "name": "_N",
          "type": "bytes"
        },
        {
          "internalType": "bytes",
          "name": "_r",
          "type": "bytes"
        }
      ],
      "name": "verifyInvMod",
      "outputs": [
        {
          "internalType": "bool",
          "name": "verify",
          "type": "bool"
        }
      ],
      "stateMutability": "view",
      "type": "function"
    },
    {
      "inputs": [
        {
          "internalType": "bytes",
          "name": "_ciphertext",
          "type": "bytes"
        },
        {
          "internalType": "bytes[][]",
          "name": "_proof",
          "type": "bytes[][]"
        },
        {
          "internalType": "bool[]",
          "name": "_isProof0Negativ",
          "type": "bool[]"
        },
        {
          "internalType": "bytes[]",
          "name": "_as",
          "type": "bytes[]"
        },
        {
          "internalType": "bytes[]",
          "name": "_ias",
          "type": "bytes[]"
        },
        {
          "internalType": "bytes[]",
          "name": "_gmk",
          "type": "bytes[]"
        },
        {
          "internalType": "bytes",
          "name": "_e",
          "type": "bytes"
        },
        {
          "internalType": "bytes",
          "name": "_pubKey",
          "type": "bytes"
        }
      ],
      "name": "verifyTx",
      "outputs": [
        {
          "internalType": "bool",
          "name": "",
          "type": "bool"
        }
      ],
      "stateMutability": "view",
      "type": "function"
    }
  ],
  "bytecode": "0x608060405234801561001057600080fd5b506130fa806100206000396000f3fe608060405234801561001057600080fd5b506004361061004c5760003560e01c806341a3aa0c146100515780636fd08499146100815780639e97f341146100b1578063cd3cf360146100e1575b600080fd5b61006b6004803603810190610066919061228d565b610111565b604051610078919061234f565b60405180910390f35b61009b60048036038101906100969190612450565b610156565b6040516100a89190612652565b60405180910390f35b6100cb60048036038101906100c69190612844565b610255565b6040516100d8919061234f565b60405180910390f35b6100fb60048036038101906100f69190612b71565b61062b565b604051610108919061234f565b60405180910390f35b60008061011f856000610994565b9050600061012e856000610994565b9050600061013d856000610994565b905061014a8383836109b0565b93505050509392505050565b6060815167ffffffffffffffff81111561017357610172612162565b5b6040519080825280602002602001820160405280156101ac57816020015b610199612110565b8152602001906001900390816101915790505b5090506101ed6040518060400160405280600481526020017f6865726500000000000000000000000000000000000000000000000000000000815250610a03565b60005b825181101561024f5761021e83828151811061020f5761020e612c78565b5b60200260200101516000610994565b82828151811061023157610230612c78565b5b6020026020010181905250808061024790612cd6565b9150506101f0565b50919050565b600080610263836000610994565b9050600061027a8283610a9c90919063ffffffff16565b905060005b86518110156103235760006102cd8883815181106102a05761029f612c78565b5b602002602001015185600001518c85815181106102c0576102bf612c78565b5b6020026020010151610111565b90508061030f576040517f08c379a000000000000000000000000000000000000000000000000000000000815260040161030690612da1565b60405180910390fd5b50808061031b90612cd6565b91505061027f565b5060006103318c6000610994565b90506000895167ffffffffffffffff8111156103505761034f612162565b5b60405190808252806020026020018201604052801561038957816020015b610376612110565b81526020019060019003908161036e5790505b50905060005b8a518110156104085760006103d36103c28d84815181106103b3576103b2612c78565b5b60200260200101516000610994565b8686610b419092919063ffffffff16565b9050808383815181106103e9576103e8612c78565b5b602002602001018190525050808061040090612cd6565b91505061038f565b506000610413610b65565b905060005b8d60008151811061042c5761042b612c78565b5b60200260200101515181101561055d57600061047e8f60008151811061045557610454612c78565b5b6020026020010151838151811061046f5761046e612c78565b5b60200260200101516000610994565b90506104bf6040518060400160405280600481526020017f686572650000000000000000000000000000000000000000000000000000000081525083610ba7565b8d82815181106104d2576104d1612c78565b5b6020026020010151156105225761051f8f6000815181106104f6576104f5612c78565b5b602002602001015183815181106105105761050f612c78565b5b60200260200101516001610994565b90505b610547876105398386610c4390919063ffffffff16565b610e6b90919063ffffffff16565b925050808061055590612cd6565b915050610418565b5061059c6040518060400160405280601081526020017f6f7574206f6620746865206c6f6f6f7000000000000000000000000000000000815250610a03565b6105a98160000151610e8d565b6105c66105b7896000610994565b82610f2690919063ffffffff16565b61060b5761060a6040518060400160405280600c81526020017f68657265206973206573756d00000000000000000000000000000000000000008152506000610f52565b5b6106188d8d848d8961062b565b9550505050505098975050505050505050565b6000806106418384610a9c90919063ffffffff16565b905060005b8760028151811061065a57610659612c78565b5b6020026020010151518110156109845760006106ac8960028151811061068357610682612c78565b5b6020026020010151838151811061069d5761069c612c78565b5b60200260200101516000610994565b905060006106f08a6001815181106106c7576106c6612c78565b5b602002602001015184815181106106e1576106e0612c78565b5b60200260200101516000610994565b9050600088848151811061070757610706612c78565b5b60200260200101519050600061071e848988610fee565b905060006107628d60008151811061073957610738612c78565b5b6020026020010151878151811061075357610752612c78565b5b60200260200101516000610994565b905061076c612110565b610774612110565b8d888151811061078757610786612c78565b5b602002602001015115610926576107d36040518060400160405280601381526020017f70726f6f662030206973206e656761746976650000000000000000000000000081525089610ba7565b6108138f6000815181106107ea576107e9612c78565b5b6020026020010151898151811061080457610803612c78565b5b60200260200101516001610994565b9250600061083c8d8a8151811061082d5761082c612c78565b5b60200260200101516000610994565b905061087c6040518060400160405280600981526020017f696e76617269616e740000000000000000000000000000000000000000000000815250610a03565b6108898160000151610e8d565b6108958682868d6110eb565b92506108d56040518060400160405280600381526020017f6169650000000000000000000000000000000000000000000000000000000000815250610a03565b6108e087848c610b41565b91506109206040518060400160405280600481526020017f7561696500000000000000000000000000000000000000000000000000000000815250610a03565b50610941565b61093185848b610fee565b915061093e86838b610b41565b90505b6109548185610f2690919063ffffffff16565b61096a576000995050505050505050505061098b565b50505050505050808061097c90612cd6565b915050610646565b5060019150505b95945050505050565b61099c612110565b6109a88383600061134f565b905092915050565b600083602001511580156109c657508260200151155b6109cf57600080fd5b60006109ee6109df868587610b41565b6109e761141c565b600161145e565b146109f857600080fd5b600190509392505050565b610a9981604051602401610a179190612e05565b6040516020818303038152906040527f41304fac000000000000000000000000000000000000000000000000000000007bffffffffffffffffffffffffffffffffffffffffffffffffffffffff19166020820180517bffffffffffffffffffffffffffffffffffffffffffffffffffffffff838183161783525050505061163b565b50565b610aa4612110565b6000610ab08484610c43565b90506000610ad082610ac0611664565b610acb8560026116a6565b610fee565b9050610adc8585610f26565b610b2b576000610aec8686611722565b90506000610b0c82610afc611664565b610b078560026116a6565b610fee565b9050610b22610b1b8483611722565b6002611971565b94505050610b39565b610b36816002611971565b92505b505092915050565b610b49612110565b610b5c610b568585610a9c565b83610e6b565b90509392505050565b610b6d612110565b6040518060600160405280604051806040016040528060208152602001600081525081526020016000151581526020016000815250905090565b610c3f8282604051602401610bbd929190612e36565b6040516020818303038152906040527fb60e72cc000000000000000000000000000000000000000000000000000000007bffffffffffffffffffffffffffffffffffffffffffffffffffffffff19166020820180517bffffffffffffffffffffffffffffffffffffffffffffffffffffffff838183161783525050505061163b565b5050565b610c4b612110565b60008360400151148015610c63575060008260400151145b15610c7757610c70610b65565b9050610e65565b6000836040015103610c8b57819050610e65565b6000826040015103610c9f57829050610e65565b6060600080610cb08686600061145e565b9050856020015180610cc3575084602001515b15610df05785602001518015610cda575084602001515b15610d415760008112610d0b57610cfe866000015186600001518860400151611ad3565b8093508194505050610d2b565b610d22856000015187600001518760400151611ad3565b80935081945050505b6001846020019015159081151581525050610deb565b60018103610d7c57610d5b86600001518660000151611c09565b80935081945050508560200151846020019015159081151581525050610dea565b7fffffffffffffffffffffffffffffffffffffffffffffffffffffffffffffffff8103610dd757610db585600001518760000151611c09565b8093508194505050856020015115846020019015159081151581525050610de9565b610ddf610b65565b9350505050610e65565b5b5b610e4e565b60008112610e1c57610e0f866000015186600001518860400151611ad3565b8093508194505050610e3c565b610e33856000015187600001518760400151611ad3565b80935081945050505b60008460200190151590811515815250505b828460000181905250818460400181815250505050505b92915050565b610e73612110565b610e8583610e7f61141c565b84610fee565b905092915050565b610f2381604051602401610ea19190612eb0565b6040516020818303038152906040527f0be77f56000000000000000000000000000000000000000000000000000000007bffffffffffffffffffffffffffffffffffffffffffffffffffffffff19166020820180517bffffffffffffffffffffffffffffffffffffffffffffffffffffffff838183161783525050505061163b565b50565b600080610f358484600161145e565b905060008114610f46576000610f49565b60015b91505092915050565b610fea8282604051602401610f68929190612ed2565b6040516020818303038152906040527fc3b55635000000000000000000000000000000000000000000000000000000007bffffffffffffffffffffffffffffffffffffffffffffffffffffffff19166020820180517bffffffffffffffffffffffffffffffffffffffffffffffffffffffff838183161783525050505061163b565b5050565b610ff6612110565b600015158360200151151514801561101657506000151582602001511515145b801561102c575061102a8260000151611d34565b155b61103557600080fd5b600061104e856000015185600001518560000151611d8b565b9050600061105b82611e65565b9050600081036110765761106d610b65565b925050506110e4565b8560200151801561108c575061108b85611ea5565b5b156110c1576110b860405180606001604052808481526020016001151581526020018381525085610c43565b925050506110e4565b604051806060016040528083815260200160001515815260200182815250925050505b9392505050565b6110f3612110565b6111316040518060400160405280600881526020017f77726f6e6e672031000000000000000000000000000000000000000000000000815250610a03565b8460200151158015611144575082602001515b611183576040517f08c379a000000000000000000000000000000000000000000000000000000000815260040161117a90612f4e565b60405180910390fd5b6111c16040518060400160405280600881526020017f77726f6e6e672032000000000000000000000000000000000000000000000000815250610a03565b81602001511580156111dd57506111db8260000151611d34565b155b61121c576040517f08c379a000000000000000000000000000000000000000000000000000000000815260040161121390612fba565b60405180910390fd5b61125a6040518060400160405280600881526020017f77726f6e6e672033000000000000000000000000000000000000000000000000815250610a03565b6112986040518060400160405280600881526020017f77726f6e6e672034000000000000000000000000000000000000000000000000815250610a03565b60006112b1856000015185600001518560000151611d8b565b905060006112be82611e65565b9050600081036112d9576112d0610b65565b92505050611347565b856020015180156112ef57506112ee85611ea5565b5b156113245761131b60405180606001604052808481526020016001151581526020018381525085610c43565b92505050611347565b604051806060016040528083815260200160001515815260200182815250925050505b949350505050565b611357612110565b602084018451600059600060208406146001811461138957602084066020036020818401019350808501835250611393565b6020820192508382525b508282848660046101c2fa506020815101810160405280515b600060208214036113df576000602083015114600181146113cd57506113df565b602083019250506020810390506113ac565b8082528186528760208701525050505050600082146113fe578161140c565b61140b8160000151611e65565b5b8160400181815250509392505050565b611424612110565b6040518060600160405280604051806040016040528060208152602001600181525081526020016000151581526020016001815250905090565b600080600190508215611529578460200151801561147d575083602001515b156114aa577fffffffffffffffffffffffffffffffffffffffffffffffffffffffffffffffff9050611528565b60001515856020015115151480156114ca57506001151584602001511515145b156114d9576001915050611634565b60011515856020015115151480156114f957506000151584602001511515145b15611527577fffffffffffffffffffffffffffffffffffffffffffffffffffffffffffffffff915050611634565b5b5b8360400151856040015111156115425780915050611634565b84604001518460400151111561158657807fffffffffffffffffffffffffffffffffffffffffffffffffffffffffffffffff61157e9190612fe4565b915050611634565b6000806000806000896000015151905060208a510194506020895101935060005b8181101561162857808601519350808501519250828411156115d25786975050505050505050611634565b8383111561161457867fffffffffffffffffffffffffffffffffffffffffffffffffffffffffffffffff6116069190612fe4565b975050505050505050611634565b602081611621919061305c565b90506115a7565b50600096505050505050505b9392505050565b60008151905060006a636f6e736f6c652e6c6f679050602083016000808483855afa5050505050565b61166c612110565b6040518060600160405280604051806040016040528060208152602001600281525081526020016000151581526020016002815250905090565b6116ae612110565b6000604051806040016040528060208152602001600081525090506000836040860151029050600161010082061b6020600161010084040102835280602084015260208351018301604052506040518060600160405280838152602001600015158152602001828152509250505092915050565b61172a612110565b60008360400151148015611742575060008260400151145b156117565761174f610b65565b905061196b565b60606000806117678686600061145e565b915085602001518061177a575084602001515b156118b15785602001518015611791575084602001515b1561183d57600182036117ce576117b086600001518660000151611c09565b80925081945050506001846020019015159081151581525050611838565b7fffffffffffffffffffffffffffffffffffffffffffffffffffffffffffffffff82036118255761180785600001518760000151611c09565b80925081945050506000846020019015159081151581525050611837565b61182d610b65565b935050505061196b565b5b6118ac565b600082126118695761185c866000015186600001518860400151611ad3565b8092508194505050611889565b611880856000015187600001518760400151611ad3565b80925081945050505b856020015161189957600061189c565b60015b8460200190151590811515815250505b611954565b600182036118e9576118cb86600001518660000151611c09565b80925081945050506000846020019015159081151581525050611953565b7fffffffffffffffffffffffffffffffffffffffffffffffffffffffffffffffff82036119405761192285600001518760000151611c09565b80925081945050506001846020019015159081151581525050611952565b611948610b65565b935050505061196b565b5b5b828460000181905250808460400181815250505050505b92915050565b611979612110565b60008351519050836040015183106119c8576040518060600160405280604051806040016040528060208152602001600081525081526020016000151581526020016000815250915050611acd565b8284604001516119d89190613090565b846040018181525050610100831461010084111715611a095760206101008404028103905080845152610100830692505b83516000600885061460018114611a7a576000808661010003858501865b600080821403611a70576020811460018114611a495760208303519550611a4e565b600095505b5081518a1c935084831b94508484178252602082039150602081039050611a27565b5050505050611aa8565b6008850486518051602081018383018482038282848760046101c2fa6000601f840153848652505050505050505b5060208101600081511460018103611ac557602083510382528187525b505050839150505b92915050565b606060006060596000600160000388518901885189018a5160208601018b515b600080821403611b9f5783518c518e5103821160018114611b37578782018452600188148288141660018114611b2c5760009850611b31565b600198505b50611b86565b8451888184010185528881038803831160018114611b78576000821160008b11178985141660018114611b6d5760009a50611b72565b60019a505b50611b7d565b600199505b50602086039550505b5060208303925060208503945050602081039050611af3565b506000851460018114611bb55760018252611bbc565b6020870196505b50859650846020028c510187526020875101870160405260208701516001816101008d061c14600182141715611bf35760018b019a505b5050505050505080849250925050935093915050565b6060600060606000807fffffffffffffffffffffffffffffffffffffffffffffffffffffffffffffffff90505987518751808203828b01828b0184860160208101865b600080821403611cdc57845186821160018114611c8d578c8203855260018d14600083141660018114611c825760009d50611c87565b60019d505b50611cc3565b85518d81840303865260018e148d8214168e820184101760018114611cb55760009e50611cba565b60019e505b50602087039650505b5060208403935060208603955050602081039050611c4c565b506020820191505b6000825103611d0457602088019750602087039650602082019150611ce4565b879a50868b528060405250505050505050506000611d2184611e65565b9050838195509550505050509250929050565b600080600060208401905060005b8451811015611d7e57815192506000831115611d645760009350505050611d86565b602082019150602081611d77919061305c565b9050611d42565b506001925050505b919050565b606083518351835160405183815282602082015281604082015283606082018560208b0160046101c2fa84606001848184018660208c0160046101c2fa91508481019050838184018560208b0160046101c2fa91508160008103611deb57fe5b5083810190508360608401828560056105465a03fa91508160008103611e0d57fe5b5083606084015b60006020831403611e4457600081511460018114611e325750611e44565b60208201915050602082039150611e14565b60208103985081895285856060010160405250505050505050509392505050565b6000611e7082611d34565b15611e7e5760009050611ea0565b600060208301519050611e9081611eba565b9150600860208451030282019150505b919050565b60008151518251016002815106915050919050565b600080821460018114612105578260018403935060028404841793506004840484179350601084048417935061010084048417935062010000840484179350640100000000840484179350680100000000000000008404841793507001000000000000000000000000000000008404841793506001840193506040517ff8f9cbfae6cc78fbefe7cdc3a1793dfcf4f0e8bbd8cec470b6a28a7a5a3e1efd81527ff5ecf1b3e9debc68e1d9cfabc5997135bfb7a7a3938b7b606b5b4b3f2f1f0ffe60208201527ff6e4ed9ff2d6b458eadcdf97bd91692de2d4da8fd2d0ac50c6ae9a827252361660408201527fc8c0b887b0a8a4489c948c7f847c6125746c645c544c444038302820181008ff60608201527ff7cae577eec2a03cf3bad76fb589591debb2dd67e0aa9834bea6925f6a4a2e0e60808201527fe39ed557db96902cd38ed14fad815115c786af479b7e8324736353433727170760a08201527fc976c13bb96e881cb166a933a55e490d9d56952b8d4e801485467d236242260660c08201527f753a6d1b65325d0c552a4d1345224105391a310b29122104190a11030902010060e082015261010081016040527e818283848586878898a8b8c8d8e8f929395969799a9b9d9e9faaeb6bedeeff7f01000000000000000000000000000000000000000000000000000000000000008082880204818160ff038501510496507f8000000000000000000000000000000000000000000000000000000000000000851161010002870196506000600186038616036120fb576001870196505b505050505061210a565b600091505b50919050565b604051806060016040528060608152602001600015158152602001600081525090565b6000604051905090565b600080fd5b600080fd5b600080fd5b600080fd5b6000601f19601f8301169050919050565b7f4e487b7100000000000000000000000000000000000000000000000000000000600052604160045260246000fd5b61219a82612151565b810181811067ffffffffffffffff821117156121b9576121b8612162565b5b80604052505050565b60006121cc612133565b90506121d88282612191565b919050565b600067ffffffffffffffff8211156121f8576121f7612162565b5b61220182612151565b9050602081019050919050565b82818337600083830152505050565b600061223061222b846121dd565b6121c2565b90508281526020810184848401111561224c5761224b61214c565b5b61225784828561220e565b509392505050565b600082601f83011261227457612273612147565b5b813561228484826020860161221d565b91505092915050565b6000806000606084860312156122a6576122a561213d565b5b600084013567ffffffffffffffff8111156122c4576122c3612142565b5b6122d08682870161225f565b935050602084013567ffffffffffffffff8111156122f1576122f0612142565b5b6122fd8682870161225f565b925050604084013567ffffffffffffffff81111561231e5761231d612142565b5b61232a8682870161225f565b9150509250925092565b60008115159050919050565b61234981612334565b82525050565b60006020820190506123646000830184612340565b92915050565b600067ffffffffffffffff82111561238557612384612162565b5b602082029050602081019050919050565b600080fd5b60006123ae6123a98461236a565b6121c2565b905080838252602082019050602084028301858111156123d1576123d0612396565b5b835b8181101561241857803567ffffffffffffffff8111156123f6576123f5612147565b5b808601612403898261225f565b855260208501945050506020810190506123d3565b5050509392505050565b600082601f83011261243757612436612147565b5b813561244784826020860161239b565b91505092915050565b6000602082840312156124665761246561213d565b5b600082013567ffffffffffffffff81111561248457612483612142565b5b61249084828501612422565b91505092915050565b600081519050919050565b600082825260208201905092915050565b6000819050602082019050919050565b600081519050919050565b600082825260208201905092915050565b60005b838110156124ff5780820151818401526020810190506124e4565b60008484015250505050565b6000612516826124c5565b61252081856124d0565b93506125308185602086016124e1565b61253981612151565b840191505092915050565b61254d81612334565b82525050565b6000819050919050565b61256681612553565b82525050565b60006060830160008301518482036000860152612589828261250b565b915050602083015161259e6020860182612544565b5060408301516125b1604086018261255d565b508091505092915050565b60006125c8838361256c565b905092915050565b6000602082019050919050565b60006125e882612499565b6125f281856124a4565b935083602082028501612604856124b5565b8060005b85811015612640578484038952815161262185826125bc565b945061262c836125d0565b925060208a01995050600181019050612608565b50829750879550505050505092915050565b6000602082019050818103600083015261266c81846125dd565b905092915050565b600067ffffffffffffffff82111561268f5761268e612162565b5b602082029050602081019050919050565b60006126b36126ae84612674565b6121c2565b905080838252602082019050602084028301858111156126d6576126d5612396565b5b835b8181101561271d57803567ffffffffffffffff8111156126fb576126fa612147565b5b8086016127088982612422565b855260208501945050506020810190506126d8565b5050509392505050565b600082601f83011261273c5761273b612147565b5b813561274c8482602086016126a0565b91505092915050565b600067ffffffffffffffff8211156127705761276f612162565b5b602082029050602081019050919050565b61278a81612334565b811461279557600080fd5b50565b6000813590506127a781612781565b92915050565b60006127c06127bb84612755565b6121c2565b905080838252602082019050602084028301858111156127e3576127e2612396565b5b835b8181101561280c57806127f88882612798565b8452602084019350506020810190506127e5565b5050509392505050565b600082601f83011261282b5761282a612147565b5b813561283b8482602086016127ad565b91505092915050565b600080600080600080600080610100898b0312156128655761286461213d565b5b600089013567ffffffffffffffff81111561288357612882612142565b5b61288f8b828c0161225f565b985050602089013567ffffffffffffffff8111156128b0576128af612142565b5b6128bc8b828c01612727565b975050604089013567ffffffffffffffff8111156128dd576128dc612142565b5b6128e98b828c01612816565b965050606089013567ffffffffffffffff81111561290a57612909612142565b5b6129168b828c01612422565b955050608089013567ffffffffffffffff81111561293757612936612142565b5b6129438b828c01612422565b94505060a089013567ffffffffffffffff81111561296457612963612142565b5b6129708b828c01612422565b93505060c089013567ffffffffffffffff81111561299157612990612142565b5b61299d8b828c0161225f565b92505060e089013567ffffffffffffffff8111156129be576129bd612142565b5b6129ca8b828c0161225f565b9150509295985092959890939650565b600067ffffffffffffffff8211156129f5576129f4612162565b5b602082029050602081019050919050565b600080fd5b600080fd5b612a1981612553565b8114612a2457600080fd5b50565b600081359050612a3681612a10565b92915050565b600060608284031215612a5257612a51612a06565b5b612a5c60606121c2565b9050600082013567ffffffffffffffff811115612a7c57612a7b612a0b565b5b612a888482850161225f565b6000830152506020612a9c84828501612798565b6020830152506040612ab084828501612a27565b60408301525092915050565b6000612acf612aca846129da565b6121c2565b90508083825260208201905060208402830185811115612af257612af1612396565b5b835b81811015612b3957803567ffffffffffffffff811115612b1757612b16612147565b5b808601612b248982612a3c565b85526020850194505050602081019050612af4565b5050509392505050565b600082601f830112612b5857612b57612147565b5b8135612b68848260208601612abc565b91505092915050565b600080600080600060a08688031215612b8d57612b8c61213d565b5b600086013567ffffffffffffffff811115612bab57612baa612142565b5b612bb788828901612727565b955050602086013567ffffffffffffffff811115612bd857612bd7612142565b5b612be488828901612816565b945050604086013567ffffffffffffffff811115612c0557612c04612142565b5b612c1188828901612b43565b935050606086013567ffffffffffffffff811115612c3257612c31612142565b5b612c3e88828901612422565b925050608086013567ffffffffffffffff811115612c5f57612c5e612142565b5b612c6b88828901612a3c565b9150509295509295909350565b7f4e487b7100000000000000000000000000000000000000000000000000000000600052603260045260246000fd5b7f4e487b7100000000000000000000000000000000000000000000000000000000600052601160045260246000fd5b6000612ce182612553565b91507fffffffffffffffffffffffffffffffffffffffffffffffffffffffffffffffff8203612d1357612d12612ca7565b5b600182019050919050565b600082825260208201905092915050565b7f4d6f64756c617220696e766572736520766572696669636174696f6e2066616960008201527f6c732e0000000000000000000000000000000000000000000000000000000000602082015250565b6000612d8b602383612d1e565b9150612d9682612d2f565b604082019050919050565b60006020820190508181036000830152612dba81612d7e565b9050919050565b600081519050919050565b6000612dd782612dc1565b612de18185612d1e565b9350612df18185602086016124e1565b612dfa81612151565b840191505092915050565b60006020820190508181036000830152612e1f8184612dcc565b905092915050565b612e3081612553565b82525050565b60006040820190508181036000830152612e508185612dcc565b9050612e5f6020830184612e27565b9392505050565b600082825260208201905092915050565b6000612e82826124c5565b612e8c8185612e66565b9350612e9c8185602086016124e1565b612ea581612151565b840191505092915050565b60006020820190508181036000830152612eca8184612e77565b905092915050565b60006040820190508181036000830152612eec8185612dcc565b9050612efb6020830184612340565b9392505050565b7f736f6d657468696e672077726f6e672068657265000000000000000000000000600082015250565b6000612f38601483612d1e565b9150612f4382612f02565b602082019050919050565b60006020820190508181036000830152612f6781612f2b565b9050919050565b7f616e64206865726520746f6f0000000000000000000000000000000000000000600082015250565b6000612fa4600c83612d1e565b9150612faf82612f6e565b602082019050919050565b60006020820190508181036000830152612fd381612f97565b9050919050565b6000819050919050565b6000612fef82612fda565b9150612ffa83612fda565b925082820261300881612fda565b91507f800000000000000000000000000000000000000000000000000000000000000084146000841216156130405761303f612ca7565b5b828205841483151761305557613054612ca7565b5b5092915050565b600061306782612553565b915061307283612553565b925082820190508082111561308a57613089612ca7565b5b92915050565b600061309b82612553565b91506130a683612553565b92508282039050818111156130be576130bd612ca7565b5b9291505056fea26469706673582212200d3eacc94946f90bd489916323b8fafa4762d2d3b53b68cffec9c4ae413e699064736f6c63430008110033",
  "linkReferences": {},
  "deployedLinkReferences": {}
}