{"contracts/Test.sol":{"Test":{"abi":[{"inputs":[{"internalType":"bytes","name":"num1","type":"bytes"},{"internalType":"bytes","name":"num2","type":"bytes"}],"name":"add","outputs":[{"components":[{"internalType":"bytes","name":"val","type":"bytes"},{"internalType":"bool","name":"neg","type":"bool"},{"internalType":"uint256","name":"bitlen","type":"uint256"}],"internalType":"struct BigNumber","name":"","type":"tuple"}],"stateMutability":"view","type":"function"},{"inputs":[{"internalType":"bytes[][]","name":"proof","type":"bytes[][]"},{"components":[{"internalType":"bytes","name":"val","type":"bytes"},{"internalType":"bool","name":"neg","type":"bool"},{"internalType":"uint256","name":"bitlen","type":"uint256"}],"internalType":"struct BigNumber[]","name":"AS","type":"tuple[]"},{"components":[{"internalType":"bytes","name":"val","type":"bytes"},{"internalType":"bool","name":"neg","type":"bool"},{"internalType":"uint256","name":"bitlen","type":"uint256"}],"internalType":"struct BigNumber","name":"_pub","type":"tuple"}],"name":"checkEvery","outputs":[{"internalType":"bool","name":"","type":"bool"}],"stateMutability":"view","type":"function"},{"inputs":[{"components":[{"internalType":"bytes","name":"val","type":"bytes"},{"internalType":"bool","name":"neg","type":"bool"},{"internalType":"uint256","name":"bitlen","type":"uint256"}],"internalType":"struct BigNumber","name":"_bg","type":"tuple"}],"name":"generator","outputs":[{"components":[{"internalType":"bytes","name":"val","type":"bytes"},{"internalType":"bool","name":"neg","type":"bool"},{"internalType":"uint256","name":"bitlen","type":"uint256"}],"internalType":"struct BigNumber","name":"","type":"tuple"}],"stateMutability":"view","type":"function"},{"inputs":[{"internalType":"string","name":"_text","type":"string"},{"internalType":"uint256","name":"_num","type":"uint256"},{"internalType":"address","name":"_addr","type":"address"}],"name":"hash","outputs":[{"internalType":"bytes32","name":"","type":"bytes32"}],"stateMutability":"pure","type":"function"},{"inputs":[],"name":"test","outputs":[{"components":[{"internalType":"bytes","name":"val","type":"bytes"},{"internalType":"bool","name":"neg","type":"bool"},{"internalType":"uint256","name":"bitlen","type":"uint256"}],"internalType":"struct BigNumber","name":"result","type":"tuple"}],"stateMutability":"view","type":"function"},{"inputs":[],"name":"test2","outputs":[{"components":[{"internalType":"bytes","name":"val","type":"bytes"},{"internalType":"bool","name":"neg","type":"bool"},{"internalType":"uint256","name":"bitlen","type":"uint256"}],"internalType":"struct BigNumber","name":"result","type":"tuple"}],"stateMutability":"view","type":"function"},{"inputs":[{"internalType":"bytes","name":"_gmk","type":"bytes"},{"internalType":"bytes","name":"_N","type":"bytes"},{"internalType":"bytes","name":"_r","type":"bytes"}],"name":"verifyInvMod","outputs":[{"internalType":"bool","name":"verify","type":"bool"}],"stateMutability":"view","type":"function"},{"inputs":[{"internalType":"bytes","name":"_ciphertext","type":"bytes"},{"internalType":"bytes[][]","name":"proof","type":"bytes[][]"},{"internalType":"bytes[]","name":"_as","type":"bytes[]"},{"internalType":"bytes","name":"_e","type":"bytes"},{"internalType":"bytes","name":"pubKey","type":"bytes"}],"name":"verifyMembershipZKP","outputs":[{"internalType":"bool","name":"","type":"bool"}],"stateMutability":"view","type":"function"}],"evm":{"bytecode":{"linkReferences":{},"object":"608060405234801561001057600080fd5b506133ca806100206000396000f3fe608060405234801561001057600080fd5b50600436106100885760003560e01c806366e41cb71161005b57806366e41cb71461014d578063b1e9dfaa1461016b578063d5f679b11461019b578063f8a8fd6d146101cb57610088565b80633b007d8e1461008d57806341a3aa0c146100bd5780635b6d3844146100ed5780635dda416e1461011d575b600080fd5b6100a760048036038101906100a29190612370565b6101e9565b6040516100b491906124eb565b60405180910390f35b6100d760048036038101906100d2919061250d565b610217565b6040516100e491906125c3565b60405180910390f35b610107600480360381019061010291906127a5565b61025c565b60405161011491906125c3565b60405180910390f35b610137600480360381019061013291906129d7565b610623565b6040516101449190612a5f565b60405180910390f35b610155610659565b60405161016291906124eb565b60405180910390f35b61018560048036038101906101809190612c11565b610765565b60405161019291906125c3565b60405180910390f35b6101b560048036038101906101b09190612cb8565b610a17565b6040516101c291906124eb565b60405180910390f35b6101d3610a86565b6040516101e091906124eb565b60405180910390f35b6101f16121f3565b61020f6101ff846000610b91565b61020a846000610b91565b610bad565b905092915050565b600080610225856000610b91565b90506000610234856000610b91565b90506000610243856000610b91565b9050610250838383610dd5565b93505050509392505050565b60008061026a876000610b91565b90506000610279846000610b91565b905060006102908283610e2890919063ffffffff16565b90506000875167ffffffffffffffff8111156102af576102ae612245565b5b6040519080825280602002602001820160405280156102e857816020015b6102d56121f3565b8152602001906001900390816102cd5790505b50905060005b88518110156103cc5760006103326103218b848151811061031257610311612d01565b5b60200260200101516000610b91565b8588610ecd9092919063ffffffff16565b90508083838151811061034857610347612d01565b5b602002602001018190525061037a83838151811061036957610368612d01565b5b602002602001015160000151610ef1565b6103b86040518060400160405280602081526020017f2d2d2d2d2d2d2d2d2d2d2d2d2d2d2d2d2d2d2d2d2d2d2d2d2d2d2d2d2d2d2d2d815250610f8a565b5080806103c490612d5f565b9150506102ee565b5060006103d7611023565b90506103e68160000151610ef1565b60005b8a6000815181106103fd576103fc612d01565b5b6020026020010151518110156104d757600061044f8c60008151811061042657610425612d01565b5b602002602001015183815181106104405761043f612d01565b5b60200260200101516000610b91565b90506000820361049c576104998c6000815181106104705761046f612d01565b5b6020026020010151838151811061048a57610489612d01565b5b60200260200101516001610b91565b90505b6104c1866104b38386610bad90919063ffffffff16565b61106590919063ffffffff16565b92505080806104cf90612d5f565b9150506103e9565b5061051b6040518060400160405280600c81526020017f6553756d206c656e6774683a00000000000000000000000000000000000000008152508260400151611087565b6105288160000151610ef1565b61053f610536896000610b91565b60000151610ef1565b61055c61054d896000610b91565b8261112390919063ffffffff16565b6105ac5761059e6040518060400160405280600481526020017f6865726500000000000000000000000000000000000000000000000000000000815250610f8a565b60009550505050505061061a565b60006105b98b8487610765565b90506105fa6040518060400160405280600e81526020017f636865636b2065766572792069730000000000000000000000000000000000008152508261114f565b801561060f576001965050505050505061061a565b600096505050505050505b95945050505050565b600083838360405160200161063a93929190612e57565b6040516020818303038152906040528051906020012090509392505050565b6106616121f3565b60006040518060400160405280600b81526020017f68656c6c6f20776f726c64000000000000000000000000000000000000000000815250905060006106c960006040518060a001604052806080815260200161331560809139610b9190919063ffffffff16565b9050600061071660006040518060400160405280600381526020017f0100010000000000000000000000000000000000000000000000000000000000815250610b9190919063ffffffff16565b90506000610747600060405180610120016040528060e7815260200161322e60e79139610b9190919063ffffffff16565b905061075c8184610bad90919063ffffffff16565b94505050505090565b60008061077b8384610e2890919063ffffffff16565b905060005b8560028151811061079457610793612d01565b5b602002602001015151811015610a095760006107e6876002815181106107bd576107bc612d01565b5b602002602001015183815181106107d7576107d6612d01565b5b60200260200101516000610b91565b9050600061082a8860018151811061080157610800612d01565b5b6020026020010151848151811061081b5761081a612d01565b5b60200260200101516000610b91565b9050600061086e8960008151811061084557610844612d01565b5b6020026020010151858151811061085f5761085e612d01565b5b60200260200101516000610b91565b9050600088858151811061088557610884612d01565b5b60200260200101519050600061089c858a896111eb565b90506108dc6040518060400160405280600781526020017f76696e2069733a00000000000000000000000000000000000000000000000000815250610f8a565b6108e98160000151610ef1565b60006108fe6108f66112e8565b84868b61132a565b905061093e6040518060400160405280600781526020017f6169652069733a00000000000000000000000000000000000000000000000000815250610f8a565b61094b8160000151610ef1565b600061095886838b610ecd565b90506109986040518060400160405280600881526020017f756961652069733a000000000000000000000000000000000000000000000000815250610f8a565b6109a58160000151610ef1565b6109c660405180606001604052806040815260200161312e60409139610f8a565b6109d9818461112390919063ffffffff16565b6109ef5760009950505050505050505050610a10565b505050505050508080610a0190612d5f565b915050610780565b5060019150505b9392505050565b610a1f6121f3565b6000610a6960006040518060400160405280600281526020017e01000000000000000000000000000000000000000000000000000000000000815250610b9190919063ffffffff16565b9050610a7e8184610bad90919063ffffffff16565b915050919050565b610a8e6121f3565b60006040518060400160405280600b81526020017f68656c6c6f20776f726c6400000000000000000000000000000000000000000081525090506000610af660006040518060a001604052806080815260200161331560809139610b9190919063ffffffff16565b90506000610b4360006040518060400160405280600381526020017f0100010000000000000000000000000000000000000000000000000000000000815250610b9190919063ffffffff16565b90506000610b7360006040518060e0016040528060c0815260200161316e60c09139610b9190919063ffffffff16565b9050610b888184610bad90919063ffffffff16565b94505050505090565b610b996121f3565b610ba583836000611474565b905092915050565b610bb56121f3565b60008360400151148015610bcd575060008260400151145b15610be157610bda611023565b9050610dcf565b6000836040015103610bf557819050610dcf565b6000826040015103610c0957829050610dcf565b6060600080610c1a86866000611541565b9050856020015180610c2d575084602001515b15610d5a5785602001518015610c44575084602001515b15610cab5760008112610c7557610c6886600001518660000151886040015161171e565b8093508194505050610c95565b610c8c85600001518760000151876040015161171e565b80935081945050505b6001846020019015159081151581525050610d55565b60018103610ce657610cc586600001518660000151611854565b80935081945050508560200151846020019015159081151581525050610d54565b7fffffffffffffffffffffffffffffffffffffffffffffffffffffffffffffffff8103610d4157610d1f85600001518760000151611854565b8093508194505050856020015115846020019015159081151581525050610d53565b610d49611023565b9350505050610dcf565b5b5b610db8565b60008112610d8657610d7986600001518660000151886040015161171e565b8093508194505050610da6565b610d9d85600001518760000151876040015161171e565b80935081945050505b60008460200190151590811515815250505b828460000181905250818460400181815250505050505b92915050565b60008360200151158015610deb57508260200151155b610df457600080fd5b6000610e13610e04868587610ecd565b610e0c6112e8565b6001611541565b14610e1d57600080fd5b600190509392505050565b610e306121f3565b6000610e3c8484610bad565b90506000610e5c82610e4c61197f565b610e578560026119c1565b6111eb565b9050610e688585611123565b610eb7576000610e788686611a3d565b90506000610e9882610e8861197f565b610e938560026119c1565b6111eb565b9050610eae610ea78483611a3d565b6002611c8c565b94505050610ec5565b610ec2816002611c8c565b92505b505092915050565b610ed56121f3565b610ee8610ee28585610e28565b83611065565b90509392505050565b610f8781604051602401610f059190612eda565b6040516020818303038152906040527f0be77f56000000000000000000000000000000000000000000000000000000007bffffffffffffffffffffffffffffffffffffffffffffffffffffffff19166020820180517bffffffffffffffffffffffffffffffffffffffffffffffffffffffff8381831617835250505050611dee565b50565b61102081604051602401610f9e9190612f46565b6040516020818303038152906040527f41304fac000000000000000000000000000000000000000000000000000000007bffffffffffffffffffffffffffffffffffffffffffffffffffffffff19166020820180517bffffffffffffffffffffffffffffffffffffffffffffffffffffffff8381831617835250505050611dee565b50565b61102b6121f3565b6040518060600160405280604051806040016040528060208152602001600081525081526020016000151581526020016000815250905090565b61106d6121f3565b61107f836110796112e8565b846111eb565b905092915050565b61111f828260405160240161109d929190612f77565b6040516020818303038152906040527fb60e72cc000000000000000000000000000000000000000000000000000000007bffffffffffffffffffffffffffffffffffffffffffffffffffffffff19166020820180517bffffffffffffffffffffffffffffffffffffffffffffffffffffffff8381831617835250505050611dee565b5050565b60008061113284846001611541565b905060008114611143576000611146565b60015b91505092915050565b6111e78282604051602401611165929190612fa7565b6040516020818303038152906040527fc3b55635000000000000000000000000000000000000000000000000000000007bffffffffffffffffffffffffffffffffffffffffffffffffffffffff19166020820180517bffffffffffffffffffffffffffffffffffffffffffffffffffffffff8381831617835250505050611dee565b5050565b6111f36121f3565b600015158360200151151514801561121357506000151582602001511515145b801561122957506112278260000151611e17565b155b61123257600080fd5b600061124b856000015185600001518560000151611e6e565b9050600061125882611f48565b9050600081036112735761126a611023565b925050506112e1565b85602001518015611289575061128885611f88565b5b156112be576112b560405180606001604052808481526020016001151581526020018381525085610bad565b925050506112e1565b604051806060016040528083815260200160001515815260200182815250925050505b9392505050565b6112f06121f3565b6040518060600160405280604051806040016040528060208152602001600181525081526020016000151581526020016001815250905090565b6113326121f3565b8460200151158015611345575082602001515b61134e57600080fd5b816020015115801561136a57506113688260000151611e17565b155b61137357600080fd5b61137e858386610dd5565b6113bd576040517f08c379a00000000000000000000000000000000000000000000000000000000081526004016113b490613023565b60405180910390fd5b60006113d6856000015185600001518560000151611e6e565b905060006113e382611f48565b9050600081036113fe576113f5611023565b9250505061146c565b85602001518015611414575061141385611f88565b5b156114495761144060405180606001604052808481526020016001151581526020018381525085610bad565b9250505061146c565b604051806060016040528083815260200160001515815260200182815250925050505b949350505050565b61147c6121f3565b60208401845160005960006020840614600181146114ae576020840660200360208184010193508085018352506114b8565b6020820192508382525b508282848660046101c2fa506020815101810160405280515b60006020821403611504576000602083015114600181146114f25750611504565b602083019250506020810390506114d1565b8082528186528760208701525050505050600082146115235781611531565b6115308160000151611f48565b5b8160400181815250509392505050565b60008060019050821561160c5784602001518015611560575083602001515b1561158d577fffffffffffffffffffffffffffffffffffffffffffffffffffffffffffffffff905061160b565b60001515856020015115151480156115ad57506001151584602001511515145b156115bc576001915050611717565b60011515856020015115151480156115dc57506000151584602001511515145b1561160a577fffffffffffffffffffffffffffffffffffffffffffffffffffffffffffffffff915050611717565b5b5b8360400151856040015111156116255780915050611717565b84604001518460400151111561166957807fffffffffffffffffffffffffffffffffffffffffffffffffffffffffffffffff611661919061304d565b915050611717565b6000806000806000896000015151905060208a510194506020895101935060005b8181101561170b57808601519350808501519250828411156116b55786975050505050505050611717565b838311156116f757867fffffffffffffffffffffffffffffffffffffffffffffffffffffffffffffffff6116e9919061304d565b975050505050505050611717565b60208161170491906130c5565b905061168a565b50600096505050505050505b9392505050565b606060006060596000600160000388518901885189018a5160208601018b515b6000808214036117ea5783518c518e5103821160018114611782578782018452600188148288141660018114611777576000985061177c565b600198505b506117d1565b84518881840101855288810388038311600181146117c3576000821160008b111789851416600181146117b85760009a506117bd565b60019a505b506117c8565b600199505b50602086039550505b506020830392506020850394505060208103905061173e565b5060008514600181146118005760018252611807565b6020870196505b50859650846020028c510187526020875101870160405260208701516001816101008d061c1460018214171561183e5760018b019a505b5050505050505080849250925050935093915050565b6060600060606000807fffffffffffffffffffffffffffffffffffffffffffffffffffffffffffffffff90505987518751808203828b01828b0184860160208101865b600080821403611927578451868211600181146118d8578c8203855260018d146000831416600181146118cd5760009d506118d2565b60019d505b5061190e565b85518d81840303865260018e148d8214168e8201841017600181146119005760009e50611905565b60019e505b50602087039650505b5060208403935060208603955050602081039050611897565b506020820191505b600082510361194f5760208801975060208703965060208201915061192f565b879a50868b52806040525050505050505050600061196c84611f48565b9050838195509550505050509250929050565b6119876121f3565b6040518060600160405280604051806040016040528060208152602001600281525081526020016000151581526020016002815250905090565b6119c96121f3565b6000604051806040016040528060208152602001600081525090506000836040860151029050600161010082061b6020600161010084040102835280602084015260208351018301604052506040518060600160405280838152602001600015158152602001828152509250505092915050565b611a456121f3565b60008360400151148015611a5d575060008260400151145b15611a7157611a6a611023565b9050611c86565b6060600080611a8286866000611541565b9150856020015180611a95575084602001515b15611bcc5785602001518015611aac575084602001515b15611b585760018203611ae957611acb86600001518660000151611854565b80925081945050506001846020019015159081151581525050611b53565b7fffffffffffffffffffffffffffffffffffffffffffffffffffffffffffffffff8203611b4057611b2285600001518760000151611854565b80925081945050506000846020019015159081151581525050611b52565b611b48611023565b9350505050611c86565b5b611bc7565b60008212611b8457611b7786600001518660000151886040015161171e565b8092508194505050611ba4565b611b9b85600001518760000151876040015161171e565b80925081945050505b8560200151611bb4576000611bb7565b60015b8460200190151590811515815250505b611c6f565b60018203611c0457611be686600001518660000151611854565b80925081945050506000846020019015159081151581525050611c6e565b7fffffffffffffffffffffffffffffffffffffffffffffffffffffffffffffffff8203611c5b57611c3d85600001518760000151611854565b80925081945050506001846020019015159081151581525050611c6d565b611c63611023565b9350505050611c86565b5b5b828460000181905250808460400181815250505050505b92915050565b611c946121f3565b6000835151905083604001518310611ce3576040518060600160405280604051806040016040528060208152602001600081525081526020016000151581526020016000815250915050611de8565b828460400151611cf391906130f9565b846040018181525050610100831461010084111715611d245760206101008404028103905080845152610100830692505b83516000600885061460018114611d95576000808661010003858501865b600080821403611d8b576020811460018114611d645760208303519550611d69565b600095505b5081518a1c935084831b94508484178252602082039150602081039050611d42565b5050505050611dc3565b6008850486518051602081018383018482038282848760046101c2fa6000601f840153848652505050505050505b5060208101600081511460018103611de057602083510382528187525b505050839150505b92915050565b60008151905060006a636f6e736f6c652e6c6f679050602083016000808483855afa5050505050565b600080600060208401905060005b8451811015611e6157815192506000831115611e475760009350505050611e69565b602082019150602081611e5a91906130c5565b9050611e25565b506001925050505b919050565b606083518351835160405183815282602082015281604082015283606082018560208b0160046101c2fa84606001848184018660208c0160046101c2fa91508481019050838184018560208b0160046101c2fa91508160008103611ece57fe5b5083810190508360608401828560056105465a03fa91508160008103611ef057fe5b5083606084015b60006020831403611f2757600081511460018114611f155750611f27565b60208201915050602082039150611ef7565b60208103985081895285856060010160405250505050505050509392505050565b6000611f5382611e17565b15611f615760009050611f83565b600060208301519050611f7381611f9d565b9150600860208451030282019150505b919050565b60008151518251016002815106915050919050565b6000808214600181146121e8578260018403935060028404841793506004840484179350601084048417935061010084048417935062010000840484179350640100000000840484179350680100000000000000008404841793507001000000000000000000000000000000008404841793506001840193506040517ff8f9cbfae6cc78fbefe7cdc3a1793dfcf4f0e8bbd8cec470b6a28a7a5a3e1efd81527ff5ecf1b3e9debc68e1d9cfabc5997135bfb7a7a3938b7b606b5b4b3f2f1f0ffe60208201527ff6e4ed9ff2d6b458eadcdf97bd91692de2d4da8fd2d0ac50c6ae9a827252361660408201527fc8c0b887b0a8a4489c948c7f847c6125746c645c544c444038302820181008ff60608201527ff7cae577eec2a03cf3bad76fb589591debb2dd67e0aa9834bea6925f6a4a2e0e60808201527fe39ed557db96902cd38ed14fad815115c786af479b7e8324736353433727170760a08201527fc976c13bb96e881cb166a933a55e490d9d56952b8d4e801485467d236242260660c08201527f753a6d1b65325d0c552a4d1345224105391a310b29122104190a11030902010060e082015261010081016040527e818283848586878898a8b8c8d8e8f929395969799a9b9d9e9faaeb6bedeeff7f01000000000000000000000000000000000000000000000000000000000000008082880204818160ff038501510496507f8000000000000000000000000000000000000000000000000000000000000000851161010002870196506000600186038616036121de576001870196505b50505050506121ed565b600091505b50919050565b604051806060016040528060608152602001600015158152602001600081525090565b6000604051905090565b600080fd5b600080fd5b600080fd5b600080fd5b6000601f19601f8301169050919050565b7f4e487b7100000000000000000000000000000000000000000000000000000000600052604160045260246000fd5b61227d82612234565b810181811067ffffffffffffffff8211171561229c5761229b612245565b5b80604052505050565b60006122af612216565b90506122bb8282612274565b919050565b600067ffffffffffffffff8211156122db576122da612245565b5b6122e482612234565b9050602081019050919050565b82818337600083830152505050565b600061231361230e846122c0565b6122a5565b90508281526020810184848401111561232f5761232e61222f565b5b61233a8482856122f1565b509392505050565b600082601f8301126123575761235661222a565b5b8135612367848260208601612300565b91505092915050565b6000806040838503121561238757612386612220565b5b600083013567ffffffffffffffff8111156123a5576123a4612225565b5b6123b185828601612342565b925050602083013567ffffffffffffffff8111156123d2576123d1612225565b5b6123de85828601612342565b9150509250929050565b600081519050919050565b600082825260208201905092915050565b60005b83811015612422578082015181840152602081019050612407565b60008484015250505050565b6000612439826123e8565b61244381856123f3565b9350612453818560208601612404565b61245c81612234565b840191505092915050565b60008115159050919050565b61247c81612467565b82525050565b6000819050919050565b61249581612482565b82525050565b600060608301600083015184820360008601526124b8828261242e565b91505060208301516124cd6020860182612473565b5060408301516124e0604086018261248c565b508091505092915050565b60006020820190508181036000830152612505818461249b565b905092915050565b60008060006060848603121561252657612525612220565b5b600084013567ffffffffffffffff81111561254457612543612225565b5b61255086828701612342565b935050602084013567ffffffffffffffff81111561257157612570612225565b5b61257d86828701612342565b925050604084013567ffffffffffffffff81111561259e5761259d612225565b5b6125aa86828701612342565b9150509250925092565b6125bd81612467565b82525050565b60006020820190506125d860008301846125b4565b92915050565b600067ffffffffffffffff8211156125f9576125f8612245565b5b602082029050602081019050919050565b600080fd5b600067ffffffffffffffff82111561262a57612629612245565b5b602082029050602081019050919050565b600061264e6126498461260f565b6122a5565b905080838252602082019050602084028301858111156126715761267061260a565b5b835b818110156126b857803567ffffffffffffffff8111156126965761269561222a565b5b8086016126a38982612342565b85526020850194505050602081019050612673565b5050509392505050565b600082601f8301126126d7576126d661222a565b5b81356126e784826020860161263b565b91505092915050565b60006127036126fe846125de565b6122a5565b905080838252602082019050602084028301858111156127265761272561260a565b5b835b8181101561276d57803567ffffffffffffffff81111561274b5761274a61222a565b5b80860161275889826126c2565b85526020850194505050602081019050612728565b5050509392505050565b600082601f83011261278c5761278b61222a565b5b813561279c8482602086016126f0565b91505092915050565b600080600080600060a086880312156127c1576127c0612220565b5b600086013567ffffffffffffffff8111156127df576127de612225565b5b6127eb88828901612342565b955050602086013567ffffffffffffffff81111561280c5761280b612225565b5b61281888828901612777565b945050604086013567ffffffffffffffff81111561283957612838612225565b5b612845888289016126c2565b935050606086013567ffffffffffffffff81111561286657612865612225565b5b61287288828901612342565b925050608086013567ffffffffffffffff81111561289357612892612225565b5b61289f88828901612342565b9150509295509295909350565b600067ffffffffffffffff8211156128c7576128c6612245565b5b6128d082612234565b9050602081019050919050565b60006128f06128eb846128ac565b6122a5565b90508281526020810184848401111561290c5761290b61222f565b5b6129178482856122f1565b509392505050565b600082601f8301126129345761293361222a565b5b81356129448482602086016128dd565b91505092915050565b61295681612482565b811461296157600080fd5b50565b6000813590506129738161294d565b92915050565b600073ffffffffffffffffffffffffffffffffffffffff82169050919050565b60006129a482612979565b9050919050565b6129b481612999565b81146129bf57600080fd5b50565b6000813590506129d1816129ab565b92915050565b6000806000606084860312156129f0576129ef612220565b5b600084013567ffffffffffffffff811115612a0e57612a0d612225565b5b612a1a8682870161291f565b9350506020612a2b86828701612964565b9250506040612a3c868287016129c2565b9150509250925092565b6000819050919050565b612a5981612a46565b82525050565b6000602082019050612a746000830184612a50565b92915050565b600067ffffffffffffffff821115612a9557612a94612245565b5b602082029050602081019050919050565b600080fd5b600080fd5b612ab981612467565b8114612ac457600080fd5b50565b600081359050612ad681612ab0565b92915050565b600060608284031215612af257612af1612aa6565b5b612afc60606122a5565b9050600082013567ffffffffffffffff811115612b1c57612b1b612aab565b5b612b2884828501612342565b6000830152506020612b3c84828501612ac7565b6020830152506040612b5084828501612964565b60408301525092915050565b6000612b6f612b6a84612a7a565b6122a5565b90508083825260208201905060208402830185811115612b9257612b9161260a565b5b835b81811015612bd957803567ffffffffffffffff811115612bb757612bb661222a565b5b808601612bc48982612adc565b85526020850194505050602081019050612b94565b5050509392505050565b600082601f830112612bf857612bf761222a565b5b8135612c08848260208601612b5c565b91505092915050565b600080600060608486031215612c2a57612c29612220565b5b600084013567ffffffffffffffff811115612c4857612c47612225565b5b612c5486828701612777565b935050602084013567ffffffffffffffff811115612c7557612c74612225565b5b612c8186828701612be3565b925050604084013567ffffffffffffffff811115612ca257612ca1612225565b5b612cae86828701612adc565b9150509250925092565b600060208284031215612cce57612ccd612220565b5b600082013567ffffffffffffffff811115612cec57612ceb612225565b5b612cf884828501612adc565b91505092915050565b7f4e487b7100000000000000000000000000000000000000000000000000000000600052603260045260246000fd5b7f4e487b7100000000000000000000000000000000000000000000000000000000600052601160045260246000fd5b6000612d6a82612482565b91507fffffffffffffffffffffffffffffffffffffffffffffffffffffffffffffffff8203612d9c57612d9b612d30565b5b600182019050919050565b600081519050919050565b600081905092915050565b6000612dc882612da7565b612dd28185612db2565b9350612de2818560208601612404565b80840191505092915050565b6000819050919050565b612e09612e0482612482565b612dee565b82525050565b60008160601b9050919050565b6000612e2782612e0f565b9050919050565b6000612e3982612e1c565b9050919050565b612e51612e4c82612999565b612e2e565b82525050565b6000612e638286612dbd565b9150612e6f8285612df8565b602082019150612e7f8284612e40565b601482019150819050949350505050565b600082825260208201905092915050565b6000612eac826123e8565b612eb68185612e90565b9350612ec6818560208601612404565b612ecf81612234565b840191505092915050565b60006020820190508181036000830152612ef48184612ea1565b905092915050565b600082825260208201905092915050565b6000612f1882612da7565b612f228185612efc565b9350612f32818560208601612404565b612f3b81612234565b840191505092915050565b60006020820190508181036000830152612f608184612f0d565b905092915050565b612f7181612482565b82525050565b60006040820190508181036000830152612f918185612f0d565b9050612fa06020830184612f68565b9392505050565b60006040820190508181036000830152612fc18185612f0d565b9050612fd060208301846125b4565b9392505050565b7f77726f6e6720696e766572736500000000000000000000000000000000000000600082015250565b600061300d600d83612efc565b915061301882612fd7565b602082019050919050565b6000602082019050818103600083015261303c81613000565b9050919050565b6000819050919050565b600061305882613043565b915061306383613043565b925082820261307181613043565b91507f800000000000000000000000000000000000000000000000000000000000000084146000841216156130a9576130a8612d30565b5b82820584148315176130be576130bd612d30565b5b5092915050565b60006130d082612482565b91506130db83612482565b92508282019050808211156130f3576130f2612d30565b5b92915050565b600061310482612482565b915061310f83612482565b925082820390508181111561312757613126612d30565b5b9291505056fe2d2d2d2d2d2d2d2d2d2d2d2d2d2d2d2d2d2d2d2d2d2d2d2d2d2d2d2d2d2d2d2d2d2d2d2d2d2d2d2d2d2d2d2d2d2d2d2d2d2d2d2d2d2d2d2d2d2d2d2d2d2d2d2d6bd37cce7436ba529478c54d3969f91f6b807da4cb108d7359f2109eb322e5dde99c0c3dd5b7173b083cf254842c6bd1257eddd5308e3431c4ca97e2fb30a655b01b52aea181e1025e9d3df7082243d40e5486883d876e88c92bd0dad6febbf48b2e9e225129800000000000000000000000000000000000000000000000000000000000000000000000000000000000000000000000000000000000000000000000000000000000000000000000000000000000000000000000000000000001649420290310326129162254119500467218768306907220606612984880162663964403222012588101237853583864381409872326875081600491180970229675744463173478291577918876986852745897614703239499232282186868549690008488550391188447203873027812119950551634941227651863055020304956479547813767839418297240960317918869580828762285818584719361356117812685353478395099208868250134324510900053015712008969518882358040384736753124964380529663844689194972663272349191764266060135530497079bed733b48d69bdb03076cb17d9809072a5a765460bc72072d687dba492afe951d75b814f561f253ee5cc0f3d703b6eab5b5df635b03a5437c0a5c179309812f5b5c97650361c645bc99f806054de21eb187bc0a704ed38d3d4c2871a117c19b6da7e9a3d808481c46b22652d15b899ad3792da5419e50ee38759560002388a26469706673582212207bf5a2f53e4ca50af11e45ba27efd79b8b4ef67c723c5dca0ce37ecdc616b68d64736f6c63430008110033","opcodes":"PUSH1 0x80 PUSH1 0x40 MSTORE CALLVALUE DUP1 ISZERO PUSH2 0x10 JUMPI PUSH1 0x0 DUP1 REVERT JUMPDEST POP PUSH2 0x33CA DUP1 PUSH2 0x20 PUSH1 0x0 CODECOPY PUSH1 0x0 RETURN INVALID PUSH1 0x80 PUSH1 0x40 MSTORE CALLVALUE DUP1 ISZERO PUSH2 0x10 JUMPI PUSH1 0x0 DUP1 REVERT JUMPDEST POP PUSH1 0x4 CALLDATASIZE LT PUSH2 0x88 JUMPI PUSH1 0x0 CALLDATALOAD PUSH1 0xE0 SHR DUP1 PUSH4 0x66E41CB7 GT PUSH2 0x5B JUMPI DUP1 PUSH4 0x66E41CB7 EQ PUSH2 0x14D JUMPI DUP1 PUSH4 0xB1E9DFAA EQ PUSH2 0x16B JUMPI DUP1 PUSH4 0xD5F679B1 EQ PUSH2 0x19B JUMPI DUP1 PUSH4 0xF8A8FD6D EQ PUSH2 0x1CB JUMPI PUSH2 0x88 JUMP JUMPDEST DUP1 PUSH4 0x3B007D8E EQ PUSH2 0x8D JUMPI DUP1 PUSH4 0x41A3AA0C EQ PUSH2 0xBD JUMPI DUP1 PUSH4 0x5B6D3844 EQ PUSH2 0xED JUMPI DUP1 PUSH4 0x5DDA416E EQ PUSH2 0x11D JUMPI JUMPDEST PUSH1 0x0 DUP1 REVERT JUMPDEST PUSH2 0xA7 PUSH1 0x4 DUP1 CALLDATASIZE SUB DUP2 ADD SWAP1 PUSH2 0xA2 SWAP2 SWAP1 PUSH2 0x2370 JUMP JUMPDEST PUSH2 0x1E9 JUMP JUMPDEST PUSH1 0x40 MLOAD PUSH2 0xB4 SWAP2 SWAP1 PUSH2 0x24EB JUMP JUMPDEST PUSH1 0x40 MLOAD DUP1 SWAP2 SUB SWAP1 RETURN JUMPDEST PUSH2 0xD7 PUSH1 0x4 DUP1 CALLDATASIZE SUB DUP2 ADD SWAP1 PUSH2 0xD2 SWAP2 SWAP1 PUSH2 0x250D JUMP JUMPDEST PUSH2 0x217 JUMP JUMPDEST PUSH1 0x40 MLOAD PUSH2 0xE4 SWAP2 SWAP1 PUSH2 0x25C3 JUMP JUMPDEST PUSH1 0x40 MLOAD DUP1 SWAP2 SUB SWAP1 RETURN JUMPDEST PUSH2 0x107 PUSH1 0x4 DUP1 CALLDATASIZE SUB DUP2 ADD SWAP1 PUSH2 0x102 SWAP2 SWAP1 PUSH2 0x27A5 JUMP JUMPDEST PUSH2 0x25C JUMP JUMPDEST PUSH1 0x40 MLOAD PUSH2 0x114 SWAP2 SWAP1 PUSH2 0x25C3 JUMP JUMPDEST PUSH1 0x40 MLOAD DUP1 SWAP2 SUB SWAP1 RETURN JUMPDEST PUSH2 0x137 PUSH1 0x4 DUP1 CALLDATASIZE SUB DUP2 ADD SWAP1 PUSH2 0x132 SWAP2 SWAP1 PUSH2 0x29D7 JUMP JUMPDEST PUSH2 0x623 JUMP JUMPDEST PUSH1 0x40 MLOAD PUSH2 0x144 SWAP2 SWAP1 PUSH2 0x2A5F JUMP JUMPDEST PUSH1 0x40 MLOAD DUP1 SWAP2 SUB SWAP1 RETURN JUMPDEST PUSH2 0x155 PUSH2 0x659 JUMP JUMPDEST PUSH1 0x40 MLOAD PUSH2 0x162 SWAP2 SWAP1 PUSH2 0x24EB JUMP JUMPDEST PUSH1 0x40 MLOAD DUP1 SWAP2 SUB SWAP1 RETURN JUMPDEST PUSH2 0x185 PUSH1 0x4 DUP1 CALLDATASIZE SUB DUP2 ADD SWAP1 PUSH2 0x180 SWAP2 SWAP1 PUSH2 0x2C11 JUMP JUMPDEST PUSH2 0x765 JUMP JUMPDEST PUSH1 0x40 MLOAD PUSH2 0x192 SWAP2 SWAP1 PUSH2 0x25C3 JUMP JUMPDEST PUSH1 0x40 MLOAD DUP1 SWAP2 SUB SWAP1 RETURN JUMPDEST PUSH2 0x1B5 PUSH1 0x4 DUP1 CALLDATASIZE SUB DUP2 ADD SWAP1 PUSH2 0x1B0 SWAP2 SWAP1 PUSH2 0x2CB8 JUMP JUMPDEST PUSH2 0xA17 JUMP JUMPDEST PUSH1 0x40 MLOAD PUSH2 0x1C2 SWAP2 SWAP1 PUSH2 0x24EB JUMP JUMPDEST PUSH1 0x40 MLOAD DUP1 SWAP2 SUB SWAP1 RETURN JUMPDEST PUSH2 0x1D3 PUSH2 0xA86 JUMP JUMPDEST PUSH1 0x40 MLOAD PUSH2 0x1E0 SWAP2 SWAP1 PUSH2 0x24EB JUMP JUMPDEST PUSH1 0x40 MLOAD DUP1 SWAP2 SUB SWAP1 RETURN JUMPDEST PUSH2 0x1F1 PUSH2 0x21F3 JUMP JUMPDEST PUSH2 0x20F PUSH2 0x1FF DUP5 PUSH1 0x0 PUSH2 0xB91 JUMP JUMPDEST PUSH2 0x20A DUP5 PUSH1 0x0 PUSH2 0xB91 JUMP JUMPDEST PUSH2 0xBAD JUMP JUMPDEST SWAP1 POP SWAP3 SWAP2 POP POP JUMP JUMPDEST PUSH1 0x0 DUP1 PUSH2 0x225 DUP6 PUSH1 0x0 PUSH2 0xB91 JUMP JUMPDEST SWAP1 POP PUSH1 0x0 PUSH2 0x234 DUP6 PUSH1 0x0 PUSH2 0xB91 JUMP JUMPDEST SWAP1 POP PUSH1 0x0 PUSH2 0x243 DUP6 PUSH1 0x0 PUSH2 0xB91 JUMP JUMPDEST SWAP1 POP PUSH2 0x250 DUP4 DUP4 DUP4 PUSH2 0xDD5 JUMP JUMPDEST SWAP4 POP POP POP POP SWAP4 SWAP3 POP POP POP JUMP JUMPDEST PUSH1 0x0 DUP1 PUSH2 0x26A DUP8 PUSH1 0x0 PUSH2 0xB91 JUMP JUMPDEST SWAP1 POP PUSH1 0x0 PUSH2 0x279 DUP5 PUSH1 0x0 PUSH2 0xB91 JUMP JUMPDEST SWAP1 POP PUSH1 0x0 PUSH2 0x290 DUP3 DUP4 PUSH2 0xE28 SWAP1 SWAP2 SWAP1 PUSH4 0xFFFFFFFF AND JUMP JUMPDEST SWAP1 POP PUSH1 0x0 DUP8 MLOAD PUSH8 0xFFFFFFFFFFFFFFFF DUP2 GT ISZERO PUSH2 0x2AF JUMPI PUSH2 0x2AE PUSH2 0x2245 JUMP JUMPDEST JUMPDEST PUSH1 0x40 MLOAD SWAP1 DUP1 DUP3 MSTORE DUP1 PUSH1 0x20 MUL PUSH1 0x20 ADD DUP3 ADD PUSH1 0x40 MSTORE DUP1 ISZERO PUSH2 0x2E8 JUMPI DUP2 PUSH1 0x20 ADD JUMPDEST PUSH2 0x2D5 PUSH2 0x21F3 JUMP JUMPDEST DUP2 MSTORE PUSH1 0x20 ADD SWAP1 PUSH1 0x1 SWAP1 SUB SWAP1 DUP2 PUSH2 0x2CD JUMPI SWAP1 POP JUMPDEST POP SWAP1 POP PUSH1 0x0 JUMPDEST DUP9 MLOAD DUP2 LT ISZERO PUSH2 0x3CC JUMPI PUSH1 0x0 PUSH2 0x332 PUSH2 0x321 DUP12 DUP5 DUP2 MLOAD DUP2 LT PUSH2 0x312 JUMPI PUSH2 0x311 PUSH2 0x2D01 JUMP JUMPDEST JUMPDEST PUSH1 0x20 MUL PUSH1 0x20 ADD ADD MLOAD PUSH1 0x0 PUSH2 0xB91 JUMP JUMPDEST DUP6 DUP9 PUSH2 0xECD SWAP1 SWAP3 SWAP2 SWAP1 PUSH4 0xFFFFFFFF AND JUMP JUMPDEST SWAP1 POP DUP1 DUP4 DUP4 DUP2 MLOAD DUP2 LT PUSH2 0x348 JUMPI PUSH2 0x347 PUSH2 0x2D01 JUMP JUMPDEST JUMPDEST PUSH1 0x20 MUL PUSH1 0x20 ADD ADD DUP2 SWAP1 MSTORE POP PUSH2 0x37A DUP4 DUP4 DUP2 MLOAD DUP2 LT PUSH2 0x369 JUMPI PUSH2 0x368 PUSH2 0x2D01 JUMP JUMPDEST JUMPDEST PUSH1 0x20 MUL PUSH1 0x20 ADD ADD MLOAD PUSH1 0x0 ADD MLOAD PUSH2 0xEF1 JUMP JUMPDEST PUSH2 0x3B8 PUSH1 0x40 MLOAD DUP1 PUSH1 0x40 ADD PUSH1 0x40 MSTORE DUP1 PUSH1 0x20 DUP2 MSTORE PUSH1 0x20 ADD PUSH32 0x2D2D2D2D2D2D2D2D2D2D2D2D2D2D2D2D2D2D2D2D2D2D2D2D2D2D2D2D2D2D2D2D DUP2 MSTORE POP PUSH2 0xF8A JUMP JUMPDEST POP DUP1 DUP1 PUSH2 0x3C4 SWAP1 PUSH2 0x2D5F JUMP JUMPDEST SWAP2 POP POP PUSH2 0x2EE JUMP JUMPDEST POP PUSH1 0x0 PUSH2 0x3D7 PUSH2 0x1023 JUMP JUMPDEST SWAP1 POP PUSH2 0x3E6 DUP2 PUSH1 0x0 ADD MLOAD PUSH2 0xEF1 JUMP JUMPDEST PUSH1 0x0 JUMPDEST DUP11 PUSH1 0x0 DUP2 MLOAD DUP2 LT PUSH2 0x3FD JUMPI PUSH2 0x3FC PUSH2 0x2D01 JUMP JUMPDEST JUMPDEST PUSH1 0x20 MUL PUSH1 0x20 ADD ADD MLOAD MLOAD DUP2 LT ISZERO PUSH2 0x4D7 JUMPI PUSH1 0x0 PUSH2 0x44F DUP13 PUSH1 0x0 DUP2 MLOAD DUP2 LT PUSH2 0x426 JUMPI PUSH2 0x425 PUSH2 0x2D01 JUMP JUMPDEST JUMPDEST PUSH1 0x20 MUL PUSH1 0x20 ADD ADD MLOAD DUP4 DUP2 MLOAD DUP2 LT PUSH2 0x440 JUMPI PUSH2 0x43F PUSH2 0x2D01 JUMP JUMPDEST JUMPDEST PUSH1 0x20 MUL PUSH1 0x20 ADD ADD MLOAD PUSH1 0x0 PUSH2 0xB91 JUMP JUMPDEST SWAP1 POP PUSH1 0x0 DUP3 SUB PUSH2 0x49C JUMPI PUSH2 0x499 DUP13 PUSH1 0x0 DUP2 MLOAD DUP2 LT PUSH2 0x470 JUMPI PUSH2 0x46F PUSH2 0x2D01 JUMP JUMPDEST JUMPDEST PUSH1 0x20 MUL PUSH1 0x20 ADD ADD MLOAD DUP4 DUP2 MLOAD DUP2 LT PUSH2 0x48A JUMPI PUSH2 0x489 PUSH2 0x2D01 JUMP JUMPDEST JUMPDEST PUSH1 0x20 MUL PUSH1 0x20 ADD ADD MLOAD PUSH1 0x1 PUSH2 0xB91 JUMP JUMPDEST SWAP1 POP JUMPDEST PUSH2 0x4C1 DUP7 PUSH2 0x4B3 DUP4 DUP7 PUSH2 0xBAD SWAP1 SWAP2 SWAP1 PUSH4 0xFFFFFFFF AND JUMP JUMPDEST PUSH2 0x1065 SWAP1 SWAP2 SWAP1 PUSH4 0xFFFFFFFF AND JUMP JUMPDEST SWAP3 POP POP DUP1 DUP1 PUSH2 0x4CF SWAP1 PUSH2 0x2D5F JUMP JUMPDEST SWAP2 POP POP PUSH2 0x3E9 JUMP JUMPDEST POP PUSH2 0x51B PUSH1 0x40 MLOAD DUP1 PUSH1 0x40 ADD PUSH1 0x40 MSTORE DUP1 PUSH1 0xC DUP2 MSTORE PUSH1 0x20 ADD PUSH32 0x6553756D206C656E6774683A0000000000000000000000000000000000000000 DUP2 MSTORE POP DUP3 PUSH1 0x40 ADD MLOAD PUSH2 0x1087 JUMP JUMPDEST PUSH2 0x528 DUP2 PUSH1 0x0 ADD MLOAD PUSH2 0xEF1 JUMP JUMPDEST PUSH2 0x53F PUSH2 0x536 DUP10 PUSH1 0x0 PUSH2 0xB91 JUMP JUMPDEST PUSH1 0x0 ADD MLOAD PUSH2 0xEF1 JUMP JUMPDEST PUSH2 0x55C PUSH2 0x54D DUP10 PUSH1 0x0 PUSH2 0xB91 JUMP JUMPDEST DUP3 PUSH2 0x1123 SWAP1 SWAP2 SWAP1 PUSH4 0xFFFFFFFF AND JUMP JUMPDEST PUSH2 0x5AC JUMPI PUSH2 0x59E PUSH1 0x40 MLOAD DUP1 PUSH1 0x40 ADD PUSH1 0x40 MSTORE DUP1 PUSH1 0x4 DUP2 MSTORE PUSH1 0x20 ADD PUSH32 0x6865726500000000000000000000000000000000000000000000000000000000 DUP2 MSTORE POP PUSH2 0xF8A JUMP JUMPDEST PUSH1 0x0 SWAP6 POP POP POP POP POP POP PUSH2 0x61A JUMP JUMPDEST PUSH1 0x0 PUSH2 0x5B9 DUP12 DUP5 DUP8 PUSH2 0x765 JUMP JUMPDEST SWAP1 POP PUSH2 0x5FA PUSH1 0x40 MLOAD DUP1 PUSH1 0x40 ADD PUSH1 0x40 MSTORE DUP1 PUSH1 0xE DUP2 MSTORE PUSH1 0x20 ADD PUSH32 0x636865636B206576657279206973000000000000000000000000000000000000 DUP2 MSTORE POP DUP3 PUSH2 0x114F JUMP JUMPDEST DUP1 ISZERO PUSH2 0x60F JUMPI PUSH1 0x1 SWAP7 POP POP POP POP POP POP POP PUSH2 0x61A JUMP JUMPDEST PUSH1 0x0 SWAP7 POP POP POP POP POP POP POP JUMPDEST SWAP6 SWAP5 POP POP POP POP POP JUMP JUMPDEST PUSH1 0x0 DUP4 DUP4 DUP4 PUSH1 0x40 MLOAD PUSH1 0x20 ADD PUSH2 0x63A SWAP4 SWAP3 SWAP2 SWAP1 PUSH2 0x2E57 JUMP JUMPDEST PUSH1 0x40 MLOAD PUSH1 0x20 DUP2 DUP4 SUB SUB DUP2 MSTORE SWAP1 PUSH1 0x40 MSTORE DUP1 MLOAD SWAP1 PUSH1 0x20 ADD KECCAK256 SWAP1 POP SWAP4 SWAP3 POP POP POP JUMP JUMPDEST PUSH2 0x661 PUSH2 0x21F3 JUMP JUMPDEST PUSH1 0x0 PUSH1 0x40 MLOAD DUP1 PUSH1 0x40 ADD PUSH1 0x40 MSTORE DUP1 PUSH1 0xB DUP2 MSTORE PUSH1 0x20 ADD PUSH32 0x68656C6C6F20776F726C64000000000000000000000000000000000000000000 DUP2 MSTORE POP SWAP1 POP PUSH1 0x0 PUSH2 0x6C9 PUSH1 0x0 PUSH1 0x40 MLOAD DUP1 PUSH1 0xA0 ADD PUSH1 0x40 MSTORE DUP1 PUSH1 0x80 DUP2 MSTORE PUSH1 0x20 ADD PUSH2 0x3315 PUSH1 0x80 SWAP2 CODECOPY PUSH2 0xB91 SWAP1 SWAP2 SWAP1 PUSH4 0xFFFFFFFF AND JUMP JUMPDEST SWAP1 POP PUSH1 0x0 PUSH2 0x716 PUSH1 0x0 PUSH1 0x40 MLOAD DUP1 PUSH1 0x40 ADD PUSH1 0x40 MSTORE DUP1 PUSH1 0x3 DUP2 MSTORE PUSH1 0x20 ADD PUSH32 0x100010000000000000000000000000000000000000000000000000000000000 DUP2 MSTORE POP PUSH2 0xB91 SWAP1 SWAP2 SWAP1 PUSH4 0xFFFFFFFF AND JUMP JUMPDEST SWAP1 POP PUSH1 0x0 PUSH2 0x747 PUSH1 0x0 PUSH1 0x40 MLOAD DUP1 PUSH2 0x120 ADD PUSH1 0x40 MSTORE DUP1 PUSH1 0xE7 DUP2 MSTORE PUSH1 0x20 ADD PUSH2 0x322E PUSH1 0xE7 SWAP2 CODECOPY PUSH2 0xB91 SWAP1 SWAP2 SWAP1 PUSH4 0xFFFFFFFF AND JUMP JUMPDEST SWAP1 POP PUSH2 0x75C DUP2 DUP5 PUSH2 0xBAD SWAP1 SWAP2 SWAP1 PUSH4 0xFFFFFFFF AND JUMP JUMPDEST SWAP5 POP POP POP POP POP SWAP1 JUMP JUMPDEST PUSH1 0x0 DUP1 PUSH2 0x77B DUP4 DUP5 PUSH2 0xE28 SWAP1 SWAP2 SWAP1 PUSH4 0xFFFFFFFF AND JUMP JUMPDEST SWAP1 POP PUSH1 0x0 JUMPDEST DUP6 PUSH1 0x2 DUP2 MLOAD DUP2 LT PUSH2 0x794 JUMPI PUSH2 0x793 PUSH2 0x2D01 JUMP JUMPDEST JUMPDEST PUSH1 0x20 MUL PUSH1 0x20 ADD ADD MLOAD MLOAD DUP2 LT ISZERO PUSH2 0xA09 JUMPI PUSH1 0x0 PUSH2 0x7E6 DUP8 PUSH1 0x2 DUP2 MLOAD DUP2 LT PUSH2 0x7BD JUMPI PUSH2 0x7BC PUSH2 0x2D01 JUMP JUMPDEST JUMPDEST PUSH1 0x20 MUL PUSH1 0x20 ADD ADD MLOAD DUP4 DUP2 MLOAD DUP2 LT PUSH2 0x7D7 JUMPI PUSH2 0x7D6 PUSH2 0x2D01 JUMP JUMPDEST JUMPDEST PUSH1 0x20 MUL PUSH1 0x20 ADD ADD MLOAD PUSH1 0x0 PUSH2 0xB91 JUMP JUMPDEST SWAP1 POP PUSH1 0x0 PUSH2 0x82A DUP9 PUSH1 0x1 DUP2 MLOAD DUP2 LT PUSH2 0x801 JUMPI PUSH2 0x800 PUSH2 0x2D01 JUMP JUMPDEST JUMPDEST PUSH1 0x20 MUL PUSH1 0x20 ADD ADD MLOAD DUP5 DUP2 MLOAD DUP2 LT PUSH2 0x81B JUMPI PUSH2 0x81A PUSH2 0x2D01 JUMP JUMPDEST JUMPDEST PUSH1 0x20 MUL PUSH1 0x20 ADD ADD MLOAD PUSH1 0x0 PUSH2 0xB91 JUMP JUMPDEST SWAP1 POP PUSH1 0x0 PUSH2 0x86E DUP10 PUSH1 0x0 DUP2 MLOAD DUP2 LT PUSH2 0x845 JUMPI PUSH2 0x844 PUSH2 0x2D01 JUMP JUMPDEST JUMPDEST PUSH1 0x20 MUL PUSH1 0x20 ADD ADD MLOAD DUP6 DUP2 MLOAD DUP2 LT PUSH2 0x85F JUMPI PUSH2 0x85E PUSH2 0x2D01 JUMP JUMPDEST JUMPDEST PUSH1 0x20 MUL PUSH1 0x20 ADD ADD MLOAD PUSH1 0x0 PUSH2 0xB91 JUMP JUMPDEST SWAP1 POP PUSH1 0x0 DUP9 DUP6 DUP2 MLOAD DUP2 LT PUSH2 0x885 JUMPI PUSH2 0x884 PUSH2 0x2D01 JUMP JUMPDEST JUMPDEST PUSH1 0x20 MUL PUSH1 0x20 ADD ADD MLOAD SWAP1 POP PUSH1 0x0 PUSH2 0x89C DUP6 DUP11 DUP10 PUSH2 0x11EB JUMP JUMPDEST SWAP1 POP PUSH2 0x8DC PUSH1 0x40 MLOAD DUP1 PUSH1 0x40 ADD PUSH1 0x40 MSTORE DUP1 PUSH1 0x7 DUP2 MSTORE PUSH1 0x20 ADD PUSH32 0x76696E2069733A00000000000000000000000000000000000000000000000000 DUP2 MSTORE POP PUSH2 0xF8A JUMP JUMPDEST PUSH2 0x8E9 DUP2 PUSH1 0x0 ADD MLOAD PUSH2 0xEF1 JUMP JUMPDEST PUSH1 0x0 PUSH2 0x8FE PUSH2 0x8F6 PUSH2 0x12E8 JUMP JUMPDEST DUP5 DUP7 DUP12 PUSH2 0x132A JUMP JUMPDEST SWAP1 POP PUSH2 0x93E PUSH1 0x40 MLOAD DUP1 PUSH1 0x40 ADD PUSH1 0x40 MSTORE DUP1 PUSH1 0x7 DUP2 MSTORE PUSH1 0x20 ADD PUSH32 0x6169652069733A00000000000000000000000000000000000000000000000000 DUP2 MSTORE POP PUSH2 0xF8A JUMP JUMPDEST PUSH2 0x94B DUP2 PUSH1 0x0 ADD MLOAD PUSH2 0xEF1 JUMP JUMPDEST PUSH1 0x0 PUSH2 0x958 DUP7 DUP4 DUP12 PUSH2 0xECD JUMP JUMPDEST SWAP1 POP PUSH2 0x998 PUSH1 0x40 MLOAD DUP1 PUSH1 0x40 ADD PUSH1 0x40 MSTORE DUP1 PUSH1 0x8 DUP2 MSTORE PUSH1 0x20 ADD PUSH32 0x756961652069733A000000000000000000000000000000000000000000000000 DUP2 MSTORE POP PUSH2 0xF8A JUMP JUMPDEST PUSH2 0x9A5 DUP2 PUSH1 0x0 ADD MLOAD PUSH2 0xEF1 JUMP JUMPDEST PUSH2 0x9C6 PUSH1 0x40 MLOAD DUP1 PUSH1 0x60 ADD PUSH1 0x40 MSTORE DUP1 PUSH1 0x40 DUP2 MSTORE PUSH1 0x20 ADD PUSH2 0x312E PUSH1 0x40 SWAP2 CODECOPY PUSH2 0xF8A JUMP JUMPDEST PUSH2 0x9D9 DUP2 DUP5 PUSH2 0x1123 SWAP1 SWAP2 SWAP1 PUSH4 0xFFFFFFFF AND JUMP JUMPDEST PUSH2 0x9EF JUMPI PUSH1 0x0 SWAP10 POP POP POP POP POP POP POP POP POP POP PUSH2 0xA10 JUMP JUMPDEST POP POP POP POP POP POP POP DUP1 DUP1 PUSH2 0xA01 SWAP1 PUSH2 0x2D5F JUMP JUMPDEST SWAP2 POP POP PUSH2 0x780 JUMP JUMPDEST POP PUSH1 0x1 SWAP2 POP POP JUMPDEST SWAP4 SWAP3 POP POP POP JUMP JUMPDEST PUSH2 0xA1F PUSH2 0x21F3 JUMP JUMPDEST PUSH1 0x0 PUSH2 0xA69 PUSH1 0x0 PUSH1 0x40 MLOAD DUP1 PUSH1 0x40 ADD PUSH1 0x40 MSTORE DUP1 PUSH1 0x2 DUP2 MSTORE PUSH1 0x20 ADD PUSH31 0x1000000000000000000000000000000000000000000000000000000000000 DUP2 MSTORE POP PUSH2 0xB91 SWAP1 SWAP2 SWAP1 PUSH4 0xFFFFFFFF AND JUMP JUMPDEST SWAP1 POP PUSH2 0xA7E DUP2 DUP5 PUSH2 0xBAD SWAP1 SWAP2 SWAP1 PUSH4 0xFFFFFFFF AND JUMP JUMPDEST SWAP2 POP POP SWAP2 SWAP1 POP JUMP JUMPDEST PUSH2 0xA8E PUSH2 0x21F3 JUMP JUMPDEST PUSH1 0x0 PUSH1 0x40 MLOAD DUP1 PUSH1 0x40 ADD PUSH1 0x40 MSTORE DUP1 PUSH1 0xB DUP2 MSTORE PUSH1 0x20 ADD PUSH32 0x68656C6C6F20776F726C64000000000000000000000000000000000000000000 DUP2 MSTORE POP SWAP1 POP PUSH1 0x0 PUSH2 0xAF6 PUSH1 0x0 PUSH1 0x40 MLOAD DUP1 PUSH1 0xA0 ADD PUSH1 0x40 MSTORE DUP1 PUSH1 0x80 DUP2 MSTORE PUSH1 0x20 ADD PUSH2 0x3315 PUSH1 0x80 SWAP2 CODECOPY PUSH2 0xB91 SWAP1 SWAP2 SWAP1 PUSH4 0xFFFFFFFF AND JUMP JUMPDEST SWAP1 POP PUSH1 0x0 PUSH2 0xB43 PUSH1 0x0 PUSH1 0x40 MLOAD DUP1 PUSH1 0x40 ADD PUSH1 0x40 MSTORE DUP1 PUSH1 0x3 DUP2 MSTORE PUSH1 0x20 ADD PUSH32 0x100010000000000000000000000000000000000000000000000000000000000 DUP2 MSTORE POP PUSH2 0xB91 SWAP1 SWAP2 SWAP1 PUSH4 0xFFFFFFFF AND JUMP JUMPDEST SWAP1 POP PUSH1 0x0 PUSH2 0xB73 PUSH1 0x0 PUSH1 0x40 MLOAD DUP1 PUSH1 0xE0 ADD PUSH1 0x40 MSTORE DUP1 PUSH1 0xC0 DUP2 MSTORE PUSH1 0x20 ADD PUSH2 0x316E PUSH1 0xC0 SWAP2 CODECOPY PUSH2 0xB91 SWAP1 SWAP2 SWAP1 PUSH4 0xFFFFFFFF AND JUMP JUMPDEST SWAP1 POP PUSH2 0xB88 DUP2 DUP5 PUSH2 0xBAD SWAP1 SWAP2 SWAP1 PUSH4 0xFFFFFFFF AND JUMP JUMPDEST SWAP5 POP POP POP POP POP SWAP1 JUMP JUMPDEST PUSH2 0xB99 PUSH2 0x21F3 JUMP JUMPDEST PUSH2 0xBA5 DUP4 DUP4 PUSH1 0x0 PUSH2 0x1474 JUMP JUMPDEST SWAP1 POP SWAP3 SWAP2 POP POP JUMP JUMPDEST PUSH2 0xBB5 PUSH2 0x21F3 JUMP JUMPDEST PUSH1 0x0 DUP4 PUSH1 0x40 ADD MLOAD EQ DUP1 ISZERO PUSH2 0xBCD JUMPI POP PUSH1 0x0 DUP3 PUSH1 0x40 ADD MLOAD EQ JUMPDEST ISZERO PUSH2 0xBE1 JUMPI PUSH2 0xBDA PUSH2 0x1023 JUMP JUMPDEST SWAP1 POP PUSH2 0xDCF JUMP JUMPDEST PUSH1 0x0 DUP4 PUSH1 0x40 ADD MLOAD SUB PUSH2 0xBF5 JUMPI DUP2 SWAP1 POP PUSH2 0xDCF JUMP JUMPDEST PUSH1 0x0 DUP3 PUSH1 0x40 ADD MLOAD SUB PUSH2 0xC09 JUMPI DUP3 SWAP1 POP PUSH2 0xDCF JUMP JUMPDEST PUSH1 0x60 PUSH1 0x0 DUP1 PUSH2 0xC1A DUP7 DUP7 PUSH1 0x0 PUSH2 0x1541 JUMP JUMPDEST SWAP1 POP DUP6 PUSH1 0x20 ADD MLOAD DUP1 PUSH2 0xC2D JUMPI POP DUP5 PUSH1 0x20 ADD MLOAD JUMPDEST ISZERO PUSH2 0xD5A JUMPI DUP6 PUSH1 0x20 ADD MLOAD DUP1 ISZERO PUSH2 0xC44 JUMPI POP DUP5 PUSH1 0x20 ADD MLOAD JUMPDEST ISZERO PUSH2 0xCAB JUMPI PUSH1 0x0 DUP2 SLT PUSH2 0xC75 JUMPI PUSH2 0xC68 DUP7 PUSH1 0x0 ADD MLOAD DUP7 PUSH1 0x0 ADD MLOAD DUP9 PUSH1 0x40 ADD MLOAD PUSH2 0x171E JUMP JUMPDEST DUP1 SWAP4 POP DUP2 SWAP5 POP POP POP PUSH2 0xC95 JUMP JUMPDEST PUSH2 0xC8C DUP6 PUSH1 0x0 ADD MLOAD DUP8 PUSH1 0x0 ADD MLOAD DUP8 PUSH1 0x40 ADD MLOAD PUSH2 0x171E JUMP JUMPDEST DUP1 SWAP4 POP DUP2 SWAP5 POP POP POP JUMPDEST PUSH1 0x1 DUP5 PUSH1 0x20 ADD SWAP1 ISZERO ISZERO SWAP1 DUP2 ISZERO ISZERO DUP2 MSTORE POP POP PUSH2 0xD55 JUMP JUMPDEST PUSH1 0x1 DUP2 SUB PUSH2 0xCE6 JUMPI PUSH2 0xCC5 DUP7 PUSH1 0x0 ADD MLOAD DUP7 PUSH1 0x0 ADD MLOAD PUSH2 0x1854 JUMP JUMPDEST DUP1 SWAP4 POP DUP2 SWAP5 POP POP POP DUP6 PUSH1 0x20 ADD MLOAD DUP5 PUSH1 0x20 ADD SWAP1 ISZERO ISZERO SWAP1 DUP2 ISZERO ISZERO DUP2 MSTORE POP POP PUSH2 0xD54 JUMP JUMPDEST PUSH32 0xFFFFFFFFFFFFFFFFFFFFFFFFFFFFFFFFFFFFFFFFFFFFFFFFFFFFFFFFFFFFFFFF DUP2 SUB PUSH2 0xD41 JUMPI PUSH2 0xD1F DUP6 PUSH1 0x0 ADD MLOAD DUP8 PUSH1 0x0 ADD MLOAD PUSH2 0x1854 JUMP JUMPDEST DUP1 SWAP4 POP DUP2 SWAP5 POP POP POP DUP6 PUSH1 0x20 ADD MLOAD ISZERO DUP5 PUSH1 0x20 ADD SWAP1 ISZERO ISZERO SWAP1 DUP2 ISZERO ISZERO DUP2 MSTORE POP POP PUSH2 0xD53 JUMP JUMPDEST PUSH2 0xD49 PUSH2 0x1023 JUMP JUMPDEST SWAP4 POP POP POP POP PUSH2 0xDCF JUMP JUMPDEST JUMPDEST JUMPDEST PUSH2 0xDB8 JUMP JUMPDEST PUSH1 0x0 DUP2 SLT PUSH2 0xD86 JUMPI PUSH2 0xD79 DUP7 PUSH1 0x0 ADD MLOAD DUP7 PUSH1 0x0 ADD MLOAD DUP9 PUSH1 0x40 ADD MLOAD PUSH2 0x171E JUMP JUMPDEST DUP1 SWAP4 POP DUP2 SWAP5 POP POP POP PUSH2 0xDA6 JUMP JUMPDEST PUSH2 0xD9D DUP6 PUSH1 0x0 ADD MLOAD DUP8 PUSH1 0x0 ADD MLOAD DUP8 PUSH1 0x40 ADD MLOAD PUSH2 0x171E JUMP JUMPDEST DUP1 SWAP4 POP DUP2 SWAP5 POP POP POP JUMPDEST PUSH1 0x0 DUP5 PUSH1 0x20 ADD SWAP1 ISZERO ISZERO SWAP1 DUP2 ISZERO ISZERO DUP2 MSTORE POP POP JUMPDEST DUP3 DUP5 PUSH1 0x0 ADD DUP2 SWAP1 MSTORE POP DUP2 DUP5 PUSH1 0x40 ADD DUP2 DUP2 MSTORE POP POP POP POP POP JUMPDEST SWAP3 SWAP2 POP POP JUMP JUMPDEST PUSH1 0x0 DUP4 PUSH1 0x20 ADD MLOAD ISZERO DUP1 ISZERO PUSH2 0xDEB JUMPI POP DUP3 PUSH1 0x20 ADD MLOAD ISZERO JUMPDEST PUSH2 0xDF4 JUMPI PUSH1 0x0 DUP1 REVERT JUMPDEST PUSH1 0x0 PUSH2 0xE13 PUSH2 0xE04 DUP7 DUP6 DUP8 PUSH2 0xECD JUMP JUMPDEST PUSH2 0xE0C PUSH2 0x12E8 JUMP JUMPDEST PUSH1 0x1 PUSH2 0x1541 JUMP JUMPDEST EQ PUSH2 0xE1D JUMPI PUSH1 0x0 DUP1 REVERT JUMPDEST PUSH1 0x1 SWAP1 POP SWAP4 SWAP3 POP POP POP JUMP JUMPDEST PUSH2 0xE30 PUSH2 0x21F3 JUMP JUMPDEST PUSH1 0x0 PUSH2 0xE3C DUP5 DUP5 PUSH2 0xBAD JUMP JUMPDEST SWAP1 POP PUSH1 0x0 PUSH2 0xE5C DUP3 PUSH2 0xE4C PUSH2 0x197F JUMP JUMPDEST PUSH2 0xE57 DUP6 PUSH1 0x2 PUSH2 0x19C1 JUMP JUMPDEST PUSH2 0x11EB JUMP JUMPDEST SWAP1 POP PUSH2 0xE68 DUP6 DUP6 PUSH2 0x1123 JUMP JUMPDEST PUSH2 0xEB7 JUMPI PUSH1 0x0 PUSH2 0xE78 DUP7 DUP7 PUSH2 0x1A3D JUMP JUMPDEST SWAP1 POP PUSH1 0x0 PUSH2 0xE98 DUP3 PUSH2 0xE88 PUSH2 0x197F JUMP JUMPDEST PUSH2 0xE93 DUP6 PUSH1 0x2 PUSH2 0x19C1 JUMP JUMPDEST PUSH2 0x11EB JUMP JUMPDEST SWAP1 POP PUSH2 0xEAE PUSH2 0xEA7 DUP5 DUP4 PUSH2 0x1A3D JUMP JUMPDEST PUSH1 0x2 PUSH2 0x1C8C JUMP JUMPDEST SWAP5 POP POP POP PUSH2 0xEC5 JUMP JUMPDEST PUSH2 0xEC2 DUP2 PUSH1 0x2 PUSH2 0x1C8C JUMP JUMPDEST SWAP3 POP JUMPDEST POP POP SWAP3 SWAP2 POP POP JUMP JUMPDEST PUSH2 0xED5 PUSH2 0x21F3 JUMP JUMPDEST PUSH2 0xEE8 PUSH2 0xEE2 DUP6 DUP6 PUSH2 0xE28 JUMP JUMPDEST DUP4 PUSH2 0x1065 JUMP JUMPDEST SWAP1 POP SWAP4 SWAP3 POP POP POP JUMP JUMPDEST PUSH2 0xF87 DUP2 PUSH1 0x40 MLOAD PUSH1 0x24 ADD PUSH2 0xF05 SWAP2 SWAP1 PUSH2 0x2EDA JUMP JUMPDEST PUSH1 0x40 MLOAD PUSH1 0x20 DUP2 DUP4 SUB SUB DUP2 MSTORE SWAP1 PUSH1 0x40 MSTORE PUSH32 0xBE77F5600000000000000000000000000000000000000000000000000000000 PUSH28 0xFFFFFFFFFFFFFFFFFFFFFFFFFFFFFFFFFFFFFFFFFFFFFFFFFFFFFFFF NOT AND PUSH1 0x20 DUP3 ADD DUP1 MLOAD PUSH28 0xFFFFFFFFFFFFFFFFFFFFFFFFFFFFFFFFFFFFFFFFFFFFFFFFFFFFFFFF DUP4 DUP2 DUP4 AND OR DUP4 MSTORE POP POP POP POP PUSH2 0x1DEE JUMP JUMPDEST POP JUMP JUMPDEST PUSH2 0x1020 DUP2 PUSH1 0x40 MLOAD PUSH1 0x24 ADD PUSH2 0xF9E SWAP2 SWAP1 PUSH2 0x2F46 JUMP JUMPDEST PUSH1 0x40 MLOAD PUSH1 0x20 DUP2 DUP4 SUB SUB DUP2 MSTORE SWAP1 PUSH1 0x40 MSTORE PUSH32 0x41304FAC00000000000000000000000000000000000000000000000000000000 PUSH28 0xFFFFFFFFFFFFFFFFFFFFFFFFFFFFFFFFFFFFFFFFFFFFFFFFFFFFFFFF NOT AND PUSH1 0x20 DUP3 ADD DUP1 MLOAD PUSH28 0xFFFFFFFFFFFFFFFFFFFFFFFFFFFFFFFFFFFFFFFFFFFFFFFFFFFFFFFF DUP4 DUP2 DUP4 AND OR DUP4 MSTORE POP POP POP POP PUSH2 0x1DEE JUMP JUMPDEST POP JUMP JUMPDEST PUSH2 0x102B PUSH2 0x21F3 JUMP JUMPDEST PUSH1 0x40 MLOAD DUP1 PUSH1 0x60 ADD PUSH1 0x40 MSTORE DUP1 PUSH1 0x40 MLOAD DUP1 PUSH1 0x40 ADD PUSH1 0x40 MSTORE DUP1 PUSH1 0x20 DUP2 MSTORE PUSH1 0x20 ADD PUSH1 0x0 DUP2 MSTORE POP DUP2 MSTORE PUSH1 0x20 ADD PUSH1 0x0 ISZERO ISZERO DUP2 MSTORE PUSH1 0x20 ADD PUSH1 0x0 DUP2 MSTORE POP SWAP1 POP SWAP1 JUMP JUMPDEST PUSH2 0x106D PUSH2 0x21F3 JUMP JUMPDEST PUSH2 0x107F DUP4 PUSH2 0x1079 PUSH2 0x12E8 JUMP JUMPDEST DUP5 PUSH2 0x11EB JUMP JUMPDEST SWAP1 POP SWAP3 SWAP2 POP POP JUMP JUMPDEST PUSH2 0x111F DUP3 DUP3 PUSH1 0x40 MLOAD PUSH1 0x24 ADD PUSH2 0x109D SWAP3 SWAP2 SWAP1 PUSH2 0x2F77 JUMP JUMPDEST PUSH1 0x40 MLOAD PUSH1 0x20 DUP2 DUP4 SUB SUB DUP2 MSTORE SWAP1 PUSH1 0x40 MSTORE PUSH32 0xB60E72CC00000000000000000000000000000000000000000000000000000000 PUSH28 0xFFFFFFFFFFFFFFFFFFFFFFFFFFFFFFFFFFFFFFFFFFFFFFFFFFFFFFFF NOT AND PUSH1 0x20 DUP3 ADD DUP1 MLOAD PUSH28 0xFFFFFFFFFFFFFFFFFFFFFFFFFFFFFFFFFFFFFFFFFFFFFFFFFFFFFFFF DUP4 DUP2 DUP4 AND OR DUP4 MSTORE POP POP POP POP PUSH2 0x1DEE JUMP JUMPDEST POP POP JUMP JUMPDEST PUSH1 0x0 DUP1 PUSH2 0x1132 DUP5 DUP5 PUSH1 0x1 PUSH2 0x1541 JUMP JUMPDEST SWAP1 POP PUSH1 0x0 DUP2 EQ PUSH2 0x1143 JUMPI PUSH1 0x0 PUSH2 0x1146 JUMP JUMPDEST PUSH1 0x1 JUMPDEST SWAP2 POP POP SWAP3 SWAP2 POP POP JUMP JUMPDEST PUSH2 0x11E7 DUP3 DUP3 PUSH1 0x40 MLOAD PUSH1 0x24 ADD PUSH2 0x1165 SWAP3 SWAP2 SWAP1 PUSH2 0x2FA7 JUMP JUMPDEST PUSH1 0x40 MLOAD PUSH1 0x20 DUP2 DUP4 SUB SUB DUP2 MSTORE SWAP1 PUSH1 0x40 MSTORE PUSH32 0xC3B5563500000000000000000000000000000000000000000000000000000000 PUSH28 0xFFFFFFFFFFFFFFFFFFFFFFFFFFFFFFFFFFFFFFFFFFFFFFFFFFFFFFFF NOT AND PUSH1 0x20 DUP3 ADD DUP1 MLOAD PUSH28 0xFFFFFFFFFFFFFFFFFFFFFFFFFFFFFFFFFFFFFFFFFFFFFFFFFFFFFFFF DUP4 DUP2 DUP4 AND OR DUP4 MSTORE POP POP POP POP PUSH2 0x1DEE JUMP JUMPDEST POP POP JUMP JUMPDEST PUSH2 0x11F3 PUSH2 0x21F3 JUMP JUMPDEST PUSH1 0x0 ISZERO ISZERO DUP4 PUSH1 0x20 ADD MLOAD ISZERO ISZERO EQ DUP1 ISZERO PUSH2 0x1213 JUMPI POP PUSH1 0x0 ISZERO ISZERO DUP3 PUSH1 0x20 ADD MLOAD ISZERO ISZERO EQ JUMPDEST DUP1 ISZERO PUSH2 0x1229 JUMPI POP PUSH2 0x1227 DUP3 PUSH1 0x0 ADD MLOAD PUSH2 0x1E17 JUMP JUMPDEST ISZERO JUMPDEST PUSH2 0x1232 JUMPI PUSH1 0x0 DUP1 REVERT JUMPDEST PUSH1 0x0 PUSH2 0x124B DUP6 PUSH1 0x0 ADD MLOAD DUP6 PUSH1 0x0 ADD MLOAD DUP6 PUSH1 0x0 ADD MLOAD PUSH2 0x1E6E JUMP JUMPDEST SWAP1 POP PUSH1 0x0 PUSH2 0x1258 DUP3 PUSH2 0x1F48 JUMP JUMPDEST SWAP1 POP PUSH1 0x0 DUP2 SUB PUSH2 0x1273 JUMPI PUSH2 0x126A PUSH2 0x1023 JUMP JUMPDEST SWAP3 POP POP POP PUSH2 0x12E1 JUMP JUMPDEST DUP6 PUSH1 0x20 ADD MLOAD DUP1 ISZERO PUSH2 0x1289 JUMPI POP PUSH2 0x1288 DUP6 PUSH2 0x1F88 JUMP JUMPDEST JUMPDEST ISZERO PUSH2 0x12BE JUMPI PUSH2 0x12B5 PUSH1 0x40 MLOAD DUP1 PUSH1 0x60 ADD PUSH1 0x40 MSTORE DUP1 DUP5 DUP2 MSTORE PUSH1 0x20 ADD PUSH1 0x1 ISZERO ISZERO DUP2 MSTORE PUSH1 0x20 ADD DUP4 DUP2 MSTORE POP DUP6 PUSH2 0xBAD JUMP JUMPDEST SWAP3 POP POP POP PUSH2 0x12E1 JUMP JUMPDEST PUSH1 0x40 MLOAD DUP1 PUSH1 0x60 ADD PUSH1 0x40 MSTORE DUP1 DUP4 DUP2 MSTORE PUSH1 0x20 ADD PUSH1 0x0 ISZERO ISZERO DUP2 MSTORE PUSH1 0x20 ADD DUP3 DUP2 MSTORE POP SWAP3 POP POP POP JUMPDEST SWAP4 SWAP3 POP POP POP JUMP JUMPDEST PUSH2 0x12F0 PUSH2 0x21F3 JUMP JUMPDEST PUSH1 0x40 MLOAD DUP1 PUSH1 0x60 ADD PUSH1 0x40 MSTORE DUP1 PUSH1 0x40 MLOAD DUP1 PUSH1 0x40 ADD PUSH1 0x40 MSTORE DUP1 PUSH1 0x20 DUP2 MSTORE PUSH1 0x20 ADD PUSH1 0x1 DUP2 MSTORE POP DUP2 MSTORE PUSH1 0x20 ADD PUSH1 0x0 ISZERO ISZERO DUP2 MSTORE PUSH1 0x20 ADD PUSH1 0x1 DUP2 MSTORE POP SWAP1 POP SWAP1 JUMP JUMPDEST PUSH2 0x1332 PUSH2 0x21F3 JUMP JUMPDEST DUP5 PUSH1 0x20 ADD MLOAD ISZERO DUP1 ISZERO PUSH2 0x1345 JUMPI POP DUP3 PUSH1 0x20 ADD MLOAD JUMPDEST PUSH2 0x134E JUMPI PUSH1 0x0 DUP1 REVERT JUMPDEST DUP2 PUSH1 0x20 ADD MLOAD ISZERO DUP1 ISZERO PUSH2 0x136A JUMPI POP PUSH2 0x1368 DUP3 PUSH1 0x0 ADD MLOAD PUSH2 0x1E17 JUMP JUMPDEST ISZERO JUMPDEST PUSH2 0x1373 JUMPI PUSH1 0x0 DUP1 REVERT JUMPDEST PUSH2 0x137E DUP6 DUP4 DUP7 PUSH2 0xDD5 JUMP JUMPDEST PUSH2 0x13BD JUMPI PUSH1 0x40 MLOAD PUSH32 0x8C379A000000000000000000000000000000000000000000000000000000000 DUP2 MSTORE PUSH1 0x4 ADD PUSH2 0x13B4 SWAP1 PUSH2 0x3023 JUMP JUMPDEST PUSH1 0x40 MLOAD DUP1 SWAP2 SUB SWAP1 REVERT JUMPDEST PUSH1 0x0 PUSH2 0x13D6 DUP6 PUSH1 0x0 ADD MLOAD DUP6 PUSH1 0x0 ADD MLOAD DUP6 PUSH1 0x0 ADD MLOAD PUSH2 0x1E6E JUMP JUMPDEST SWAP1 POP PUSH1 0x0 PUSH2 0x13E3 DUP3 PUSH2 0x1F48 JUMP JUMPDEST SWAP1 POP PUSH1 0x0 DUP2 SUB PUSH2 0x13FE JUMPI PUSH2 0x13F5 PUSH2 0x1023 JUMP JUMPDEST SWAP3 POP POP POP PUSH2 0x146C JUMP JUMPDEST DUP6 PUSH1 0x20 ADD MLOAD DUP1 ISZERO PUSH2 0x1414 JUMPI POP PUSH2 0x1413 DUP6 PUSH2 0x1F88 JUMP JUMPDEST JUMPDEST ISZERO PUSH2 0x1449 JUMPI PUSH2 0x1440 PUSH1 0x40 MLOAD DUP1 PUSH1 0x60 ADD PUSH1 0x40 MSTORE DUP1 DUP5 DUP2 MSTORE PUSH1 0x20 ADD PUSH1 0x1 ISZERO ISZERO DUP2 MSTORE PUSH1 0x20 ADD DUP4 DUP2 MSTORE POP DUP6 PUSH2 0xBAD JUMP JUMPDEST SWAP3 POP POP POP PUSH2 0x146C JUMP JUMPDEST PUSH1 0x40 MLOAD DUP1 PUSH1 0x60 ADD PUSH1 0x40 MSTORE DUP1 DUP4 DUP2 MSTORE PUSH1 0x20 ADD PUSH1 0x0 ISZERO ISZERO DUP2 MSTORE PUSH1 0x20 ADD DUP3 DUP2 MSTORE POP SWAP3 POP POP POP JUMPDEST SWAP5 SWAP4 POP POP POP POP JUMP JUMPDEST PUSH2 0x147C PUSH2 0x21F3 JUMP JUMPDEST PUSH1 0x20 DUP5 ADD DUP5 MLOAD PUSH1 0x0 MSIZE PUSH1 0x0 PUSH1 0x20 DUP5 MOD EQ PUSH1 0x1 DUP2 EQ PUSH2 0x14AE JUMPI PUSH1 0x20 DUP5 MOD PUSH1 0x20 SUB PUSH1 0x20 DUP2 DUP5 ADD ADD SWAP4 POP DUP1 DUP6 ADD DUP4 MSTORE POP PUSH2 0x14B8 JUMP JUMPDEST PUSH1 0x20 DUP3 ADD SWAP3 POP DUP4 DUP3 MSTORE JUMPDEST POP DUP3 DUP3 DUP5 DUP7 PUSH1 0x4 PUSH2 0x1C2 STATICCALL POP PUSH1 0x20 DUP2 MLOAD ADD DUP2 ADD PUSH1 0x40 MSTORE DUP1 MLOAD JUMPDEST PUSH1 0x0 PUSH1 0x20 DUP3 EQ SUB PUSH2 0x1504 JUMPI PUSH1 0x0 PUSH1 0x20 DUP4 ADD MLOAD EQ PUSH1 0x1 DUP2 EQ PUSH2 0x14F2 JUMPI POP PUSH2 0x1504 JUMP JUMPDEST PUSH1 0x20 DUP4 ADD SWAP3 POP POP PUSH1 0x20 DUP2 SUB SWAP1 POP PUSH2 0x14D1 JUMP JUMPDEST DUP1 DUP3 MSTORE DUP2 DUP7 MSTORE DUP8 PUSH1 0x20 DUP8 ADD MSTORE POP POP POP POP POP PUSH1 0x0 DUP3 EQ PUSH2 0x1523 JUMPI DUP2 PUSH2 0x1531 JUMP JUMPDEST PUSH2 0x1530 DUP2 PUSH1 0x0 ADD MLOAD PUSH2 0x1F48 JUMP JUMPDEST JUMPDEST DUP2 PUSH1 0x40 ADD DUP2 DUP2 MSTORE POP POP SWAP4 SWAP3 POP POP POP JUMP JUMPDEST PUSH1 0x0 DUP1 PUSH1 0x1 SWAP1 POP DUP3 ISZERO PUSH2 0x160C JUMPI DUP5 PUSH1 0x20 ADD MLOAD DUP1 ISZERO PUSH2 0x1560 JUMPI POP DUP4 PUSH1 0x20 ADD MLOAD JUMPDEST ISZERO PUSH2 0x158D JUMPI PUSH32 0xFFFFFFFFFFFFFFFFFFFFFFFFFFFFFFFFFFFFFFFFFFFFFFFFFFFFFFFFFFFFFFFF SWAP1 POP PUSH2 0x160B JUMP JUMPDEST PUSH1 0x0 ISZERO ISZERO DUP6 PUSH1 0x20 ADD MLOAD ISZERO ISZERO EQ DUP1 ISZERO PUSH2 0x15AD JUMPI POP PUSH1 0x1 ISZERO ISZERO DUP5 PUSH1 0x20 ADD MLOAD ISZERO ISZERO EQ JUMPDEST ISZERO PUSH2 0x15BC JUMPI PUSH1 0x1 SWAP2 POP POP PUSH2 0x1717 JUMP JUMPDEST PUSH1 0x1 ISZERO ISZERO DUP6 PUSH1 0x20 ADD MLOAD ISZERO ISZERO EQ DUP1 ISZERO PUSH2 0x15DC JUMPI POP PUSH1 0x0 ISZERO ISZERO DUP5 PUSH1 0x20 ADD MLOAD ISZERO ISZERO EQ JUMPDEST ISZERO PUSH2 0x160A JUMPI PUSH32 0xFFFFFFFFFFFFFFFFFFFFFFFFFFFFFFFFFFFFFFFFFFFFFFFFFFFFFFFFFFFFFFFF SWAP2 POP POP PUSH2 0x1717 JUMP JUMPDEST JUMPDEST JUMPDEST DUP4 PUSH1 0x40 ADD MLOAD DUP6 PUSH1 0x40 ADD MLOAD GT ISZERO PUSH2 0x1625 JUMPI DUP1 SWAP2 POP POP PUSH2 0x1717 JUMP JUMPDEST DUP5 PUSH1 0x40 ADD MLOAD DUP5 PUSH1 0x40 ADD MLOAD GT ISZERO PUSH2 0x1669 JUMPI DUP1 PUSH32 0xFFFFFFFFFFFFFFFFFFFFFFFFFFFFFFFFFFFFFFFFFFFFFFFFFFFFFFFFFFFFFFFF PUSH2 0x1661 SWAP2 SWAP1 PUSH2 0x304D JUMP JUMPDEST SWAP2 POP POP PUSH2 0x1717 JUMP JUMPDEST PUSH1 0x0 DUP1 PUSH1 0x0 DUP1 PUSH1 0x0 DUP10 PUSH1 0x0 ADD MLOAD MLOAD SWAP1 POP PUSH1 0x20 DUP11 MLOAD ADD SWAP5 POP PUSH1 0x20 DUP10 MLOAD ADD SWAP4 POP PUSH1 0x0 JUMPDEST DUP2 DUP2 LT ISZERO PUSH2 0x170B JUMPI DUP1 DUP7 ADD MLOAD SWAP4 POP DUP1 DUP6 ADD MLOAD SWAP3 POP DUP3 DUP5 GT ISZERO PUSH2 0x16B5 JUMPI DUP7 SWAP8 POP POP POP POP POP POP POP POP PUSH2 0x1717 JUMP JUMPDEST DUP4 DUP4 GT ISZERO PUSH2 0x16F7 JUMPI DUP7 PUSH32 0xFFFFFFFFFFFFFFFFFFFFFFFFFFFFFFFFFFFFFFFFFFFFFFFFFFFFFFFFFFFFFFFF PUSH2 0x16E9 SWAP2 SWAP1 PUSH2 0x304D JUMP JUMPDEST SWAP8 POP POP POP POP POP POP POP POP PUSH2 0x1717 JUMP JUMPDEST PUSH1 0x20 DUP2 PUSH2 0x1704 SWAP2 SWAP1 PUSH2 0x30C5 JUMP JUMPDEST SWAP1 POP PUSH2 0x168A JUMP JUMPDEST POP PUSH1 0x0 SWAP7 POP POP POP POP POP POP POP JUMPDEST SWAP4 SWAP3 POP POP POP JUMP JUMPDEST PUSH1 0x60 PUSH1 0x0 PUSH1 0x60 MSIZE PUSH1 0x0 PUSH1 0x1 PUSH1 0x0 SUB DUP9 MLOAD DUP10 ADD DUP9 MLOAD DUP10 ADD DUP11 MLOAD PUSH1 0x20 DUP7 ADD ADD DUP12 MLOAD JUMPDEST PUSH1 0x0 DUP1 DUP3 EQ SUB PUSH2 0x17EA JUMPI DUP4 MLOAD DUP13 MLOAD DUP15 MLOAD SUB DUP3 GT PUSH1 0x1 DUP2 EQ PUSH2 0x1782 JUMPI DUP8 DUP3 ADD DUP5 MSTORE PUSH1 0x1 DUP9 EQ DUP3 DUP9 EQ AND PUSH1 0x1 DUP2 EQ PUSH2 0x1777 JUMPI PUSH1 0x0 SWAP9 POP PUSH2 0x177C JUMP JUMPDEST PUSH1 0x1 SWAP9 POP JUMPDEST POP PUSH2 0x17D1 JUMP JUMPDEST DUP5 MLOAD DUP9 DUP2 DUP5 ADD ADD DUP6 MSTORE DUP9 DUP2 SUB DUP9 SUB DUP4 GT PUSH1 0x1 DUP2 EQ PUSH2 0x17C3 JUMPI PUSH1 0x0 DUP3 GT PUSH1 0x0 DUP12 GT OR DUP10 DUP6 EQ AND PUSH1 0x1 DUP2 EQ PUSH2 0x17B8 JUMPI PUSH1 0x0 SWAP11 POP PUSH2 0x17BD JUMP JUMPDEST PUSH1 0x1 SWAP11 POP JUMPDEST POP PUSH2 0x17C8 JUMP JUMPDEST PUSH1 0x1 SWAP10 POP JUMPDEST POP PUSH1 0x20 DUP7 SUB SWAP6 POP POP JUMPDEST POP PUSH1 0x20 DUP4 SUB SWAP3 POP PUSH1 0x20 DUP6 SUB SWAP5 POP POP PUSH1 0x20 DUP2 SUB SWAP1 POP PUSH2 0x173E JUMP JUMPDEST POP PUSH1 0x0 DUP6 EQ PUSH1 0x1 DUP2 EQ PUSH2 0x1800 JUMPI PUSH1 0x1 DUP3 MSTORE PUSH2 0x1807 JUMP JUMPDEST PUSH1 0x20 DUP8 ADD SWAP7 POP JUMPDEST POP DUP6 SWAP7 POP DUP5 PUSH1 0x20 MUL DUP13 MLOAD ADD DUP8 MSTORE PUSH1 0x20 DUP8 MLOAD ADD DUP8 ADD PUSH1 0x40 MSTORE PUSH1 0x20 DUP8 ADD MLOAD PUSH1 0x1 DUP2 PUSH2 0x100 DUP14 MOD SHR EQ PUSH1 0x1 DUP3 EQ OR ISZERO PUSH2 0x183E JUMPI PUSH1 0x1 DUP12 ADD SWAP11 POP JUMPDEST POP POP POP POP POP POP POP DUP1 DUP5 SWAP3 POP SWAP3 POP POP SWAP4 POP SWAP4 SWAP2 POP POP JUMP JUMPDEST PUSH1 0x60 PUSH1 0x0 PUSH1 0x60 PUSH1 0x0 DUP1 PUSH32 0xFFFFFFFFFFFFFFFFFFFFFFFFFFFFFFFFFFFFFFFFFFFFFFFFFFFFFFFFFFFFFFFF SWAP1 POP MSIZE DUP8 MLOAD DUP8 MLOAD DUP1 DUP3 SUB DUP3 DUP12 ADD DUP3 DUP12 ADD DUP5 DUP7 ADD PUSH1 0x20 DUP2 ADD DUP7 JUMPDEST PUSH1 0x0 DUP1 DUP3 EQ SUB PUSH2 0x1927 JUMPI DUP5 MLOAD DUP7 DUP3 GT PUSH1 0x1 DUP2 EQ PUSH2 0x18D8 JUMPI DUP13 DUP3 SUB DUP6 MSTORE PUSH1 0x1 DUP14 EQ PUSH1 0x0 DUP4 EQ AND PUSH1 0x1 DUP2 EQ PUSH2 0x18CD JUMPI PUSH1 0x0 SWAP14 POP PUSH2 0x18D2 JUMP JUMPDEST PUSH1 0x1 SWAP14 POP JUMPDEST POP PUSH2 0x190E JUMP JUMPDEST DUP6 MLOAD DUP14 DUP2 DUP5 SUB SUB DUP7 MSTORE PUSH1 0x1 DUP15 EQ DUP14 DUP3 EQ AND DUP15 DUP3 ADD DUP5 LT OR PUSH1 0x1 DUP2 EQ PUSH2 0x1900 JUMPI PUSH1 0x0 SWAP15 POP PUSH2 0x1905 JUMP JUMPDEST PUSH1 0x1 SWAP15 POP JUMPDEST POP PUSH1 0x20 DUP8 SUB SWAP7 POP POP JUMPDEST POP PUSH1 0x20 DUP5 SUB SWAP4 POP PUSH1 0x20 DUP7 SUB SWAP6 POP POP PUSH1 0x20 DUP2 SUB SWAP1 POP PUSH2 0x1897 JUMP JUMPDEST POP PUSH1 0x20 DUP3 ADD SWAP2 POP JUMPDEST PUSH1 0x0 DUP3 MLOAD SUB PUSH2 0x194F JUMPI PUSH1 0x20 DUP9 ADD SWAP8 POP PUSH1 0x20 DUP8 SUB SWAP7 POP PUSH1 0x20 DUP3 ADD SWAP2 POP PUSH2 0x192F JUMP JUMPDEST DUP8 SWAP11 POP DUP7 DUP12 MSTORE DUP1 PUSH1 0x40 MSTORE POP POP POP POP POP POP POP POP PUSH1 0x0 PUSH2 0x196C DUP5 PUSH2 0x1F48 JUMP JUMPDEST SWAP1 POP DUP4 DUP2 SWAP6 POP SWAP6 POP POP POP POP POP SWAP3 POP SWAP3 SWAP1 POP JUMP JUMPDEST PUSH2 0x1987 PUSH2 0x21F3 JUMP JUMPDEST PUSH1 0x40 MLOAD DUP1 PUSH1 0x60 ADD PUSH1 0x40 MSTORE DUP1 PUSH1 0x40 MLOAD DUP1 PUSH1 0x40 ADD PUSH1 0x40 MSTORE DUP1 PUSH1 0x20 DUP2 MSTORE PUSH1 0x20 ADD PUSH1 0x2 DUP2 MSTORE POP DUP2 MSTORE PUSH1 0x20 ADD PUSH1 0x0 ISZERO ISZERO DUP2 MSTORE PUSH1 0x20 ADD PUSH1 0x2 DUP2 MSTORE POP SWAP1 POP SWAP1 JUMP JUMPDEST PUSH2 0x19C9 PUSH2 0x21F3 JUMP JUMPDEST PUSH1 0x0 PUSH1 0x40 MLOAD DUP1 PUSH1 0x40 ADD PUSH1 0x40 MSTORE DUP1 PUSH1 0x20 DUP2 MSTORE PUSH1 0x20 ADD PUSH1 0x0 DUP2 MSTORE POP SWAP1 POP PUSH1 0x0 DUP4 PUSH1 0x40 DUP7 ADD MLOAD MUL SWAP1 POP PUSH1 0x1 PUSH2 0x100 DUP3 MOD SHL PUSH1 0x20 PUSH1 0x1 PUSH2 0x100 DUP5 DIV ADD MUL DUP4 MSTORE DUP1 PUSH1 0x20 DUP5 ADD MSTORE PUSH1 0x20 DUP4 MLOAD ADD DUP4 ADD PUSH1 0x40 MSTORE POP PUSH1 0x40 MLOAD DUP1 PUSH1 0x60 ADD PUSH1 0x40 MSTORE DUP1 DUP4 DUP2 MSTORE PUSH1 0x20 ADD PUSH1 0x0 ISZERO ISZERO DUP2 MSTORE PUSH1 0x20 ADD DUP3 DUP2 MSTORE POP SWAP3 POP POP POP SWAP3 SWAP2 POP POP JUMP JUMPDEST PUSH2 0x1A45 PUSH2 0x21F3 JUMP JUMPDEST PUSH1 0x0 DUP4 PUSH1 0x40 ADD MLOAD EQ DUP1 ISZERO PUSH2 0x1A5D JUMPI POP PUSH1 0x0 DUP3 PUSH1 0x40 ADD MLOAD EQ JUMPDEST ISZERO PUSH2 0x1A71 JUMPI PUSH2 0x1A6A PUSH2 0x1023 JUMP JUMPDEST SWAP1 POP PUSH2 0x1C86 JUMP JUMPDEST PUSH1 0x60 PUSH1 0x0 DUP1 PUSH2 0x1A82 DUP7 DUP7 PUSH1 0x0 PUSH2 0x1541 JUMP JUMPDEST SWAP2 POP DUP6 PUSH1 0x20 ADD MLOAD DUP1 PUSH2 0x1A95 JUMPI POP DUP5 PUSH1 0x20 ADD MLOAD JUMPDEST ISZERO PUSH2 0x1BCC JUMPI DUP6 PUSH1 0x20 ADD MLOAD DUP1 ISZERO PUSH2 0x1AAC JUMPI POP DUP5 PUSH1 0x20 ADD MLOAD JUMPDEST ISZERO PUSH2 0x1B58 JUMPI PUSH1 0x1 DUP3 SUB PUSH2 0x1AE9 JUMPI PUSH2 0x1ACB DUP7 PUSH1 0x0 ADD MLOAD DUP7 PUSH1 0x0 ADD MLOAD PUSH2 0x1854 JUMP JUMPDEST DUP1 SWAP3 POP DUP2 SWAP5 POP POP POP PUSH1 0x1 DUP5 PUSH1 0x20 ADD SWAP1 ISZERO ISZERO SWAP1 DUP2 ISZERO ISZERO DUP2 MSTORE POP POP PUSH2 0x1B53 JUMP JUMPDEST PUSH32 0xFFFFFFFFFFFFFFFFFFFFFFFFFFFFFFFFFFFFFFFFFFFFFFFFFFFFFFFFFFFFFFFF DUP3 SUB PUSH2 0x1B40 JUMPI PUSH2 0x1B22 DUP6 PUSH1 0x0 ADD MLOAD DUP8 PUSH1 0x0 ADD MLOAD PUSH2 0x1854 JUMP JUMPDEST DUP1 SWAP3 POP DUP2 SWAP5 POP POP POP PUSH1 0x0 DUP5 PUSH1 0x20 ADD SWAP1 ISZERO ISZERO SWAP1 DUP2 ISZERO ISZERO DUP2 MSTORE POP POP PUSH2 0x1B52 JUMP JUMPDEST PUSH2 0x1B48 PUSH2 0x1023 JUMP JUMPDEST SWAP4 POP POP POP POP PUSH2 0x1C86 JUMP JUMPDEST JUMPDEST PUSH2 0x1BC7 JUMP JUMPDEST PUSH1 0x0 DUP3 SLT PUSH2 0x1B84 JUMPI PUSH2 0x1B77 DUP7 PUSH1 0x0 ADD MLOAD DUP7 PUSH1 0x0 ADD MLOAD DUP9 PUSH1 0x40 ADD MLOAD PUSH2 0x171E JUMP JUMPDEST DUP1 SWAP3 POP DUP2 SWAP5 POP POP POP PUSH2 0x1BA4 JUMP JUMPDEST PUSH2 0x1B9B DUP6 PUSH1 0x0 ADD MLOAD DUP8 PUSH1 0x0 ADD MLOAD DUP8 PUSH1 0x40 ADD MLOAD PUSH2 0x171E JUMP JUMPDEST DUP1 SWAP3 POP DUP2 SWAP5 POP POP POP JUMPDEST DUP6 PUSH1 0x20 ADD MLOAD PUSH2 0x1BB4 JUMPI PUSH1 0x0 PUSH2 0x1BB7 JUMP JUMPDEST PUSH1 0x1 JUMPDEST DUP5 PUSH1 0x20 ADD SWAP1 ISZERO ISZERO SWAP1 DUP2 ISZERO ISZERO DUP2 MSTORE POP POP JUMPDEST PUSH2 0x1C6F JUMP JUMPDEST PUSH1 0x1 DUP3 SUB PUSH2 0x1C04 JUMPI PUSH2 0x1BE6 DUP7 PUSH1 0x0 ADD MLOAD DUP7 PUSH1 0x0 ADD MLOAD PUSH2 0x1854 JUMP JUMPDEST DUP1 SWAP3 POP DUP2 SWAP5 POP POP POP PUSH1 0x0 DUP5 PUSH1 0x20 ADD SWAP1 ISZERO ISZERO SWAP1 DUP2 ISZERO ISZERO DUP2 MSTORE POP POP PUSH2 0x1C6E JUMP JUMPDEST PUSH32 0xFFFFFFFFFFFFFFFFFFFFFFFFFFFFFFFFFFFFFFFFFFFFFFFFFFFFFFFFFFFFFFFF DUP3 SUB PUSH2 0x1C5B JUMPI PUSH2 0x1C3D DUP6 PUSH1 0x0 ADD MLOAD DUP8 PUSH1 0x0 ADD MLOAD PUSH2 0x1854 JUMP JUMPDEST DUP1 SWAP3 POP DUP2 SWAP5 POP POP POP PUSH1 0x1 DUP5 PUSH1 0x20 ADD SWAP1 ISZERO ISZERO SWAP1 DUP2 ISZERO ISZERO DUP2 MSTORE POP POP PUSH2 0x1C6D JUMP JUMPDEST PUSH2 0x1C63 PUSH2 0x1023 JUMP JUMPDEST SWAP4 POP POP POP POP PUSH2 0x1C86 JUMP JUMPDEST JUMPDEST JUMPDEST DUP3 DUP5 PUSH1 0x0 ADD DUP2 SWAP1 MSTORE POP DUP1 DUP5 PUSH1 0x40 ADD DUP2 DUP2 MSTORE POP POP POP POP POP JUMPDEST SWAP3 SWAP2 POP POP JUMP JUMPDEST PUSH2 0x1C94 PUSH2 0x21F3 JUMP JUMPDEST PUSH1 0x0 DUP4 MLOAD MLOAD SWAP1 POP DUP4 PUSH1 0x40 ADD MLOAD DUP4 LT PUSH2 0x1CE3 JUMPI PUSH1 0x40 MLOAD DUP1 PUSH1 0x60 ADD PUSH1 0x40 MSTORE DUP1 PUSH1 0x40 MLOAD DUP1 PUSH1 0x40 ADD PUSH1 0x40 MSTORE DUP1 PUSH1 0x20 DUP2 MSTORE PUSH1 0x20 ADD PUSH1 0x0 DUP2 MSTORE POP DUP2 MSTORE PUSH1 0x20 ADD PUSH1 0x0 ISZERO ISZERO DUP2 MSTORE PUSH1 0x20 ADD PUSH1 0x0 DUP2 MSTORE POP SWAP2 POP POP PUSH2 0x1DE8 JUMP JUMPDEST DUP3 DUP5 PUSH1 0x40 ADD MLOAD PUSH2 0x1CF3 SWAP2 SWAP1 PUSH2 0x30F9 JUMP JUMPDEST DUP5 PUSH1 0x40 ADD DUP2 DUP2 MSTORE POP POP PUSH2 0x100 DUP4 EQ PUSH2 0x100 DUP5 GT OR ISZERO PUSH2 0x1D24 JUMPI PUSH1 0x20 PUSH2 0x100 DUP5 DIV MUL DUP2 SUB SWAP1 POP DUP1 DUP5 MLOAD MSTORE PUSH2 0x100 DUP4 MOD SWAP3 POP JUMPDEST DUP4 MLOAD PUSH1 0x0 PUSH1 0x8 DUP6 MOD EQ PUSH1 0x1 DUP2 EQ PUSH2 0x1D95 JUMPI PUSH1 0x0 DUP1 DUP7 PUSH2 0x100 SUB DUP6 DUP6 ADD DUP7 JUMPDEST PUSH1 0x0 DUP1 DUP3 EQ SUB PUSH2 0x1D8B JUMPI PUSH1 0x20 DUP2 EQ PUSH1 0x1 DUP2 EQ PUSH2 0x1D64 JUMPI PUSH1 0x20 DUP4 SUB MLOAD SWAP6 POP PUSH2 0x1D69 JUMP JUMPDEST PUSH1 0x0 SWAP6 POP JUMPDEST POP DUP2 MLOAD DUP11 SHR SWAP4 POP DUP5 DUP4 SHL SWAP5 POP DUP5 DUP5 OR DUP3 MSTORE PUSH1 0x20 DUP3 SUB SWAP2 POP PUSH1 0x20 DUP2 SUB SWAP1 POP PUSH2 0x1D42 JUMP JUMPDEST POP POP POP POP POP PUSH2 0x1DC3 JUMP JUMPDEST PUSH1 0x8 DUP6 DIV DUP7 MLOAD DUP1 MLOAD PUSH1 0x20 DUP2 ADD DUP4 DUP4 ADD DUP5 DUP3 SUB DUP3 DUP3 DUP5 DUP8 PUSH1 0x4 PUSH2 0x1C2 STATICCALL PUSH1 0x0 PUSH1 0x1F DUP5 ADD MSTORE8 DUP5 DUP7 MSTORE POP POP POP POP POP POP POP JUMPDEST POP PUSH1 0x20 DUP2 ADD PUSH1 0x0 DUP2 MLOAD EQ PUSH1 0x1 DUP2 SUB PUSH2 0x1DE0 JUMPI PUSH1 0x20 DUP4 MLOAD SUB DUP3 MSTORE DUP2 DUP8 MSTORE JUMPDEST POP POP POP DUP4 SWAP2 POP POP JUMPDEST SWAP3 SWAP2 POP POP JUMP JUMPDEST PUSH1 0x0 DUP2 MLOAD SWAP1 POP PUSH1 0x0 PUSH11 0x636F6E736F6C652E6C6F67 SWAP1 POP PUSH1 0x20 DUP4 ADD PUSH1 0x0 DUP1 DUP5 DUP4 DUP6 GAS STATICCALL POP POP POP POP POP JUMP JUMPDEST PUSH1 0x0 DUP1 PUSH1 0x0 PUSH1 0x20 DUP5 ADD SWAP1 POP PUSH1 0x0 JUMPDEST DUP5 MLOAD DUP2 LT ISZERO PUSH2 0x1E61 JUMPI DUP2 MLOAD SWAP3 POP PUSH1 0x0 DUP4 GT ISZERO PUSH2 0x1E47 JUMPI PUSH1 0x0 SWAP4 POP POP POP POP PUSH2 0x1E69 JUMP JUMPDEST PUSH1 0x20 DUP3 ADD SWAP2 POP PUSH1 0x20 DUP2 PUSH2 0x1E5A SWAP2 SWAP1 PUSH2 0x30C5 JUMP JUMPDEST SWAP1 POP PUSH2 0x1E25 JUMP JUMPDEST POP PUSH1 0x1 SWAP3 POP POP POP JUMPDEST SWAP2 SWAP1 POP JUMP JUMPDEST PUSH1 0x60 DUP4 MLOAD DUP4 MLOAD DUP4 MLOAD PUSH1 0x40 MLOAD DUP4 DUP2 MSTORE DUP3 PUSH1 0x20 DUP3 ADD MSTORE DUP2 PUSH1 0x40 DUP3 ADD MSTORE DUP4 PUSH1 0x60 DUP3 ADD DUP6 PUSH1 0x20 DUP12 ADD PUSH1 0x4 PUSH2 0x1C2 STATICCALL DUP5 PUSH1 0x60 ADD DUP5 DUP2 DUP5 ADD DUP7 PUSH1 0x20 DUP13 ADD PUSH1 0x4 PUSH2 0x1C2 STATICCALL SWAP2 POP DUP5 DUP2 ADD SWAP1 POP DUP4 DUP2 DUP5 ADD DUP6 PUSH1 0x20 DUP12 ADD PUSH1 0x4 PUSH2 0x1C2 STATICCALL SWAP2 POP DUP2 PUSH1 0x0 DUP2 SUB PUSH2 0x1ECE JUMPI INVALID JUMPDEST POP DUP4 DUP2 ADD SWAP1 POP DUP4 PUSH1 0x60 DUP5 ADD DUP3 DUP6 PUSH1 0x5 PUSH2 0x546 GAS SUB STATICCALL SWAP2 POP DUP2 PUSH1 0x0 DUP2 SUB PUSH2 0x1EF0 JUMPI INVALID JUMPDEST POP DUP4 PUSH1 0x60 DUP5 ADD JUMPDEST PUSH1 0x0 PUSH1 0x20 DUP4 EQ SUB PUSH2 0x1F27 JUMPI PUSH1 0x0 DUP2 MLOAD EQ PUSH1 0x1 DUP2 EQ PUSH2 0x1F15 JUMPI POP PUSH2 0x1F27 JUMP JUMPDEST PUSH1 0x20 DUP3 ADD SWAP2 POP POP PUSH1 0x20 DUP3 SUB SWAP2 POP PUSH2 0x1EF7 JUMP JUMPDEST PUSH1 0x20 DUP2 SUB SWAP9 POP DUP2 DUP10 MSTORE DUP6 DUP6 PUSH1 0x60 ADD ADD PUSH1 0x40 MSTORE POP POP POP POP POP POP POP POP SWAP4 SWAP3 POP POP POP JUMP JUMPDEST PUSH1 0x0 PUSH2 0x1F53 DUP3 PUSH2 0x1E17 JUMP JUMPDEST ISZERO PUSH2 0x1F61 JUMPI PUSH1 0x0 SWAP1 POP PUSH2 0x1F83 JUMP JUMPDEST PUSH1 0x0 PUSH1 0x20 DUP4 ADD MLOAD SWAP1 POP PUSH2 0x1F73 DUP2 PUSH2 0x1F9D JUMP JUMPDEST SWAP2 POP PUSH1 0x8 PUSH1 0x20 DUP5 MLOAD SUB MUL DUP3 ADD SWAP2 POP POP JUMPDEST SWAP2 SWAP1 POP JUMP JUMPDEST PUSH1 0x0 DUP2 MLOAD MLOAD DUP3 MLOAD ADD PUSH1 0x2 DUP2 MLOAD MOD SWAP2 POP POP SWAP2 SWAP1 POP JUMP JUMPDEST PUSH1 0x0 DUP1 DUP3 EQ PUSH1 0x1 DUP2 EQ PUSH2 0x21E8 JUMPI DUP3 PUSH1 0x1 DUP5 SUB SWAP4 POP PUSH1 0x2 DUP5 DIV DUP5 OR SWAP4 POP PUSH1 0x4 DUP5 DIV DUP5 OR SWAP4 POP PUSH1 0x10 DUP5 DIV DUP5 OR SWAP4 POP PUSH2 0x100 DUP5 DIV DUP5 OR SWAP4 POP PUSH3 0x10000 DUP5 DIV DUP5 OR SWAP4 POP PUSH5 0x100000000 DUP5 DIV DUP5 OR SWAP4 POP PUSH9 0x10000000000000000 DUP5 DIV DUP5 OR SWAP4 POP PUSH17 0x100000000000000000000000000000000 DUP5 DIV DUP5 OR SWAP4 POP PUSH1 0x1 DUP5 ADD SWAP4 POP PUSH1 0x40 MLOAD PUSH32 0xF8F9CBFAE6CC78FBEFE7CDC3A1793DFCF4F0E8BBD8CEC470B6A28A7A5A3E1EFD DUP2 MSTORE PUSH32 0xF5ECF1B3E9DEBC68E1D9CFABC5997135BFB7A7A3938B7B606B5B4B3F2F1F0FFE PUSH1 0x20 DUP3 ADD MSTORE PUSH32 0xF6E4ED9FF2D6B458EADCDF97BD91692DE2D4DA8FD2D0AC50C6AE9A8272523616 PUSH1 0x40 DUP3 ADD MSTORE PUSH32 0xC8C0B887B0A8A4489C948C7F847C6125746C645C544C444038302820181008FF PUSH1 0x60 DUP3 ADD MSTORE PUSH32 0xF7CAE577EEC2A03CF3BAD76FB589591DEBB2DD67E0AA9834BEA6925F6A4A2E0E PUSH1 0x80 DUP3 ADD MSTORE PUSH32 0xE39ED557DB96902CD38ED14FAD815115C786AF479B7E83247363534337271707 PUSH1 0xA0 DUP3 ADD MSTORE PUSH32 0xC976C13BB96E881CB166A933A55E490D9D56952B8D4E801485467D2362422606 PUSH1 0xC0 DUP3 ADD MSTORE PUSH32 0x753A6D1B65325D0C552A4D1345224105391A310B29122104190A110309020100 PUSH1 0xE0 DUP3 ADD MSTORE PUSH2 0x100 DUP2 ADD PUSH1 0x40 MSTORE PUSH31 0x818283848586878898A8B8C8D8E8F929395969799A9B9D9E9FAAEB6BEDEEFF PUSH32 0x100000000000000000000000000000000000000000000000000000000000000 DUP1 DUP3 DUP9 MUL DIV DUP2 DUP2 PUSH1 0xFF SUB DUP6 ADD MLOAD DIV SWAP7 POP PUSH32 0x8000000000000000000000000000000000000000000000000000000000000000 DUP6 GT PUSH2 0x100 MUL DUP8 ADD SWAP7 POP PUSH1 0x0 PUSH1 0x1 DUP7 SUB DUP7 AND SUB PUSH2 0x21DE JUMPI PUSH1 0x1 DUP8 ADD SWAP7 POP JUMPDEST POP POP POP POP POP PUSH2 0x21ED JUMP JUMPDEST PUSH1 0x0 SWAP2 POP JUMPDEST POP SWAP2 SWAP1 POP JUMP JUMPDEST PUSH1 0x40 MLOAD DUP1 PUSH1 0x60 ADD PUSH1 0x40 MSTORE DUP1 PUSH1 0x60 DUP2 MSTORE PUSH1 0x20 ADD PUSH1 0x0 ISZERO ISZERO DUP2 MSTORE PUSH1 0x20 ADD PUSH1 0x0 DUP2 MSTORE POP SWAP1 JUMP JUMPDEST PUSH1 0x0 PUSH1 0x40 MLOAD SWAP1 POP SWAP1 JUMP JUMPDEST PUSH1 0x0 DUP1 REVERT JUMPDEST PUSH1 0x0 DUP1 REVERT JUMPDEST PUSH1 0x0 DUP1 REVERT JUMPDEST PUSH1 0x0 DUP1 REVERT JUMPDEST PUSH1 0x0 PUSH1 0x1F NOT PUSH1 0x1F DUP4 ADD AND SWAP1 POP SWAP2 SWAP1 POP JUMP JUMPDEST PUSH32 0x4E487B7100000000000000000000000000000000000000000000000000000000 PUSH1 0x0 MSTORE PUSH1 0x41 PUSH1 0x4 MSTORE PUSH1 0x24 PUSH1 0x0 REVERT JUMPDEST PUSH2 0x227D DUP3 PUSH2 0x2234 JUMP JUMPDEST DUP2 ADD DUP2 DUP2 LT PUSH8 0xFFFFFFFFFFFFFFFF DUP3 GT OR ISZERO PUSH2 0x229C JUMPI PUSH2 0x229B PUSH2 0x2245 JUMP JUMPDEST JUMPDEST DUP1 PUSH1 0x40 MSTORE POP POP POP JUMP JUMPDEST PUSH1 0x0 PUSH2 0x22AF PUSH2 0x2216 JUMP JUMPDEST SWAP1 POP PUSH2 0x22BB DUP3 DUP3 PUSH2 0x2274 JUMP JUMPDEST SWAP2 SWAP1 POP JUMP JUMPDEST PUSH1 0x0 PUSH8 0xFFFFFFFFFFFFFFFF DUP3 GT ISZERO PUSH2 0x22DB JUMPI PUSH2 0x22DA PUSH2 0x2245 JUMP JUMPDEST JUMPDEST PUSH2 0x22E4 DUP3 PUSH2 0x2234 JUMP JUMPDEST SWAP1 POP PUSH1 0x20 DUP2 ADD SWAP1 POP SWAP2 SWAP1 POP JUMP JUMPDEST DUP3 DUP2 DUP4 CALLDATACOPY PUSH1 0x0 DUP4 DUP4 ADD MSTORE POP POP POP JUMP JUMPDEST PUSH1 0x0 PUSH2 0x2313 PUSH2 0x230E DUP5 PUSH2 0x22C0 JUMP JUMPDEST PUSH2 0x22A5 JUMP JUMPDEST SWAP1 POP DUP3 DUP2 MSTORE PUSH1 0x20 DUP2 ADD DUP5 DUP5 DUP5 ADD GT ISZERO PUSH2 0x232F JUMPI PUSH2 0x232E PUSH2 0x222F JUMP JUMPDEST JUMPDEST PUSH2 0x233A DUP5 DUP3 DUP6 PUSH2 0x22F1 JUMP JUMPDEST POP SWAP4 SWAP3 POP POP POP JUMP JUMPDEST PUSH1 0x0 DUP3 PUSH1 0x1F DUP4 ADD SLT PUSH2 0x2357 JUMPI PUSH2 0x2356 PUSH2 0x222A JUMP JUMPDEST JUMPDEST DUP2 CALLDATALOAD PUSH2 0x2367 DUP5 DUP3 PUSH1 0x20 DUP7 ADD PUSH2 0x2300 JUMP JUMPDEST SWAP2 POP POP SWAP3 SWAP2 POP POP JUMP JUMPDEST PUSH1 0x0 DUP1 PUSH1 0x40 DUP4 DUP6 SUB SLT ISZERO PUSH2 0x2387 JUMPI PUSH2 0x2386 PUSH2 0x2220 JUMP JUMPDEST JUMPDEST PUSH1 0x0 DUP4 ADD CALLDATALOAD PUSH8 0xFFFFFFFFFFFFFFFF DUP2 GT ISZERO PUSH2 0x23A5 JUMPI PUSH2 0x23A4 PUSH2 0x2225 JUMP JUMPDEST JUMPDEST PUSH2 0x23B1 DUP6 DUP3 DUP7 ADD PUSH2 0x2342 JUMP JUMPDEST SWAP3 POP POP PUSH1 0x20 DUP4 ADD CALLDATALOAD PUSH8 0xFFFFFFFFFFFFFFFF DUP2 GT ISZERO PUSH2 0x23D2 JUMPI PUSH2 0x23D1 PUSH2 0x2225 JUMP JUMPDEST JUMPDEST PUSH2 0x23DE DUP6 DUP3 DUP7 ADD PUSH2 0x2342 JUMP JUMPDEST SWAP2 POP POP SWAP3 POP SWAP3 SWAP1 POP JUMP JUMPDEST PUSH1 0x0 DUP2 MLOAD SWAP1 POP SWAP2 SWAP1 POP JUMP JUMPDEST PUSH1 0x0 DUP3 DUP3 MSTORE PUSH1 0x20 DUP3 ADD SWAP1 POP SWAP3 SWAP2 POP POP JUMP JUMPDEST PUSH1 0x0 JUMPDEST DUP4 DUP2 LT ISZERO PUSH2 0x2422 JUMPI DUP1 DUP3 ADD MLOAD DUP2 DUP5 ADD MSTORE PUSH1 0x20 DUP2 ADD SWAP1 POP PUSH2 0x2407 JUMP JUMPDEST PUSH1 0x0 DUP5 DUP5 ADD MSTORE POP POP POP POP JUMP JUMPDEST PUSH1 0x0 PUSH2 0x2439 DUP3 PUSH2 0x23E8 JUMP JUMPDEST PUSH2 0x2443 DUP2 DUP6 PUSH2 0x23F3 JUMP JUMPDEST SWAP4 POP PUSH2 0x2453 DUP2 DUP6 PUSH1 0x20 DUP7 ADD PUSH2 0x2404 JUMP JUMPDEST PUSH2 0x245C DUP2 PUSH2 0x2234 JUMP JUMPDEST DUP5 ADD SWAP2 POP POP SWAP3 SWAP2 POP POP JUMP JUMPDEST PUSH1 0x0 DUP2 ISZERO ISZERO SWAP1 POP SWAP2 SWAP1 POP JUMP JUMPDEST PUSH2 0x247C DUP2 PUSH2 0x2467 JUMP JUMPDEST DUP3 MSTORE POP POP JUMP JUMPDEST PUSH1 0x0 DUP2 SWAP1 POP SWAP2 SWAP1 POP JUMP JUMPDEST PUSH2 0x2495 DUP2 PUSH2 0x2482 JUMP JUMPDEST DUP3 MSTORE POP POP JUMP JUMPDEST PUSH1 0x0 PUSH1 0x60 DUP4 ADD PUSH1 0x0 DUP4 ADD MLOAD DUP5 DUP3 SUB PUSH1 0x0 DUP7 ADD MSTORE PUSH2 0x24B8 DUP3 DUP3 PUSH2 0x242E JUMP JUMPDEST SWAP2 POP POP PUSH1 0x20 DUP4 ADD MLOAD PUSH2 0x24CD PUSH1 0x20 DUP7 ADD DUP3 PUSH2 0x2473 JUMP JUMPDEST POP PUSH1 0x40 DUP4 ADD MLOAD PUSH2 0x24E0 PUSH1 0x40 DUP7 ADD DUP3 PUSH2 0x248C JUMP JUMPDEST POP DUP1 SWAP2 POP POP SWAP3 SWAP2 POP POP JUMP JUMPDEST PUSH1 0x0 PUSH1 0x20 DUP3 ADD SWAP1 POP DUP2 DUP2 SUB PUSH1 0x0 DUP4 ADD MSTORE PUSH2 0x2505 DUP2 DUP5 PUSH2 0x249B JUMP JUMPDEST SWAP1 POP SWAP3 SWAP2 POP POP JUMP JUMPDEST PUSH1 0x0 DUP1 PUSH1 0x0 PUSH1 0x60 DUP5 DUP7 SUB SLT ISZERO PUSH2 0x2526 JUMPI PUSH2 0x2525 PUSH2 0x2220 JUMP JUMPDEST JUMPDEST PUSH1 0x0 DUP5 ADD CALLDATALOAD PUSH8 0xFFFFFFFFFFFFFFFF DUP2 GT ISZERO PUSH2 0x2544 JUMPI PUSH2 0x2543 PUSH2 0x2225 JUMP JUMPDEST JUMPDEST PUSH2 0x2550 DUP7 DUP3 DUP8 ADD PUSH2 0x2342 JUMP JUMPDEST SWAP4 POP POP PUSH1 0x20 DUP5 ADD CALLDATALOAD PUSH8 0xFFFFFFFFFFFFFFFF DUP2 GT ISZERO PUSH2 0x2571 JUMPI PUSH2 0x2570 PUSH2 0x2225 JUMP JUMPDEST JUMPDEST PUSH2 0x257D DUP7 DUP3 DUP8 ADD PUSH2 0x2342 JUMP JUMPDEST SWAP3 POP POP PUSH1 0x40 DUP5 ADD CALLDATALOAD PUSH8 0xFFFFFFFFFFFFFFFF DUP2 GT ISZERO PUSH2 0x259E JUMPI PUSH2 0x259D PUSH2 0x2225 JUMP JUMPDEST JUMPDEST PUSH2 0x25AA DUP7 DUP3 DUP8 ADD PUSH2 0x2342 JUMP JUMPDEST SWAP2 POP POP SWAP3 POP SWAP3 POP SWAP3 JUMP JUMPDEST PUSH2 0x25BD DUP2 PUSH2 0x2467 JUMP JUMPDEST DUP3 MSTORE POP POP JUMP JUMPDEST PUSH1 0x0 PUSH1 0x20 DUP3 ADD SWAP1 POP PUSH2 0x25D8 PUSH1 0x0 DUP4 ADD DUP5 PUSH2 0x25B4 JUMP JUMPDEST SWAP3 SWAP2 POP POP JUMP JUMPDEST PUSH1 0x0 PUSH8 0xFFFFFFFFFFFFFFFF DUP3 GT ISZERO PUSH2 0x25F9 JUMPI PUSH2 0x25F8 PUSH2 0x2245 JUMP JUMPDEST JUMPDEST PUSH1 0x20 DUP3 MUL SWAP1 POP PUSH1 0x20 DUP2 ADD SWAP1 POP SWAP2 SWAP1 POP JUMP JUMPDEST PUSH1 0x0 DUP1 REVERT JUMPDEST PUSH1 0x0 PUSH8 0xFFFFFFFFFFFFFFFF DUP3 GT ISZERO PUSH2 0x262A JUMPI PUSH2 0x2629 PUSH2 0x2245 JUMP JUMPDEST JUMPDEST PUSH1 0x20 DUP3 MUL SWAP1 POP PUSH1 0x20 DUP2 ADD SWAP1 POP SWAP2 SWAP1 POP JUMP JUMPDEST PUSH1 0x0 PUSH2 0x264E PUSH2 0x2649 DUP5 PUSH2 0x260F JUMP JUMPDEST PUSH2 0x22A5 JUMP JUMPDEST SWAP1 POP DUP1 DUP4 DUP3 MSTORE PUSH1 0x20 DUP3 ADD SWAP1 POP PUSH1 0x20 DUP5 MUL DUP4 ADD DUP6 DUP2 GT ISZERO PUSH2 0x2671 JUMPI PUSH2 0x2670 PUSH2 0x260A JUMP JUMPDEST JUMPDEST DUP4 JUMPDEST DUP2 DUP2 LT ISZERO PUSH2 0x26B8 JUMPI DUP1 CALLDATALOAD PUSH8 0xFFFFFFFFFFFFFFFF DUP2 GT ISZERO PUSH2 0x2696 JUMPI PUSH2 0x2695 PUSH2 0x222A JUMP JUMPDEST JUMPDEST DUP1 DUP7 ADD PUSH2 0x26A3 DUP10 DUP3 PUSH2 0x2342 JUMP JUMPDEST DUP6 MSTORE PUSH1 0x20 DUP6 ADD SWAP5 POP POP POP PUSH1 0x20 DUP2 ADD SWAP1 POP PUSH2 0x2673 JUMP JUMPDEST POP POP POP SWAP4 SWAP3 POP POP POP JUMP JUMPDEST PUSH1 0x0 DUP3 PUSH1 0x1F DUP4 ADD SLT PUSH2 0x26D7 JUMPI PUSH2 0x26D6 PUSH2 0x222A JUMP JUMPDEST JUMPDEST DUP2 CALLDATALOAD PUSH2 0x26E7 DUP5 DUP3 PUSH1 0x20 DUP7 ADD PUSH2 0x263B JUMP JUMPDEST SWAP2 POP POP SWAP3 SWAP2 POP POP JUMP JUMPDEST PUSH1 0x0 PUSH2 0x2703 PUSH2 0x26FE DUP5 PUSH2 0x25DE JUMP JUMPDEST PUSH2 0x22A5 JUMP JUMPDEST SWAP1 POP DUP1 DUP4 DUP3 MSTORE PUSH1 0x20 DUP3 ADD SWAP1 POP PUSH1 0x20 DUP5 MUL DUP4 ADD DUP6 DUP2 GT ISZERO PUSH2 0x2726 JUMPI PUSH2 0x2725 PUSH2 0x260A JUMP JUMPDEST JUMPDEST DUP4 JUMPDEST DUP2 DUP2 LT ISZERO PUSH2 0x276D JUMPI DUP1 CALLDATALOAD PUSH8 0xFFFFFFFFFFFFFFFF DUP2 GT ISZERO PUSH2 0x274B JUMPI PUSH2 0x274A PUSH2 0x222A JUMP JUMPDEST JUMPDEST DUP1 DUP7 ADD PUSH2 0x2758 DUP10 DUP3 PUSH2 0x26C2 JUMP JUMPDEST DUP6 MSTORE PUSH1 0x20 DUP6 ADD SWAP5 POP POP POP PUSH1 0x20 DUP2 ADD SWAP1 POP PUSH2 0x2728 JUMP JUMPDEST POP POP POP SWAP4 SWAP3 POP POP POP JUMP JUMPDEST PUSH1 0x0 DUP3 PUSH1 0x1F DUP4 ADD SLT PUSH2 0x278C JUMPI PUSH2 0x278B PUSH2 0x222A JUMP JUMPDEST JUMPDEST DUP2 CALLDATALOAD PUSH2 0x279C DUP5 DUP3 PUSH1 0x20 DUP7 ADD PUSH2 0x26F0 JUMP JUMPDEST SWAP2 POP POP SWAP3 SWAP2 POP POP JUMP JUMPDEST PUSH1 0x0 DUP1 PUSH1 0x0 DUP1 PUSH1 0x0 PUSH1 0xA0 DUP7 DUP9 SUB SLT ISZERO PUSH2 0x27C1 JUMPI PUSH2 0x27C0 PUSH2 0x2220 JUMP JUMPDEST JUMPDEST PUSH1 0x0 DUP7 ADD CALLDATALOAD PUSH8 0xFFFFFFFFFFFFFFFF DUP2 GT ISZERO PUSH2 0x27DF JUMPI PUSH2 0x27DE PUSH2 0x2225 JUMP JUMPDEST JUMPDEST PUSH2 0x27EB DUP9 DUP3 DUP10 ADD PUSH2 0x2342 JUMP JUMPDEST SWAP6 POP POP PUSH1 0x20 DUP7 ADD CALLDATALOAD PUSH8 0xFFFFFFFFFFFFFFFF DUP2 GT ISZERO PUSH2 0x280C JUMPI PUSH2 0x280B PUSH2 0x2225 JUMP JUMPDEST JUMPDEST PUSH2 0x2818 DUP9 DUP3 DUP10 ADD PUSH2 0x2777 JUMP JUMPDEST SWAP5 POP POP PUSH1 0x40 DUP7 ADD CALLDATALOAD PUSH8 0xFFFFFFFFFFFFFFFF DUP2 GT ISZERO PUSH2 0x2839 JUMPI PUSH2 0x2838 PUSH2 0x2225 JUMP JUMPDEST JUMPDEST PUSH2 0x2845 DUP9 DUP3 DUP10 ADD PUSH2 0x26C2 JUMP JUMPDEST SWAP4 POP POP PUSH1 0x60 DUP7 ADD CALLDATALOAD PUSH8 0xFFFFFFFFFFFFFFFF DUP2 GT ISZERO PUSH2 0x2866 JUMPI PUSH2 0x2865 PUSH2 0x2225 JUMP JUMPDEST JUMPDEST PUSH2 0x2872 DUP9 DUP3 DUP10 ADD PUSH2 0x2342 JUMP JUMPDEST SWAP3 POP POP PUSH1 0x80 DUP7 ADD CALLDATALOAD PUSH8 0xFFFFFFFFFFFFFFFF DUP2 GT ISZERO PUSH2 0x2893 JUMPI PUSH2 0x2892 PUSH2 0x2225 JUMP JUMPDEST JUMPDEST PUSH2 0x289F DUP9 DUP3 DUP10 ADD PUSH2 0x2342 JUMP JUMPDEST SWAP2 POP POP SWAP3 SWAP6 POP SWAP3 SWAP6 SWAP1 SWAP4 POP JUMP JUMPDEST PUSH1 0x0 PUSH8 0xFFFFFFFFFFFFFFFF DUP3 GT ISZERO PUSH2 0x28C7 JUMPI PUSH2 0x28C6 PUSH2 0x2245 JUMP JUMPDEST JUMPDEST PUSH2 0x28D0 DUP3 PUSH2 0x2234 JUMP JUMPDEST SWAP1 POP PUSH1 0x20 DUP2 ADD SWAP1 POP SWAP2 SWAP1 POP JUMP JUMPDEST PUSH1 0x0 PUSH2 0x28F0 PUSH2 0x28EB DUP5 PUSH2 0x28AC JUMP JUMPDEST PUSH2 0x22A5 JUMP JUMPDEST SWAP1 POP DUP3 DUP2 MSTORE PUSH1 0x20 DUP2 ADD DUP5 DUP5 DUP5 ADD GT ISZERO PUSH2 0x290C JUMPI PUSH2 0x290B PUSH2 0x222F JUMP JUMPDEST JUMPDEST PUSH2 0x2917 DUP5 DUP3 DUP6 PUSH2 0x22F1 JUMP JUMPDEST POP SWAP4 SWAP3 POP POP POP JUMP JUMPDEST PUSH1 0x0 DUP3 PUSH1 0x1F DUP4 ADD SLT PUSH2 0x2934 JUMPI PUSH2 0x2933 PUSH2 0x222A JUMP JUMPDEST JUMPDEST DUP2 CALLDATALOAD PUSH2 0x2944 DUP5 DUP3 PUSH1 0x20 DUP7 ADD PUSH2 0x28DD JUMP JUMPDEST SWAP2 POP POP SWAP3 SWAP2 POP POP JUMP JUMPDEST PUSH2 0x2956 DUP2 PUSH2 0x2482 JUMP JUMPDEST DUP2 EQ PUSH2 0x2961 JUMPI PUSH1 0x0 DUP1 REVERT JUMPDEST POP JUMP JUMPDEST PUSH1 0x0 DUP2 CALLDATALOAD SWAP1 POP PUSH2 0x2973 DUP2 PUSH2 0x294D JUMP JUMPDEST SWAP3 SWAP2 POP POP JUMP JUMPDEST PUSH1 0x0 PUSH20 0xFFFFFFFFFFFFFFFFFFFFFFFFFFFFFFFFFFFFFFFF DUP3 AND SWAP1 POP SWAP2 SWAP1 POP JUMP JUMPDEST PUSH1 0x0 PUSH2 0x29A4 DUP3 PUSH2 0x2979 JUMP JUMPDEST SWAP1 POP SWAP2 SWAP1 POP JUMP JUMPDEST PUSH2 0x29B4 DUP2 PUSH2 0x2999 JUMP JUMPDEST DUP2 EQ PUSH2 0x29BF JUMPI PUSH1 0x0 DUP1 REVERT JUMPDEST POP JUMP JUMPDEST PUSH1 0x0 DUP2 CALLDATALOAD SWAP1 POP PUSH2 0x29D1 DUP2 PUSH2 0x29AB JUMP JUMPDEST SWAP3 SWAP2 POP POP JUMP JUMPDEST PUSH1 0x0 DUP1 PUSH1 0x0 PUSH1 0x60 DUP5 DUP7 SUB SLT ISZERO PUSH2 0x29F0 JUMPI PUSH2 0x29EF PUSH2 0x2220 JUMP JUMPDEST JUMPDEST PUSH1 0x0 DUP5 ADD CALLDATALOAD PUSH8 0xFFFFFFFFFFFFFFFF DUP2 GT ISZERO PUSH2 0x2A0E JUMPI PUSH2 0x2A0D PUSH2 0x2225 JUMP JUMPDEST JUMPDEST PUSH2 0x2A1A DUP7 DUP3 DUP8 ADD PUSH2 0x291F JUMP JUMPDEST SWAP4 POP POP PUSH1 0x20 PUSH2 0x2A2B DUP7 DUP3 DUP8 ADD PUSH2 0x2964 JUMP JUMPDEST SWAP3 POP POP PUSH1 0x40 PUSH2 0x2A3C DUP7 DUP3 DUP8 ADD PUSH2 0x29C2 JUMP JUMPDEST SWAP2 POP POP SWAP3 POP SWAP3 POP SWAP3 JUMP JUMPDEST PUSH1 0x0 DUP2 SWAP1 POP SWAP2 SWAP1 POP JUMP JUMPDEST PUSH2 0x2A59 DUP2 PUSH2 0x2A46 JUMP JUMPDEST DUP3 MSTORE POP POP JUMP JUMPDEST PUSH1 0x0 PUSH1 0x20 DUP3 ADD SWAP1 POP PUSH2 0x2A74 PUSH1 0x0 DUP4 ADD DUP5 PUSH2 0x2A50 JUMP JUMPDEST SWAP3 SWAP2 POP POP JUMP JUMPDEST PUSH1 0x0 PUSH8 0xFFFFFFFFFFFFFFFF DUP3 GT ISZERO PUSH2 0x2A95 JUMPI PUSH2 0x2A94 PUSH2 0x2245 JUMP JUMPDEST JUMPDEST PUSH1 0x20 DUP3 MUL SWAP1 POP PUSH1 0x20 DUP2 ADD SWAP1 POP SWAP2 SWAP1 POP JUMP JUMPDEST PUSH1 0x0 DUP1 REVERT JUMPDEST PUSH1 0x0 DUP1 REVERT JUMPDEST PUSH2 0x2AB9 DUP2 PUSH2 0x2467 JUMP JUMPDEST DUP2 EQ PUSH2 0x2AC4 JUMPI PUSH1 0x0 DUP1 REVERT JUMPDEST POP JUMP JUMPDEST PUSH1 0x0 DUP2 CALLDATALOAD SWAP1 POP PUSH2 0x2AD6 DUP2 PUSH2 0x2AB0 JUMP JUMPDEST SWAP3 SWAP2 POP POP JUMP JUMPDEST PUSH1 0x0 PUSH1 0x60 DUP3 DUP5 SUB SLT ISZERO PUSH2 0x2AF2 JUMPI PUSH2 0x2AF1 PUSH2 0x2AA6 JUMP JUMPDEST JUMPDEST PUSH2 0x2AFC PUSH1 0x60 PUSH2 0x22A5 JUMP JUMPDEST SWAP1 POP PUSH1 0x0 DUP3 ADD CALLDATALOAD PUSH8 0xFFFFFFFFFFFFFFFF DUP2 GT ISZERO PUSH2 0x2B1C JUMPI PUSH2 0x2B1B PUSH2 0x2AAB JUMP JUMPDEST JUMPDEST PUSH2 0x2B28 DUP5 DUP3 DUP6 ADD PUSH2 0x2342 JUMP JUMPDEST PUSH1 0x0 DUP4 ADD MSTORE POP PUSH1 0x20 PUSH2 0x2B3C DUP5 DUP3 DUP6 ADD PUSH2 0x2AC7 JUMP JUMPDEST PUSH1 0x20 DUP4 ADD MSTORE POP PUSH1 0x40 PUSH2 0x2B50 DUP5 DUP3 DUP6 ADD PUSH2 0x2964 JUMP JUMPDEST PUSH1 0x40 DUP4 ADD MSTORE POP SWAP3 SWAP2 POP POP JUMP JUMPDEST PUSH1 0x0 PUSH2 0x2B6F PUSH2 0x2B6A DUP5 PUSH2 0x2A7A JUMP JUMPDEST PUSH2 0x22A5 JUMP JUMPDEST SWAP1 POP DUP1 DUP4 DUP3 MSTORE PUSH1 0x20 DUP3 ADD SWAP1 POP PUSH1 0x20 DUP5 MUL DUP4 ADD DUP6 DUP2 GT ISZERO PUSH2 0x2B92 JUMPI PUSH2 0x2B91 PUSH2 0x260A JUMP JUMPDEST JUMPDEST DUP4 JUMPDEST DUP2 DUP2 LT ISZERO PUSH2 0x2BD9 JUMPI DUP1 CALLDATALOAD PUSH8 0xFFFFFFFFFFFFFFFF DUP2 GT ISZERO PUSH2 0x2BB7 JUMPI PUSH2 0x2BB6 PUSH2 0x222A JUMP JUMPDEST JUMPDEST DUP1 DUP7 ADD PUSH2 0x2BC4 DUP10 DUP3 PUSH2 0x2ADC JUMP JUMPDEST DUP6 MSTORE PUSH1 0x20 DUP6 ADD SWAP5 POP POP POP PUSH1 0x20 DUP2 ADD SWAP1 POP PUSH2 0x2B94 JUMP JUMPDEST POP POP POP SWAP4 SWAP3 POP POP POP JUMP JUMPDEST PUSH1 0x0 DUP3 PUSH1 0x1F DUP4 ADD SLT PUSH2 0x2BF8 JUMPI PUSH2 0x2BF7 PUSH2 0x222A JUMP JUMPDEST JUMPDEST DUP2 CALLDATALOAD PUSH2 0x2C08 DUP5 DUP3 PUSH1 0x20 DUP7 ADD PUSH2 0x2B5C JUMP JUMPDEST SWAP2 POP POP SWAP3 SWAP2 POP POP JUMP JUMPDEST PUSH1 0x0 DUP1 PUSH1 0x0 PUSH1 0x60 DUP5 DUP7 SUB SLT ISZERO PUSH2 0x2C2A JUMPI PUSH2 0x2C29 PUSH2 0x2220 JUMP JUMPDEST JUMPDEST PUSH1 0x0 DUP5 ADD CALLDATALOAD PUSH8 0xFFFFFFFFFFFFFFFF DUP2 GT ISZERO PUSH2 0x2C48 JUMPI PUSH2 0x2C47 PUSH2 0x2225 JUMP JUMPDEST JUMPDEST PUSH2 0x2C54 DUP7 DUP3 DUP8 ADD PUSH2 0x2777 JUMP JUMPDEST SWAP4 POP POP PUSH1 0x20 DUP5 ADD CALLDATALOAD PUSH8 0xFFFFFFFFFFFFFFFF DUP2 GT ISZERO PUSH2 0x2C75 JUMPI PUSH2 0x2C74 PUSH2 0x2225 JUMP JUMPDEST JUMPDEST PUSH2 0x2C81 DUP7 DUP3 DUP8 ADD PUSH2 0x2BE3 JUMP JUMPDEST SWAP3 POP POP PUSH1 0x40 DUP5 ADD CALLDATALOAD PUSH8 0xFFFFFFFFFFFFFFFF DUP2 GT ISZERO PUSH2 0x2CA2 JUMPI PUSH2 0x2CA1 PUSH2 0x2225 JUMP JUMPDEST JUMPDEST PUSH2 0x2CAE DUP7 DUP3 DUP8 ADD PUSH2 0x2ADC JUMP JUMPDEST SWAP2 POP POP SWAP3 POP SWAP3 POP SWAP3 JUMP JUMPDEST PUSH1 0x0 PUSH1 0x20 DUP3 DUP5 SUB SLT ISZERO PUSH2 0x2CCE JUMPI PUSH2 0x2CCD PUSH2 0x2220 JUMP JUMPDEST JUMPDEST PUSH1 0x0 DUP3 ADD CALLDATALOAD PUSH8 0xFFFFFFFFFFFFFFFF DUP2 GT ISZERO PUSH2 0x2CEC JUMPI PUSH2 0x2CEB PUSH2 0x2225 JUMP JUMPDEST JUMPDEST PUSH2 0x2CF8 DUP5 DUP3 DUP6 ADD PUSH2 0x2ADC JUMP JUMPDEST SWAP2 POP POP SWAP3 SWAP2 POP POP JUMP JUMPDEST PUSH32 0x4E487B7100000000000000000000000000000000000000000000000000000000 PUSH1 0x0 MSTORE PUSH1 0x32 PUSH1 0x4 MSTORE PUSH1 0x24 PUSH1 0x0 REVERT JUMPDEST PUSH32 0x4E487B7100000000000000000000000000000000000000000000000000000000 PUSH1 0x0 MSTORE PUSH1 0x11 PUSH1 0x4 MSTORE PUSH1 0x24 PUSH1 0x0 REVERT JUMPDEST PUSH1 0x0 PUSH2 0x2D6A DUP3 PUSH2 0x2482 JUMP JUMPDEST SWAP2 POP PUSH32 0xFFFFFFFFFFFFFFFFFFFFFFFFFFFFFFFFFFFFFFFFFFFFFFFFFFFFFFFFFFFFFFFF DUP3 SUB PUSH2 0x2D9C JUMPI PUSH2 0x2D9B PUSH2 0x2D30 JUMP JUMPDEST JUMPDEST PUSH1 0x1 DUP3 ADD SWAP1 POP SWAP2 SWAP1 POP JUMP JUMPDEST PUSH1 0x0 DUP2 MLOAD SWAP1 POP SWAP2 SWAP1 POP JUMP JUMPDEST PUSH1 0x0 DUP2 SWAP1 POP SWAP3 SWAP2 POP POP JUMP JUMPDEST PUSH1 0x0 PUSH2 0x2DC8 DUP3 PUSH2 0x2DA7 JUMP JUMPDEST PUSH2 0x2DD2 DUP2 DUP6 PUSH2 0x2DB2 JUMP JUMPDEST SWAP4 POP PUSH2 0x2DE2 DUP2 DUP6 PUSH1 0x20 DUP7 ADD PUSH2 0x2404 JUMP JUMPDEST DUP1 DUP5 ADD SWAP2 POP POP SWAP3 SWAP2 POP POP JUMP JUMPDEST PUSH1 0x0 DUP2 SWAP1 POP SWAP2 SWAP1 POP JUMP JUMPDEST PUSH2 0x2E09 PUSH2 0x2E04 DUP3 PUSH2 0x2482 JUMP JUMPDEST PUSH2 0x2DEE JUMP JUMPDEST DUP3 MSTORE POP POP JUMP JUMPDEST PUSH1 0x0 DUP2 PUSH1 0x60 SHL SWAP1 POP SWAP2 SWAP1 POP JUMP JUMPDEST PUSH1 0x0 PUSH2 0x2E27 DUP3 PUSH2 0x2E0F JUMP JUMPDEST SWAP1 POP SWAP2 SWAP1 POP JUMP JUMPDEST PUSH1 0x0 PUSH2 0x2E39 DUP3 PUSH2 0x2E1C JUMP JUMPDEST SWAP1 POP SWAP2 SWAP1 POP JUMP JUMPDEST PUSH2 0x2E51 PUSH2 0x2E4C DUP3 PUSH2 0x2999 JUMP JUMPDEST PUSH2 0x2E2E JUMP JUMPDEST DUP3 MSTORE POP POP JUMP JUMPDEST PUSH1 0x0 PUSH2 0x2E63 DUP3 DUP7 PUSH2 0x2DBD JUMP JUMPDEST SWAP2 POP PUSH2 0x2E6F DUP3 DUP6 PUSH2 0x2DF8 JUMP JUMPDEST PUSH1 0x20 DUP3 ADD SWAP2 POP PUSH2 0x2E7F DUP3 DUP5 PUSH2 0x2E40 JUMP JUMPDEST PUSH1 0x14 DUP3 ADD SWAP2 POP DUP2 SWAP1 POP SWAP5 SWAP4 POP POP POP POP JUMP JUMPDEST PUSH1 0x0 DUP3 DUP3 MSTORE PUSH1 0x20 DUP3 ADD SWAP1 POP SWAP3 SWAP2 POP POP JUMP JUMPDEST PUSH1 0x0 PUSH2 0x2EAC DUP3 PUSH2 0x23E8 JUMP JUMPDEST PUSH2 0x2EB6 DUP2 DUP6 PUSH2 0x2E90 JUMP JUMPDEST SWAP4 POP PUSH2 0x2EC6 DUP2 DUP6 PUSH1 0x20 DUP7 ADD PUSH2 0x2404 JUMP JUMPDEST PUSH2 0x2ECF DUP2 PUSH2 0x2234 JUMP JUMPDEST DUP5 ADD SWAP2 POP POP SWAP3 SWAP2 POP POP JUMP JUMPDEST PUSH1 0x0 PUSH1 0x20 DUP3 ADD SWAP1 POP DUP2 DUP2 SUB PUSH1 0x0 DUP4 ADD MSTORE PUSH2 0x2EF4 DUP2 DUP5 PUSH2 0x2EA1 JUMP JUMPDEST SWAP1 POP SWAP3 SWAP2 POP POP JUMP JUMPDEST PUSH1 0x0 DUP3 DUP3 MSTORE PUSH1 0x20 DUP3 ADD SWAP1 POP SWAP3 SWAP2 POP POP JUMP JUMPDEST PUSH1 0x0 PUSH2 0x2F18 DUP3 PUSH2 0x2DA7 JUMP JUMPDEST PUSH2 0x2F22 DUP2 DUP6 PUSH2 0x2EFC JUMP JUMPDEST SWAP4 POP PUSH2 0x2F32 DUP2 DUP6 PUSH1 0x20 DUP7 ADD PUSH2 0x2404 JUMP JUMPDEST PUSH2 0x2F3B DUP2 PUSH2 0x2234 JUMP JUMPDEST DUP5 ADD SWAP2 POP POP SWAP3 SWAP2 POP POP JUMP JUMPDEST PUSH1 0x0 PUSH1 0x20 DUP3 ADD SWAP1 POP DUP2 DUP2 SUB PUSH1 0x0 DUP4 ADD MSTORE PUSH2 0x2F60 DUP2 DUP5 PUSH2 0x2F0D JUMP JUMPDEST SWAP1 POP SWAP3 SWAP2 POP POP JUMP JUMPDEST PUSH2 0x2F71 DUP2 PUSH2 0x2482 JUMP JUMPDEST DUP3 MSTORE POP POP JUMP JUMPDEST PUSH1 0x0 PUSH1 0x40 DUP3 ADD SWAP1 POP DUP2 DUP2 SUB PUSH1 0x0 DUP4 ADD MSTORE PUSH2 0x2F91 DUP2 DUP6 PUSH2 0x2F0D JUMP JUMPDEST SWAP1 POP PUSH2 0x2FA0 PUSH1 0x20 DUP4 ADD DUP5 PUSH2 0x2F68 JUMP JUMPDEST SWAP4 SWAP3 POP POP POP JUMP JUMPDEST PUSH1 0x0 PUSH1 0x40 DUP3 ADD SWAP1 POP DUP2 DUP2 SUB PUSH1 0x0 DUP4 ADD MSTORE PUSH2 0x2FC1 DUP2 DUP6 PUSH2 0x2F0D JUMP JUMPDEST SWAP1 POP PUSH2 0x2FD0 PUSH1 0x20 DUP4 ADD DUP5 PUSH2 0x25B4 JUMP JUMPDEST SWAP4 SWAP3 POP POP POP JUMP JUMPDEST PUSH32 0x77726F6E6720696E766572736500000000000000000000000000000000000000 PUSH1 0x0 DUP3 ADD MSTORE POP JUMP JUMPDEST PUSH1 0x0 PUSH2 0x300D PUSH1 0xD DUP4 PUSH2 0x2EFC JUMP JUMPDEST SWAP2 POP PUSH2 0x3018 DUP3 PUSH2 0x2FD7 JUMP JUMPDEST PUSH1 0x20 DUP3 ADD SWAP1 POP SWAP2 SWAP1 POP JUMP JUMPDEST PUSH1 0x0 PUSH1 0x20 DUP3 ADD SWAP1 POP DUP2 DUP2 SUB PUSH1 0x0 DUP4 ADD MSTORE PUSH2 0x303C DUP2 PUSH2 0x3000 JUMP JUMPDEST SWAP1 POP SWAP2 SWAP1 POP JUMP JUMPDEST PUSH1 0x0 DUP2 SWAP1 POP SWAP2 SWAP1 POP JUMP JUMPDEST PUSH1 0x0 PUSH2 0x3058 DUP3 PUSH2 0x3043 JUMP JUMPDEST SWAP2 POP PUSH2 0x3063 DUP4 PUSH2 0x3043 JUMP JUMPDEST SWAP3 POP DUP3 DUP3 MUL PUSH2 0x3071 DUP2 PUSH2 0x3043 JUMP JUMPDEST SWAP2 POP PUSH32 0x8000000000000000000000000000000000000000000000000000000000000000 DUP5 EQ PUSH1 0x0 DUP5 SLT AND ISZERO PUSH2 0x30A9 JUMPI PUSH2 0x30A8 PUSH2 0x2D30 JUMP JUMPDEST JUMPDEST DUP3 DUP3 SDIV DUP5 EQ DUP4 ISZERO OR PUSH2 0x30BE JUMPI PUSH2 0x30BD PUSH2 0x2D30 JUMP JUMPDEST JUMPDEST POP SWAP3 SWAP2 POP POP JUMP JUMPDEST PUSH1 0x0 PUSH2 0x30D0 DUP3 PUSH2 0x2482 JUMP JUMPDEST SWAP2 POP PUSH2 0x30DB DUP4 PUSH2 0x2482 JUMP JUMPDEST SWAP3 POP DUP3 DUP3 ADD SWAP1 POP DUP1 DUP3 GT ISZERO PUSH2 0x30F3 JUMPI PUSH2 0x30F2 PUSH2 0x2D30 JUMP JUMPDEST JUMPDEST SWAP3 SWAP2 POP POP JUMP JUMPDEST PUSH1 0x0 PUSH2 0x3104 DUP3 PUSH2 0x2482 JUMP JUMPDEST SWAP2 POP PUSH2 0x310F DUP4 PUSH2 0x2482 JUMP JUMPDEST SWAP3 POP DUP3 DUP3 SUB SWAP1 POP DUP2 DUP2 GT ISZERO PUSH2 0x3127 JUMPI PUSH2 0x3126 PUSH2 0x2D30 JUMP JUMPDEST JUMPDEST SWAP3 SWAP2 POP POP JUMP INVALID 0x2D 0x2D 0x2D 0x2D 0x2D 0x2D 0x2D 0x2D 0x2D 0x2D 0x2D 0x2D 0x2D 0x2D 0x2D 0x2D 0x2D 0x2D 0x2D 0x2D 0x2D 0x2D 0x2D 0x2D 0x2D 0x2D 0x2D 0x2D 0x2D 0x2D 0x2D 0x2D 0x2D 0x2D 0x2D 0x2D 0x2D 0x2D 0x2D 0x2D 0x2D 0x2D 0x2D 0x2D 0x2D 0x2D 0x2D 0x2D 0x2D 0x2D 0x2D 0x2D 0x2D 0x2D 0x2D 0x2D 0x2D 0x2D 0x2D 0x2D 0x2D 0x2D 0x2D 0x2D PUSH12 0xD37CCE7436BA529478C54D39 PUSH10 0xF91F6B807DA4CB108D73 MSIZE CALLCODE LT SWAP15 0xB3 0x22 0xE5 0xDD 0xE9 SWAP13 0xC RETURNDATASIZE 0xD5 0xB7 OR EXTCODESIZE ADDMOD EXTCODECOPY CALLCODE SLOAD DUP5 0x2C PUSH12 0xD1257EDDD5308E3431C4CA97 0xE2 0xFB ADDRESS 0xA6 SSTORE 0xB0 SHL MSTORE 0xAE LOG1 DUP2 0xE1 MUL 0x5E SWAP14 RETURNDATASIZE 0xF7 ADDMOD 0x22 NUMBER 0xD4 0xE SLOAD DUP7 DUP9 RETURNDATASIZE DUP8 PUSH15 0x88C92BD0DAD6FEBBF48B2E9E225129 DUP1 STOP STOP STOP STOP STOP STOP STOP STOP STOP STOP STOP STOP STOP STOP STOP STOP STOP STOP STOP STOP STOP STOP STOP STOP STOP STOP STOP STOP STOP STOP STOP STOP STOP STOP STOP STOP STOP STOP STOP STOP STOP STOP STOP STOP STOP STOP STOP STOP STOP STOP STOP STOP STOP STOP STOP STOP STOP STOP STOP STOP STOP STOP STOP STOP STOP STOP STOP STOP STOP STOP STOP STOP STOP STOP STOP STOP STOP STOP STOP STOP STOP STOP STOP STOP STOP STOP STOP STOP ADD PUSH5 0x9420290310 ORIGIN PUSH2 0x2916 0x22 SLOAD GT SWAP6 STOP CHAINID PUSH19 0x18768306907220606612984880162663964403 0x22 KECCAK256 SLT PC DUP2 ADD 0x23 PUSH25 0x53583864381409872326875081600491180970229675744463 OR CALLVALUE PUSH25 0x29157791887698685274589761470323949923228218686854 SWAP7 SWAP1 STOP DUP5 DUP9 SSTORE SUB SWAP2 XOR DUP5 SELFBALANCE KECCAK256 CODESIZE PUSH20 0x278121199505516349412276518630550203049 JUMP SELFBALANCE SWAP6 SELFBALANCE DUP2 CALLDATACOPY PUSH8 0x8394182972409603 OR SWAP2 DUP9 PUSH10 0x58082876228581858471 SWAP4 PUSH2 0x3561 OR DUP2 0x26 DUP6 CALLDATALOAD CALLVALUE PUSH25 0x39509920886825013432451090005301571200896951888235 DUP1 BLOCKHASH CODESIZE SELFBALANCE CALLDATASIZE PUSH22 0x31249643805296638446891949726632723491917642 PUSH7 0x6013553049707 SWAP12 0xED PUSH20 0x3B48D69BDB03076CB17D9809072A5A765460BC72 SMOD 0x2D PUSH9 0x7DBA492AFE951D75B8 EQ CREATE2 PUSH2 0xF253 0xEE 0x5C 0xC0 RETURN 0xD7 SUB 0xB6 0xEA 0xB5 0xB5 0xDF PUSH4 0x5B03A543 PUSH29 0xA5C179309812F5B5C97650361C645BC99F806054DE21EB187BC0A704E 0xD3 DUP14 RETURNDATASIZE 0x4C 0x28 PUSH18 0xA117C19B6DA7E9A3D808481C46B22652D15B DUP10 SWAP11 0xD3 PUSH26 0x2DA5419E50EE38759560002388A26469706673582212207BF5A2 CREATE2 RETURNDATACOPY 0x4C 0xA5 EXP CALL 0x1E GASLIMIT 0xBA 0x27 0xEF 0xD7 SWAP12 DUP12 0x4E 0xF6 PUSH29 0x723C5DCA0CE37ECDC616B68D64736F6C63430008110033000000000000 "},"methodIdentifiers":{"add(bytes,bytes)":"3b007d8e","checkEvery(bytes[][],(bytes,bool,uint256)[],(bytes,bool,uint256))":"b1e9dfaa","generator((bytes,bool,uint256))":"d5f679b1","hash(string,uint256,address)":"5dda416e","test()":"f8a8fd6d","test2()":"66e41cb7","verifyInvMod(bytes,bytes,bytes)":"41a3aa0c","verifyMembershipZKP(bytes,bytes[][],bytes[],bytes,bytes)":"5b6d3844"}}}}}