{"contracts/Evoting.sol":{"Evoting":{"abi":[{"inputs":[{"internalType":"bytes32","name":"_voteID","type":"bytes32"},{"internalType":"string","name":"_name","type":"string"},{"internalType":"string","name":"_description","type":"string"},{"internalType":"address","name":"_admin","type":"address"},{"internalType":"uint256","name":"_start_time","type":"uint256"},{"internalType":"uint256","name":"_end_time","type":"uint256"},{"components":[{"internalType":"uint8","name":"ballotType","type":"uint8"},{"internalType":"string","name":"name","type":"string"},{"internalType":"string","name":"information","type":"string"},{"internalType":"string","name":"title","type":"string"},{"internalType":"string[]","name":"candidates","type":"string[]"},{"internalType":"uint256","name":"maxSelectableAnswer","type":"uint256"}],"internalType":"struct Utils2.BallotPaper[]","name":"_ballot_papers","type":"tuple[]"}],"stateMutability":"nonpayable","type":"constructor"},{"anonymous":false,"inputs":[],"name":"BallotsAdded","type":"event"},{"anonymous":false,"inputs":[],"name":"BallotsRemoved","type":"event"},{"anonymous":false,"inputs":[],"name":"VoteReceived","type":"event"},{"anonymous":false,"inputs":[{"indexed":false,"internalType":"bool","name":"","type":"bool"}],"name":"VoterAdded","type":"event"},{"anonymous":false,"inputs":[],"name":"VotingCanceled","type":"event"},{"anonymous":false,"inputs":[],"name":"VotingClosed","type":"event"},{"anonymous":false,"inputs":[],"name":"VotingOpened","type":"event"},{"anonymous":false,"inputs":[],"name":"VotingUpdated","type":"event"},{"inputs":[],"name":"admin","outputs":[{"internalType":"address","name":"","type":"address"}],"stateMutability":"view","type":"function"},{"inputs":[{"internalType":"uint256","name":"","type":"uint256"}],"name":"ballot_papers","outputs":[{"internalType":"uint8","name":"ballotType","type":"uint8"},{"internalType":"string","name":"name","type":"string"},{"internalType":"string","name":"information","type":"string"},{"internalType":"string","name":"title","type":"string"},{"internalType":"uint256","name":"maxSelectableAnswer","type":"uint256"}],"stateMutability":"view","type":"function"},{"inputs":[],"name":"cancel_voting","outputs":[],"stateMutability":"nonpayable","type":"function"},{"inputs":[],"name":"canceled","outputs":[{"internalType":"bool","name":"","type":"bool"}],"stateMutability":"view","type":"function"},{"inputs":[],"name":"createdAt","outputs":[{"internalType":"uint256","name":"","type":"uint256"}],"stateMutability":"view","type":"function"},{"inputs":[],"name":"description","outputs":[{"internalType":"string","name":"","type":"string"}],"stateMutability":"view","type":"function"},{"inputs":[],"name":"end_time","outputs":[{"internalType":"uint256","name":"","type":"uint256"}],"stateMutability":"view","type":"function"},{"inputs":[{"internalType":"uint256","name":"","type":"uint256"},{"internalType":"uint256","name":"","type":"uint256"}],"name":"finalVotes","outputs":[{"internalType":"string","name":"sessionId","type":"string"},{"internalType":"string","name":"cipherText","type":"string"},{"components":[{"internalType":"string[]","name":"p1","type":"string[]"},{"internalType":"string[]","name":"p2","type":"string[]"},{"internalType":"string[]","name":"p3","type":"string[]"}],"internalType":"struct Utils2.Proof","name":"proof","type":"tuple"},{"components":[{"internalType":"string","name":"y0","type":"string"},{"internalType":"string","name":"s","type":"string"},{"internalType":"string[]","name":"c","type":"string[]"}],"internalType":"struct Utils2.Signature","name":"signature","type":"tuple"},{"internalType":"string","name":"groupId","type":"string"},{"internalType":"string","name":"token","type":"string"}],"stateMutability":"view","type":"function"},{"inputs":[],"name":"getVotes","outputs":[{"components":[{"internalType":"uint8","name":"index","type":"uint8"},{"components":[{"internalType":"string","name":"sessionId","type":"string"},{"internalType":"string","name":"cipherText","type":"string"},{"components":[{"internalType":"string[]","name":"p1","type":"string[]"},{"internalType":"string[]","name":"p2","type":"string[]"},{"internalType":"string[]","name":"p3","type":"string[]"}],"internalType":"struct Utils2.Proof","name":"proof","type":"tuple"},{"components":[{"internalType":"string","name":"y0","type":"string"},{"internalType":"string","name":"s","type":"string"},{"internalType":"string[]","name":"c","type":"string[]"}],"internalType":"struct Utils2.Signature","name":"signature","type":"tuple"},{"internalType":"string","name":"groupId","type":"string"},{"internalType":"string","name":"token","type":"string"}],"internalType":"struct Utils2.Ballot[]","name":"ballot","type":"tuple[]"}],"internalType":"struct Utils2.BallotWithIndex[]","name":"_votes","type":"tuple[]"}],"stateMutability":"view","type":"function"},{"inputs":[],"name":"get_ballot_papers","outputs":[{"components":[{"internalType":"uint8","name":"ballotType","type":"uint8"},{"internalType":"string","name":"name","type":"string"},{"internalType":"string","name":"information","type":"string"},{"internalType":"string","name":"title","type":"string"},{"internalType":"string[]","name":"candidates","type":"string[]"},{"internalType":"uint256","name":"maxSelectableAnswer","type":"uint256"}],"internalType":"struct Utils2.BallotPaper[]","name":"","type":"tuple[]"}],"stateMutability":"view","type":"function"},{"inputs":[],"name":"get_ballots_length","outputs":[{"internalType":"uint256","name":"_length","type":"uint256"}],"stateMutability":"view","type":"function"},{"inputs":[],"name":"get_count_total_votes","outputs":[{"internalType":"uint256[]","name":"","type":"uint256[]"}],"stateMutability":"view","type":"function"},{"inputs":[],"name":"get_details","outputs":[{"internalType":"address","name":"_admin","type":"address"},{"internalType":"string","name":"_name","type":"string"},{"internalType":"string","name":"_description","type":"string"},{"internalType":"enum Evoting.VotingState","name":"_state","type":"uint8"},{"internalType":"uint256","name":"_start_time","type":"uint256"},{"internalType":"uint256","name":"_end_time","type":"uint256"},{"internalType":"uint256","name":"_createdAt","type":"uint256"},{"internalType":"bytes32","name":"_voteID","type":"bytes32"},{"components":[{"internalType":"uint8","name":"ballotType","type":"uint8"},{"internalType":"string","name":"name","type":"string"},{"internalType":"string","name":"information","type":"string"},{"internalType":"string","name":"title","type":"string"},{"internalType":"string[]","name":"candidates","type":"string[]"},{"internalType":"uint256","name":"maxSelectableAnswer","type":"uint256"}],"internalType":"struct Utils2.BallotPaper[]","name":"_ballot_papers","type":"tuple[]"}],"stateMutability":"view","type":"function"},{"inputs":[],"name":"get_state","outputs":[{"internalType":"enum Evoting.VotingState","name":"state","type":"uint8"}],"stateMutability":"view","type":"function"},{"inputs":[],"name":"get_votes","outputs":[{"components":[{"internalType":"string","name":"sessionId","type":"string"},{"internalType":"string","name":"cipherText","type":"string"},{"components":[{"internalType":"string[]","name":"p1","type":"string[]"},{"internalType":"string[]","name":"p2","type":"string[]"},{"internalType":"string[]","name":"p3","type":"string[]"}],"internalType":"struct Utils2.Proof","name":"proof","type":"tuple"},{"components":[{"internalType":"string","name":"y0","type":"string"},{"internalType":"string","name":"s","type":"string"},{"internalType":"string[]","name":"c","type":"string[]"}],"internalType":"struct Utils2.Signature","name":"signature","type":"tuple"},{"internalType":"string","name":"groupId","type":"string"},{"internalType":"string","name":"token","type":"string"}],"internalType":"struct Utils2.Ballot[][]","name":"","type":"tuple[][]"}],"stateMutability":"view","type":"function"},{"inputs":[{"internalType":"uint256","name":"","type":"uint256"}],"name":"is_valid_ballot","outputs":[{"internalType":"bool","name":"","type":"bool"}],"stateMutability":"view","type":"function"},{"inputs":[],"name":"name","outputs":[{"internalType":"string","name":"","type":"string"}],"stateMutability":"view","type":"function"},{"inputs":[{"components":[{"internalType":"string","name":"sessionId","type":"string"},{"internalType":"string","name":"cipherText","type":"string"},{"components":[{"internalType":"string[]","name":"p1","type":"string[]"},{"internalType":"string[]","name":"p2","type":"string[]"},{"internalType":"string[]","name":"p3","type":"string[]"}],"internalType":"struct Utils2.Proof","name":"proof","type":"tuple"},{"components":[{"internalType":"string","name":"y0","type":"string"},{"internalType":"string","name":"s","type":"string"},{"internalType":"string[]","name":"c","type":"string[]"}],"internalType":"struct Utils2.Signature","name":"signature","type":"tuple"},{"internalType":"string","name":"groupId","type":"string"},{"internalType":"string","name":"token","type":"string"}],"internalType":"struct Utils2.Ballot","name":"_b","type":"tuple"}],"name":"sendVote","outputs":[],"stateMutability":"nonpayable","type":"function"},{"inputs":[],"name":"start_time","outputs":[{"internalType":"uint256","name":"","type":"uint256"}],"stateMutability":"view","type":"function"},{"inputs":[{"components":[{"internalType":"string","name":"name","type":"string"},{"internalType":"string","name":"description","type":"string"},{"internalType":"uint256","name":"start_time","type":"uint256"},{"internalType":"uint256","name":"end_time","type":"uint256"}],"internalType":"struct Evoting.VotingDetails","name":"_details","type":"tuple"},{"components":[{"internalType":"uint256","name":"index","type":"uint256"},{"components":[{"internalType":"uint8","name":"ballotType","type":"uint8"},{"internalType":"string","name":"name","type":"string"},{"internalType":"string","name":"information","type":"string"},{"internalType":"string","name":"title","type":"string"},{"internalType":"string[]","name":"candidates","type":"string[]"},{"internalType":"uint256","name":"maxSelectableAnswer","type":"uint256"}],"internalType":"struct Utils2.BallotPaper","name":"ballot_paper","type":"tuple"}],"internalType":"struct Evoting.BallotDetails[]","name":"_to_update","type":"tuple[]"},{"components":[{"internalType":"uint8","name":"ballotType","type":"uint8"},{"internalType":"string","name":"name","type":"string"},{"internalType":"string","name":"information","type":"string"},{"internalType":"string","name":"title","type":"string"},{"internalType":"string[]","name":"candidates","type":"string[]"},{"internalType":"uint256","name":"maxSelectableAnswer","type":"uint256"}],"internalType":"struct Utils2.BallotPaper[]","name":"_to_add","type":"tuple[]"},{"internalType":"uint256[]","name":"_to_delete","type":"uint256[]"}],"name":"update_voting","outputs":[],"stateMutability":"nonpayable","type":"function"},{"inputs":[{"components":[{"internalType":"uint8","name":"index","type":"uint8"},{"components":[{"internalType":"string","name":"sessionId","type":"string"},{"internalType":"string","name":"cipherText","type":"string"},{"components":[{"internalType":"string[]","name":"p1","type":"string[]"},{"internalType":"string[]","name":"p2","type":"string[]"},{"internalType":"string[]","name":"p3","type":"string[]"}],"internalType":"struct Utils2.Proof","name":"proof","type":"tuple"},{"components":[{"internalType":"string","name":"y0","type":"string"},{"internalType":"string","name":"s","type":"string"},{"internalType":"string[]","name":"c","type":"string[]"}],"internalType":"struct Utils2.Signature","name":"signature","type":"tuple"},{"internalType":"string","name":"groupId","type":"string"},{"internalType":"string","name":"token","type":"string"}],"internalType":"struct Utils2.Ballot[]","name":"ballot","type":"tuple[]"}],"internalType":"struct Utils2.BallotWithIndex[]","name":"_ballots","type":"tuple[]"}],"name":"vote","outputs":[],"stateMutability":"nonpayable","type":"function"},{"inputs":[],"name":"voteID","outputs":[{"internalType":"bytes32","name":"","type":"bytes32"}],"stateMutability":"view","type":"function"},{"inputs":[{"internalType":"uint256","name":"","type":"uint256"}],"name":"votes","outputs":[{"internalType":"uint8","name":"index","type":"uint8"}],"stateMutability":"view","type":"function"},{"inputs":[{"internalType":"uint256","name":"","type":"uint256"},{"internalType":"uint256","name":"","type":"uint256"}],"name":"votes_per_ballot_paper_type1","outputs":[{"internalType":"string","name":"sessionId","type":"string"},{"internalType":"string","name":"cipherText","type":"string"},{"components":[{"internalType":"string[]","name":"p1","type":"string[]"},{"internalType":"string[]","name":"p2","type":"string[]"},{"internalType":"string[]","name":"p3","type":"string[]"}],"internalType":"struct Utils2.Proof","name":"proof","type":"tuple"},{"components":[{"internalType":"string","name":"y0","type":"string"},{"internalType":"string","name":"s","type":"string"},{"internalType":"string[]","name":"c","type":"string[]"}],"internalType":"struct Utils2.Signature","name":"signature","type":"tuple"},{"internalType":"string","name":"groupId","type":"string"},{"internalType":"string","name":"token","type":"string"}],"stateMutability":"view","type":"function"},{"inputs":[{"internalType":"uint256","name":"","type":"uint256"},{"internalType":"uint256","name":"","type":"uint256"},{"internalType":"uint256","name":"","type":"uint256"}],"name":"votes_per_ballot_paper_type2_per_candidates","outputs":[{"internalType":"string","name":"sessionId","type":"string"},{"internalType":"string","name":"cipherText","type":"string"},{"components":[{"internalType":"string[]","name":"p1","type":"string[]"},{"internalType":"string[]","name":"p2","type":"string[]"},{"internalType":"string[]","name":"p3","type":"string[]"}],"internalType":"struct Utils2.Proof","name":"proof","type":"tuple"},{"components":[{"internalType":"string","name":"y0","type":"string"},{"internalType":"string","name":"s","type":"string"},{"internalType":"string[]","name":"c","type":"string[]"}],"internalType":"struct Utils2.Signature","name":"signature","type":"tuple"},{"internalType":"string","name":"groupId","type":"string"},{"internalType":"string","name":"token","type":"string"}],"stateMutability":"view","type":"function"},{"inputs":[{"internalType":"address","name":"","type":"address"},{"internalType":"uint256","name":"","type":"uint256"}],"name":"votes_per_voters","outputs":[{"internalType":"string","name":"sessionId","type":"string"},{"internalType":"string","name":"cipherText","type":"string"},{"components":[{"internalType":"string[]","name":"p1","type":"string[]"},{"internalType":"string[]","name":"p2","type":"string[]"},{"internalType":"string[]","name":"p3","type":"string[]"}],"internalType":"struct Utils2.Proof","name":"proof","type":"tuple"},{"components":[{"internalType":"string","name":"y0","type":"string"},{"internalType":"string","name":"s","type":"string"},{"internalType":"string[]","name":"c","type":"string[]"}],"internalType":"struct Utils2.Signature","name":"signature","type":"tuple"},{"internalType":"string","name":"groupId","type":"string"},{"internalType":"string","name":"token","type":"string"}],"stateMutability":"view","type":"function"}],"evm":{"bytecode":{"linkReferences":{},"object":"60806040523480156200001157600080fd5b506040516200550f3803806200550f8339810160408190526200003491620006eb565b818310620000a35760405162461bcd60e51b815260206004820152603160248201527f54686520656e642074696d65206d75737420626520677265617465722074686160448201527037103a34329039ba30b93a103a34b6b29760791b60648201526084015b60405180910390fd5b60008790556001620000b687826200084c565b506002620000c586826200084c565b50600380546001600160a01b0319166001600160a01b0386161790556004839055600582905542600655620000fa8162000107565b5050505050505062000956565b805160005b81811015620002a6578281815181106200012a576200012a62000918565b60200260200101516000015160ff16600203620001d45782818151811062000156576200015662000918565b6020026020010151608001515183828151811062000178576200017862000918565b602002602001015160a001511115620001d45760405162461bcd60e51b815260206004820152601960248201527f42616c6c6f7473206e6f742073657420636f72726563746c790000000000000060448201526064016200009a565b6008838281518110620001eb57620001eb62000918565b6020908102919091018101518254600180820185556000948552938390208251600690920201805460ff191660ff9092169190911781559181015190928201906200023790826200084c565b50604082015160028201906200024e90826200084c565b50606082015160038201906200026590826200084c565b506080820151805162000283916004840191602090910190620002d4565b5060a08201518160050155505080806200029d906200092e565b9150506200010c565b506040517f6692f63de48205073382c0f71d7ecb24505640478dcc5f61c8aced55400ca08390600090a15050565b8280548282559060005260206000209081019282156200031f579160200282015b828111156200031f57825182906200030e90826200084c565b5091602001919060010190620002f5565b506200032d92915062000331565b5090565b808211156200032d57600062000348828262000352565b5060010162000331565b5080546200036090620007bd565b6000825580601f1062000371575050565b601f01602090049060005260206000209081019062000391919062000394565b50565b5b808211156200032d576000815560010162000395565b634e487b7160e01b600052604160045260246000fd5b60405160c081016001600160401b0381118282101715620003e657620003e6620003ab565b60405290565b604051601f8201601f191681016001600160401b0381118282101715620004175762000417620003ab565b604052919050565b600082601f8301126200043157600080fd5b81516001600160401b038111156200044d576200044d620003ab565b602062000463601f8301601f19168201620003ec565b82815285828487010111156200047857600080fd5b60005b83811015620004985785810183015182820184015282016200047b565b506000928101909101919091529392505050565b60006001600160401b03821115620004c857620004c8620003ab565b5060051b60200190565b805160ff81168114620004e457600080fd5b919050565b600082601f830112620004fb57600080fd5b81516020620005146200050e83620004ac565b620003ec565b82815260059290921b840181019181810190868411156200053457600080fd5b8286015b84811015620005785780516001600160401b03811115620005595760008081fd5b620005698986838b01016200041f565b84525091830191830162000538565b509695505050505050565b600082601f8301126200059557600080fd5b81516020620005a86200050e83620004ac565b82815260059290921b84018101918181019086841115620005c857600080fd5b8286015b84811015620005785780516001600160401b0380821115620005ee5760008081fd5b9088019060c0828b03601f1901811315620006095760008081fd5b62000613620003c1565b62000620888501620004d2565b815260408085015184811115620006375760008081fd5b620006478e8b838901016200041f565b8a8401525060608086015185811115620006615760008081fd5b620006718f8c838a01016200041f565b83850152506080915081860151858111156200068d5760008081fd5b6200069d8f8c838a01016200041f565b82850152505060a08086015185811115620006b85760008081fd5b620006c88f8c838a0101620004e9565b9284019290925294909201519381019390935250508352918301918301620005cc565b600080600080600080600060e0888a0312156200070757600080fd5b875160208901519097506001600160401b03808211156200072757600080fd5b620007358b838c016200041f565b975060408a01519150808211156200074c57600080fd5b6200075a8b838c016200041f565b60608b015190975091506001600160a01b03821682146200077a57600080fd5b60808a015160a08b015160c08c01519397509095509350808211156200079f57600080fd5b50620007ae8a828b0162000583565b91505092959891949750929550565b600181811c90821680620007d257607f821691505b602082108103620007f357634e487b7160e01b600052602260045260246000fd5b50919050565b601f8211156200084757600081815260208120601f850160051c81016020861015620008225750805b601f850160051c820191505b8181101562000843578281556001016200082e565b5050505b505050565b81516001600160401b03811115620008685762000868620003ab565b6200088081620008798454620007bd565b84620007f9565b602080601f831160018114620008b857600084156200089f5750858301515b600019600386901b1c1916600185901b17855562000843565b600085815260208120601f198616915b82811015620008e957888601518255948401946001909101908401620008c8565b5085821015620009085787850151600019600388901b60f8161c191681555b5050505050600190811b01905550565b634e487b7160e01b600052603260045260246000fd5b6000600182016200094f57634e487b7160e01b600052601160045260246000fd5b5060010190565b614ba980620009666000396000f3fe608060405234801561001057600080fd5b506004361061018e5760003560e01c806386b301ad116100de578063be94990e11610097578063eba62c5111610071578063eba62c5114610366578063f2fe0d2714610379578063f851a4401461038c578063fbd21f50146103b757600080fd5b8063be94990e14610342578063cf09e0d014610355578063e68f10ed1461035e57600080fd5b806386b301ad146102b157806394f183cb146102c6578063a5b1459d146102db578063b18280d0146102ee578063b87f86b714610312578063bca72e851461032f57600080fd5b806322a2a00b1161014b5780637284e416116101255780637284e41614610266578063834ee4171461026e57806384e8d5311461027757806384e913951461029c57600080fd5b806322a2a00b146102015780633f9942ff146102345780635df813301461024157600080fd5b8063011dc4e514610193578063066d5dc71461019d57806306fdde03146101b95780630dc96015146101ce578063109bd47f146101e357806316243356146101f8575b600080fd5b61019b6103ca565b005b6101a660005481565b6040519081526020015b60405180910390f35b6101c16104e3565b6040516101b091906139bb565b6101d6610571565b6040516101b09190613b83565b6101eb610599565b6040516101b09190613bfa565b6101a660055481565b61022461020f366004613c3e565b600a6020526000908152604090205460ff1681565b60405190151581526020016101b0565b6007546102249060ff1681565b61025461024f366004613c3e565b610637565b60405160ff90911681526020016101b0565b6101c1610660565b6101a660045481565b61028a610285366004613c57565b61066d565b6040516101b096959493929190613c83565b6102a4610d8f565b6040516101b09190613dc2565b6102b9611130565b6040516101b09190613e0d565b6102ce61118f565b6040516101b09190613e21565b61019b6102e93660046142fc565b611a32565b6103016102fc366004613c3e565b611b7e565b6040516101b0959493929190614410565b61031a611d5c565b6040516101b099989796959493929190614465565b61019b61033d3660046146de565b611ed0565b61028a61035036600461471a565b612049565b6101a660065481565b6008546101a6565b61028a61037436600461473c565b612635565b61019b610387366004614774565b612c21565b60035461039f906001600160a01b031681565b6040516001600160a01b0390911681526020016101b0565b61028a6103c536600461471a565b612cd1565b6003546001600160a01b031633146104215760405162461bcd60e51b81526020600482015260156024820152742cb7ba9030b932903737ba1030b71020b236b4b71760591b60448201526064015b60405180910390fd5b600061042b611130565b9050600081600381111561044157610441613dd5565b146104aa5760405162461bcd60e51b815260206004820152603360248201527f54686520766f74696e672068617320616c72656164792073746172746564206f6044820152721c881a185cc8185b1c9958591e48195b991959606a1b6064820152608401610418565b6007805460ff191660011790556040517fb7f1abbcdfcfff2dbaa12177264f358cf20420c7bf3af655f82a7a89de5e04bb90600090a150565b600180546104f0906148e3565b80601f016020809104026020016040519081016040528092919081815260200182805461051c906148e3565b80156105695780601f1061053e57610100808354040283529160200191610569565b820191906000526020600020905b81548152906001019060200180831161054c57829003601f168201915b505050505081565b60085460609060005b81811015610594578061058c81614933565b91505061057a565b505090565b6008546060906000816001600160401b038111156105b9576105b9613e83565b6040519080825280602002602001820160405280156105e2578160200160208202803683370190505b50905060005b82811015610630576000818152600d602052604090205482518390839081106106135761061361494c565b60209081029190910101528061062881614933565b9150506105e8565b5092915050565b600f818154811061064757600080fd5b600091825260209091206002909102015460ff16905081565b600280546104f0906148e3565b6009602052826000526040600020602052816000526040600020818154811061069557600080fd5b90600052602060002090600a020160009250925050508060000180546106ba906148e3565b80601f01602080910402602001604051908101604052809291908181526020018280546106e6906148e3565b80156107335780601f1061070857610100808354040283529160200191610733565b820191906000526020600020905b81548152906001019060200180831161071657829003601f168201915b505050505090806001018054610748906148e3565b80601f0160208091040260200160405190810160405280929190818152602001828054610774906148e3565b80156107c15780601f10610796576101008083540402835291602001916107c1565b820191906000526020600020905b8154815290600101906020018083116107a457829003601f168201915b5050505050908060020160405180606001604052908160008201805480602002602001604051908101604052809291908181526020016000905b828210156108a757838290600052602060002001805461081a906148e3565b80601f0160208091040260200160405190810160405280929190818152602001828054610846906148e3565b80156108935780601f1061086857610100808354040283529160200191610893565b820191906000526020600020905b81548152906001019060200180831161087657829003601f168201915b5050505050815260200190600101906107fb565b50505050815260200160018201805480602002602001604051908101604052809291908181526020016000905b828210156109805783829060005260206000200180546108f3906148e3565b80601f016020809104026020016040519081016040528092919081815260200182805461091f906148e3565b801561096c5780601f106109415761010080835404028352916020019161096c565b820191906000526020600020905b81548152906001019060200180831161094f57829003601f168201915b5050505050815260200190600101906108d4565b50505050815260200160028201805480602002602001604051908101604052809291908181526020016000905b82821015610a595783829060005260206000200180546109cc906148e3565b80601f01602080910402602001604051908101604052809291908181526020018280546109f8906148e3565b8015610a455780601f10610a1a57610100808354040283529160200191610a45565b820191906000526020600020905b815481529060010190602001808311610a2857829003601f168201915b5050505050815260200190600101906109ad565b50505050815250509080600501604051806060016040529081600082018054610a81906148e3565b80601f0160208091040260200160405190810160405280929190818152602001828054610aad906148e3565b8015610afa5780601f10610acf57610100808354040283529160200191610afa565b820191906000526020600020905b815481529060010190602001808311610add57829003601f168201915b50505050508152602001600182018054610b13906148e3565b80601f0160208091040260200160405190810160405280929190818152602001828054610b3f906148e3565b8015610b8c5780601f10610b6157610100808354040283529160200191610b8c565b820191906000526020600020905b815481529060010190602001808311610b6f57829003601f168201915b5050505050815260200160028201805480602002602001604051908101604052809291908181526020016000905b82821015610c66578382906000526020600020018054610bd9906148e3565b80601f0160208091040260200160405190810160405280929190818152602001828054610c05906148e3565b8015610c525780601f10610c2757610100808354040283529160200191610c52565b820191906000526020600020905b815481529060010190602001808311610c3557829003601f168201915b505050505081526020019060010190610bba565b505050508152505090806008018054610c7e906148e3565b80601f0160208091040260200160405190810160405280929190818152602001828054610caa906148e3565b8015610cf75780601f10610ccc57610100808354040283529160200191610cf7565b820191906000526020600020905b815481529060010190602001808311610cda57829003601f168201915b505050505090806009018054610d0c906148e3565b80601f0160208091040260200160405190810160405280929190818152602001828054610d38906148e3565b8015610d855780601f10610d5a57610100808354040283529160200191610d85565b820191906000526020600020905b815481529060010190602001808311610d6857829003601f168201915b5050505050905086565b6008546060906000816001600160401b03811115610daf57610daf613e83565b604051908082528060200260200182016040528015610e1c57816020015b610e096040518060c00160405280600060ff16815260200160608152602001606081526020016060815260200160608152602001600081525090565b815260200190600190039081610dcd5790505b50905060005b828110156106305760088181548110610e3d57610e3d61494c565b60009182526020918290206040805160c08101909152600690920201805460ff1682526001810180549293919291840191610e77906148e3565b80601f0160208091040260200160405190810160405280929190818152602001828054610ea3906148e3565b8015610ef05780601f10610ec557610100808354040283529160200191610ef0565b820191906000526020600020905b815481529060010190602001808311610ed357829003601f168201915b50505050508152602001600282018054610f09906148e3565b80601f0160208091040260200160405190810160405280929190818152602001828054610f35906148e3565b8015610f825780601f10610f5757610100808354040283529160200191610f82565b820191906000526020600020905b815481529060010190602001808311610f6557829003601f168201915b50505050508152602001600382018054610f9b906148e3565b80601f0160208091040260200160405190810160405280929190818152602001828054610fc7906148e3565b80156110145780601f10610fe957610100808354040283529160200191611014565b820191906000526020600020905b815481529060010190602001808311610ff757829003601f168201915b5050505050815260200160048201805480602002602001604051908101604052809291908181526020016000905b828210156110ee578382906000526020600020018054611061906148e3565b80601f016020809104026020016040519081016040528092919081815260200182805461108d906148e3565b80156110da5780601f106110af576101008083540402835291602001916110da565b820191906000526020600020905b8154815290600101906020018083116110bd57829003601f168201915b505050505081526020019060010190611042565b5050505081526020016005820154815250508282815181106111125761111261494c565b6020026020010181905250808061112890614933565b915050610e22565b60075460009060ff16156111445750600390565b42600454118015611156575042600554115b156111615750600090565b42600454108015611173575042600554115b1561117e5750600190565b42600554101561118c575060025b90565b6008546060906000816001600160401b038111156111af576111af613e83565b6040519080825280602002602001820160405280156111e257816020015b60608152602001906001900390816111cd5790505b50905060005b82811015610630576000818152600b6020908152604080832080548251818502810185019093528083529192909190849084015b8282101561194657838290600052602060002090600a02016040518060c001604052908160008201805461124f906148e3565b80601f016020809104026020016040519081016040528092919081815260200182805461127b906148e3565b80156112c85780601f1061129d576101008083540402835291602001916112c8565b820191906000526020600020905b8154815290600101906020018083116112ab57829003601f168201915b505050505081526020016001820180546112e1906148e3565b80601f016020809104026020016040519081016040528092919081815260200182805461130d906148e3565b801561135a5780601f1061132f5761010080835404028352916020019161135a565b820191906000526020600020905b81548152906001019060200180831161133d57829003601f168201915b505050505081526020016002820160405180606001604052908160008201805480602002602001604051908101604052809291908181526020016000905b828210156114445783829060005260206000200180546113b7906148e3565b80601f01602080910402602001604051908101604052809291908181526020018280546113e3906148e3565b80156114305780601f1061140557610100808354040283529160200191611430565b820191906000526020600020905b81548152906001019060200180831161141357829003601f168201915b505050505081526020019060010190611398565b50505050815260200160018201805480602002602001604051908101604052809291908181526020016000905b8282101561151d578382906000526020600020018054611490906148e3565b80601f01602080910402602001604051908101604052809291908181526020018280546114bc906148e3565b80156115095780601f106114de57610100808354040283529160200191611509565b820191906000526020600020905b8154815290600101906020018083116114ec57829003601f168201915b505050505081526020019060010190611471565b50505050815260200160028201805480602002602001604051908101604052809291908181526020016000905b828210156115f6578382906000526020600020018054611569906148e3565b80601f0160208091040260200160405190810160405280929190818152602001828054611595906148e3565b80156115e25780601f106115b7576101008083540402835291602001916115e2565b820191906000526020600020905b8154815290600101906020018083116115c557829003601f168201915b50505050508152602001906001019061154a565b5050505081525050815260200160058201604051806060016040529081600082018054611622906148e3565b80601f016020809104026020016040519081016040528092919081815260200182805461164e906148e3565b801561169b5780601f106116705761010080835404028352916020019161169b565b820191906000526020600020905b81548152906001019060200180831161167e57829003601f168201915b505050505081526020016001820180546116b4906148e3565b80601f01602080910402602001604051908101604052809291908181526020018280546116e0906148e3565b801561172d5780601f106117025761010080835404028352916020019161172d565b820191906000526020600020905b81548152906001019060200180831161171057829003601f168201915b5050505050815260200160028201805480602002602001604051908101604052809291908181526020016000905b8282101561180757838290600052602060002001805461177a906148e3565b80601f01602080910402602001604051908101604052809291908181526020018280546117a6906148e3565b80156117f35780601f106117c8576101008083540402835291602001916117f3565b820191906000526020600020905b8154815290600101906020018083116117d657829003601f168201915b50505050508152602001906001019061175b565b50505050815250508152602001600882018054611823906148e3565b80601f016020809104026020016040519081016040528092919081815260200182805461184f906148e3565b801561189c5780601f106118715761010080835404028352916020019161189c565b820191906000526020600020905b81548152906001019060200180831161187f57829003601f168201915b505050505081526020016009820180546118b5906148e3565b80601f01602080910402602001604051908101604052809291908181526020018280546118e1906148e3565b801561192e5780601f106119035761010080835404028352916020019161192e565b820191906000526020600020905b81548152906001019060200180831161191157829003601f168201915b5050505050815250508152602001906001019061121c565b5050505090506000815190506000816001600160401b0381111561196c5761196c613e83565b6040519080825280602002602001820160405280156119a557816020015b6119926137d7565b81526020019060019003908161198a5790505b50905060005b828110156119fd578381815181106119c5576119c561494c565b60200260200101518282815181106119df576119df61494c565b602002602001018190525080806119f590614933565b9150506119ab565b5080858581518110611a1157611a1161494c565b60200260200101819052505050508080611a2a90614933565b9150506111e8565b6003546001600160a01b03163314611a845760405162461bcd60e51b81526020600482015260156024820152742cb7ba9030b932903737ba1030b71020b236b4b71760591b6044820152606401610418565b6000611a8e611130565b6003811115611a9f57611a9f613dd5565b14611b015760405162461bcd60e51b815260206004820152602c60248201527f54686520766f74696e672068617320616c72656164792073746172746564206f60448201526b39103430b99032b73232b21760a11b6064820152608401610418565b8351600190611b1090826149b1565b506020840151600290611b2390826149b1565b5060408401516004556060840151600555611b3d836132c9565b611b46826133cb565b611b4f8161357d565b6040517f66c71b14043393c3fb92f9eaae32e02d8aff3371c3810c2c2d2743a8e662324890600090a150505050565b60088181548110611b8e57600080fd5b60009182526020909120600690910201805460018201805460ff909216935090611bb7906148e3565b80601f0160208091040260200160405190810160405280929190818152602001828054611be3906148e3565b8015611c305780601f10611c0557610100808354040283529160200191611c30565b820191906000526020600020905b815481529060010190602001808311611c1357829003601f168201915b505050505090806002018054611c45906148e3565b80601f0160208091040260200160405190810160405280929190818152602001828054611c71906148e3565b8015611cbe5780601f10611c9357610100808354040283529160200191611cbe565b820191906000526020600020905b815481529060010190602001808311611ca157829003601f168201915b505050505090806003018054611cd3906148e3565b80601f0160208091040260200160405190810160405280929190818152602001828054611cff906148e3565b8015611d4c5780601f10611d2157610100808354040283529160200191611d4c565b820191906000526020600020905b815481529060010190602001808311611d2f57829003601f168201915b5050505050908060050154905085565b600060608060008060008060006060600360009054906101000a90046001600160a01b0316985060018054611d90906148e3565b80601f0160208091040260200160405190810160405280929190818152602001828054611dbc906148e3565b8015611e095780601f10611dde57610100808354040283529160200191611e09565b820191906000526020600020905b815481529060010190602001808311611dec57829003601f168201915b5050505050975060028054611e1d906148e3565b80601f0160208091040260200160405190810160405280929190818152602001828054611e49906148e3565b8015611e965780601f10611e6b57610100808354040283529160200191611e96565b820191906000526020600020905b815481529060010190602001808311611e7957829003601f168201915b50505050509650611ea5611130565b95506004549450600554935060065492506000549150611ec3610d8f565b9050909192939495969798565b600b6020527fdf7de25b7f1fd6d0b5205f0e18f1f35bd7b8d84cce336588d184533ce43a6f76805460018101825560009190915281518291600a027f4335e144cd35056e5b3aebd10c5e62566e9af1617088f92a0f803bf15715d84a01908190611f3a90826149b1565b5060208201516001820190611f4f90826149b1565b506040820151805180516002840191611f6d91839160200190613851565b506020828101518051611f869260018501920190613851565b5060408201518051611fa2916002840191602090910190613851565b5050506060820151805160058301908190611fbd90826149b1565b5060208201516001820190611fd290826149b1565b5060408201518051611fee916002840191602090910190613851565b5050506080820151600882019061200590826149b1565b5060a0820151600982019061201a90826149b1565b50506040517f64e5b0178e6f7ac2b1d7103882fd082322122fc630637afe744c584f727ffa909150600090a150565b600b602052816000526040600020818154811061206557600080fd5b90600052602060002090600a020160009150915050806000018054612089906148e3565b80601f01602080910402602001604051908101604052809291908181526020018280546120b5906148e3565b80156121025780601f106120d757610100808354040283529160200191612102565b820191906000526020600020905b8154815290600101906020018083116120e557829003601f168201915b505050505090806001018054612117906148e3565b80601f0160208091040260200160405190810160405280929190818152602001828054612143906148e3565b80156121905780601f1061216557610100808354040283529160200191612190565b820191906000526020600020905b81548152906001019060200180831161217357829003601f168201915b5050505050908060020160405180606001604052908160008201805480602002602001604051908101604052809291908181526020016000905b828210156122765783829060005260206000200180546121e9906148e3565b80601f0160208091040260200160405190810160405280929190818152602001828054612215906148e3565b80156122625780601f1061223757610100808354040283529160200191612262565b820191906000526020600020905b81548152906001019060200180831161224557829003601f168201915b5050505050815260200190600101906121ca565b50505050815260200160018201805480602002602001604051908101604052809291908181526020016000905b8282101561234f5783829060005260206000200180546122c2906148e3565b80601f01602080910402602001604051908101604052809291908181526020018280546122ee906148e3565b801561233b5780601f106123105761010080835404028352916020019161233b565b820191906000526020600020905b81548152906001019060200180831161231e57829003601f168201915b5050505050815260200190600101906122a3565b50505050815260200160028201805480602002602001604051908101604052809291908181526020016000905b8282101561242857838290600052602060002001805461239b906148e3565b80601f01602080910402602001604051908101604052809291908181526020018280546123c7906148e3565b80156124145780601f106123e957610100808354040283529160200191612414565b820191906000526020600020905b8154815290600101906020018083116123f757829003601f168201915b50505050508152602001906001019061237c565b50505050815250509080600501604051806060016040529081600082018054612450906148e3565b80601f016020809104026020016040519081016040528092919081815260200182805461247c906148e3565b80156124c95780601f1061249e576101008083540402835291602001916124c9565b820191906000526020600020905b8154815290600101906020018083116124ac57829003601f168201915b505050505081526020016001820180546124e2906148e3565b80601f016020809104026020016040519081016040528092919081815260200182805461250e906148e3565b801561255b5780601f106125305761010080835404028352916020019161255b565b820191906000526020600020905b81548152906001019060200180831161253e57829003601f168201915b5050505050815260200160028201805480602002602001604051908101604052809291908181526020016000905b82821015610c665783829060005260206000200180546125a8906148e3565b80601f01602080910402602001604051908101604052809291908181526020018280546125d4906148e3565b80156126215780601f106125f657610100808354040283529160200191612621565b820191906000526020600020905b81548152906001019060200180831161260457829003601f168201915b505050505081526020019060010190612589565b600c602052816000526040600020818154811061265157600080fd5b90600052602060002090600a020160009150915050806000018054612675906148e3565b80601f01602080910402602001604051908101604052809291908181526020018280546126a1906148e3565b80156126ee5780601f106126c3576101008083540402835291602001916126ee565b820191906000526020600020905b8154815290600101906020018083116126d157829003601f168201915b505050505090806001018054612703906148e3565b80601f016020809104026020016040519081016040528092919081815260200182805461272f906148e3565b801561277c5780601f106127515761010080835404028352916020019161277c565b820191906000526020600020905b81548152906001019060200180831161275f57829003601f168201915b5050505050908060020160405180606001604052908160008201805480602002602001604051908101604052809291908181526020016000905b828210156128625783829060005260206000200180546127d5906148e3565b80601f0160208091040260200160405190810160405280929190818152602001828054612801906148e3565b801561284e5780601f106128235761010080835404028352916020019161284e565b820191906000526020600020905b81548152906001019060200180831161283157829003601f168201915b5050505050815260200190600101906127b6565b50505050815260200160018201805480602002602001604051908101604052809291908181526020016000905b8282101561293b5783829060005260206000200180546128ae906148e3565b80601f01602080910402602001604051908101604052809291908181526020018280546128da906148e3565b80156129275780601f106128fc57610100808354040283529160200191612927565b820191906000526020600020905b81548152906001019060200180831161290a57829003601f168201915b50505050508152602001906001019061288f565b50505050815260200160028201805480602002602001604051908101604052809291908181526020016000905b82821015612a14578382906000526020600020018054612987906148e3565b80601f01602080910402602001604051908101604052809291908181526020018280546129b3906148e3565b8015612a005780601f106129d557610100808354040283529160200191612a00565b820191906000526020600020905b8154815290600101906020018083116129e357829003601f168201915b505050505081526020019060010190612968565b50505050815250509080600501604051806060016040529081600082018054612a3c906148e3565b80601f0160208091040260200160405190810160405280929190818152602001828054612a68906148e3565b8015612ab55780601f10612a8a57610100808354040283529160200191612ab5565b820191906000526020600020905b815481529060010190602001808311612a9857829003601f168201915b50505050508152602001600182018054612ace906148e3565b80601f0160208091040260200160405190810160405280929190818152602001828054612afa906148e3565b8015612b475780601f10612b1c57610100808354040283529160200191612b47565b820191906000526020600020905b815481529060010190602001808311612b2a57829003601f168201915b5050505050815260200160028201805480602002602001604051908101604052809291908181526020016000905b82821015610c66578382906000526020600020018054612b94906148e3565b80601f0160208091040260200160405190810160405280929190818152602001828054612bc0906148e3565b8015612c0d5780601f10612be257610100808354040283529160200191612c0d565b820191906000526020600020905b815481529060010190602001808311612bf057829003601f168201915b505050505081526020019060010190612b75565b805160005b81811015612ca357612c55838281518110612c4357612c4361494c565b6020026020010151602001515161376e565b60005b838281518110612c6a57612c6a61494c565b60200260200101516020015151811015612c905780612c8881614933565b915050612c58565b5080612c9b81614933565b915050612c26565b506040517f64e5b0178e6f7ac2b1d7103882fd082322122fc630637afe744c584f727ffa9090600090a15050565b60108281548110612ce157600080fd5b906000526020600020018181548110612cf957600080fd5b90600052602060002090600a020160009150915050806000018054612d1d906148e3565b80601f0160208091040260200160405190810160405280929190818152602001828054612d49906148e3565b8015612d965780601f10612d6b57610100808354040283529160200191612d96565b820191906000526020600020905b815481529060010190602001808311612d7957829003601f168201915b505050505090806001018054612dab906148e3565b80601f0160208091040260200160405190810160405280929190818152602001828054612dd7906148e3565b8015612e245780601f10612df957610100808354040283529160200191612e24565b820191906000526020600020905b815481529060010190602001808311612e0757829003601f168201915b5050505050908060020160405180606001604052908160008201805480602002602001604051908101604052809291908181526020016000905b82821015612f0a578382906000526020600020018054612e7d906148e3565b80601f0160208091040260200160405190810160405280929190818152602001828054612ea9906148e3565b8015612ef65780601f10612ecb57610100808354040283529160200191612ef6565b820191906000526020600020905b815481529060010190602001808311612ed957829003601f168201915b505050505081526020019060010190612e5e565b50505050815260200160018201805480602002602001604051908101604052809291908181526020016000905b82821015612fe3578382906000526020600020018054612f56906148e3565b80601f0160208091040260200160405190810160405280929190818152602001828054612f82906148e3565b8015612fcf5780601f10612fa457610100808354040283529160200191612fcf565b820191906000526020600020905b815481529060010190602001808311612fb257829003601f168201915b505050505081526020019060010190612f37565b50505050815260200160028201805480602002602001604051908101604052809291908181526020016000905b828210156130bc57838290600052602060002001805461302f906148e3565b80601f016020809104026020016040519081016040528092919081815260200182805461305b906148e3565b80156130a85780601f1061307d576101008083540402835291602001916130a8565b820191906000526020600020905b81548152906001019060200180831161308b57829003601f168201915b505050505081526020019060010190613010565b505050508152505090806005016040518060600160405290816000820180546130e4906148e3565b80601f0160208091040260200160405190810160405280929190818152602001828054613110906148e3565b801561315d5780601f106131325761010080835404028352916020019161315d565b820191906000526020600020905b81548152906001019060200180831161314057829003601f168201915b50505050508152602001600182018054613176906148e3565b80601f01602080910402602001604051908101604052809291908181526020018280546131a2906148e3565b80156131ef5780601f106131c4576101008083540402835291602001916131ef565b820191906000526020600020905b8154815290600101906020018083116131d257829003601f168201915b5050505050815260200160028201805480602002602001604051908101604052809291908181526020016000905b82821015610c6657838290600052602060002001805461323c906148e3565b80601f0160208091040260200160405190810160405280929190818152602001828054613268906148e3565b80156132b55780601f1061328a576101008083540402835291602001916132b5565b820191906000526020600020905b81548152906001019060200180831161329857829003601f168201915b50505050508152602001906001019061321d565b60005b81518110156133c75760008282815181106132e9576132e961494c565b60200260200101516000015190508282815181106133095761330961494c565b602002602001015160200151600882815481106133285761332861494c565b6000918252602091829020835160069290920201805460ff191660ff90921691909117815590820151600182019061336090826149b1565b506040820151600282019061337590826149b1565b506060820151600382019061338a90826149b1565b50608082015180516133a6916004840191602090910190613851565b5060a0919091015160059091015550806133bf81614933565b9150506132cc565b5050565b805160005b8181101561354f578281815181106133ea576133ea61494c565b60200260200101516000015160ff1660020361348b578281815181106134125761341261494c565b602002602001015160800151518382815181106134315761343161494c565b602002602001015160a00151111561348b5760405162461bcd60e51b815260206004820152601960248201527f42616c6c6f7473206e6f742073657420636f72726563746c79000000000000006044820152606401610418565b600883828151811061349f5761349f61494c565b6020908102919091018101518254600180820185556000948552938390208251600690920201805460ff191660ff9092169190911781559181015190928201906134e990826149b1565b50604082015160028201906134fe90826149b1565b506060820151600382019061351390826149b1565b506080820151805161352f916004840191602090910190613851565b5060a082015181600501555050808061354790614933565b9150506133d0565b506040517f6692f63de48205073382c0f71d7ecb24505640478dcc5f61c8aced55400ca08390600090a15050565b60005b81518110156137415760085482518390839081106135a0576135a061494c565b6020026020010151106135e95760405162461bcd60e51b81526020600482015260116024820152702130b63637ba103737ba103337bab7321760791b6044820152606401610418565b600880546135f990600190614a70565b815481106136095761360961494c565b9060005260206000209060060201600883838151811061362b5761362b61494c565b6020026020010151815481106136435761364361494c565b600091825260209091208254600690920201805460ff191660ff90921691909117815560018082019061367890840182614a83565b5060028181019061368b90840182614a83565b5060038181019061369e90840182614a83565b50600482810180546136b392840191906138a7565b5060059182015491015560088054806136ce576136ce614b5d565b600082815260208120600660001990930192830201805460ff19168155906136f960018301826138ef565b6137076002830160006138ef565b6137156003830160006138ef565b613723600483016000613929565b5060006005919091015590558061373981614933565b915050613580565b506040517fb40bf43f519ed7700dfa950fec11d32f3b7038299b360e9bcc971915d65ab0b990600090a150565b6137b38160405160240161378491815260200190565b60408051601f198184030181529190526020810180516001600160e01b031663f82c50f160e01b1790526137b6565b50565b80516a636f6e736f6c652e6c6f67602083016000808483855afa5050505050565b6040518060c00160405280606081526020016060815260200161381460405180606001604052806060815260200160608152602001606081525090565b815260200161383d60405180606001604052806060815260200160608152602001606081525090565b815260200160608152602001606081525090565b828054828255906000526020600020908101928215613897579160200282015b82811115613897578251829061388790826149b1565b5091602001919060010190613871565b506138a3929150613943565b5090565b8280548282559060005260206000209081019282156138975760005260206000209182015b8281111561389757816138df8482614a83565b50916001019190600101906138cc565b5080546138fb906148e3565b6000825580601f1061390b575050565b601f0160209004906000526020600020908101906137b39190613960565b50805460008255906000526020600020908101906137b391905b808211156138a357600061395782826138ef565b50600101613943565b5b808211156138a35760008155600101613961565b6000815180845260005b8181101561399b5760208185018101518683018201520161397f565b506000602082860101526020601f19601f83011685010191505092915050565b6020815260006139ce6020830184613975565b9392505050565b600081518084526020808501808196508360051b8101915082860160005b85811015613a1d578284038952613a0b848351613975565b988501989350908401906001016139f3565b5091979650505050505050565b6000815160608452613a3f60608501826139d5565b905060208301518482036020860152613a5882826139d5565b91505060408301518482036040860152613a7282826139d5565b95945050505050565b6000815160608452613a906060850182613975565b905060208301518482036020860152613a588282613975565b600081518084526020808501808196508360051b8101915082860160005b85811015613a1d578284038952815160c08151818752613ae982880182613975565b9150508682015186820388880152613b018282613975565b91505060408083015187830382890152613b1b8382613a2a565b9250505060608083015187830382890152613b368382613a7b565b9250505060808083015187830382890152613b518382613975565b9250505060a08083015192508682038188015250613b6f8183613975565b9a87019a9550505090840190600101613ac7565b60006020808301818452808551808352604092508286019150828160051b87010184880160005b83811015613bec57888303603f190185528151805160ff168452870151878401879052613bd987850182613aa9565b9588019593505090860190600101613baa565b509098975050505050505050565b6020808252825182820181905260009190848201906040850190845b81811015613c3257835183529284019291840191600101613c16565b50909695505050505050565b600060208284031215613c5057600080fd5b5035919050565b600080600060608486031215613c6c57600080fd5b505081359360208301359350604090920135919050565b60c081526000613c9660c0830189613975565b8281036020840152613ca88189613975565b90508281036040840152613cbc8188613a2a565b90508281036060840152613cd08187613a7b565b90508281036080840152613ce48186613975565b905082810360a0840152613cf88185613975565b9998505050505050505050565b600081518084526020808501808196508360051b8101915082860160005b85811015613a1d578284038952815160c060ff8251168652868201518188880152613d5082880182613975565b91505060408083015187830382890152613d6a8382613975565b9250505060608083015187830382890152613d858382613975565b9250505060808083015187830382890152613da083826139d5565b60a0948501519890940197909752505098850198935090840190600101613d23565b6020815260006139ce6020830184613d05565b634e487b7160e01b600052602160045260246000fd5b60048110613e0957634e487b7160e01b600052602160045260246000fd5b9052565b60208101613e1b8284613deb565b92915050565b6000602080830181845280855180835260408601915060408160051b870101925083870160005b82811015613e7657603f19888603018452613e64858351613aa9565b94509285019290850190600101613e48565b5092979650505050505050565b634e487b7160e01b600052604160045260246000fd5b60405160c081016001600160401b0381118282101715613ebb57613ebb613e83565b60405290565b604080519081016001600160401b0381118282101715613ebb57613ebb613e83565b604051608081016001600160401b0381118282101715613ebb57613ebb613e83565b604051606081016001600160401b0381118282101715613ebb57613ebb613e83565b604051601f8201601f191681016001600160401b0381118282101715613f4f57613f4f613e83565b604052919050565b600082601f830112613f6857600080fd5b81356001600160401b03811115613f8157613f81613e83565b613f94601f8201601f1916602001613f27565b818152846020838601011115613fa957600080fd5b816020850160208301376000918101602001919091529392505050565b60006001600160401b03821115613fdf57613fdf613e83565b5060051b60200190565b803560ff81168114613ffa57600080fd5b919050565b600082601f83011261401057600080fd5b8135602061402561402083613fc6565b613f27565b82815260059290921b8401810191818101908684111561404457600080fd5b8286015b848110156140835780356001600160401b038111156140675760008081fd5b6140758986838b0101613f57565b845250918301918301614048565b509695505050505050565b600060c082840312156140a057600080fd5b6140a8613e99565b90506140b382613fe9565b815260208201356001600160401b03808211156140cf57600080fd5b6140db85838601613f57565b602084015260408401359150808211156140f457600080fd5b61410085838601613f57565b6040840152606084013591508082111561411957600080fd5b61412585838601613f57565b6060840152608084013591508082111561413e57600080fd5b5061414b84828501613fff565b60808301525060a082013560a082015292915050565b600082601f83011261417257600080fd5b8135602061418261402083613fc6565b82815260059290921b840181019181810190868411156141a157600080fd5b8286015b848110156140835780356001600160401b03808211156141c55760008081fd5b908801906040828b03601f19018113156141df5760008081fd5b6141e7613ec1565b8388013581529083013590828211156142005760008081fd5b61420e8c898487010161408e565b8189015286525050509183019183016141a5565b600082601f83011261423357600080fd5b8135602061424361402083613fc6565b82815260059290921b8401810191818101908684111561426257600080fd5b8286015b848110156140835780356001600160401b038111156142855760008081fd5b6142938986838b010161408e565b845250918301918301614266565b600082601f8301126142b257600080fd5b813560206142c261402083613fc6565b82815260059290921b840181019181810190868411156142e157600080fd5b8286015b8481101561408357803583529183019183016142e5565b6000806000806080858703121561431257600080fd5b84356001600160401b038082111561432957600080fd5b908601906080828903121561433d57600080fd5b614345613ee3565b82358281111561435457600080fd5b6143608a828601613f57565b82525060208301358281111561437557600080fd5b6143818a828601613f57565b60208301525060408301356040820152606083013560608201528096505060208701359150808211156143b357600080fd5b6143bf88838901614161565b945060408701359150808211156143d557600080fd5b6143e188838901614222565b935060608701359150808211156143f757600080fd5b50614404878288016142a1565b91505092959194509250565b60ff8616815260a06020820152600061442c60a0830187613975565b828103604084015261443e8187613975565b905082810360608401526144528186613975565b9150508260808301529695505050505050565b6001600160a01b038a1681526101206020820181905260009061448a8382018c613975565b9050828103604084015261449e818b613975565b90506144ad606084018a613deb565b8760808401528660a08401528560c08401528460e08401528281036101008401526144d88185613d05565b9c9b505050505050505050505050565b6000606082840312156144fa57600080fd5b614502613f05565b905081356001600160401b038082111561451b57600080fd5b61452785838601613fff565b8352602084013591508082111561453d57600080fd5b61454985838601613fff565b6020840152604084013591508082111561456257600080fd5b5061456f84828501613fff565b60408301525092915050565b60006060828403121561458d57600080fd5b614595613f05565b905081356001600160401b03808211156145ae57600080fd5b6145ba85838601613f57565b835260208401359150808211156145d057600080fd5b61454985838601613f57565b600060c082840312156145ee57600080fd5b6145f6613e99565b905081356001600160401b038082111561460f57600080fd5b61461b85838601613f57565b8352602084013591508082111561463157600080fd5b61463d85838601613f57565b6020840152604084013591508082111561465657600080fd5b614662858386016144e8565b6040840152606084013591508082111561467b57600080fd5b6146878583860161457b565b606084015260808401359150808211156146a057600080fd5b6146ac85838601613f57565b608084015260a08401359150808211156146c557600080fd5b506146d284828501613f57565b60a08301525092915050565b6000602082840312156146f057600080fd5b81356001600160401b0381111561470657600080fd5b614712848285016145dc565b949350505050565b6000806040838503121561472d57600080fd5b50508035926020909101359150565b6000806040838503121561474f57600080fd5b82356001600160a01b038116811461476657600080fd5b946020939093013593505050565b60006020828403121561478657600080fd5b6001600160401b03808335111561479c57600080fd5b8235830184601f8201126147af57600080fd5b6147bc6140208235613fc6565b81358082526020808301929160051b840101878111156147db57600080fd5b602084015b818110156148d65785813511156147f657600080fd5b803585016040818b03601f1901121561480e57600080fd5b614816613ec1565b61482260208301613fe9565b815260408201358881111561483657600080fd5b8083019250508a603f83011261484b57600080fd5b602082013561485c61402082613fc6565b81815260059190911b83016040019060208101908d83111561487d57600080fd5b604085015b838110156148b6578b8135111561489857600080fd5b6148a88f604083358901016145dc565b835260209283019201614882565b5080602085015250505080865250506020840193506020810190506147e0565b5090979650505050505050565b600181811c908216806148f757607f821691505b60208210810361491757634e487b7160e01b600052602260045260246000fd5b50919050565b634e487b7160e01b600052601160045260246000fd5b6000600182016149455761494561491d565b5060010190565b634e487b7160e01b600052603260045260246000fd5b601f8211156149ac57600081815260208120601f850160051c810160208610156149895750805b601f850160051c820191505b818110156149a857828155600101614995565b5050505b505050565b81516001600160401b038111156149ca576149ca613e83565b6149de816149d884546148e3565b84614962565b602080601f831160018114614a1357600084156149fb5750858301515b600019600386901b1c1916600185901b1785556149a8565b600085815260208120601f198616915b82811015614a4257888601518255948401946001909101908401614a23565b5085821015614a605787850151600019600388901b60f8161c191681555b5050505050600190811b01905550565b81810381811115613e1b57613e1b61491d565b818103614a8e575050565b614a9882546148e3565b6001600160401b03811115614aaf57614aaf613e83565b614abd816149d884546148e3565b6000601f821160018114614af15760008315614ad95750848201545b600019600385901b1c1916600184901b178455614b56565b600085815260209020601f19841690600086815260209020845b83811015614b2b5782860154825560019586019590910190602001614b0b565b5085831015614b495781850154600019600388901b60f8161c191681555b50505060018360011b0184555b5050505050565b634e487b7160e01b600052603160045260246000fdfea26469706673582212203c1a72fa7e85bad0ca8670f6d218afb955f31894ef1ba39b90510f542aab08eb64736f6c63430008110033","opcodes":"PUSH1 0x80 PUSH1 0x40 MSTORE CALLVALUE DUP1 ISZERO PUSH3 0x11 JUMPI PUSH1 0x0 DUP1 REVERT JUMPDEST POP PUSH1 0x40 MLOAD PUSH3 0x550F CODESIZE SUB DUP1 PUSH3 0x550F DUP4 CODECOPY DUP2 ADD PUSH1 0x40 DUP2 SWAP1 MSTORE PUSH3 0x34 SWAP2 PUSH3 0x6EB JUMP JUMPDEST DUP2 DUP4 LT PUSH3 0xA3 JUMPI PUSH1 0x40 MLOAD PUSH3 0x461BCD PUSH1 0xE5 SHL DUP2 MSTORE PUSH1 0x20 PUSH1 0x4 DUP3 ADD MSTORE PUSH1 0x31 PUSH1 0x24 DUP3 ADD MSTORE PUSH32 0x54686520656E642074696D65206D757374206265206772656174657220746861 PUSH1 0x44 DUP3 ADD MSTORE PUSH17 0x37103A34329039BA30B93A103A34B6B297 PUSH1 0x79 SHL PUSH1 0x64 DUP3 ADD MSTORE PUSH1 0x84 ADD JUMPDEST PUSH1 0x40 MLOAD DUP1 SWAP2 SUB SWAP1 REVERT JUMPDEST PUSH1 0x0 DUP8 SWAP1 SSTORE PUSH1 0x1 PUSH3 0xB6 DUP8 DUP3 PUSH3 0x84C JUMP JUMPDEST POP PUSH1 0x2 PUSH3 0xC5 DUP7 DUP3 PUSH3 0x84C JUMP JUMPDEST POP PUSH1 0x3 DUP1 SLOAD PUSH1 0x1 PUSH1 0x1 PUSH1 0xA0 SHL SUB NOT AND PUSH1 0x1 PUSH1 0x1 PUSH1 0xA0 SHL SUB DUP7 AND OR SWAP1 SSTORE PUSH1 0x4 DUP4 SWAP1 SSTORE PUSH1 0x5 DUP3 SWAP1 SSTORE TIMESTAMP PUSH1 0x6 SSTORE PUSH3 0xFA DUP2 PUSH3 0x107 JUMP JUMPDEST POP POP POP POP POP POP POP PUSH3 0x956 JUMP JUMPDEST DUP1 MLOAD PUSH1 0x0 JUMPDEST DUP2 DUP2 LT ISZERO PUSH3 0x2A6 JUMPI DUP3 DUP2 DUP2 MLOAD DUP2 LT PUSH3 0x12A JUMPI PUSH3 0x12A PUSH3 0x918 JUMP JUMPDEST PUSH1 0x20 MUL PUSH1 0x20 ADD ADD MLOAD PUSH1 0x0 ADD MLOAD PUSH1 0xFF AND PUSH1 0x2 SUB PUSH3 0x1D4 JUMPI DUP3 DUP2 DUP2 MLOAD DUP2 LT PUSH3 0x156 JUMPI PUSH3 0x156 PUSH3 0x918 JUMP JUMPDEST PUSH1 0x20 MUL PUSH1 0x20 ADD ADD MLOAD PUSH1 0x80 ADD MLOAD MLOAD DUP4 DUP3 DUP2 MLOAD DUP2 LT PUSH3 0x178 JUMPI PUSH3 0x178 PUSH3 0x918 JUMP JUMPDEST PUSH1 0x20 MUL PUSH1 0x20 ADD ADD MLOAD PUSH1 0xA0 ADD MLOAD GT ISZERO PUSH3 0x1D4 JUMPI PUSH1 0x40 MLOAD PUSH3 0x461BCD PUSH1 0xE5 SHL DUP2 MSTORE PUSH1 0x20 PUSH1 0x4 DUP3 ADD MSTORE PUSH1 0x19 PUSH1 0x24 DUP3 ADD MSTORE PUSH32 0x42616C6C6F7473206E6F742073657420636F72726563746C7900000000000000 PUSH1 0x44 DUP3 ADD MSTORE PUSH1 0x64 ADD PUSH3 0x9A JUMP JUMPDEST PUSH1 0x8 DUP4 DUP3 DUP2 MLOAD DUP2 LT PUSH3 0x1EB JUMPI PUSH3 0x1EB PUSH3 0x918 JUMP JUMPDEST PUSH1 0x20 SWAP1 DUP2 MUL SWAP2 SWAP1 SWAP2 ADD DUP2 ADD MLOAD DUP3 SLOAD PUSH1 0x1 DUP1 DUP3 ADD DUP6 SSTORE PUSH1 0x0 SWAP5 DUP6 MSTORE SWAP4 DUP4 SWAP1 KECCAK256 DUP3 MLOAD PUSH1 0x6 SWAP1 SWAP3 MUL ADD DUP1 SLOAD PUSH1 0xFF NOT AND PUSH1 0xFF SWAP1 SWAP3 AND SWAP2 SWAP1 SWAP2 OR DUP2 SSTORE SWAP2 DUP2 ADD MLOAD SWAP1 SWAP3 DUP3 ADD SWAP1 PUSH3 0x237 SWAP1 DUP3 PUSH3 0x84C JUMP JUMPDEST POP PUSH1 0x40 DUP3 ADD MLOAD PUSH1 0x2 DUP3 ADD SWAP1 PUSH3 0x24E SWAP1 DUP3 PUSH3 0x84C JUMP JUMPDEST POP PUSH1 0x60 DUP3 ADD MLOAD PUSH1 0x3 DUP3 ADD SWAP1 PUSH3 0x265 SWAP1 DUP3 PUSH3 0x84C JUMP JUMPDEST POP PUSH1 0x80 DUP3 ADD MLOAD DUP1 MLOAD PUSH3 0x283 SWAP2 PUSH1 0x4 DUP5 ADD SWAP2 PUSH1 0x20 SWAP1 SWAP2 ADD SWAP1 PUSH3 0x2D4 JUMP JUMPDEST POP PUSH1 0xA0 DUP3 ADD MLOAD DUP2 PUSH1 0x5 ADD SSTORE POP POP DUP1 DUP1 PUSH3 0x29D SWAP1 PUSH3 0x92E JUMP JUMPDEST SWAP2 POP POP PUSH3 0x10C JUMP JUMPDEST POP PUSH1 0x40 MLOAD PUSH32 0x6692F63DE48205073382C0F71D7ECB24505640478DCC5F61C8ACED55400CA083 SWAP1 PUSH1 0x0 SWAP1 LOG1 POP POP JUMP JUMPDEST DUP3 DUP1 SLOAD DUP3 DUP3 SSTORE SWAP1 PUSH1 0x0 MSTORE PUSH1 0x20 PUSH1 0x0 KECCAK256 SWAP1 DUP2 ADD SWAP3 DUP3 ISZERO PUSH3 0x31F JUMPI SWAP2 PUSH1 0x20 MUL DUP3 ADD JUMPDEST DUP3 DUP2 GT ISZERO PUSH3 0x31F JUMPI DUP3 MLOAD DUP3 SWAP1 PUSH3 0x30E SWAP1 DUP3 PUSH3 0x84C JUMP JUMPDEST POP SWAP2 PUSH1 0x20 ADD SWAP2 SWAP1 PUSH1 0x1 ADD SWAP1 PUSH3 0x2F5 JUMP JUMPDEST POP PUSH3 0x32D SWAP3 SWAP2 POP PUSH3 0x331 JUMP JUMPDEST POP SWAP1 JUMP JUMPDEST DUP1 DUP3 GT ISZERO PUSH3 0x32D JUMPI PUSH1 0x0 PUSH3 0x348 DUP3 DUP3 PUSH3 0x352 JUMP JUMPDEST POP PUSH1 0x1 ADD PUSH3 0x331 JUMP JUMPDEST POP DUP1 SLOAD PUSH3 0x360 SWAP1 PUSH3 0x7BD JUMP JUMPDEST PUSH1 0x0 DUP3 SSTORE DUP1 PUSH1 0x1F LT PUSH3 0x371 JUMPI POP POP JUMP JUMPDEST PUSH1 0x1F ADD PUSH1 0x20 SWAP1 DIV SWAP1 PUSH1 0x0 MSTORE PUSH1 0x20 PUSH1 0x0 KECCAK256 SWAP1 DUP2 ADD SWAP1 PUSH3 0x391 SWAP2 SWAP1 PUSH3 0x394 JUMP JUMPDEST POP JUMP JUMPDEST JUMPDEST DUP1 DUP3 GT ISZERO PUSH3 0x32D JUMPI PUSH1 0x0 DUP2 SSTORE PUSH1 0x1 ADD PUSH3 0x395 JUMP JUMPDEST PUSH4 0x4E487B71 PUSH1 0xE0 SHL PUSH1 0x0 MSTORE PUSH1 0x41 PUSH1 0x4 MSTORE PUSH1 0x24 PUSH1 0x0 REVERT JUMPDEST PUSH1 0x40 MLOAD PUSH1 0xC0 DUP2 ADD PUSH1 0x1 PUSH1 0x1 PUSH1 0x40 SHL SUB DUP2 GT DUP3 DUP3 LT OR ISZERO PUSH3 0x3E6 JUMPI PUSH3 0x3E6 PUSH3 0x3AB JUMP JUMPDEST PUSH1 0x40 MSTORE SWAP1 JUMP JUMPDEST PUSH1 0x40 MLOAD PUSH1 0x1F DUP3 ADD PUSH1 0x1F NOT AND DUP2 ADD PUSH1 0x1 PUSH1 0x1 PUSH1 0x40 SHL SUB DUP2 GT DUP3 DUP3 LT OR ISZERO PUSH3 0x417 JUMPI PUSH3 0x417 PUSH3 0x3AB JUMP JUMPDEST PUSH1 0x40 MSTORE SWAP2 SWAP1 POP JUMP JUMPDEST PUSH1 0x0 DUP3 PUSH1 0x1F DUP4 ADD SLT PUSH3 0x431 JUMPI PUSH1 0x0 DUP1 REVERT JUMPDEST DUP2 MLOAD PUSH1 0x1 PUSH1 0x1 PUSH1 0x40 SHL SUB DUP2 GT ISZERO PUSH3 0x44D JUMPI PUSH3 0x44D PUSH3 0x3AB JUMP JUMPDEST PUSH1 0x20 PUSH3 0x463 PUSH1 0x1F DUP4 ADD PUSH1 0x1F NOT AND DUP3 ADD PUSH3 0x3EC JUMP JUMPDEST DUP3 DUP2 MSTORE DUP6 DUP3 DUP5 DUP8 ADD ADD GT ISZERO PUSH3 0x478 JUMPI PUSH1 0x0 DUP1 REVERT JUMPDEST PUSH1 0x0 JUMPDEST DUP4 DUP2 LT ISZERO PUSH3 0x498 JUMPI DUP6 DUP2 ADD DUP4 ADD MLOAD DUP3 DUP3 ADD DUP5 ADD MSTORE DUP3 ADD PUSH3 0x47B JUMP JUMPDEST POP PUSH1 0x0 SWAP3 DUP2 ADD SWAP1 SWAP2 ADD SWAP2 SWAP1 SWAP2 MSTORE SWAP4 SWAP3 POP POP POP JUMP JUMPDEST PUSH1 0x0 PUSH1 0x1 PUSH1 0x1 PUSH1 0x40 SHL SUB DUP3 GT ISZERO PUSH3 0x4C8 JUMPI PUSH3 0x4C8 PUSH3 0x3AB JUMP JUMPDEST POP PUSH1 0x5 SHL PUSH1 0x20 ADD SWAP1 JUMP JUMPDEST DUP1 MLOAD PUSH1 0xFF DUP2 AND DUP2 EQ PUSH3 0x4E4 JUMPI PUSH1 0x0 DUP1 REVERT JUMPDEST SWAP2 SWAP1 POP JUMP JUMPDEST PUSH1 0x0 DUP3 PUSH1 0x1F DUP4 ADD SLT PUSH3 0x4FB JUMPI PUSH1 0x0 DUP1 REVERT JUMPDEST DUP2 MLOAD PUSH1 0x20 PUSH3 0x514 PUSH3 0x50E DUP4 PUSH3 0x4AC JUMP JUMPDEST PUSH3 0x3EC JUMP JUMPDEST DUP3 DUP2 MSTORE PUSH1 0x5 SWAP3 SWAP1 SWAP3 SHL DUP5 ADD DUP2 ADD SWAP2 DUP2 DUP2 ADD SWAP1 DUP7 DUP5 GT ISZERO PUSH3 0x534 JUMPI PUSH1 0x0 DUP1 REVERT JUMPDEST DUP3 DUP7 ADD JUMPDEST DUP5 DUP2 LT ISZERO PUSH3 0x578 JUMPI DUP1 MLOAD PUSH1 0x1 PUSH1 0x1 PUSH1 0x40 SHL SUB DUP2 GT ISZERO PUSH3 0x559 JUMPI PUSH1 0x0 DUP1 DUP2 REVERT JUMPDEST PUSH3 0x569 DUP10 DUP7 DUP4 DUP12 ADD ADD PUSH3 0x41F JUMP JUMPDEST DUP5 MSTORE POP SWAP2 DUP4 ADD SWAP2 DUP4 ADD PUSH3 0x538 JUMP JUMPDEST POP SWAP7 SWAP6 POP POP POP POP POP POP JUMP JUMPDEST PUSH1 0x0 DUP3 PUSH1 0x1F DUP4 ADD SLT PUSH3 0x595 JUMPI PUSH1 0x0 DUP1 REVERT JUMPDEST DUP2 MLOAD PUSH1 0x20 PUSH3 0x5A8 PUSH3 0x50E DUP4 PUSH3 0x4AC JUMP JUMPDEST DUP3 DUP2 MSTORE PUSH1 0x5 SWAP3 SWAP1 SWAP3 SHL DUP5 ADD DUP2 ADD SWAP2 DUP2 DUP2 ADD SWAP1 DUP7 DUP5 GT ISZERO PUSH3 0x5C8 JUMPI PUSH1 0x0 DUP1 REVERT JUMPDEST DUP3 DUP7 ADD JUMPDEST DUP5 DUP2 LT ISZERO PUSH3 0x578 JUMPI DUP1 MLOAD PUSH1 0x1 PUSH1 0x1 PUSH1 0x40 SHL SUB DUP1 DUP3 GT ISZERO PUSH3 0x5EE JUMPI PUSH1 0x0 DUP1 DUP2 REVERT JUMPDEST SWAP1 DUP9 ADD SWAP1 PUSH1 0xC0 DUP3 DUP12 SUB PUSH1 0x1F NOT ADD DUP2 SGT ISZERO PUSH3 0x609 JUMPI PUSH1 0x0 DUP1 DUP2 REVERT JUMPDEST PUSH3 0x613 PUSH3 0x3C1 JUMP JUMPDEST PUSH3 0x620 DUP9 DUP6 ADD PUSH3 0x4D2 JUMP JUMPDEST DUP2 MSTORE PUSH1 0x40 DUP1 DUP6 ADD MLOAD DUP5 DUP2 GT ISZERO PUSH3 0x637 JUMPI PUSH1 0x0 DUP1 DUP2 REVERT JUMPDEST PUSH3 0x647 DUP15 DUP12 DUP4 DUP10 ADD ADD PUSH3 0x41F JUMP JUMPDEST DUP11 DUP5 ADD MSTORE POP PUSH1 0x60 DUP1 DUP7 ADD MLOAD DUP6 DUP2 GT ISZERO PUSH3 0x661 JUMPI PUSH1 0x0 DUP1 DUP2 REVERT JUMPDEST PUSH3 0x671 DUP16 DUP13 DUP4 DUP11 ADD ADD PUSH3 0x41F JUMP JUMPDEST DUP4 DUP6 ADD MSTORE POP PUSH1 0x80 SWAP2 POP DUP2 DUP7 ADD MLOAD DUP6 DUP2 GT ISZERO PUSH3 0x68D JUMPI PUSH1 0x0 DUP1 DUP2 REVERT JUMPDEST PUSH3 0x69D DUP16 DUP13 DUP4 DUP11 ADD ADD PUSH3 0x41F JUMP JUMPDEST DUP3 DUP6 ADD MSTORE POP POP PUSH1 0xA0 DUP1 DUP7 ADD MLOAD DUP6 DUP2 GT ISZERO PUSH3 0x6B8 JUMPI PUSH1 0x0 DUP1 DUP2 REVERT JUMPDEST PUSH3 0x6C8 DUP16 DUP13 DUP4 DUP11 ADD ADD PUSH3 0x4E9 JUMP JUMPDEST SWAP3 DUP5 ADD SWAP3 SWAP1 SWAP3 MSTORE SWAP5 SWAP1 SWAP3 ADD MLOAD SWAP4 DUP2 ADD SWAP4 SWAP1 SWAP4 MSTORE POP POP DUP4 MSTORE SWAP2 DUP4 ADD SWAP2 DUP4 ADD PUSH3 0x5CC JUMP JUMPDEST PUSH1 0x0 DUP1 PUSH1 0x0 DUP1 PUSH1 0x0 DUP1 PUSH1 0x0 PUSH1 0xE0 DUP9 DUP11 SUB SLT ISZERO PUSH3 0x707 JUMPI PUSH1 0x0 DUP1 REVERT JUMPDEST DUP8 MLOAD PUSH1 0x20 DUP10 ADD MLOAD SWAP1 SWAP8 POP PUSH1 0x1 PUSH1 0x1 PUSH1 0x40 SHL SUB DUP1 DUP3 GT ISZERO PUSH3 0x727 JUMPI PUSH1 0x0 DUP1 REVERT JUMPDEST PUSH3 0x735 DUP12 DUP4 DUP13 ADD PUSH3 0x41F JUMP JUMPDEST SWAP8 POP PUSH1 0x40 DUP11 ADD MLOAD SWAP2 POP DUP1 DUP3 GT ISZERO PUSH3 0x74C JUMPI PUSH1 0x0 DUP1 REVERT JUMPDEST PUSH3 0x75A DUP12 DUP4 DUP13 ADD PUSH3 0x41F JUMP JUMPDEST PUSH1 0x60 DUP12 ADD MLOAD SWAP1 SWAP8 POP SWAP2 POP PUSH1 0x1 PUSH1 0x1 PUSH1 0xA0 SHL SUB DUP3 AND DUP3 EQ PUSH3 0x77A JUMPI PUSH1 0x0 DUP1 REVERT JUMPDEST PUSH1 0x80 DUP11 ADD MLOAD PUSH1 0xA0 DUP12 ADD MLOAD PUSH1 0xC0 DUP13 ADD MLOAD SWAP4 SWAP8 POP SWAP1 SWAP6 POP SWAP4 POP DUP1 DUP3 GT ISZERO PUSH3 0x79F JUMPI PUSH1 0x0 DUP1 REVERT JUMPDEST POP PUSH3 0x7AE DUP11 DUP3 DUP12 ADD PUSH3 0x583 JUMP JUMPDEST SWAP2 POP POP SWAP3 SWAP6 SWAP9 SWAP2 SWAP5 SWAP8 POP SWAP3 SWAP6 POP JUMP JUMPDEST PUSH1 0x1 DUP2 DUP2 SHR SWAP1 DUP3 AND DUP1 PUSH3 0x7D2 JUMPI PUSH1 0x7F DUP3 AND SWAP2 POP JUMPDEST PUSH1 0x20 DUP3 LT DUP2 SUB PUSH3 0x7F3 JUMPI PUSH4 0x4E487B71 PUSH1 0xE0 SHL PUSH1 0x0 MSTORE PUSH1 0x22 PUSH1 0x4 MSTORE PUSH1 0x24 PUSH1 0x0 REVERT JUMPDEST POP SWAP2 SWAP1 POP JUMP JUMPDEST PUSH1 0x1F DUP3 GT ISZERO PUSH3 0x847 JUMPI PUSH1 0x0 DUP2 DUP2 MSTORE PUSH1 0x20 DUP2 KECCAK256 PUSH1 0x1F DUP6 ADD PUSH1 0x5 SHR DUP2 ADD PUSH1 0x20 DUP7 LT ISZERO PUSH3 0x822 JUMPI POP DUP1 JUMPDEST PUSH1 0x1F DUP6 ADD PUSH1 0x5 SHR DUP3 ADD SWAP2 POP JUMPDEST DUP2 DUP2 LT ISZERO PUSH3 0x843 JUMPI DUP3 DUP2 SSTORE PUSH1 0x1 ADD PUSH3 0x82E JUMP JUMPDEST POP POP POP JUMPDEST POP POP POP JUMP JUMPDEST DUP2 MLOAD PUSH1 0x1 PUSH1 0x1 PUSH1 0x40 SHL SUB DUP2 GT ISZERO PUSH3 0x868 JUMPI PUSH3 0x868 PUSH3 0x3AB JUMP JUMPDEST PUSH3 0x880 DUP2 PUSH3 0x879 DUP5 SLOAD PUSH3 0x7BD JUMP JUMPDEST DUP5 PUSH3 0x7F9 JUMP JUMPDEST PUSH1 0x20 DUP1 PUSH1 0x1F DUP4 GT PUSH1 0x1 DUP2 EQ PUSH3 0x8B8 JUMPI PUSH1 0x0 DUP5 ISZERO PUSH3 0x89F JUMPI POP DUP6 DUP4 ADD MLOAD JUMPDEST PUSH1 0x0 NOT PUSH1 0x3 DUP7 SWAP1 SHL SHR NOT AND PUSH1 0x1 DUP6 SWAP1 SHL OR DUP6 SSTORE PUSH3 0x843 JUMP JUMPDEST PUSH1 0x0 DUP6 DUP2 MSTORE PUSH1 0x20 DUP2 KECCAK256 PUSH1 0x1F NOT DUP7 AND SWAP2 JUMPDEST DUP3 DUP2 LT ISZERO PUSH3 0x8E9 JUMPI DUP9 DUP7 ADD MLOAD DUP3 SSTORE SWAP5 DUP5 ADD SWAP5 PUSH1 0x1 SWAP1 SWAP2 ADD SWAP1 DUP5 ADD PUSH3 0x8C8 JUMP JUMPDEST POP DUP6 DUP3 LT ISZERO PUSH3 0x908 JUMPI DUP8 DUP6 ADD MLOAD PUSH1 0x0 NOT PUSH1 0x3 DUP9 SWAP1 SHL PUSH1 0xF8 AND SHR NOT AND DUP2 SSTORE JUMPDEST POP POP POP POP POP PUSH1 0x1 SWAP1 DUP2 SHL ADD SWAP1 SSTORE POP JUMP JUMPDEST PUSH4 0x4E487B71 PUSH1 0xE0 SHL PUSH1 0x0 MSTORE PUSH1 0x32 PUSH1 0x4 MSTORE PUSH1 0x24 PUSH1 0x0 REVERT JUMPDEST PUSH1 0x0 PUSH1 0x1 DUP3 ADD PUSH3 0x94F JUMPI PUSH4 0x4E487B71 PUSH1 0xE0 SHL PUSH1 0x0 MSTORE PUSH1 0x11 PUSH1 0x4 MSTORE PUSH1 0x24 PUSH1 0x0 REVERT JUMPDEST POP PUSH1 0x1 ADD SWAP1 JUMP JUMPDEST PUSH2 0x4BA9 DUP1 PUSH3 0x966 PUSH1 0x0 CODECOPY PUSH1 0x0 RETURN INVALID PUSH1 0x80 PUSH1 0x40 MSTORE CALLVALUE DUP1 ISZERO PUSH2 0x10 JUMPI PUSH1 0x0 DUP1 REVERT JUMPDEST POP PUSH1 0x4 CALLDATASIZE LT PUSH2 0x18E JUMPI PUSH1 0x0 CALLDATALOAD PUSH1 0xE0 SHR DUP1 PUSH4 0x86B301AD GT PUSH2 0xDE JUMPI DUP1 PUSH4 0xBE94990E GT PUSH2 0x97 JUMPI DUP1 PUSH4 0xEBA62C51 GT PUSH2 0x71 JUMPI DUP1 PUSH4 0xEBA62C51 EQ PUSH2 0x366 JUMPI DUP1 PUSH4 0xF2FE0D27 EQ PUSH2 0x379 JUMPI DUP1 PUSH4 0xF851A440 EQ PUSH2 0x38C JUMPI DUP1 PUSH4 0xFBD21F50 EQ PUSH2 0x3B7 JUMPI PUSH1 0x0 DUP1 REVERT JUMPDEST DUP1 PUSH4 0xBE94990E EQ PUSH2 0x342 JUMPI DUP1 PUSH4 0xCF09E0D0 EQ PUSH2 0x355 JUMPI DUP1 PUSH4 0xE68F10ED EQ PUSH2 0x35E JUMPI PUSH1 0x0 DUP1 REVERT JUMPDEST DUP1 PUSH4 0x86B301AD EQ PUSH2 0x2B1 JUMPI DUP1 PUSH4 0x94F183CB EQ PUSH2 0x2C6 JUMPI DUP1 PUSH4 0xA5B1459D EQ PUSH2 0x2DB JUMPI DUP1 PUSH4 0xB18280D0 EQ PUSH2 0x2EE JUMPI DUP1 PUSH4 0xB87F86B7 EQ PUSH2 0x312 JUMPI DUP1 PUSH4 0xBCA72E85 EQ PUSH2 0x32F JUMPI PUSH1 0x0 DUP1 REVERT JUMPDEST DUP1 PUSH4 0x22A2A00B GT PUSH2 0x14B JUMPI DUP1 PUSH4 0x7284E416 GT PUSH2 0x125 JUMPI DUP1 PUSH4 0x7284E416 EQ PUSH2 0x266 JUMPI DUP1 PUSH4 0x834EE417 EQ PUSH2 0x26E JUMPI DUP1 PUSH4 0x84E8D531 EQ PUSH2 0x277 JUMPI DUP1 PUSH4 0x84E91395 EQ PUSH2 0x29C JUMPI PUSH1 0x0 DUP1 REVERT JUMPDEST DUP1 PUSH4 0x22A2A00B EQ PUSH2 0x201 JUMPI DUP1 PUSH4 0x3F9942FF EQ PUSH2 0x234 JUMPI DUP1 PUSH4 0x5DF81330 EQ PUSH2 0x241 JUMPI PUSH1 0x0 DUP1 REVERT JUMPDEST DUP1 PUSH4 0x11DC4E5 EQ PUSH2 0x193 JUMPI DUP1 PUSH4 0x66D5DC7 EQ PUSH2 0x19D JUMPI DUP1 PUSH4 0x6FDDE03 EQ PUSH2 0x1B9 JUMPI DUP1 PUSH4 0xDC96015 EQ PUSH2 0x1CE JUMPI DUP1 PUSH4 0x109BD47F EQ PUSH2 0x1E3 JUMPI DUP1 PUSH4 0x16243356 EQ PUSH2 0x1F8 JUMPI JUMPDEST PUSH1 0x0 DUP1 REVERT JUMPDEST PUSH2 0x19B PUSH2 0x3CA JUMP JUMPDEST STOP JUMPDEST PUSH2 0x1A6 PUSH1 0x0 SLOAD DUP2 JUMP JUMPDEST PUSH1 0x40 MLOAD SWAP1 DUP2 MSTORE PUSH1 0x20 ADD JUMPDEST PUSH1 0x40 MLOAD DUP1 SWAP2 SUB SWAP1 RETURN JUMPDEST PUSH2 0x1C1 PUSH2 0x4E3 JUMP JUMPDEST PUSH1 0x40 MLOAD PUSH2 0x1B0 SWAP2 SWAP1 PUSH2 0x39BB JUMP JUMPDEST PUSH2 0x1D6 PUSH2 0x571 JUMP JUMPDEST PUSH1 0x40 MLOAD PUSH2 0x1B0 SWAP2 SWAP1 PUSH2 0x3B83 JUMP JUMPDEST PUSH2 0x1EB PUSH2 0x599 JUMP JUMPDEST PUSH1 0x40 MLOAD PUSH2 0x1B0 SWAP2 SWAP1 PUSH2 0x3BFA JUMP JUMPDEST PUSH2 0x1A6 PUSH1 0x5 SLOAD DUP2 JUMP JUMPDEST PUSH2 0x224 PUSH2 0x20F CALLDATASIZE PUSH1 0x4 PUSH2 0x3C3E JUMP JUMPDEST PUSH1 0xA PUSH1 0x20 MSTORE PUSH1 0x0 SWAP1 DUP2 MSTORE PUSH1 0x40 SWAP1 KECCAK256 SLOAD PUSH1 0xFF AND DUP2 JUMP JUMPDEST PUSH1 0x40 MLOAD SWAP1 ISZERO ISZERO DUP2 MSTORE PUSH1 0x20 ADD PUSH2 0x1B0 JUMP JUMPDEST PUSH1 0x7 SLOAD PUSH2 0x224 SWAP1 PUSH1 0xFF AND DUP2 JUMP JUMPDEST PUSH2 0x254 PUSH2 0x24F CALLDATASIZE PUSH1 0x4 PUSH2 0x3C3E JUMP JUMPDEST PUSH2 0x637 JUMP JUMPDEST PUSH1 0x40 MLOAD PUSH1 0xFF SWAP1 SWAP2 AND DUP2 MSTORE PUSH1 0x20 ADD PUSH2 0x1B0 JUMP JUMPDEST PUSH2 0x1C1 PUSH2 0x660 JUMP JUMPDEST PUSH2 0x1A6 PUSH1 0x4 SLOAD DUP2 JUMP JUMPDEST PUSH2 0x28A PUSH2 0x285 CALLDATASIZE PUSH1 0x4 PUSH2 0x3C57 JUMP JUMPDEST PUSH2 0x66D JUMP JUMPDEST PUSH1 0x40 MLOAD PUSH2 0x1B0 SWAP7 SWAP6 SWAP5 SWAP4 SWAP3 SWAP2 SWAP1 PUSH2 0x3C83 JUMP JUMPDEST PUSH2 0x2A4 PUSH2 0xD8F JUMP JUMPDEST PUSH1 0x40 MLOAD PUSH2 0x1B0 SWAP2 SWAP1 PUSH2 0x3DC2 JUMP JUMPDEST PUSH2 0x2B9 PUSH2 0x1130 JUMP JUMPDEST PUSH1 0x40 MLOAD PUSH2 0x1B0 SWAP2 SWAP1 PUSH2 0x3E0D JUMP JUMPDEST PUSH2 0x2CE PUSH2 0x118F JUMP JUMPDEST PUSH1 0x40 MLOAD PUSH2 0x1B0 SWAP2 SWAP1 PUSH2 0x3E21 JUMP JUMPDEST PUSH2 0x19B PUSH2 0x2E9 CALLDATASIZE PUSH1 0x4 PUSH2 0x42FC JUMP JUMPDEST PUSH2 0x1A32 JUMP JUMPDEST PUSH2 0x301 PUSH2 0x2FC CALLDATASIZE PUSH1 0x4 PUSH2 0x3C3E JUMP JUMPDEST PUSH2 0x1B7E JUMP JUMPDEST PUSH1 0x40 MLOAD PUSH2 0x1B0 SWAP6 SWAP5 SWAP4 SWAP3 SWAP2 SWAP1 PUSH2 0x4410 JUMP JUMPDEST PUSH2 0x31A PUSH2 0x1D5C JUMP JUMPDEST PUSH1 0x40 MLOAD PUSH2 0x1B0 SWAP10 SWAP9 SWAP8 SWAP7 SWAP6 SWAP5 SWAP4 SWAP3 SWAP2 SWAP1 PUSH2 0x4465 JUMP JUMPDEST PUSH2 0x19B PUSH2 0x33D CALLDATASIZE PUSH1 0x4 PUSH2 0x46DE JUMP JUMPDEST PUSH2 0x1ED0 JUMP JUMPDEST PUSH2 0x28A PUSH2 0x350 CALLDATASIZE PUSH1 0x4 PUSH2 0x471A JUMP JUMPDEST PUSH2 0x2049 JUMP JUMPDEST PUSH2 0x1A6 PUSH1 0x6 SLOAD DUP2 JUMP JUMPDEST PUSH1 0x8 SLOAD PUSH2 0x1A6 JUMP JUMPDEST PUSH2 0x28A PUSH2 0x374 CALLDATASIZE PUSH1 0x4 PUSH2 0x473C JUMP JUMPDEST PUSH2 0x2635 JUMP JUMPDEST PUSH2 0x19B PUSH2 0x387 CALLDATASIZE PUSH1 0x4 PUSH2 0x4774 JUMP JUMPDEST PUSH2 0x2C21 JUMP JUMPDEST PUSH1 0x3 SLOAD PUSH2 0x39F SWAP1 PUSH1 0x1 PUSH1 0x1 PUSH1 0xA0 SHL SUB AND DUP2 JUMP JUMPDEST PUSH1 0x40 MLOAD PUSH1 0x1 PUSH1 0x1 PUSH1 0xA0 SHL SUB SWAP1 SWAP2 AND DUP2 MSTORE PUSH1 0x20 ADD PUSH2 0x1B0 JUMP JUMPDEST PUSH2 0x28A PUSH2 0x3C5 CALLDATASIZE PUSH1 0x4 PUSH2 0x471A JUMP JUMPDEST PUSH2 0x2CD1 JUMP JUMPDEST PUSH1 0x3 SLOAD PUSH1 0x1 PUSH1 0x1 PUSH1 0xA0 SHL SUB AND CALLER EQ PUSH2 0x421 JUMPI PUSH1 0x40 MLOAD PUSH3 0x461BCD PUSH1 0xE5 SHL DUP2 MSTORE PUSH1 0x20 PUSH1 0x4 DUP3 ADD MSTORE PUSH1 0x15 PUSH1 0x24 DUP3 ADD MSTORE PUSH21 0x2CB7BA9030B932903737BA1030B71020B236B4B717 PUSH1 0x59 SHL PUSH1 0x44 DUP3 ADD MSTORE PUSH1 0x64 ADD JUMPDEST PUSH1 0x40 MLOAD DUP1 SWAP2 SUB SWAP1 REVERT JUMPDEST PUSH1 0x0 PUSH2 0x42B PUSH2 0x1130 JUMP JUMPDEST SWAP1 POP PUSH1 0x0 DUP2 PUSH1 0x3 DUP2 GT ISZERO PUSH2 0x441 JUMPI PUSH2 0x441 PUSH2 0x3DD5 JUMP JUMPDEST EQ PUSH2 0x4AA JUMPI PUSH1 0x40 MLOAD PUSH3 0x461BCD PUSH1 0xE5 SHL DUP2 MSTORE PUSH1 0x20 PUSH1 0x4 DUP3 ADD MSTORE PUSH1 0x33 PUSH1 0x24 DUP3 ADD MSTORE PUSH32 0x54686520766F74696E672068617320616C72656164792073746172746564206F PUSH1 0x44 DUP3 ADD MSTORE PUSH19 0x1C881A185CC8185B1C9958591E48195B991959 PUSH1 0x6A SHL PUSH1 0x64 DUP3 ADD MSTORE PUSH1 0x84 ADD PUSH2 0x418 JUMP JUMPDEST PUSH1 0x7 DUP1 SLOAD PUSH1 0xFF NOT AND PUSH1 0x1 OR SWAP1 SSTORE PUSH1 0x40 MLOAD PUSH32 0xB7F1ABBCDFCFFF2DBAA12177264F358CF20420C7BF3AF655F82A7A89DE5E04BB SWAP1 PUSH1 0x0 SWAP1 LOG1 POP JUMP JUMPDEST PUSH1 0x1 DUP1 SLOAD PUSH2 0x4F0 SWAP1 PUSH2 0x48E3 JUMP JUMPDEST DUP1 PUSH1 0x1F ADD PUSH1 0x20 DUP1 SWAP2 DIV MUL PUSH1 0x20 ADD PUSH1 0x40 MLOAD SWAP1 DUP2 ADD PUSH1 0x40 MSTORE DUP1 SWAP3 SWAP2 SWAP1 DUP2 DUP2 MSTORE PUSH1 0x20 ADD DUP3 DUP1 SLOAD PUSH2 0x51C SWAP1 PUSH2 0x48E3 JUMP JUMPDEST DUP1 ISZERO PUSH2 0x569 JUMPI DUP1 PUSH1 0x1F LT PUSH2 0x53E JUMPI PUSH2 0x100 DUP1 DUP4 SLOAD DIV MUL DUP4 MSTORE SWAP2 PUSH1 0x20 ADD SWAP2 PUSH2 0x569 JUMP JUMPDEST DUP3 ADD SWAP2 SWAP1 PUSH1 0x0 MSTORE PUSH1 0x20 PUSH1 0x0 KECCAK256 SWAP1 JUMPDEST DUP2 SLOAD DUP2 MSTORE SWAP1 PUSH1 0x1 ADD SWAP1 PUSH1 0x20 ADD DUP1 DUP4 GT PUSH2 0x54C JUMPI DUP3 SWAP1 SUB PUSH1 0x1F AND DUP3 ADD SWAP2 JUMPDEST POP POP POP POP POP DUP2 JUMP JUMPDEST PUSH1 0x8 SLOAD PUSH1 0x60 SWAP1 PUSH1 0x0 JUMPDEST DUP2 DUP2 LT ISZERO PUSH2 0x594 JUMPI DUP1 PUSH2 0x58C DUP2 PUSH2 0x4933 JUMP JUMPDEST SWAP2 POP POP PUSH2 0x57A JUMP JUMPDEST POP POP SWAP1 JUMP JUMPDEST PUSH1 0x8 SLOAD PUSH1 0x60 SWAP1 PUSH1 0x0 DUP2 PUSH1 0x1 PUSH1 0x1 PUSH1 0x40 SHL SUB DUP2 GT ISZERO PUSH2 0x5B9 JUMPI PUSH2 0x5B9 PUSH2 0x3E83 JUMP JUMPDEST PUSH1 0x40 MLOAD SWAP1 DUP1 DUP3 MSTORE DUP1 PUSH1 0x20 MUL PUSH1 0x20 ADD DUP3 ADD PUSH1 0x40 MSTORE DUP1 ISZERO PUSH2 0x5E2 JUMPI DUP2 PUSH1 0x20 ADD PUSH1 0x20 DUP3 MUL DUP1 CALLDATASIZE DUP4 CALLDATACOPY ADD SWAP1 POP JUMPDEST POP SWAP1 POP PUSH1 0x0 JUMPDEST DUP3 DUP2 LT ISZERO PUSH2 0x630 JUMPI PUSH1 0x0 DUP2 DUP2 MSTORE PUSH1 0xD PUSH1 0x20 MSTORE PUSH1 0x40 SWAP1 KECCAK256 SLOAD DUP3 MLOAD DUP4 SWAP1 DUP4 SWAP1 DUP2 LT PUSH2 0x613 JUMPI PUSH2 0x613 PUSH2 0x494C JUMP JUMPDEST PUSH1 0x20 SWAP1 DUP2 MUL SWAP2 SWAP1 SWAP2 ADD ADD MSTORE DUP1 PUSH2 0x628 DUP2 PUSH2 0x4933 JUMP JUMPDEST SWAP2 POP POP PUSH2 0x5E8 JUMP JUMPDEST POP SWAP3 SWAP2 POP POP JUMP JUMPDEST PUSH1 0xF DUP2 DUP2 SLOAD DUP2 LT PUSH2 0x647 JUMPI PUSH1 0x0 DUP1 REVERT JUMPDEST PUSH1 0x0 SWAP2 DUP3 MSTORE PUSH1 0x20 SWAP1 SWAP2 KECCAK256 PUSH1 0x2 SWAP1 SWAP2 MUL ADD SLOAD PUSH1 0xFF AND SWAP1 POP DUP2 JUMP JUMPDEST PUSH1 0x2 DUP1 SLOAD PUSH2 0x4F0 SWAP1 PUSH2 0x48E3 JUMP JUMPDEST PUSH1 0x9 PUSH1 0x20 MSTORE DUP3 PUSH1 0x0 MSTORE PUSH1 0x40 PUSH1 0x0 KECCAK256 PUSH1 0x20 MSTORE DUP2 PUSH1 0x0 MSTORE PUSH1 0x40 PUSH1 0x0 KECCAK256 DUP2 DUP2 SLOAD DUP2 LT PUSH2 0x695 JUMPI PUSH1 0x0 DUP1 REVERT JUMPDEST SWAP1 PUSH1 0x0 MSTORE PUSH1 0x20 PUSH1 0x0 KECCAK256 SWAP1 PUSH1 0xA MUL ADD PUSH1 0x0 SWAP3 POP SWAP3 POP POP POP DUP1 PUSH1 0x0 ADD DUP1 SLOAD PUSH2 0x6BA SWAP1 PUSH2 0x48E3 JUMP JUMPDEST DUP1 PUSH1 0x1F ADD PUSH1 0x20 DUP1 SWAP2 DIV MUL PUSH1 0x20 ADD PUSH1 0x40 MLOAD SWAP1 DUP2 ADD PUSH1 0x40 MSTORE DUP1 SWAP3 SWAP2 SWAP1 DUP2 DUP2 MSTORE PUSH1 0x20 ADD DUP3 DUP1 SLOAD PUSH2 0x6E6 SWAP1 PUSH2 0x48E3 JUMP JUMPDEST DUP1 ISZERO PUSH2 0x733 JUMPI DUP1 PUSH1 0x1F LT PUSH2 0x708 JUMPI PUSH2 0x100 DUP1 DUP4 SLOAD DIV MUL DUP4 MSTORE SWAP2 PUSH1 0x20 ADD SWAP2 PUSH2 0x733 JUMP JUMPDEST DUP3 ADD SWAP2 SWAP1 PUSH1 0x0 MSTORE PUSH1 0x20 PUSH1 0x0 KECCAK256 SWAP1 JUMPDEST DUP2 SLOAD DUP2 MSTORE SWAP1 PUSH1 0x1 ADD SWAP1 PUSH1 0x20 ADD DUP1 DUP4 GT PUSH2 0x716 JUMPI DUP3 SWAP1 SUB PUSH1 0x1F AND DUP3 ADD SWAP2 JUMPDEST POP POP POP POP POP SWAP1 DUP1 PUSH1 0x1 ADD DUP1 SLOAD PUSH2 0x748 SWAP1 PUSH2 0x48E3 JUMP JUMPDEST DUP1 PUSH1 0x1F ADD PUSH1 0x20 DUP1 SWAP2 DIV MUL PUSH1 0x20 ADD PUSH1 0x40 MLOAD SWAP1 DUP2 ADD PUSH1 0x40 MSTORE DUP1 SWAP3 SWAP2 SWAP1 DUP2 DUP2 MSTORE PUSH1 0x20 ADD DUP3 DUP1 SLOAD PUSH2 0x774 SWAP1 PUSH2 0x48E3 JUMP JUMPDEST DUP1 ISZERO PUSH2 0x7C1 JUMPI DUP1 PUSH1 0x1F LT PUSH2 0x796 JUMPI PUSH2 0x100 DUP1 DUP4 SLOAD DIV MUL DUP4 MSTORE SWAP2 PUSH1 0x20 ADD SWAP2 PUSH2 0x7C1 JUMP JUMPDEST DUP3 ADD SWAP2 SWAP1 PUSH1 0x0 MSTORE PUSH1 0x20 PUSH1 0x0 KECCAK256 SWAP1 JUMPDEST DUP2 SLOAD DUP2 MSTORE SWAP1 PUSH1 0x1 ADD SWAP1 PUSH1 0x20 ADD DUP1 DUP4 GT PUSH2 0x7A4 JUMPI DUP3 SWAP1 SUB PUSH1 0x1F AND DUP3 ADD SWAP2 JUMPDEST POP POP POP POP POP SWAP1 DUP1 PUSH1 0x2 ADD PUSH1 0x40 MLOAD DUP1 PUSH1 0x60 ADD PUSH1 0x40 MSTORE SWAP1 DUP2 PUSH1 0x0 DUP3 ADD DUP1 SLOAD DUP1 PUSH1 0x20 MUL PUSH1 0x20 ADD PUSH1 0x40 MLOAD SWAP1 DUP2 ADD PUSH1 0x40 MSTORE DUP1 SWAP3 SWAP2 SWAP1 DUP2 DUP2 MSTORE PUSH1 0x20 ADD PUSH1 0x0 SWAP1 JUMPDEST DUP3 DUP3 LT ISZERO PUSH2 0x8A7 JUMPI DUP4 DUP3 SWAP1 PUSH1 0x0 MSTORE PUSH1 0x20 PUSH1 0x0 KECCAK256 ADD DUP1 SLOAD PUSH2 0x81A SWAP1 PUSH2 0x48E3 JUMP JUMPDEST DUP1 PUSH1 0x1F ADD PUSH1 0x20 DUP1 SWAP2 DIV MUL PUSH1 0x20 ADD PUSH1 0x40 MLOAD SWAP1 DUP2 ADD PUSH1 0x40 MSTORE DUP1 SWAP3 SWAP2 SWAP1 DUP2 DUP2 MSTORE PUSH1 0x20 ADD DUP3 DUP1 SLOAD PUSH2 0x846 SWAP1 PUSH2 0x48E3 JUMP JUMPDEST DUP1 ISZERO PUSH2 0x893 JUMPI DUP1 PUSH1 0x1F LT PUSH2 0x868 JUMPI PUSH2 0x100 DUP1 DUP4 SLOAD DIV MUL DUP4 MSTORE SWAP2 PUSH1 0x20 ADD SWAP2 PUSH2 0x893 JUMP JUMPDEST DUP3 ADD SWAP2 SWAP1 PUSH1 0x0 MSTORE PUSH1 0x20 PUSH1 0x0 KECCAK256 SWAP1 JUMPDEST DUP2 SLOAD DUP2 MSTORE SWAP1 PUSH1 0x1 ADD SWAP1 PUSH1 0x20 ADD DUP1 DUP4 GT PUSH2 0x876 JUMPI DUP3 SWAP1 SUB PUSH1 0x1F AND DUP3 ADD SWAP2 JUMPDEST POP POP POP POP POP DUP2 MSTORE PUSH1 0x20 ADD SWAP1 PUSH1 0x1 ADD SWAP1 PUSH2 0x7FB JUMP JUMPDEST POP POP POP POP DUP2 MSTORE PUSH1 0x20 ADD PUSH1 0x1 DUP3 ADD DUP1 SLOAD DUP1 PUSH1 0x20 MUL PUSH1 0x20 ADD PUSH1 0x40 MLOAD SWAP1 DUP2 ADD PUSH1 0x40 MSTORE DUP1 SWAP3 SWAP2 SWAP1 DUP2 DUP2 MSTORE PUSH1 0x20 ADD PUSH1 0x0 SWAP1 JUMPDEST DUP3 DUP3 LT ISZERO PUSH2 0x980 JUMPI DUP4 DUP3 SWAP1 PUSH1 0x0 MSTORE PUSH1 0x20 PUSH1 0x0 KECCAK256 ADD DUP1 SLOAD PUSH2 0x8F3 SWAP1 PUSH2 0x48E3 JUMP JUMPDEST DUP1 PUSH1 0x1F ADD PUSH1 0x20 DUP1 SWAP2 DIV MUL PUSH1 0x20 ADD PUSH1 0x40 MLOAD SWAP1 DUP2 ADD PUSH1 0x40 MSTORE DUP1 SWAP3 SWAP2 SWAP1 DUP2 DUP2 MSTORE PUSH1 0x20 ADD DUP3 DUP1 SLOAD PUSH2 0x91F SWAP1 PUSH2 0x48E3 JUMP JUMPDEST DUP1 ISZERO PUSH2 0x96C JUMPI DUP1 PUSH1 0x1F LT PUSH2 0x941 JUMPI PUSH2 0x100 DUP1 DUP4 SLOAD DIV MUL DUP4 MSTORE SWAP2 PUSH1 0x20 ADD SWAP2 PUSH2 0x96C JUMP JUMPDEST DUP3 ADD SWAP2 SWAP1 PUSH1 0x0 MSTORE PUSH1 0x20 PUSH1 0x0 KECCAK256 SWAP1 JUMPDEST DUP2 SLOAD DUP2 MSTORE SWAP1 PUSH1 0x1 ADD SWAP1 PUSH1 0x20 ADD DUP1 DUP4 GT PUSH2 0x94F JUMPI DUP3 SWAP1 SUB PUSH1 0x1F AND DUP3 ADD SWAP2 JUMPDEST POP POP POP POP POP DUP2 MSTORE PUSH1 0x20 ADD SWAP1 PUSH1 0x1 ADD SWAP1 PUSH2 0x8D4 JUMP JUMPDEST POP POP POP POP DUP2 MSTORE PUSH1 0x20 ADD PUSH1 0x2 DUP3 ADD DUP1 SLOAD DUP1 PUSH1 0x20 MUL PUSH1 0x20 ADD PUSH1 0x40 MLOAD SWAP1 DUP2 ADD PUSH1 0x40 MSTORE DUP1 SWAP3 SWAP2 SWAP1 DUP2 DUP2 MSTORE PUSH1 0x20 ADD PUSH1 0x0 SWAP1 JUMPDEST DUP3 DUP3 LT ISZERO PUSH2 0xA59 JUMPI DUP4 DUP3 SWAP1 PUSH1 0x0 MSTORE PUSH1 0x20 PUSH1 0x0 KECCAK256 ADD DUP1 SLOAD PUSH2 0x9CC SWAP1 PUSH2 0x48E3 JUMP JUMPDEST DUP1 PUSH1 0x1F ADD PUSH1 0x20 DUP1 SWAP2 DIV MUL PUSH1 0x20 ADD PUSH1 0x40 MLOAD SWAP1 DUP2 ADD PUSH1 0x40 MSTORE DUP1 SWAP3 SWAP2 SWAP1 DUP2 DUP2 MSTORE PUSH1 0x20 ADD DUP3 DUP1 SLOAD PUSH2 0x9F8 SWAP1 PUSH2 0x48E3 JUMP JUMPDEST DUP1 ISZERO PUSH2 0xA45 JUMPI DUP1 PUSH1 0x1F LT PUSH2 0xA1A JUMPI PUSH2 0x100 DUP1 DUP4 SLOAD DIV MUL DUP4 MSTORE SWAP2 PUSH1 0x20 ADD SWAP2 PUSH2 0xA45 JUMP JUMPDEST DUP3 ADD SWAP2 SWAP1 PUSH1 0x0 MSTORE PUSH1 0x20 PUSH1 0x0 KECCAK256 SWAP1 JUMPDEST DUP2 SLOAD DUP2 MSTORE SWAP1 PUSH1 0x1 ADD SWAP1 PUSH1 0x20 ADD DUP1 DUP4 GT PUSH2 0xA28 JUMPI DUP3 SWAP1 SUB PUSH1 0x1F AND DUP3 ADD SWAP2 JUMPDEST POP POP POP POP POP DUP2 MSTORE PUSH1 0x20 ADD SWAP1 PUSH1 0x1 ADD SWAP1 PUSH2 0x9AD JUMP JUMPDEST POP POP POP POP DUP2 MSTORE POP POP SWAP1 DUP1 PUSH1 0x5 ADD PUSH1 0x40 MLOAD DUP1 PUSH1 0x60 ADD PUSH1 0x40 MSTORE SWAP1 DUP2 PUSH1 0x0 DUP3 ADD DUP1 SLOAD PUSH2 0xA81 SWAP1 PUSH2 0x48E3 JUMP JUMPDEST DUP1 PUSH1 0x1F ADD PUSH1 0x20 DUP1 SWAP2 DIV MUL PUSH1 0x20 ADD PUSH1 0x40 MLOAD SWAP1 DUP2 ADD PUSH1 0x40 MSTORE DUP1 SWAP3 SWAP2 SWAP1 DUP2 DUP2 MSTORE PUSH1 0x20 ADD DUP3 DUP1 SLOAD PUSH2 0xAAD SWAP1 PUSH2 0x48E3 JUMP JUMPDEST DUP1 ISZERO PUSH2 0xAFA JUMPI DUP1 PUSH1 0x1F LT PUSH2 0xACF JUMPI PUSH2 0x100 DUP1 DUP4 SLOAD DIV MUL DUP4 MSTORE SWAP2 PUSH1 0x20 ADD SWAP2 PUSH2 0xAFA JUMP JUMPDEST DUP3 ADD SWAP2 SWAP1 PUSH1 0x0 MSTORE PUSH1 0x20 PUSH1 0x0 KECCAK256 SWAP1 JUMPDEST DUP2 SLOAD DUP2 MSTORE SWAP1 PUSH1 0x1 ADD SWAP1 PUSH1 0x20 ADD DUP1 DUP4 GT PUSH2 0xADD JUMPI DUP3 SWAP1 SUB PUSH1 0x1F AND DUP3 ADD SWAP2 JUMPDEST POP POP POP POP POP DUP2 MSTORE PUSH1 0x20 ADD PUSH1 0x1 DUP3 ADD DUP1 SLOAD PUSH2 0xB13 SWAP1 PUSH2 0x48E3 JUMP JUMPDEST DUP1 PUSH1 0x1F ADD PUSH1 0x20 DUP1 SWAP2 DIV MUL PUSH1 0x20 ADD PUSH1 0x40 MLOAD SWAP1 DUP2 ADD PUSH1 0x40 MSTORE DUP1 SWAP3 SWAP2 SWAP1 DUP2 DUP2 MSTORE PUSH1 0x20 ADD DUP3 DUP1 SLOAD PUSH2 0xB3F SWAP1 PUSH2 0x48E3 JUMP JUMPDEST DUP1 ISZERO PUSH2 0xB8C JUMPI DUP1 PUSH1 0x1F LT PUSH2 0xB61 JUMPI PUSH2 0x100 DUP1 DUP4 SLOAD DIV MUL DUP4 MSTORE SWAP2 PUSH1 0x20 ADD SWAP2 PUSH2 0xB8C JUMP JUMPDEST DUP3 ADD SWAP2 SWAP1 PUSH1 0x0 MSTORE PUSH1 0x20 PUSH1 0x0 KECCAK256 SWAP1 JUMPDEST DUP2 SLOAD DUP2 MSTORE SWAP1 PUSH1 0x1 ADD SWAP1 PUSH1 0x20 ADD DUP1 DUP4 GT PUSH2 0xB6F JUMPI DUP3 SWAP1 SUB PUSH1 0x1F AND DUP3 ADD SWAP2 JUMPDEST POP POP POP POP POP DUP2 MSTORE PUSH1 0x20 ADD PUSH1 0x2 DUP3 ADD DUP1 SLOAD DUP1 PUSH1 0x20 MUL PUSH1 0x20 ADD PUSH1 0x40 MLOAD SWAP1 DUP2 ADD PUSH1 0x40 MSTORE DUP1 SWAP3 SWAP2 SWAP1 DUP2 DUP2 MSTORE PUSH1 0x20 ADD PUSH1 0x0 SWAP1 JUMPDEST DUP3 DUP3 LT ISZERO PUSH2 0xC66 JUMPI DUP4 DUP3 SWAP1 PUSH1 0x0 MSTORE PUSH1 0x20 PUSH1 0x0 KECCAK256 ADD DUP1 SLOAD PUSH2 0xBD9 SWAP1 PUSH2 0x48E3 JUMP JUMPDEST DUP1 PUSH1 0x1F ADD PUSH1 0x20 DUP1 SWAP2 DIV MUL PUSH1 0x20 ADD PUSH1 0x40 MLOAD SWAP1 DUP2 ADD PUSH1 0x40 MSTORE DUP1 SWAP3 SWAP2 SWAP1 DUP2 DUP2 MSTORE PUSH1 0x20 ADD DUP3 DUP1 SLOAD PUSH2 0xC05 SWAP1 PUSH2 0x48E3 JUMP JUMPDEST DUP1 ISZERO PUSH2 0xC52 JUMPI DUP1 PUSH1 0x1F LT PUSH2 0xC27 JUMPI PUSH2 0x100 DUP1 DUP4 SLOAD DIV MUL DUP4 MSTORE SWAP2 PUSH1 0x20 ADD SWAP2 PUSH2 0xC52 JUMP JUMPDEST DUP3 ADD SWAP2 SWAP1 PUSH1 0x0 MSTORE PUSH1 0x20 PUSH1 0x0 KECCAK256 SWAP1 JUMPDEST DUP2 SLOAD DUP2 MSTORE SWAP1 PUSH1 0x1 ADD SWAP1 PUSH1 0x20 ADD DUP1 DUP4 GT PUSH2 0xC35 JUMPI DUP3 SWAP1 SUB PUSH1 0x1F AND DUP3 ADD SWAP2 JUMPDEST POP POP POP POP POP DUP2 MSTORE PUSH1 0x20 ADD SWAP1 PUSH1 0x1 ADD SWAP1 PUSH2 0xBBA JUMP JUMPDEST POP POP POP POP DUP2 MSTORE POP POP SWAP1 DUP1 PUSH1 0x8 ADD DUP1 SLOAD PUSH2 0xC7E SWAP1 PUSH2 0x48E3 JUMP JUMPDEST DUP1 PUSH1 0x1F ADD PUSH1 0x20 DUP1 SWAP2 DIV MUL PUSH1 0x20 ADD PUSH1 0x40 MLOAD SWAP1 DUP2 ADD PUSH1 0x40 MSTORE DUP1 SWAP3 SWAP2 SWAP1 DUP2 DUP2 MSTORE PUSH1 0x20 ADD DUP3 DUP1 SLOAD PUSH2 0xCAA SWAP1 PUSH2 0x48E3 JUMP JUMPDEST DUP1 ISZERO PUSH2 0xCF7 JUMPI DUP1 PUSH1 0x1F LT PUSH2 0xCCC JUMPI PUSH2 0x100 DUP1 DUP4 SLOAD DIV MUL DUP4 MSTORE SWAP2 PUSH1 0x20 ADD SWAP2 PUSH2 0xCF7 JUMP JUMPDEST DUP3 ADD SWAP2 SWAP1 PUSH1 0x0 MSTORE PUSH1 0x20 PUSH1 0x0 KECCAK256 SWAP1 JUMPDEST DUP2 SLOAD DUP2 MSTORE SWAP1 PUSH1 0x1 ADD SWAP1 PUSH1 0x20 ADD DUP1 DUP4 GT PUSH2 0xCDA JUMPI DUP3 SWAP1 SUB PUSH1 0x1F AND DUP3 ADD SWAP2 JUMPDEST POP POP POP POP POP SWAP1 DUP1 PUSH1 0x9 ADD DUP1 SLOAD PUSH2 0xD0C SWAP1 PUSH2 0x48E3 JUMP JUMPDEST DUP1 PUSH1 0x1F ADD PUSH1 0x20 DUP1 SWAP2 DIV MUL PUSH1 0x20 ADD PUSH1 0x40 MLOAD SWAP1 DUP2 ADD PUSH1 0x40 MSTORE DUP1 SWAP3 SWAP2 SWAP1 DUP2 DUP2 MSTORE PUSH1 0x20 ADD DUP3 DUP1 SLOAD PUSH2 0xD38 SWAP1 PUSH2 0x48E3 JUMP JUMPDEST DUP1 ISZERO PUSH2 0xD85 JUMPI DUP1 PUSH1 0x1F LT PUSH2 0xD5A JUMPI PUSH2 0x100 DUP1 DUP4 SLOAD DIV MUL DUP4 MSTORE SWAP2 PUSH1 0x20 ADD SWAP2 PUSH2 0xD85 JUMP JUMPDEST DUP3 ADD SWAP2 SWAP1 PUSH1 0x0 MSTORE PUSH1 0x20 PUSH1 0x0 KECCAK256 SWAP1 JUMPDEST DUP2 SLOAD DUP2 MSTORE SWAP1 PUSH1 0x1 ADD SWAP1 PUSH1 0x20 ADD DUP1 DUP4 GT PUSH2 0xD68 JUMPI DUP3 SWAP1 SUB PUSH1 0x1F AND DUP3 ADD SWAP2 JUMPDEST POP POP POP POP POP SWAP1 POP DUP7 JUMP JUMPDEST PUSH1 0x8 SLOAD PUSH1 0x60 SWAP1 PUSH1 0x0 DUP2 PUSH1 0x1 PUSH1 0x1 PUSH1 0x40 SHL SUB DUP2 GT ISZERO PUSH2 0xDAF JUMPI PUSH2 0xDAF PUSH2 0x3E83 JUMP JUMPDEST PUSH1 0x40 MLOAD SWAP1 DUP1 DUP3 MSTORE DUP1 PUSH1 0x20 MUL PUSH1 0x20 ADD DUP3 ADD PUSH1 0x40 MSTORE DUP1 ISZERO PUSH2 0xE1C JUMPI DUP2 PUSH1 0x20 ADD JUMPDEST PUSH2 0xE09 PUSH1 0x40 MLOAD DUP1 PUSH1 0xC0 ADD PUSH1 0x40 MSTORE DUP1 PUSH1 0x0 PUSH1 0xFF AND DUP2 MSTORE PUSH1 0x20 ADD PUSH1 0x60 DUP2 MSTORE PUSH1 0x20 ADD PUSH1 0x60 DUP2 MSTORE PUSH1 0x20 ADD PUSH1 0x60 DUP2 MSTORE PUSH1 0x20 ADD PUSH1 0x60 DUP2 MSTORE PUSH1 0x20 ADD PUSH1 0x0 DUP2 MSTORE POP SWAP1 JUMP JUMPDEST DUP2 MSTORE PUSH1 0x20 ADD SWAP1 PUSH1 0x1 SWAP1 SUB SWAP1 DUP2 PUSH2 0xDCD JUMPI SWAP1 POP JUMPDEST POP SWAP1 POP PUSH1 0x0 JUMPDEST DUP3 DUP2 LT ISZERO PUSH2 0x630 JUMPI PUSH1 0x8 DUP2 DUP2 SLOAD DUP2 LT PUSH2 0xE3D JUMPI PUSH2 0xE3D PUSH2 0x494C JUMP JUMPDEST PUSH1 0x0 SWAP2 DUP3 MSTORE PUSH1 0x20 SWAP2 DUP3 SWAP1 KECCAK256 PUSH1 0x40 DUP1 MLOAD PUSH1 0xC0 DUP2 ADD SWAP1 SWAP2 MSTORE PUSH1 0x6 SWAP1 SWAP3 MUL ADD DUP1 SLOAD PUSH1 0xFF AND DUP3 MSTORE PUSH1 0x1 DUP2 ADD DUP1 SLOAD SWAP3 SWAP4 SWAP2 SWAP3 SWAP2 DUP5 ADD SWAP2 PUSH2 0xE77 SWAP1 PUSH2 0x48E3 JUMP JUMPDEST DUP1 PUSH1 0x1F ADD PUSH1 0x20 DUP1 SWAP2 DIV MUL PUSH1 0x20 ADD PUSH1 0x40 MLOAD SWAP1 DUP2 ADD PUSH1 0x40 MSTORE DUP1 SWAP3 SWAP2 SWAP1 DUP2 DUP2 MSTORE PUSH1 0x20 ADD DUP3 DUP1 SLOAD PUSH2 0xEA3 SWAP1 PUSH2 0x48E3 JUMP JUMPDEST DUP1 ISZERO PUSH2 0xEF0 JUMPI DUP1 PUSH1 0x1F LT PUSH2 0xEC5 JUMPI PUSH2 0x100 DUP1 DUP4 SLOAD DIV MUL DUP4 MSTORE SWAP2 PUSH1 0x20 ADD SWAP2 PUSH2 0xEF0 JUMP JUMPDEST DUP3 ADD SWAP2 SWAP1 PUSH1 0x0 MSTORE PUSH1 0x20 PUSH1 0x0 KECCAK256 SWAP1 JUMPDEST DUP2 SLOAD DUP2 MSTORE SWAP1 PUSH1 0x1 ADD SWAP1 PUSH1 0x20 ADD DUP1 DUP4 GT PUSH2 0xED3 JUMPI DUP3 SWAP1 SUB PUSH1 0x1F AND DUP3 ADD SWAP2 JUMPDEST POP POP POP POP POP DUP2 MSTORE PUSH1 0x20 ADD PUSH1 0x2 DUP3 ADD DUP1 SLOAD PUSH2 0xF09 SWAP1 PUSH2 0x48E3 JUMP JUMPDEST DUP1 PUSH1 0x1F ADD PUSH1 0x20 DUP1 SWAP2 DIV MUL PUSH1 0x20 ADD PUSH1 0x40 MLOAD SWAP1 DUP2 ADD PUSH1 0x40 MSTORE DUP1 SWAP3 SWAP2 SWAP1 DUP2 DUP2 MSTORE PUSH1 0x20 ADD DUP3 DUP1 SLOAD PUSH2 0xF35 SWAP1 PUSH2 0x48E3 JUMP JUMPDEST DUP1 ISZERO PUSH2 0xF82 JUMPI DUP1 PUSH1 0x1F LT PUSH2 0xF57 JUMPI PUSH2 0x100 DUP1 DUP4 SLOAD DIV MUL DUP4 MSTORE SWAP2 PUSH1 0x20 ADD SWAP2 PUSH2 0xF82 JUMP JUMPDEST DUP3 ADD SWAP2 SWAP1 PUSH1 0x0 MSTORE PUSH1 0x20 PUSH1 0x0 KECCAK256 SWAP1 JUMPDEST DUP2 SLOAD DUP2 MSTORE SWAP1 PUSH1 0x1 ADD SWAP1 PUSH1 0x20 ADD DUP1 DUP4 GT PUSH2 0xF65 JUMPI DUP3 SWAP1 SUB PUSH1 0x1F AND DUP3 ADD SWAP2 JUMPDEST POP POP POP POP POP DUP2 MSTORE PUSH1 0x20 ADD PUSH1 0x3 DUP3 ADD DUP1 SLOAD PUSH2 0xF9B SWAP1 PUSH2 0x48E3 JUMP JUMPDEST DUP1 PUSH1 0x1F ADD PUSH1 0x20 DUP1 SWAP2 DIV MUL PUSH1 0x20 ADD PUSH1 0x40 MLOAD SWAP1 DUP2 ADD PUSH1 0x40 MSTORE DUP1 SWAP3 SWAP2 SWAP1 DUP2 DUP2 MSTORE PUSH1 0x20 ADD DUP3 DUP1 SLOAD PUSH2 0xFC7 SWAP1 PUSH2 0x48E3 JUMP JUMPDEST DUP1 ISZERO PUSH2 0x1014 JUMPI DUP1 PUSH1 0x1F LT PUSH2 0xFE9 JUMPI PUSH2 0x100 DUP1 DUP4 SLOAD DIV MUL DUP4 MSTORE SWAP2 PUSH1 0x20 ADD SWAP2 PUSH2 0x1014 JUMP JUMPDEST DUP3 ADD SWAP2 SWAP1 PUSH1 0x0 MSTORE PUSH1 0x20 PUSH1 0x0 KECCAK256 SWAP1 JUMPDEST DUP2 SLOAD DUP2 MSTORE SWAP1 PUSH1 0x1 ADD SWAP1 PUSH1 0x20 ADD DUP1 DUP4 GT PUSH2 0xFF7 JUMPI DUP3 SWAP1 SUB PUSH1 0x1F AND DUP3 ADD SWAP2 JUMPDEST POP POP POP POP POP DUP2 MSTORE PUSH1 0x20 ADD PUSH1 0x4 DUP3 ADD DUP1 SLOAD DUP1 PUSH1 0x20 MUL PUSH1 0x20 ADD PUSH1 0x40 MLOAD SWAP1 DUP2 ADD PUSH1 0x40 MSTORE DUP1 SWAP3 SWAP2 SWAP1 DUP2 DUP2 MSTORE PUSH1 0x20 ADD PUSH1 0x0 SWAP1 JUMPDEST DUP3 DUP3 LT ISZERO PUSH2 0x10EE JUMPI DUP4 DUP3 SWAP1 PUSH1 0x0 MSTORE PUSH1 0x20 PUSH1 0x0 KECCAK256 ADD DUP1 SLOAD PUSH2 0x1061 SWAP1 PUSH2 0x48E3 JUMP JUMPDEST DUP1 PUSH1 0x1F ADD PUSH1 0x20 DUP1 SWAP2 DIV MUL PUSH1 0x20 ADD PUSH1 0x40 MLOAD SWAP1 DUP2 ADD PUSH1 0x40 MSTORE DUP1 SWAP3 SWAP2 SWAP1 DUP2 DUP2 MSTORE PUSH1 0x20 ADD DUP3 DUP1 SLOAD PUSH2 0x108D SWAP1 PUSH2 0x48E3 JUMP JUMPDEST DUP1 ISZERO PUSH2 0x10DA JUMPI DUP1 PUSH1 0x1F LT PUSH2 0x10AF JUMPI PUSH2 0x100 DUP1 DUP4 SLOAD DIV MUL DUP4 MSTORE SWAP2 PUSH1 0x20 ADD SWAP2 PUSH2 0x10DA JUMP JUMPDEST DUP3 ADD SWAP2 SWAP1 PUSH1 0x0 MSTORE PUSH1 0x20 PUSH1 0x0 KECCAK256 SWAP1 JUMPDEST DUP2 SLOAD DUP2 MSTORE SWAP1 PUSH1 0x1 ADD SWAP1 PUSH1 0x20 ADD DUP1 DUP4 GT PUSH2 0x10BD JUMPI DUP3 SWAP1 SUB PUSH1 0x1F AND DUP3 ADD SWAP2 JUMPDEST POP POP POP POP POP DUP2 MSTORE PUSH1 0x20 ADD SWAP1 PUSH1 0x1 ADD SWAP1 PUSH2 0x1042 JUMP JUMPDEST POP POP POP POP DUP2 MSTORE PUSH1 0x20 ADD PUSH1 0x5 DUP3 ADD SLOAD DUP2 MSTORE POP POP DUP3 DUP3 DUP2 MLOAD DUP2 LT PUSH2 0x1112 JUMPI PUSH2 0x1112 PUSH2 0x494C JUMP JUMPDEST PUSH1 0x20 MUL PUSH1 0x20 ADD ADD DUP2 SWAP1 MSTORE POP DUP1 DUP1 PUSH2 0x1128 SWAP1 PUSH2 0x4933 JUMP JUMPDEST SWAP2 POP POP PUSH2 0xE22 JUMP JUMPDEST PUSH1 0x7 SLOAD PUSH1 0x0 SWAP1 PUSH1 0xFF AND ISZERO PUSH2 0x1144 JUMPI POP PUSH1 0x3 SWAP1 JUMP JUMPDEST TIMESTAMP PUSH1 0x4 SLOAD GT DUP1 ISZERO PUSH2 0x1156 JUMPI POP TIMESTAMP PUSH1 0x5 SLOAD GT JUMPDEST ISZERO PUSH2 0x1161 JUMPI POP PUSH1 0x0 SWAP1 JUMP JUMPDEST TIMESTAMP PUSH1 0x4 SLOAD LT DUP1 ISZERO PUSH2 0x1173 JUMPI POP TIMESTAMP PUSH1 0x5 SLOAD GT JUMPDEST ISZERO PUSH2 0x117E JUMPI POP PUSH1 0x1 SWAP1 JUMP JUMPDEST TIMESTAMP PUSH1 0x5 SLOAD LT ISZERO PUSH2 0x118C JUMPI POP PUSH1 0x2 JUMPDEST SWAP1 JUMP JUMPDEST PUSH1 0x8 SLOAD PUSH1 0x60 SWAP1 PUSH1 0x0 DUP2 PUSH1 0x1 PUSH1 0x1 PUSH1 0x40 SHL SUB DUP2 GT ISZERO PUSH2 0x11AF JUMPI PUSH2 0x11AF PUSH2 0x3E83 JUMP JUMPDEST PUSH1 0x40 MLOAD SWAP1 DUP1 DUP3 MSTORE DUP1 PUSH1 0x20 MUL PUSH1 0x20 ADD DUP3 ADD PUSH1 0x40 MSTORE DUP1 ISZERO PUSH2 0x11E2 JUMPI DUP2 PUSH1 0x20 ADD JUMPDEST PUSH1 0x60 DUP2 MSTORE PUSH1 0x20 ADD SWAP1 PUSH1 0x1 SWAP1 SUB SWAP1 DUP2 PUSH2 0x11CD JUMPI SWAP1 POP JUMPDEST POP SWAP1 POP PUSH1 0x0 JUMPDEST DUP3 DUP2 LT ISZERO PUSH2 0x630 JUMPI PUSH1 0x0 DUP2 DUP2 MSTORE PUSH1 0xB PUSH1 0x20 SWAP1 DUP2 MSTORE PUSH1 0x40 DUP1 DUP4 KECCAK256 DUP1 SLOAD DUP3 MLOAD DUP2 DUP6 MUL DUP2 ADD DUP6 ADD SWAP1 SWAP4 MSTORE DUP1 DUP4 MSTORE SWAP2 SWAP3 SWAP1 SWAP2 SWAP1 DUP5 SWAP1 DUP5 ADD JUMPDEST DUP3 DUP3 LT ISZERO PUSH2 0x1946 JUMPI DUP4 DUP3 SWAP1 PUSH1 0x0 MSTORE PUSH1 0x20 PUSH1 0x0 KECCAK256 SWAP1 PUSH1 0xA MUL ADD PUSH1 0x40 MLOAD DUP1 PUSH1 0xC0 ADD PUSH1 0x40 MSTORE SWAP1 DUP2 PUSH1 0x0 DUP3 ADD DUP1 SLOAD PUSH2 0x124F SWAP1 PUSH2 0x48E3 JUMP JUMPDEST DUP1 PUSH1 0x1F ADD PUSH1 0x20 DUP1 SWAP2 DIV MUL PUSH1 0x20 ADD PUSH1 0x40 MLOAD SWAP1 DUP2 ADD PUSH1 0x40 MSTORE DUP1 SWAP3 SWAP2 SWAP1 DUP2 DUP2 MSTORE PUSH1 0x20 ADD DUP3 DUP1 SLOAD PUSH2 0x127B SWAP1 PUSH2 0x48E3 JUMP JUMPDEST DUP1 ISZERO PUSH2 0x12C8 JUMPI DUP1 PUSH1 0x1F LT PUSH2 0x129D JUMPI PUSH2 0x100 DUP1 DUP4 SLOAD DIV MUL DUP4 MSTORE SWAP2 PUSH1 0x20 ADD SWAP2 PUSH2 0x12C8 JUMP JUMPDEST DUP3 ADD SWAP2 SWAP1 PUSH1 0x0 MSTORE PUSH1 0x20 PUSH1 0x0 KECCAK256 SWAP1 JUMPDEST DUP2 SLOAD DUP2 MSTORE SWAP1 PUSH1 0x1 ADD SWAP1 PUSH1 0x20 ADD DUP1 DUP4 GT PUSH2 0x12AB JUMPI DUP3 SWAP1 SUB PUSH1 0x1F AND DUP3 ADD SWAP2 JUMPDEST POP POP POP POP POP DUP2 MSTORE PUSH1 0x20 ADD PUSH1 0x1 DUP3 ADD DUP1 SLOAD PUSH2 0x12E1 SWAP1 PUSH2 0x48E3 JUMP JUMPDEST DUP1 PUSH1 0x1F ADD PUSH1 0x20 DUP1 SWAP2 DIV MUL PUSH1 0x20 ADD PUSH1 0x40 MLOAD SWAP1 DUP2 ADD PUSH1 0x40 MSTORE DUP1 SWAP3 SWAP2 SWAP1 DUP2 DUP2 MSTORE PUSH1 0x20 ADD DUP3 DUP1 SLOAD PUSH2 0x130D SWAP1 PUSH2 0x48E3 JUMP JUMPDEST DUP1 ISZERO PUSH2 0x135A JUMPI DUP1 PUSH1 0x1F LT PUSH2 0x132F JUMPI PUSH2 0x100 DUP1 DUP4 SLOAD DIV MUL DUP4 MSTORE SWAP2 PUSH1 0x20 ADD SWAP2 PUSH2 0x135A JUMP JUMPDEST DUP3 ADD SWAP2 SWAP1 PUSH1 0x0 MSTORE PUSH1 0x20 PUSH1 0x0 KECCAK256 SWAP1 JUMPDEST DUP2 SLOAD DUP2 MSTORE SWAP1 PUSH1 0x1 ADD SWAP1 PUSH1 0x20 ADD DUP1 DUP4 GT PUSH2 0x133D JUMPI DUP3 SWAP1 SUB PUSH1 0x1F AND DUP3 ADD SWAP2 JUMPDEST POP POP POP POP POP DUP2 MSTORE PUSH1 0x20 ADD PUSH1 0x2 DUP3 ADD PUSH1 0x40 MLOAD DUP1 PUSH1 0x60 ADD PUSH1 0x40 MSTORE SWAP1 DUP2 PUSH1 0x0 DUP3 ADD DUP1 SLOAD DUP1 PUSH1 0x20 MUL PUSH1 0x20 ADD PUSH1 0x40 MLOAD SWAP1 DUP2 ADD PUSH1 0x40 MSTORE DUP1 SWAP3 SWAP2 SWAP1 DUP2 DUP2 MSTORE PUSH1 0x20 ADD PUSH1 0x0 SWAP1 JUMPDEST DUP3 DUP3 LT ISZERO PUSH2 0x1444 JUMPI DUP4 DUP3 SWAP1 PUSH1 0x0 MSTORE PUSH1 0x20 PUSH1 0x0 KECCAK256 ADD DUP1 SLOAD PUSH2 0x13B7 SWAP1 PUSH2 0x48E3 JUMP JUMPDEST DUP1 PUSH1 0x1F ADD PUSH1 0x20 DUP1 SWAP2 DIV MUL PUSH1 0x20 ADD PUSH1 0x40 MLOAD SWAP1 DUP2 ADD PUSH1 0x40 MSTORE DUP1 SWAP3 SWAP2 SWAP1 DUP2 DUP2 MSTORE PUSH1 0x20 ADD DUP3 DUP1 SLOAD PUSH2 0x13E3 SWAP1 PUSH2 0x48E3 JUMP JUMPDEST DUP1 ISZERO PUSH2 0x1430 JUMPI DUP1 PUSH1 0x1F LT PUSH2 0x1405 JUMPI PUSH2 0x100 DUP1 DUP4 SLOAD DIV MUL DUP4 MSTORE SWAP2 PUSH1 0x20 ADD SWAP2 PUSH2 0x1430 JUMP JUMPDEST DUP3 ADD SWAP2 SWAP1 PUSH1 0x0 MSTORE PUSH1 0x20 PUSH1 0x0 KECCAK256 SWAP1 JUMPDEST DUP2 SLOAD DUP2 MSTORE SWAP1 PUSH1 0x1 ADD SWAP1 PUSH1 0x20 ADD DUP1 DUP4 GT PUSH2 0x1413 JUMPI DUP3 SWAP1 SUB PUSH1 0x1F AND DUP3 ADD SWAP2 JUMPDEST POP POP POP POP POP DUP2 MSTORE PUSH1 0x20 ADD SWAP1 PUSH1 0x1 ADD SWAP1 PUSH2 0x1398 JUMP JUMPDEST POP POP POP POP DUP2 MSTORE PUSH1 0x20 ADD PUSH1 0x1 DUP3 ADD DUP1 SLOAD DUP1 PUSH1 0x20 MUL PUSH1 0x20 ADD PUSH1 0x40 MLOAD SWAP1 DUP2 ADD PUSH1 0x40 MSTORE DUP1 SWAP3 SWAP2 SWAP1 DUP2 DUP2 MSTORE PUSH1 0x20 ADD PUSH1 0x0 SWAP1 JUMPDEST DUP3 DUP3 LT ISZERO PUSH2 0x151D JUMPI DUP4 DUP3 SWAP1 PUSH1 0x0 MSTORE PUSH1 0x20 PUSH1 0x0 KECCAK256 ADD DUP1 SLOAD PUSH2 0x1490 SWAP1 PUSH2 0x48E3 JUMP JUMPDEST DUP1 PUSH1 0x1F ADD PUSH1 0x20 DUP1 SWAP2 DIV MUL PUSH1 0x20 ADD PUSH1 0x40 MLOAD SWAP1 DUP2 ADD PUSH1 0x40 MSTORE DUP1 SWAP3 SWAP2 SWAP1 DUP2 DUP2 MSTORE PUSH1 0x20 ADD DUP3 DUP1 SLOAD PUSH2 0x14BC SWAP1 PUSH2 0x48E3 JUMP JUMPDEST DUP1 ISZERO PUSH2 0x1509 JUMPI DUP1 PUSH1 0x1F LT PUSH2 0x14DE JUMPI PUSH2 0x100 DUP1 DUP4 SLOAD DIV MUL DUP4 MSTORE SWAP2 PUSH1 0x20 ADD SWAP2 PUSH2 0x1509 JUMP JUMPDEST DUP3 ADD SWAP2 SWAP1 PUSH1 0x0 MSTORE PUSH1 0x20 PUSH1 0x0 KECCAK256 SWAP1 JUMPDEST DUP2 SLOAD DUP2 MSTORE SWAP1 PUSH1 0x1 ADD SWAP1 PUSH1 0x20 ADD DUP1 DUP4 GT PUSH2 0x14EC JUMPI DUP3 SWAP1 SUB PUSH1 0x1F AND DUP3 ADD SWAP2 JUMPDEST POP POP POP POP POP DUP2 MSTORE PUSH1 0x20 ADD SWAP1 PUSH1 0x1 ADD SWAP1 PUSH2 0x1471 JUMP JUMPDEST POP POP POP POP DUP2 MSTORE PUSH1 0x20 ADD PUSH1 0x2 DUP3 ADD DUP1 SLOAD DUP1 PUSH1 0x20 MUL PUSH1 0x20 ADD PUSH1 0x40 MLOAD SWAP1 DUP2 ADD PUSH1 0x40 MSTORE DUP1 SWAP3 SWAP2 SWAP1 DUP2 DUP2 MSTORE PUSH1 0x20 ADD PUSH1 0x0 SWAP1 JUMPDEST DUP3 DUP3 LT ISZERO PUSH2 0x15F6 JUMPI DUP4 DUP3 SWAP1 PUSH1 0x0 MSTORE PUSH1 0x20 PUSH1 0x0 KECCAK256 ADD DUP1 SLOAD PUSH2 0x1569 SWAP1 PUSH2 0x48E3 JUMP JUMPDEST DUP1 PUSH1 0x1F ADD PUSH1 0x20 DUP1 SWAP2 DIV MUL PUSH1 0x20 ADD PUSH1 0x40 MLOAD SWAP1 DUP2 ADD PUSH1 0x40 MSTORE DUP1 SWAP3 SWAP2 SWAP1 DUP2 DUP2 MSTORE PUSH1 0x20 ADD DUP3 DUP1 SLOAD PUSH2 0x1595 SWAP1 PUSH2 0x48E3 JUMP JUMPDEST DUP1 ISZERO PUSH2 0x15E2 JUMPI DUP1 PUSH1 0x1F LT PUSH2 0x15B7 JUMPI PUSH2 0x100 DUP1 DUP4 SLOAD DIV MUL DUP4 MSTORE SWAP2 PUSH1 0x20 ADD SWAP2 PUSH2 0x15E2 JUMP JUMPDEST DUP3 ADD SWAP2 SWAP1 PUSH1 0x0 MSTORE PUSH1 0x20 PUSH1 0x0 KECCAK256 SWAP1 JUMPDEST DUP2 SLOAD DUP2 MSTORE SWAP1 PUSH1 0x1 ADD SWAP1 PUSH1 0x20 ADD DUP1 DUP4 GT PUSH2 0x15C5 JUMPI DUP3 SWAP1 SUB PUSH1 0x1F AND DUP3 ADD SWAP2 JUMPDEST POP POP POP POP POP DUP2 MSTORE PUSH1 0x20 ADD SWAP1 PUSH1 0x1 ADD SWAP1 PUSH2 0x154A JUMP JUMPDEST POP POP POP POP DUP2 MSTORE POP POP DUP2 MSTORE PUSH1 0x20 ADD PUSH1 0x5 DUP3 ADD PUSH1 0x40 MLOAD DUP1 PUSH1 0x60 ADD PUSH1 0x40 MSTORE SWAP1 DUP2 PUSH1 0x0 DUP3 ADD DUP1 SLOAD PUSH2 0x1622 SWAP1 PUSH2 0x48E3 JUMP JUMPDEST DUP1 PUSH1 0x1F ADD PUSH1 0x20 DUP1 SWAP2 DIV MUL PUSH1 0x20 ADD PUSH1 0x40 MLOAD SWAP1 DUP2 ADD PUSH1 0x40 MSTORE DUP1 SWAP3 SWAP2 SWAP1 DUP2 DUP2 MSTORE PUSH1 0x20 ADD DUP3 DUP1 SLOAD PUSH2 0x164E SWAP1 PUSH2 0x48E3 JUMP JUMPDEST DUP1 ISZERO PUSH2 0x169B JUMPI DUP1 PUSH1 0x1F LT PUSH2 0x1670 JUMPI PUSH2 0x100 DUP1 DUP4 SLOAD DIV MUL DUP4 MSTORE SWAP2 PUSH1 0x20 ADD SWAP2 PUSH2 0x169B JUMP JUMPDEST DUP3 ADD SWAP2 SWAP1 PUSH1 0x0 MSTORE PUSH1 0x20 PUSH1 0x0 KECCAK256 SWAP1 JUMPDEST DUP2 SLOAD DUP2 MSTORE SWAP1 PUSH1 0x1 ADD SWAP1 PUSH1 0x20 ADD DUP1 DUP4 GT PUSH2 0x167E JUMPI DUP3 SWAP1 SUB PUSH1 0x1F AND DUP3 ADD SWAP2 JUMPDEST POP POP POP POP POP DUP2 MSTORE PUSH1 0x20 ADD PUSH1 0x1 DUP3 ADD DUP1 SLOAD PUSH2 0x16B4 SWAP1 PUSH2 0x48E3 JUMP JUMPDEST DUP1 PUSH1 0x1F ADD PUSH1 0x20 DUP1 SWAP2 DIV MUL PUSH1 0x20 ADD PUSH1 0x40 MLOAD SWAP1 DUP2 ADD PUSH1 0x40 MSTORE DUP1 SWAP3 SWAP2 SWAP1 DUP2 DUP2 MSTORE PUSH1 0x20 ADD DUP3 DUP1 SLOAD PUSH2 0x16E0 SWAP1 PUSH2 0x48E3 JUMP JUMPDEST DUP1 ISZERO PUSH2 0x172D JUMPI DUP1 PUSH1 0x1F LT PUSH2 0x1702 JUMPI PUSH2 0x100 DUP1 DUP4 SLOAD DIV MUL DUP4 MSTORE SWAP2 PUSH1 0x20 ADD SWAP2 PUSH2 0x172D JUMP JUMPDEST DUP3 ADD SWAP2 SWAP1 PUSH1 0x0 MSTORE PUSH1 0x20 PUSH1 0x0 KECCAK256 SWAP1 JUMPDEST DUP2 SLOAD DUP2 MSTORE SWAP1 PUSH1 0x1 ADD SWAP1 PUSH1 0x20 ADD DUP1 DUP4 GT PUSH2 0x1710 JUMPI DUP3 SWAP1 SUB PUSH1 0x1F AND DUP3 ADD SWAP2 JUMPDEST POP POP POP POP POP DUP2 MSTORE PUSH1 0x20 ADD PUSH1 0x2 DUP3 ADD DUP1 SLOAD DUP1 PUSH1 0x20 MUL PUSH1 0x20 ADD PUSH1 0x40 MLOAD SWAP1 DUP2 ADD PUSH1 0x40 MSTORE DUP1 SWAP3 SWAP2 SWAP1 DUP2 DUP2 MSTORE PUSH1 0x20 ADD PUSH1 0x0 SWAP1 JUMPDEST DUP3 DUP3 LT ISZERO PUSH2 0x1807 JUMPI DUP4 DUP3 SWAP1 PUSH1 0x0 MSTORE PUSH1 0x20 PUSH1 0x0 KECCAK256 ADD DUP1 SLOAD PUSH2 0x177A SWAP1 PUSH2 0x48E3 JUMP JUMPDEST DUP1 PUSH1 0x1F ADD PUSH1 0x20 DUP1 SWAP2 DIV MUL PUSH1 0x20 ADD PUSH1 0x40 MLOAD SWAP1 DUP2 ADD PUSH1 0x40 MSTORE DUP1 SWAP3 SWAP2 SWAP1 DUP2 DUP2 MSTORE PUSH1 0x20 ADD DUP3 DUP1 SLOAD PUSH2 0x17A6 SWAP1 PUSH2 0x48E3 JUMP JUMPDEST DUP1 ISZERO PUSH2 0x17F3 JUMPI DUP1 PUSH1 0x1F LT PUSH2 0x17C8 JUMPI PUSH2 0x100 DUP1 DUP4 SLOAD DIV MUL DUP4 MSTORE SWAP2 PUSH1 0x20 ADD SWAP2 PUSH2 0x17F3 JUMP JUMPDEST DUP3 ADD SWAP2 SWAP1 PUSH1 0x0 MSTORE PUSH1 0x20 PUSH1 0x0 KECCAK256 SWAP1 JUMPDEST DUP2 SLOAD DUP2 MSTORE SWAP1 PUSH1 0x1 ADD SWAP1 PUSH1 0x20 ADD DUP1 DUP4 GT PUSH2 0x17D6 JUMPI DUP3 SWAP1 SUB PUSH1 0x1F AND DUP3 ADD SWAP2 JUMPDEST POP POP POP POP POP DUP2 MSTORE PUSH1 0x20 ADD SWAP1 PUSH1 0x1 ADD SWAP1 PUSH2 0x175B JUMP JUMPDEST POP POP POP POP DUP2 MSTORE POP POP DUP2 MSTORE PUSH1 0x20 ADD PUSH1 0x8 DUP3 ADD DUP1 SLOAD PUSH2 0x1823 SWAP1 PUSH2 0x48E3 JUMP JUMPDEST DUP1 PUSH1 0x1F ADD PUSH1 0x20 DUP1 SWAP2 DIV MUL PUSH1 0x20 ADD PUSH1 0x40 MLOAD SWAP1 DUP2 ADD PUSH1 0x40 MSTORE DUP1 SWAP3 SWAP2 SWAP1 DUP2 DUP2 MSTORE PUSH1 0x20 ADD DUP3 DUP1 SLOAD PUSH2 0x184F SWAP1 PUSH2 0x48E3 JUMP JUMPDEST DUP1 ISZERO PUSH2 0x189C JUMPI DUP1 PUSH1 0x1F LT PUSH2 0x1871 JUMPI PUSH2 0x100 DUP1 DUP4 SLOAD DIV MUL DUP4 MSTORE SWAP2 PUSH1 0x20 ADD SWAP2 PUSH2 0x189C JUMP JUMPDEST DUP3 ADD SWAP2 SWAP1 PUSH1 0x0 MSTORE PUSH1 0x20 PUSH1 0x0 KECCAK256 SWAP1 JUMPDEST DUP2 SLOAD DUP2 MSTORE SWAP1 PUSH1 0x1 ADD SWAP1 PUSH1 0x20 ADD DUP1 DUP4 GT PUSH2 0x187F JUMPI DUP3 SWAP1 SUB PUSH1 0x1F AND DUP3 ADD SWAP2 JUMPDEST POP POP POP POP POP DUP2 MSTORE PUSH1 0x20 ADD PUSH1 0x9 DUP3 ADD DUP1 SLOAD PUSH2 0x18B5 SWAP1 PUSH2 0x48E3 JUMP JUMPDEST DUP1 PUSH1 0x1F ADD PUSH1 0x20 DUP1 SWAP2 DIV MUL PUSH1 0x20 ADD PUSH1 0x40 MLOAD SWAP1 DUP2 ADD PUSH1 0x40 MSTORE DUP1 SWAP3 SWAP2 SWAP1 DUP2 DUP2 MSTORE PUSH1 0x20 ADD DUP3 DUP1 SLOAD PUSH2 0x18E1 SWAP1 PUSH2 0x48E3 JUMP JUMPDEST DUP1 ISZERO PUSH2 0x192E JUMPI DUP1 PUSH1 0x1F LT PUSH2 0x1903 JUMPI PUSH2 0x100 DUP1 DUP4 SLOAD DIV MUL DUP4 MSTORE SWAP2 PUSH1 0x20 ADD SWAP2 PUSH2 0x192E JUMP JUMPDEST DUP3 ADD SWAP2 SWAP1 PUSH1 0x0 MSTORE PUSH1 0x20 PUSH1 0x0 KECCAK256 SWAP1 JUMPDEST DUP2 SLOAD DUP2 MSTORE SWAP1 PUSH1 0x1 ADD SWAP1 PUSH1 0x20 ADD DUP1 DUP4 GT PUSH2 0x1911 JUMPI DUP3 SWAP1 SUB PUSH1 0x1F AND DUP3 ADD SWAP2 JUMPDEST POP POP POP POP POP DUP2 MSTORE POP POP DUP2 MSTORE PUSH1 0x20 ADD SWAP1 PUSH1 0x1 ADD SWAP1 PUSH2 0x121C JUMP JUMPDEST POP POP POP POP SWAP1 POP PUSH1 0x0 DUP2 MLOAD SWAP1 POP PUSH1 0x0 DUP2 PUSH1 0x1 PUSH1 0x1 PUSH1 0x40 SHL SUB DUP2 GT ISZERO PUSH2 0x196C JUMPI PUSH2 0x196C PUSH2 0x3E83 JUMP JUMPDEST PUSH1 0x40 MLOAD SWAP1 DUP1 DUP3 MSTORE DUP1 PUSH1 0x20 MUL PUSH1 0x20 ADD DUP3 ADD PUSH1 0x40 MSTORE DUP1 ISZERO PUSH2 0x19A5 JUMPI DUP2 PUSH1 0x20 ADD JUMPDEST PUSH2 0x1992 PUSH2 0x37D7 JUMP JUMPDEST DUP2 MSTORE PUSH1 0x20 ADD SWAP1 PUSH1 0x1 SWAP1 SUB SWAP1 DUP2 PUSH2 0x198A JUMPI SWAP1 POP JUMPDEST POP SWAP1 POP PUSH1 0x0 JUMPDEST DUP3 DUP2 LT ISZERO PUSH2 0x19FD JUMPI DUP4 DUP2 DUP2 MLOAD DUP2 LT PUSH2 0x19C5 JUMPI PUSH2 0x19C5 PUSH2 0x494C JUMP JUMPDEST PUSH1 0x20 MUL PUSH1 0x20 ADD ADD MLOAD DUP3 DUP3 DUP2 MLOAD DUP2 LT PUSH2 0x19DF JUMPI PUSH2 0x19DF PUSH2 0x494C JUMP JUMPDEST PUSH1 0x20 MUL PUSH1 0x20 ADD ADD DUP2 SWAP1 MSTORE POP DUP1 DUP1 PUSH2 0x19F5 SWAP1 PUSH2 0x4933 JUMP JUMPDEST SWAP2 POP POP PUSH2 0x19AB JUMP JUMPDEST POP DUP1 DUP6 DUP6 DUP2 MLOAD DUP2 LT PUSH2 0x1A11 JUMPI PUSH2 0x1A11 PUSH2 0x494C JUMP JUMPDEST PUSH1 0x20 MUL PUSH1 0x20 ADD ADD DUP2 SWAP1 MSTORE POP POP POP POP DUP1 DUP1 PUSH2 0x1A2A SWAP1 PUSH2 0x4933 JUMP JUMPDEST SWAP2 POP POP PUSH2 0x11E8 JUMP JUMPDEST PUSH1 0x3 SLOAD PUSH1 0x1 PUSH1 0x1 PUSH1 0xA0 SHL SUB AND CALLER EQ PUSH2 0x1A84 JUMPI PUSH1 0x40 MLOAD PUSH3 0x461BCD PUSH1 0xE5 SHL DUP2 MSTORE PUSH1 0x20 PUSH1 0x4 DUP3 ADD MSTORE PUSH1 0x15 PUSH1 0x24 DUP3 ADD MSTORE PUSH21 0x2CB7BA9030B932903737BA1030B71020B236B4B717 PUSH1 0x59 SHL PUSH1 0x44 DUP3 ADD MSTORE PUSH1 0x64 ADD PUSH2 0x418 JUMP JUMPDEST PUSH1 0x0 PUSH2 0x1A8E PUSH2 0x1130 JUMP JUMPDEST PUSH1 0x3 DUP2 GT ISZERO PUSH2 0x1A9F JUMPI PUSH2 0x1A9F PUSH2 0x3DD5 JUMP JUMPDEST EQ PUSH2 0x1B01 JUMPI PUSH1 0x40 MLOAD PUSH3 0x461BCD PUSH1 0xE5 SHL DUP2 MSTORE PUSH1 0x20 PUSH1 0x4 DUP3 ADD MSTORE PUSH1 0x2C PUSH1 0x24 DUP3 ADD MSTORE PUSH32 0x54686520766F74696E672068617320616C72656164792073746172746564206F PUSH1 0x44 DUP3 ADD MSTORE PUSH12 0x39103430B99032B73232B217 PUSH1 0xA1 SHL PUSH1 0x64 DUP3 ADD MSTORE PUSH1 0x84 ADD PUSH2 0x418 JUMP JUMPDEST DUP4 MLOAD PUSH1 0x1 SWAP1 PUSH2 0x1B10 SWAP1 DUP3 PUSH2 0x49B1 JUMP JUMPDEST POP PUSH1 0x20 DUP5 ADD MLOAD PUSH1 0x2 SWAP1 PUSH2 0x1B23 SWAP1 DUP3 PUSH2 0x49B1 JUMP JUMPDEST POP PUSH1 0x40 DUP5 ADD MLOAD PUSH1 0x4 SSTORE PUSH1 0x60 DUP5 ADD MLOAD PUSH1 0x5 SSTORE PUSH2 0x1B3D DUP4 PUSH2 0x32C9 JUMP JUMPDEST PUSH2 0x1B46 DUP3 PUSH2 0x33CB JUMP JUMPDEST PUSH2 0x1B4F DUP2 PUSH2 0x357D JUMP JUMPDEST PUSH1 0x40 MLOAD PUSH32 0x66C71B14043393C3FB92F9EAAE32E02D8AFF3371C3810C2C2D2743A8E6623248 SWAP1 PUSH1 0x0 SWAP1 LOG1 POP POP POP POP JUMP JUMPDEST PUSH1 0x8 DUP2 DUP2 SLOAD DUP2 LT PUSH2 0x1B8E JUMPI PUSH1 0x0 DUP1 REVERT JUMPDEST PUSH1 0x0 SWAP2 DUP3 MSTORE PUSH1 0x20 SWAP1 SWAP2 KECCAK256 PUSH1 0x6 SWAP1 SWAP2 MUL ADD DUP1 SLOAD PUSH1 0x1 DUP3 ADD DUP1 SLOAD PUSH1 0xFF SWAP1 SWAP3 AND SWAP4 POP SWAP1 PUSH2 0x1BB7 SWAP1 PUSH2 0x48E3 JUMP JUMPDEST DUP1 PUSH1 0x1F ADD PUSH1 0x20 DUP1 SWAP2 DIV MUL PUSH1 0x20 ADD PUSH1 0x40 MLOAD SWAP1 DUP2 ADD PUSH1 0x40 MSTORE DUP1 SWAP3 SWAP2 SWAP1 DUP2 DUP2 MSTORE PUSH1 0x20 ADD DUP3 DUP1 SLOAD PUSH2 0x1BE3 SWAP1 PUSH2 0x48E3 JUMP JUMPDEST DUP1 ISZERO PUSH2 0x1C30 JUMPI DUP1 PUSH1 0x1F LT PUSH2 0x1C05 JUMPI PUSH2 0x100 DUP1 DUP4 SLOAD DIV MUL DUP4 MSTORE SWAP2 PUSH1 0x20 ADD SWAP2 PUSH2 0x1C30 JUMP JUMPDEST DUP3 ADD SWAP2 SWAP1 PUSH1 0x0 MSTORE PUSH1 0x20 PUSH1 0x0 KECCAK256 SWAP1 JUMPDEST DUP2 SLOAD DUP2 MSTORE SWAP1 PUSH1 0x1 ADD SWAP1 PUSH1 0x20 ADD DUP1 DUP4 GT PUSH2 0x1C13 JUMPI DUP3 SWAP1 SUB PUSH1 0x1F AND DUP3 ADD SWAP2 JUMPDEST POP POP POP POP POP SWAP1 DUP1 PUSH1 0x2 ADD DUP1 SLOAD PUSH2 0x1C45 SWAP1 PUSH2 0x48E3 JUMP JUMPDEST DUP1 PUSH1 0x1F ADD PUSH1 0x20 DUP1 SWAP2 DIV MUL PUSH1 0x20 ADD PUSH1 0x40 MLOAD SWAP1 DUP2 ADD PUSH1 0x40 MSTORE DUP1 SWAP3 SWAP2 SWAP1 DUP2 DUP2 MSTORE PUSH1 0x20 ADD DUP3 DUP1 SLOAD PUSH2 0x1C71 SWAP1 PUSH2 0x48E3 JUMP JUMPDEST DUP1 ISZERO PUSH2 0x1CBE JUMPI DUP1 PUSH1 0x1F LT PUSH2 0x1C93 JUMPI PUSH2 0x100 DUP1 DUP4 SLOAD DIV MUL DUP4 MSTORE SWAP2 PUSH1 0x20 ADD SWAP2 PUSH2 0x1CBE JUMP JUMPDEST DUP3 ADD SWAP2 SWAP1 PUSH1 0x0 MSTORE PUSH1 0x20 PUSH1 0x0 KECCAK256 SWAP1 JUMPDEST DUP2 SLOAD DUP2 MSTORE SWAP1 PUSH1 0x1 ADD SWAP1 PUSH1 0x20 ADD DUP1 DUP4 GT PUSH2 0x1CA1 JUMPI DUP3 SWAP1 SUB PUSH1 0x1F AND DUP3 ADD SWAP2 JUMPDEST POP POP POP POP POP SWAP1 DUP1 PUSH1 0x3 ADD DUP1 SLOAD PUSH2 0x1CD3 SWAP1 PUSH2 0x48E3 JUMP JUMPDEST DUP1 PUSH1 0x1F ADD PUSH1 0x20 DUP1 SWAP2 DIV MUL PUSH1 0x20 ADD PUSH1 0x40 MLOAD SWAP1 DUP2 ADD PUSH1 0x40 MSTORE DUP1 SWAP3 SWAP2 SWAP1 DUP2 DUP2 MSTORE PUSH1 0x20 ADD DUP3 DUP1 SLOAD PUSH2 0x1CFF SWAP1 PUSH2 0x48E3 JUMP JUMPDEST DUP1 ISZERO PUSH2 0x1D4C JUMPI DUP1 PUSH1 0x1F LT PUSH2 0x1D21 JUMPI PUSH2 0x100 DUP1 DUP4 SLOAD DIV MUL DUP4 MSTORE SWAP2 PUSH1 0x20 ADD SWAP2 PUSH2 0x1D4C JUMP JUMPDEST DUP3 ADD SWAP2 SWAP1 PUSH1 0x0 MSTORE PUSH1 0x20 PUSH1 0x0 KECCAK256 SWAP1 JUMPDEST DUP2 SLOAD DUP2 MSTORE SWAP1 PUSH1 0x1 ADD SWAP1 PUSH1 0x20 ADD DUP1 DUP4 GT PUSH2 0x1D2F JUMPI DUP3 SWAP1 SUB PUSH1 0x1F AND DUP3 ADD SWAP2 JUMPDEST POP POP POP POP POP SWAP1 DUP1 PUSH1 0x5 ADD SLOAD SWAP1 POP DUP6 JUMP JUMPDEST PUSH1 0x0 PUSH1 0x60 DUP1 PUSH1 0x0 DUP1 PUSH1 0x0 DUP1 PUSH1 0x0 PUSH1 0x60 PUSH1 0x3 PUSH1 0x0 SWAP1 SLOAD SWAP1 PUSH2 0x100 EXP SWAP1 DIV PUSH1 0x1 PUSH1 0x1 PUSH1 0xA0 SHL SUB AND SWAP9 POP PUSH1 0x1 DUP1 SLOAD PUSH2 0x1D90 SWAP1 PUSH2 0x48E3 JUMP JUMPDEST DUP1 PUSH1 0x1F ADD PUSH1 0x20 DUP1 SWAP2 DIV MUL PUSH1 0x20 ADD PUSH1 0x40 MLOAD SWAP1 DUP2 ADD PUSH1 0x40 MSTORE DUP1 SWAP3 SWAP2 SWAP1 DUP2 DUP2 MSTORE PUSH1 0x20 ADD DUP3 DUP1 SLOAD PUSH2 0x1DBC SWAP1 PUSH2 0x48E3 JUMP JUMPDEST DUP1 ISZERO PUSH2 0x1E09 JUMPI DUP1 PUSH1 0x1F LT PUSH2 0x1DDE JUMPI PUSH2 0x100 DUP1 DUP4 SLOAD DIV MUL DUP4 MSTORE SWAP2 PUSH1 0x20 ADD SWAP2 PUSH2 0x1E09 JUMP JUMPDEST DUP3 ADD SWAP2 SWAP1 PUSH1 0x0 MSTORE PUSH1 0x20 PUSH1 0x0 KECCAK256 SWAP1 JUMPDEST DUP2 SLOAD DUP2 MSTORE SWAP1 PUSH1 0x1 ADD SWAP1 PUSH1 0x20 ADD DUP1 DUP4 GT PUSH2 0x1DEC JUMPI DUP3 SWAP1 SUB PUSH1 0x1F AND DUP3 ADD SWAP2 JUMPDEST POP POP POP POP POP SWAP8 POP PUSH1 0x2 DUP1 SLOAD PUSH2 0x1E1D SWAP1 PUSH2 0x48E3 JUMP JUMPDEST DUP1 PUSH1 0x1F ADD PUSH1 0x20 DUP1 SWAP2 DIV MUL PUSH1 0x20 ADD PUSH1 0x40 MLOAD SWAP1 DUP2 ADD PUSH1 0x40 MSTORE DUP1 SWAP3 SWAP2 SWAP1 DUP2 DUP2 MSTORE PUSH1 0x20 ADD DUP3 DUP1 SLOAD PUSH2 0x1E49 SWAP1 PUSH2 0x48E3 JUMP JUMPDEST DUP1 ISZERO PUSH2 0x1E96 JUMPI DUP1 PUSH1 0x1F LT PUSH2 0x1E6B JUMPI PUSH2 0x100 DUP1 DUP4 SLOAD DIV MUL DUP4 MSTORE SWAP2 PUSH1 0x20 ADD SWAP2 PUSH2 0x1E96 JUMP JUMPDEST DUP3 ADD SWAP2 SWAP1 PUSH1 0x0 MSTORE PUSH1 0x20 PUSH1 0x0 KECCAK256 SWAP1 JUMPDEST DUP2 SLOAD DUP2 MSTORE SWAP1 PUSH1 0x1 ADD SWAP1 PUSH1 0x20 ADD DUP1 DUP4 GT PUSH2 0x1E79 JUMPI DUP3 SWAP1 SUB PUSH1 0x1F AND DUP3 ADD SWAP2 JUMPDEST POP POP POP POP POP SWAP7 POP PUSH2 0x1EA5 PUSH2 0x1130 JUMP JUMPDEST SWAP6 POP PUSH1 0x4 SLOAD SWAP5 POP PUSH1 0x5 SLOAD SWAP4 POP PUSH1 0x6 SLOAD SWAP3 POP PUSH1 0x0 SLOAD SWAP2 POP PUSH2 0x1EC3 PUSH2 0xD8F JUMP JUMPDEST SWAP1 POP SWAP1 SWAP2 SWAP3 SWAP4 SWAP5 SWAP6 SWAP7 SWAP8 SWAP9 JUMP JUMPDEST PUSH1 0xB PUSH1 0x20 MSTORE PUSH32 0xDF7DE25B7F1FD6D0B5205F0E18F1F35BD7B8D84CCE336588D184533CE43A6F76 DUP1 SLOAD PUSH1 0x1 DUP2 ADD DUP3 SSTORE PUSH1 0x0 SWAP2 SWAP1 SWAP2 MSTORE DUP2 MLOAD DUP3 SWAP2 PUSH1 0xA MUL PUSH32 0x4335E144CD35056E5B3AEBD10C5E62566E9AF1617088F92A0F803BF15715D84A ADD SWAP1 DUP2 SWAP1 PUSH2 0x1F3A SWAP1 DUP3 PUSH2 0x49B1 JUMP JUMPDEST POP PUSH1 0x20 DUP3 ADD MLOAD PUSH1 0x1 DUP3 ADD SWAP1 PUSH2 0x1F4F SWAP1 DUP3 PUSH2 0x49B1 JUMP JUMPDEST POP PUSH1 0x40 DUP3 ADD MLOAD DUP1 MLOAD DUP1 MLOAD PUSH1 0x2 DUP5 ADD SWAP2 PUSH2 0x1F6D SWAP2 DUP4 SWAP2 PUSH1 0x20 ADD SWAP1 PUSH2 0x3851 JUMP JUMPDEST POP PUSH1 0x20 DUP3 DUP2 ADD MLOAD DUP1 MLOAD PUSH2 0x1F86 SWAP3 PUSH1 0x1 DUP6 ADD SWAP3 ADD SWAP1 PUSH2 0x3851 JUMP JUMPDEST POP PUSH1 0x40 DUP3 ADD MLOAD DUP1 MLOAD PUSH2 0x1FA2 SWAP2 PUSH1 0x2 DUP5 ADD SWAP2 PUSH1 0x20 SWAP1 SWAP2 ADD SWAP1 PUSH2 0x3851 JUMP JUMPDEST POP POP POP PUSH1 0x60 DUP3 ADD MLOAD DUP1 MLOAD PUSH1 0x5 DUP4 ADD SWAP1 DUP2 SWAP1 PUSH2 0x1FBD SWAP1 DUP3 PUSH2 0x49B1 JUMP JUMPDEST POP PUSH1 0x20 DUP3 ADD MLOAD PUSH1 0x1 DUP3 ADD SWAP1 PUSH2 0x1FD2 SWAP1 DUP3 PUSH2 0x49B1 JUMP JUMPDEST POP PUSH1 0x40 DUP3 ADD MLOAD DUP1 MLOAD PUSH2 0x1FEE SWAP2 PUSH1 0x2 DUP5 ADD SWAP2 PUSH1 0x20 SWAP1 SWAP2 ADD SWAP1 PUSH2 0x3851 JUMP JUMPDEST POP POP POP PUSH1 0x80 DUP3 ADD MLOAD PUSH1 0x8 DUP3 ADD SWAP1 PUSH2 0x2005 SWAP1 DUP3 PUSH2 0x49B1 JUMP JUMPDEST POP PUSH1 0xA0 DUP3 ADD MLOAD PUSH1 0x9 DUP3 ADD SWAP1 PUSH2 0x201A SWAP1 DUP3 PUSH2 0x49B1 JUMP JUMPDEST POP POP PUSH1 0x40 MLOAD PUSH32 0x64E5B0178E6F7AC2B1D7103882FD082322122FC630637AFE744C584F727FFA90 SWAP2 POP PUSH1 0x0 SWAP1 LOG1 POP JUMP JUMPDEST PUSH1 0xB PUSH1 0x20 MSTORE DUP2 PUSH1 0x0 MSTORE PUSH1 0x40 PUSH1 0x0 KECCAK256 DUP2 DUP2 SLOAD DUP2 LT PUSH2 0x2065 JUMPI PUSH1 0x0 DUP1 REVERT JUMPDEST SWAP1 PUSH1 0x0 MSTORE PUSH1 0x20 PUSH1 0x0 KECCAK256 SWAP1 PUSH1 0xA MUL ADD PUSH1 0x0 SWAP2 POP SWAP2 POP POP DUP1 PUSH1 0x0 ADD DUP1 SLOAD PUSH2 0x2089 SWAP1 PUSH2 0x48E3 JUMP JUMPDEST DUP1 PUSH1 0x1F ADD PUSH1 0x20 DUP1 SWAP2 DIV MUL PUSH1 0x20 ADD PUSH1 0x40 MLOAD SWAP1 DUP2 ADD PUSH1 0x40 MSTORE DUP1 SWAP3 SWAP2 SWAP1 DUP2 DUP2 MSTORE PUSH1 0x20 ADD DUP3 DUP1 SLOAD PUSH2 0x20B5 SWAP1 PUSH2 0x48E3 JUMP JUMPDEST DUP1 ISZERO PUSH2 0x2102 JUMPI DUP1 PUSH1 0x1F LT PUSH2 0x20D7 JUMPI PUSH2 0x100 DUP1 DUP4 SLOAD DIV MUL DUP4 MSTORE SWAP2 PUSH1 0x20 ADD SWAP2 PUSH2 0x2102 JUMP JUMPDEST DUP3 ADD SWAP2 SWAP1 PUSH1 0x0 MSTORE PUSH1 0x20 PUSH1 0x0 KECCAK256 SWAP1 JUMPDEST DUP2 SLOAD DUP2 MSTORE SWAP1 PUSH1 0x1 ADD SWAP1 PUSH1 0x20 ADD DUP1 DUP4 GT PUSH2 0x20E5 JUMPI DUP3 SWAP1 SUB PUSH1 0x1F AND DUP3 ADD SWAP2 JUMPDEST POP POP POP POP POP SWAP1 DUP1 PUSH1 0x1 ADD DUP1 SLOAD PUSH2 0x2117 SWAP1 PUSH2 0x48E3 JUMP JUMPDEST DUP1 PUSH1 0x1F ADD PUSH1 0x20 DUP1 SWAP2 DIV MUL PUSH1 0x20 ADD PUSH1 0x40 MLOAD SWAP1 DUP2 ADD PUSH1 0x40 MSTORE DUP1 SWAP3 SWAP2 SWAP1 DUP2 DUP2 MSTORE PUSH1 0x20 ADD DUP3 DUP1 SLOAD PUSH2 0x2143 SWAP1 PUSH2 0x48E3 JUMP JUMPDEST DUP1 ISZERO PUSH2 0x2190 JUMPI DUP1 PUSH1 0x1F LT PUSH2 0x2165 JUMPI PUSH2 0x100 DUP1 DUP4 SLOAD DIV MUL DUP4 MSTORE SWAP2 PUSH1 0x20 ADD SWAP2 PUSH2 0x2190 JUMP JUMPDEST DUP3 ADD SWAP2 SWAP1 PUSH1 0x0 MSTORE PUSH1 0x20 PUSH1 0x0 KECCAK256 SWAP1 JUMPDEST DUP2 SLOAD DUP2 MSTORE SWAP1 PUSH1 0x1 ADD SWAP1 PUSH1 0x20 ADD DUP1 DUP4 GT PUSH2 0x2173 JUMPI DUP3 SWAP1 SUB PUSH1 0x1F AND DUP3 ADD SWAP2 JUMPDEST POP POP POP POP POP SWAP1 DUP1 PUSH1 0x2 ADD PUSH1 0x40 MLOAD DUP1 PUSH1 0x60 ADD PUSH1 0x40 MSTORE SWAP1 DUP2 PUSH1 0x0 DUP3 ADD DUP1 SLOAD DUP1 PUSH1 0x20 MUL PUSH1 0x20 ADD PUSH1 0x40 MLOAD SWAP1 DUP2 ADD PUSH1 0x40 MSTORE DUP1 SWAP3 SWAP2 SWAP1 DUP2 DUP2 MSTORE PUSH1 0x20 ADD PUSH1 0x0 SWAP1 JUMPDEST DUP3 DUP3 LT ISZERO PUSH2 0x2276 JUMPI DUP4 DUP3 SWAP1 PUSH1 0x0 MSTORE PUSH1 0x20 PUSH1 0x0 KECCAK256 ADD DUP1 SLOAD PUSH2 0x21E9 SWAP1 PUSH2 0x48E3 JUMP JUMPDEST DUP1 PUSH1 0x1F ADD PUSH1 0x20 DUP1 SWAP2 DIV MUL PUSH1 0x20 ADD PUSH1 0x40 MLOAD SWAP1 DUP2 ADD PUSH1 0x40 MSTORE DUP1 SWAP3 SWAP2 SWAP1 DUP2 DUP2 MSTORE PUSH1 0x20 ADD DUP3 DUP1 SLOAD PUSH2 0x2215 SWAP1 PUSH2 0x48E3 JUMP JUMPDEST DUP1 ISZERO PUSH2 0x2262 JUMPI DUP1 PUSH1 0x1F LT PUSH2 0x2237 JUMPI PUSH2 0x100 DUP1 DUP4 SLOAD DIV MUL DUP4 MSTORE SWAP2 PUSH1 0x20 ADD SWAP2 PUSH2 0x2262 JUMP JUMPDEST DUP3 ADD SWAP2 SWAP1 PUSH1 0x0 MSTORE PUSH1 0x20 PUSH1 0x0 KECCAK256 SWAP1 JUMPDEST DUP2 SLOAD DUP2 MSTORE SWAP1 PUSH1 0x1 ADD SWAP1 PUSH1 0x20 ADD DUP1 DUP4 GT PUSH2 0x2245 JUMPI DUP3 SWAP1 SUB PUSH1 0x1F AND DUP3 ADD SWAP2 JUMPDEST POP POP POP POP POP DUP2 MSTORE PUSH1 0x20 ADD SWAP1 PUSH1 0x1 ADD SWAP1 PUSH2 0x21CA JUMP JUMPDEST POP POP POP POP DUP2 MSTORE PUSH1 0x20 ADD PUSH1 0x1 DUP3 ADD DUP1 SLOAD DUP1 PUSH1 0x20 MUL PUSH1 0x20 ADD PUSH1 0x40 MLOAD SWAP1 DUP2 ADD PUSH1 0x40 MSTORE DUP1 SWAP3 SWAP2 SWAP1 DUP2 DUP2 MSTORE PUSH1 0x20 ADD PUSH1 0x0 SWAP1 JUMPDEST DUP3 DUP3 LT ISZERO PUSH2 0x234F JUMPI DUP4 DUP3 SWAP1 PUSH1 0x0 MSTORE PUSH1 0x20 PUSH1 0x0 KECCAK256 ADD DUP1 SLOAD PUSH2 0x22C2 SWAP1 PUSH2 0x48E3 JUMP JUMPDEST DUP1 PUSH1 0x1F ADD PUSH1 0x20 DUP1 SWAP2 DIV MUL PUSH1 0x20 ADD PUSH1 0x40 MLOAD SWAP1 DUP2 ADD PUSH1 0x40 MSTORE DUP1 SWAP3 SWAP2 SWAP1 DUP2 DUP2 MSTORE PUSH1 0x20 ADD DUP3 DUP1 SLOAD PUSH2 0x22EE SWAP1 PUSH2 0x48E3 JUMP JUMPDEST DUP1 ISZERO PUSH2 0x233B JUMPI DUP1 PUSH1 0x1F LT PUSH2 0x2310 JUMPI PUSH2 0x100 DUP1 DUP4 SLOAD DIV MUL DUP4 MSTORE SWAP2 PUSH1 0x20 ADD SWAP2 PUSH2 0x233B JUMP JUMPDEST DUP3 ADD SWAP2 SWAP1 PUSH1 0x0 MSTORE PUSH1 0x20 PUSH1 0x0 KECCAK256 SWAP1 JUMPDEST DUP2 SLOAD DUP2 MSTORE SWAP1 PUSH1 0x1 ADD SWAP1 PUSH1 0x20 ADD DUP1 DUP4 GT PUSH2 0x231E JUMPI DUP3 SWAP1 SUB PUSH1 0x1F AND DUP3 ADD SWAP2 JUMPDEST POP POP POP POP POP DUP2 MSTORE PUSH1 0x20 ADD SWAP1 PUSH1 0x1 ADD SWAP1 PUSH2 0x22A3 JUMP JUMPDEST POP POP POP POP DUP2 MSTORE PUSH1 0x20 ADD PUSH1 0x2 DUP3 ADD DUP1 SLOAD DUP1 PUSH1 0x20 MUL PUSH1 0x20 ADD PUSH1 0x40 MLOAD SWAP1 DUP2 ADD PUSH1 0x40 MSTORE DUP1 SWAP3 SWAP2 SWAP1 DUP2 DUP2 MSTORE PUSH1 0x20 ADD PUSH1 0x0 SWAP1 JUMPDEST DUP3 DUP3 LT ISZERO PUSH2 0x2428 JUMPI DUP4 DUP3 SWAP1 PUSH1 0x0 MSTORE PUSH1 0x20 PUSH1 0x0 KECCAK256 ADD DUP1 SLOAD PUSH2 0x239B SWAP1 PUSH2 0x48E3 JUMP JUMPDEST DUP1 PUSH1 0x1F ADD PUSH1 0x20 DUP1 SWAP2 DIV MUL PUSH1 0x20 ADD PUSH1 0x40 MLOAD SWAP1 DUP2 ADD PUSH1 0x40 MSTORE DUP1 SWAP3 SWAP2 SWAP1 DUP2 DUP2 MSTORE PUSH1 0x20 ADD DUP3 DUP1 SLOAD PUSH2 0x23C7 SWAP1 PUSH2 0x48E3 JUMP JUMPDEST DUP1 ISZERO PUSH2 0x2414 JUMPI DUP1 PUSH1 0x1F LT PUSH2 0x23E9 JUMPI PUSH2 0x100 DUP1 DUP4 SLOAD DIV MUL DUP4 MSTORE SWAP2 PUSH1 0x20 ADD SWAP2 PUSH2 0x2414 JUMP JUMPDEST DUP3 ADD SWAP2 SWAP1 PUSH1 0x0 MSTORE PUSH1 0x20 PUSH1 0x0 KECCAK256 SWAP1 JUMPDEST DUP2 SLOAD DUP2 MSTORE SWAP1 PUSH1 0x1 ADD SWAP1 PUSH1 0x20 ADD DUP1 DUP4 GT PUSH2 0x23F7 JUMPI DUP3 SWAP1 SUB PUSH1 0x1F AND DUP3 ADD SWAP2 JUMPDEST POP POP POP POP POP DUP2 MSTORE PUSH1 0x20 ADD SWAP1 PUSH1 0x1 ADD SWAP1 PUSH2 0x237C JUMP JUMPDEST POP POP POP POP DUP2 MSTORE POP POP SWAP1 DUP1 PUSH1 0x5 ADD PUSH1 0x40 MLOAD DUP1 PUSH1 0x60 ADD PUSH1 0x40 MSTORE SWAP1 DUP2 PUSH1 0x0 DUP3 ADD DUP1 SLOAD PUSH2 0x2450 SWAP1 PUSH2 0x48E3 JUMP JUMPDEST DUP1 PUSH1 0x1F ADD PUSH1 0x20 DUP1 SWAP2 DIV MUL PUSH1 0x20 ADD PUSH1 0x40 MLOAD SWAP1 DUP2 ADD PUSH1 0x40 MSTORE DUP1 SWAP3 SWAP2 SWAP1 DUP2 DUP2 MSTORE PUSH1 0x20 ADD DUP3 DUP1 SLOAD PUSH2 0x247C SWAP1 PUSH2 0x48E3 JUMP JUMPDEST DUP1 ISZERO PUSH2 0x24C9 JUMPI DUP1 PUSH1 0x1F LT PUSH2 0x249E JUMPI PUSH2 0x100 DUP1 DUP4 SLOAD DIV MUL DUP4 MSTORE SWAP2 PUSH1 0x20 ADD SWAP2 PUSH2 0x24C9 JUMP JUMPDEST DUP3 ADD SWAP2 SWAP1 PUSH1 0x0 MSTORE PUSH1 0x20 PUSH1 0x0 KECCAK256 SWAP1 JUMPDEST DUP2 SLOAD DUP2 MSTORE SWAP1 PUSH1 0x1 ADD SWAP1 PUSH1 0x20 ADD DUP1 DUP4 GT PUSH2 0x24AC JUMPI DUP3 SWAP1 SUB PUSH1 0x1F AND DUP3 ADD SWAP2 JUMPDEST POP POP POP POP POP DUP2 MSTORE PUSH1 0x20 ADD PUSH1 0x1 DUP3 ADD DUP1 SLOAD PUSH2 0x24E2 SWAP1 PUSH2 0x48E3 JUMP JUMPDEST DUP1 PUSH1 0x1F ADD PUSH1 0x20 DUP1 SWAP2 DIV MUL PUSH1 0x20 ADD PUSH1 0x40 MLOAD SWAP1 DUP2 ADD PUSH1 0x40 MSTORE DUP1 SWAP3 SWAP2 SWAP1 DUP2 DUP2 MSTORE PUSH1 0x20 ADD DUP3 DUP1 SLOAD PUSH2 0x250E SWAP1 PUSH2 0x48E3 JUMP JUMPDEST DUP1 ISZERO PUSH2 0x255B JUMPI DUP1 PUSH1 0x1F LT PUSH2 0x2530 JUMPI PUSH2 0x100 DUP1 DUP4 SLOAD DIV MUL DUP4 MSTORE SWAP2 PUSH1 0x20 ADD SWAP2 PUSH2 0x255B JUMP JUMPDEST DUP3 ADD SWAP2 SWAP1 PUSH1 0x0 MSTORE PUSH1 0x20 PUSH1 0x0 KECCAK256 SWAP1 JUMPDEST DUP2 SLOAD DUP2 MSTORE SWAP1 PUSH1 0x1 ADD SWAP1 PUSH1 0x20 ADD DUP1 DUP4 GT PUSH2 0x253E JUMPI DUP3 SWAP1 SUB PUSH1 0x1F AND DUP3 ADD SWAP2 JUMPDEST POP POP POP POP POP DUP2 MSTORE PUSH1 0x20 ADD PUSH1 0x2 DUP3 ADD DUP1 SLOAD DUP1 PUSH1 0x20 MUL PUSH1 0x20 ADD PUSH1 0x40 MLOAD SWAP1 DUP2 ADD PUSH1 0x40 MSTORE DUP1 SWAP3 SWAP2 SWAP1 DUP2 DUP2 MSTORE PUSH1 0x20 ADD PUSH1 0x0 SWAP1 JUMPDEST DUP3 DUP3 LT ISZERO PUSH2 0xC66 JUMPI DUP4 DUP3 SWAP1 PUSH1 0x0 MSTORE PUSH1 0x20 PUSH1 0x0 KECCAK256 ADD DUP1 SLOAD PUSH2 0x25A8 SWAP1 PUSH2 0x48E3 JUMP JUMPDEST DUP1 PUSH1 0x1F ADD PUSH1 0x20 DUP1 SWAP2 DIV MUL PUSH1 0x20 ADD PUSH1 0x40 MLOAD SWAP1 DUP2 ADD PUSH1 0x40 MSTORE DUP1 SWAP3 SWAP2 SWAP1 DUP2 DUP2 MSTORE PUSH1 0x20 ADD DUP3 DUP1 SLOAD PUSH2 0x25D4 SWAP1 PUSH2 0x48E3 JUMP JUMPDEST DUP1 ISZERO PUSH2 0x2621 JUMPI DUP1 PUSH1 0x1F LT PUSH2 0x25F6 JUMPI PUSH2 0x100 DUP1 DUP4 SLOAD DIV MUL DUP4 MSTORE SWAP2 PUSH1 0x20 ADD SWAP2 PUSH2 0x2621 JUMP JUMPDEST DUP3 ADD SWAP2 SWAP1 PUSH1 0x0 MSTORE PUSH1 0x20 PUSH1 0x0 KECCAK256 SWAP1 JUMPDEST DUP2 SLOAD DUP2 MSTORE SWAP1 PUSH1 0x1 ADD SWAP1 PUSH1 0x20 ADD DUP1 DUP4 GT PUSH2 0x2604 JUMPI DUP3 SWAP1 SUB PUSH1 0x1F AND DUP3 ADD SWAP2 JUMPDEST POP POP POP POP POP DUP2 MSTORE PUSH1 0x20 ADD SWAP1 PUSH1 0x1 ADD SWAP1 PUSH2 0x2589 JUMP JUMPDEST PUSH1 0xC PUSH1 0x20 MSTORE DUP2 PUSH1 0x0 MSTORE PUSH1 0x40 PUSH1 0x0 KECCAK256 DUP2 DUP2 SLOAD DUP2 LT PUSH2 0x2651 JUMPI PUSH1 0x0 DUP1 REVERT JUMPDEST SWAP1 PUSH1 0x0 MSTORE PUSH1 0x20 PUSH1 0x0 KECCAK256 SWAP1 PUSH1 0xA MUL ADD PUSH1 0x0 SWAP2 POP SWAP2 POP POP DUP1 PUSH1 0x0 ADD DUP1 SLOAD PUSH2 0x2675 SWAP1 PUSH2 0x48E3 JUMP JUMPDEST DUP1 PUSH1 0x1F ADD PUSH1 0x20 DUP1 SWAP2 DIV MUL PUSH1 0x20 ADD PUSH1 0x40 MLOAD SWAP1 DUP2 ADD PUSH1 0x40 MSTORE DUP1 SWAP3 SWAP2 SWAP1 DUP2 DUP2 MSTORE PUSH1 0x20 ADD DUP3 DUP1 SLOAD PUSH2 0x26A1 SWAP1 PUSH2 0x48E3 JUMP JUMPDEST DUP1 ISZERO PUSH2 0x26EE JUMPI DUP1 PUSH1 0x1F LT PUSH2 0x26C3 JUMPI PUSH2 0x100 DUP1 DUP4 SLOAD DIV MUL DUP4 MSTORE SWAP2 PUSH1 0x20 ADD SWAP2 PUSH2 0x26EE JUMP JUMPDEST DUP3 ADD SWAP2 SWAP1 PUSH1 0x0 MSTORE PUSH1 0x20 PUSH1 0x0 KECCAK256 SWAP1 JUMPDEST DUP2 SLOAD DUP2 MSTORE SWAP1 PUSH1 0x1 ADD SWAP1 PUSH1 0x20 ADD DUP1 DUP4 GT PUSH2 0x26D1 JUMPI DUP3 SWAP1 SUB PUSH1 0x1F AND DUP3 ADD SWAP2 JUMPDEST POP POP POP POP POP SWAP1 DUP1 PUSH1 0x1 ADD DUP1 SLOAD PUSH2 0x2703 SWAP1 PUSH2 0x48E3 JUMP JUMPDEST DUP1 PUSH1 0x1F ADD PUSH1 0x20 DUP1 SWAP2 DIV MUL PUSH1 0x20 ADD PUSH1 0x40 MLOAD SWAP1 DUP2 ADD PUSH1 0x40 MSTORE DUP1 SWAP3 SWAP2 SWAP1 DUP2 DUP2 MSTORE PUSH1 0x20 ADD DUP3 DUP1 SLOAD PUSH2 0x272F SWAP1 PUSH2 0x48E3 JUMP JUMPDEST DUP1 ISZERO PUSH2 0x277C JUMPI DUP1 PUSH1 0x1F LT PUSH2 0x2751 JUMPI PUSH2 0x100 DUP1 DUP4 SLOAD DIV MUL DUP4 MSTORE SWAP2 PUSH1 0x20 ADD SWAP2 PUSH2 0x277C JUMP JUMPDEST DUP3 ADD SWAP2 SWAP1 PUSH1 0x0 MSTORE PUSH1 0x20 PUSH1 0x0 KECCAK256 SWAP1 JUMPDEST DUP2 SLOAD DUP2 MSTORE SWAP1 PUSH1 0x1 ADD SWAP1 PUSH1 0x20 ADD DUP1 DUP4 GT PUSH2 0x275F JUMPI DUP3 SWAP1 SUB PUSH1 0x1F AND DUP3 ADD SWAP2 JUMPDEST POP POP POP POP POP SWAP1 DUP1 PUSH1 0x2 ADD PUSH1 0x40 MLOAD DUP1 PUSH1 0x60 ADD PUSH1 0x40 MSTORE SWAP1 DUP2 PUSH1 0x0 DUP3 ADD DUP1 SLOAD DUP1 PUSH1 0x20 MUL PUSH1 0x20 ADD PUSH1 0x40 MLOAD SWAP1 DUP2 ADD PUSH1 0x40 MSTORE DUP1 SWAP3 SWAP2 SWAP1 DUP2 DUP2 MSTORE PUSH1 0x20 ADD PUSH1 0x0 SWAP1 JUMPDEST DUP3 DUP3 LT ISZERO PUSH2 0x2862 JUMPI DUP4 DUP3 SWAP1 PUSH1 0x0 MSTORE PUSH1 0x20 PUSH1 0x0 KECCAK256 ADD DUP1 SLOAD PUSH2 0x27D5 SWAP1 PUSH2 0x48E3 JUMP JUMPDEST DUP1 PUSH1 0x1F ADD PUSH1 0x20 DUP1 SWAP2 DIV MUL PUSH1 0x20 ADD PUSH1 0x40 MLOAD SWAP1 DUP2 ADD PUSH1 0x40 MSTORE DUP1 SWAP3 SWAP2 SWAP1 DUP2 DUP2 MSTORE PUSH1 0x20 ADD DUP3 DUP1 SLOAD PUSH2 0x2801 SWAP1 PUSH2 0x48E3 JUMP JUMPDEST DUP1 ISZERO PUSH2 0x284E JUMPI DUP1 PUSH1 0x1F LT PUSH2 0x2823 JUMPI PUSH2 0x100 DUP1 DUP4 SLOAD DIV MUL DUP4 MSTORE SWAP2 PUSH1 0x20 ADD SWAP2 PUSH2 0x284E JUMP JUMPDEST DUP3 ADD SWAP2 SWAP1 PUSH1 0x0 MSTORE PUSH1 0x20 PUSH1 0x0 KECCAK256 SWAP1 JUMPDEST DUP2 SLOAD DUP2 MSTORE SWAP1 PUSH1 0x1 ADD SWAP1 PUSH1 0x20 ADD DUP1 DUP4 GT PUSH2 0x2831 JUMPI DUP3 SWAP1 SUB PUSH1 0x1F AND DUP3 ADD SWAP2 JUMPDEST POP POP POP POP POP DUP2 MSTORE PUSH1 0x20 ADD SWAP1 PUSH1 0x1 ADD SWAP1 PUSH2 0x27B6 JUMP JUMPDEST POP POP POP POP DUP2 MSTORE PUSH1 0x20 ADD PUSH1 0x1 DUP3 ADD DUP1 SLOAD DUP1 PUSH1 0x20 MUL PUSH1 0x20 ADD PUSH1 0x40 MLOAD SWAP1 DUP2 ADD PUSH1 0x40 MSTORE DUP1 SWAP3 SWAP2 SWAP1 DUP2 DUP2 MSTORE PUSH1 0x20 ADD PUSH1 0x0 SWAP1 JUMPDEST DUP3 DUP3 LT ISZERO PUSH2 0x293B JUMPI DUP4 DUP3 SWAP1 PUSH1 0x0 MSTORE PUSH1 0x20 PUSH1 0x0 KECCAK256 ADD DUP1 SLOAD PUSH2 0x28AE SWAP1 PUSH2 0x48E3 JUMP JUMPDEST DUP1 PUSH1 0x1F ADD PUSH1 0x20 DUP1 SWAP2 DIV MUL PUSH1 0x20 ADD PUSH1 0x40 MLOAD SWAP1 DUP2 ADD PUSH1 0x40 MSTORE DUP1 SWAP3 SWAP2 SWAP1 DUP2 DUP2 MSTORE PUSH1 0x20 ADD DUP3 DUP1 SLOAD PUSH2 0x28DA SWAP1 PUSH2 0x48E3 JUMP JUMPDEST DUP1 ISZERO PUSH2 0x2927 JUMPI DUP1 PUSH1 0x1F LT PUSH2 0x28FC JUMPI PUSH2 0x100 DUP1 DUP4 SLOAD DIV MUL DUP4 MSTORE SWAP2 PUSH1 0x20 ADD SWAP2 PUSH2 0x2927 JUMP JUMPDEST DUP3 ADD SWAP2 SWAP1 PUSH1 0x0 MSTORE PUSH1 0x20 PUSH1 0x0 KECCAK256 SWAP1 JUMPDEST DUP2 SLOAD DUP2 MSTORE SWAP1 PUSH1 0x1 ADD SWAP1 PUSH1 0x20 ADD DUP1 DUP4 GT PUSH2 0x290A JUMPI DUP3 SWAP1 SUB PUSH1 0x1F AND DUP3 ADD SWAP2 JUMPDEST POP POP POP POP POP DUP2 MSTORE PUSH1 0x20 ADD SWAP1 PUSH1 0x1 ADD SWAP1 PUSH2 0x288F JUMP JUMPDEST POP POP POP POP DUP2 MSTORE PUSH1 0x20 ADD PUSH1 0x2 DUP3 ADD DUP1 SLOAD DUP1 PUSH1 0x20 MUL PUSH1 0x20 ADD PUSH1 0x40 MLOAD SWAP1 DUP2 ADD PUSH1 0x40 MSTORE DUP1 SWAP3 SWAP2 SWAP1 DUP2 DUP2 MSTORE PUSH1 0x20 ADD PUSH1 0x0 SWAP1 JUMPDEST DUP3 DUP3 LT ISZERO PUSH2 0x2A14 JUMPI DUP4 DUP3 SWAP1 PUSH1 0x0 MSTORE PUSH1 0x20 PUSH1 0x0 KECCAK256 ADD DUP1 SLOAD PUSH2 0x2987 SWAP1 PUSH2 0x48E3 JUMP JUMPDEST DUP1 PUSH1 0x1F ADD PUSH1 0x20 DUP1 SWAP2 DIV MUL PUSH1 0x20 ADD PUSH1 0x40 MLOAD SWAP1 DUP2 ADD PUSH1 0x40 MSTORE DUP1 SWAP3 SWAP2 SWAP1 DUP2 DUP2 MSTORE PUSH1 0x20 ADD DUP3 DUP1 SLOAD PUSH2 0x29B3 SWAP1 PUSH2 0x48E3 JUMP JUMPDEST DUP1 ISZERO PUSH2 0x2A00 JUMPI DUP1 PUSH1 0x1F LT PUSH2 0x29D5 JUMPI PUSH2 0x100 DUP1 DUP4 SLOAD DIV MUL DUP4 MSTORE SWAP2 PUSH1 0x20 ADD SWAP2 PUSH2 0x2A00 JUMP JUMPDEST DUP3 ADD SWAP2 SWAP1 PUSH1 0x0 MSTORE PUSH1 0x20 PUSH1 0x0 KECCAK256 SWAP1 JUMPDEST DUP2 SLOAD DUP2 MSTORE SWAP1 PUSH1 0x1 ADD SWAP1 PUSH1 0x20 ADD DUP1 DUP4 GT PUSH2 0x29E3 JUMPI DUP3 SWAP1 SUB PUSH1 0x1F AND DUP3 ADD SWAP2 JUMPDEST POP POP POP POP POP DUP2 MSTORE PUSH1 0x20 ADD SWAP1 PUSH1 0x1 ADD SWAP1 PUSH2 0x2968 JUMP JUMPDEST POP POP POP POP DUP2 MSTORE POP POP SWAP1 DUP1 PUSH1 0x5 ADD PUSH1 0x40 MLOAD DUP1 PUSH1 0x60 ADD PUSH1 0x40 MSTORE SWAP1 DUP2 PUSH1 0x0 DUP3 ADD DUP1 SLOAD PUSH2 0x2A3C SWAP1 PUSH2 0x48E3 JUMP JUMPDEST DUP1 PUSH1 0x1F ADD PUSH1 0x20 DUP1 SWAP2 DIV MUL PUSH1 0x20 ADD PUSH1 0x40 MLOAD SWAP1 DUP2 ADD PUSH1 0x40 MSTORE DUP1 SWAP3 SWAP2 SWAP1 DUP2 DUP2 MSTORE PUSH1 0x20 ADD DUP3 DUP1 SLOAD PUSH2 0x2A68 SWAP1 PUSH2 0x48E3 JUMP JUMPDEST DUP1 ISZERO PUSH2 0x2AB5 JUMPI DUP1 PUSH1 0x1F LT PUSH2 0x2A8A JUMPI PUSH2 0x100 DUP1 DUP4 SLOAD DIV MUL DUP4 MSTORE SWAP2 PUSH1 0x20 ADD SWAP2 PUSH2 0x2AB5 JUMP JUMPDEST DUP3 ADD SWAP2 SWAP1 PUSH1 0x0 MSTORE PUSH1 0x20 PUSH1 0x0 KECCAK256 SWAP1 JUMPDEST DUP2 SLOAD DUP2 MSTORE SWAP1 PUSH1 0x1 ADD SWAP1 PUSH1 0x20 ADD DUP1 DUP4 GT PUSH2 0x2A98 JUMPI DUP3 SWAP1 SUB PUSH1 0x1F AND DUP3 ADD SWAP2 JUMPDEST POP POP POP POP POP DUP2 MSTORE PUSH1 0x20 ADD PUSH1 0x1 DUP3 ADD DUP1 SLOAD PUSH2 0x2ACE SWAP1 PUSH2 0x48E3 JUMP JUMPDEST DUP1 PUSH1 0x1F ADD PUSH1 0x20 DUP1 SWAP2 DIV MUL PUSH1 0x20 ADD PUSH1 0x40 MLOAD SWAP1 DUP2 ADD PUSH1 0x40 MSTORE DUP1 SWAP3 SWAP2 SWAP1 DUP2 DUP2 MSTORE PUSH1 0x20 ADD DUP3 DUP1 SLOAD PUSH2 0x2AFA SWAP1 PUSH2 0x48E3 JUMP JUMPDEST DUP1 ISZERO PUSH2 0x2B47 JUMPI DUP1 PUSH1 0x1F LT PUSH2 0x2B1C JUMPI PUSH2 0x100 DUP1 DUP4 SLOAD DIV MUL DUP4 MSTORE SWAP2 PUSH1 0x20 ADD SWAP2 PUSH2 0x2B47 JUMP JUMPDEST DUP3 ADD SWAP2 SWAP1 PUSH1 0x0 MSTORE PUSH1 0x20 PUSH1 0x0 KECCAK256 SWAP1 JUMPDEST DUP2 SLOAD DUP2 MSTORE SWAP1 PUSH1 0x1 ADD SWAP1 PUSH1 0x20 ADD DUP1 DUP4 GT PUSH2 0x2B2A JUMPI DUP3 SWAP1 SUB PUSH1 0x1F AND DUP3 ADD SWAP2 JUMPDEST POP POP POP POP POP DUP2 MSTORE PUSH1 0x20 ADD PUSH1 0x2 DUP3 ADD DUP1 SLOAD DUP1 PUSH1 0x20 MUL PUSH1 0x20 ADD PUSH1 0x40 MLOAD SWAP1 DUP2 ADD PUSH1 0x40 MSTORE DUP1 SWAP3 SWAP2 SWAP1 DUP2 DUP2 MSTORE PUSH1 0x20 ADD PUSH1 0x0 SWAP1 JUMPDEST DUP3 DUP3 LT ISZERO PUSH2 0xC66 JUMPI DUP4 DUP3 SWAP1 PUSH1 0x0 MSTORE PUSH1 0x20 PUSH1 0x0 KECCAK256 ADD DUP1 SLOAD PUSH2 0x2B94 SWAP1 PUSH2 0x48E3 JUMP JUMPDEST DUP1 PUSH1 0x1F ADD PUSH1 0x20 DUP1 SWAP2 DIV MUL PUSH1 0x20 ADD PUSH1 0x40 MLOAD SWAP1 DUP2 ADD PUSH1 0x40 MSTORE DUP1 SWAP3 SWAP2 SWAP1 DUP2 DUP2 MSTORE PUSH1 0x20 ADD DUP3 DUP1 SLOAD PUSH2 0x2BC0 SWAP1 PUSH2 0x48E3 JUMP JUMPDEST DUP1 ISZERO PUSH2 0x2C0D JUMPI DUP1 PUSH1 0x1F LT PUSH2 0x2BE2 JUMPI PUSH2 0x100 DUP1 DUP4 SLOAD DIV MUL DUP4 MSTORE SWAP2 PUSH1 0x20 ADD SWAP2 PUSH2 0x2C0D JUMP JUMPDEST DUP3 ADD SWAP2 SWAP1 PUSH1 0x0 MSTORE PUSH1 0x20 PUSH1 0x0 KECCAK256 SWAP1 JUMPDEST DUP2 SLOAD DUP2 MSTORE SWAP1 PUSH1 0x1 ADD SWAP1 PUSH1 0x20 ADD DUP1 DUP4 GT PUSH2 0x2BF0 JUMPI DUP3 SWAP1 SUB PUSH1 0x1F AND DUP3 ADD SWAP2 JUMPDEST POP POP POP POP POP DUP2 MSTORE PUSH1 0x20 ADD SWAP1 PUSH1 0x1 ADD SWAP1 PUSH2 0x2B75 JUMP JUMPDEST DUP1 MLOAD PUSH1 0x0 JUMPDEST DUP2 DUP2 LT ISZERO PUSH2 0x2CA3 JUMPI PUSH2 0x2C55 DUP4 DUP3 DUP2 MLOAD DUP2 LT PUSH2 0x2C43 JUMPI PUSH2 0x2C43 PUSH2 0x494C JUMP JUMPDEST PUSH1 0x20 MUL PUSH1 0x20 ADD ADD MLOAD PUSH1 0x20 ADD MLOAD MLOAD PUSH2 0x376E JUMP JUMPDEST PUSH1 0x0 JUMPDEST DUP4 DUP3 DUP2 MLOAD DUP2 LT PUSH2 0x2C6A JUMPI PUSH2 0x2C6A PUSH2 0x494C JUMP JUMPDEST PUSH1 0x20 MUL PUSH1 0x20 ADD ADD MLOAD PUSH1 0x20 ADD MLOAD MLOAD DUP2 LT ISZERO PUSH2 0x2C90 JUMPI DUP1 PUSH2 0x2C88 DUP2 PUSH2 0x4933 JUMP JUMPDEST SWAP2 POP POP PUSH2 0x2C58 JUMP JUMPDEST POP DUP1 PUSH2 0x2C9B DUP2 PUSH2 0x4933 JUMP JUMPDEST SWAP2 POP POP PUSH2 0x2C26 JUMP JUMPDEST POP PUSH1 0x40 MLOAD PUSH32 0x64E5B0178E6F7AC2B1D7103882FD082322122FC630637AFE744C584F727FFA90 SWAP1 PUSH1 0x0 SWAP1 LOG1 POP POP JUMP JUMPDEST PUSH1 0x10 DUP3 DUP2 SLOAD DUP2 LT PUSH2 0x2CE1 JUMPI PUSH1 0x0 DUP1 REVERT JUMPDEST SWAP1 PUSH1 0x0 MSTORE PUSH1 0x20 PUSH1 0x0 KECCAK256 ADD DUP2 DUP2 SLOAD DUP2 LT PUSH2 0x2CF9 JUMPI PUSH1 0x0 DUP1 REVERT JUMPDEST SWAP1 PUSH1 0x0 MSTORE PUSH1 0x20 PUSH1 0x0 KECCAK256 SWAP1 PUSH1 0xA MUL ADD PUSH1 0x0 SWAP2 POP SWAP2 POP POP DUP1 PUSH1 0x0 ADD DUP1 SLOAD PUSH2 0x2D1D SWAP1 PUSH2 0x48E3 JUMP JUMPDEST DUP1 PUSH1 0x1F ADD PUSH1 0x20 DUP1 SWAP2 DIV MUL PUSH1 0x20 ADD PUSH1 0x40 MLOAD SWAP1 DUP2 ADD PUSH1 0x40 MSTORE DUP1 SWAP3 SWAP2 SWAP1 DUP2 DUP2 MSTORE PUSH1 0x20 ADD DUP3 DUP1 SLOAD PUSH2 0x2D49 SWAP1 PUSH2 0x48E3 JUMP JUMPDEST DUP1 ISZERO PUSH2 0x2D96 JUMPI DUP1 PUSH1 0x1F LT PUSH2 0x2D6B JUMPI PUSH2 0x100 DUP1 DUP4 SLOAD DIV MUL DUP4 MSTORE SWAP2 PUSH1 0x20 ADD SWAP2 PUSH2 0x2D96 JUMP JUMPDEST DUP3 ADD SWAP2 SWAP1 PUSH1 0x0 MSTORE PUSH1 0x20 PUSH1 0x0 KECCAK256 SWAP1 JUMPDEST DUP2 SLOAD DUP2 MSTORE SWAP1 PUSH1 0x1 ADD SWAP1 PUSH1 0x20 ADD DUP1 DUP4 GT PUSH2 0x2D79 JUMPI DUP3 SWAP1 SUB PUSH1 0x1F AND DUP3 ADD SWAP2 JUMPDEST POP POP POP POP POP SWAP1 DUP1 PUSH1 0x1 ADD DUP1 SLOAD PUSH2 0x2DAB SWAP1 PUSH2 0x48E3 JUMP JUMPDEST DUP1 PUSH1 0x1F ADD PUSH1 0x20 DUP1 SWAP2 DIV MUL PUSH1 0x20 ADD PUSH1 0x40 MLOAD SWAP1 DUP2 ADD PUSH1 0x40 MSTORE DUP1 SWAP3 SWAP2 SWAP1 DUP2 DUP2 MSTORE PUSH1 0x20 ADD DUP3 DUP1 SLOAD PUSH2 0x2DD7 SWAP1 PUSH2 0x48E3 JUMP JUMPDEST DUP1 ISZERO PUSH2 0x2E24 JUMPI DUP1 PUSH1 0x1F LT PUSH2 0x2DF9 JUMPI PUSH2 0x100 DUP1 DUP4 SLOAD DIV MUL DUP4 MSTORE SWAP2 PUSH1 0x20 ADD SWAP2 PUSH2 0x2E24 JUMP JUMPDEST DUP3 ADD SWAP2 SWAP1 PUSH1 0x0 MSTORE PUSH1 0x20 PUSH1 0x0 KECCAK256 SWAP1 JUMPDEST DUP2 SLOAD DUP2 MSTORE SWAP1 PUSH1 0x1 ADD SWAP1 PUSH1 0x20 ADD DUP1 DUP4 GT PUSH2 0x2E07 JUMPI DUP3 SWAP1 SUB PUSH1 0x1F AND DUP3 ADD SWAP2 JUMPDEST POP POP POP POP POP SWAP1 DUP1 PUSH1 0x2 ADD PUSH1 0x40 MLOAD DUP1 PUSH1 0x60 ADD PUSH1 0x40 MSTORE SWAP1 DUP2 PUSH1 0x0 DUP3 ADD DUP1 SLOAD DUP1 PUSH1 0x20 MUL PUSH1 0x20 ADD PUSH1 0x40 MLOAD SWAP1 DUP2 ADD PUSH1 0x40 MSTORE DUP1 SWAP3 SWAP2 SWAP1 DUP2 DUP2 MSTORE PUSH1 0x20 ADD PUSH1 0x0 SWAP1 JUMPDEST DUP3 DUP3 LT ISZERO PUSH2 0x2F0A JUMPI DUP4 DUP3 SWAP1 PUSH1 0x0 MSTORE PUSH1 0x20 PUSH1 0x0 KECCAK256 ADD DUP1 SLOAD PUSH2 0x2E7D SWAP1 PUSH2 0x48E3 JUMP JUMPDEST DUP1 PUSH1 0x1F ADD PUSH1 0x20 DUP1 SWAP2 DIV MUL PUSH1 0x20 ADD PUSH1 0x40 MLOAD SWAP1 DUP2 ADD PUSH1 0x40 MSTORE DUP1 SWAP3 SWAP2 SWAP1 DUP2 DUP2 MSTORE PUSH1 0x20 ADD DUP3 DUP1 SLOAD PUSH2 0x2EA9 SWAP1 PUSH2 0x48E3 JUMP JUMPDEST DUP1 ISZERO PUSH2 0x2EF6 JUMPI DUP1 PUSH1 0x1F LT PUSH2 0x2ECB JUMPI PUSH2 0x100 DUP1 DUP4 SLOAD DIV MUL DUP4 MSTORE SWAP2 PUSH1 0x20 ADD SWAP2 PUSH2 0x2EF6 JUMP JUMPDEST DUP3 ADD SWAP2 SWAP1 PUSH1 0x0 MSTORE PUSH1 0x20 PUSH1 0x0 KECCAK256 SWAP1 JUMPDEST DUP2 SLOAD DUP2 MSTORE SWAP1 PUSH1 0x1 ADD SWAP1 PUSH1 0x20 ADD DUP1 DUP4 GT PUSH2 0x2ED9 JUMPI DUP3 SWAP1 SUB PUSH1 0x1F AND DUP3 ADD SWAP2 JUMPDEST POP POP POP POP POP DUP2 MSTORE PUSH1 0x20 ADD SWAP1 PUSH1 0x1 ADD SWAP1 PUSH2 0x2E5E JUMP JUMPDEST POP POP POP POP DUP2 MSTORE PUSH1 0x20 ADD PUSH1 0x1 DUP3 ADD DUP1 SLOAD DUP1 PUSH1 0x20 MUL PUSH1 0x20 ADD PUSH1 0x40 MLOAD SWAP1 DUP2 ADD PUSH1 0x40 MSTORE DUP1 SWAP3 SWAP2 SWAP1 DUP2 DUP2 MSTORE PUSH1 0x20 ADD PUSH1 0x0 SWAP1 JUMPDEST DUP3 DUP3 LT ISZERO PUSH2 0x2FE3 JUMPI DUP4 DUP3 SWAP1 PUSH1 0x0 MSTORE PUSH1 0x20 PUSH1 0x0 KECCAK256 ADD DUP1 SLOAD PUSH2 0x2F56 SWAP1 PUSH2 0x48E3 JUMP JUMPDEST DUP1 PUSH1 0x1F ADD PUSH1 0x20 DUP1 SWAP2 DIV MUL PUSH1 0x20 ADD PUSH1 0x40 MLOAD SWAP1 DUP2 ADD PUSH1 0x40 MSTORE DUP1 SWAP3 SWAP2 SWAP1 DUP2 DUP2 MSTORE PUSH1 0x20 ADD DUP3 DUP1 SLOAD PUSH2 0x2F82 SWAP1 PUSH2 0x48E3 JUMP JUMPDEST DUP1 ISZERO PUSH2 0x2FCF JUMPI DUP1 PUSH1 0x1F LT PUSH2 0x2FA4 JUMPI PUSH2 0x100 DUP1 DUP4 SLOAD DIV MUL DUP4 MSTORE SWAP2 PUSH1 0x20 ADD SWAP2 PUSH2 0x2FCF JUMP JUMPDEST DUP3 ADD SWAP2 SWAP1 PUSH1 0x0 MSTORE PUSH1 0x20 PUSH1 0x0 KECCAK256 SWAP1 JUMPDEST DUP2 SLOAD DUP2 MSTORE SWAP1 PUSH1 0x1 ADD SWAP1 PUSH1 0x20 ADD DUP1 DUP4 GT PUSH2 0x2FB2 JUMPI DUP3 SWAP1 SUB PUSH1 0x1F AND DUP3 ADD SWAP2 JUMPDEST POP POP POP POP POP DUP2 MSTORE PUSH1 0x20 ADD SWAP1 PUSH1 0x1 ADD SWAP1 PUSH2 0x2F37 JUMP JUMPDEST POP POP POP POP DUP2 MSTORE PUSH1 0x20 ADD PUSH1 0x2 DUP3 ADD DUP1 SLOAD DUP1 PUSH1 0x20 MUL PUSH1 0x20 ADD PUSH1 0x40 MLOAD SWAP1 DUP2 ADD PUSH1 0x40 MSTORE DUP1 SWAP3 SWAP2 SWAP1 DUP2 DUP2 MSTORE PUSH1 0x20 ADD PUSH1 0x0 SWAP1 JUMPDEST DUP3 DUP3 LT ISZERO PUSH2 0x30BC JUMPI DUP4 DUP3 SWAP1 PUSH1 0x0 MSTORE PUSH1 0x20 PUSH1 0x0 KECCAK256 ADD DUP1 SLOAD PUSH2 0x302F SWAP1 PUSH2 0x48E3 JUMP JUMPDEST DUP1 PUSH1 0x1F ADD PUSH1 0x20 DUP1 SWAP2 DIV MUL PUSH1 0x20 ADD PUSH1 0x40 MLOAD SWAP1 DUP2 ADD PUSH1 0x40 MSTORE DUP1 SWAP3 SWAP2 SWAP1 DUP2 DUP2 MSTORE PUSH1 0x20 ADD DUP3 DUP1 SLOAD PUSH2 0x305B SWAP1 PUSH2 0x48E3 JUMP JUMPDEST DUP1 ISZERO PUSH2 0x30A8 JUMPI DUP1 PUSH1 0x1F LT PUSH2 0x307D JUMPI PUSH2 0x100 DUP1 DUP4 SLOAD DIV MUL DUP4 MSTORE SWAP2 PUSH1 0x20 ADD SWAP2 PUSH2 0x30A8 JUMP JUMPDEST DUP3 ADD SWAP2 SWAP1 PUSH1 0x0 MSTORE PUSH1 0x20 PUSH1 0x0 KECCAK256 SWAP1 JUMPDEST DUP2 SLOAD DUP2 MSTORE SWAP1 PUSH1 0x1 ADD SWAP1 PUSH1 0x20 ADD DUP1 DUP4 GT PUSH2 0x308B JUMPI DUP3 SWAP1 SUB PUSH1 0x1F AND DUP3 ADD SWAP2 JUMPDEST POP POP POP POP POP DUP2 MSTORE PUSH1 0x20 ADD SWAP1 PUSH1 0x1 ADD SWAP1 PUSH2 0x3010 JUMP JUMPDEST POP POP POP POP DUP2 MSTORE POP POP SWAP1 DUP1 PUSH1 0x5 ADD PUSH1 0x40 MLOAD DUP1 PUSH1 0x60 ADD PUSH1 0x40 MSTORE SWAP1 DUP2 PUSH1 0x0 DUP3 ADD DUP1 SLOAD PUSH2 0x30E4 SWAP1 PUSH2 0x48E3 JUMP JUMPDEST DUP1 PUSH1 0x1F ADD PUSH1 0x20 DUP1 SWAP2 DIV MUL PUSH1 0x20 ADD PUSH1 0x40 MLOAD SWAP1 DUP2 ADD PUSH1 0x40 MSTORE DUP1 SWAP3 SWAP2 SWAP1 DUP2 DUP2 MSTORE PUSH1 0x20 ADD DUP3 DUP1 SLOAD PUSH2 0x3110 SWAP1 PUSH2 0x48E3 JUMP JUMPDEST DUP1 ISZERO PUSH2 0x315D JUMPI DUP1 PUSH1 0x1F LT PUSH2 0x3132 JUMPI PUSH2 0x100 DUP1 DUP4 SLOAD DIV MUL DUP4 MSTORE SWAP2 PUSH1 0x20 ADD SWAP2 PUSH2 0x315D JUMP JUMPDEST DUP3 ADD SWAP2 SWAP1 PUSH1 0x0 MSTORE PUSH1 0x20 PUSH1 0x0 KECCAK256 SWAP1 JUMPDEST DUP2 SLOAD DUP2 MSTORE SWAP1 PUSH1 0x1 ADD SWAP1 PUSH1 0x20 ADD DUP1 DUP4 GT PUSH2 0x3140 JUMPI DUP3 SWAP1 SUB PUSH1 0x1F AND DUP3 ADD SWAP2 JUMPDEST POP POP POP POP POP DUP2 MSTORE PUSH1 0x20 ADD PUSH1 0x1 DUP3 ADD DUP1 SLOAD PUSH2 0x3176 SWAP1 PUSH2 0x48E3 JUMP JUMPDEST DUP1 PUSH1 0x1F ADD PUSH1 0x20 DUP1 SWAP2 DIV MUL PUSH1 0x20 ADD PUSH1 0x40 MLOAD SWAP1 DUP2 ADD PUSH1 0x40 MSTORE DUP1 SWAP3 SWAP2 SWAP1 DUP2 DUP2 MSTORE PUSH1 0x20 ADD DUP3 DUP1 SLOAD PUSH2 0x31A2 SWAP1 PUSH2 0x48E3 JUMP JUMPDEST DUP1 ISZERO PUSH2 0x31EF JUMPI DUP1 PUSH1 0x1F LT PUSH2 0x31C4 JUMPI PUSH2 0x100 DUP1 DUP4 SLOAD DIV MUL DUP4 MSTORE SWAP2 PUSH1 0x20 ADD SWAP2 PUSH2 0x31EF JUMP JUMPDEST DUP3 ADD SWAP2 SWAP1 PUSH1 0x0 MSTORE PUSH1 0x20 PUSH1 0x0 KECCAK256 SWAP1 JUMPDEST DUP2 SLOAD DUP2 MSTORE SWAP1 PUSH1 0x1 ADD SWAP1 PUSH1 0x20 ADD DUP1 DUP4 GT PUSH2 0x31D2 JUMPI DUP3 SWAP1 SUB PUSH1 0x1F AND DUP3 ADD SWAP2 JUMPDEST POP POP POP POP POP DUP2 MSTORE PUSH1 0x20 ADD PUSH1 0x2 DUP3 ADD DUP1 SLOAD DUP1 PUSH1 0x20 MUL PUSH1 0x20 ADD PUSH1 0x40 MLOAD SWAP1 DUP2 ADD PUSH1 0x40 MSTORE DUP1 SWAP3 SWAP2 SWAP1 DUP2 DUP2 MSTORE PUSH1 0x20 ADD PUSH1 0x0 SWAP1 JUMPDEST DUP3 DUP3 LT ISZERO PUSH2 0xC66 JUMPI DUP4 DUP3 SWAP1 PUSH1 0x0 MSTORE PUSH1 0x20 PUSH1 0x0 KECCAK256 ADD DUP1 SLOAD PUSH2 0x323C SWAP1 PUSH2 0x48E3 JUMP JUMPDEST DUP1 PUSH1 0x1F ADD PUSH1 0x20 DUP1 SWAP2 DIV MUL PUSH1 0x20 ADD PUSH1 0x40 MLOAD SWAP1 DUP2 ADD PUSH1 0x40 MSTORE DUP1 SWAP3 SWAP2 SWAP1 DUP2 DUP2 MSTORE PUSH1 0x20 ADD DUP3 DUP1 SLOAD PUSH2 0x3268 SWAP1 PUSH2 0x48E3 JUMP JUMPDEST DUP1 ISZERO PUSH2 0x32B5 JUMPI DUP1 PUSH1 0x1F LT PUSH2 0x328A JUMPI PUSH2 0x100 DUP1 DUP4 SLOAD DIV MUL DUP4 MSTORE SWAP2 PUSH1 0x20 ADD SWAP2 PUSH2 0x32B5 JUMP JUMPDEST DUP3 ADD SWAP2 SWAP1 PUSH1 0x0 MSTORE PUSH1 0x20 PUSH1 0x0 KECCAK256 SWAP1 JUMPDEST DUP2 SLOAD DUP2 MSTORE SWAP1 PUSH1 0x1 ADD SWAP1 PUSH1 0x20 ADD DUP1 DUP4 GT PUSH2 0x3298 JUMPI DUP3 SWAP1 SUB PUSH1 0x1F AND DUP3 ADD SWAP2 JUMPDEST POP POP POP POP POP DUP2 MSTORE PUSH1 0x20 ADD SWAP1 PUSH1 0x1 ADD SWAP1 PUSH2 0x321D JUMP JUMPDEST PUSH1 0x0 JUMPDEST DUP2 MLOAD DUP2 LT ISZERO PUSH2 0x33C7 JUMPI PUSH1 0x0 DUP3 DUP3 DUP2 MLOAD DUP2 LT PUSH2 0x32E9 JUMPI PUSH2 0x32E9 PUSH2 0x494C JUMP JUMPDEST PUSH1 0x20 MUL PUSH1 0x20 ADD ADD MLOAD PUSH1 0x0 ADD MLOAD SWAP1 POP DUP3 DUP3 DUP2 MLOAD DUP2 LT PUSH2 0x3309 JUMPI PUSH2 0x3309 PUSH2 0x494C JUMP JUMPDEST PUSH1 0x20 MUL PUSH1 0x20 ADD ADD MLOAD PUSH1 0x20 ADD MLOAD PUSH1 0x8 DUP3 DUP2 SLOAD DUP2 LT PUSH2 0x3328 JUMPI PUSH2 0x3328 PUSH2 0x494C JUMP JUMPDEST PUSH1 0x0 SWAP2 DUP3 MSTORE PUSH1 0x20 SWAP2 DUP3 SWAP1 KECCAK256 DUP4 MLOAD PUSH1 0x6 SWAP3 SWAP1 SWAP3 MUL ADD DUP1 SLOAD PUSH1 0xFF NOT AND PUSH1 0xFF SWAP1 SWAP3 AND SWAP2 SWAP1 SWAP2 OR DUP2 SSTORE SWAP1 DUP3 ADD MLOAD PUSH1 0x1 DUP3 ADD SWAP1 PUSH2 0x3360 SWAP1 DUP3 PUSH2 0x49B1 JUMP JUMPDEST POP PUSH1 0x40 DUP3 ADD MLOAD PUSH1 0x2 DUP3 ADD SWAP1 PUSH2 0x3375 SWAP1 DUP3 PUSH2 0x49B1 JUMP JUMPDEST POP PUSH1 0x60 DUP3 ADD MLOAD PUSH1 0x3 DUP3 ADD SWAP1 PUSH2 0x338A SWAP1 DUP3 PUSH2 0x49B1 JUMP JUMPDEST POP PUSH1 0x80 DUP3 ADD MLOAD DUP1 MLOAD PUSH2 0x33A6 SWAP2 PUSH1 0x4 DUP5 ADD SWAP2 PUSH1 0x20 SWAP1 SWAP2 ADD SWAP1 PUSH2 0x3851 JUMP JUMPDEST POP PUSH1 0xA0 SWAP2 SWAP1 SWAP2 ADD MLOAD PUSH1 0x5 SWAP1 SWAP2 ADD SSTORE POP DUP1 PUSH2 0x33BF DUP2 PUSH2 0x4933 JUMP JUMPDEST SWAP2 POP POP PUSH2 0x32CC JUMP JUMPDEST POP POP JUMP JUMPDEST DUP1 MLOAD PUSH1 0x0 JUMPDEST DUP2 DUP2 LT ISZERO PUSH2 0x354F JUMPI DUP3 DUP2 DUP2 MLOAD DUP2 LT PUSH2 0x33EA JUMPI PUSH2 0x33EA PUSH2 0x494C JUMP JUMPDEST PUSH1 0x20 MUL PUSH1 0x20 ADD ADD MLOAD PUSH1 0x0 ADD MLOAD PUSH1 0xFF AND PUSH1 0x2 SUB PUSH2 0x348B JUMPI DUP3 DUP2 DUP2 MLOAD DUP2 LT PUSH2 0x3412 JUMPI PUSH2 0x3412 PUSH2 0x494C JUMP JUMPDEST PUSH1 0x20 MUL PUSH1 0x20 ADD ADD MLOAD PUSH1 0x80 ADD MLOAD MLOAD DUP4 DUP3 DUP2 MLOAD DUP2 LT PUSH2 0x3431 JUMPI PUSH2 0x3431 PUSH2 0x494C JUMP JUMPDEST PUSH1 0x20 MUL PUSH1 0x20 ADD ADD MLOAD PUSH1 0xA0 ADD MLOAD GT ISZERO PUSH2 0x348B JUMPI PUSH1 0x40 MLOAD PUSH3 0x461BCD PUSH1 0xE5 SHL DUP2 MSTORE PUSH1 0x20 PUSH1 0x4 DUP3 ADD MSTORE PUSH1 0x19 PUSH1 0x24 DUP3 ADD MSTORE PUSH32 0x42616C6C6F7473206E6F742073657420636F72726563746C7900000000000000 PUSH1 0x44 DUP3 ADD MSTORE PUSH1 0x64 ADD PUSH2 0x418 JUMP JUMPDEST PUSH1 0x8 DUP4 DUP3 DUP2 MLOAD DUP2 LT PUSH2 0x349F JUMPI PUSH2 0x349F PUSH2 0x494C JUMP JUMPDEST PUSH1 0x20 SWAP1 DUP2 MUL SWAP2 SWAP1 SWAP2 ADD DUP2 ADD MLOAD DUP3 SLOAD PUSH1 0x1 DUP1 DUP3 ADD DUP6 SSTORE PUSH1 0x0 SWAP5 DUP6 MSTORE SWAP4 DUP4 SWAP1 KECCAK256 DUP3 MLOAD PUSH1 0x6 SWAP1 SWAP3 MUL ADD DUP1 SLOAD PUSH1 0xFF NOT AND PUSH1 0xFF SWAP1 SWAP3 AND SWAP2 SWAP1 SWAP2 OR DUP2 SSTORE SWAP2 DUP2 ADD MLOAD SWAP1 SWAP3 DUP3 ADD SWAP1 PUSH2 0x34E9 SWAP1 DUP3 PUSH2 0x49B1 JUMP JUMPDEST POP PUSH1 0x40 DUP3 ADD MLOAD PUSH1 0x2 DUP3 ADD SWAP1 PUSH2 0x34FE SWAP1 DUP3 PUSH2 0x49B1 JUMP JUMPDEST POP PUSH1 0x60 DUP3 ADD MLOAD PUSH1 0x3 DUP3 ADD SWAP1 PUSH2 0x3513 SWAP1 DUP3 PUSH2 0x49B1 JUMP JUMPDEST POP PUSH1 0x80 DUP3 ADD MLOAD DUP1 MLOAD PUSH2 0x352F SWAP2 PUSH1 0x4 DUP5 ADD SWAP2 PUSH1 0x20 SWAP1 SWAP2 ADD SWAP1 PUSH2 0x3851 JUMP JUMPDEST POP PUSH1 0xA0 DUP3 ADD MLOAD DUP2 PUSH1 0x5 ADD SSTORE POP POP DUP1 DUP1 PUSH2 0x3547 SWAP1 PUSH2 0x4933 JUMP JUMPDEST SWAP2 POP POP PUSH2 0x33D0 JUMP JUMPDEST POP PUSH1 0x40 MLOAD PUSH32 0x6692F63DE48205073382C0F71D7ECB24505640478DCC5F61C8ACED55400CA083 SWAP1 PUSH1 0x0 SWAP1 LOG1 POP POP JUMP JUMPDEST PUSH1 0x0 JUMPDEST DUP2 MLOAD DUP2 LT ISZERO PUSH2 0x3741 JUMPI PUSH1 0x8 SLOAD DUP3 MLOAD DUP4 SWAP1 DUP4 SWAP1 DUP2 LT PUSH2 0x35A0 JUMPI PUSH2 0x35A0 PUSH2 0x494C JUMP JUMPDEST PUSH1 0x20 MUL PUSH1 0x20 ADD ADD MLOAD LT PUSH2 0x35E9 JUMPI PUSH1 0x40 MLOAD PUSH3 0x461BCD PUSH1 0xE5 SHL DUP2 MSTORE PUSH1 0x20 PUSH1 0x4 DUP3 ADD MSTORE PUSH1 0x11 PUSH1 0x24 DUP3 ADD MSTORE PUSH17 0x2130B63637BA103737BA103337BAB73217 PUSH1 0x79 SHL PUSH1 0x44 DUP3 ADD MSTORE PUSH1 0x64 ADD PUSH2 0x418 JUMP JUMPDEST PUSH1 0x8 DUP1 SLOAD PUSH2 0x35F9 SWAP1 PUSH1 0x1 SWAP1 PUSH2 0x4A70 JUMP JUMPDEST DUP2 SLOAD DUP2 LT PUSH2 0x3609 JUMPI PUSH2 0x3609 PUSH2 0x494C JUMP JUMPDEST SWAP1 PUSH1 0x0 MSTORE PUSH1 0x20 PUSH1 0x0 KECCAK256 SWAP1 PUSH1 0x6 MUL ADD PUSH1 0x8 DUP4 DUP4 DUP2 MLOAD DUP2 LT PUSH2 0x362B JUMPI PUSH2 0x362B PUSH2 0x494C JUMP JUMPDEST PUSH1 0x20 MUL PUSH1 0x20 ADD ADD MLOAD DUP2 SLOAD DUP2 LT PUSH2 0x3643 JUMPI PUSH2 0x3643 PUSH2 0x494C JUMP JUMPDEST PUSH1 0x0 SWAP2 DUP3 MSTORE PUSH1 0x20 SWAP1 SWAP2 KECCAK256 DUP3 SLOAD PUSH1 0x6 SWAP1 SWAP3 MUL ADD DUP1 SLOAD PUSH1 0xFF NOT AND PUSH1 0xFF SWAP1 SWAP3 AND SWAP2 SWAP1 SWAP2 OR DUP2 SSTORE PUSH1 0x1 DUP1 DUP3 ADD SWAP1 PUSH2 0x3678 SWAP1 DUP5 ADD DUP3 PUSH2 0x4A83 JUMP JUMPDEST POP PUSH1 0x2 DUP2 DUP2 ADD SWAP1 PUSH2 0x368B SWAP1 DUP5 ADD DUP3 PUSH2 0x4A83 JUMP JUMPDEST POP PUSH1 0x3 DUP2 DUP2 ADD SWAP1 PUSH2 0x369E SWAP1 DUP5 ADD DUP3 PUSH2 0x4A83 JUMP JUMPDEST POP PUSH1 0x4 DUP3 DUP2 ADD DUP1 SLOAD PUSH2 0x36B3 SWAP3 DUP5 ADD SWAP2 SWAP1 PUSH2 0x38A7 JUMP JUMPDEST POP PUSH1 0x5 SWAP2 DUP3 ADD SLOAD SWAP2 ADD SSTORE PUSH1 0x8 DUP1 SLOAD DUP1 PUSH2 0x36CE JUMPI PUSH2 0x36CE PUSH2 0x4B5D JUMP JUMPDEST PUSH1 0x0 DUP3 DUP2 MSTORE PUSH1 0x20 DUP2 KECCAK256 PUSH1 0x6 PUSH1 0x0 NOT SWAP1 SWAP4 ADD SWAP3 DUP4 MUL ADD DUP1 SLOAD PUSH1 0xFF NOT AND DUP2 SSTORE SWAP1 PUSH2 0x36F9 PUSH1 0x1 DUP4 ADD DUP3 PUSH2 0x38EF JUMP JUMPDEST PUSH2 0x3707 PUSH1 0x2 DUP4 ADD PUSH1 0x0 PUSH2 0x38EF JUMP JUMPDEST PUSH2 0x3715 PUSH1 0x3 DUP4 ADD PUSH1 0x0 PUSH2 0x38EF JUMP JUMPDEST PUSH2 0x3723 PUSH1 0x4 DUP4 ADD PUSH1 0x0 PUSH2 0x3929 JUMP JUMPDEST POP PUSH1 0x0 PUSH1 0x5 SWAP2 SWAP1 SWAP2 ADD SSTORE SWAP1 SSTORE DUP1 PUSH2 0x3739 DUP2 PUSH2 0x4933 JUMP JUMPDEST SWAP2 POP POP PUSH2 0x3580 JUMP JUMPDEST POP PUSH1 0x40 MLOAD PUSH32 0xB40BF43F519ED7700DFA950FEC11D32F3B7038299B360E9BCC971915D65AB0B9 SWAP1 PUSH1 0x0 SWAP1 LOG1 POP JUMP JUMPDEST PUSH2 0x37B3 DUP2 PUSH1 0x40 MLOAD PUSH1 0x24 ADD PUSH2 0x3784 SWAP2 DUP2 MSTORE PUSH1 0x20 ADD SWAP1 JUMP JUMPDEST PUSH1 0x40 DUP1 MLOAD PUSH1 0x1F NOT DUP2 DUP5 SUB ADD DUP2 MSTORE SWAP2 SWAP1 MSTORE PUSH1 0x20 DUP2 ADD DUP1 MLOAD PUSH1 0x1 PUSH1 0x1 PUSH1 0xE0 SHL SUB AND PUSH4 0xF82C50F1 PUSH1 0xE0 SHL OR SWAP1 MSTORE PUSH2 0x37B6 JUMP JUMPDEST POP JUMP JUMPDEST DUP1 MLOAD PUSH11 0x636F6E736F6C652E6C6F67 PUSH1 0x20 DUP4 ADD PUSH1 0x0 DUP1 DUP5 DUP4 DUP6 GAS STATICCALL POP POP POP POP POP JUMP JUMPDEST PUSH1 0x40 MLOAD DUP1 PUSH1 0xC0 ADD PUSH1 0x40 MSTORE DUP1 PUSH1 0x60 DUP2 MSTORE PUSH1 0x20 ADD PUSH1 0x60 DUP2 MSTORE PUSH1 0x20 ADD PUSH2 0x3814 PUSH1 0x40 MLOAD DUP1 PUSH1 0x60 ADD PUSH1 0x40 MSTORE DUP1 PUSH1 0x60 DUP2 MSTORE PUSH1 0x20 ADD PUSH1 0x60 DUP2 MSTORE PUSH1 0x20 ADD PUSH1 0x60 DUP2 MSTORE POP SWAP1 JUMP JUMPDEST DUP2 MSTORE PUSH1 0x20 ADD PUSH2 0x383D PUSH1 0x40 MLOAD DUP1 PUSH1 0x60 ADD PUSH1 0x40 MSTORE DUP1 PUSH1 0x60 DUP2 MSTORE PUSH1 0x20 ADD PUSH1 0x60 DUP2 MSTORE PUSH1 0x20 ADD PUSH1 0x60 DUP2 MSTORE POP SWAP1 JUMP JUMPDEST DUP2 MSTORE PUSH1 0x20 ADD PUSH1 0x60 DUP2 MSTORE PUSH1 0x20 ADD PUSH1 0x60 DUP2 MSTORE POP SWAP1 JUMP JUMPDEST DUP3 DUP1 SLOAD DUP3 DUP3 SSTORE SWAP1 PUSH1 0x0 MSTORE PUSH1 0x20 PUSH1 0x0 KECCAK256 SWAP1 DUP2 ADD SWAP3 DUP3 ISZERO PUSH2 0x3897 JUMPI SWAP2 PUSH1 0x20 MUL DUP3 ADD JUMPDEST DUP3 DUP2 GT ISZERO PUSH2 0x3897 JUMPI DUP3 MLOAD DUP3 SWAP1 PUSH2 0x3887 SWAP1 DUP3 PUSH2 0x49B1 JUMP JUMPDEST POP SWAP2 PUSH1 0x20 ADD SWAP2 SWAP1 PUSH1 0x1 ADD SWAP1 PUSH2 0x3871 JUMP JUMPDEST POP PUSH2 0x38A3 SWAP3 SWAP2 POP PUSH2 0x3943 JUMP JUMPDEST POP SWAP1 JUMP JUMPDEST DUP3 DUP1 SLOAD DUP3 DUP3 SSTORE SWAP1 PUSH1 0x0 MSTORE PUSH1 0x20 PUSH1 0x0 KECCAK256 SWAP1 DUP2 ADD SWAP3 DUP3 ISZERO PUSH2 0x3897 JUMPI PUSH1 0x0 MSTORE PUSH1 0x20 PUSH1 0x0 KECCAK256 SWAP2 DUP3 ADD JUMPDEST DUP3 DUP2 GT ISZERO PUSH2 0x3897 JUMPI DUP2 PUSH2 0x38DF DUP5 DUP3 PUSH2 0x4A83 JUMP JUMPDEST POP SWAP2 PUSH1 0x1 ADD SWAP2 SWAP1 PUSH1 0x1 ADD SWAP1 PUSH2 0x38CC JUMP JUMPDEST POP DUP1 SLOAD PUSH2 0x38FB SWAP1 PUSH2 0x48E3 JUMP JUMPDEST PUSH1 0x0 DUP3 SSTORE DUP1 PUSH1 0x1F LT PUSH2 0x390B JUMPI POP POP JUMP JUMPDEST PUSH1 0x1F ADD PUSH1 0x20 SWAP1 DIV SWAP1 PUSH1 0x0 MSTORE PUSH1 0x20 PUSH1 0x0 KECCAK256 SWAP1 DUP2 ADD SWAP1 PUSH2 0x37B3 SWAP2 SWAP1 PUSH2 0x3960 JUMP JUMPDEST POP DUP1 SLOAD PUSH1 0x0 DUP3 SSTORE SWAP1 PUSH1 0x0 MSTORE PUSH1 0x20 PUSH1 0x0 KECCAK256 SWAP1 DUP2 ADD SWAP1 PUSH2 0x37B3 SWAP2 SWAP1 JUMPDEST DUP1 DUP3 GT ISZERO PUSH2 0x38A3 JUMPI PUSH1 0x0 PUSH2 0x3957 DUP3 DUP3 PUSH2 0x38EF JUMP JUMPDEST POP PUSH1 0x1 ADD PUSH2 0x3943 JUMP JUMPDEST JUMPDEST DUP1 DUP3 GT ISZERO PUSH2 0x38A3 JUMPI PUSH1 0x0 DUP2 SSTORE PUSH1 0x1 ADD PUSH2 0x3961 JUMP JUMPDEST PUSH1 0x0 DUP2 MLOAD DUP1 DUP5 MSTORE PUSH1 0x0 JUMPDEST DUP2 DUP2 LT ISZERO PUSH2 0x399B JUMPI PUSH1 0x20 DUP2 DUP6 ADD DUP2 ADD MLOAD DUP7 DUP4 ADD DUP3 ADD MSTORE ADD PUSH2 0x397F JUMP JUMPDEST POP PUSH1 0x0 PUSH1 0x20 DUP3 DUP7 ADD ADD MSTORE PUSH1 0x20 PUSH1 0x1F NOT PUSH1 0x1F DUP4 ADD AND DUP6 ADD ADD SWAP2 POP POP SWAP3 SWAP2 POP POP JUMP JUMPDEST PUSH1 0x20 DUP2 MSTORE PUSH1 0x0 PUSH2 0x39CE PUSH1 0x20 DUP4 ADD DUP5 PUSH2 0x3975 JUMP JUMPDEST SWAP4 SWAP3 POP POP POP JUMP JUMPDEST PUSH1 0x0 DUP2 MLOAD DUP1 DUP5 MSTORE PUSH1 0x20 DUP1 DUP6 ADD DUP1 DUP2 SWAP7 POP DUP4 PUSH1 0x5 SHL DUP2 ADD SWAP2 POP DUP3 DUP7 ADD PUSH1 0x0 JUMPDEST DUP6 DUP2 LT ISZERO PUSH2 0x3A1D JUMPI DUP3 DUP5 SUB DUP10 MSTORE PUSH2 0x3A0B DUP5 DUP4 MLOAD PUSH2 0x3975 JUMP JUMPDEST SWAP9 DUP6 ADD SWAP9 SWAP4 POP SWAP1 DUP5 ADD SWAP1 PUSH1 0x1 ADD PUSH2 0x39F3 JUMP JUMPDEST POP SWAP2 SWAP8 SWAP7 POP POP POP POP POP POP POP JUMP JUMPDEST PUSH1 0x0 DUP2 MLOAD PUSH1 0x60 DUP5 MSTORE PUSH2 0x3A3F PUSH1 0x60 DUP6 ADD DUP3 PUSH2 0x39D5 JUMP JUMPDEST SWAP1 POP PUSH1 0x20 DUP4 ADD MLOAD DUP5 DUP3 SUB PUSH1 0x20 DUP7 ADD MSTORE PUSH2 0x3A58 DUP3 DUP3 PUSH2 0x39D5 JUMP JUMPDEST SWAP2 POP POP PUSH1 0x40 DUP4 ADD MLOAD DUP5 DUP3 SUB PUSH1 0x40 DUP7 ADD MSTORE PUSH2 0x3A72 DUP3 DUP3 PUSH2 0x39D5 JUMP JUMPDEST SWAP6 SWAP5 POP POP POP POP POP JUMP JUMPDEST PUSH1 0x0 DUP2 MLOAD PUSH1 0x60 DUP5 MSTORE PUSH2 0x3A90 PUSH1 0x60 DUP6 ADD DUP3 PUSH2 0x3975 JUMP JUMPDEST SWAP1 POP PUSH1 0x20 DUP4 ADD MLOAD DUP5 DUP3 SUB PUSH1 0x20 DUP7 ADD MSTORE PUSH2 0x3A58 DUP3 DUP3 PUSH2 0x3975 JUMP JUMPDEST PUSH1 0x0 DUP2 MLOAD DUP1 DUP5 MSTORE PUSH1 0x20 DUP1 DUP6 ADD DUP1 DUP2 SWAP7 POP DUP4 PUSH1 0x5 SHL DUP2 ADD SWAP2 POP DUP3 DUP7 ADD PUSH1 0x0 JUMPDEST DUP6 DUP2 LT ISZERO PUSH2 0x3A1D JUMPI DUP3 DUP5 SUB DUP10 MSTORE DUP2 MLOAD PUSH1 0xC0 DUP2 MLOAD DUP2 DUP8 MSTORE PUSH2 0x3AE9 DUP3 DUP9 ADD DUP3 PUSH2 0x3975 JUMP JUMPDEST SWAP2 POP POP DUP7 DUP3 ADD MLOAD DUP7 DUP3 SUB DUP9 DUP9 ADD MSTORE PUSH2 0x3B01 DUP3 DUP3 PUSH2 0x3975 JUMP JUMPDEST SWAP2 POP POP PUSH1 0x40 DUP1 DUP4 ADD MLOAD DUP8 DUP4 SUB DUP3 DUP10 ADD MSTORE PUSH2 0x3B1B DUP4 DUP3 PUSH2 0x3A2A JUMP JUMPDEST SWAP3 POP POP POP PUSH1 0x60 DUP1 DUP4 ADD MLOAD DUP8 DUP4 SUB DUP3 DUP10 ADD MSTORE PUSH2 0x3B36 DUP4 DUP3 PUSH2 0x3A7B JUMP JUMPDEST SWAP3 POP POP POP PUSH1 0x80 DUP1 DUP4 ADD MLOAD DUP8 DUP4 SUB DUP3 DUP10 ADD MSTORE PUSH2 0x3B51 DUP4 DUP3 PUSH2 0x3975 JUMP JUMPDEST SWAP3 POP POP POP PUSH1 0xA0 DUP1 DUP4 ADD MLOAD SWAP3 POP DUP7 DUP3 SUB DUP2 DUP9 ADD MSTORE POP PUSH2 0x3B6F DUP2 DUP4 PUSH2 0x3975 JUMP JUMPDEST SWAP11 DUP8 ADD SWAP11 SWAP6 POP POP POP SWAP1 DUP5 ADD SWAP1 PUSH1 0x1 ADD PUSH2 0x3AC7 JUMP JUMPDEST PUSH1 0x0 PUSH1 0x20 DUP1 DUP4 ADD DUP2 DUP5 MSTORE DUP1 DUP6 MLOAD DUP1 DUP4 MSTORE PUSH1 0x40 SWAP3 POP DUP3 DUP7 ADD SWAP2 POP DUP3 DUP2 PUSH1 0x5 SHL DUP8 ADD ADD DUP5 DUP9 ADD PUSH1 0x0 JUMPDEST DUP4 DUP2 LT ISZERO PUSH2 0x3BEC JUMPI DUP9 DUP4 SUB PUSH1 0x3F NOT ADD DUP6 MSTORE DUP2 MLOAD DUP1 MLOAD PUSH1 0xFF AND DUP5 MSTORE DUP8 ADD MLOAD DUP8 DUP5 ADD DUP8 SWAP1 MSTORE PUSH2 0x3BD9 DUP8 DUP6 ADD DUP3 PUSH2 0x3AA9 JUMP JUMPDEST SWAP6 DUP9 ADD SWAP6 SWAP4 POP POP SWAP1 DUP7 ADD SWAP1 PUSH1 0x1 ADD PUSH2 0x3BAA JUMP JUMPDEST POP SWAP1 SWAP9 SWAP8 POP POP POP POP POP POP POP POP JUMP JUMPDEST PUSH1 0x20 DUP1 DUP3 MSTORE DUP3 MLOAD DUP3 DUP3 ADD DUP2 SWAP1 MSTORE PUSH1 0x0 SWAP2 SWAP1 DUP5 DUP3 ADD SWAP1 PUSH1 0x40 DUP6 ADD SWAP1 DUP5 JUMPDEST DUP2 DUP2 LT ISZERO PUSH2 0x3C32 JUMPI DUP4 MLOAD DUP4 MSTORE SWAP3 DUP5 ADD SWAP3 SWAP2 DUP5 ADD SWAP2 PUSH1 0x1 ADD PUSH2 0x3C16 JUMP JUMPDEST POP SWAP1 SWAP7 SWAP6 POP POP POP POP POP POP JUMP JUMPDEST PUSH1 0x0 PUSH1 0x20 DUP3 DUP5 SUB SLT ISZERO PUSH2 0x3C50 JUMPI PUSH1 0x0 DUP1 REVERT JUMPDEST POP CALLDATALOAD SWAP2 SWAP1 POP JUMP JUMPDEST PUSH1 0x0 DUP1 PUSH1 0x0 PUSH1 0x60 DUP5 DUP7 SUB SLT ISZERO PUSH2 0x3C6C JUMPI PUSH1 0x0 DUP1 REVERT JUMPDEST POP POP DUP2 CALLDATALOAD SWAP4 PUSH1 0x20 DUP4 ADD CALLDATALOAD SWAP4 POP PUSH1 0x40 SWAP1 SWAP3 ADD CALLDATALOAD SWAP2 SWAP1 POP JUMP JUMPDEST PUSH1 0xC0 DUP2 MSTORE PUSH1 0x0 PUSH2 0x3C96 PUSH1 0xC0 DUP4 ADD DUP10 PUSH2 0x3975 JUMP JUMPDEST DUP3 DUP2 SUB PUSH1 0x20 DUP5 ADD MSTORE PUSH2 0x3CA8 DUP2 DUP10 PUSH2 0x3975 JUMP JUMPDEST SWAP1 POP DUP3 DUP2 SUB PUSH1 0x40 DUP5 ADD MSTORE PUSH2 0x3CBC DUP2 DUP9 PUSH2 0x3A2A JUMP JUMPDEST SWAP1 POP DUP3 DUP2 SUB PUSH1 0x60 DUP5 ADD MSTORE PUSH2 0x3CD0 DUP2 DUP8 PUSH2 0x3A7B JUMP JUMPDEST SWAP1 POP DUP3 DUP2 SUB PUSH1 0x80 DUP5 ADD MSTORE PUSH2 0x3CE4 DUP2 DUP7 PUSH2 0x3975 JUMP JUMPDEST SWAP1 POP DUP3 DUP2 SUB PUSH1 0xA0 DUP5 ADD MSTORE PUSH2 0x3CF8 DUP2 DUP6 PUSH2 0x3975 JUMP JUMPDEST SWAP10 SWAP9 POP POP POP POP POP POP POP POP POP JUMP JUMPDEST PUSH1 0x0 DUP2 MLOAD DUP1 DUP5 MSTORE PUSH1 0x20 DUP1 DUP6 ADD DUP1 DUP2 SWAP7 POP DUP4 PUSH1 0x5 SHL DUP2 ADD SWAP2 POP DUP3 DUP7 ADD PUSH1 0x0 JUMPDEST DUP6 DUP2 LT ISZERO PUSH2 0x3A1D JUMPI DUP3 DUP5 SUB DUP10 MSTORE DUP2 MLOAD PUSH1 0xC0 PUSH1 0xFF DUP3 MLOAD AND DUP7 MSTORE DUP7 DUP3 ADD MLOAD DUP2 DUP9 DUP9 ADD MSTORE PUSH2 0x3D50 DUP3 DUP9 ADD DUP3 PUSH2 0x3975 JUMP JUMPDEST SWAP2 POP POP PUSH1 0x40 DUP1 DUP4 ADD MLOAD DUP8 DUP4 SUB DUP3 DUP10 ADD MSTORE PUSH2 0x3D6A DUP4 DUP3 PUSH2 0x3975 JUMP JUMPDEST SWAP3 POP POP POP PUSH1 0x60 DUP1 DUP4 ADD MLOAD DUP8 DUP4 SUB DUP3 DUP10 ADD MSTORE PUSH2 0x3D85 DUP4 DUP3 PUSH2 0x3975 JUMP JUMPDEST SWAP3 POP POP POP PUSH1 0x80 DUP1 DUP4 ADD MLOAD DUP8 DUP4 SUB DUP3 DUP10 ADD MSTORE PUSH2 0x3DA0 DUP4 DUP3 PUSH2 0x39D5 JUMP JUMPDEST PUSH1 0xA0 SWAP5 DUP6 ADD MLOAD SWAP9 SWAP1 SWAP5 ADD SWAP8 SWAP1 SWAP8 MSTORE POP POP SWAP9 DUP6 ADD SWAP9 SWAP4 POP SWAP1 DUP5 ADD SWAP1 PUSH1 0x1 ADD PUSH2 0x3D23 JUMP JUMPDEST PUSH1 0x20 DUP2 MSTORE PUSH1 0x0 PUSH2 0x39CE PUSH1 0x20 DUP4 ADD DUP5 PUSH2 0x3D05 JUMP JUMPDEST PUSH4 0x4E487B71 PUSH1 0xE0 SHL PUSH1 0x0 MSTORE PUSH1 0x21 PUSH1 0x4 MSTORE PUSH1 0x24 PUSH1 0x0 REVERT JUMPDEST PUSH1 0x4 DUP2 LT PUSH2 0x3E09 JUMPI PUSH4 0x4E487B71 PUSH1 0xE0 SHL PUSH1 0x0 MSTORE PUSH1 0x21 PUSH1 0x4 MSTORE PUSH1 0x24 PUSH1 0x0 REVERT JUMPDEST SWAP1 MSTORE JUMP JUMPDEST PUSH1 0x20 DUP2 ADD PUSH2 0x3E1B DUP3 DUP5 PUSH2 0x3DEB JUMP JUMPDEST SWAP3 SWAP2 POP POP JUMP JUMPDEST PUSH1 0x0 PUSH1 0x20 DUP1 DUP4 ADD DUP2 DUP5 MSTORE DUP1 DUP6 MLOAD DUP1 DUP4 MSTORE PUSH1 0x40 DUP7 ADD SWAP2 POP PUSH1 0x40 DUP2 PUSH1 0x5 SHL DUP8 ADD ADD SWAP3 POP DUP4 DUP8 ADD PUSH1 0x0 JUMPDEST DUP3 DUP2 LT ISZERO PUSH2 0x3E76 JUMPI PUSH1 0x3F NOT DUP9 DUP7 SUB ADD DUP5 MSTORE PUSH2 0x3E64 DUP6 DUP4 MLOAD PUSH2 0x3AA9 JUMP JUMPDEST SWAP5 POP SWAP3 DUP6 ADD SWAP3 SWAP1 DUP6 ADD SWAP1 PUSH1 0x1 ADD PUSH2 0x3E48 JUMP JUMPDEST POP SWAP3 SWAP8 SWAP7 POP POP POP POP POP POP POP JUMP JUMPDEST PUSH4 0x4E487B71 PUSH1 0xE0 SHL PUSH1 0x0 MSTORE PUSH1 0x41 PUSH1 0x4 MSTORE PUSH1 0x24 PUSH1 0x0 REVERT JUMPDEST PUSH1 0x40 MLOAD PUSH1 0xC0 DUP2 ADD PUSH1 0x1 PUSH1 0x1 PUSH1 0x40 SHL SUB DUP2 GT DUP3 DUP3 LT OR ISZERO PUSH2 0x3EBB JUMPI PUSH2 0x3EBB PUSH2 0x3E83 JUMP JUMPDEST PUSH1 0x40 MSTORE SWAP1 JUMP JUMPDEST PUSH1 0x40 DUP1 MLOAD SWAP1 DUP2 ADD PUSH1 0x1 PUSH1 0x1 PUSH1 0x40 SHL SUB DUP2 GT DUP3 DUP3 LT OR ISZERO PUSH2 0x3EBB JUMPI PUSH2 0x3EBB PUSH2 0x3E83 JUMP JUMPDEST PUSH1 0x40 MLOAD PUSH1 0x80 DUP2 ADD PUSH1 0x1 PUSH1 0x1 PUSH1 0x40 SHL SUB DUP2 GT DUP3 DUP3 LT OR ISZERO PUSH2 0x3EBB JUMPI PUSH2 0x3EBB PUSH2 0x3E83 JUMP JUMPDEST PUSH1 0x40 MLOAD PUSH1 0x60 DUP2 ADD PUSH1 0x1 PUSH1 0x1 PUSH1 0x40 SHL SUB DUP2 GT DUP3 DUP3 LT OR ISZERO PUSH2 0x3EBB JUMPI PUSH2 0x3EBB PUSH2 0x3E83 JUMP JUMPDEST PUSH1 0x40 MLOAD PUSH1 0x1F DUP3 ADD PUSH1 0x1F NOT AND DUP2 ADD PUSH1 0x1 PUSH1 0x1 PUSH1 0x40 SHL SUB DUP2 GT DUP3 DUP3 LT OR ISZERO PUSH2 0x3F4F JUMPI PUSH2 0x3F4F PUSH2 0x3E83 JUMP JUMPDEST PUSH1 0x40 MSTORE SWAP2 SWAP1 POP JUMP JUMPDEST PUSH1 0x0 DUP3 PUSH1 0x1F DUP4 ADD SLT PUSH2 0x3F68 JUMPI PUSH1 0x0 DUP1 REVERT JUMPDEST DUP2 CALLDATALOAD PUSH1 0x1 PUSH1 0x1 PUSH1 0x40 SHL SUB DUP2 GT ISZERO PUSH2 0x3F81 JUMPI PUSH2 0x3F81 PUSH2 0x3E83 JUMP JUMPDEST PUSH2 0x3F94 PUSH1 0x1F DUP3 ADD PUSH1 0x1F NOT AND PUSH1 0x20 ADD PUSH2 0x3F27 JUMP JUMPDEST DUP2 DUP2 MSTORE DUP5 PUSH1 0x20 DUP4 DUP7 ADD ADD GT ISZERO PUSH2 0x3FA9 JUMPI PUSH1 0x0 DUP1 REVERT JUMPDEST DUP2 PUSH1 0x20 DUP6 ADD PUSH1 0x20 DUP4 ADD CALLDATACOPY PUSH1 0x0 SWAP2 DUP2 ADD PUSH1 0x20 ADD SWAP2 SWAP1 SWAP2 MSTORE SWAP4 SWAP3 POP POP POP JUMP JUMPDEST PUSH1 0x0 PUSH1 0x1 PUSH1 0x1 PUSH1 0x40 SHL SUB DUP3 GT ISZERO PUSH2 0x3FDF JUMPI PUSH2 0x3FDF PUSH2 0x3E83 JUMP JUMPDEST POP PUSH1 0x5 SHL PUSH1 0x20 ADD SWAP1 JUMP JUMPDEST DUP1 CALLDATALOAD PUSH1 0xFF DUP2 AND DUP2 EQ PUSH2 0x3FFA JUMPI PUSH1 0x0 DUP1 REVERT JUMPDEST SWAP2 SWAP1 POP JUMP JUMPDEST PUSH1 0x0 DUP3 PUSH1 0x1F DUP4 ADD SLT PUSH2 0x4010 JUMPI PUSH1 0x0 DUP1 REVERT JUMPDEST DUP2 CALLDATALOAD PUSH1 0x20 PUSH2 0x4025 PUSH2 0x4020 DUP4 PUSH2 0x3FC6 JUMP JUMPDEST PUSH2 0x3F27 JUMP JUMPDEST DUP3 DUP2 MSTORE PUSH1 0x5 SWAP3 SWAP1 SWAP3 SHL DUP5 ADD DUP2 ADD SWAP2 DUP2 DUP2 ADD SWAP1 DUP7 DUP5 GT ISZERO PUSH2 0x4044 JUMPI PUSH1 0x0 DUP1 REVERT JUMPDEST DUP3 DUP7 ADD JUMPDEST DUP5 DUP2 LT ISZERO PUSH2 0x4083 JUMPI DUP1 CALLDATALOAD PUSH1 0x1 PUSH1 0x1 PUSH1 0x40 SHL SUB DUP2 GT ISZERO PUSH2 0x4067 JUMPI PUSH1 0x0 DUP1 DUP2 REVERT JUMPDEST PUSH2 0x4075 DUP10 DUP7 DUP4 DUP12 ADD ADD PUSH2 0x3F57 JUMP JUMPDEST DUP5 MSTORE POP SWAP2 DUP4 ADD SWAP2 DUP4 ADD PUSH2 0x4048 JUMP JUMPDEST POP SWAP7 SWAP6 POP POP POP POP POP POP JUMP JUMPDEST PUSH1 0x0 PUSH1 0xC0 DUP3 DUP5 SUB SLT ISZERO PUSH2 0x40A0 JUMPI PUSH1 0x0 DUP1 REVERT JUMPDEST PUSH2 0x40A8 PUSH2 0x3E99 JUMP JUMPDEST SWAP1 POP PUSH2 0x40B3 DUP3 PUSH2 0x3FE9 JUMP JUMPDEST DUP2 MSTORE PUSH1 0x20 DUP3 ADD CALLDATALOAD PUSH1 0x1 PUSH1 0x1 PUSH1 0x40 SHL SUB DUP1 DUP3 GT ISZERO PUSH2 0x40CF JUMPI PUSH1 0x0 DUP1 REVERT JUMPDEST PUSH2 0x40DB DUP6 DUP4 DUP7 ADD PUSH2 0x3F57 JUMP JUMPDEST PUSH1 0x20 DUP5 ADD MSTORE PUSH1 0x40 DUP5 ADD CALLDATALOAD SWAP2 POP DUP1 DUP3 GT ISZERO PUSH2 0x40F4 JUMPI PUSH1 0x0 DUP1 REVERT JUMPDEST PUSH2 0x4100 DUP6 DUP4 DUP7 ADD PUSH2 0x3F57 JUMP JUMPDEST PUSH1 0x40 DUP5 ADD MSTORE PUSH1 0x60 DUP5 ADD CALLDATALOAD SWAP2 POP DUP1 DUP3 GT ISZERO PUSH2 0x4119 JUMPI PUSH1 0x0 DUP1 REVERT JUMPDEST PUSH2 0x4125 DUP6 DUP4 DUP7 ADD PUSH2 0x3F57 JUMP JUMPDEST PUSH1 0x60 DUP5 ADD MSTORE PUSH1 0x80 DUP5 ADD CALLDATALOAD SWAP2 POP DUP1 DUP3 GT ISZERO PUSH2 0x413E JUMPI PUSH1 0x0 DUP1 REVERT JUMPDEST POP PUSH2 0x414B DUP5 DUP3 DUP6 ADD PUSH2 0x3FFF JUMP JUMPDEST PUSH1 0x80 DUP4 ADD MSTORE POP PUSH1 0xA0 DUP3 ADD CALLDATALOAD PUSH1 0xA0 DUP3 ADD MSTORE SWAP3 SWAP2 POP POP JUMP JUMPDEST PUSH1 0x0 DUP3 PUSH1 0x1F DUP4 ADD SLT PUSH2 0x4172 JUMPI PUSH1 0x0 DUP1 REVERT JUMPDEST DUP2 CALLDATALOAD PUSH1 0x20 PUSH2 0x4182 PUSH2 0x4020 DUP4 PUSH2 0x3FC6 JUMP JUMPDEST DUP3 DUP2 MSTORE PUSH1 0x5 SWAP3 SWAP1 SWAP3 SHL DUP5 ADD DUP2 ADD SWAP2 DUP2 DUP2 ADD SWAP1 DUP7 DUP5 GT ISZERO PUSH2 0x41A1 JUMPI PUSH1 0x0 DUP1 REVERT JUMPDEST DUP3 DUP7 ADD JUMPDEST DUP5 DUP2 LT ISZERO PUSH2 0x4083 JUMPI DUP1 CALLDATALOAD PUSH1 0x1 PUSH1 0x1 PUSH1 0x40 SHL SUB DUP1 DUP3 GT ISZERO PUSH2 0x41C5 JUMPI PUSH1 0x0 DUP1 DUP2 REVERT JUMPDEST SWAP1 DUP9 ADD SWAP1 PUSH1 0x40 DUP3 DUP12 SUB PUSH1 0x1F NOT ADD DUP2 SGT ISZERO PUSH2 0x41DF JUMPI PUSH1 0x0 DUP1 DUP2 REVERT JUMPDEST PUSH2 0x41E7 PUSH2 0x3EC1 JUMP JUMPDEST DUP4 DUP9 ADD CALLDATALOAD DUP2 MSTORE SWAP1 DUP4 ADD CALLDATALOAD SWAP1 DUP3 DUP3 GT ISZERO PUSH2 0x4200 JUMPI PUSH1 0x0 DUP1 DUP2 REVERT JUMPDEST PUSH2 0x420E DUP13 DUP10 DUP5 DUP8 ADD ADD PUSH2 0x408E JUMP JUMPDEST DUP2 DUP10 ADD MSTORE DUP7 MSTORE POP POP POP SWAP2 DUP4 ADD SWAP2 DUP4 ADD PUSH2 0x41A5 JUMP JUMPDEST PUSH1 0x0 DUP3 PUSH1 0x1F DUP4 ADD SLT PUSH2 0x4233 JUMPI PUSH1 0x0 DUP1 REVERT JUMPDEST DUP2 CALLDATALOAD PUSH1 0x20 PUSH2 0x4243 PUSH2 0x4020 DUP4 PUSH2 0x3FC6 JUMP JUMPDEST DUP3 DUP2 MSTORE PUSH1 0x5 SWAP3 SWAP1 SWAP3 SHL DUP5 ADD DUP2 ADD SWAP2 DUP2 DUP2 ADD SWAP1 DUP7 DUP5 GT ISZERO PUSH2 0x4262 JUMPI PUSH1 0x0 DUP1 REVERT JUMPDEST DUP3 DUP7 ADD JUMPDEST DUP5 DUP2 LT ISZERO PUSH2 0x4083 JUMPI DUP1 CALLDATALOAD PUSH1 0x1 PUSH1 0x1 PUSH1 0x40 SHL SUB DUP2 GT ISZERO PUSH2 0x4285 JUMPI PUSH1 0x0 DUP1 DUP2 REVERT JUMPDEST PUSH2 0x4293 DUP10 DUP7 DUP4 DUP12 ADD ADD PUSH2 0x408E JUMP JUMPDEST DUP5 MSTORE POP SWAP2 DUP4 ADD SWAP2 DUP4 ADD PUSH2 0x4266 JUMP JUMPDEST PUSH1 0x0 DUP3 PUSH1 0x1F DUP4 ADD SLT PUSH2 0x42B2 JUMPI PUSH1 0x0 DUP1 REVERT JUMPDEST DUP2 CALLDATALOAD PUSH1 0x20 PUSH2 0x42C2 PUSH2 0x4020 DUP4 PUSH2 0x3FC6 JUMP JUMPDEST DUP3 DUP2 MSTORE PUSH1 0x5 SWAP3 SWAP1 SWAP3 SHL DUP5 ADD DUP2 ADD SWAP2 DUP2 DUP2 ADD SWAP1 DUP7 DUP5 GT ISZERO PUSH2 0x42E1 JUMPI PUSH1 0x0 DUP1 REVERT JUMPDEST DUP3 DUP7 ADD JUMPDEST DUP5 DUP2 LT ISZERO PUSH2 0x4083 JUMPI DUP1 CALLDATALOAD DUP4 MSTORE SWAP2 DUP4 ADD SWAP2 DUP4 ADD PUSH2 0x42E5 JUMP JUMPDEST PUSH1 0x0 DUP1 PUSH1 0x0 DUP1 PUSH1 0x80 DUP6 DUP8 SUB SLT ISZERO PUSH2 0x4312 JUMPI PUSH1 0x0 DUP1 REVERT JUMPDEST DUP5 CALLDATALOAD PUSH1 0x1 PUSH1 0x1 PUSH1 0x40 SHL SUB DUP1 DUP3 GT ISZERO PUSH2 0x4329 JUMPI PUSH1 0x0 DUP1 REVERT JUMPDEST SWAP1 DUP7 ADD SWAP1 PUSH1 0x80 DUP3 DUP10 SUB SLT ISZERO PUSH2 0x433D JUMPI PUSH1 0x0 DUP1 REVERT JUMPDEST PUSH2 0x4345 PUSH2 0x3EE3 JUMP JUMPDEST DUP3 CALLDATALOAD DUP3 DUP2 GT ISZERO PUSH2 0x4354 JUMPI PUSH1 0x0 DUP1 REVERT JUMPDEST PUSH2 0x4360 DUP11 DUP3 DUP7 ADD PUSH2 0x3F57 JUMP JUMPDEST DUP3 MSTORE POP PUSH1 0x20 DUP4 ADD CALLDATALOAD DUP3 DUP2 GT ISZERO PUSH2 0x4375 JUMPI PUSH1 0x0 DUP1 REVERT JUMPDEST PUSH2 0x4381 DUP11 DUP3 DUP7 ADD PUSH2 0x3F57 JUMP JUMPDEST PUSH1 0x20 DUP4 ADD MSTORE POP PUSH1 0x40 DUP4 ADD CALLDATALOAD PUSH1 0x40 DUP3 ADD MSTORE PUSH1 0x60 DUP4 ADD CALLDATALOAD PUSH1 0x60 DUP3 ADD MSTORE DUP1 SWAP7 POP POP PUSH1 0x20 DUP8 ADD CALLDATALOAD SWAP2 POP DUP1 DUP3 GT ISZERO PUSH2 0x43B3 JUMPI PUSH1 0x0 DUP1 REVERT JUMPDEST PUSH2 0x43BF DUP9 DUP4 DUP10 ADD PUSH2 0x4161 JUMP JUMPDEST SWAP5 POP PUSH1 0x40 DUP8 ADD CALLDATALOAD SWAP2 POP DUP1 DUP3 GT ISZERO PUSH2 0x43D5 JUMPI PUSH1 0x0 DUP1 REVERT JUMPDEST PUSH2 0x43E1 DUP9 DUP4 DUP10 ADD PUSH2 0x4222 JUMP JUMPDEST SWAP4 POP PUSH1 0x60 DUP8 ADD CALLDATALOAD SWAP2 POP DUP1 DUP3 GT ISZERO PUSH2 0x43F7 JUMPI PUSH1 0x0 DUP1 REVERT JUMPDEST POP PUSH2 0x4404 DUP8 DUP3 DUP9 ADD PUSH2 0x42A1 JUMP JUMPDEST SWAP2 POP POP SWAP3 SWAP6 SWAP2 SWAP5 POP SWAP3 POP JUMP JUMPDEST PUSH1 0xFF DUP7 AND DUP2 MSTORE PUSH1 0xA0 PUSH1 0x20 DUP3 ADD MSTORE PUSH1 0x0 PUSH2 0x442C PUSH1 0xA0 DUP4 ADD DUP8 PUSH2 0x3975 JUMP JUMPDEST DUP3 DUP2 SUB PUSH1 0x40 DUP5 ADD MSTORE PUSH2 0x443E DUP2 DUP8 PUSH2 0x3975 JUMP JUMPDEST SWAP1 POP DUP3 DUP2 SUB PUSH1 0x60 DUP5 ADD MSTORE PUSH2 0x4452 DUP2 DUP7 PUSH2 0x3975 JUMP JUMPDEST SWAP2 POP POP DUP3 PUSH1 0x80 DUP4 ADD MSTORE SWAP7 SWAP6 POP POP POP POP POP POP JUMP JUMPDEST PUSH1 0x1 PUSH1 0x1 PUSH1 0xA0 SHL SUB DUP11 AND DUP2 MSTORE PUSH2 0x120 PUSH1 0x20 DUP3 ADD DUP2 SWAP1 MSTORE PUSH1 0x0 SWAP1 PUSH2 0x448A DUP4 DUP3 ADD DUP13 PUSH2 0x3975 JUMP JUMPDEST SWAP1 POP DUP3 DUP2 SUB PUSH1 0x40 DUP5 ADD MSTORE PUSH2 0x449E DUP2 DUP12 PUSH2 0x3975 JUMP JUMPDEST SWAP1 POP PUSH2 0x44AD PUSH1 0x60 DUP5 ADD DUP11 PUSH2 0x3DEB JUMP JUMPDEST DUP8 PUSH1 0x80 DUP5 ADD MSTORE DUP7 PUSH1 0xA0 DUP5 ADD MSTORE DUP6 PUSH1 0xC0 DUP5 ADD MSTORE DUP5 PUSH1 0xE0 DUP5 ADD MSTORE DUP3 DUP2 SUB PUSH2 0x100 DUP5 ADD MSTORE PUSH2 0x44D8 DUP2 DUP6 PUSH2 0x3D05 JUMP JUMPDEST SWAP13 SWAP12 POP POP POP POP POP POP POP POP POP POP POP POP JUMP JUMPDEST PUSH1 0x0 PUSH1 0x60 DUP3 DUP5 SUB SLT ISZERO PUSH2 0x44FA JUMPI PUSH1 0x0 DUP1 REVERT JUMPDEST PUSH2 0x4502 PUSH2 0x3F05 JUMP JUMPDEST SWAP1 POP DUP2 CALLDATALOAD PUSH1 0x1 PUSH1 0x1 PUSH1 0x40 SHL SUB DUP1 DUP3 GT ISZERO PUSH2 0x451B JUMPI PUSH1 0x0 DUP1 REVERT JUMPDEST PUSH2 0x4527 DUP6 DUP4 DUP7 ADD PUSH2 0x3FFF JUMP JUMPDEST DUP4 MSTORE PUSH1 0x20 DUP5 ADD CALLDATALOAD SWAP2 POP DUP1 DUP3 GT ISZERO PUSH2 0x453D JUMPI PUSH1 0x0 DUP1 REVERT JUMPDEST PUSH2 0x4549 DUP6 DUP4 DUP7 ADD PUSH2 0x3FFF JUMP JUMPDEST PUSH1 0x20 DUP5 ADD MSTORE PUSH1 0x40 DUP5 ADD CALLDATALOAD SWAP2 POP DUP1 DUP3 GT ISZERO PUSH2 0x4562 JUMPI PUSH1 0x0 DUP1 REVERT JUMPDEST POP PUSH2 0x456F DUP5 DUP3 DUP6 ADD PUSH2 0x3FFF JUMP JUMPDEST PUSH1 0x40 DUP4 ADD MSTORE POP SWAP3 SWAP2 POP POP JUMP JUMPDEST PUSH1 0x0 PUSH1 0x60 DUP3 DUP5 SUB SLT ISZERO PUSH2 0x458D JUMPI PUSH1 0x0 DUP1 REVERT JUMPDEST PUSH2 0x4595 PUSH2 0x3F05 JUMP JUMPDEST SWAP1 POP DUP2 CALLDATALOAD PUSH1 0x1 PUSH1 0x1 PUSH1 0x40 SHL SUB DUP1 DUP3 GT ISZERO PUSH2 0x45AE JUMPI PUSH1 0x0 DUP1 REVERT JUMPDEST PUSH2 0x45BA DUP6 DUP4 DUP7 ADD PUSH2 0x3F57 JUMP JUMPDEST DUP4 MSTORE PUSH1 0x20 DUP5 ADD CALLDATALOAD SWAP2 POP DUP1 DUP3 GT ISZERO PUSH2 0x45D0 JUMPI PUSH1 0x0 DUP1 REVERT JUMPDEST PUSH2 0x4549 DUP6 DUP4 DUP7 ADD PUSH2 0x3F57 JUMP JUMPDEST PUSH1 0x0 PUSH1 0xC0 DUP3 DUP5 SUB SLT ISZERO PUSH2 0x45EE JUMPI PUSH1 0x0 DUP1 REVERT JUMPDEST PUSH2 0x45F6 PUSH2 0x3E99 JUMP JUMPDEST SWAP1 POP DUP2 CALLDATALOAD PUSH1 0x1 PUSH1 0x1 PUSH1 0x40 SHL SUB DUP1 DUP3 GT ISZERO PUSH2 0x460F JUMPI PUSH1 0x0 DUP1 REVERT JUMPDEST PUSH2 0x461B DUP6 DUP4 DUP7 ADD PUSH2 0x3F57 JUMP JUMPDEST DUP4 MSTORE PUSH1 0x20 DUP5 ADD CALLDATALOAD SWAP2 POP DUP1 DUP3 GT ISZERO PUSH2 0x4631 JUMPI PUSH1 0x0 DUP1 REVERT JUMPDEST PUSH2 0x463D DUP6 DUP4 DUP7 ADD PUSH2 0x3F57 JUMP JUMPDEST PUSH1 0x20 DUP5 ADD MSTORE PUSH1 0x40 DUP5 ADD CALLDATALOAD SWAP2 POP DUP1 DUP3 GT ISZERO PUSH2 0x4656 JUMPI PUSH1 0x0 DUP1 REVERT JUMPDEST PUSH2 0x4662 DUP6 DUP4 DUP7 ADD PUSH2 0x44E8 JUMP JUMPDEST PUSH1 0x40 DUP5 ADD MSTORE PUSH1 0x60 DUP5 ADD CALLDATALOAD SWAP2 POP DUP1 DUP3 GT ISZERO PUSH2 0x467B JUMPI PUSH1 0x0 DUP1 REVERT JUMPDEST PUSH2 0x4687 DUP6 DUP4 DUP7 ADD PUSH2 0x457B JUMP JUMPDEST PUSH1 0x60 DUP5 ADD MSTORE PUSH1 0x80 DUP5 ADD CALLDATALOAD SWAP2 POP DUP1 DUP3 GT ISZERO PUSH2 0x46A0 JUMPI PUSH1 0x0 DUP1 REVERT JUMPDEST PUSH2 0x46AC DUP6 DUP4 DUP7 ADD PUSH2 0x3F57 JUMP JUMPDEST PUSH1 0x80 DUP5 ADD MSTORE PUSH1 0xA0 DUP5 ADD CALLDATALOAD SWAP2 POP DUP1 DUP3 GT ISZERO PUSH2 0x46C5 JUMPI PUSH1 0x0 DUP1 REVERT JUMPDEST POP PUSH2 0x46D2 DUP5 DUP3 DUP6 ADD PUSH2 0x3F57 JUMP JUMPDEST PUSH1 0xA0 DUP4 ADD MSTORE POP SWAP3 SWAP2 POP POP JUMP JUMPDEST PUSH1 0x0 PUSH1 0x20 DUP3 DUP5 SUB SLT ISZERO PUSH2 0x46F0 JUMPI PUSH1 0x0 DUP1 REVERT JUMPDEST DUP2 CALLDATALOAD PUSH1 0x1 PUSH1 0x1 PUSH1 0x40 SHL SUB DUP2 GT ISZERO PUSH2 0x4706 JUMPI PUSH1 0x0 DUP1 REVERT JUMPDEST PUSH2 0x4712 DUP5 DUP3 DUP6 ADD PUSH2 0x45DC JUMP JUMPDEST SWAP5 SWAP4 POP POP POP POP JUMP JUMPDEST PUSH1 0x0 DUP1 PUSH1 0x40 DUP4 DUP6 SUB SLT ISZERO PUSH2 0x472D JUMPI PUSH1 0x0 DUP1 REVERT JUMPDEST POP POP DUP1 CALLDATALOAD SWAP3 PUSH1 0x20 SWAP1 SWAP2 ADD CALLDATALOAD SWAP2 POP JUMP JUMPDEST PUSH1 0x0 DUP1 PUSH1 0x40 DUP4 DUP6 SUB SLT ISZERO PUSH2 0x474F JUMPI PUSH1 0x0 DUP1 REVERT JUMPDEST DUP3 CALLDATALOAD PUSH1 0x1 PUSH1 0x1 PUSH1 0xA0 SHL SUB DUP2 AND DUP2 EQ PUSH2 0x4766 JUMPI PUSH1 0x0 DUP1 REVERT JUMPDEST SWAP5 PUSH1 0x20 SWAP4 SWAP1 SWAP4 ADD CALLDATALOAD SWAP4 POP POP POP JUMP JUMPDEST PUSH1 0x0 PUSH1 0x20 DUP3 DUP5 SUB SLT ISZERO PUSH2 0x4786 JUMPI PUSH1 0x0 DUP1 REVERT JUMPDEST PUSH1 0x1 PUSH1 0x1 PUSH1 0x40 SHL SUB DUP1 DUP4 CALLDATALOAD GT ISZERO PUSH2 0x479C JUMPI PUSH1 0x0 DUP1 REVERT JUMPDEST DUP3 CALLDATALOAD DUP4 ADD DUP5 PUSH1 0x1F DUP3 ADD SLT PUSH2 0x47AF JUMPI PUSH1 0x0 DUP1 REVERT JUMPDEST PUSH2 0x47BC PUSH2 0x4020 DUP3 CALLDATALOAD PUSH2 0x3FC6 JUMP JUMPDEST DUP2 CALLDATALOAD DUP1 DUP3 MSTORE PUSH1 0x20 DUP1 DUP4 ADD SWAP3 SWAP2 PUSH1 0x5 SHL DUP5 ADD ADD DUP8 DUP2 GT ISZERO PUSH2 0x47DB JUMPI PUSH1 0x0 DUP1 REVERT JUMPDEST PUSH1 0x20 DUP5 ADD JUMPDEST DUP2 DUP2 LT ISZERO PUSH2 0x48D6 JUMPI DUP6 DUP2 CALLDATALOAD GT ISZERO PUSH2 0x47F6 JUMPI PUSH1 0x0 DUP1 REVERT JUMPDEST DUP1 CALLDATALOAD DUP6 ADD PUSH1 0x40 DUP2 DUP12 SUB PUSH1 0x1F NOT ADD SLT ISZERO PUSH2 0x480E JUMPI PUSH1 0x0 DUP1 REVERT JUMPDEST PUSH2 0x4816 PUSH2 0x3EC1 JUMP JUMPDEST PUSH2 0x4822 PUSH1 0x20 DUP4 ADD PUSH2 0x3FE9 JUMP JUMPDEST DUP2 MSTORE PUSH1 0x40 DUP3 ADD CALLDATALOAD DUP9 DUP2 GT ISZERO PUSH2 0x4836 JUMPI PUSH1 0x0 DUP1 REVERT JUMPDEST DUP1 DUP4 ADD SWAP3 POP POP DUP11 PUSH1 0x3F DUP4 ADD SLT PUSH2 0x484B JUMPI PUSH1 0x0 DUP1 REVERT JUMPDEST PUSH1 0x20 DUP3 ADD CALLDATALOAD PUSH2 0x485C PUSH2 0x4020 DUP3 PUSH2 0x3FC6 JUMP JUMPDEST DUP2 DUP2 MSTORE PUSH1 0x5 SWAP2 SWAP1 SWAP2 SHL DUP4 ADD PUSH1 0x40 ADD SWAP1 PUSH1 0x20 DUP2 ADD SWAP1 DUP14 DUP4 GT ISZERO PUSH2 0x487D JUMPI PUSH1 0x0 DUP1 REVERT JUMPDEST PUSH1 0x40 DUP6 ADD JUMPDEST DUP4 DUP2 LT ISZERO PUSH2 0x48B6 JUMPI DUP12 DUP2 CALLDATALOAD GT ISZERO PUSH2 0x4898 JUMPI PUSH1 0x0 DUP1 REVERT JUMPDEST PUSH2 0x48A8 DUP16 PUSH1 0x40 DUP4 CALLDATALOAD DUP10 ADD ADD PUSH2 0x45DC JUMP JUMPDEST DUP4 MSTORE PUSH1 0x20 SWAP3 DUP4 ADD SWAP3 ADD PUSH2 0x4882 JUMP JUMPDEST POP DUP1 PUSH1 0x20 DUP6 ADD MSTORE POP POP POP DUP1 DUP7 MSTORE POP POP PUSH1 0x20 DUP5 ADD SWAP4 POP PUSH1 0x20 DUP2 ADD SWAP1 POP PUSH2 0x47E0 JUMP JUMPDEST POP SWAP1 SWAP8 SWAP7 POP POP POP POP POP POP POP JUMP JUMPDEST PUSH1 0x1 DUP2 DUP2 SHR SWAP1 DUP3 AND DUP1 PUSH2 0x48F7 JUMPI PUSH1 0x7F DUP3 AND SWAP2 POP JUMPDEST PUSH1 0x20 DUP3 LT DUP2 SUB PUSH2 0x4917 JUMPI PUSH4 0x4E487B71 PUSH1 0xE0 SHL PUSH1 0x0 MSTORE PUSH1 0x22 PUSH1 0x4 MSTORE PUSH1 0x24 PUSH1 0x0 REVERT JUMPDEST POP SWAP2 SWAP1 POP JUMP JUMPDEST PUSH4 0x4E487B71 PUSH1 0xE0 SHL PUSH1 0x0 MSTORE PUSH1 0x11 PUSH1 0x4 MSTORE PUSH1 0x24 PUSH1 0x0 REVERT JUMPDEST PUSH1 0x0 PUSH1 0x1 DUP3 ADD PUSH2 0x4945 JUMPI PUSH2 0x4945 PUSH2 0x491D JUMP JUMPDEST POP PUSH1 0x1 ADD SWAP1 JUMP JUMPDEST PUSH4 0x4E487B71 PUSH1 0xE0 SHL PUSH1 0x0 MSTORE PUSH1 0x32 PUSH1 0x4 MSTORE PUSH1 0x24 PUSH1 0x0 REVERT JUMPDEST PUSH1 0x1F DUP3 GT ISZERO PUSH2 0x49AC JUMPI PUSH1 0x0 DUP2 DUP2 MSTORE PUSH1 0x20 DUP2 KECCAK256 PUSH1 0x1F DUP6 ADD PUSH1 0x5 SHR DUP2 ADD PUSH1 0x20 DUP7 LT ISZERO PUSH2 0x4989 JUMPI POP DUP1 JUMPDEST PUSH1 0x1F DUP6 ADD PUSH1 0x5 SHR DUP3 ADD SWAP2 POP JUMPDEST DUP2 DUP2 LT ISZERO PUSH2 0x49A8 JUMPI DUP3 DUP2 SSTORE PUSH1 0x1 ADD PUSH2 0x4995 JUMP JUMPDEST POP POP POP JUMPDEST POP POP POP JUMP JUMPDEST DUP2 MLOAD PUSH1 0x1 PUSH1 0x1 PUSH1 0x40 SHL SUB DUP2 GT ISZERO PUSH2 0x49CA JUMPI PUSH2 0x49CA PUSH2 0x3E83 JUMP JUMPDEST PUSH2 0x49DE DUP2 PUSH2 0x49D8 DUP5 SLOAD PUSH2 0x48E3 JUMP JUMPDEST DUP5 PUSH2 0x4962 JUMP JUMPDEST PUSH1 0x20 DUP1 PUSH1 0x1F DUP4 GT PUSH1 0x1 DUP2 EQ PUSH2 0x4A13 JUMPI PUSH1 0x0 DUP5 ISZERO PUSH2 0x49FB JUMPI POP DUP6 DUP4 ADD MLOAD JUMPDEST PUSH1 0x0 NOT PUSH1 0x3 DUP7 SWAP1 SHL SHR NOT AND PUSH1 0x1 DUP6 SWAP1 SHL OR DUP6 SSTORE PUSH2 0x49A8 JUMP JUMPDEST PUSH1 0x0 DUP6 DUP2 MSTORE PUSH1 0x20 DUP2 KECCAK256 PUSH1 0x1F NOT DUP7 AND SWAP2 JUMPDEST DUP3 DUP2 LT ISZERO PUSH2 0x4A42 JUMPI DUP9 DUP7 ADD MLOAD DUP3 SSTORE SWAP5 DUP5 ADD SWAP5 PUSH1 0x1 SWAP1 SWAP2 ADD SWAP1 DUP5 ADD PUSH2 0x4A23 JUMP JUMPDEST POP DUP6 DUP3 LT ISZERO PUSH2 0x4A60 JUMPI DUP8 DUP6 ADD MLOAD PUSH1 0x0 NOT PUSH1 0x3 DUP9 SWAP1 SHL PUSH1 0xF8 AND SHR NOT AND DUP2 SSTORE JUMPDEST POP POP POP POP POP PUSH1 0x1 SWAP1 DUP2 SHL ADD SWAP1 SSTORE POP JUMP JUMPDEST DUP2 DUP2 SUB DUP2 DUP2 GT ISZERO PUSH2 0x3E1B JUMPI PUSH2 0x3E1B PUSH2 0x491D JUMP JUMPDEST DUP2 DUP2 SUB PUSH2 0x4A8E JUMPI POP POP JUMP JUMPDEST PUSH2 0x4A98 DUP3 SLOAD PUSH2 0x48E3 JUMP JUMPDEST PUSH1 0x1 PUSH1 0x1 PUSH1 0x40 SHL SUB DUP2 GT ISZERO PUSH2 0x4AAF JUMPI PUSH2 0x4AAF PUSH2 0x3E83 JUMP JUMPDEST PUSH2 0x4ABD DUP2 PUSH2 0x49D8 DUP5 SLOAD PUSH2 0x48E3 JUMP JUMPDEST PUSH1 0x0 PUSH1 0x1F DUP3 GT PUSH1 0x1 DUP2 EQ PUSH2 0x4AF1 JUMPI PUSH1 0x0 DUP4 ISZERO PUSH2 0x4AD9 JUMPI POP DUP5 DUP3 ADD SLOAD JUMPDEST PUSH1 0x0 NOT PUSH1 0x3 DUP6 SWAP1 SHL SHR NOT AND PUSH1 0x1 DUP5 SWAP1 SHL OR DUP5 SSTORE PUSH2 0x4B56 JUMP JUMPDEST PUSH1 0x0 DUP6 DUP2 MSTORE PUSH1 0x20 SWAP1 KECCAK256 PUSH1 0x1F NOT DUP5 AND SWAP1 PUSH1 0x0 DUP7 DUP2 MSTORE PUSH1 0x20 SWAP1 KECCAK256 DUP5 JUMPDEST DUP4 DUP2 LT ISZERO PUSH2 0x4B2B JUMPI DUP3 DUP7 ADD SLOAD DUP3 SSTORE PUSH1 0x1 SWAP6 DUP7 ADD SWAP6 SWAP1 SWAP2 ADD SWAP1 PUSH1 0x20 ADD PUSH2 0x4B0B JUMP JUMPDEST POP DUP6 DUP4 LT ISZERO PUSH2 0x4B49 JUMPI DUP2 DUP6 ADD SLOAD PUSH1 0x0 NOT PUSH1 0x3 DUP9 SWAP1 SHL PUSH1 0xF8 AND SHR NOT AND DUP2 SSTORE JUMPDEST POP POP POP PUSH1 0x1 DUP4 PUSH1 0x1 SHL ADD DUP5 SSTORE JUMPDEST POP POP POP POP POP JUMP JUMPDEST PUSH4 0x4E487B71 PUSH1 0xE0 SHL PUSH1 0x0 MSTORE PUSH1 0x31 PUSH1 0x4 MSTORE PUSH1 0x24 PUSH1 0x0 REVERT INVALID LOG2 PUSH5 0x6970667358 0x22 SLT KECCAK256 EXTCODECOPY BYTE PUSH19 0xFA7E85BAD0CA8670F6D218AFB955F31894EF1B LOG3 SWAP12 SWAP1 MLOAD 0xF SLOAD 0x2A 0xAB ADDMOD 0xEB PUSH5 0x736F6C6343 STOP ADDMOD GT STOP CALLER "},"methodIdentifiers":{"admin()":"f851a440","ballot_papers(uint256)":"b18280d0","cancel_voting()":"011dc4e5","canceled()":"3f9942ff","createdAt()":"cf09e0d0","description()":"7284e416","end_time()":"16243356","finalVotes(uint256,uint256)":"fbd21f50","getVotes()":"0dc96015","get_ballot_papers()":"84e91395","get_ballots_length()":"e68f10ed","get_count_total_votes()":"109bd47f","get_details()":"b87f86b7","get_state()":"86b301ad","get_votes()":"94f183cb","is_valid_ballot(uint256)":"22a2a00b","name()":"06fdde03","sendVote((string,string,(string[],string[],string[]),(string,string,string[]),string,string))":"bca72e85","start_time()":"834ee417","update_voting((string,string,uint256,uint256),(uint256,(uint8,string,string,string,string[],uint256))[],(uint8,string,string,string,string[],uint256)[],uint256[])":"a5b1459d","vote((uint8,(string,string,(string[],string[],string[]),(string,string,string[]),string,string)[])[])":"f2fe0d27","voteID()":"066d5dc7","votes(uint256)":"5df81330","votes_per_ballot_paper_type1(uint256,uint256)":"be94990e","votes_per_ballot_paper_type2_per_candidates(uint256,uint256,uint256)":"84e8d531","votes_per_voters(address,uint256)":"eba62c51"}}}}}