{"contracts/VerifierMembershipZKP.sol":{"VerifierMembershipZKP":{"abi":[{"inputs":[{"internalType":"bytes[]","name":"_values","type":"bytes[]"}],"name":"BN","outputs":[{"components":[{"internalType":"bytes","name":"val","type":"bytes"},{"internalType":"bool","name":"neg","type":"bool"},{"internalType":"uint256","name":"bitlen","type":"uint256"}],"internalType":"struct BigNumber[]","name":"_bg","type":"tuple[]"}],"stateMutability":"view","type":"function"},{"inputs":[{"internalType":"bytes[][]","name":"_proof","type":"bytes[][]"},{"internalType":"bool[]","name":"_isProof0Negativ","type":"bool[]"},{"components":[{"internalType":"bytes","name":"val","type":"bytes"},{"internalType":"bool","name":"neg","type":"bool"},{"internalType":"uint256","name":"bitlen","type":"uint256"}],"internalType":"struct BigNumber[]","name":"_as","type":"tuple[]"},{"internalType":"bytes[]","name":"_ias","type":"bytes[]"},{"components":[{"internalType":"bytes","name":"val","type":"bytes"},{"internalType":"bool","name":"neg","type":"bool"},{"internalType":"uint256","name":"bitlen","type":"uint256"}],"internalType":"struct BigNumber","name":"_pub","type":"tuple"}],"name":"checkEvery","outputs":[{"internalType":"bool","name":"","type":"bool"}],"stateMutability":"view","type":"function"},{"inputs":[{"internalType":"bytes","name":"_gmk","type":"bytes"},{"internalType":"bytes","name":"_N","type":"bytes"},{"internalType":"bytes","name":"_r","type":"bytes"}],"name":"verifyInvMod","outputs":[{"internalType":"bool","name":"verify","type":"bool"}],"stateMutability":"view","type":"function"},{"inputs":[{"internalType":"bytes","name":"_ciphertext","type":"bytes"},{"internalType":"bytes[][]","name":"_proof","type":"bytes[][]"},{"internalType":"bool[]","name":"_isProof0Negativ","type":"bool[]"},{"internalType":"bytes[]","name":"_as","type":"bytes[]"},{"internalType":"bytes[]","name":"_ias","type":"bytes[]"},{"internalType":"bytes[]","name":"_gmk","type":"bytes[]"},{"internalType":"bytes","name":"_e","type":"bytes"},{"internalType":"bytes","name":"_pubKey","type":"bytes"}],"name":"verifyMembershipZKP","outputs":[{"internalType":"bool","name":"","type":"bool"}],"stateMutability":"view","type":"function"}],"evm":{"bytecode":{"linkReferences":{},"object":"608060405234801561001057600080fd5b50612adc806100206000396000f3fe608060405234801561001057600080fd5b506004361061004c5760003560e01c80633d29eeef1461005157806341a3aa0c146100815780636fd08499146100b1578063cd3cf360146100e1575b600080fd5b61006b6004803603810190610066919061204c565b610111565b60405161007891906121f1565b60405180910390f35b61009b6004803603810190610096919061220c565b6104d4565b6040516100a891906121f1565b60405180910390f35b6100cb60048036038101906100c691906122b3565b610519565b6040516100d891906124b5565b60405180910390f35b6100fb60048036038101906100f6919061266e565b6105da565b60405161010891906121f1565b60405180910390f35b60008061011f83600061083e565b90506000610136828361085a90919063ffffffff16565b905060005b86518110156101df57600061018988838151811061015c5761015b612775565b5b602002602001015185600001518c858151811061017c5761017b612775565b5b60200260200101516104d4565b9050806101cb576040517f08c379a00000000000000000000000000000000000000000000000000000000081526004016101c290612827565b60405180910390fd5b5080806101d790612876565b91505061013b565b5060006101ed8c600061083e565b90506000895167ffffffffffffffff81111561020c5761020b611c5f565b5b60405190808252806020026020018201604052801561024557816020015b610232611c0d565b81526020019060019003908161022a5790505b50905060005b8a518110156102c457600061028f61027e8d848151811061026f5761026e612775565b5b6020026020010151600061083e565b86866108ff9092919063ffffffff16565b9050808383815181106102a5576102a4612775565b5b60200260200101819052505080806102bc90612876565b91505061024b565b5060005b815181101561036d5760006103178383815181106102e9576102e8612775565b5b602002602001015160000151898d60008151811061030a57610309612775565b5b60200260200101516104d4565b905080610359576040517f08c379a000000000000000000000000000000000000000000000000000000000815260040161035090612930565b60405180910390fd5b50808061036590612876565b9150506102c8565b506000610378610923565b905060005b8d60008151811061039157610390612775565b5b6020026020010151518110156104835760006103e38f6000815181106103ba576103b9612775565b5b602002602001015183815181106103d4576103d3612775565b5b6020026020010151600061083e565b90508d82815181106103f8576103f7612775565b5b602002602001015115610448576104458f60008151811061041c5761041b612775565b5b6020026020010151838151811061043657610435612775565b5b6020026020010151600161083e565b90505b61046d8761045f838661096590919063ffffffff16565b610b8d90919063ffffffff16565b925050808061047b90612876565b91505061037d565b506104a161049289600061083e565b82610baf90919063ffffffff16565b6104b3576000955050505050506104c8565b6104c08d8d848d896105da565b955050505050505b98975050505050505050565b6000806104e285600061083e565b905060006104f185600061083e565b9050600061050085600061083e565b905061050d838383610bdb565b93505050509392505050565b6060815167ffffffffffffffff81111561053657610535611c5f565b5b60405190808252806020026020018201604052801561056f57816020015b61055c611c0d565b8152602001906001900390816105545790505b50905060005b82518110156105d4576105a383828151811061059457610593612775565b5b6020026020010151600061083e565b8282815181106105b6576105b5612775565b5b602002602001018190525080806105cc90612876565b915050610575565b50919050565b6000806105f0838461085a90919063ffffffff16565b905060005b8760028151811061060957610608612775565b5b60200260200101515181101561082e57600061065b8960028151811061063257610631612775565b5b6020026020010151838151811061064c5761064b612775565b5b6020026020010151600061083e565b9050600061069f8a60018151811061067657610675612775565b5b602002602001015184815181106106905761068f612775565b5b6020026020010151600061083e565b905060008884815181106106b6576106b5612775565b5b6020026020010151905060006106cd848988610c2e565b905060006107118d6000815181106106e8576106e7612775565b5b6020026020010151878151811061070257610701612775565b5b6020026020010151600061083e565b905061071b611c0d565b610723611c0d565b8d888151811061073657610735612775565b5b6020026020010151156107d0576107838f60008151811061075a57610759612775565b5b6020026020010151898151811061077457610773612775565b5b6020026020010151600161083e565b925060006107ad8d60008151811061079e5761079d612775565b5b6020026020010151600061083e565b90506107bb8682868d610d2b565b92506107c887848c6108ff565b9150506107eb565b6107db85848b610c2e565b91506107e886838b6108ff565b90505b6107fe8185610baf90919063ffffffff16565b6108145760009950505050505050505050610835565b50505050505050808061082690612876565b9150506105f5565b5060019150505b95945050505050565b610846611c0d565b61085283836000610e75565b905092915050565b610862611c0d565b600061086e8484610965565b9050600061088e8261087e610f42565b610889856002610f84565b610c2e565b905061089a8585610baf565b6108e95760006108aa8686611000565b905060006108ca826108ba610f42565b6108c5856002610f84565b610c2e565b90506108e06108d98483611000565b600261124f565b945050506108f7565b6108f481600261124f565b92505b505092915050565b610907611c0d565b61091a610914858561085a565b83610b8d565b90509392505050565b61092b611c0d565b6040518060600160405280604051806040016040528060208152602001600081525081526020016000151581526020016000815250905090565b61096d611c0d565b60008360400151148015610985575060008260400151145b1561099957610992610923565b9050610b87565b60008360400151036109ad57819050610b87565b60008260400151036109c157829050610b87565b60606000806109d2868660006113b1565b90508560200151806109e5575084602001515b15610b1257856020015180156109fc575084602001515b15610a635760008112610a2d57610a2086600001518660000151886040015161158e565b8093508194505050610a4d565b610a4485600001518760000151876040015161158e565b80935081945050505b6001846020019015159081151581525050610b0d565b60018103610a9e57610a7d866000015186600001516116c4565b80935081945050508560200151846020019015159081151581525050610b0c565b7fffffffffffffffffffffffffffffffffffffffffffffffffffffffffffffffff8103610af957610ad7856000015187600001516116c4565b8093508194505050856020015115846020019015159081151581525050610b0b565b610b01610923565b9350505050610b87565b5b5b610b70565b60008112610b3e57610b3186600001518660000151886040015161158e565b8093508194505050610b5e565b610b5585600001518760000151876040015161158e565b80935081945050505b60008460200190151590811515815250505b828460000181905250818460400181815250505050505b92915050565b610b95611c0d565b610ba783610ba16117ef565b84610c2e565b905092915050565b600080610bbe848460016113b1565b905060008114610bcf576000610bd2565b60015b91505092915050565b60008360200151158015610bf157508260200151155b610bfa57600080fd5b6000610c19610c0a8685876108ff565b610c126117ef565b60016113b1565b14610c2357600080fd5b600190509392505050565b610c36611c0d565b6000151583602001511515148015610c5657506000151582602001511515145b8015610c6c5750610c6a8260000151611831565b155b610c7557600080fd5b6000610c8e856000015185600001518560000151611888565b90506000610c9b82611962565b905060008103610cb657610cad610923565b92505050610d24565b85602001518015610ccc5750610ccb856119a2565b5b15610d0157610cf860405180606001604052808481526020016001151581526020018381525085610965565b92505050610d24565b604051806060016040528083815260200160001515815260200182815250925050505b9392505050565b610d33611c0d565b8460200151158015610d46575082602001515b610d4f57600080fd5b8160200151158015610d6b5750610d698260000151611831565b155b610d7457600080fd5b610d7f858386610bdb565b610dbe576040517f08c379a0000000000000000000000000000000000000000000000000000000008152600401610db59061299c565b60405180910390fd5b6000610dd7856000015185600001518560000151611888565b90506000610de482611962565b905060008103610dff57610df6610923565b92505050610e6d565b85602001518015610e155750610e14856119a2565b5b15610e4a57610e4160405180606001604052808481526020016001151581526020018381525085610965565b92505050610e6d565b604051806060016040528083815260200160001515815260200182815250925050505b949350505050565b610e7d611c0d565b6020840184516000596000602084061460018114610eaf57602084066020036020818401019350808501835250610eb9565b6020820192508382525b508282848660046101c2fa506020815101810160405280515b60006020821403610f0557600060208301511460018114610ef35750610f05565b60208301925050602081039050610ed2565b808252818652876020870152505050505060008214610f245781610f32565b610f318160000151611962565b5b8160400181815250509392505050565b610f4a611c0d565b6040518060600160405280604051806040016040528060208152602001600281525081526020016000151581526020016002815250905090565b610f8c611c0d565b6000604051806040016040528060208152602001600081525090506000836040860151029050600161010082061b6020600161010084040102835280602084015260208351018301604052506040518060600160405280838152602001600015158152602001828152509250505092915050565b611008611c0d565b60008360400151148015611020575060008260400151145b156110345761102d610923565b9050611249565b6060600080611045868660006113b1565b9150856020015180611058575084602001515b1561118f578560200151801561106f575084602001515b1561111b57600182036110ac5761108e866000015186600001516116c4565b80925081945050506001846020019015159081151581525050611116565b7fffffffffffffffffffffffffffffffffffffffffffffffffffffffffffffffff8203611103576110e5856000015187600001516116c4565b80925081945050506000846020019015159081151581525050611115565b61110b610923565b9350505050611249565b5b61118a565b600082126111475761113a86600001518660000151886040015161158e565b8092508194505050611167565b61115e85600001518760000151876040015161158e565b80925081945050505b856020015161117757600061117a565b60015b8460200190151590811515815250505b611232565b600182036111c7576111a9866000015186600001516116c4565b80925081945050506000846020019015159081151581525050611231565b7fffffffffffffffffffffffffffffffffffffffffffffffffffffffffffffffff820361121e57611200856000015187600001516116c4565b80925081945050506001846020019015159081151581525050611230565b611226610923565b9350505050611249565b5b5b828460000181905250808460400181815250505050505b92915050565b611257611c0d565b60008351519050836040015183106112a65760405180606001604052806040518060400160405280602081526020016000815250815260200160001515815260200160008152509150506113ab565b8284604001516112b691906129bc565b8460400181815250506101008314610100841117156112e75760206101008404028103905080845152610100830692505b83516000600885061460018114611358576000808661010003858501865b60008082140361134e576020811460018114611327576020830351955061132c565b600095505b5081518a1c935084831b94508484178252602082039150602081039050611305565b5050505050611386565b6008850486518051602081018383018482038282848760046101c2fa6000601f840153848652505050505050505b50602081016000815114600181036113a357602083510382528187525b505050839150505b92915050565b60008060019050821561147c57846020015180156113d0575083602001515b156113fd577fffffffffffffffffffffffffffffffffffffffffffffffffffffffffffffffff905061147b565b600015158560200151151514801561141d57506001151584602001511515145b1561142c576001915050611587565b600115158560200151151514801561144c57506000151584602001511515145b1561147a577fffffffffffffffffffffffffffffffffffffffffffffffffffffffffffffffff915050611587565b5b5b8360400151856040015111156114955780915050611587565b8460400151846040015111156114d957807fffffffffffffffffffffffffffffffffffffffffffffffffffffffffffffffff6114d191906129fa565b915050611587565b6000806000806000896000015151905060208a510194506020895101935060005b8181101561157b57808601519350808501519250828411156115255786975050505050505050611587565b8383111561156757867fffffffffffffffffffffffffffffffffffffffffffffffffffffffffffffffff61155991906129fa565b975050505050505050611587565b6020816115749190612a72565b90506114fa565b50600096505050505050505b9392505050565b606060006060596000600160000388518901885189018a5160208601018b515b60008082140361165a5783518c518e51038211600181146115f25787820184526001881482881416600181146115e757600098506115ec565b600198505b50611641565b8451888184010185528881038803831160018114611633576000821160008b111789851416600181146116285760009a5061162d565b60019a505b50611638565b600199505b50602086039550505b50602083039250602085039450506020810390506115ae565b5060008514600181146116705760018252611677565b6020870196505b50859650846020028c510187526020875101870160405260208701516001816101008d061c146001821417156116ae5760018b019a505b5050505050505080849250925050935093915050565b6060600060606000807fffffffffffffffffffffffffffffffffffffffffffffffffffffffffffffffff90505987518751808203828b01828b0184860160208101865b60008082140361179757845186821160018114611748578c8203855260018d1460008314166001811461173d5760009d50611742565b60019d505b5061177e565b85518d81840303865260018e148d8214168e8201841017600181146117705760009e50611775565b60019e505b50602087039650505b5060208403935060208603955050602081039050611707565b506020820191505b60008251036117bf5760208801975060208703965060208201915061179f565b879a50868b5280604052505050505050505060006117dc84611962565b9050838195509550505050509250929050565b6117f7611c0d565b6040518060600160405280604051806040016040528060208152602001600181525081526020016000151581526020016001815250905090565b600080600060208401905060005b845181101561187b578151925060008311156118615760009350505050611883565b6020820191506020816118749190612a72565b905061183f565b506001925050505b919050565b606083518351835160405183815282602082015281604082015283606082018560208b0160046101c2fa84606001848184018660208c0160046101c2fa91508481019050838184018560208b0160046101c2fa915081600081036118e857fe5b5083810190508360608401828560056105465a03fa9150816000810361190a57fe5b5083606084015b600060208314036119415760008151146001811461192f5750611941565b60208201915050602082039150611911565b60208103985081895285856060010160405250505050505050509392505050565b600061196d82611831565b1561197b576000905061199d565b60006020830151905061198d816119b7565b9150600860208451030282019150505b919050565b60008151518251016002815106915050919050565b600080821460018114611c02578260018403935060028404841793506004840484179350601084048417935061010084048417935062010000840484179350640100000000840484179350680100000000000000008404841793507001000000000000000000000000000000008404841793506001840193506040517ff8f9cbfae6cc78fbefe7cdc3a1793dfcf4f0e8bbd8cec470b6a28a7a5a3e1efd81527ff5ecf1b3e9debc68e1d9cfabc5997135bfb7a7a3938b7b606b5b4b3f2f1f0ffe60208201527ff6e4ed9ff2d6b458eadcdf97bd91692de2d4da8fd2d0ac50c6ae9a827252361660408201527fc8c0b887b0a8a4489c948c7f847c6125746c645c544c444038302820181008ff60608201527ff7cae577eec2a03cf3bad76fb589591debb2dd67e0aa9834bea6925f6a4a2e0e60808201527fe39ed557db96902cd38ed14fad815115c786af479b7e8324736353433727170760a08201527fc976c13bb96e881cb166a933a55e490d9d56952b8d4e801485467d236242260660c08201527f753a6d1b65325d0c552a4d1345224105391a310b29122104190a11030902010060e082015261010081016040527e818283848586878898a8b8c8d8e8f929395969799a9b9d9e9faaeb6bedeeff7f01000000000000000000000000000000000000000000000000000000000000008082880204818160ff038501510496507f800000000000000000000000000000000000000000000000000000000000000085116101000287019650600060018603861603611bf8576001870196505b5050505050611c07565b600091505b50919050565b604051806060016040528060608152602001600015158152602001600081525090565b6000604051905090565b600080fd5b600080fd5b600080fd5b600080fd5b6000601f19601f8301169050919050565b7f4e487b7100000000000000000000000000000000000000000000000000000000600052604160045260246000fd5b611c9782611c4e565b810181811067ffffffffffffffff82111715611cb657611cb5611c5f565b5b80604052505050565b6000611cc9611c30565b9050611cd58282611c8e565b919050565b600067ffffffffffffffff821115611cf557611cf4611c5f565b5b611cfe82611c4e565b9050602081019050919050565b82818337600083830152505050565b6000611d2d611d2884611cda565b611cbf565b905082815260208101848484011115611d4957611d48611c49565b5b611d54848285611d0b565b509392505050565b600082601f830112611d7157611d70611c44565b5b8135611d81848260208601611d1a565b91505092915050565b600067ffffffffffffffff821115611da557611da4611c5f565b5b602082029050602081019050919050565b600080fd5b600067ffffffffffffffff821115611dd657611dd5611c5f565b5b602082029050602081019050919050565b6000611dfa611df584611dbb565b611cbf565b90508083825260208201905060208402830185811115611e1d57611e1c611db6565b5b835b81811015611e6457803567ffffffffffffffff811115611e4257611e41611c44565b5b808601611e4f8982611d5c565b85526020850194505050602081019050611e1f565b5050509392505050565b600082601f830112611e8357611e82611c44565b5b8135611e93848260208601611de7565b91505092915050565b6000611eaf611eaa84611d8a565b611cbf565b90508083825260208201905060208402830185811115611ed257611ed1611db6565b5b835b81811015611f1957803567ffffffffffffffff811115611ef757611ef6611c44565b5b808601611f048982611e6e565b85526020850194505050602081019050611ed4565b5050509392505050565b600082601f830112611f3857611f37611c44565b5b8135611f48848260208601611e9c565b91505092915050565b600067ffffffffffffffff821115611f6c57611f6b611c5f565b5b602082029050602081019050919050565b60008115159050919050565b611f9281611f7d565b8114611f9d57600080fd5b50565b600081359050611faf81611f89565b92915050565b6000611fc8611fc384611f51565b611cbf565b90508083825260208201905060208402830185811115611feb57611fea611db6565b5b835b8181101561201457806120008882611fa0565b845260208401935050602081019050611fed565b5050509392505050565b600082601f83011261203357612032611c44565b5b8135612043848260208601611fb5565b91505092915050565b600080600080600080600080610100898b03121561206d5761206c611c3a565b5b600089013567ffffffffffffffff81111561208b5761208a611c3f565b5b6120978b828c01611d5c565b985050602089013567ffffffffffffffff8111156120b8576120b7611c3f565b5b6120c48b828c01611f23565b975050604089013567ffffffffffffffff8111156120e5576120e4611c3f565b5b6120f18b828c0161201e565b965050606089013567ffffffffffffffff81111561211257612111611c3f565b5b61211e8b828c01611e6e565b955050608089013567ffffffffffffffff81111561213f5761213e611c3f565b5b61214b8b828c01611e6e565b94505060a089013567ffffffffffffffff81111561216c5761216b611c3f565b5b6121788b828c01611e6e565b93505060c089013567ffffffffffffffff81111561219957612198611c3f565b5b6121a58b828c01611d5c565b92505060e089013567ffffffffffffffff8111156121c6576121c5611c3f565b5b6121d28b828c01611d5c565b9150509295985092959890939650565b6121eb81611f7d565b82525050565b600060208201905061220660008301846121e2565b92915050565b60008060006060848603121561222557612224611c3a565b5b600084013567ffffffffffffffff81111561224357612242611c3f565b5b61224f86828701611d5c565b935050602084013567ffffffffffffffff8111156122705761226f611c3f565b5b61227c86828701611d5c565b925050604084013567ffffffffffffffff81111561229d5761229c611c3f565b5b6122a986828701611d5c565b9150509250925092565b6000602082840312156122c9576122c8611c3a565b5b600082013567ffffffffffffffff8111156122e7576122e6611c3f565b5b6122f384828501611e6e565b91505092915050565b600081519050919050565b600082825260208201905092915050565b6000819050602082019050919050565b600081519050919050565b600082825260208201905092915050565b60005b83811015612362578082015181840152602081019050612347565b60008484015250505050565b600061237982612328565b6123838185612333565b9350612393818560208601612344565b61239c81611c4e565b840191505092915050565b6123b081611f7d565b82525050565b6000819050919050565b6123c9816123b6565b82525050565b600060608301600083015184820360008601526123ec828261236e565b915050602083015161240160208601826123a7565b50604083015161241460408601826123c0565b508091505092915050565b600061242b83836123cf565b905092915050565b6000602082019050919050565b600061244b826122fc565b6124558185612307565b93508360208202850161246785612318565b8060005b858110156124a35784840389528151612484858261241f565b945061248f83612433565b925060208a0199505060018101905061246b565b50829750879550505050505092915050565b600060208201905081810360008301526124cf8184612440565b905092915050565b600067ffffffffffffffff8211156124f2576124f1611c5f565b5b602082029050602081019050919050565b600080fd5b600080fd5b612516816123b6565b811461252157600080fd5b50565b6000813590506125338161250d565b92915050565b60006060828403121561254f5761254e612503565b5b6125596060611cbf565b9050600082013567ffffffffffffffff81111561257957612578612508565b5b61258584828501611d5c565b600083015250602061259984828501611fa0565b60208301525060406125ad84828501612524565b60408301525092915050565b60006125cc6125c7846124d7565b611cbf565b905080838252602082019050602084028301858111156125ef576125ee611db6565b5b835b8181101561263657803567ffffffffffffffff81111561261457612613611c44565b5b8086016126218982612539565b855260208501945050506020810190506125f1565b5050509392505050565b600082601f83011261265557612654611c44565b5b81356126658482602086016125b9565b91505092915050565b600080600080600060a0868803121561268a57612689611c3a565b5b600086013567ffffffffffffffff8111156126a8576126a7611c3f565b5b6126b488828901611f23565b955050602086013567ffffffffffffffff8111156126d5576126d4611c3f565b5b6126e18882890161201e565b945050604086013567ffffffffffffffff81111561270257612701611c3f565b5b61270e88828901612640565b935050606086013567ffffffffffffffff81111561272f5761272e611c3f565b5b61273b88828901611e6e565b925050608086013567ffffffffffffffff81111561275c5761275b611c3f565b5b61276888828901612539565b9150509295509295909350565b7f4e487b7100000000000000000000000000000000000000000000000000000000600052603260045260246000fd5b600082825260208201905092915050565b7f4d6f64756c617220696e766572736520766572696669636174696f6e2066616960008201527f6c732e0000000000000000000000000000000000000000000000000000000000602082015250565b60006128116023836127a4565b915061281c826127b5565b604082019050919050565b6000602082019050818103600083015261284081612804565b9050919050565b7f4e487b7100000000000000000000000000000000000000000000000000000000600052601160045260246000fd5b6000612881826123b6565b91507fffffffffffffffffffffffffffffffffffffffffffffffffffffffffffffffff82036128b3576128b2612847565b5b600182019050919050565b7f5365636f6e64206d6f64756c617220696e76657273657320766572696669636160008201527f74696f6e206661696c732e000000000000000000000000000000000000000000602082015250565b600061291a602b836127a4565b9150612925826128be565b604082019050919050565b600060208201905081810360008301526129498161290d565b9050919050565b7f77726f6e6720696e766572736500000000000000000000000000000000000000600082015250565b6000612986600d836127a4565b915061299182612950565b602082019050919050565b600060208201905081810360008301526129b581612979565b9050919050565b60006129c7826123b6565b91506129d2836123b6565b92508282039050818111156129ea576129e9612847565b5b92915050565b6000819050919050565b6000612a05826129f0565b9150612a10836129f0565b9250828202612a1e816129f0565b91507f80000000000000000000000000000000000000000000000000000000000000008414600084121615612a5657612a55612847565b5b8282058414831517612a6b57612a6a612847565b5b5092915050565b6000612a7d826123b6565b9150612a88836123b6565b9250828201905080821115612aa057612a9f612847565b5b9291505056fea26469706673582212202ce184a591fecc45e4bc7bf81f0ad8236097d94ed87d12cde2a615f2267143bb64736f6c63430008110033","opcodes":"PUSH1 0x80 PUSH1 0x40 MSTORE CALLVALUE DUP1 ISZERO PUSH2 0x10 JUMPI PUSH1 0x0 DUP1 REVERT JUMPDEST POP PUSH2 0x2ADC DUP1 PUSH2 0x20 PUSH1 0x0 CODECOPY PUSH1 0x0 RETURN INVALID PUSH1 0x80 PUSH1 0x40 MSTORE CALLVALUE DUP1 ISZERO PUSH2 0x10 JUMPI PUSH1 0x0 DUP1 REVERT JUMPDEST POP PUSH1 0x4 CALLDATASIZE LT PUSH2 0x4C JUMPI PUSH1 0x0 CALLDATALOAD PUSH1 0xE0 SHR DUP1 PUSH4 0x3D29EEEF EQ PUSH2 0x51 JUMPI DUP1 PUSH4 0x41A3AA0C EQ PUSH2 0x81 JUMPI DUP1 PUSH4 0x6FD08499 EQ PUSH2 0xB1 JUMPI DUP1 PUSH4 0xCD3CF360 EQ PUSH2 0xE1 JUMPI JUMPDEST PUSH1 0x0 DUP1 REVERT JUMPDEST PUSH2 0x6B PUSH1 0x4 DUP1 CALLDATASIZE SUB DUP2 ADD SWAP1 PUSH2 0x66 SWAP2 SWAP1 PUSH2 0x204C JUMP JUMPDEST PUSH2 0x111 JUMP JUMPDEST PUSH1 0x40 MLOAD PUSH2 0x78 SWAP2 SWAP1 PUSH2 0x21F1 JUMP JUMPDEST PUSH1 0x40 MLOAD DUP1 SWAP2 SUB SWAP1 RETURN JUMPDEST PUSH2 0x9B PUSH1 0x4 DUP1 CALLDATASIZE SUB DUP2 ADD SWAP1 PUSH2 0x96 SWAP2 SWAP1 PUSH2 0x220C JUMP JUMPDEST PUSH2 0x4D4 JUMP JUMPDEST PUSH1 0x40 MLOAD PUSH2 0xA8 SWAP2 SWAP1 PUSH2 0x21F1 JUMP JUMPDEST PUSH1 0x40 MLOAD DUP1 SWAP2 SUB SWAP1 RETURN JUMPDEST PUSH2 0xCB PUSH1 0x4 DUP1 CALLDATASIZE SUB DUP2 ADD SWAP1 PUSH2 0xC6 SWAP2 SWAP1 PUSH2 0x22B3 JUMP JUMPDEST PUSH2 0x519 JUMP JUMPDEST PUSH1 0x40 MLOAD PUSH2 0xD8 SWAP2 SWAP1 PUSH2 0x24B5 JUMP JUMPDEST PUSH1 0x40 MLOAD DUP1 SWAP2 SUB SWAP1 RETURN JUMPDEST PUSH2 0xFB PUSH1 0x4 DUP1 CALLDATASIZE SUB DUP2 ADD SWAP1 PUSH2 0xF6 SWAP2 SWAP1 PUSH2 0x266E JUMP JUMPDEST PUSH2 0x5DA JUMP JUMPDEST PUSH1 0x40 MLOAD PUSH2 0x108 SWAP2 SWAP1 PUSH2 0x21F1 JUMP JUMPDEST PUSH1 0x40 MLOAD DUP1 SWAP2 SUB SWAP1 RETURN JUMPDEST PUSH1 0x0 DUP1 PUSH2 0x11F DUP4 PUSH1 0x0 PUSH2 0x83E JUMP JUMPDEST SWAP1 POP PUSH1 0x0 PUSH2 0x136 DUP3 DUP4 PUSH2 0x85A SWAP1 SWAP2 SWAP1 PUSH4 0xFFFFFFFF AND JUMP JUMPDEST SWAP1 POP PUSH1 0x0 JUMPDEST DUP7 MLOAD DUP2 LT ISZERO PUSH2 0x1DF JUMPI PUSH1 0x0 PUSH2 0x189 DUP9 DUP4 DUP2 MLOAD DUP2 LT PUSH2 0x15C JUMPI PUSH2 0x15B PUSH2 0x2775 JUMP JUMPDEST JUMPDEST PUSH1 0x20 MUL PUSH1 0x20 ADD ADD MLOAD DUP6 PUSH1 0x0 ADD MLOAD DUP13 DUP6 DUP2 MLOAD DUP2 LT PUSH2 0x17C JUMPI PUSH2 0x17B PUSH2 0x2775 JUMP JUMPDEST JUMPDEST PUSH1 0x20 MUL PUSH1 0x20 ADD ADD MLOAD PUSH2 0x4D4 JUMP JUMPDEST SWAP1 POP DUP1 PUSH2 0x1CB JUMPI PUSH1 0x40 MLOAD PUSH32 0x8C379A000000000000000000000000000000000000000000000000000000000 DUP2 MSTORE PUSH1 0x4 ADD PUSH2 0x1C2 SWAP1 PUSH2 0x2827 JUMP JUMPDEST PUSH1 0x40 MLOAD DUP1 SWAP2 SUB SWAP1 REVERT JUMPDEST POP DUP1 DUP1 PUSH2 0x1D7 SWAP1 PUSH2 0x2876 JUMP JUMPDEST SWAP2 POP POP PUSH2 0x13B JUMP JUMPDEST POP PUSH1 0x0 PUSH2 0x1ED DUP13 PUSH1 0x0 PUSH2 0x83E JUMP JUMPDEST SWAP1 POP PUSH1 0x0 DUP10 MLOAD PUSH8 0xFFFFFFFFFFFFFFFF DUP2 GT ISZERO PUSH2 0x20C JUMPI PUSH2 0x20B PUSH2 0x1C5F JUMP JUMPDEST JUMPDEST PUSH1 0x40 MLOAD SWAP1 DUP1 DUP3 MSTORE DUP1 PUSH1 0x20 MUL PUSH1 0x20 ADD DUP3 ADD PUSH1 0x40 MSTORE DUP1 ISZERO PUSH2 0x245 JUMPI DUP2 PUSH1 0x20 ADD JUMPDEST PUSH2 0x232 PUSH2 0x1C0D JUMP JUMPDEST DUP2 MSTORE PUSH1 0x20 ADD SWAP1 PUSH1 0x1 SWAP1 SUB SWAP1 DUP2 PUSH2 0x22A JUMPI SWAP1 POP JUMPDEST POP SWAP1 POP PUSH1 0x0 JUMPDEST DUP11 MLOAD DUP2 LT ISZERO PUSH2 0x2C4 JUMPI PUSH1 0x0 PUSH2 0x28F PUSH2 0x27E DUP14 DUP5 DUP2 MLOAD DUP2 LT PUSH2 0x26F JUMPI PUSH2 0x26E PUSH2 0x2775 JUMP JUMPDEST JUMPDEST PUSH1 0x20 MUL PUSH1 0x20 ADD ADD MLOAD PUSH1 0x0 PUSH2 0x83E JUMP JUMPDEST DUP7 DUP7 PUSH2 0x8FF SWAP1 SWAP3 SWAP2 SWAP1 PUSH4 0xFFFFFFFF AND JUMP JUMPDEST SWAP1 POP DUP1 DUP4 DUP4 DUP2 MLOAD DUP2 LT PUSH2 0x2A5 JUMPI PUSH2 0x2A4 PUSH2 0x2775 JUMP JUMPDEST JUMPDEST PUSH1 0x20 MUL PUSH1 0x20 ADD ADD DUP2 SWAP1 MSTORE POP POP DUP1 DUP1 PUSH2 0x2BC SWAP1 PUSH2 0x2876 JUMP JUMPDEST SWAP2 POP POP PUSH2 0x24B JUMP JUMPDEST POP PUSH1 0x0 JUMPDEST DUP2 MLOAD DUP2 LT ISZERO PUSH2 0x36D JUMPI PUSH1 0x0 PUSH2 0x317 DUP4 DUP4 DUP2 MLOAD DUP2 LT PUSH2 0x2E9 JUMPI PUSH2 0x2E8 PUSH2 0x2775 JUMP JUMPDEST JUMPDEST PUSH1 0x20 MUL PUSH1 0x20 ADD ADD MLOAD PUSH1 0x0 ADD MLOAD DUP10 DUP14 PUSH1 0x0 DUP2 MLOAD DUP2 LT PUSH2 0x30A JUMPI PUSH2 0x309 PUSH2 0x2775 JUMP JUMPDEST JUMPDEST PUSH1 0x20 MUL PUSH1 0x20 ADD ADD MLOAD PUSH2 0x4D4 JUMP JUMPDEST SWAP1 POP DUP1 PUSH2 0x359 JUMPI PUSH1 0x40 MLOAD PUSH32 0x8C379A000000000000000000000000000000000000000000000000000000000 DUP2 MSTORE PUSH1 0x4 ADD PUSH2 0x350 SWAP1 PUSH2 0x2930 JUMP JUMPDEST PUSH1 0x40 MLOAD DUP1 SWAP2 SUB SWAP1 REVERT JUMPDEST POP DUP1 DUP1 PUSH2 0x365 SWAP1 PUSH2 0x2876 JUMP JUMPDEST SWAP2 POP POP PUSH2 0x2C8 JUMP JUMPDEST POP PUSH1 0x0 PUSH2 0x378 PUSH2 0x923 JUMP JUMPDEST SWAP1 POP PUSH1 0x0 JUMPDEST DUP14 PUSH1 0x0 DUP2 MLOAD DUP2 LT PUSH2 0x391 JUMPI PUSH2 0x390 PUSH2 0x2775 JUMP JUMPDEST JUMPDEST PUSH1 0x20 MUL PUSH1 0x20 ADD ADD MLOAD MLOAD DUP2 LT ISZERO PUSH2 0x483 JUMPI PUSH1 0x0 PUSH2 0x3E3 DUP16 PUSH1 0x0 DUP2 MLOAD DUP2 LT PUSH2 0x3BA JUMPI PUSH2 0x3B9 PUSH2 0x2775 JUMP JUMPDEST JUMPDEST PUSH1 0x20 MUL PUSH1 0x20 ADD ADD MLOAD DUP4 DUP2 MLOAD DUP2 LT PUSH2 0x3D4 JUMPI PUSH2 0x3D3 PUSH2 0x2775 JUMP JUMPDEST JUMPDEST PUSH1 0x20 MUL PUSH1 0x20 ADD ADD MLOAD PUSH1 0x0 PUSH2 0x83E JUMP JUMPDEST SWAP1 POP DUP14 DUP3 DUP2 MLOAD DUP2 LT PUSH2 0x3F8 JUMPI PUSH2 0x3F7 PUSH2 0x2775 JUMP JUMPDEST JUMPDEST PUSH1 0x20 MUL PUSH1 0x20 ADD ADD MLOAD ISZERO PUSH2 0x448 JUMPI PUSH2 0x445 DUP16 PUSH1 0x0 DUP2 MLOAD DUP2 LT PUSH2 0x41C JUMPI PUSH2 0x41B PUSH2 0x2775 JUMP JUMPDEST JUMPDEST PUSH1 0x20 MUL PUSH1 0x20 ADD ADD MLOAD DUP4 DUP2 MLOAD DUP2 LT PUSH2 0x436 JUMPI PUSH2 0x435 PUSH2 0x2775 JUMP JUMPDEST JUMPDEST PUSH1 0x20 MUL PUSH1 0x20 ADD ADD MLOAD PUSH1 0x1 PUSH2 0x83E JUMP JUMPDEST SWAP1 POP JUMPDEST PUSH2 0x46D DUP8 PUSH2 0x45F DUP4 DUP7 PUSH2 0x965 SWAP1 SWAP2 SWAP1 PUSH4 0xFFFFFFFF AND JUMP JUMPDEST PUSH2 0xB8D SWAP1 SWAP2 SWAP1 PUSH4 0xFFFFFFFF AND JUMP JUMPDEST SWAP3 POP POP DUP1 DUP1 PUSH2 0x47B SWAP1 PUSH2 0x2876 JUMP JUMPDEST SWAP2 POP POP PUSH2 0x37D JUMP JUMPDEST POP PUSH2 0x4A1 PUSH2 0x492 DUP10 PUSH1 0x0 PUSH2 0x83E JUMP JUMPDEST DUP3 PUSH2 0xBAF SWAP1 SWAP2 SWAP1 PUSH4 0xFFFFFFFF AND JUMP JUMPDEST PUSH2 0x4B3 JUMPI PUSH1 0x0 SWAP6 POP POP POP POP POP POP PUSH2 0x4C8 JUMP JUMPDEST PUSH2 0x4C0 DUP14 DUP14 DUP5 DUP14 DUP10 PUSH2 0x5DA JUMP JUMPDEST SWAP6 POP POP POP POP POP POP JUMPDEST SWAP9 SWAP8 POP POP POP POP POP POP POP POP JUMP JUMPDEST PUSH1 0x0 DUP1 PUSH2 0x4E2 DUP6 PUSH1 0x0 PUSH2 0x83E JUMP JUMPDEST SWAP1 POP PUSH1 0x0 PUSH2 0x4F1 DUP6 PUSH1 0x0 PUSH2 0x83E JUMP JUMPDEST SWAP1 POP PUSH1 0x0 PUSH2 0x500 DUP6 PUSH1 0x0 PUSH2 0x83E JUMP JUMPDEST SWAP1 POP PUSH2 0x50D DUP4 DUP4 DUP4 PUSH2 0xBDB JUMP JUMPDEST SWAP4 POP POP POP POP SWAP4 SWAP3 POP POP POP JUMP JUMPDEST PUSH1 0x60 DUP2 MLOAD PUSH8 0xFFFFFFFFFFFFFFFF DUP2 GT ISZERO PUSH2 0x536 JUMPI PUSH2 0x535 PUSH2 0x1C5F JUMP JUMPDEST JUMPDEST PUSH1 0x40 MLOAD SWAP1 DUP1 DUP3 MSTORE DUP1 PUSH1 0x20 MUL PUSH1 0x20 ADD DUP3 ADD PUSH1 0x40 MSTORE DUP1 ISZERO PUSH2 0x56F JUMPI DUP2 PUSH1 0x20 ADD JUMPDEST PUSH2 0x55C PUSH2 0x1C0D JUMP JUMPDEST DUP2 MSTORE PUSH1 0x20 ADD SWAP1 PUSH1 0x1 SWAP1 SUB SWAP1 DUP2 PUSH2 0x554 JUMPI SWAP1 POP JUMPDEST POP SWAP1 POP PUSH1 0x0 JUMPDEST DUP3 MLOAD DUP2 LT ISZERO PUSH2 0x5D4 JUMPI PUSH2 0x5A3 DUP4 DUP3 DUP2 MLOAD DUP2 LT PUSH2 0x594 JUMPI PUSH2 0x593 PUSH2 0x2775 JUMP JUMPDEST JUMPDEST PUSH1 0x20 MUL PUSH1 0x20 ADD ADD MLOAD PUSH1 0x0 PUSH2 0x83E JUMP JUMPDEST DUP3 DUP3 DUP2 MLOAD DUP2 LT PUSH2 0x5B6 JUMPI PUSH2 0x5B5 PUSH2 0x2775 JUMP JUMPDEST JUMPDEST PUSH1 0x20 MUL PUSH1 0x20 ADD ADD DUP2 SWAP1 MSTORE POP DUP1 DUP1 PUSH2 0x5CC SWAP1 PUSH2 0x2876 JUMP JUMPDEST SWAP2 POP POP PUSH2 0x575 JUMP JUMPDEST POP SWAP2 SWAP1 POP JUMP JUMPDEST PUSH1 0x0 DUP1 PUSH2 0x5F0 DUP4 DUP5 PUSH2 0x85A SWAP1 SWAP2 SWAP1 PUSH4 0xFFFFFFFF AND JUMP JUMPDEST SWAP1 POP PUSH1 0x0 JUMPDEST DUP8 PUSH1 0x2 DUP2 MLOAD DUP2 LT PUSH2 0x609 JUMPI PUSH2 0x608 PUSH2 0x2775 JUMP JUMPDEST JUMPDEST PUSH1 0x20 MUL PUSH1 0x20 ADD ADD MLOAD MLOAD DUP2 LT ISZERO PUSH2 0x82E JUMPI PUSH1 0x0 PUSH2 0x65B DUP10 PUSH1 0x2 DUP2 MLOAD DUP2 LT PUSH2 0x632 JUMPI PUSH2 0x631 PUSH2 0x2775 JUMP JUMPDEST JUMPDEST PUSH1 0x20 MUL PUSH1 0x20 ADD ADD MLOAD DUP4 DUP2 MLOAD DUP2 LT PUSH2 0x64C JUMPI PUSH2 0x64B PUSH2 0x2775 JUMP JUMPDEST JUMPDEST PUSH1 0x20 MUL PUSH1 0x20 ADD ADD MLOAD PUSH1 0x0 PUSH2 0x83E JUMP JUMPDEST SWAP1 POP PUSH1 0x0 PUSH2 0x69F DUP11 PUSH1 0x1 DUP2 MLOAD DUP2 LT PUSH2 0x676 JUMPI PUSH2 0x675 PUSH2 0x2775 JUMP JUMPDEST JUMPDEST PUSH1 0x20 MUL PUSH1 0x20 ADD ADD MLOAD DUP5 DUP2 MLOAD DUP2 LT PUSH2 0x690 JUMPI PUSH2 0x68F PUSH2 0x2775 JUMP JUMPDEST JUMPDEST PUSH1 0x20 MUL PUSH1 0x20 ADD ADD MLOAD PUSH1 0x0 PUSH2 0x83E JUMP JUMPDEST SWAP1 POP PUSH1 0x0 DUP9 DUP5 DUP2 MLOAD DUP2 LT PUSH2 0x6B6 JUMPI PUSH2 0x6B5 PUSH2 0x2775 JUMP JUMPDEST JUMPDEST PUSH1 0x20 MUL PUSH1 0x20 ADD ADD MLOAD SWAP1 POP PUSH1 0x0 PUSH2 0x6CD DUP5 DUP10 DUP9 PUSH2 0xC2E JUMP JUMPDEST SWAP1 POP PUSH1 0x0 PUSH2 0x711 DUP14 PUSH1 0x0 DUP2 MLOAD DUP2 LT PUSH2 0x6E8 JUMPI PUSH2 0x6E7 PUSH2 0x2775 JUMP JUMPDEST JUMPDEST PUSH1 0x20 MUL PUSH1 0x20 ADD ADD MLOAD DUP8 DUP2 MLOAD DUP2 LT PUSH2 0x702 JUMPI PUSH2 0x701 PUSH2 0x2775 JUMP JUMPDEST JUMPDEST PUSH1 0x20 MUL PUSH1 0x20 ADD ADD MLOAD PUSH1 0x0 PUSH2 0x83E JUMP JUMPDEST SWAP1 POP PUSH2 0x71B PUSH2 0x1C0D JUMP JUMPDEST PUSH2 0x723 PUSH2 0x1C0D JUMP JUMPDEST DUP14 DUP9 DUP2 MLOAD DUP2 LT PUSH2 0x736 JUMPI PUSH2 0x735 PUSH2 0x2775 JUMP JUMPDEST JUMPDEST PUSH1 0x20 MUL PUSH1 0x20 ADD ADD MLOAD ISZERO PUSH2 0x7D0 JUMPI PUSH2 0x783 DUP16 PUSH1 0x0 DUP2 MLOAD DUP2 LT PUSH2 0x75A JUMPI PUSH2 0x759 PUSH2 0x2775 JUMP JUMPDEST JUMPDEST PUSH1 0x20 MUL PUSH1 0x20 ADD ADD MLOAD DUP10 DUP2 MLOAD DUP2 LT PUSH2 0x774 JUMPI PUSH2 0x773 PUSH2 0x2775 JUMP JUMPDEST JUMPDEST PUSH1 0x20 MUL PUSH1 0x20 ADD ADD MLOAD PUSH1 0x1 PUSH2 0x83E JUMP JUMPDEST SWAP3 POP PUSH1 0x0 PUSH2 0x7AD DUP14 PUSH1 0x0 DUP2 MLOAD DUP2 LT PUSH2 0x79E JUMPI PUSH2 0x79D PUSH2 0x2775 JUMP JUMPDEST JUMPDEST PUSH1 0x20 MUL PUSH1 0x20 ADD ADD MLOAD PUSH1 0x0 PUSH2 0x83E JUMP JUMPDEST SWAP1 POP PUSH2 0x7BB DUP7 DUP3 DUP7 DUP14 PUSH2 0xD2B JUMP JUMPDEST SWAP3 POP PUSH2 0x7C8 DUP8 DUP5 DUP13 PUSH2 0x8FF JUMP JUMPDEST SWAP2 POP POP PUSH2 0x7EB JUMP JUMPDEST PUSH2 0x7DB DUP6 DUP5 DUP12 PUSH2 0xC2E JUMP JUMPDEST SWAP2 POP PUSH2 0x7E8 DUP7 DUP4 DUP12 PUSH2 0x8FF JUMP JUMPDEST SWAP1 POP JUMPDEST PUSH2 0x7FE DUP2 DUP6 PUSH2 0xBAF SWAP1 SWAP2 SWAP1 PUSH4 0xFFFFFFFF AND JUMP JUMPDEST PUSH2 0x814 JUMPI PUSH1 0x0 SWAP10 POP POP POP POP POP POP POP POP POP POP PUSH2 0x835 JUMP JUMPDEST POP POP POP POP POP POP POP DUP1 DUP1 PUSH2 0x826 SWAP1 PUSH2 0x2876 JUMP JUMPDEST SWAP2 POP POP PUSH2 0x5F5 JUMP JUMPDEST POP PUSH1 0x1 SWAP2 POP POP JUMPDEST SWAP6 SWAP5 POP POP POP POP POP JUMP JUMPDEST PUSH2 0x846 PUSH2 0x1C0D JUMP JUMPDEST PUSH2 0x852 DUP4 DUP4 PUSH1 0x0 PUSH2 0xE75 JUMP JUMPDEST SWAP1 POP SWAP3 SWAP2 POP POP JUMP JUMPDEST PUSH2 0x862 PUSH2 0x1C0D JUMP JUMPDEST PUSH1 0x0 PUSH2 0x86E DUP5 DUP5 PUSH2 0x965 JUMP JUMPDEST SWAP1 POP PUSH1 0x0 PUSH2 0x88E DUP3 PUSH2 0x87E PUSH2 0xF42 JUMP JUMPDEST PUSH2 0x889 DUP6 PUSH1 0x2 PUSH2 0xF84 JUMP JUMPDEST PUSH2 0xC2E JUMP JUMPDEST SWAP1 POP PUSH2 0x89A DUP6 DUP6 PUSH2 0xBAF JUMP JUMPDEST PUSH2 0x8E9 JUMPI PUSH1 0x0 PUSH2 0x8AA DUP7 DUP7 PUSH2 0x1000 JUMP JUMPDEST SWAP1 POP PUSH1 0x0 PUSH2 0x8CA DUP3 PUSH2 0x8BA PUSH2 0xF42 JUMP JUMPDEST PUSH2 0x8C5 DUP6 PUSH1 0x2 PUSH2 0xF84 JUMP JUMPDEST PUSH2 0xC2E JUMP JUMPDEST SWAP1 POP PUSH2 0x8E0 PUSH2 0x8D9 DUP5 DUP4 PUSH2 0x1000 JUMP JUMPDEST PUSH1 0x2 PUSH2 0x124F JUMP JUMPDEST SWAP5 POP POP POP PUSH2 0x8F7 JUMP JUMPDEST PUSH2 0x8F4 DUP2 PUSH1 0x2 PUSH2 0x124F JUMP JUMPDEST SWAP3 POP JUMPDEST POP POP SWAP3 SWAP2 POP POP JUMP JUMPDEST PUSH2 0x907 PUSH2 0x1C0D JUMP JUMPDEST PUSH2 0x91A PUSH2 0x914 DUP6 DUP6 PUSH2 0x85A JUMP JUMPDEST DUP4 PUSH2 0xB8D JUMP JUMPDEST SWAP1 POP SWAP4 SWAP3 POP POP POP JUMP JUMPDEST PUSH2 0x92B PUSH2 0x1C0D JUMP JUMPDEST PUSH1 0x40 MLOAD DUP1 PUSH1 0x60 ADD PUSH1 0x40 MSTORE DUP1 PUSH1 0x40 MLOAD DUP1 PUSH1 0x40 ADD PUSH1 0x40 MSTORE DUP1 PUSH1 0x20 DUP2 MSTORE PUSH1 0x20 ADD PUSH1 0x0 DUP2 MSTORE POP DUP2 MSTORE PUSH1 0x20 ADD PUSH1 0x0 ISZERO ISZERO DUP2 MSTORE PUSH1 0x20 ADD PUSH1 0x0 DUP2 MSTORE POP SWAP1 POP SWAP1 JUMP JUMPDEST PUSH2 0x96D PUSH2 0x1C0D JUMP JUMPDEST PUSH1 0x0 DUP4 PUSH1 0x40 ADD MLOAD EQ DUP1 ISZERO PUSH2 0x985 JUMPI POP PUSH1 0x0 DUP3 PUSH1 0x40 ADD MLOAD EQ JUMPDEST ISZERO PUSH2 0x999 JUMPI PUSH2 0x992 PUSH2 0x923 JUMP JUMPDEST SWAP1 POP PUSH2 0xB87 JUMP JUMPDEST PUSH1 0x0 DUP4 PUSH1 0x40 ADD MLOAD SUB PUSH2 0x9AD JUMPI DUP2 SWAP1 POP PUSH2 0xB87 JUMP JUMPDEST PUSH1 0x0 DUP3 PUSH1 0x40 ADD MLOAD SUB PUSH2 0x9C1 JUMPI DUP3 SWAP1 POP PUSH2 0xB87 JUMP JUMPDEST PUSH1 0x60 PUSH1 0x0 DUP1 PUSH2 0x9D2 DUP7 DUP7 PUSH1 0x0 PUSH2 0x13B1 JUMP JUMPDEST SWAP1 POP DUP6 PUSH1 0x20 ADD MLOAD DUP1 PUSH2 0x9E5 JUMPI POP DUP5 PUSH1 0x20 ADD MLOAD JUMPDEST ISZERO PUSH2 0xB12 JUMPI DUP6 PUSH1 0x20 ADD MLOAD DUP1 ISZERO PUSH2 0x9FC JUMPI POP DUP5 PUSH1 0x20 ADD MLOAD JUMPDEST ISZERO PUSH2 0xA63 JUMPI PUSH1 0x0 DUP2 SLT PUSH2 0xA2D JUMPI PUSH2 0xA20 DUP7 PUSH1 0x0 ADD MLOAD DUP7 PUSH1 0x0 ADD MLOAD DUP9 PUSH1 0x40 ADD MLOAD PUSH2 0x158E JUMP JUMPDEST DUP1 SWAP4 POP DUP2 SWAP5 POP POP POP PUSH2 0xA4D JUMP JUMPDEST PUSH2 0xA44 DUP6 PUSH1 0x0 ADD MLOAD DUP8 PUSH1 0x0 ADD MLOAD DUP8 PUSH1 0x40 ADD MLOAD PUSH2 0x158E JUMP JUMPDEST DUP1 SWAP4 POP DUP2 SWAP5 POP POP POP JUMPDEST PUSH1 0x1 DUP5 PUSH1 0x20 ADD SWAP1 ISZERO ISZERO SWAP1 DUP2 ISZERO ISZERO DUP2 MSTORE POP POP PUSH2 0xB0D JUMP JUMPDEST PUSH1 0x1 DUP2 SUB PUSH2 0xA9E JUMPI PUSH2 0xA7D DUP7 PUSH1 0x0 ADD MLOAD DUP7 PUSH1 0x0 ADD MLOAD PUSH2 0x16C4 JUMP JUMPDEST DUP1 SWAP4 POP DUP2 SWAP5 POP POP POP DUP6 PUSH1 0x20 ADD MLOAD DUP5 PUSH1 0x20 ADD SWAP1 ISZERO ISZERO SWAP1 DUP2 ISZERO ISZERO DUP2 MSTORE POP POP PUSH2 0xB0C JUMP JUMPDEST PUSH32 0xFFFFFFFFFFFFFFFFFFFFFFFFFFFFFFFFFFFFFFFFFFFFFFFFFFFFFFFFFFFFFFFF DUP2 SUB PUSH2 0xAF9 JUMPI PUSH2 0xAD7 DUP6 PUSH1 0x0 ADD MLOAD DUP8 PUSH1 0x0 ADD MLOAD PUSH2 0x16C4 JUMP JUMPDEST DUP1 SWAP4 POP DUP2 SWAP5 POP POP POP DUP6 PUSH1 0x20 ADD MLOAD ISZERO DUP5 PUSH1 0x20 ADD SWAP1 ISZERO ISZERO SWAP1 DUP2 ISZERO ISZERO DUP2 MSTORE POP POP PUSH2 0xB0B JUMP JUMPDEST PUSH2 0xB01 PUSH2 0x923 JUMP JUMPDEST SWAP4 POP POP POP POP PUSH2 0xB87 JUMP JUMPDEST JUMPDEST JUMPDEST PUSH2 0xB70 JUMP JUMPDEST PUSH1 0x0 DUP2 SLT PUSH2 0xB3E JUMPI PUSH2 0xB31 DUP7 PUSH1 0x0 ADD MLOAD DUP7 PUSH1 0x0 ADD MLOAD DUP9 PUSH1 0x40 ADD MLOAD PUSH2 0x158E JUMP JUMPDEST DUP1 SWAP4 POP DUP2 SWAP5 POP POP POP PUSH2 0xB5E JUMP JUMPDEST PUSH2 0xB55 DUP6 PUSH1 0x0 ADD MLOAD DUP8 PUSH1 0x0 ADD MLOAD DUP8 PUSH1 0x40 ADD MLOAD PUSH2 0x158E JUMP JUMPDEST DUP1 SWAP4 POP DUP2 SWAP5 POP POP POP JUMPDEST PUSH1 0x0 DUP5 PUSH1 0x20 ADD SWAP1 ISZERO ISZERO SWAP1 DUP2 ISZERO ISZERO DUP2 MSTORE POP POP JUMPDEST DUP3 DUP5 PUSH1 0x0 ADD DUP2 SWAP1 MSTORE POP DUP2 DUP5 PUSH1 0x40 ADD DUP2 DUP2 MSTORE POP POP POP POP POP JUMPDEST SWAP3 SWAP2 POP POP JUMP JUMPDEST PUSH2 0xB95 PUSH2 0x1C0D JUMP JUMPDEST PUSH2 0xBA7 DUP4 PUSH2 0xBA1 PUSH2 0x17EF JUMP JUMPDEST DUP5 PUSH2 0xC2E JUMP JUMPDEST SWAP1 POP SWAP3 SWAP2 POP POP JUMP JUMPDEST PUSH1 0x0 DUP1 PUSH2 0xBBE DUP5 DUP5 PUSH1 0x1 PUSH2 0x13B1 JUMP JUMPDEST SWAP1 POP PUSH1 0x0 DUP2 EQ PUSH2 0xBCF JUMPI PUSH1 0x0 PUSH2 0xBD2 JUMP JUMPDEST PUSH1 0x1 JUMPDEST SWAP2 POP POP SWAP3 SWAP2 POP POP JUMP JUMPDEST PUSH1 0x0 DUP4 PUSH1 0x20 ADD MLOAD ISZERO DUP1 ISZERO PUSH2 0xBF1 JUMPI POP DUP3 PUSH1 0x20 ADD MLOAD ISZERO JUMPDEST PUSH2 0xBFA JUMPI PUSH1 0x0 DUP1 REVERT JUMPDEST PUSH1 0x0 PUSH2 0xC19 PUSH2 0xC0A DUP7 DUP6 DUP8 PUSH2 0x8FF JUMP JUMPDEST PUSH2 0xC12 PUSH2 0x17EF JUMP JUMPDEST PUSH1 0x1 PUSH2 0x13B1 JUMP JUMPDEST EQ PUSH2 0xC23 JUMPI PUSH1 0x0 DUP1 REVERT JUMPDEST PUSH1 0x1 SWAP1 POP SWAP4 SWAP3 POP POP POP JUMP JUMPDEST PUSH2 0xC36 PUSH2 0x1C0D JUMP JUMPDEST PUSH1 0x0 ISZERO ISZERO DUP4 PUSH1 0x20 ADD MLOAD ISZERO ISZERO EQ DUP1 ISZERO PUSH2 0xC56 JUMPI POP PUSH1 0x0 ISZERO ISZERO DUP3 PUSH1 0x20 ADD MLOAD ISZERO ISZERO EQ JUMPDEST DUP1 ISZERO PUSH2 0xC6C JUMPI POP PUSH2 0xC6A DUP3 PUSH1 0x0 ADD MLOAD PUSH2 0x1831 JUMP JUMPDEST ISZERO JUMPDEST PUSH2 0xC75 JUMPI PUSH1 0x0 DUP1 REVERT JUMPDEST PUSH1 0x0 PUSH2 0xC8E DUP6 PUSH1 0x0 ADD MLOAD DUP6 PUSH1 0x0 ADD MLOAD DUP6 PUSH1 0x0 ADD MLOAD PUSH2 0x1888 JUMP JUMPDEST SWAP1 POP PUSH1 0x0 PUSH2 0xC9B DUP3 PUSH2 0x1962 JUMP JUMPDEST SWAP1 POP PUSH1 0x0 DUP2 SUB PUSH2 0xCB6 JUMPI PUSH2 0xCAD PUSH2 0x923 JUMP JUMPDEST SWAP3 POP POP POP PUSH2 0xD24 JUMP JUMPDEST DUP6 PUSH1 0x20 ADD MLOAD DUP1 ISZERO PUSH2 0xCCC JUMPI POP PUSH2 0xCCB DUP6 PUSH2 0x19A2 JUMP JUMPDEST JUMPDEST ISZERO PUSH2 0xD01 JUMPI PUSH2 0xCF8 PUSH1 0x40 MLOAD DUP1 PUSH1 0x60 ADD PUSH1 0x40 MSTORE DUP1 DUP5 DUP2 MSTORE PUSH1 0x20 ADD PUSH1 0x1 ISZERO ISZERO DUP2 MSTORE PUSH1 0x20 ADD DUP4 DUP2 MSTORE POP DUP6 PUSH2 0x965 JUMP JUMPDEST SWAP3 POP POP POP PUSH2 0xD24 JUMP JUMPDEST PUSH1 0x40 MLOAD DUP1 PUSH1 0x60 ADD PUSH1 0x40 MSTORE DUP1 DUP4 DUP2 MSTORE PUSH1 0x20 ADD PUSH1 0x0 ISZERO ISZERO DUP2 MSTORE PUSH1 0x20 ADD DUP3 DUP2 MSTORE POP SWAP3 POP POP POP JUMPDEST SWAP4 SWAP3 POP POP POP JUMP JUMPDEST PUSH2 0xD33 PUSH2 0x1C0D JUMP JUMPDEST DUP5 PUSH1 0x20 ADD MLOAD ISZERO DUP1 ISZERO PUSH2 0xD46 JUMPI POP DUP3 PUSH1 0x20 ADD MLOAD JUMPDEST PUSH2 0xD4F JUMPI PUSH1 0x0 DUP1 REVERT JUMPDEST DUP2 PUSH1 0x20 ADD MLOAD ISZERO DUP1 ISZERO PUSH2 0xD6B JUMPI POP PUSH2 0xD69 DUP3 PUSH1 0x0 ADD MLOAD PUSH2 0x1831 JUMP JUMPDEST ISZERO JUMPDEST PUSH2 0xD74 JUMPI PUSH1 0x0 DUP1 REVERT JUMPDEST PUSH2 0xD7F DUP6 DUP4 DUP7 PUSH2 0xBDB JUMP JUMPDEST PUSH2 0xDBE JUMPI PUSH1 0x40 MLOAD PUSH32 0x8C379A000000000000000000000000000000000000000000000000000000000 DUP2 MSTORE PUSH1 0x4 ADD PUSH2 0xDB5 SWAP1 PUSH2 0x299C JUMP JUMPDEST PUSH1 0x40 MLOAD DUP1 SWAP2 SUB SWAP1 REVERT JUMPDEST PUSH1 0x0 PUSH2 0xDD7 DUP6 PUSH1 0x0 ADD MLOAD DUP6 PUSH1 0x0 ADD MLOAD DUP6 PUSH1 0x0 ADD MLOAD PUSH2 0x1888 JUMP JUMPDEST SWAP1 POP PUSH1 0x0 PUSH2 0xDE4 DUP3 PUSH2 0x1962 JUMP JUMPDEST SWAP1 POP PUSH1 0x0 DUP2 SUB PUSH2 0xDFF JUMPI PUSH2 0xDF6 PUSH2 0x923 JUMP JUMPDEST SWAP3 POP POP POP PUSH2 0xE6D JUMP JUMPDEST DUP6 PUSH1 0x20 ADD MLOAD DUP1 ISZERO PUSH2 0xE15 JUMPI POP PUSH2 0xE14 DUP6 PUSH2 0x19A2 JUMP JUMPDEST JUMPDEST ISZERO PUSH2 0xE4A JUMPI PUSH2 0xE41 PUSH1 0x40 MLOAD DUP1 PUSH1 0x60 ADD PUSH1 0x40 MSTORE DUP1 DUP5 DUP2 MSTORE PUSH1 0x20 ADD PUSH1 0x1 ISZERO ISZERO DUP2 MSTORE PUSH1 0x20 ADD DUP4 DUP2 MSTORE POP DUP6 PUSH2 0x965 JUMP JUMPDEST SWAP3 POP POP POP PUSH2 0xE6D JUMP JUMPDEST PUSH1 0x40 MLOAD DUP1 PUSH1 0x60 ADD PUSH1 0x40 MSTORE DUP1 DUP4 DUP2 MSTORE PUSH1 0x20 ADD PUSH1 0x0 ISZERO ISZERO DUP2 MSTORE PUSH1 0x20 ADD DUP3 DUP2 MSTORE POP SWAP3 POP POP POP JUMPDEST SWAP5 SWAP4 POP POP POP POP JUMP JUMPDEST PUSH2 0xE7D PUSH2 0x1C0D JUMP JUMPDEST PUSH1 0x20 DUP5 ADD DUP5 MLOAD PUSH1 0x0 MSIZE PUSH1 0x0 PUSH1 0x20 DUP5 MOD EQ PUSH1 0x1 DUP2 EQ PUSH2 0xEAF JUMPI PUSH1 0x20 DUP5 MOD PUSH1 0x20 SUB PUSH1 0x20 DUP2 DUP5 ADD ADD SWAP4 POP DUP1 DUP6 ADD DUP4 MSTORE POP PUSH2 0xEB9 JUMP JUMPDEST PUSH1 0x20 DUP3 ADD SWAP3 POP DUP4 DUP3 MSTORE JUMPDEST POP DUP3 DUP3 DUP5 DUP7 PUSH1 0x4 PUSH2 0x1C2 STATICCALL POP PUSH1 0x20 DUP2 MLOAD ADD DUP2 ADD PUSH1 0x40 MSTORE DUP1 MLOAD JUMPDEST PUSH1 0x0 PUSH1 0x20 DUP3 EQ SUB PUSH2 0xF05 JUMPI PUSH1 0x0 PUSH1 0x20 DUP4 ADD MLOAD EQ PUSH1 0x1 DUP2 EQ PUSH2 0xEF3 JUMPI POP PUSH2 0xF05 JUMP JUMPDEST PUSH1 0x20 DUP4 ADD SWAP3 POP POP PUSH1 0x20 DUP2 SUB SWAP1 POP PUSH2 0xED2 JUMP JUMPDEST DUP1 DUP3 MSTORE DUP2 DUP7 MSTORE DUP8 PUSH1 0x20 DUP8 ADD MSTORE POP POP POP POP POP PUSH1 0x0 DUP3 EQ PUSH2 0xF24 JUMPI DUP2 PUSH2 0xF32 JUMP JUMPDEST PUSH2 0xF31 DUP2 PUSH1 0x0 ADD MLOAD PUSH2 0x1962 JUMP JUMPDEST JUMPDEST DUP2 PUSH1 0x40 ADD DUP2 DUP2 MSTORE POP POP SWAP4 SWAP3 POP POP POP JUMP JUMPDEST PUSH2 0xF4A PUSH2 0x1C0D JUMP JUMPDEST PUSH1 0x40 MLOAD DUP1 PUSH1 0x60 ADD PUSH1 0x40 MSTORE DUP1 PUSH1 0x40 MLOAD DUP1 PUSH1 0x40 ADD PUSH1 0x40 MSTORE DUP1 PUSH1 0x20 DUP2 MSTORE PUSH1 0x20 ADD PUSH1 0x2 DUP2 MSTORE POP DUP2 MSTORE PUSH1 0x20 ADD PUSH1 0x0 ISZERO ISZERO DUP2 MSTORE PUSH1 0x20 ADD PUSH1 0x2 DUP2 MSTORE POP SWAP1 POP SWAP1 JUMP JUMPDEST PUSH2 0xF8C PUSH2 0x1C0D JUMP JUMPDEST PUSH1 0x0 PUSH1 0x40 MLOAD DUP1 PUSH1 0x40 ADD PUSH1 0x40 MSTORE DUP1 PUSH1 0x20 DUP2 MSTORE PUSH1 0x20 ADD PUSH1 0x0 DUP2 MSTORE POP SWAP1 POP PUSH1 0x0 DUP4 PUSH1 0x40 DUP7 ADD MLOAD MUL SWAP1 POP PUSH1 0x1 PUSH2 0x100 DUP3 MOD SHL PUSH1 0x20 PUSH1 0x1 PUSH2 0x100 DUP5 DIV ADD MUL DUP4 MSTORE DUP1 PUSH1 0x20 DUP5 ADD MSTORE PUSH1 0x20 DUP4 MLOAD ADD DUP4 ADD PUSH1 0x40 MSTORE POP PUSH1 0x40 MLOAD DUP1 PUSH1 0x60 ADD PUSH1 0x40 MSTORE DUP1 DUP4 DUP2 MSTORE PUSH1 0x20 ADD PUSH1 0x0 ISZERO ISZERO DUP2 MSTORE PUSH1 0x20 ADD DUP3 DUP2 MSTORE POP SWAP3 POP POP POP SWAP3 SWAP2 POP POP JUMP JUMPDEST PUSH2 0x1008 PUSH2 0x1C0D JUMP JUMPDEST PUSH1 0x0 DUP4 PUSH1 0x40 ADD MLOAD EQ DUP1 ISZERO PUSH2 0x1020 JUMPI POP PUSH1 0x0 DUP3 PUSH1 0x40 ADD MLOAD EQ JUMPDEST ISZERO PUSH2 0x1034 JUMPI PUSH2 0x102D PUSH2 0x923 JUMP JUMPDEST SWAP1 POP PUSH2 0x1249 JUMP JUMPDEST PUSH1 0x60 PUSH1 0x0 DUP1 PUSH2 0x1045 DUP7 DUP7 PUSH1 0x0 PUSH2 0x13B1 JUMP JUMPDEST SWAP2 POP DUP6 PUSH1 0x20 ADD MLOAD DUP1 PUSH2 0x1058 JUMPI POP DUP5 PUSH1 0x20 ADD MLOAD JUMPDEST ISZERO PUSH2 0x118F JUMPI DUP6 PUSH1 0x20 ADD MLOAD DUP1 ISZERO PUSH2 0x106F JUMPI POP DUP5 PUSH1 0x20 ADD MLOAD JUMPDEST ISZERO PUSH2 0x111B JUMPI PUSH1 0x1 DUP3 SUB PUSH2 0x10AC JUMPI PUSH2 0x108E DUP7 PUSH1 0x0 ADD MLOAD DUP7 PUSH1 0x0 ADD MLOAD PUSH2 0x16C4 JUMP JUMPDEST DUP1 SWAP3 POP DUP2 SWAP5 POP POP POP PUSH1 0x1 DUP5 PUSH1 0x20 ADD SWAP1 ISZERO ISZERO SWAP1 DUP2 ISZERO ISZERO DUP2 MSTORE POP POP PUSH2 0x1116 JUMP JUMPDEST PUSH32 0xFFFFFFFFFFFFFFFFFFFFFFFFFFFFFFFFFFFFFFFFFFFFFFFFFFFFFFFFFFFFFFFF DUP3 SUB PUSH2 0x1103 JUMPI PUSH2 0x10E5 DUP6 PUSH1 0x0 ADD MLOAD DUP8 PUSH1 0x0 ADD MLOAD PUSH2 0x16C4 JUMP JUMPDEST DUP1 SWAP3 POP DUP2 SWAP5 POP POP POP PUSH1 0x0 DUP5 PUSH1 0x20 ADD SWAP1 ISZERO ISZERO SWAP1 DUP2 ISZERO ISZERO DUP2 MSTORE POP POP PUSH2 0x1115 JUMP JUMPDEST PUSH2 0x110B PUSH2 0x923 JUMP JUMPDEST SWAP4 POP POP POP POP PUSH2 0x1249 JUMP JUMPDEST JUMPDEST PUSH2 0x118A JUMP JUMPDEST PUSH1 0x0 DUP3 SLT PUSH2 0x1147 JUMPI PUSH2 0x113A DUP7 PUSH1 0x0 ADD MLOAD DUP7 PUSH1 0x0 ADD MLOAD DUP9 PUSH1 0x40 ADD MLOAD PUSH2 0x158E JUMP JUMPDEST DUP1 SWAP3 POP DUP2 SWAP5 POP POP POP PUSH2 0x1167 JUMP JUMPDEST PUSH2 0x115E DUP6 PUSH1 0x0 ADD MLOAD DUP8 PUSH1 0x0 ADD MLOAD DUP8 PUSH1 0x40 ADD MLOAD PUSH2 0x158E JUMP JUMPDEST DUP1 SWAP3 POP DUP2 SWAP5 POP POP POP JUMPDEST DUP6 PUSH1 0x20 ADD MLOAD PUSH2 0x1177 JUMPI PUSH1 0x0 PUSH2 0x117A JUMP JUMPDEST PUSH1 0x1 JUMPDEST DUP5 PUSH1 0x20 ADD SWAP1 ISZERO ISZERO SWAP1 DUP2 ISZERO ISZERO DUP2 MSTORE POP POP JUMPDEST PUSH2 0x1232 JUMP JUMPDEST PUSH1 0x1 DUP3 SUB PUSH2 0x11C7 JUMPI PUSH2 0x11A9 DUP7 PUSH1 0x0 ADD MLOAD DUP7 PUSH1 0x0 ADD MLOAD PUSH2 0x16C4 JUMP JUMPDEST DUP1 SWAP3 POP DUP2 SWAP5 POP POP POP PUSH1 0x0 DUP5 PUSH1 0x20 ADD SWAP1 ISZERO ISZERO SWAP1 DUP2 ISZERO ISZERO DUP2 MSTORE POP POP PUSH2 0x1231 JUMP JUMPDEST PUSH32 0xFFFFFFFFFFFFFFFFFFFFFFFFFFFFFFFFFFFFFFFFFFFFFFFFFFFFFFFFFFFFFFFF DUP3 SUB PUSH2 0x121E JUMPI PUSH2 0x1200 DUP6 PUSH1 0x0 ADD MLOAD DUP8 PUSH1 0x0 ADD MLOAD PUSH2 0x16C4 JUMP JUMPDEST DUP1 SWAP3 POP DUP2 SWAP5 POP POP POP PUSH1 0x1 DUP5 PUSH1 0x20 ADD SWAP1 ISZERO ISZERO SWAP1 DUP2 ISZERO ISZERO DUP2 MSTORE POP POP PUSH2 0x1230 JUMP JUMPDEST PUSH2 0x1226 PUSH2 0x923 JUMP JUMPDEST SWAP4 POP POP POP POP PUSH2 0x1249 JUMP JUMPDEST JUMPDEST JUMPDEST DUP3 DUP5 PUSH1 0x0 ADD DUP2 SWAP1 MSTORE POP DUP1 DUP5 PUSH1 0x40 ADD DUP2 DUP2 MSTORE POP POP POP POP POP JUMPDEST SWAP3 SWAP2 POP POP JUMP JUMPDEST PUSH2 0x1257 PUSH2 0x1C0D JUMP JUMPDEST PUSH1 0x0 DUP4 MLOAD MLOAD SWAP1 POP DUP4 PUSH1 0x40 ADD MLOAD DUP4 LT PUSH2 0x12A6 JUMPI PUSH1 0x40 MLOAD DUP1 PUSH1 0x60 ADD PUSH1 0x40 MSTORE DUP1 PUSH1 0x40 MLOAD DUP1 PUSH1 0x40 ADD PUSH1 0x40 MSTORE DUP1 PUSH1 0x20 DUP2 MSTORE PUSH1 0x20 ADD PUSH1 0x0 DUP2 MSTORE POP DUP2 MSTORE PUSH1 0x20 ADD PUSH1 0x0 ISZERO ISZERO DUP2 MSTORE PUSH1 0x20 ADD PUSH1 0x0 DUP2 MSTORE POP SWAP2 POP POP PUSH2 0x13AB JUMP JUMPDEST DUP3 DUP5 PUSH1 0x40 ADD MLOAD PUSH2 0x12B6 SWAP2 SWAP1 PUSH2 0x29BC JUMP JUMPDEST DUP5 PUSH1 0x40 ADD DUP2 DUP2 MSTORE POP POP PUSH2 0x100 DUP4 EQ PUSH2 0x100 DUP5 GT OR ISZERO PUSH2 0x12E7 JUMPI PUSH1 0x20 PUSH2 0x100 DUP5 DIV MUL DUP2 SUB SWAP1 POP DUP1 DUP5 MLOAD MSTORE PUSH2 0x100 DUP4 MOD SWAP3 POP JUMPDEST DUP4 MLOAD PUSH1 0x0 PUSH1 0x8 DUP6 MOD EQ PUSH1 0x1 DUP2 EQ PUSH2 0x1358 JUMPI PUSH1 0x0 DUP1 DUP7 PUSH2 0x100 SUB DUP6 DUP6 ADD DUP7 JUMPDEST PUSH1 0x0 DUP1 DUP3 EQ SUB PUSH2 0x134E JUMPI PUSH1 0x20 DUP2 EQ PUSH1 0x1 DUP2 EQ PUSH2 0x1327 JUMPI PUSH1 0x20 DUP4 SUB MLOAD SWAP6 POP PUSH2 0x132C JUMP JUMPDEST PUSH1 0x0 SWAP6 POP JUMPDEST POP DUP2 MLOAD DUP11 SHR SWAP4 POP DUP5 DUP4 SHL SWAP5 POP DUP5 DUP5 OR DUP3 MSTORE PUSH1 0x20 DUP3 SUB SWAP2 POP PUSH1 0x20 DUP2 SUB SWAP1 POP PUSH2 0x1305 JUMP JUMPDEST POP POP POP POP POP PUSH2 0x1386 JUMP JUMPDEST PUSH1 0x8 DUP6 DIV DUP7 MLOAD DUP1 MLOAD PUSH1 0x20 DUP2 ADD DUP4 DUP4 ADD DUP5 DUP3 SUB DUP3 DUP3 DUP5 DUP8 PUSH1 0x4 PUSH2 0x1C2 STATICCALL PUSH1 0x0 PUSH1 0x1F DUP5 ADD MSTORE8 DUP5 DUP7 MSTORE POP POP POP POP POP POP POP JUMPDEST POP PUSH1 0x20 DUP2 ADD PUSH1 0x0 DUP2 MLOAD EQ PUSH1 0x1 DUP2 SUB PUSH2 0x13A3 JUMPI PUSH1 0x20 DUP4 MLOAD SUB DUP3 MSTORE DUP2 DUP8 MSTORE JUMPDEST POP POP POP DUP4 SWAP2 POP POP JUMPDEST SWAP3 SWAP2 POP POP JUMP JUMPDEST PUSH1 0x0 DUP1 PUSH1 0x1 SWAP1 POP DUP3 ISZERO PUSH2 0x147C JUMPI DUP5 PUSH1 0x20 ADD MLOAD DUP1 ISZERO PUSH2 0x13D0 JUMPI POP DUP4 PUSH1 0x20 ADD MLOAD JUMPDEST ISZERO PUSH2 0x13FD JUMPI PUSH32 0xFFFFFFFFFFFFFFFFFFFFFFFFFFFFFFFFFFFFFFFFFFFFFFFFFFFFFFFFFFFFFFFF SWAP1 POP PUSH2 0x147B JUMP JUMPDEST PUSH1 0x0 ISZERO ISZERO DUP6 PUSH1 0x20 ADD MLOAD ISZERO ISZERO EQ DUP1 ISZERO PUSH2 0x141D JUMPI POP PUSH1 0x1 ISZERO ISZERO DUP5 PUSH1 0x20 ADD MLOAD ISZERO ISZERO EQ JUMPDEST ISZERO PUSH2 0x142C JUMPI PUSH1 0x1 SWAP2 POP POP PUSH2 0x1587 JUMP JUMPDEST PUSH1 0x1 ISZERO ISZERO DUP6 PUSH1 0x20 ADD MLOAD ISZERO ISZERO EQ DUP1 ISZERO PUSH2 0x144C JUMPI POP PUSH1 0x0 ISZERO ISZERO DUP5 PUSH1 0x20 ADD MLOAD ISZERO ISZERO EQ JUMPDEST ISZERO PUSH2 0x147A JUMPI PUSH32 0xFFFFFFFFFFFFFFFFFFFFFFFFFFFFFFFFFFFFFFFFFFFFFFFFFFFFFFFFFFFFFFFF SWAP2 POP POP PUSH2 0x1587 JUMP JUMPDEST JUMPDEST JUMPDEST DUP4 PUSH1 0x40 ADD MLOAD DUP6 PUSH1 0x40 ADD MLOAD GT ISZERO PUSH2 0x1495 JUMPI DUP1 SWAP2 POP POP PUSH2 0x1587 JUMP JUMPDEST DUP5 PUSH1 0x40 ADD MLOAD DUP5 PUSH1 0x40 ADD MLOAD GT ISZERO PUSH2 0x14D9 JUMPI DUP1 PUSH32 0xFFFFFFFFFFFFFFFFFFFFFFFFFFFFFFFFFFFFFFFFFFFFFFFFFFFFFFFFFFFFFFFF PUSH2 0x14D1 SWAP2 SWAP1 PUSH2 0x29FA JUMP JUMPDEST SWAP2 POP POP PUSH2 0x1587 JUMP JUMPDEST PUSH1 0x0 DUP1 PUSH1 0x0 DUP1 PUSH1 0x0 DUP10 PUSH1 0x0 ADD MLOAD MLOAD SWAP1 POP PUSH1 0x20 DUP11 MLOAD ADD SWAP5 POP PUSH1 0x20 DUP10 MLOAD ADD SWAP4 POP PUSH1 0x0 JUMPDEST DUP2 DUP2 LT ISZERO PUSH2 0x157B JUMPI DUP1 DUP7 ADD MLOAD SWAP4 POP DUP1 DUP6 ADD MLOAD SWAP3 POP DUP3 DUP5 GT ISZERO PUSH2 0x1525 JUMPI DUP7 SWAP8 POP POP POP POP POP POP POP POP PUSH2 0x1587 JUMP JUMPDEST DUP4 DUP4 GT ISZERO PUSH2 0x1567 JUMPI DUP7 PUSH32 0xFFFFFFFFFFFFFFFFFFFFFFFFFFFFFFFFFFFFFFFFFFFFFFFFFFFFFFFFFFFFFFFF PUSH2 0x1559 SWAP2 SWAP1 PUSH2 0x29FA JUMP JUMPDEST SWAP8 POP POP POP POP POP POP POP POP PUSH2 0x1587 JUMP JUMPDEST PUSH1 0x20 DUP2 PUSH2 0x1574 SWAP2 SWAP1 PUSH2 0x2A72 JUMP JUMPDEST SWAP1 POP PUSH2 0x14FA JUMP JUMPDEST POP PUSH1 0x0 SWAP7 POP POP POP POP POP POP POP JUMPDEST SWAP4 SWAP3 POP POP POP JUMP JUMPDEST PUSH1 0x60 PUSH1 0x0 PUSH1 0x60 MSIZE PUSH1 0x0 PUSH1 0x1 PUSH1 0x0 SUB DUP9 MLOAD DUP10 ADD DUP9 MLOAD DUP10 ADD DUP11 MLOAD PUSH1 0x20 DUP7 ADD ADD DUP12 MLOAD JUMPDEST PUSH1 0x0 DUP1 DUP3 EQ SUB PUSH2 0x165A JUMPI DUP4 MLOAD DUP13 MLOAD DUP15 MLOAD SUB DUP3 GT PUSH1 0x1 DUP2 EQ PUSH2 0x15F2 JUMPI DUP8 DUP3 ADD DUP5 MSTORE PUSH1 0x1 DUP9 EQ DUP3 DUP9 EQ AND PUSH1 0x1 DUP2 EQ PUSH2 0x15E7 JUMPI PUSH1 0x0 SWAP9 POP PUSH2 0x15EC JUMP JUMPDEST PUSH1 0x1 SWAP9 POP JUMPDEST POP PUSH2 0x1641 JUMP JUMPDEST DUP5 MLOAD DUP9 DUP2 DUP5 ADD ADD DUP6 MSTORE DUP9 DUP2 SUB DUP9 SUB DUP4 GT PUSH1 0x1 DUP2 EQ PUSH2 0x1633 JUMPI PUSH1 0x0 DUP3 GT PUSH1 0x0 DUP12 GT OR DUP10 DUP6 EQ AND PUSH1 0x1 DUP2 EQ PUSH2 0x1628 JUMPI PUSH1 0x0 SWAP11 POP PUSH2 0x162D JUMP JUMPDEST PUSH1 0x1 SWAP11 POP JUMPDEST POP PUSH2 0x1638 JUMP JUMPDEST PUSH1 0x1 SWAP10 POP JUMPDEST POP PUSH1 0x20 DUP7 SUB SWAP6 POP POP JUMPDEST POP PUSH1 0x20 DUP4 SUB SWAP3 POP PUSH1 0x20 DUP6 SUB SWAP5 POP POP PUSH1 0x20 DUP2 SUB SWAP1 POP PUSH2 0x15AE JUMP JUMPDEST POP PUSH1 0x0 DUP6 EQ PUSH1 0x1 DUP2 EQ PUSH2 0x1670 JUMPI PUSH1 0x1 DUP3 MSTORE PUSH2 0x1677 JUMP JUMPDEST PUSH1 0x20 DUP8 ADD SWAP7 POP JUMPDEST POP DUP6 SWAP7 POP DUP5 PUSH1 0x20 MUL DUP13 MLOAD ADD DUP8 MSTORE PUSH1 0x20 DUP8 MLOAD ADD DUP8 ADD PUSH1 0x40 MSTORE PUSH1 0x20 DUP8 ADD MLOAD PUSH1 0x1 DUP2 PUSH2 0x100 DUP14 MOD SHR EQ PUSH1 0x1 DUP3 EQ OR ISZERO PUSH2 0x16AE JUMPI PUSH1 0x1 DUP12 ADD SWAP11 POP JUMPDEST POP POP POP POP POP POP POP DUP1 DUP5 SWAP3 POP SWAP3 POP POP SWAP4 POP SWAP4 SWAP2 POP POP JUMP JUMPDEST PUSH1 0x60 PUSH1 0x0 PUSH1 0x60 PUSH1 0x0 DUP1 PUSH32 0xFFFFFFFFFFFFFFFFFFFFFFFFFFFFFFFFFFFFFFFFFFFFFFFFFFFFFFFFFFFFFFFF SWAP1 POP MSIZE DUP8 MLOAD DUP8 MLOAD DUP1 DUP3 SUB DUP3 DUP12 ADD DUP3 DUP12 ADD DUP5 DUP7 ADD PUSH1 0x20 DUP2 ADD DUP7 JUMPDEST PUSH1 0x0 DUP1 DUP3 EQ SUB PUSH2 0x1797 JUMPI DUP5 MLOAD DUP7 DUP3 GT PUSH1 0x1 DUP2 EQ PUSH2 0x1748 JUMPI DUP13 DUP3 SUB DUP6 MSTORE PUSH1 0x1 DUP14 EQ PUSH1 0x0 DUP4 EQ AND PUSH1 0x1 DUP2 EQ PUSH2 0x173D JUMPI PUSH1 0x0 SWAP14 POP PUSH2 0x1742 JUMP JUMPDEST PUSH1 0x1 SWAP14 POP JUMPDEST POP PUSH2 0x177E JUMP JUMPDEST DUP6 MLOAD DUP14 DUP2 DUP5 SUB SUB DUP7 MSTORE PUSH1 0x1 DUP15 EQ DUP14 DUP3 EQ AND DUP15 DUP3 ADD DUP5 LT OR PUSH1 0x1 DUP2 EQ PUSH2 0x1770 JUMPI PUSH1 0x0 SWAP15 POP PUSH2 0x1775 JUMP JUMPDEST PUSH1 0x1 SWAP15 POP JUMPDEST POP PUSH1 0x20 DUP8 SUB SWAP7 POP POP JUMPDEST POP PUSH1 0x20 DUP5 SUB SWAP4 POP PUSH1 0x20 DUP7 SUB SWAP6 POP POP PUSH1 0x20 DUP2 SUB SWAP1 POP PUSH2 0x1707 JUMP JUMPDEST POP PUSH1 0x20 DUP3 ADD SWAP2 POP JUMPDEST PUSH1 0x0 DUP3 MLOAD SUB PUSH2 0x17BF JUMPI PUSH1 0x20 DUP9 ADD SWAP8 POP PUSH1 0x20 DUP8 SUB SWAP7 POP PUSH1 0x20 DUP3 ADD SWAP2 POP PUSH2 0x179F JUMP JUMPDEST DUP8 SWAP11 POP DUP7 DUP12 MSTORE DUP1 PUSH1 0x40 MSTORE POP POP POP POP POP POP POP POP PUSH1 0x0 PUSH2 0x17DC DUP5 PUSH2 0x1962 JUMP JUMPDEST SWAP1 POP DUP4 DUP2 SWAP6 POP SWAP6 POP POP POP POP POP SWAP3 POP SWAP3 SWAP1 POP JUMP JUMPDEST PUSH2 0x17F7 PUSH2 0x1C0D JUMP JUMPDEST PUSH1 0x40 MLOAD DUP1 PUSH1 0x60 ADD PUSH1 0x40 MSTORE DUP1 PUSH1 0x40 MLOAD DUP1 PUSH1 0x40 ADD PUSH1 0x40 MSTORE DUP1 PUSH1 0x20 DUP2 MSTORE PUSH1 0x20 ADD PUSH1 0x1 DUP2 MSTORE POP DUP2 MSTORE PUSH1 0x20 ADD PUSH1 0x0 ISZERO ISZERO DUP2 MSTORE PUSH1 0x20 ADD PUSH1 0x1 DUP2 MSTORE POP SWAP1 POP SWAP1 JUMP JUMPDEST PUSH1 0x0 DUP1 PUSH1 0x0 PUSH1 0x20 DUP5 ADD SWAP1 POP PUSH1 0x0 JUMPDEST DUP5 MLOAD DUP2 LT ISZERO PUSH2 0x187B JUMPI DUP2 MLOAD SWAP3 POP PUSH1 0x0 DUP4 GT ISZERO PUSH2 0x1861 JUMPI PUSH1 0x0 SWAP4 POP POP POP POP PUSH2 0x1883 JUMP JUMPDEST PUSH1 0x20 DUP3 ADD SWAP2 POP PUSH1 0x20 DUP2 PUSH2 0x1874 SWAP2 SWAP1 PUSH2 0x2A72 JUMP JUMPDEST SWAP1 POP PUSH2 0x183F JUMP JUMPDEST POP PUSH1 0x1 SWAP3 POP POP POP JUMPDEST SWAP2 SWAP1 POP JUMP JUMPDEST PUSH1 0x60 DUP4 MLOAD DUP4 MLOAD DUP4 MLOAD PUSH1 0x40 MLOAD DUP4 DUP2 MSTORE DUP3 PUSH1 0x20 DUP3 ADD MSTORE DUP2 PUSH1 0x40 DUP3 ADD MSTORE DUP4 PUSH1 0x60 DUP3 ADD DUP6 PUSH1 0x20 DUP12 ADD PUSH1 0x4 PUSH2 0x1C2 STATICCALL DUP5 PUSH1 0x60 ADD DUP5 DUP2 DUP5 ADD DUP7 PUSH1 0x20 DUP13 ADD PUSH1 0x4 PUSH2 0x1C2 STATICCALL SWAP2 POP DUP5 DUP2 ADD SWAP1 POP DUP4 DUP2 DUP5 ADD DUP6 PUSH1 0x20 DUP12 ADD PUSH1 0x4 PUSH2 0x1C2 STATICCALL SWAP2 POP DUP2 PUSH1 0x0 DUP2 SUB PUSH2 0x18E8 JUMPI INVALID JUMPDEST POP DUP4 DUP2 ADD SWAP1 POP DUP4 PUSH1 0x60 DUP5 ADD DUP3 DUP6 PUSH1 0x5 PUSH2 0x546 GAS SUB STATICCALL SWAP2 POP DUP2 PUSH1 0x0 DUP2 SUB PUSH2 0x190A JUMPI INVALID JUMPDEST POP DUP4 PUSH1 0x60 DUP5 ADD JUMPDEST PUSH1 0x0 PUSH1 0x20 DUP4 EQ SUB PUSH2 0x1941 JUMPI PUSH1 0x0 DUP2 MLOAD EQ PUSH1 0x1 DUP2 EQ PUSH2 0x192F JUMPI POP PUSH2 0x1941 JUMP JUMPDEST PUSH1 0x20 DUP3 ADD SWAP2 POP POP PUSH1 0x20 DUP3 SUB SWAP2 POP PUSH2 0x1911 JUMP JUMPDEST PUSH1 0x20 DUP2 SUB SWAP9 POP DUP2 DUP10 MSTORE DUP6 DUP6 PUSH1 0x60 ADD ADD PUSH1 0x40 MSTORE POP POP POP POP POP POP POP POP SWAP4 SWAP3 POP POP POP JUMP JUMPDEST PUSH1 0x0 PUSH2 0x196D DUP3 PUSH2 0x1831 JUMP JUMPDEST ISZERO PUSH2 0x197B JUMPI PUSH1 0x0 SWAP1 POP PUSH2 0x199D JUMP JUMPDEST PUSH1 0x0 PUSH1 0x20 DUP4 ADD MLOAD SWAP1 POP PUSH2 0x198D DUP2 PUSH2 0x19B7 JUMP JUMPDEST SWAP2 POP PUSH1 0x8 PUSH1 0x20 DUP5 MLOAD SUB MUL DUP3 ADD SWAP2 POP POP JUMPDEST SWAP2 SWAP1 POP JUMP JUMPDEST PUSH1 0x0 DUP2 MLOAD MLOAD DUP3 MLOAD ADD PUSH1 0x2 DUP2 MLOAD MOD SWAP2 POP POP SWAP2 SWAP1 POP JUMP JUMPDEST PUSH1 0x0 DUP1 DUP3 EQ PUSH1 0x1 DUP2 EQ PUSH2 0x1C02 JUMPI DUP3 PUSH1 0x1 DUP5 SUB SWAP4 POP PUSH1 0x2 DUP5 DIV DUP5 OR SWAP4 POP PUSH1 0x4 DUP5 DIV DUP5 OR SWAP4 POP PUSH1 0x10 DUP5 DIV DUP5 OR SWAP4 POP PUSH2 0x100 DUP5 DIV DUP5 OR SWAP4 POP PUSH3 0x10000 DUP5 DIV DUP5 OR SWAP4 POP PUSH5 0x100000000 DUP5 DIV DUP5 OR SWAP4 POP PUSH9 0x10000000000000000 DUP5 DIV DUP5 OR SWAP4 POP PUSH17 0x100000000000000000000000000000000 DUP5 DIV DUP5 OR SWAP4 POP PUSH1 0x1 DUP5 ADD SWAP4 POP PUSH1 0x40 MLOAD PUSH32 0xF8F9CBFAE6CC78FBEFE7CDC3A1793DFCF4F0E8BBD8CEC470B6A28A7A5A3E1EFD DUP2 MSTORE PUSH32 0xF5ECF1B3E9DEBC68E1D9CFABC5997135BFB7A7A3938B7B606B5B4B3F2F1F0FFE PUSH1 0x20 DUP3 ADD MSTORE PUSH32 0xF6E4ED9FF2D6B458EADCDF97BD91692DE2D4DA8FD2D0AC50C6AE9A8272523616 PUSH1 0x40 DUP3 ADD MSTORE PUSH32 0xC8C0B887B0A8A4489C948C7F847C6125746C645C544C444038302820181008FF PUSH1 0x60 DUP3 ADD MSTORE PUSH32 0xF7CAE577EEC2A03CF3BAD76FB589591DEBB2DD67E0AA9834BEA6925F6A4A2E0E PUSH1 0x80 DUP3 ADD MSTORE PUSH32 0xE39ED557DB96902CD38ED14FAD815115C786AF479B7E83247363534337271707 PUSH1 0xA0 DUP3 ADD MSTORE PUSH32 0xC976C13BB96E881CB166A933A55E490D9D56952B8D4E801485467D2362422606 PUSH1 0xC0 DUP3 ADD MSTORE PUSH32 0x753A6D1B65325D0C552A4D1345224105391A310B29122104190A110309020100 PUSH1 0xE0 DUP3 ADD MSTORE PUSH2 0x100 DUP2 ADD PUSH1 0x40 MSTORE PUSH31 0x818283848586878898A8B8C8D8E8F929395969799A9B9D9E9FAAEB6BEDEEFF PUSH32 0x100000000000000000000000000000000000000000000000000000000000000 DUP1 DUP3 DUP9 MUL DIV DUP2 DUP2 PUSH1 0xFF SUB DUP6 ADD MLOAD DIV SWAP7 POP PUSH32 0x8000000000000000000000000000000000000000000000000000000000000000 DUP6 GT PUSH2 0x100 MUL DUP8 ADD SWAP7 POP PUSH1 0x0 PUSH1 0x1 DUP7 SUB DUP7 AND SUB PUSH2 0x1BF8 JUMPI PUSH1 0x1 DUP8 ADD SWAP7 POP JUMPDEST POP POP POP POP POP PUSH2 0x1C07 JUMP JUMPDEST PUSH1 0x0 SWAP2 POP JUMPDEST POP SWAP2 SWAP1 POP JUMP JUMPDEST PUSH1 0x40 MLOAD DUP1 PUSH1 0x60 ADD PUSH1 0x40 MSTORE DUP1 PUSH1 0x60 DUP2 MSTORE PUSH1 0x20 ADD PUSH1 0x0 ISZERO ISZERO DUP2 MSTORE PUSH1 0x20 ADD PUSH1 0x0 DUP2 MSTORE POP SWAP1 JUMP JUMPDEST PUSH1 0x0 PUSH1 0x40 MLOAD SWAP1 POP SWAP1 JUMP JUMPDEST PUSH1 0x0 DUP1 REVERT JUMPDEST PUSH1 0x0 DUP1 REVERT JUMPDEST PUSH1 0x0 DUP1 REVERT JUMPDEST PUSH1 0x0 DUP1 REVERT JUMPDEST PUSH1 0x0 PUSH1 0x1F NOT PUSH1 0x1F DUP4 ADD AND SWAP1 POP SWAP2 SWAP1 POP JUMP JUMPDEST PUSH32 0x4E487B7100000000000000000000000000000000000000000000000000000000 PUSH1 0x0 MSTORE PUSH1 0x41 PUSH1 0x4 MSTORE PUSH1 0x24 PUSH1 0x0 REVERT JUMPDEST PUSH2 0x1C97 DUP3 PUSH2 0x1C4E JUMP JUMPDEST DUP2 ADD DUP2 DUP2 LT PUSH8 0xFFFFFFFFFFFFFFFF DUP3 GT OR ISZERO PUSH2 0x1CB6 JUMPI PUSH2 0x1CB5 PUSH2 0x1C5F JUMP JUMPDEST JUMPDEST DUP1 PUSH1 0x40 MSTORE POP POP POP JUMP JUMPDEST PUSH1 0x0 PUSH2 0x1CC9 PUSH2 0x1C30 JUMP JUMPDEST SWAP1 POP PUSH2 0x1CD5 DUP3 DUP3 PUSH2 0x1C8E JUMP JUMPDEST SWAP2 SWAP1 POP JUMP JUMPDEST PUSH1 0x0 PUSH8 0xFFFFFFFFFFFFFFFF DUP3 GT ISZERO PUSH2 0x1CF5 JUMPI PUSH2 0x1CF4 PUSH2 0x1C5F JUMP JUMPDEST JUMPDEST PUSH2 0x1CFE DUP3 PUSH2 0x1C4E JUMP JUMPDEST SWAP1 POP PUSH1 0x20 DUP2 ADD SWAP1 POP SWAP2 SWAP1 POP JUMP JUMPDEST DUP3 DUP2 DUP4 CALLDATACOPY PUSH1 0x0 DUP4 DUP4 ADD MSTORE POP POP POP JUMP JUMPDEST PUSH1 0x0 PUSH2 0x1D2D PUSH2 0x1D28 DUP5 PUSH2 0x1CDA JUMP JUMPDEST PUSH2 0x1CBF JUMP JUMPDEST SWAP1 POP DUP3 DUP2 MSTORE PUSH1 0x20 DUP2 ADD DUP5 DUP5 DUP5 ADD GT ISZERO PUSH2 0x1D49 JUMPI PUSH2 0x1D48 PUSH2 0x1C49 JUMP JUMPDEST JUMPDEST PUSH2 0x1D54 DUP5 DUP3 DUP6 PUSH2 0x1D0B JUMP JUMPDEST POP SWAP4 SWAP3 POP POP POP JUMP JUMPDEST PUSH1 0x0 DUP3 PUSH1 0x1F DUP4 ADD SLT PUSH2 0x1D71 JUMPI PUSH2 0x1D70 PUSH2 0x1C44 JUMP JUMPDEST JUMPDEST DUP2 CALLDATALOAD PUSH2 0x1D81 DUP5 DUP3 PUSH1 0x20 DUP7 ADD PUSH2 0x1D1A JUMP JUMPDEST SWAP2 POP POP SWAP3 SWAP2 POP POP JUMP JUMPDEST PUSH1 0x0 PUSH8 0xFFFFFFFFFFFFFFFF DUP3 GT ISZERO PUSH2 0x1DA5 JUMPI PUSH2 0x1DA4 PUSH2 0x1C5F JUMP JUMPDEST JUMPDEST PUSH1 0x20 DUP3 MUL SWAP1 POP PUSH1 0x20 DUP2 ADD SWAP1 POP SWAP2 SWAP1 POP JUMP JUMPDEST PUSH1 0x0 DUP1 REVERT JUMPDEST PUSH1 0x0 PUSH8 0xFFFFFFFFFFFFFFFF DUP3 GT ISZERO PUSH2 0x1DD6 JUMPI PUSH2 0x1DD5 PUSH2 0x1C5F JUMP JUMPDEST JUMPDEST PUSH1 0x20 DUP3 MUL SWAP1 POP PUSH1 0x20 DUP2 ADD SWAP1 POP SWAP2 SWAP1 POP JUMP JUMPDEST PUSH1 0x0 PUSH2 0x1DFA PUSH2 0x1DF5 DUP5 PUSH2 0x1DBB JUMP JUMPDEST PUSH2 0x1CBF JUMP JUMPDEST SWAP1 POP DUP1 DUP4 DUP3 MSTORE PUSH1 0x20 DUP3 ADD SWAP1 POP PUSH1 0x20 DUP5 MUL DUP4 ADD DUP6 DUP2 GT ISZERO PUSH2 0x1E1D JUMPI PUSH2 0x1E1C PUSH2 0x1DB6 JUMP JUMPDEST JUMPDEST DUP4 JUMPDEST DUP2 DUP2 LT ISZERO PUSH2 0x1E64 JUMPI DUP1 CALLDATALOAD PUSH8 0xFFFFFFFFFFFFFFFF DUP2 GT ISZERO PUSH2 0x1E42 JUMPI PUSH2 0x1E41 PUSH2 0x1C44 JUMP JUMPDEST JUMPDEST DUP1 DUP7 ADD PUSH2 0x1E4F DUP10 DUP3 PUSH2 0x1D5C JUMP JUMPDEST DUP6 MSTORE PUSH1 0x20 DUP6 ADD SWAP5 POP POP POP PUSH1 0x20 DUP2 ADD SWAP1 POP PUSH2 0x1E1F JUMP JUMPDEST POP POP POP SWAP4 SWAP3 POP POP POP JUMP JUMPDEST PUSH1 0x0 DUP3 PUSH1 0x1F DUP4 ADD SLT PUSH2 0x1E83 JUMPI PUSH2 0x1E82 PUSH2 0x1C44 JUMP JUMPDEST JUMPDEST DUP2 CALLDATALOAD PUSH2 0x1E93 DUP5 DUP3 PUSH1 0x20 DUP7 ADD PUSH2 0x1DE7 JUMP JUMPDEST SWAP2 POP POP SWAP3 SWAP2 POP POP JUMP JUMPDEST PUSH1 0x0 PUSH2 0x1EAF PUSH2 0x1EAA DUP5 PUSH2 0x1D8A JUMP JUMPDEST PUSH2 0x1CBF JUMP JUMPDEST SWAP1 POP DUP1 DUP4 DUP3 MSTORE PUSH1 0x20 DUP3 ADD SWAP1 POP PUSH1 0x20 DUP5 MUL DUP4 ADD DUP6 DUP2 GT ISZERO PUSH2 0x1ED2 JUMPI PUSH2 0x1ED1 PUSH2 0x1DB6 JUMP JUMPDEST JUMPDEST DUP4 JUMPDEST DUP2 DUP2 LT ISZERO PUSH2 0x1F19 JUMPI DUP1 CALLDATALOAD PUSH8 0xFFFFFFFFFFFFFFFF DUP2 GT ISZERO PUSH2 0x1EF7 JUMPI PUSH2 0x1EF6 PUSH2 0x1C44 JUMP JUMPDEST JUMPDEST DUP1 DUP7 ADD PUSH2 0x1F04 DUP10 DUP3 PUSH2 0x1E6E JUMP JUMPDEST DUP6 MSTORE PUSH1 0x20 DUP6 ADD SWAP5 POP POP POP PUSH1 0x20 DUP2 ADD SWAP1 POP PUSH2 0x1ED4 JUMP JUMPDEST POP POP POP SWAP4 SWAP3 POP POP POP JUMP JUMPDEST PUSH1 0x0 DUP3 PUSH1 0x1F DUP4 ADD SLT PUSH2 0x1F38 JUMPI PUSH2 0x1F37 PUSH2 0x1C44 JUMP JUMPDEST JUMPDEST DUP2 CALLDATALOAD PUSH2 0x1F48 DUP5 DUP3 PUSH1 0x20 DUP7 ADD PUSH2 0x1E9C JUMP JUMPDEST SWAP2 POP POP SWAP3 SWAP2 POP POP JUMP JUMPDEST PUSH1 0x0 PUSH8 0xFFFFFFFFFFFFFFFF DUP3 GT ISZERO PUSH2 0x1F6C JUMPI PUSH2 0x1F6B PUSH2 0x1C5F JUMP JUMPDEST JUMPDEST PUSH1 0x20 DUP3 MUL SWAP1 POP PUSH1 0x20 DUP2 ADD SWAP1 POP SWAP2 SWAP1 POP JUMP JUMPDEST PUSH1 0x0 DUP2 ISZERO ISZERO SWAP1 POP SWAP2 SWAP1 POP JUMP JUMPDEST PUSH2 0x1F92 DUP2 PUSH2 0x1F7D JUMP JUMPDEST DUP2 EQ PUSH2 0x1F9D JUMPI PUSH1 0x0 DUP1 REVERT JUMPDEST POP JUMP JUMPDEST PUSH1 0x0 DUP2 CALLDATALOAD SWAP1 POP PUSH2 0x1FAF DUP2 PUSH2 0x1F89 JUMP JUMPDEST SWAP3 SWAP2 POP POP JUMP JUMPDEST PUSH1 0x0 PUSH2 0x1FC8 PUSH2 0x1FC3 DUP5 PUSH2 0x1F51 JUMP JUMPDEST PUSH2 0x1CBF JUMP JUMPDEST SWAP1 POP DUP1 DUP4 DUP3 MSTORE PUSH1 0x20 DUP3 ADD SWAP1 POP PUSH1 0x20 DUP5 MUL DUP4 ADD DUP6 DUP2 GT ISZERO PUSH2 0x1FEB JUMPI PUSH2 0x1FEA PUSH2 0x1DB6 JUMP JUMPDEST JUMPDEST DUP4 JUMPDEST DUP2 DUP2 LT ISZERO PUSH2 0x2014 JUMPI DUP1 PUSH2 0x2000 DUP9 DUP3 PUSH2 0x1FA0 JUMP JUMPDEST DUP5 MSTORE PUSH1 0x20 DUP5 ADD SWAP4 POP POP PUSH1 0x20 DUP2 ADD SWAP1 POP PUSH2 0x1FED JUMP JUMPDEST POP POP POP SWAP4 SWAP3 POP POP POP JUMP JUMPDEST PUSH1 0x0 DUP3 PUSH1 0x1F DUP4 ADD SLT PUSH2 0x2033 JUMPI PUSH2 0x2032 PUSH2 0x1C44 JUMP JUMPDEST JUMPDEST DUP2 CALLDATALOAD PUSH2 0x2043 DUP5 DUP3 PUSH1 0x20 DUP7 ADD PUSH2 0x1FB5 JUMP JUMPDEST SWAP2 POP POP SWAP3 SWAP2 POP POP JUMP JUMPDEST PUSH1 0x0 DUP1 PUSH1 0x0 DUP1 PUSH1 0x0 DUP1 PUSH1 0x0 DUP1 PUSH2 0x100 DUP10 DUP12 SUB SLT ISZERO PUSH2 0x206D JUMPI PUSH2 0x206C PUSH2 0x1C3A JUMP JUMPDEST JUMPDEST PUSH1 0x0 DUP10 ADD CALLDATALOAD PUSH8 0xFFFFFFFFFFFFFFFF DUP2 GT ISZERO PUSH2 0x208B JUMPI PUSH2 0x208A PUSH2 0x1C3F JUMP JUMPDEST JUMPDEST PUSH2 0x2097 DUP12 DUP3 DUP13 ADD PUSH2 0x1D5C JUMP JUMPDEST SWAP9 POP POP PUSH1 0x20 DUP10 ADD CALLDATALOAD PUSH8 0xFFFFFFFFFFFFFFFF DUP2 GT ISZERO PUSH2 0x20B8 JUMPI PUSH2 0x20B7 PUSH2 0x1C3F JUMP JUMPDEST JUMPDEST PUSH2 0x20C4 DUP12 DUP3 DUP13 ADD PUSH2 0x1F23 JUMP JUMPDEST SWAP8 POP POP PUSH1 0x40 DUP10 ADD CALLDATALOAD PUSH8 0xFFFFFFFFFFFFFFFF DUP2 GT ISZERO PUSH2 0x20E5 JUMPI PUSH2 0x20E4 PUSH2 0x1C3F JUMP JUMPDEST JUMPDEST PUSH2 0x20F1 DUP12 DUP3 DUP13 ADD PUSH2 0x201E JUMP JUMPDEST SWAP7 POP POP PUSH1 0x60 DUP10 ADD CALLDATALOAD PUSH8 0xFFFFFFFFFFFFFFFF DUP2 GT ISZERO PUSH2 0x2112 JUMPI PUSH2 0x2111 PUSH2 0x1C3F JUMP JUMPDEST JUMPDEST PUSH2 0x211E DUP12 DUP3 DUP13 ADD PUSH2 0x1E6E JUMP JUMPDEST SWAP6 POP POP PUSH1 0x80 DUP10 ADD CALLDATALOAD PUSH8 0xFFFFFFFFFFFFFFFF DUP2 GT ISZERO PUSH2 0x213F JUMPI PUSH2 0x213E PUSH2 0x1C3F JUMP JUMPDEST JUMPDEST PUSH2 0x214B DUP12 DUP3 DUP13 ADD PUSH2 0x1E6E JUMP JUMPDEST SWAP5 POP POP PUSH1 0xA0 DUP10 ADD CALLDATALOAD PUSH8 0xFFFFFFFFFFFFFFFF DUP2 GT ISZERO PUSH2 0x216C JUMPI PUSH2 0x216B PUSH2 0x1C3F JUMP JUMPDEST JUMPDEST PUSH2 0x2178 DUP12 DUP3 DUP13 ADD PUSH2 0x1E6E JUMP JUMPDEST SWAP4 POP POP PUSH1 0xC0 DUP10 ADD CALLDATALOAD PUSH8 0xFFFFFFFFFFFFFFFF DUP2 GT ISZERO PUSH2 0x2199 JUMPI PUSH2 0x2198 PUSH2 0x1C3F JUMP JUMPDEST JUMPDEST PUSH2 0x21A5 DUP12 DUP3 DUP13 ADD PUSH2 0x1D5C JUMP JUMPDEST SWAP3 POP POP PUSH1 0xE0 DUP10 ADD CALLDATALOAD PUSH8 0xFFFFFFFFFFFFFFFF DUP2 GT ISZERO PUSH2 0x21C6 JUMPI PUSH2 0x21C5 PUSH2 0x1C3F JUMP JUMPDEST JUMPDEST PUSH2 0x21D2 DUP12 DUP3 DUP13 ADD PUSH2 0x1D5C JUMP JUMPDEST SWAP2 POP POP SWAP3 SWAP6 SWAP9 POP SWAP3 SWAP6 SWAP9 SWAP1 SWAP4 SWAP7 POP JUMP JUMPDEST PUSH2 0x21EB DUP2 PUSH2 0x1F7D JUMP JUMPDEST DUP3 MSTORE POP POP JUMP JUMPDEST PUSH1 0x0 PUSH1 0x20 DUP3 ADD SWAP1 POP PUSH2 0x2206 PUSH1 0x0 DUP4 ADD DUP5 PUSH2 0x21E2 JUMP JUMPDEST SWAP3 SWAP2 POP POP JUMP JUMPDEST PUSH1 0x0 DUP1 PUSH1 0x0 PUSH1 0x60 DUP5 DUP7 SUB SLT ISZERO PUSH2 0x2225 JUMPI PUSH2 0x2224 PUSH2 0x1C3A JUMP JUMPDEST JUMPDEST PUSH1 0x0 DUP5 ADD CALLDATALOAD PUSH8 0xFFFFFFFFFFFFFFFF DUP2 GT ISZERO PUSH2 0x2243 JUMPI PUSH2 0x2242 PUSH2 0x1C3F JUMP JUMPDEST JUMPDEST PUSH2 0x224F DUP7 DUP3 DUP8 ADD PUSH2 0x1D5C JUMP JUMPDEST SWAP4 POP POP PUSH1 0x20 DUP5 ADD CALLDATALOAD PUSH8 0xFFFFFFFFFFFFFFFF DUP2 GT ISZERO PUSH2 0x2270 JUMPI PUSH2 0x226F PUSH2 0x1C3F JUMP JUMPDEST JUMPDEST PUSH2 0x227C DUP7 DUP3 DUP8 ADD PUSH2 0x1D5C JUMP JUMPDEST SWAP3 POP POP PUSH1 0x40 DUP5 ADD CALLDATALOAD PUSH8 0xFFFFFFFFFFFFFFFF DUP2 GT ISZERO PUSH2 0x229D JUMPI PUSH2 0x229C PUSH2 0x1C3F JUMP JUMPDEST JUMPDEST PUSH2 0x22A9 DUP7 DUP3 DUP8 ADD PUSH2 0x1D5C JUMP JUMPDEST SWAP2 POP POP SWAP3 POP SWAP3 POP SWAP3 JUMP JUMPDEST PUSH1 0x0 PUSH1 0x20 DUP3 DUP5 SUB SLT ISZERO PUSH2 0x22C9 JUMPI PUSH2 0x22C8 PUSH2 0x1C3A JUMP JUMPDEST JUMPDEST PUSH1 0x0 DUP3 ADD CALLDATALOAD PUSH8 0xFFFFFFFFFFFFFFFF DUP2 GT ISZERO PUSH2 0x22E7 JUMPI PUSH2 0x22E6 PUSH2 0x1C3F JUMP JUMPDEST JUMPDEST PUSH2 0x22F3 DUP5 DUP3 DUP6 ADD PUSH2 0x1E6E JUMP JUMPDEST SWAP2 POP POP SWAP3 SWAP2 POP POP JUMP JUMPDEST PUSH1 0x0 DUP2 MLOAD SWAP1 POP SWAP2 SWAP1 POP JUMP JUMPDEST PUSH1 0x0 DUP3 DUP3 MSTORE PUSH1 0x20 DUP3 ADD SWAP1 POP SWAP3 SWAP2 POP POP JUMP JUMPDEST PUSH1 0x0 DUP2 SWAP1 POP PUSH1 0x20 DUP3 ADD SWAP1 POP SWAP2 SWAP1 POP JUMP JUMPDEST PUSH1 0x0 DUP2 MLOAD SWAP1 POP SWAP2 SWAP1 POP JUMP JUMPDEST PUSH1 0x0 DUP3 DUP3 MSTORE PUSH1 0x20 DUP3 ADD SWAP1 POP SWAP3 SWAP2 POP POP JUMP JUMPDEST PUSH1 0x0 JUMPDEST DUP4 DUP2 LT ISZERO PUSH2 0x2362 JUMPI DUP1 DUP3 ADD MLOAD DUP2 DUP5 ADD MSTORE PUSH1 0x20 DUP2 ADD SWAP1 POP PUSH2 0x2347 JUMP JUMPDEST PUSH1 0x0 DUP5 DUP5 ADD MSTORE POP POP POP POP JUMP JUMPDEST PUSH1 0x0 PUSH2 0x2379 DUP3 PUSH2 0x2328 JUMP JUMPDEST PUSH2 0x2383 DUP2 DUP6 PUSH2 0x2333 JUMP JUMPDEST SWAP4 POP PUSH2 0x2393 DUP2 DUP6 PUSH1 0x20 DUP7 ADD PUSH2 0x2344 JUMP JUMPDEST PUSH2 0x239C DUP2 PUSH2 0x1C4E JUMP JUMPDEST DUP5 ADD SWAP2 POP POP SWAP3 SWAP2 POP POP JUMP JUMPDEST PUSH2 0x23B0 DUP2 PUSH2 0x1F7D JUMP JUMPDEST DUP3 MSTORE POP POP JUMP JUMPDEST PUSH1 0x0 DUP2 SWAP1 POP SWAP2 SWAP1 POP JUMP JUMPDEST PUSH2 0x23C9 DUP2 PUSH2 0x23B6 JUMP JUMPDEST DUP3 MSTORE POP POP JUMP JUMPDEST PUSH1 0x0 PUSH1 0x60 DUP4 ADD PUSH1 0x0 DUP4 ADD MLOAD DUP5 DUP3 SUB PUSH1 0x0 DUP7 ADD MSTORE PUSH2 0x23EC DUP3 DUP3 PUSH2 0x236E JUMP JUMPDEST SWAP2 POP POP PUSH1 0x20 DUP4 ADD MLOAD PUSH2 0x2401 PUSH1 0x20 DUP7 ADD DUP3 PUSH2 0x23A7 JUMP JUMPDEST POP PUSH1 0x40 DUP4 ADD MLOAD PUSH2 0x2414 PUSH1 0x40 DUP7 ADD DUP3 PUSH2 0x23C0 JUMP JUMPDEST POP DUP1 SWAP2 POP POP SWAP3 SWAP2 POP POP JUMP JUMPDEST PUSH1 0x0 PUSH2 0x242B DUP4 DUP4 PUSH2 0x23CF JUMP JUMPDEST SWAP1 POP SWAP3 SWAP2 POP POP JUMP JUMPDEST PUSH1 0x0 PUSH1 0x20 DUP3 ADD SWAP1 POP SWAP2 SWAP1 POP JUMP JUMPDEST PUSH1 0x0 PUSH2 0x244B DUP3 PUSH2 0x22FC JUMP JUMPDEST PUSH2 0x2455 DUP2 DUP6 PUSH2 0x2307 JUMP JUMPDEST SWAP4 POP DUP4 PUSH1 0x20 DUP3 MUL DUP6 ADD PUSH2 0x2467 DUP6 PUSH2 0x2318 JUMP JUMPDEST DUP1 PUSH1 0x0 JUMPDEST DUP6 DUP2 LT ISZERO PUSH2 0x24A3 JUMPI DUP5 DUP5 SUB DUP10 MSTORE DUP2 MLOAD PUSH2 0x2484 DUP6 DUP3 PUSH2 0x241F JUMP JUMPDEST SWAP5 POP PUSH2 0x248F DUP4 PUSH2 0x2433 JUMP JUMPDEST SWAP3 POP PUSH1 0x20 DUP11 ADD SWAP10 POP POP PUSH1 0x1 DUP2 ADD SWAP1 POP PUSH2 0x246B JUMP JUMPDEST POP DUP3 SWAP8 POP DUP8 SWAP6 POP POP POP POP POP POP SWAP3 SWAP2 POP POP JUMP JUMPDEST PUSH1 0x0 PUSH1 0x20 DUP3 ADD SWAP1 POP DUP2 DUP2 SUB PUSH1 0x0 DUP4 ADD MSTORE PUSH2 0x24CF DUP2 DUP5 PUSH2 0x2440 JUMP JUMPDEST SWAP1 POP SWAP3 SWAP2 POP POP JUMP JUMPDEST PUSH1 0x0 PUSH8 0xFFFFFFFFFFFFFFFF DUP3 GT ISZERO PUSH2 0x24F2 JUMPI PUSH2 0x24F1 PUSH2 0x1C5F JUMP JUMPDEST JUMPDEST PUSH1 0x20 DUP3 MUL SWAP1 POP PUSH1 0x20 DUP2 ADD SWAP1 POP SWAP2 SWAP1 POP JUMP JUMPDEST PUSH1 0x0 DUP1 REVERT JUMPDEST PUSH1 0x0 DUP1 REVERT JUMPDEST PUSH2 0x2516 DUP2 PUSH2 0x23B6 JUMP JUMPDEST DUP2 EQ PUSH2 0x2521 JUMPI PUSH1 0x0 DUP1 REVERT JUMPDEST POP JUMP JUMPDEST PUSH1 0x0 DUP2 CALLDATALOAD SWAP1 POP PUSH2 0x2533 DUP2 PUSH2 0x250D JUMP JUMPDEST SWAP3 SWAP2 POP POP JUMP JUMPDEST PUSH1 0x0 PUSH1 0x60 DUP3 DUP5 SUB SLT ISZERO PUSH2 0x254F JUMPI PUSH2 0x254E PUSH2 0x2503 JUMP JUMPDEST JUMPDEST PUSH2 0x2559 PUSH1 0x60 PUSH2 0x1CBF JUMP JUMPDEST SWAP1 POP PUSH1 0x0 DUP3 ADD CALLDATALOAD PUSH8 0xFFFFFFFFFFFFFFFF DUP2 GT ISZERO PUSH2 0x2579 JUMPI PUSH2 0x2578 PUSH2 0x2508 JUMP JUMPDEST JUMPDEST PUSH2 0x2585 DUP5 DUP3 DUP6 ADD PUSH2 0x1D5C JUMP JUMPDEST PUSH1 0x0 DUP4 ADD MSTORE POP PUSH1 0x20 PUSH2 0x2599 DUP5 DUP3 DUP6 ADD PUSH2 0x1FA0 JUMP JUMPDEST PUSH1 0x20 DUP4 ADD MSTORE POP PUSH1 0x40 PUSH2 0x25AD DUP5 DUP3 DUP6 ADD PUSH2 0x2524 JUMP JUMPDEST PUSH1 0x40 DUP4 ADD MSTORE POP SWAP3 SWAP2 POP POP JUMP JUMPDEST PUSH1 0x0 PUSH2 0x25CC PUSH2 0x25C7 DUP5 PUSH2 0x24D7 JUMP JUMPDEST PUSH2 0x1CBF JUMP JUMPDEST SWAP1 POP DUP1 DUP4 DUP3 MSTORE PUSH1 0x20 DUP3 ADD SWAP1 POP PUSH1 0x20 DUP5 MUL DUP4 ADD DUP6 DUP2 GT ISZERO PUSH2 0x25EF JUMPI PUSH2 0x25EE PUSH2 0x1DB6 JUMP JUMPDEST JUMPDEST DUP4 JUMPDEST DUP2 DUP2 LT ISZERO PUSH2 0x2636 JUMPI DUP1 CALLDATALOAD PUSH8 0xFFFFFFFFFFFFFFFF DUP2 GT ISZERO PUSH2 0x2614 JUMPI PUSH2 0x2613 PUSH2 0x1C44 JUMP JUMPDEST JUMPDEST DUP1 DUP7 ADD PUSH2 0x2621 DUP10 DUP3 PUSH2 0x2539 JUMP JUMPDEST DUP6 MSTORE PUSH1 0x20 DUP6 ADD SWAP5 POP POP POP PUSH1 0x20 DUP2 ADD SWAP1 POP PUSH2 0x25F1 JUMP JUMPDEST POP POP POP SWAP4 SWAP3 POP POP POP JUMP JUMPDEST PUSH1 0x0 DUP3 PUSH1 0x1F DUP4 ADD SLT PUSH2 0x2655 JUMPI PUSH2 0x2654 PUSH2 0x1C44 JUMP JUMPDEST JUMPDEST DUP2 CALLDATALOAD PUSH2 0x2665 DUP5 DUP3 PUSH1 0x20 DUP7 ADD PUSH2 0x25B9 JUMP JUMPDEST SWAP2 POP POP SWAP3 SWAP2 POP POP JUMP JUMPDEST PUSH1 0x0 DUP1 PUSH1 0x0 DUP1 PUSH1 0x0 PUSH1 0xA0 DUP7 DUP9 SUB SLT ISZERO PUSH2 0x268A JUMPI PUSH2 0x2689 PUSH2 0x1C3A JUMP JUMPDEST JUMPDEST PUSH1 0x0 DUP7 ADD CALLDATALOAD PUSH8 0xFFFFFFFFFFFFFFFF DUP2 GT ISZERO PUSH2 0x26A8 JUMPI PUSH2 0x26A7 PUSH2 0x1C3F JUMP JUMPDEST JUMPDEST PUSH2 0x26B4 DUP9 DUP3 DUP10 ADD PUSH2 0x1F23 JUMP JUMPDEST SWAP6 POP POP PUSH1 0x20 DUP7 ADD CALLDATALOAD PUSH8 0xFFFFFFFFFFFFFFFF DUP2 GT ISZERO PUSH2 0x26D5 JUMPI PUSH2 0x26D4 PUSH2 0x1C3F JUMP JUMPDEST JUMPDEST PUSH2 0x26E1 DUP9 DUP3 DUP10 ADD PUSH2 0x201E JUMP JUMPDEST SWAP5 POP POP PUSH1 0x40 DUP7 ADD CALLDATALOAD PUSH8 0xFFFFFFFFFFFFFFFF DUP2 GT ISZERO PUSH2 0x2702 JUMPI PUSH2 0x2701 PUSH2 0x1C3F JUMP JUMPDEST JUMPDEST PUSH2 0x270E DUP9 DUP3 DUP10 ADD PUSH2 0x2640 JUMP JUMPDEST SWAP4 POP POP PUSH1 0x60 DUP7 ADD CALLDATALOAD PUSH8 0xFFFFFFFFFFFFFFFF DUP2 GT ISZERO PUSH2 0x272F JUMPI PUSH2 0x272E PUSH2 0x1C3F JUMP JUMPDEST JUMPDEST PUSH2 0x273B DUP9 DUP3 DUP10 ADD PUSH2 0x1E6E JUMP JUMPDEST SWAP3 POP POP PUSH1 0x80 DUP7 ADD CALLDATALOAD PUSH8 0xFFFFFFFFFFFFFFFF DUP2 GT ISZERO PUSH2 0x275C JUMPI PUSH2 0x275B PUSH2 0x1C3F JUMP JUMPDEST JUMPDEST PUSH2 0x2768 DUP9 DUP3 DUP10 ADD PUSH2 0x2539 JUMP JUMPDEST SWAP2 POP POP SWAP3 SWAP6 POP SWAP3 SWAP6 SWAP1 SWAP4 POP JUMP JUMPDEST PUSH32 0x4E487B7100000000000000000000000000000000000000000000000000000000 PUSH1 0x0 MSTORE PUSH1 0x32 PUSH1 0x4 MSTORE PUSH1 0x24 PUSH1 0x0 REVERT JUMPDEST PUSH1 0x0 DUP3 DUP3 MSTORE PUSH1 0x20 DUP3 ADD SWAP1 POP SWAP3 SWAP2 POP POP JUMP JUMPDEST PUSH32 0x4D6F64756C617220696E766572736520766572696669636174696F6E20666169 PUSH1 0x0 DUP3 ADD MSTORE PUSH32 0x6C732E0000000000000000000000000000000000000000000000000000000000 PUSH1 0x20 DUP3 ADD MSTORE POP JUMP JUMPDEST PUSH1 0x0 PUSH2 0x2811 PUSH1 0x23 DUP4 PUSH2 0x27A4 JUMP JUMPDEST SWAP2 POP PUSH2 0x281C DUP3 PUSH2 0x27B5 JUMP JUMPDEST PUSH1 0x40 DUP3 ADD SWAP1 POP SWAP2 SWAP1 POP JUMP JUMPDEST PUSH1 0x0 PUSH1 0x20 DUP3 ADD SWAP1 POP DUP2 DUP2 SUB PUSH1 0x0 DUP4 ADD MSTORE PUSH2 0x2840 DUP2 PUSH2 0x2804 JUMP JUMPDEST SWAP1 POP SWAP2 SWAP1 POP JUMP JUMPDEST PUSH32 0x4E487B7100000000000000000000000000000000000000000000000000000000 PUSH1 0x0 MSTORE PUSH1 0x11 PUSH1 0x4 MSTORE PUSH1 0x24 PUSH1 0x0 REVERT JUMPDEST PUSH1 0x0 PUSH2 0x2881 DUP3 PUSH2 0x23B6 JUMP JUMPDEST SWAP2 POP PUSH32 0xFFFFFFFFFFFFFFFFFFFFFFFFFFFFFFFFFFFFFFFFFFFFFFFFFFFFFFFFFFFFFFFF DUP3 SUB PUSH2 0x28B3 JUMPI PUSH2 0x28B2 PUSH2 0x2847 JUMP JUMPDEST JUMPDEST PUSH1 0x1 DUP3 ADD SWAP1 POP SWAP2 SWAP1 POP JUMP JUMPDEST PUSH32 0x5365636F6E64206D6F64756C617220696E766572736573207665726966696361 PUSH1 0x0 DUP3 ADD MSTORE PUSH32 0x74696F6E206661696C732E000000000000000000000000000000000000000000 PUSH1 0x20 DUP3 ADD MSTORE POP JUMP JUMPDEST PUSH1 0x0 PUSH2 0x291A PUSH1 0x2B DUP4 PUSH2 0x27A4 JUMP JUMPDEST SWAP2 POP PUSH2 0x2925 DUP3 PUSH2 0x28BE JUMP JUMPDEST PUSH1 0x40 DUP3 ADD SWAP1 POP SWAP2 SWAP1 POP JUMP JUMPDEST PUSH1 0x0 PUSH1 0x20 DUP3 ADD SWAP1 POP DUP2 DUP2 SUB PUSH1 0x0 DUP4 ADD MSTORE PUSH2 0x2949 DUP2 PUSH2 0x290D JUMP JUMPDEST SWAP1 POP SWAP2 SWAP1 POP JUMP JUMPDEST PUSH32 0x77726F6E6720696E766572736500000000000000000000000000000000000000 PUSH1 0x0 DUP3 ADD MSTORE POP JUMP JUMPDEST PUSH1 0x0 PUSH2 0x2986 PUSH1 0xD DUP4 PUSH2 0x27A4 JUMP JUMPDEST SWAP2 POP PUSH2 0x2991 DUP3 PUSH2 0x2950 JUMP JUMPDEST PUSH1 0x20 DUP3 ADD SWAP1 POP SWAP2 SWAP1 POP JUMP JUMPDEST PUSH1 0x0 PUSH1 0x20 DUP3 ADD SWAP1 POP DUP2 DUP2 SUB PUSH1 0x0 DUP4 ADD MSTORE PUSH2 0x29B5 DUP2 PUSH2 0x2979 JUMP JUMPDEST SWAP1 POP SWAP2 SWAP1 POP JUMP JUMPDEST PUSH1 0x0 PUSH2 0x29C7 DUP3 PUSH2 0x23B6 JUMP JUMPDEST SWAP2 POP PUSH2 0x29D2 DUP4 PUSH2 0x23B6 JUMP JUMPDEST SWAP3 POP DUP3 DUP3 SUB SWAP1 POP DUP2 DUP2 GT ISZERO PUSH2 0x29EA JUMPI PUSH2 0x29E9 PUSH2 0x2847 JUMP JUMPDEST JUMPDEST SWAP3 SWAP2 POP POP JUMP JUMPDEST PUSH1 0x0 DUP2 SWAP1 POP SWAP2 SWAP1 POP JUMP JUMPDEST PUSH1 0x0 PUSH2 0x2A05 DUP3 PUSH2 0x29F0 JUMP JUMPDEST SWAP2 POP PUSH2 0x2A10 DUP4 PUSH2 0x29F0 JUMP JUMPDEST SWAP3 POP DUP3 DUP3 MUL PUSH2 0x2A1E DUP2 PUSH2 0x29F0 JUMP JUMPDEST SWAP2 POP PUSH32 0x8000000000000000000000000000000000000000000000000000000000000000 DUP5 EQ PUSH1 0x0 DUP5 SLT AND ISZERO PUSH2 0x2A56 JUMPI PUSH2 0x2A55 PUSH2 0x2847 JUMP JUMPDEST JUMPDEST DUP3 DUP3 SDIV DUP5 EQ DUP4 ISZERO OR PUSH2 0x2A6B JUMPI PUSH2 0x2A6A PUSH2 0x2847 JUMP JUMPDEST JUMPDEST POP SWAP3 SWAP2 POP POP JUMP JUMPDEST PUSH1 0x0 PUSH2 0x2A7D DUP3 PUSH2 0x23B6 JUMP JUMPDEST SWAP2 POP PUSH2 0x2A88 DUP4 PUSH2 0x23B6 JUMP JUMPDEST SWAP3 POP DUP3 DUP3 ADD SWAP1 POP DUP1 DUP3 GT ISZERO PUSH2 0x2AA0 JUMPI PUSH2 0x2A9F PUSH2 0x2847 JUMP JUMPDEST JUMPDEST SWAP3 SWAP2 POP POP JUMP INVALID LOG2 PUSH5 0x6970667358 0x22 SLT KECCAK256 0x2C 0xE1 DUP5 0xA5 SWAP2 INVALID 0xCC GASLIMIT 0xE4 0xBC PUSH28 0xF81F0AD8236097D94ED87D12CDE2A615F2267143BB64736F6C634300 ADDMOD GT STOP CALLER "},"methodIdentifiers":{"BN(bytes[])":"6fd08499","checkEvery(bytes[][],bool[],(bytes,bool,uint256)[],bytes[],(bytes,bool,uint256))":"cd3cf360","verifyInvMod(bytes,bytes,bytes)":"41a3aa0c","verifyMembershipZKP(bytes,bytes[][],bool[],bytes[],bytes[],bytes[],bytes,bytes)":"3d29eeef"}}}}}