{"contracts/VerifierZKPCorrectEncryption.sol":{"VerifierZKPCorrectEncryption":{"abi":[{"inputs":[{"internalType":"bytes[]","name":"_values","type":"bytes[]"}],"name":"BN","outputs":[{"components":[{"internalType":"bytes","name":"val","type":"bytes"},{"internalType":"bool","name":"neg","type":"bool"},{"internalType":"uint256","name":"bitlen","type":"uint256"}],"internalType":"struct BigNumber[]","name":"_bg","type":"tuple[]"}],"stateMutability":"view","type":"function"},{"inputs":[{"internalType":"bytes[][]","name":"_proof","type":"bytes[][]"},{"internalType":"bool[]","name":"_isProof0Negativ","type":"bool[]"},{"components":[{"internalType":"bytes","name":"val","type":"bytes"},{"internalType":"bool","name":"neg","type":"bool"},{"internalType":"uint256","name":"bitlen","type":"uint256"}],"internalType":"struct BigNumber[]","name":"_as","type":"tuple[]"},{"internalType":"bytes[]","name":"_ias","type":"bytes[]"},{"components":[{"internalType":"bytes","name":"val","type":"bytes"},{"internalType":"bool","name":"neg","type":"bool"},{"internalType":"uint256","name":"bitlen","type":"uint256"}],"internalType":"struct BigNumber","name":"_pub","type":"tuple"}],"name":"checkEvery","outputs":[{"internalType":"bool","name":"","type":"bool"}],"stateMutability":"view","type":"function"},{"inputs":[{"internalType":"bytes","name":"_gmk","type":"bytes"},{"internalType":"bytes","name":"_N","type":"bytes"},{"internalType":"bytes","name":"_r","type":"bytes"}],"name":"verifyInvMod","outputs":[{"internalType":"bool","name":"verify","type":"bool"}],"stateMutability":"view","type":"function"},{"inputs":[{"internalType":"bytes","name":"_ciphertext","type":"bytes"},{"internalType":"bytes[][]","name":"_proof","type":"bytes[][]"},{"internalType":"bool[]","name":"_isProof0Negativ","type":"bool[]"},{"internalType":"bytes[]","name":"_as","type":"bytes[]"},{"internalType":"bytes[]","name":"_ias","type":"bytes[]"},{"internalType":"bytes[]","name":"_gmk","type":"bytes[]"},{"internalType":"bytes","name":"_e","type":"bytes"},{"internalType":"bytes","name":"_pubKey","type":"bytes"}],"name":"verifyTx","outputs":[{"internalType":"bool","name":"","type":"bool"}],"stateMutability":"view","type":"function"}],"evm":{"bytecode":{"linkReferences":{},"object":"608060405234801561001057600080fd5b50612b82806100206000396000f3fe608060405234801561001057600080fd5b506004361061004c5760003560e01c806341a3aa0c146100515780636fd08499146100815780639e97f341146100b1578063cd3cf360146100e1575b600080fd5b61006b60048036038101906100669190611df0565b610111565b6040516100789190611eb2565b60405180910390f35b61009b60048036038101906100969190611fb3565b610156565b6040516100a891906121b5565b60405180910390f35b6100cb60048036038101906100c691906123a7565b610255565b6040516100d89190611eb2565b60405180910390f35b6100fb60048036038101906100f691906126d4565b61055d565b6040516101089190611eb2565b60405180910390f35b60008061011f8560006107c0565b9050600061012e8560006107c0565b9050600061013d8560006107c0565b905061014a8383836107dc565b93505050509392505050565b6060815167ffffffffffffffff81111561017357610172611cc5565b5b6040519080825280602002602001820160405280156101ac57816020015b610199611c73565b8152602001906001900390816101915790505b5090506101ed6040518060400160405280600481526020017f686572650000000000000000000000000000000000000000000000000000000081525061082f565b60005b825181101561024f5761021e83828151811061020f5761020e6127db565b5b602002602001015160006107c0565b828281518110610231576102306127db565b5b6020026020010181905250808061024790612839565b9150506101f0565b50919050565b6000806102638360006107c0565b9050600061027a82836108c890919063ffffffff16565b905060005b86518110156103235760006102cd8883815181106102a05761029f6127db565b5b602002602001015185600001518c85815181106102c0576102bf6127db565b5b6020026020010151610111565b90508061030f576040517f08c379a000000000000000000000000000000000000000000000000000000000815260040161030690612904565b60405180910390fd5b50808061031b90612839565b91505061027f565b5060006103318c60006107c0565b90506000895167ffffffffffffffff8111156103505761034f611cc5565b5b60405190808252806020026020018201604052801561038957816020015b610376611c73565b81526020019060019003908161036e5790505b50905060005b8a518110156104085760006103d36103c28d84815181106103b3576103b26127db565b5b602002602001015160006107c0565b868661096d9092919063ffffffff16565b9050808383815181106103e9576103e86127db565b5b602002602001018190525050808061040090612839565b91505061038f565b506000610413610991565b905060005b8d60008151811061042c5761042b6127db565b5b60200260200101515181101561051e57600061047e8f600081518110610455576104546127db565b5b6020026020010151838151811061046f5761046e6127db565b5b602002602001015160006107c0565b90508d8281518110610493576104926127db565b5b6020026020010151156104e3576104e08f6000815181106104b7576104b66127db565b5b602002602001015183815181106104d1576104d06127db565b5b602002602001015160016107c0565b90505b610508876104fa83866109d390919063ffffffff16565b610bfb90919063ffffffff16565b925050808061051690612839565b915050610418565b5061053c61052d8960006107c0565b82610c1d90919063ffffffff16565b5061054a8d8d848d8961055d565b9550505050505098975050505050505050565b60008061057383846108c890919063ffffffff16565b905060005b8760028151811061058c5761058b6127db565b5b6020026020010151518110156107b05760006105de896002815181106105b5576105b46127db565b5b602002602001015183815181106105cf576105ce6127db565b5b602002602001015160006107c0565b905060006106228a6001815181106105f9576105f86127db565b5b60200260200101518481518110610613576106126127db565b5b602002602001015160006107c0565b90506000888481518110610639576106386127db565b5b602002602001015190506000610650848988610c49565b905060006106948d60008151811061066b5761066a6127db565b5b60200260200101518781518110610685576106846127db565b5b602002602001015160006107c0565b905061069e611c73565b6106a6611c73565b8d88815181106106b9576106b86127db565b5b602002602001015115610752576107068f6000815181106106dd576106dc6127db565b5b602002602001015189815181106106f7576106f66127db565b5b602002602001015160016107c0565b9250600061072f8d8a815181106107205761071f6127db565b5b602002602001015160006107c0565b905061073d8682868d610d46565b925061074a87848c61096d565b91505061076d565b61075d85848b610c49565b915061076a86838b61096d565b90505b6107808185610c1d90919063ffffffff16565b61079657600099505050505050505050506107b7565b5050505050505080806107a890612839565b915050610578565b5060019150505b95945050505050565b6107c8611c73565b6107d483836000610eb2565b905092915050565b600083602001511580156107f257508260200151155b6107fb57600080fd5b600061081a61080b86858761096d565b610813610f7f565b6001610fc1565b1461082457600080fd5b600190509392505050565b6108c5816040516024016108439190612968565b6040516020818303038152906040527f41304fac000000000000000000000000000000000000000000000000000000007bffffffffffffffffffffffffffffffffffffffffffffffffffffffff19166020820180517bffffffffffffffffffffffffffffffffffffffffffffffffffffffff838183161783525050505061119e565b50565b6108d0611c73565b60006108dc84846109d3565b905060006108fc826108ec6111c7565b6108f7856002611209565b610c49565b90506109088585610c1d565b6109575760006109188686611285565b90506000610938826109286111c7565b610933856002611209565b610c49565b905061094e6109478483611285565b60026114d4565b94505050610965565b6109628160026114d4565b92505b505092915050565b610975611c73565b61098861098285856108c8565b83610bfb565b90509392505050565b610999611c73565b6040518060600160405280604051806040016040528060208152602001600081525081526020016000151581526020016000815250905090565b6109db611c73565b600083604001511480156109f3575060008260400151145b15610a0757610a00610991565b9050610bf5565b6000836040015103610a1b57819050610bf5565b6000826040015103610a2f57829050610bf5565b6060600080610a4086866000610fc1565b9050856020015180610a53575084602001515b15610b805785602001518015610a6a575084602001515b15610ad15760008112610a9b57610a8e866000015186600001518860400151611636565b8093508194505050610abb565b610ab2856000015187600001518760400151611636565b80935081945050505b6001846020019015159081151581525050610b7b565b60018103610b0c57610aeb8660000151866000015161176c565b80935081945050508560200151846020019015159081151581525050610b7a565b7fffffffffffffffffffffffffffffffffffffffffffffffffffffffffffffffff8103610b6757610b458560000151876000015161176c565b8093508194505050856020015115846020019015159081151581525050610b79565b610b6f610991565b9350505050610bf5565b5b5b610bde565b60008112610bac57610b9f866000015186600001518860400151611636565b8093508194505050610bcc565b610bc3856000015187600001518760400151611636565b80935081945050505b60008460200190151590811515815250505b828460000181905250818460400181815250505050505b92915050565b610c03611c73565b610c1583610c0f610f7f565b84610c49565b905092915050565b600080610c2c84846001610fc1565b905060008114610c3d576000610c40565b60015b91505092915050565b610c51611c73565b6000151583602001511515148015610c7157506000151582602001511515145b8015610c875750610c858260000151611897565b155b610c9057600080fd5b6000610ca98560000151856000015185600001516118ee565b90506000610cb6826119c8565b905060008103610cd157610cc8610991565b92505050610d3f565b85602001518015610ce75750610ce685611a08565b5b15610d1c57610d13604051806060016040528084815260200160011515815260200183815250856109d3565b92505050610d3f565b604051806060016040528083815260200160001515815260200182815250925050505b9392505050565b610d4e611c73565b8460200151158015610d61575082602001515b610da0576040517f08c379a0000000000000000000000000000000000000000000000000000000008152600401610d97906129d6565b60405180910390fd5b8160200151158015610dbc5750610dba8260000151611897565b155b610dfb576040517f08c379a0000000000000000000000000000000000000000000000000000000008152600401610df290612a42565b60405180910390fd5b6000610e148560000151856000015185600001516118ee565b90506000610e21826119c8565b905060008103610e3c57610e33610991565b92505050610eaa565b85602001518015610e525750610e5185611a08565b5b15610e8757610e7e604051806060016040528084815260200160011515815260200183815250856109d3565b92505050610eaa565b604051806060016040528083815260200160001515815260200182815250925050505b949350505050565b610eba611c73565b6020840184516000596000602084061460018114610eec57602084066020036020818401019350808501835250610ef6565b6020820192508382525b508282848660046101c2fa506020815101810160405280515b60006020821403610f4257600060208301511460018114610f305750610f42565b60208301925050602081039050610f0f565b808252818652876020870152505050505060008214610f615781610f6f565b610f6e81600001516119c8565b5b8160400181815250509392505050565b610f87611c73565b6040518060600160405280604051806040016040528060208152602001600181525081526020016000151581526020016001815250905090565b60008060019050821561108c5784602001518015610fe0575083602001515b1561100d577fffffffffffffffffffffffffffffffffffffffffffffffffffffffffffffffff905061108b565b600015158560200151151514801561102d57506001151584602001511515145b1561103c576001915050611197565b600115158560200151151514801561105c57506000151584602001511515145b1561108a577fffffffffffffffffffffffffffffffffffffffffffffffffffffffffffffffff915050611197565b5b5b8360400151856040015111156110a55780915050611197565b8460400151846040015111156110e957807fffffffffffffffffffffffffffffffffffffffffffffffffffffffffffffffff6110e19190612a6c565b915050611197565b6000806000806000896000015151905060208a510194506020895101935060005b8181101561118b57808601519350808501519250828411156111355786975050505050505050611197565b8383111561117757867fffffffffffffffffffffffffffffffffffffffffffffffffffffffffffffffff6111699190612a6c565b975050505050505050611197565b6020816111849190612ae4565b905061110a565b50600096505050505050505b9392505050565b60008151905060006a636f6e736f6c652e6c6f679050602083016000808483855afa5050505050565b6111cf611c73565b6040518060600160405280604051806040016040528060208152602001600281525081526020016000151581526020016002815250905090565b611211611c73565b6000604051806040016040528060208152602001600081525090506000836040860151029050600161010082061b6020600161010084040102835280602084015260208351018301604052506040518060600160405280838152602001600015158152602001828152509250505092915050565b61128d611c73565b600083604001511480156112a5575060008260400151145b156112b9576112b2610991565b90506114ce565b60606000806112ca86866000610fc1565b91508560200151806112dd575084602001515b1561141457856020015180156112f4575084602001515b156113a05760018203611331576113138660000151866000015161176c565b8092508194505050600184602001901515908115158152505061139b565b7fffffffffffffffffffffffffffffffffffffffffffffffffffffffffffffffff82036113885761136a8560000151876000015161176c565b8092508194505050600084602001901515908115158152505061139a565b611390610991565b93505050506114ce565b5b61140f565b600082126113cc576113bf866000015186600001518860400151611636565b80925081945050506113ec565b6113e3856000015187600001518760400151611636565b80925081945050505b85602001516113fc5760006113ff565b60015b8460200190151590811515815250505b6114b7565b6001820361144c5761142e8660000151866000015161176c565b809250819450505060008460200190151590811515815250506114b6565b7fffffffffffffffffffffffffffffffffffffffffffffffffffffffffffffffff82036114a3576114858560000151876000015161176c565b809250819450505060018460200190151590811515815250506114b5565b6114ab610991565b93505050506114ce565b5b5b828460000181905250808460400181815250505050505b92915050565b6114dc611c73565b600083515190508360400151831061152b576040518060600160405280604051806040016040528060208152602001600081525081526020016000151581526020016000815250915050611630565b82846040015161153b9190612b18565b84604001818152505061010083146101008411171561156c5760206101008404028103905080845152610100830692505b835160006008850614600181146115dd576000808661010003858501865b6000808214036115d35760208114600181146115ac57602083035195506115b1565b600095505b5081518a1c935084831b9450848417825260208203915060208103905061158a565b505050505061160b565b6008850486518051602081018383018482038282848760046101c2fa6000601f840153848652505050505050505b506020810160008151146001810361162857602083510382528187525b505050839150505b92915050565b606060006060596000600160000388518901885189018a5160208601018b515b6000808214036117025783518c518e510382116001811461169a57878201845260018814828814166001811461168f5760009850611694565b600198505b506116e9565b84518881840101855288810388038311600181146116db576000821160008b111789851416600181146116d05760009a506116d5565b60019a505b506116e0565b600199505b50602086039550505b5060208303925060208503945050602081039050611656565b506000851460018114611718576001825261171f565b6020870196505b50859650846020028c510187526020875101870160405260208701516001816101008d061c146001821417156117565760018b019a505b5050505050505080849250925050935093915050565b6060600060606000807fffffffffffffffffffffffffffffffffffffffffffffffffffffffffffffffff90505987518751808203828b01828b0184860160208101865b60008082140361183f578451868211600181146117f0578c8203855260018d146000831416600181146117e55760009d506117ea565b60019d505b50611826565b85518d81840303865260018e148d8214168e8201841017600181146118185760009e5061181d565b60019e505b50602087039650505b50602084039350602086039550506020810390506117af565b506020820191505b600082510361186757602088019750602087039650602082019150611847565b879a50868b528060405250505050505050506000611884846119c8565b9050838195509550505050509250929050565b600080600060208401905060005b84518110156118e1578151925060008311156118c757600093505050506118e9565b6020820191506020816118da9190612ae4565b90506118a5565b506001925050505b919050565b606083518351835160405183815282602082015281604082015283606082018560208b0160046101c2fa84606001848184018660208c0160046101c2fa91508481019050838184018560208b0160046101c2fa9150816000810361194e57fe5b5083810190508360608401828560056105465a03fa9150816000810361197057fe5b5083606084015b600060208314036119a75760008151146001811461199557506119a7565b60208201915050602082039150611977565b60208103985081895285856060010160405250505050505050509392505050565b60006119d382611897565b156119e15760009050611a03565b6000602083015190506119f381611a1d565b9150600860208451030282019150505b919050565b60008151518251016002815106915050919050565b600080821460018114611c68578260018403935060028404841793506004840484179350601084048417935061010084048417935062010000840484179350640100000000840484179350680100000000000000008404841793507001000000000000000000000000000000008404841793506001840193506040517ff8f9cbfae6cc78fbefe7cdc3a1793dfcf4f0e8bbd8cec470b6a28a7a5a3e1efd81527ff5ecf1b3e9debc68e1d9cfabc5997135bfb7a7a3938b7b606b5b4b3f2f1f0ffe60208201527ff6e4ed9ff2d6b458eadcdf97bd91692de2d4da8fd2d0ac50c6ae9a827252361660408201527fc8c0b887b0a8a4489c948c7f847c6125746c645c544c444038302820181008ff60608201527ff7cae577eec2a03cf3bad76fb589591debb2dd67e0aa9834bea6925f6a4a2e0e60808201527fe39ed557db96902cd38ed14fad815115c786af479b7e8324736353433727170760a08201527fc976c13bb96e881cb166a933a55e490d9d56952b8d4e801485467d236242260660c08201527f753a6d1b65325d0c552a4d1345224105391a310b29122104190a11030902010060e082015261010081016040527e818283848586878898a8b8c8d8e8f929395969799a9b9d9e9faaeb6bedeeff7f01000000000000000000000000000000000000000000000000000000000000008082880204818160ff038501510496507f800000000000000000000000000000000000000000000000000000000000000085116101000287019650600060018603861603611c5e576001870196505b5050505050611c6d565b600091505b50919050565b604051806060016040528060608152602001600015158152602001600081525090565b6000604051905090565b600080fd5b600080fd5b600080fd5b600080fd5b6000601f19601f8301169050919050565b7f4e487b7100000000000000000000000000000000000000000000000000000000600052604160045260246000fd5b611cfd82611cb4565b810181811067ffffffffffffffff82111715611d1c57611d1b611cc5565b5b80604052505050565b6000611d2f611c96565b9050611d3b8282611cf4565b919050565b600067ffffffffffffffff821115611d5b57611d5a611cc5565b5b611d6482611cb4565b9050602081019050919050565b82818337600083830152505050565b6000611d93611d8e84611d40565b611d25565b905082815260208101848484011115611daf57611dae611caf565b5b611dba848285611d71565b509392505050565b600082601f830112611dd757611dd6611caa565b5b8135611de7848260208601611d80565b91505092915050565b600080600060608486031215611e0957611e08611ca0565b5b600084013567ffffffffffffffff811115611e2757611e26611ca5565b5b611e3386828701611dc2565b935050602084013567ffffffffffffffff811115611e5457611e53611ca5565b5b611e6086828701611dc2565b925050604084013567ffffffffffffffff811115611e8157611e80611ca5565b5b611e8d86828701611dc2565b9150509250925092565b60008115159050919050565b611eac81611e97565b82525050565b6000602082019050611ec76000830184611ea3565b92915050565b600067ffffffffffffffff821115611ee857611ee7611cc5565b5b602082029050602081019050919050565b600080fd5b6000611f11611f0c84611ecd565b611d25565b90508083825260208201905060208402830185811115611f3457611f33611ef9565b5b835b81811015611f7b57803567ffffffffffffffff811115611f5957611f58611caa565b5b808601611f668982611dc2565b85526020850194505050602081019050611f36565b5050509392505050565b600082601f830112611f9a57611f99611caa565b5b8135611faa848260208601611efe565b91505092915050565b600060208284031215611fc957611fc8611ca0565b5b600082013567ffffffffffffffff811115611fe757611fe6611ca5565b5b611ff384828501611f85565b91505092915050565b600081519050919050565b600082825260208201905092915050565b6000819050602082019050919050565b600081519050919050565b600082825260208201905092915050565b60005b83811015612062578082015181840152602081019050612047565b60008484015250505050565b600061207982612028565b6120838185612033565b9350612093818560208601612044565b61209c81611cb4565b840191505092915050565b6120b081611e97565b82525050565b6000819050919050565b6120c9816120b6565b82525050565b600060608301600083015184820360008601526120ec828261206e565b915050602083015161210160208601826120a7565b50604083015161211460408601826120c0565b508091505092915050565b600061212b83836120cf565b905092915050565b6000602082019050919050565b600061214b82611ffc565b6121558185612007565b93508360208202850161216785612018565b8060005b858110156121a35784840389528151612184858261211f565b945061218f83612133565b925060208a0199505060018101905061216b565b50829750879550505050505092915050565b600060208201905081810360008301526121cf8184612140565b905092915050565b600067ffffffffffffffff8211156121f2576121f1611cc5565b5b602082029050602081019050919050565b6000612216612211846121d7565b611d25565b9050808382526020820190506020840283018581111561223957612238611ef9565b5b835b8181101561228057803567ffffffffffffffff81111561225e5761225d611caa565b5b80860161226b8982611f85565b8552602085019450505060208101905061223b565b5050509392505050565b600082601f83011261229f5761229e611caa565b5b81356122af848260208601612203565b91505092915050565b600067ffffffffffffffff8211156122d3576122d2611cc5565b5b602082029050602081019050919050565b6122ed81611e97565b81146122f857600080fd5b50565b60008135905061230a816122e4565b92915050565b600061232361231e846122b8565b611d25565b9050808382526020820190506020840283018581111561234657612345611ef9565b5b835b8181101561236f578061235b88826122fb565b845260208401935050602081019050612348565b5050509392505050565b600082601f83011261238e5761238d611caa565b5b813561239e848260208601612310565b91505092915050565b600080600080600080600080610100898b0312156123c8576123c7611ca0565b5b600089013567ffffffffffffffff8111156123e6576123e5611ca5565b5b6123f28b828c01611dc2565b985050602089013567ffffffffffffffff81111561241357612412611ca5565b5b61241f8b828c0161228a565b975050604089013567ffffffffffffffff8111156124405761243f611ca5565b5b61244c8b828c01612379565b965050606089013567ffffffffffffffff81111561246d5761246c611ca5565b5b6124798b828c01611f85565b955050608089013567ffffffffffffffff81111561249a57612499611ca5565b5b6124a68b828c01611f85565b94505060a089013567ffffffffffffffff8111156124c7576124c6611ca5565b5b6124d38b828c01611f85565b93505060c089013567ffffffffffffffff8111156124f4576124f3611ca5565b5b6125008b828c01611dc2565b92505060e089013567ffffffffffffffff81111561252157612520611ca5565b5b61252d8b828c01611dc2565b9150509295985092959890939650565b600067ffffffffffffffff82111561255857612557611cc5565b5b602082029050602081019050919050565b600080fd5b600080fd5b61257c816120b6565b811461258757600080fd5b50565b60008135905061259981612573565b92915050565b6000606082840312156125b5576125b4612569565b5b6125bf6060611d25565b9050600082013567ffffffffffffffff8111156125df576125de61256e565b5b6125eb84828501611dc2565b60008301525060206125ff848285016122fb565b60208301525060406126138482850161258a565b60408301525092915050565b600061263261262d8461253d565b611d25565b9050808382526020820190506020840283018581111561265557612654611ef9565b5b835b8181101561269c57803567ffffffffffffffff81111561267a57612679611caa565b5b808601612687898261259f565b85526020850194505050602081019050612657565b5050509392505050565b600082601f8301126126bb576126ba611caa565b5b81356126cb84826020860161261f565b91505092915050565b600080600080600060a086880312156126f0576126ef611ca0565b5b600086013567ffffffffffffffff81111561270e5761270d611ca5565b5b61271a8882890161228a565b955050602086013567ffffffffffffffff81111561273b5761273a611ca5565b5b61274788828901612379565b945050604086013567ffffffffffffffff81111561276857612767611ca5565b5b612774888289016126a6565b935050606086013567ffffffffffffffff81111561279557612794611ca5565b5b6127a188828901611f85565b925050608086013567ffffffffffffffff8111156127c2576127c1611ca5565b5b6127ce8882890161259f565b9150509295509295909350565b7f4e487b7100000000000000000000000000000000000000000000000000000000600052603260045260246000fd5b7f4e487b7100000000000000000000000000000000000000000000000000000000600052601160045260246000fd5b6000612844826120b6565b91507fffffffffffffffffffffffffffffffffffffffffffffffffffffffffffffffff82036128765761287561280a565b5b600182019050919050565b600082825260208201905092915050565b7f4d6f64756c617220696e766572736520766572696669636174696f6e2066616960008201527f6c732e0000000000000000000000000000000000000000000000000000000000602082015250565b60006128ee602383612881565b91506128f982612892565b604082019050919050565b6000602082019050818103600083015261291d816128e1565b9050919050565b600081519050919050565b600061293a82612924565b6129448185612881565b9350612954818560208601612044565b61295d81611cb4565b840191505092915050565b60006020820190508181036000830152612982818461292f565b905092915050565b7f736f6d657468696e672077726f6e672068657265000000000000000000000000600082015250565b60006129c0601483612881565b91506129cb8261298a565b602082019050919050565b600060208201905081810360008301526129ef816129b3565b9050919050565b7f616e64206865726520746f6f0000000000000000000000000000000000000000600082015250565b6000612a2c600c83612881565b9150612a37826129f6565b602082019050919050565b60006020820190508181036000830152612a5b81612a1f565b9050919050565b6000819050919050565b6000612a7782612a62565b9150612a8283612a62565b9250828202612a9081612a62565b91507f80000000000000000000000000000000000000000000000000000000000000008414600084121615612ac857612ac761280a565b5b8282058414831517612add57612adc61280a565b5b5092915050565b6000612aef826120b6565b9150612afa836120b6565b9250828201905080821115612b1257612b1161280a565b5b92915050565b6000612b23826120b6565b9150612b2e836120b6565b9250828203905081811115612b4657612b4561280a565b5b9291505056fea2646970667358221220380d66bb88e59a39952f01a49f5b953702065d81c57d9cc05e2f2fb631eb6c7864736f6c63430008110033","opcodes":"PUSH1 0x80 PUSH1 0x40 MSTORE CALLVALUE DUP1 ISZERO PUSH2 0x10 JUMPI PUSH1 0x0 DUP1 REVERT JUMPDEST POP PUSH2 0x2B82 DUP1 PUSH2 0x20 PUSH1 0x0 CODECOPY PUSH1 0x0 RETURN INVALID PUSH1 0x80 PUSH1 0x40 MSTORE CALLVALUE DUP1 ISZERO PUSH2 0x10 JUMPI PUSH1 0x0 DUP1 REVERT JUMPDEST POP PUSH1 0x4 CALLDATASIZE LT PUSH2 0x4C JUMPI PUSH1 0x0 CALLDATALOAD PUSH1 0xE0 SHR DUP1 PUSH4 0x41A3AA0C EQ PUSH2 0x51 JUMPI DUP1 PUSH4 0x6FD08499 EQ PUSH2 0x81 JUMPI DUP1 PUSH4 0x9E97F341 EQ PUSH2 0xB1 JUMPI DUP1 PUSH4 0xCD3CF360 EQ PUSH2 0xE1 JUMPI JUMPDEST PUSH1 0x0 DUP1 REVERT JUMPDEST PUSH2 0x6B PUSH1 0x4 DUP1 CALLDATASIZE SUB DUP2 ADD SWAP1 PUSH2 0x66 SWAP2 SWAP1 PUSH2 0x1DF0 JUMP JUMPDEST PUSH2 0x111 JUMP JUMPDEST PUSH1 0x40 MLOAD PUSH2 0x78 SWAP2 SWAP1 PUSH2 0x1EB2 JUMP JUMPDEST PUSH1 0x40 MLOAD DUP1 SWAP2 SUB SWAP1 RETURN JUMPDEST PUSH2 0x9B PUSH1 0x4 DUP1 CALLDATASIZE SUB DUP2 ADD SWAP1 PUSH2 0x96 SWAP2 SWAP1 PUSH2 0x1FB3 JUMP JUMPDEST PUSH2 0x156 JUMP JUMPDEST PUSH1 0x40 MLOAD PUSH2 0xA8 SWAP2 SWAP1 PUSH2 0x21B5 JUMP JUMPDEST PUSH1 0x40 MLOAD DUP1 SWAP2 SUB SWAP1 RETURN JUMPDEST PUSH2 0xCB PUSH1 0x4 DUP1 CALLDATASIZE SUB DUP2 ADD SWAP1 PUSH2 0xC6 SWAP2 SWAP1 PUSH2 0x23A7 JUMP JUMPDEST PUSH2 0x255 JUMP JUMPDEST PUSH1 0x40 MLOAD PUSH2 0xD8 SWAP2 SWAP1 PUSH2 0x1EB2 JUMP JUMPDEST PUSH1 0x40 MLOAD DUP1 SWAP2 SUB SWAP1 RETURN JUMPDEST PUSH2 0xFB PUSH1 0x4 DUP1 CALLDATASIZE SUB DUP2 ADD SWAP1 PUSH2 0xF6 SWAP2 SWAP1 PUSH2 0x26D4 JUMP JUMPDEST PUSH2 0x55D JUMP JUMPDEST PUSH1 0x40 MLOAD PUSH2 0x108 SWAP2 SWAP1 PUSH2 0x1EB2 JUMP JUMPDEST PUSH1 0x40 MLOAD DUP1 SWAP2 SUB SWAP1 RETURN JUMPDEST PUSH1 0x0 DUP1 PUSH2 0x11F DUP6 PUSH1 0x0 PUSH2 0x7C0 JUMP JUMPDEST SWAP1 POP PUSH1 0x0 PUSH2 0x12E DUP6 PUSH1 0x0 PUSH2 0x7C0 JUMP JUMPDEST SWAP1 POP PUSH1 0x0 PUSH2 0x13D DUP6 PUSH1 0x0 PUSH2 0x7C0 JUMP JUMPDEST SWAP1 POP PUSH2 0x14A DUP4 DUP4 DUP4 PUSH2 0x7DC JUMP JUMPDEST SWAP4 POP POP POP POP SWAP4 SWAP3 POP POP POP JUMP JUMPDEST PUSH1 0x60 DUP2 MLOAD PUSH8 0xFFFFFFFFFFFFFFFF DUP2 GT ISZERO PUSH2 0x173 JUMPI PUSH2 0x172 PUSH2 0x1CC5 JUMP JUMPDEST JUMPDEST PUSH1 0x40 MLOAD SWAP1 DUP1 DUP3 MSTORE DUP1 PUSH1 0x20 MUL PUSH1 0x20 ADD DUP3 ADD PUSH1 0x40 MSTORE DUP1 ISZERO PUSH2 0x1AC JUMPI DUP2 PUSH1 0x20 ADD JUMPDEST PUSH2 0x199 PUSH2 0x1C73 JUMP JUMPDEST DUP2 MSTORE PUSH1 0x20 ADD SWAP1 PUSH1 0x1 SWAP1 SUB SWAP1 DUP2 PUSH2 0x191 JUMPI SWAP1 POP JUMPDEST POP SWAP1 POP PUSH2 0x1ED PUSH1 0x40 MLOAD DUP1 PUSH1 0x40 ADD PUSH1 0x40 MSTORE DUP1 PUSH1 0x4 DUP2 MSTORE PUSH1 0x20 ADD PUSH32 0x6865726500000000000000000000000000000000000000000000000000000000 DUP2 MSTORE POP PUSH2 0x82F JUMP JUMPDEST PUSH1 0x0 JUMPDEST DUP3 MLOAD DUP2 LT ISZERO PUSH2 0x24F JUMPI PUSH2 0x21E DUP4 DUP3 DUP2 MLOAD DUP2 LT PUSH2 0x20F JUMPI PUSH2 0x20E PUSH2 0x27DB JUMP JUMPDEST JUMPDEST PUSH1 0x20 MUL PUSH1 0x20 ADD ADD MLOAD PUSH1 0x0 PUSH2 0x7C0 JUMP JUMPDEST DUP3 DUP3 DUP2 MLOAD DUP2 LT PUSH2 0x231 JUMPI PUSH2 0x230 PUSH2 0x27DB JUMP JUMPDEST JUMPDEST PUSH1 0x20 MUL PUSH1 0x20 ADD ADD DUP2 SWAP1 MSTORE POP DUP1 DUP1 PUSH2 0x247 SWAP1 PUSH2 0x2839 JUMP JUMPDEST SWAP2 POP POP PUSH2 0x1F0 JUMP JUMPDEST POP SWAP2 SWAP1 POP JUMP JUMPDEST PUSH1 0x0 DUP1 PUSH2 0x263 DUP4 PUSH1 0x0 PUSH2 0x7C0 JUMP JUMPDEST SWAP1 POP PUSH1 0x0 PUSH2 0x27A DUP3 DUP4 PUSH2 0x8C8 SWAP1 SWAP2 SWAP1 PUSH4 0xFFFFFFFF AND JUMP JUMPDEST SWAP1 POP PUSH1 0x0 JUMPDEST DUP7 MLOAD DUP2 LT ISZERO PUSH2 0x323 JUMPI PUSH1 0x0 PUSH2 0x2CD DUP9 DUP4 DUP2 MLOAD DUP2 LT PUSH2 0x2A0 JUMPI PUSH2 0x29F PUSH2 0x27DB JUMP JUMPDEST JUMPDEST PUSH1 0x20 MUL PUSH1 0x20 ADD ADD MLOAD DUP6 PUSH1 0x0 ADD MLOAD DUP13 DUP6 DUP2 MLOAD DUP2 LT PUSH2 0x2C0 JUMPI PUSH2 0x2BF PUSH2 0x27DB JUMP JUMPDEST JUMPDEST PUSH1 0x20 MUL PUSH1 0x20 ADD ADD MLOAD PUSH2 0x111 JUMP JUMPDEST SWAP1 POP DUP1 PUSH2 0x30F JUMPI PUSH1 0x40 MLOAD PUSH32 0x8C379A000000000000000000000000000000000000000000000000000000000 DUP2 MSTORE PUSH1 0x4 ADD PUSH2 0x306 SWAP1 PUSH2 0x2904 JUMP JUMPDEST PUSH1 0x40 MLOAD DUP1 SWAP2 SUB SWAP1 REVERT JUMPDEST POP DUP1 DUP1 PUSH2 0x31B SWAP1 PUSH2 0x2839 JUMP JUMPDEST SWAP2 POP POP PUSH2 0x27F JUMP JUMPDEST POP PUSH1 0x0 PUSH2 0x331 DUP13 PUSH1 0x0 PUSH2 0x7C0 JUMP JUMPDEST SWAP1 POP PUSH1 0x0 DUP10 MLOAD PUSH8 0xFFFFFFFFFFFFFFFF DUP2 GT ISZERO PUSH2 0x350 JUMPI PUSH2 0x34F PUSH2 0x1CC5 JUMP JUMPDEST JUMPDEST PUSH1 0x40 MLOAD SWAP1 DUP1 DUP3 MSTORE DUP1 PUSH1 0x20 MUL PUSH1 0x20 ADD DUP3 ADD PUSH1 0x40 MSTORE DUP1 ISZERO PUSH2 0x389 JUMPI DUP2 PUSH1 0x20 ADD JUMPDEST PUSH2 0x376 PUSH2 0x1C73 JUMP JUMPDEST DUP2 MSTORE PUSH1 0x20 ADD SWAP1 PUSH1 0x1 SWAP1 SUB SWAP1 DUP2 PUSH2 0x36E JUMPI SWAP1 POP JUMPDEST POP SWAP1 POP PUSH1 0x0 JUMPDEST DUP11 MLOAD DUP2 LT ISZERO PUSH2 0x408 JUMPI PUSH1 0x0 PUSH2 0x3D3 PUSH2 0x3C2 DUP14 DUP5 DUP2 MLOAD DUP2 LT PUSH2 0x3B3 JUMPI PUSH2 0x3B2 PUSH2 0x27DB JUMP JUMPDEST JUMPDEST PUSH1 0x20 MUL PUSH1 0x20 ADD ADD MLOAD PUSH1 0x0 PUSH2 0x7C0 JUMP JUMPDEST DUP7 DUP7 PUSH2 0x96D SWAP1 SWAP3 SWAP2 SWAP1 PUSH4 0xFFFFFFFF AND JUMP JUMPDEST SWAP1 POP DUP1 DUP4 DUP4 DUP2 MLOAD DUP2 LT PUSH2 0x3E9 JUMPI PUSH2 0x3E8 PUSH2 0x27DB JUMP JUMPDEST JUMPDEST PUSH1 0x20 MUL PUSH1 0x20 ADD ADD DUP2 SWAP1 MSTORE POP POP DUP1 DUP1 PUSH2 0x400 SWAP1 PUSH2 0x2839 JUMP JUMPDEST SWAP2 POP POP PUSH2 0x38F JUMP JUMPDEST POP PUSH1 0x0 PUSH2 0x413 PUSH2 0x991 JUMP JUMPDEST SWAP1 POP PUSH1 0x0 JUMPDEST DUP14 PUSH1 0x0 DUP2 MLOAD DUP2 LT PUSH2 0x42C JUMPI PUSH2 0x42B PUSH2 0x27DB JUMP JUMPDEST JUMPDEST PUSH1 0x20 MUL PUSH1 0x20 ADD ADD MLOAD MLOAD DUP2 LT ISZERO PUSH2 0x51E JUMPI PUSH1 0x0 PUSH2 0x47E DUP16 PUSH1 0x0 DUP2 MLOAD DUP2 LT PUSH2 0x455 JUMPI PUSH2 0x454 PUSH2 0x27DB JUMP JUMPDEST JUMPDEST PUSH1 0x20 MUL PUSH1 0x20 ADD ADD MLOAD DUP4 DUP2 MLOAD DUP2 LT PUSH2 0x46F JUMPI PUSH2 0x46E PUSH2 0x27DB JUMP JUMPDEST JUMPDEST PUSH1 0x20 MUL PUSH1 0x20 ADD ADD MLOAD PUSH1 0x0 PUSH2 0x7C0 JUMP JUMPDEST SWAP1 POP DUP14 DUP3 DUP2 MLOAD DUP2 LT PUSH2 0x493 JUMPI PUSH2 0x492 PUSH2 0x27DB JUMP JUMPDEST JUMPDEST PUSH1 0x20 MUL PUSH1 0x20 ADD ADD MLOAD ISZERO PUSH2 0x4E3 JUMPI PUSH2 0x4E0 DUP16 PUSH1 0x0 DUP2 MLOAD DUP2 LT PUSH2 0x4B7 JUMPI PUSH2 0x4B6 PUSH2 0x27DB JUMP JUMPDEST JUMPDEST PUSH1 0x20 MUL PUSH1 0x20 ADD ADD MLOAD DUP4 DUP2 MLOAD DUP2 LT PUSH2 0x4D1 JUMPI PUSH2 0x4D0 PUSH2 0x27DB JUMP JUMPDEST JUMPDEST PUSH1 0x20 MUL PUSH1 0x20 ADD ADD MLOAD PUSH1 0x1 PUSH2 0x7C0 JUMP JUMPDEST SWAP1 POP JUMPDEST PUSH2 0x508 DUP8 PUSH2 0x4FA DUP4 DUP7 PUSH2 0x9D3 SWAP1 SWAP2 SWAP1 PUSH4 0xFFFFFFFF AND JUMP JUMPDEST PUSH2 0xBFB SWAP1 SWAP2 SWAP1 PUSH4 0xFFFFFFFF AND JUMP JUMPDEST SWAP3 POP POP DUP1 DUP1 PUSH2 0x516 SWAP1 PUSH2 0x2839 JUMP JUMPDEST SWAP2 POP POP PUSH2 0x418 JUMP JUMPDEST POP PUSH2 0x53C PUSH2 0x52D DUP10 PUSH1 0x0 PUSH2 0x7C0 JUMP JUMPDEST DUP3 PUSH2 0xC1D SWAP1 SWAP2 SWAP1 PUSH4 0xFFFFFFFF AND JUMP JUMPDEST POP PUSH2 0x54A DUP14 DUP14 DUP5 DUP14 DUP10 PUSH2 0x55D JUMP JUMPDEST SWAP6 POP POP POP POP POP POP SWAP9 SWAP8 POP POP POP POP POP POP POP POP JUMP JUMPDEST PUSH1 0x0 DUP1 PUSH2 0x573 DUP4 DUP5 PUSH2 0x8C8 SWAP1 SWAP2 SWAP1 PUSH4 0xFFFFFFFF AND JUMP JUMPDEST SWAP1 POP PUSH1 0x0 JUMPDEST DUP8 PUSH1 0x2 DUP2 MLOAD DUP2 LT PUSH2 0x58C JUMPI PUSH2 0x58B PUSH2 0x27DB JUMP JUMPDEST JUMPDEST PUSH1 0x20 MUL PUSH1 0x20 ADD ADD MLOAD MLOAD DUP2 LT ISZERO PUSH2 0x7B0 JUMPI PUSH1 0x0 PUSH2 0x5DE DUP10 PUSH1 0x2 DUP2 MLOAD DUP2 LT PUSH2 0x5B5 JUMPI PUSH2 0x5B4 PUSH2 0x27DB JUMP JUMPDEST JUMPDEST PUSH1 0x20 MUL PUSH1 0x20 ADD ADD MLOAD DUP4 DUP2 MLOAD DUP2 LT PUSH2 0x5CF JUMPI PUSH2 0x5CE PUSH2 0x27DB JUMP JUMPDEST JUMPDEST PUSH1 0x20 MUL PUSH1 0x20 ADD ADD MLOAD PUSH1 0x0 PUSH2 0x7C0 JUMP JUMPDEST SWAP1 POP PUSH1 0x0 PUSH2 0x622 DUP11 PUSH1 0x1 DUP2 MLOAD DUP2 LT PUSH2 0x5F9 JUMPI PUSH2 0x5F8 PUSH2 0x27DB JUMP JUMPDEST JUMPDEST PUSH1 0x20 MUL PUSH1 0x20 ADD ADD MLOAD DUP5 DUP2 MLOAD DUP2 LT PUSH2 0x613 JUMPI PUSH2 0x612 PUSH2 0x27DB JUMP JUMPDEST JUMPDEST PUSH1 0x20 MUL PUSH1 0x20 ADD ADD MLOAD PUSH1 0x0 PUSH2 0x7C0 JUMP JUMPDEST SWAP1 POP PUSH1 0x0 DUP9 DUP5 DUP2 MLOAD DUP2 LT PUSH2 0x639 JUMPI PUSH2 0x638 PUSH2 0x27DB JUMP JUMPDEST JUMPDEST PUSH1 0x20 MUL PUSH1 0x20 ADD ADD MLOAD SWAP1 POP PUSH1 0x0 PUSH2 0x650 DUP5 DUP10 DUP9 PUSH2 0xC49 JUMP JUMPDEST SWAP1 POP PUSH1 0x0 PUSH2 0x694 DUP14 PUSH1 0x0 DUP2 MLOAD DUP2 LT PUSH2 0x66B JUMPI PUSH2 0x66A PUSH2 0x27DB JUMP JUMPDEST JUMPDEST PUSH1 0x20 MUL PUSH1 0x20 ADD ADD MLOAD DUP8 DUP2 MLOAD DUP2 LT PUSH2 0x685 JUMPI PUSH2 0x684 PUSH2 0x27DB JUMP JUMPDEST JUMPDEST PUSH1 0x20 MUL PUSH1 0x20 ADD ADD MLOAD PUSH1 0x0 PUSH2 0x7C0 JUMP JUMPDEST SWAP1 POP PUSH2 0x69E PUSH2 0x1C73 JUMP JUMPDEST PUSH2 0x6A6 PUSH2 0x1C73 JUMP JUMPDEST DUP14 DUP9 DUP2 MLOAD DUP2 LT PUSH2 0x6B9 JUMPI PUSH2 0x6B8 PUSH2 0x27DB JUMP JUMPDEST JUMPDEST PUSH1 0x20 MUL PUSH1 0x20 ADD ADD MLOAD ISZERO PUSH2 0x752 JUMPI PUSH2 0x706 DUP16 PUSH1 0x0 DUP2 MLOAD DUP2 LT PUSH2 0x6DD JUMPI PUSH2 0x6DC PUSH2 0x27DB JUMP JUMPDEST JUMPDEST PUSH1 0x20 MUL PUSH1 0x20 ADD ADD MLOAD DUP10 DUP2 MLOAD DUP2 LT PUSH2 0x6F7 JUMPI PUSH2 0x6F6 PUSH2 0x27DB JUMP JUMPDEST JUMPDEST PUSH1 0x20 MUL PUSH1 0x20 ADD ADD MLOAD PUSH1 0x1 PUSH2 0x7C0 JUMP JUMPDEST SWAP3 POP PUSH1 0x0 PUSH2 0x72F DUP14 DUP11 DUP2 MLOAD DUP2 LT PUSH2 0x720 JUMPI PUSH2 0x71F PUSH2 0x27DB JUMP JUMPDEST JUMPDEST PUSH1 0x20 MUL PUSH1 0x20 ADD ADD MLOAD PUSH1 0x0 PUSH2 0x7C0 JUMP JUMPDEST SWAP1 POP PUSH2 0x73D DUP7 DUP3 DUP7 DUP14 PUSH2 0xD46 JUMP JUMPDEST SWAP3 POP PUSH2 0x74A DUP8 DUP5 DUP13 PUSH2 0x96D JUMP JUMPDEST SWAP2 POP POP PUSH2 0x76D JUMP JUMPDEST PUSH2 0x75D DUP6 DUP5 DUP12 PUSH2 0xC49 JUMP JUMPDEST SWAP2 POP PUSH2 0x76A DUP7 DUP4 DUP12 PUSH2 0x96D JUMP JUMPDEST SWAP1 POP JUMPDEST PUSH2 0x780 DUP2 DUP6 PUSH2 0xC1D SWAP1 SWAP2 SWAP1 PUSH4 0xFFFFFFFF AND JUMP JUMPDEST PUSH2 0x796 JUMPI PUSH1 0x0 SWAP10 POP POP POP POP POP POP POP POP POP POP PUSH2 0x7B7 JUMP JUMPDEST POP POP POP POP POP POP POP DUP1 DUP1 PUSH2 0x7A8 SWAP1 PUSH2 0x2839 JUMP JUMPDEST SWAP2 POP POP PUSH2 0x578 JUMP JUMPDEST POP PUSH1 0x1 SWAP2 POP POP JUMPDEST SWAP6 SWAP5 POP POP POP POP POP JUMP JUMPDEST PUSH2 0x7C8 PUSH2 0x1C73 JUMP JUMPDEST PUSH2 0x7D4 DUP4 DUP4 PUSH1 0x0 PUSH2 0xEB2 JUMP JUMPDEST SWAP1 POP SWAP3 SWAP2 POP POP JUMP JUMPDEST PUSH1 0x0 DUP4 PUSH1 0x20 ADD MLOAD ISZERO DUP1 ISZERO PUSH2 0x7F2 JUMPI POP DUP3 PUSH1 0x20 ADD MLOAD ISZERO JUMPDEST PUSH2 0x7FB JUMPI PUSH1 0x0 DUP1 REVERT JUMPDEST PUSH1 0x0 PUSH2 0x81A PUSH2 0x80B DUP7 DUP6 DUP8 PUSH2 0x96D JUMP JUMPDEST PUSH2 0x813 PUSH2 0xF7F JUMP JUMPDEST PUSH1 0x1 PUSH2 0xFC1 JUMP JUMPDEST EQ PUSH2 0x824 JUMPI PUSH1 0x0 DUP1 REVERT JUMPDEST PUSH1 0x1 SWAP1 POP SWAP4 SWAP3 POP POP POP JUMP JUMPDEST PUSH2 0x8C5 DUP2 PUSH1 0x40 MLOAD PUSH1 0x24 ADD PUSH2 0x843 SWAP2 SWAP1 PUSH2 0x2968 JUMP JUMPDEST PUSH1 0x40 MLOAD PUSH1 0x20 DUP2 DUP4 SUB SUB DUP2 MSTORE SWAP1 PUSH1 0x40 MSTORE PUSH32 0x41304FAC00000000000000000000000000000000000000000000000000000000 PUSH28 0xFFFFFFFFFFFFFFFFFFFFFFFFFFFFFFFFFFFFFFFFFFFFFFFFFFFFFFFF NOT AND PUSH1 0x20 DUP3 ADD DUP1 MLOAD PUSH28 0xFFFFFFFFFFFFFFFFFFFFFFFFFFFFFFFFFFFFFFFFFFFFFFFFFFFFFFFF DUP4 DUP2 DUP4 AND OR DUP4 MSTORE POP POP POP POP PUSH2 0x119E JUMP JUMPDEST POP JUMP JUMPDEST PUSH2 0x8D0 PUSH2 0x1C73 JUMP JUMPDEST PUSH1 0x0 PUSH2 0x8DC DUP5 DUP5 PUSH2 0x9D3 JUMP JUMPDEST SWAP1 POP PUSH1 0x0 PUSH2 0x8FC DUP3 PUSH2 0x8EC PUSH2 0x11C7 JUMP JUMPDEST PUSH2 0x8F7 DUP6 PUSH1 0x2 PUSH2 0x1209 JUMP JUMPDEST PUSH2 0xC49 JUMP JUMPDEST SWAP1 POP PUSH2 0x908 DUP6 DUP6 PUSH2 0xC1D JUMP JUMPDEST PUSH2 0x957 JUMPI PUSH1 0x0 PUSH2 0x918 DUP7 DUP7 PUSH2 0x1285 JUMP JUMPDEST SWAP1 POP PUSH1 0x0 PUSH2 0x938 DUP3 PUSH2 0x928 PUSH2 0x11C7 JUMP JUMPDEST PUSH2 0x933 DUP6 PUSH1 0x2 PUSH2 0x1209 JUMP JUMPDEST PUSH2 0xC49 JUMP JUMPDEST SWAP1 POP PUSH2 0x94E PUSH2 0x947 DUP5 DUP4 PUSH2 0x1285 JUMP JUMPDEST PUSH1 0x2 PUSH2 0x14D4 JUMP JUMPDEST SWAP5 POP POP POP PUSH2 0x965 JUMP JUMPDEST PUSH2 0x962 DUP2 PUSH1 0x2 PUSH2 0x14D4 JUMP JUMPDEST SWAP3 POP JUMPDEST POP POP SWAP3 SWAP2 POP POP JUMP JUMPDEST PUSH2 0x975 PUSH2 0x1C73 JUMP JUMPDEST PUSH2 0x988 PUSH2 0x982 DUP6 DUP6 PUSH2 0x8C8 JUMP JUMPDEST DUP4 PUSH2 0xBFB JUMP JUMPDEST SWAP1 POP SWAP4 SWAP3 POP POP POP JUMP JUMPDEST PUSH2 0x999 PUSH2 0x1C73 JUMP JUMPDEST PUSH1 0x40 MLOAD DUP1 PUSH1 0x60 ADD PUSH1 0x40 MSTORE DUP1 PUSH1 0x40 MLOAD DUP1 PUSH1 0x40 ADD PUSH1 0x40 MSTORE DUP1 PUSH1 0x20 DUP2 MSTORE PUSH1 0x20 ADD PUSH1 0x0 DUP2 MSTORE POP DUP2 MSTORE PUSH1 0x20 ADD PUSH1 0x0 ISZERO ISZERO DUP2 MSTORE PUSH1 0x20 ADD PUSH1 0x0 DUP2 MSTORE POP SWAP1 POP SWAP1 JUMP JUMPDEST PUSH2 0x9DB PUSH2 0x1C73 JUMP JUMPDEST PUSH1 0x0 DUP4 PUSH1 0x40 ADD MLOAD EQ DUP1 ISZERO PUSH2 0x9F3 JUMPI POP PUSH1 0x0 DUP3 PUSH1 0x40 ADD MLOAD EQ JUMPDEST ISZERO PUSH2 0xA07 JUMPI PUSH2 0xA00 PUSH2 0x991 JUMP JUMPDEST SWAP1 POP PUSH2 0xBF5 JUMP JUMPDEST PUSH1 0x0 DUP4 PUSH1 0x40 ADD MLOAD SUB PUSH2 0xA1B JUMPI DUP2 SWAP1 POP PUSH2 0xBF5 JUMP JUMPDEST PUSH1 0x0 DUP3 PUSH1 0x40 ADD MLOAD SUB PUSH2 0xA2F JUMPI DUP3 SWAP1 POP PUSH2 0xBF5 JUMP JUMPDEST PUSH1 0x60 PUSH1 0x0 DUP1 PUSH2 0xA40 DUP7 DUP7 PUSH1 0x0 PUSH2 0xFC1 JUMP JUMPDEST SWAP1 POP DUP6 PUSH1 0x20 ADD MLOAD DUP1 PUSH2 0xA53 JUMPI POP DUP5 PUSH1 0x20 ADD MLOAD JUMPDEST ISZERO PUSH2 0xB80 JUMPI DUP6 PUSH1 0x20 ADD MLOAD DUP1 ISZERO PUSH2 0xA6A JUMPI POP DUP5 PUSH1 0x20 ADD MLOAD JUMPDEST ISZERO PUSH2 0xAD1 JUMPI PUSH1 0x0 DUP2 SLT PUSH2 0xA9B JUMPI PUSH2 0xA8E DUP7 PUSH1 0x0 ADD MLOAD DUP7 PUSH1 0x0 ADD MLOAD DUP9 PUSH1 0x40 ADD MLOAD PUSH2 0x1636 JUMP JUMPDEST DUP1 SWAP4 POP DUP2 SWAP5 POP POP POP PUSH2 0xABB JUMP JUMPDEST PUSH2 0xAB2 DUP6 PUSH1 0x0 ADD MLOAD DUP8 PUSH1 0x0 ADD MLOAD DUP8 PUSH1 0x40 ADD MLOAD PUSH2 0x1636 JUMP JUMPDEST DUP1 SWAP4 POP DUP2 SWAP5 POP POP POP JUMPDEST PUSH1 0x1 DUP5 PUSH1 0x20 ADD SWAP1 ISZERO ISZERO SWAP1 DUP2 ISZERO ISZERO DUP2 MSTORE POP POP PUSH2 0xB7B JUMP JUMPDEST PUSH1 0x1 DUP2 SUB PUSH2 0xB0C JUMPI PUSH2 0xAEB DUP7 PUSH1 0x0 ADD MLOAD DUP7 PUSH1 0x0 ADD MLOAD PUSH2 0x176C JUMP JUMPDEST DUP1 SWAP4 POP DUP2 SWAP5 POP POP POP DUP6 PUSH1 0x20 ADD MLOAD DUP5 PUSH1 0x20 ADD SWAP1 ISZERO ISZERO SWAP1 DUP2 ISZERO ISZERO DUP2 MSTORE POP POP PUSH2 0xB7A JUMP JUMPDEST PUSH32 0xFFFFFFFFFFFFFFFFFFFFFFFFFFFFFFFFFFFFFFFFFFFFFFFFFFFFFFFFFFFFFFFF DUP2 SUB PUSH2 0xB67 JUMPI PUSH2 0xB45 DUP6 PUSH1 0x0 ADD MLOAD DUP8 PUSH1 0x0 ADD MLOAD PUSH2 0x176C JUMP JUMPDEST DUP1 SWAP4 POP DUP2 SWAP5 POP POP POP DUP6 PUSH1 0x20 ADD MLOAD ISZERO DUP5 PUSH1 0x20 ADD SWAP1 ISZERO ISZERO SWAP1 DUP2 ISZERO ISZERO DUP2 MSTORE POP POP PUSH2 0xB79 JUMP JUMPDEST PUSH2 0xB6F PUSH2 0x991 JUMP JUMPDEST SWAP4 POP POP POP POP PUSH2 0xBF5 JUMP JUMPDEST JUMPDEST JUMPDEST PUSH2 0xBDE JUMP JUMPDEST PUSH1 0x0 DUP2 SLT PUSH2 0xBAC JUMPI PUSH2 0xB9F DUP7 PUSH1 0x0 ADD MLOAD DUP7 PUSH1 0x0 ADD MLOAD DUP9 PUSH1 0x40 ADD MLOAD PUSH2 0x1636 JUMP JUMPDEST DUP1 SWAP4 POP DUP2 SWAP5 POP POP POP PUSH2 0xBCC JUMP JUMPDEST PUSH2 0xBC3 DUP6 PUSH1 0x0 ADD MLOAD DUP8 PUSH1 0x0 ADD MLOAD DUP8 PUSH1 0x40 ADD MLOAD PUSH2 0x1636 JUMP JUMPDEST DUP1 SWAP4 POP DUP2 SWAP5 POP POP POP JUMPDEST PUSH1 0x0 DUP5 PUSH1 0x20 ADD SWAP1 ISZERO ISZERO SWAP1 DUP2 ISZERO ISZERO DUP2 MSTORE POP POP JUMPDEST DUP3 DUP5 PUSH1 0x0 ADD DUP2 SWAP1 MSTORE POP DUP2 DUP5 PUSH1 0x40 ADD DUP2 DUP2 MSTORE POP POP POP POP POP JUMPDEST SWAP3 SWAP2 POP POP JUMP JUMPDEST PUSH2 0xC03 PUSH2 0x1C73 JUMP JUMPDEST PUSH2 0xC15 DUP4 PUSH2 0xC0F PUSH2 0xF7F JUMP JUMPDEST DUP5 PUSH2 0xC49 JUMP JUMPDEST SWAP1 POP SWAP3 SWAP2 POP POP JUMP JUMPDEST PUSH1 0x0 DUP1 PUSH2 0xC2C DUP5 DUP5 PUSH1 0x1 PUSH2 0xFC1 JUMP JUMPDEST SWAP1 POP PUSH1 0x0 DUP2 EQ PUSH2 0xC3D JUMPI PUSH1 0x0 PUSH2 0xC40 JUMP JUMPDEST PUSH1 0x1 JUMPDEST SWAP2 POP POP SWAP3 SWAP2 POP POP JUMP JUMPDEST PUSH2 0xC51 PUSH2 0x1C73 JUMP JUMPDEST PUSH1 0x0 ISZERO ISZERO DUP4 PUSH1 0x20 ADD MLOAD ISZERO ISZERO EQ DUP1 ISZERO PUSH2 0xC71 JUMPI POP PUSH1 0x0 ISZERO ISZERO DUP3 PUSH1 0x20 ADD MLOAD ISZERO ISZERO EQ JUMPDEST DUP1 ISZERO PUSH2 0xC87 JUMPI POP PUSH2 0xC85 DUP3 PUSH1 0x0 ADD MLOAD PUSH2 0x1897 JUMP JUMPDEST ISZERO JUMPDEST PUSH2 0xC90 JUMPI PUSH1 0x0 DUP1 REVERT JUMPDEST PUSH1 0x0 PUSH2 0xCA9 DUP6 PUSH1 0x0 ADD MLOAD DUP6 PUSH1 0x0 ADD MLOAD DUP6 PUSH1 0x0 ADD MLOAD PUSH2 0x18EE JUMP JUMPDEST SWAP1 POP PUSH1 0x0 PUSH2 0xCB6 DUP3 PUSH2 0x19C8 JUMP JUMPDEST SWAP1 POP PUSH1 0x0 DUP2 SUB PUSH2 0xCD1 JUMPI PUSH2 0xCC8 PUSH2 0x991 JUMP JUMPDEST SWAP3 POP POP POP PUSH2 0xD3F JUMP JUMPDEST DUP6 PUSH1 0x20 ADD MLOAD DUP1 ISZERO PUSH2 0xCE7 JUMPI POP PUSH2 0xCE6 DUP6 PUSH2 0x1A08 JUMP JUMPDEST JUMPDEST ISZERO PUSH2 0xD1C JUMPI PUSH2 0xD13 PUSH1 0x40 MLOAD DUP1 PUSH1 0x60 ADD PUSH1 0x40 MSTORE DUP1 DUP5 DUP2 MSTORE PUSH1 0x20 ADD PUSH1 0x1 ISZERO ISZERO DUP2 MSTORE PUSH1 0x20 ADD DUP4 DUP2 MSTORE POP DUP6 PUSH2 0x9D3 JUMP JUMPDEST SWAP3 POP POP POP PUSH2 0xD3F JUMP JUMPDEST PUSH1 0x40 MLOAD DUP1 PUSH1 0x60 ADD PUSH1 0x40 MSTORE DUP1 DUP4 DUP2 MSTORE PUSH1 0x20 ADD PUSH1 0x0 ISZERO ISZERO DUP2 MSTORE PUSH1 0x20 ADD DUP3 DUP2 MSTORE POP SWAP3 POP POP POP JUMPDEST SWAP4 SWAP3 POP POP POP JUMP JUMPDEST PUSH2 0xD4E PUSH2 0x1C73 JUMP JUMPDEST DUP5 PUSH1 0x20 ADD MLOAD ISZERO DUP1 ISZERO PUSH2 0xD61 JUMPI POP DUP3 PUSH1 0x20 ADD MLOAD JUMPDEST PUSH2 0xDA0 JUMPI PUSH1 0x40 MLOAD PUSH32 0x8C379A000000000000000000000000000000000000000000000000000000000 DUP2 MSTORE PUSH1 0x4 ADD PUSH2 0xD97 SWAP1 PUSH2 0x29D6 JUMP JUMPDEST PUSH1 0x40 MLOAD DUP1 SWAP2 SUB SWAP1 REVERT JUMPDEST DUP2 PUSH1 0x20 ADD MLOAD ISZERO DUP1 ISZERO PUSH2 0xDBC JUMPI POP PUSH2 0xDBA DUP3 PUSH1 0x0 ADD MLOAD PUSH2 0x1897 JUMP JUMPDEST ISZERO JUMPDEST PUSH2 0xDFB JUMPI PUSH1 0x40 MLOAD PUSH32 0x8C379A000000000000000000000000000000000000000000000000000000000 DUP2 MSTORE PUSH1 0x4 ADD PUSH2 0xDF2 SWAP1 PUSH2 0x2A42 JUMP JUMPDEST PUSH1 0x40 MLOAD DUP1 SWAP2 SUB SWAP1 REVERT JUMPDEST PUSH1 0x0 PUSH2 0xE14 DUP6 PUSH1 0x0 ADD MLOAD DUP6 PUSH1 0x0 ADD MLOAD DUP6 PUSH1 0x0 ADD MLOAD PUSH2 0x18EE JUMP JUMPDEST SWAP1 POP PUSH1 0x0 PUSH2 0xE21 DUP3 PUSH2 0x19C8 JUMP JUMPDEST SWAP1 POP PUSH1 0x0 DUP2 SUB PUSH2 0xE3C JUMPI PUSH2 0xE33 PUSH2 0x991 JUMP JUMPDEST SWAP3 POP POP POP PUSH2 0xEAA JUMP JUMPDEST DUP6 PUSH1 0x20 ADD MLOAD DUP1 ISZERO PUSH2 0xE52 JUMPI POP PUSH2 0xE51 DUP6 PUSH2 0x1A08 JUMP JUMPDEST JUMPDEST ISZERO PUSH2 0xE87 JUMPI PUSH2 0xE7E PUSH1 0x40 MLOAD DUP1 PUSH1 0x60 ADD PUSH1 0x40 MSTORE DUP1 DUP5 DUP2 MSTORE PUSH1 0x20 ADD PUSH1 0x1 ISZERO ISZERO DUP2 MSTORE PUSH1 0x20 ADD DUP4 DUP2 MSTORE POP DUP6 PUSH2 0x9D3 JUMP JUMPDEST SWAP3 POP POP POP PUSH2 0xEAA JUMP JUMPDEST PUSH1 0x40 MLOAD DUP1 PUSH1 0x60 ADD PUSH1 0x40 MSTORE DUP1 DUP4 DUP2 MSTORE PUSH1 0x20 ADD PUSH1 0x0 ISZERO ISZERO DUP2 MSTORE PUSH1 0x20 ADD DUP3 DUP2 MSTORE POP SWAP3 POP POP POP JUMPDEST SWAP5 SWAP4 POP POP POP POP JUMP JUMPDEST PUSH2 0xEBA PUSH2 0x1C73 JUMP JUMPDEST PUSH1 0x20 DUP5 ADD DUP5 MLOAD PUSH1 0x0 MSIZE PUSH1 0x0 PUSH1 0x20 DUP5 MOD EQ PUSH1 0x1 DUP2 EQ PUSH2 0xEEC JUMPI PUSH1 0x20 DUP5 MOD PUSH1 0x20 SUB PUSH1 0x20 DUP2 DUP5 ADD ADD SWAP4 POP DUP1 DUP6 ADD DUP4 MSTORE POP PUSH2 0xEF6 JUMP JUMPDEST PUSH1 0x20 DUP3 ADD SWAP3 POP DUP4 DUP3 MSTORE JUMPDEST POP DUP3 DUP3 DUP5 DUP7 PUSH1 0x4 PUSH2 0x1C2 STATICCALL POP PUSH1 0x20 DUP2 MLOAD ADD DUP2 ADD PUSH1 0x40 MSTORE DUP1 MLOAD JUMPDEST PUSH1 0x0 PUSH1 0x20 DUP3 EQ SUB PUSH2 0xF42 JUMPI PUSH1 0x0 PUSH1 0x20 DUP4 ADD MLOAD EQ PUSH1 0x1 DUP2 EQ PUSH2 0xF30 JUMPI POP PUSH2 0xF42 JUMP JUMPDEST PUSH1 0x20 DUP4 ADD SWAP3 POP POP PUSH1 0x20 DUP2 SUB SWAP1 POP PUSH2 0xF0F JUMP JUMPDEST DUP1 DUP3 MSTORE DUP2 DUP7 MSTORE DUP8 PUSH1 0x20 DUP8 ADD MSTORE POP POP POP POP POP PUSH1 0x0 DUP3 EQ PUSH2 0xF61 JUMPI DUP2 PUSH2 0xF6F JUMP JUMPDEST PUSH2 0xF6E DUP2 PUSH1 0x0 ADD MLOAD PUSH2 0x19C8 JUMP JUMPDEST JUMPDEST DUP2 PUSH1 0x40 ADD DUP2 DUP2 MSTORE POP POP SWAP4 SWAP3 POP POP POP JUMP JUMPDEST PUSH2 0xF87 PUSH2 0x1C73 JUMP JUMPDEST PUSH1 0x40 MLOAD DUP1 PUSH1 0x60 ADD PUSH1 0x40 MSTORE DUP1 PUSH1 0x40 MLOAD DUP1 PUSH1 0x40 ADD PUSH1 0x40 MSTORE DUP1 PUSH1 0x20 DUP2 MSTORE PUSH1 0x20 ADD PUSH1 0x1 DUP2 MSTORE POP DUP2 MSTORE PUSH1 0x20 ADD PUSH1 0x0 ISZERO ISZERO DUP2 MSTORE PUSH1 0x20 ADD PUSH1 0x1 DUP2 MSTORE POP SWAP1 POP SWAP1 JUMP JUMPDEST PUSH1 0x0 DUP1 PUSH1 0x1 SWAP1 POP DUP3 ISZERO PUSH2 0x108C JUMPI DUP5 PUSH1 0x20 ADD MLOAD DUP1 ISZERO PUSH2 0xFE0 JUMPI POP DUP4 PUSH1 0x20 ADD MLOAD JUMPDEST ISZERO PUSH2 0x100D JUMPI PUSH32 0xFFFFFFFFFFFFFFFFFFFFFFFFFFFFFFFFFFFFFFFFFFFFFFFFFFFFFFFFFFFFFFFF SWAP1 POP PUSH2 0x108B JUMP JUMPDEST PUSH1 0x0 ISZERO ISZERO DUP6 PUSH1 0x20 ADD MLOAD ISZERO ISZERO EQ DUP1 ISZERO PUSH2 0x102D JUMPI POP PUSH1 0x1 ISZERO ISZERO DUP5 PUSH1 0x20 ADD MLOAD ISZERO ISZERO EQ JUMPDEST ISZERO PUSH2 0x103C JUMPI PUSH1 0x1 SWAP2 POP POP PUSH2 0x1197 JUMP JUMPDEST PUSH1 0x1 ISZERO ISZERO DUP6 PUSH1 0x20 ADD MLOAD ISZERO ISZERO EQ DUP1 ISZERO PUSH2 0x105C JUMPI POP PUSH1 0x0 ISZERO ISZERO DUP5 PUSH1 0x20 ADD MLOAD ISZERO ISZERO EQ JUMPDEST ISZERO PUSH2 0x108A JUMPI PUSH32 0xFFFFFFFFFFFFFFFFFFFFFFFFFFFFFFFFFFFFFFFFFFFFFFFFFFFFFFFFFFFFFFFF SWAP2 POP POP PUSH2 0x1197 JUMP JUMPDEST JUMPDEST JUMPDEST DUP4 PUSH1 0x40 ADD MLOAD DUP6 PUSH1 0x40 ADD MLOAD GT ISZERO PUSH2 0x10A5 JUMPI DUP1 SWAP2 POP POP PUSH2 0x1197 JUMP JUMPDEST DUP5 PUSH1 0x40 ADD MLOAD DUP5 PUSH1 0x40 ADD MLOAD GT ISZERO PUSH2 0x10E9 JUMPI DUP1 PUSH32 0xFFFFFFFFFFFFFFFFFFFFFFFFFFFFFFFFFFFFFFFFFFFFFFFFFFFFFFFFFFFFFFFF PUSH2 0x10E1 SWAP2 SWAP1 PUSH2 0x2A6C JUMP JUMPDEST SWAP2 POP POP PUSH2 0x1197 JUMP JUMPDEST PUSH1 0x0 DUP1 PUSH1 0x0 DUP1 PUSH1 0x0 DUP10 PUSH1 0x0 ADD MLOAD MLOAD SWAP1 POP PUSH1 0x20 DUP11 MLOAD ADD SWAP5 POP PUSH1 0x20 DUP10 MLOAD ADD SWAP4 POP PUSH1 0x0 JUMPDEST DUP2 DUP2 LT ISZERO PUSH2 0x118B JUMPI DUP1 DUP7 ADD MLOAD SWAP4 POP DUP1 DUP6 ADD MLOAD SWAP3 POP DUP3 DUP5 GT ISZERO PUSH2 0x1135 JUMPI DUP7 SWAP8 POP POP POP POP POP POP POP POP PUSH2 0x1197 JUMP JUMPDEST DUP4 DUP4 GT ISZERO PUSH2 0x1177 JUMPI DUP7 PUSH32 0xFFFFFFFFFFFFFFFFFFFFFFFFFFFFFFFFFFFFFFFFFFFFFFFFFFFFFFFFFFFFFFFF PUSH2 0x1169 SWAP2 SWAP1 PUSH2 0x2A6C JUMP JUMPDEST SWAP8 POP POP POP POP POP POP POP POP PUSH2 0x1197 JUMP JUMPDEST PUSH1 0x20 DUP2 PUSH2 0x1184 SWAP2 SWAP1 PUSH2 0x2AE4 JUMP JUMPDEST SWAP1 POP PUSH2 0x110A JUMP JUMPDEST POP PUSH1 0x0 SWAP7 POP POP POP POP POP POP POP JUMPDEST SWAP4 SWAP3 POP POP POP JUMP JUMPDEST PUSH1 0x0 DUP2 MLOAD SWAP1 POP PUSH1 0x0 PUSH11 0x636F6E736F6C652E6C6F67 SWAP1 POP PUSH1 0x20 DUP4 ADD PUSH1 0x0 DUP1 DUP5 DUP4 DUP6 GAS STATICCALL POP POP POP POP POP JUMP JUMPDEST PUSH2 0x11CF PUSH2 0x1C73 JUMP JUMPDEST PUSH1 0x40 MLOAD DUP1 PUSH1 0x60 ADD PUSH1 0x40 MSTORE DUP1 PUSH1 0x40 MLOAD DUP1 PUSH1 0x40 ADD PUSH1 0x40 MSTORE DUP1 PUSH1 0x20 DUP2 MSTORE PUSH1 0x20 ADD PUSH1 0x2 DUP2 MSTORE POP DUP2 MSTORE PUSH1 0x20 ADD PUSH1 0x0 ISZERO ISZERO DUP2 MSTORE PUSH1 0x20 ADD PUSH1 0x2 DUP2 MSTORE POP SWAP1 POP SWAP1 JUMP JUMPDEST PUSH2 0x1211 PUSH2 0x1C73 JUMP JUMPDEST PUSH1 0x0 PUSH1 0x40 MLOAD DUP1 PUSH1 0x40 ADD PUSH1 0x40 MSTORE DUP1 PUSH1 0x20 DUP2 MSTORE PUSH1 0x20 ADD PUSH1 0x0 DUP2 MSTORE POP SWAP1 POP PUSH1 0x0 DUP4 PUSH1 0x40 DUP7 ADD MLOAD MUL SWAP1 POP PUSH1 0x1 PUSH2 0x100 DUP3 MOD SHL PUSH1 0x20 PUSH1 0x1 PUSH2 0x100 DUP5 DIV ADD MUL DUP4 MSTORE DUP1 PUSH1 0x20 DUP5 ADD MSTORE PUSH1 0x20 DUP4 MLOAD ADD DUP4 ADD PUSH1 0x40 MSTORE POP PUSH1 0x40 MLOAD DUP1 PUSH1 0x60 ADD PUSH1 0x40 MSTORE DUP1 DUP4 DUP2 MSTORE PUSH1 0x20 ADD PUSH1 0x0 ISZERO ISZERO DUP2 MSTORE PUSH1 0x20 ADD DUP3 DUP2 MSTORE POP SWAP3 POP POP POP SWAP3 SWAP2 POP POP JUMP JUMPDEST PUSH2 0x128D PUSH2 0x1C73 JUMP JUMPDEST PUSH1 0x0 DUP4 PUSH1 0x40 ADD MLOAD EQ DUP1 ISZERO PUSH2 0x12A5 JUMPI POP PUSH1 0x0 DUP3 PUSH1 0x40 ADD MLOAD EQ JUMPDEST ISZERO PUSH2 0x12B9 JUMPI PUSH2 0x12B2 PUSH2 0x991 JUMP JUMPDEST SWAP1 POP PUSH2 0x14CE JUMP JUMPDEST PUSH1 0x60 PUSH1 0x0 DUP1 PUSH2 0x12CA DUP7 DUP7 PUSH1 0x0 PUSH2 0xFC1 JUMP JUMPDEST SWAP2 POP DUP6 PUSH1 0x20 ADD MLOAD DUP1 PUSH2 0x12DD JUMPI POP DUP5 PUSH1 0x20 ADD MLOAD JUMPDEST ISZERO PUSH2 0x1414 JUMPI DUP6 PUSH1 0x20 ADD MLOAD DUP1 ISZERO PUSH2 0x12F4 JUMPI POP DUP5 PUSH1 0x20 ADD MLOAD JUMPDEST ISZERO PUSH2 0x13A0 JUMPI PUSH1 0x1 DUP3 SUB PUSH2 0x1331 JUMPI PUSH2 0x1313 DUP7 PUSH1 0x0 ADD MLOAD DUP7 PUSH1 0x0 ADD MLOAD PUSH2 0x176C JUMP JUMPDEST DUP1 SWAP3 POP DUP2 SWAP5 POP POP POP PUSH1 0x1 DUP5 PUSH1 0x20 ADD SWAP1 ISZERO ISZERO SWAP1 DUP2 ISZERO ISZERO DUP2 MSTORE POP POP PUSH2 0x139B JUMP JUMPDEST PUSH32 0xFFFFFFFFFFFFFFFFFFFFFFFFFFFFFFFFFFFFFFFFFFFFFFFFFFFFFFFFFFFFFFFF DUP3 SUB PUSH2 0x1388 JUMPI PUSH2 0x136A DUP6 PUSH1 0x0 ADD MLOAD DUP8 PUSH1 0x0 ADD MLOAD PUSH2 0x176C JUMP JUMPDEST DUP1 SWAP3 POP DUP2 SWAP5 POP POP POP PUSH1 0x0 DUP5 PUSH1 0x20 ADD SWAP1 ISZERO ISZERO SWAP1 DUP2 ISZERO ISZERO DUP2 MSTORE POP POP PUSH2 0x139A JUMP JUMPDEST PUSH2 0x1390 PUSH2 0x991 JUMP JUMPDEST SWAP4 POP POP POP POP PUSH2 0x14CE JUMP JUMPDEST JUMPDEST PUSH2 0x140F JUMP JUMPDEST PUSH1 0x0 DUP3 SLT PUSH2 0x13CC JUMPI PUSH2 0x13BF DUP7 PUSH1 0x0 ADD MLOAD DUP7 PUSH1 0x0 ADD MLOAD DUP9 PUSH1 0x40 ADD MLOAD PUSH2 0x1636 JUMP JUMPDEST DUP1 SWAP3 POP DUP2 SWAP5 POP POP POP PUSH2 0x13EC JUMP JUMPDEST PUSH2 0x13E3 DUP6 PUSH1 0x0 ADD MLOAD DUP8 PUSH1 0x0 ADD MLOAD DUP8 PUSH1 0x40 ADD MLOAD PUSH2 0x1636 JUMP JUMPDEST DUP1 SWAP3 POP DUP2 SWAP5 POP POP POP JUMPDEST DUP6 PUSH1 0x20 ADD MLOAD PUSH2 0x13FC JUMPI PUSH1 0x0 PUSH2 0x13FF JUMP JUMPDEST PUSH1 0x1 JUMPDEST DUP5 PUSH1 0x20 ADD SWAP1 ISZERO ISZERO SWAP1 DUP2 ISZERO ISZERO DUP2 MSTORE POP POP JUMPDEST PUSH2 0x14B7 JUMP JUMPDEST PUSH1 0x1 DUP3 SUB PUSH2 0x144C JUMPI PUSH2 0x142E DUP7 PUSH1 0x0 ADD MLOAD DUP7 PUSH1 0x0 ADD MLOAD PUSH2 0x176C JUMP JUMPDEST DUP1 SWAP3 POP DUP2 SWAP5 POP POP POP PUSH1 0x0 DUP5 PUSH1 0x20 ADD SWAP1 ISZERO ISZERO SWAP1 DUP2 ISZERO ISZERO DUP2 MSTORE POP POP PUSH2 0x14B6 JUMP JUMPDEST PUSH32 0xFFFFFFFFFFFFFFFFFFFFFFFFFFFFFFFFFFFFFFFFFFFFFFFFFFFFFFFFFFFFFFFF DUP3 SUB PUSH2 0x14A3 JUMPI PUSH2 0x1485 DUP6 PUSH1 0x0 ADD MLOAD DUP8 PUSH1 0x0 ADD MLOAD PUSH2 0x176C JUMP JUMPDEST DUP1 SWAP3 POP DUP2 SWAP5 POP POP POP PUSH1 0x1 DUP5 PUSH1 0x20 ADD SWAP1 ISZERO ISZERO SWAP1 DUP2 ISZERO ISZERO DUP2 MSTORE POP POP PUSH2 0x14B5 JUMP JUMPDEST PUSH2 0x14AB PUSH2 0x991 JUMP JUMPDEST SWAP4 POP POP POP POP PUSH2 0x14CE JUMP JUMPDEST JUMPDEST JUMPDEST DUP3 DUP5 PUSH1 0x0 ADD DUP2 SWAP1 MSTORE POP DUP1 DUP5 PUSH1 0x40 ADD DUP2 DUP2 MSTORE POP POP POP POP POP JUMPDEST SWAP3 SWAP2 POP POP JUMP JUMPDEST PUSH2 0x14DC PUSH2 0x1C73 JUMP JUMPDEST PUSH1 0x0 DUP4 MLOAD MLOAD SWAP1 POP DUP4 PUSH1 0x40 ADD MLOAD DUP4 LT PUSH2 0x152B JUMPI PUSH1 0x40 MLOAD DUP1 PUSH1 0x60 ADD PUSH1 0x40 MSTORE DUP1 PUSH1 0x40 MLOAD DUP1 PUSH1 0x40 ADD PUSH1 0x40 MSTORE DUP1 PUSH1 0x20 DUP2 MSTORE PUSH1 0x20 ADD PUSH1 0x0 DUP2 MSTORE POP DUP2 MSTORE PUSH1 0x20 ADD PUSH1 0x0 ISZERO ISZERO DUP2 MSTORE PUSH1 0x20 ADD PUSH1 0x0 DUP2 MSTORE POP SWAP2 POP POP PUSH2 0x1630 JUMP JUMPDEST DUP3 DUP5 PUSH1 0x40 ADD MLOAD PUSH2 0x153B SWAP2 SWAP1 PUSH2 0x2B18 JUMP JUMPDEST DUP5 PUSH1 0x40 ADD DUP2 DUP2 MSTORE POP POP PUSH2 0x100 DUP4 EQ PUSH2 0x100 DUP5 GT OR ISZERO PUSH2 0x156C JUMPI PUSH1 0x20 PUSH2 0x100 DUP5 DIV MUL DUP2 SUB SWAP1 POP DUP1 DUP5 MLOAD MSTORE PUSH2 0x100 DUP4 MOD SWAP3 POP JUMPDEST DUP4 MLOAD PUSH1 0x0 PUSH1 0x8 DUP6 MOD EQ PUSH1 0x1 DUP2 EQ PUSH2 0x15DD JUMPI PUSH1 0x0 DUP1 DUP7 PUSH2 0x100 SUB DUP6 DUP6 ADD DUP7 JUMPDEST PUSH1 0x0 DUP1 DUP3 EQ SUB PUSH2 0x15D3 JUMPI PUSH1 0x20 DUP2 EQ PUSH1 0x1 DUP2 EQ PUSH2 0x15AC JUMPI PUSH1 0x20 DUP4 SUB MLOAD SWAP6 POP PUSH2 0x15B1 JUMP JUMPDEST PUSH1 0x0 SWAP6 POP JUMPDEST POP DUP2 MLOAD DUP11 SHR SWAP4 POP DUP5 DUP4 SHL SWAP5 POP DUP5 DUP5 OR DUP3 MSTORE PUSH1 0x20 DUP3 SUB SWAP2 POP PUSH1 0x20 DUP2 SUB SWAP1 POP PUSH2 0x158A JUMP JUMPDEST POP POP POP POP POP PUSH2 0x160B JUMP JUMPDEST PUSH1 0x8 DUP6 DIV DUP7 MLOAD DUP1 MLOAD PUSH1 0x20 DUP2 ADD DUP4 DUP4 ADD DUP5 DUP3 SUB DUP3 DUP3 DUP5 DUP8 PUSH1 0x4 PUSH2 0x1C2 STATICCALL PUSH1 0x0 PUSH1 0x1F DUP5 ADD MSTORE8 DUP5 DUP7 MSTORE POP POP POP POP POP POP POP JUMPDEST POP PUSH1 0x20 DUP2 ADD PUSH1 0x0 DUP2 MLOAD EQ PUSH1 0x1 DUP2 SUB PUSH2 0x1628 JUMPI PUSH1 0x20 DUP4 MLOAD SUB DUP3 MSTORE DUP2 DUP8 MSTORE JUMPDEST POP POP POP DUP4 SWAP2 POP POP JUMPDEST SWAP3 SWAP2 POP POP JUMP JUMPDEST PUSH1 0x60 PUSH1 0x0 PUSH1 0x60 MSIZE PUSH1 0x0 PUSH1 0x1 PUSH1 0x0 SUB DUP9 MLOAD DUP10 ADD DUP9 MLOAD DUP10 ADD DUP11 MLOAD PUSH1 0x20 DUP7 ADD ADD DUP12 MLOAD JUMPDEST PUSH1 0x0 DUP1 DUP3 EQ SUB PUSH2 0x1702 JUMPI DUP4 MLOAD DUP13 MLOAD DUP15 MLOAD SUB DUP3 GT PUSH1 0x1 DUP2 EQ PUSH2 0x169A JUMPI DUP8 DUP3 ADD DUP5 MSTORE PUSH1 0x1 DUP9 EQ DUP3 DUP9 EQ AND PUSH1 0x1 DUP2 EQ PUSH2 0x168F JUMPI PUSH1 0x0 SWAP9 POP PUSH2 0x1694 JUMP JUMPDEST PUSH1 0x1 SWAP9 POP JUMPDEST POP PUSH2 0x16E9 JUMP JUMPDEST DUP5 MLOAD DUP9 DUP2 DUP5 ADD ADD DUP6 MSTORE DUP9 DUP2 SUB DUP9 SUB DUP4 GT PUSH1 0x1 DUP2 EQ PUSH2 0x16DB JUMPI PUSH1 0x0 DUP3 GT PUSH1 0x0 DUP12 GT OR DUP10 DUP6 EQ AND PUSH1 0x1 DUP2 EQ PUSH2 0x16D0 JUMPI PUSH1 0x0 SWAP11 POP PUSH2 0x16D5 JUMP JUMPDEST PUSH1 0x1 SWAP11 POP JUMPDEST POP PUSH2 0x16E0 JUMP JUMPDEST PUSH1 0x1 SWAP10 POP JUMPDEST POP PUSH1 0x20 DUP7 SUB SWAP6 POP POP JUMPDEST POP PUSH1 0x20 DUP4 SUB SWAP3 POP PUSH1 0x20 DUP6 SUB SWAP5 POP POP PUSH1 0x20 DUP2 SUB SWAP1 POP PUSH2 0x1656 JUMP JUMPDEST POP PUSH1 0x0 DUP6 EQ PUSH1 0x1 DUP2 EQ PUSH2 0x1718 JUMPI PUSH1 0x1 DUP3 MSTORE PUSH2 0x171F JUMP JUMPDEST PUSH1 0x20 DUP8 ADD SWAP7 POP JUMPDEST POP DUP6 SWAP7 POP DUP5 PUSH1 0x20 MUL DUP13 MLOAD ADD DUP8 MSTORE PUSH1 0x20 DUP8 MLOAD ADD DUP8 ADD PUSH1 0x40 MSTORE PUSH1 0x20 DUP8 ADD MLOAD PUSH1 0x1 DUP2 PUSH2 0x100 DUP14 MOD SHR EQ PUSH1 0x1 DUP3 EQ OR ISZERO PUSH2 0x1756 JUMPI PUSH1 0x1 DUP12 ADD SWAP11 POP JUMPDEST POP POP POP POP POP POP POP DUP1 DUP5 SWAP3 POP SWAP3 POP POP SWAP4 POP SWAP4 SWAP2 POP POP JUMP JUMPDEST PUSH1 0x60 PUSH1 0x0 PUSH1 0x60 PUSH1 0x0 DUP1 PUSH32 0xFFFFFFFFFFFFFFFFFFFFFFFFFFFFFFFFFFFFFFFFFFFFFFFFFFFFFFFFFFFFFFFF SWAP1 POP MSIZE DUP8 MLOAD DUP8 MLOAD DUP1 DUP3 SUB DUP3 DUP12 ADD DUP3 DUP12 ADD DUP5 DUP7 ADD PUSH1 0x20 DUP2 ADD DUP7 JUMPDEST PUSH1 0x0 DUP1 DUP3 EQ SUB PUSH2 0x183F JUMPI DUP5 MLOAD DUP7 DUP3 GT PUSH1 0x1 DUP2 EQ PUSH2 0x17F0 JUMPI DUP13 DUP3 SUB DUP6 MSTORE PUSH1 0x1 DUP14 EQ PUSH1 0x0 DUP4 EQ AND PUSH1 0x1 DUP2 EQ PUSH2 0x17E5 JUMPI PUSH1 0x0 SWAP14 POP PUSH2 0x17EA JUMP JUMPDEST PUSH1 0x1 SWAP14 POP JUMPDEST POP PUSH2 0x1826 JUMP JUMPDEST DUP6 MLOAD DUP14 DUP2 DUP5 SUB SUB DUP7 MSTORE PUSH1 0x1 DUP15 EQ DUP14 DUP3 EQ AND DUP15 DUP3 ADD DUP5 LT OR PUSH1 0x1 DUP2 EQ PUSH2 0x1818 JUMPI PUSH1 0x0 SWAP15 POP PUSH2 0x181D JUMP JUMPDEST PUSH1 0x1 SWAP15 POP JUMPDEST POP PUSH1 0x20 DUP8 SUB SWAP7 POP POP JUMPDEST POP PUSH1 0x20 DUP5 SUB SWAP4 POP PUSH1 0x20 DUP7 SUB SWAP6 POP POP PUSH1 0x20 DUP2 SUB SWAP1 POP PUSH2 0x17AF JUMP JUMPDEST POP PUSH1 0x20 DUP3 ADD SWAP2 POP JUMPDEST PUSH1 0x0 DUP3 MLOAD SUB PUSH2 0x1867 JUMPI PUSH1 0x20 DUP9 ADD SWAP8 POP PUSH1 0x20 DUP8 SUB SWAP7 POP PUSH1 0x20 DUP3 ADD SWAP2 POP PUSH2 0x1847 JUMP JUMPDEST DUP8 SWAP11 POP DUP7 DUP12 MSTORE DUP1 PUSH1 0x40 MSTORE POP POP POP POP POP POP POP POP PUSH1 0x0 PUSH2 0x1884 DUP5 PUSH2 0x19C8 JUMP JUMPDEST SWAP1 POP DUP4 DUP2 SWAP6 POP SWAP6 POP POP POP POP POP SWAP3 POP SWAP3 SWAP1 POP JUMP JUMPDEST PUSH1 0x0 DUP1 PUSH1 0x0 PUSH1 0x20 DUP5 ADD SWAP1 POP PUSH1 0x0 JUMPDEST DUP5 MLOAD DUP2 LT ISZERO PUSH2 0x18E1 JUMPI DUP2 MLOAD SWAP3 POP PUSH1 0x0 DUP4 GT ISZERO PUSH2 0x18C7 JUMPI PUSH1 0x0 SWAP4 POP POP POP POP PUSH2 0x18E9 JUMP JUMPDEST PUSH1 0x20 DUP3 ADD SWAP2 POP PUSH1 0x20 DUP2 PUSH2 0x18DA SWAP2 SWAP1 PUSH2 0x2AE4 JUMP JUMPDEST SWAP1 POP PUSH2 0x18A5 JUMP JUMPDEST POP PUSH1 0x1 SWAP3 POP POP POP JUMPDEST SWAP2 SWAP1 POP JUMP JUMPDEST PUSH1 0x60 DUP4 MLOAD DUP4 MLOAD DUP4 MLOAD PUSH1 0x40 MLOAD DUP4 DUP2 MSTORE DUP3 PUSH1 0x20 DUP3 ADD MSTORE DUP2 PUSH1 0x40 DUP3 ADD MSTORE DUP4 PUSH1 0x60 DUP3 ADD DUP6 PUSH1 0x20 DUP12 ADD PUSH1 0x4 PUSH2 0x1C2 STATICCALL DUP5 PUSH1 0x60 ADD DUP5 DUP2 DUP5 ADD DUP7 PUSH1 0x20 DUP13 ADD PUSH1 0x4 PUSH2 0x1C2 STATICCALL SWAP2 POP DUP5 DUP2 ADD SWAP1 POP DUP4 DUP2 DUP5 ADD DUP6 PUSH1 0x20 DUP12 ADD PUSH1 0x4 PUSH2 0x1C2 STATICCALL SWAP2 POP DUP2 PUSH1 0x0 DUP2 SUB PUSH2 0x194E JUMPI INVALID JUMPDEST POP DUP4 DUP2 ADD SWAP1 POP DUP4 PUSH1 0x60 DUP5 ADD DUP3 DUP6 PUSH1 0x5 PUSH2 0x546 GAS SUB STATICCALL SWAP2 POP DUP2 PUSH1 0x0 DUP2 SUB PUSH2 0x1970 JUMPI INVALID JUMPDEST POP DUP4 PUSH1 0x60 DUP5 ADD JUMPDEST PUSH1 0x0 PUSH1 0x20 DUP4 EQ SUB PUSH2 0x19A7 JUMPI PUSH1 0x0 DUP2 MLOAD EQ PUSH1 0x1 DUP2 EQ PUSH2 0x1995 JUMPI POP PUSH2 0x19A7 JUMP JUMPDEST PUSH1 0x20 DUP3 ADD SWAP2 POP POP PUSH1 0x20 DUP3 SUB SWAP2 POP PUSH2 0x1977 JUMP JUMPDEST PUSH1 0x20 DUP2 SUB SWAP9 POP DUP2 DUP10 MSTORE DUP6 DUP6 PUSH1 0x60 ADD ADD PUSH1 0x40 MSTORE POP POP POP POP POP POP POP POP SWAP4 SWAP3 POP POP POP JUMP JUMPDEST PUSH1 0x0 PUSH2 0x19D3 DUP3 PUSH2 0x1897 JUMP JUMPDEST ISZERO PUSH2 0x19E1 JUMPI PUSH1 0x0 SWAP1 POP PUSH2 0x1A03 JUMP JUMPDEST PUSH1 0x0 PUSH1 0x20 DUP4 ADD MLOAD SWAP1 POP PUSH2 0x19F3 DUP2 PUSH2 0x1A1D JUMP JUMPDEST SWAP2 POP PUSH1 0x8 PUSH1 0x20 DUP5 MLOAD SUB MUL DUP3 ADD SWAP2 POP POP JUMPDEST SWAP2 SWAP1 POP JUMP JUMPDEST PUSH1 0x0 DUP2 MLOAD MLOAD DUP3 MLOAD ADD PUSH1 0x2 DUP2 MLOAD MOD SWAP2 POP POP SWAP2 SWAP1 POP JUMP JUMPDEST PUSH1 0x0 DUP1 DUP3 EQ PUSH1 0x1 DUP2 EQ PUSH2 0x1C68 JUMPI DUP3 PUSH1 0x1 DUP5 SUB SWAP4 POP PUSH1 0x2 DUP5 DIV DUP5 OR SWAP4 POP PUSH1 0x4 DUP5 DIV DUP5 OR SWAP4 POP PUSH1 0x10 DUP5 DIV DUP5 OR SWAP4 POP PUSH2 0x100 DUP5 DIV DUP5 OR SWAP4 POP PUSH3 0x10000 DUP5 DIV DUP5 OR SWAP4 POP PUSH5 0x100000000 DUP5 DIV DUP5 OR SWAP4 POP PUSH9 0x10000000000000000 DUP5 DIV DUP5 OR SWAP4 POP PUSH17 0x100000000000000000000000000000000 DUP5 DIV DUP5 OR SWAP4 POP PUSH1 0x1 DUP5 ADD SWAP4 POP PUSH1 0x40 MLOAD PUSH32 0xF8F9CBFAE6CC78FBEFE7CDC3A1793DFCF4F0E8BBD8CEC470B6A28A7A5A3E1EFD DUP2 MSTORE PUSH32 0xF5ECF1B3E9DEBC68E1D9CFABC5997135BFB7A7A3938B7B606B5B4B3F2F1F0FFE PUSH1 0x20 DUP3 ADD MSTORE PUSH32 0xF6E4ED9FF2D6B458EADCDF97BD91692DE2D4DA8FD2D0AC50C6AE9A8272523616 PUSH1 0x40 DUP3 ADD MSTORE PUSH32 0xC8C0B887B0A8A4489C948C7F847C6125746C645C544C444038302820181008FF PUSH1 0x60 DUP3 ADD MSTORE PUSH32 0xF7CAE577EEC2A03CF3BAD76FB589591DEBB2DD67E0AA9834BEA6925F6A4A2E0E PUSH1 0x80 DUP3 ADD MSTORE PUSH32 0xE39ED557DB96902CD38ED14FAD815115C786AF479B7E83247363534337271707 PUSH1 0xA0 DUP3 ADD MSTORE PUSH32 0xC976C13BB96E881CB166A933A55E490D9D56952B8D4E801485467D2362422606 PUSH1 0xC0 DUP3 ADD MSTORE PUSH32 0x753A6D1B65325D0C552A4D1345224105391A310B29122104190A110309020100 PUSH1 0xE0 DUP3 ADD MSTORE PUSH2 0x100 DUP2 ADD PUSH1 0x40 MSTORE PUSH31 0x818283848586878898A8B8C8D8E8F929395969799A9B9D9E9FAAEB6BEDEEFF PUSH32 0x100000000000000000000000000000000000000000000000000000000000000 DUP1 DUP3 DUP9 MUL DIV DUP2 DUP2 PUSH1 0xFF SUB DUP6 ADD MLOAD DIV SWAP7 POP PUSH32 0x8000000000000000000000000000000000000000000000000000000000000000 DUP6 GT PUSH2 0x100 MUL DUP8 ADD SWAP7 POP PUSH1 0x0 PUSH1 0x1 DUP7 SUB DUP7 AND SUB PUSH2 0x1C5E JUMPI PUSH1 0x1 DUP8 ADD SWAP7 POP JUMPDEST POP POP POP POP POP PUSH2 0x1C6D JUMP JUMPDEST PUSH1 0x0 SWAP2 POP JUMPDEST POP SWAP2 SWAP1 POP JUMP JUMPDEST PUSH1 0x40 MLOAD DUP1 PUSH1 0x60 ADD PUSH1 0x40 MSTORE DUP1 PUSH1 0x60 DUP2 MSTORE PUSH1 0x20 ADD PUSH1 0x0 ISZERO ISZERO DUP2 MSTORE PUSH1 0x20 ADD PUSH1 0x0 DUP2 MSTORE POP SWAP1 JUMP JUMPDEST PUSH1 0x0 PUSH1 0x40 MLOAD SWAP1 POP SWAP1 JUMP JUMPDEST PUSH1 0x0 DUP1 REVERT JUMPDEST PUSH1 0x0 DUP1 REVERT JUMPDEST PUSH1 0x0 DUP1 REVERT JUMPDEST PUSH1 0x0 DUP1 REVERT JUMPDEST PUSH1 0x0 PUSH1 0x1F NOT PUSH1 0x1F DUP4 ADD AND SWAP1 POP SWAP2 SWAP1 POP JUMP JUMPDEST PUSH32 0x4E487B7100000000000000000000000000000000000000000000000000000000 PUSH1 0x0 MSTORE PUSH1 0x41 PUSH1 0x4 MSTORE PUSH1 0x24 PUSH1 0x0 REVERT JUMPDEST PUSH2 0x1CFD DUP3 PUSH2 0x1CB4 JUMP JUMPDEST DUP2 ADD DUP2 DUP2 LT PUSH8 0xFFFFFFFFFFFFFFFF DUP3 GT OR ISZERO PUSH2 0x1D1C JUMPI PUSH2 0x1D1B PUSH2 0x1CC5 JUMP JUMPDEST JUMPDEST DUP1 PUSH1 0x40 MSTORE POP POP POP JUMP JUMPDEST PUSH1 0x0 PUSH2 0x1D2F PUSH2 0x1C96 JUMP JUMPDEST SWAP1 POP PUSH2 0x1D3B DUP3 DUP3 PUSH2 0x1CF4 JUMP JUMPDEST SWAP2 SWAP1 POP JUMP JUMPDEST PUSH1 0x0 PUSH8 0xFFFFFFFFFFFFFFFF DUP3 GT ISZERO PUSH2 0x1D5B JUMPI PUSH2 0x1D5A PUSH2 0x1CC5 JUMP JUMPDEST JUMPDEST PUSH2 0x1D64 DUP3 PUSH2 0x1CB4 JUMP JUMPDEST SWAP1 POP PUSH1 0x20 DUP2 ADD SWAP1 POP SWAP2 SWAP1 POP JUMP JUMPDEST DUP3 DUP2 DUP4 CALLDATACOPY PUSH1 0x0 DUP4 DUP4 ADD MSTORE POP POP POP JUMP JUMPDEST PUSH1 0x0 PUSH2 0x1D93 PUSH2 0x1D8E DUP5 PUSH2 0x1D40 JUMP JUMPDEST PUSH2 0x1D25 JUMP JUMPDEST SWAP1 POP DUP3 DUP2 MSTORE PUSH1 0x20 DUP2 ADD DUP5 DUP5 DUP5 ADD GT ISZERO PUSH2 0x1DAF JUMPI PUSH2 0x1DAE PUSH2 0x1CAF JUMP JUMPDEST JUMPDEST PUSH2 0x1DBA DUP5 DUP3 DUP6 PUSH2 0x1D71 JUMP JUMPDEST POP SWAP4 SWAP3 POP POP POP JUMP JUMPDEST PUSH1 0x0 DUP3 PUSH1 0x1F DUP4 ADD SLT PUSH2 0x1DD7 JUMPI PUSH2 0x1DD6 PUSH2 0x1CAA JUMP JUMPDEST JUMPDEST DUP2 CALLDATALOAD PUSH2 0x1DE7 DUP5 DUP3 PUSH1 0x20 DUP7 ADD PUSH2 0x1D80 JUMP JUMPDEST SWAP2 POP POP SWAP3 SWAP2 POP POP JUMP JUMPDEST PUSH1 0x0 DUP1 PUSH1 0x0 PUSH1 0x60 DUP5 DUP7 SUB SLT ISZERO PUSH2 0x1E09 JUMPI PUSH2 0x1E08 PUSH2 0x1CA0 JUMP JUMPDEST JUMPDEST PUSH1 0x0 DUP5 ADD CALLDATALOAD PUSH8 0xFFFFFFFFFFFFFFFF DUP2 GT ISZERO PUSH2 0x1E27 JUMPI PUSH2 0x1E26 PUSH2 0x1CA5 JUMP JUMPDEST JUMPDEST PUSH2 0x1E33 DUP7 DUP3 DUP8 ADD PUSH2 0x1DC2 JUMP JUMPDEST SWAP4 POP POP PUSH1 0x20 DUP5 ADD CALLDATALOAD PUSH8 0xFFFFFFFFFFFFFFFF DUP2 GT ISZERO PUSH2 0x1E54 JUMPI PUSH2 0x1E53 PUSH2 0x1CA5 JUMP JUMPDEST JUMPDEST PUSH2 0x1E60 DUP7 DUP3 DUP8 ADD PUSH2 0x1DC2 JUMP JUMPDEST SWAP3 POP POP PUSH1 0x40 DUP5 ADD CALLDATALOAD PUSH8 0xFFFFFFFFFFFFFFFF DUP2 GT ISZERO PUSH2 0x1E81 JUMPI PUSH2 0x1E80 PUSH2 0x1CA5 JUMP JUMPDEST JUMPDEST PUSH2 0x1E8D DUP7 DUP3 DUP8 ADD PUSH2 0x1DC2 JUMP JUMPDEST SWAP2 POP POP SWAP3 POP SWAP3 POP SWAP3 JUMP JUMPDEST PUSH1 0x0 DUP2 ISZERO ISZERO SWAP1 POP SWAP2 SWAP1 POP JUMP JUMPDEST PUSH2 0x1EAC DUP2 PUSH2 0x1E97 JUMP JUMPDEST DUP3 MSTORE POP POP JUMP JUMPDEST PUSH1 0x0 PUSH1 0x20 DUP3 ADD SWAP1 POP PUSH2 0x1EC7 PUSH1 0x0 DUP4 ADD DUP5 PUSH2 0x1EA3 JUMP JUMPDEST SWAP3 SWAP2 POP POP JUMP JUMPDEST PUSH1 0x0 PUSH8 0xFFFFFFFFFFFFFFFF DUP3 GT ISZERO PUSH2 0x1EE8 JUMPI PUSH2 0x1EE7 PUSH2 0x1CC5 JUMP JUMPDEST JUMPDEST PUSH1 0x20 DUP3 MUL SWAP1 POP PUSH1 0x20 DUP2 ADD SWAP1 POP SWAP2 SWAP1 POP JUMP JUMPDEST PUSH1 0x0 DUP1 REVERT JUMPDEST PUSH1 0x0 PUSH2 0x1F11 PUSH2 0x1F0C DUP5 PUSH2 0x1ECD JUMP JUMPDEST PUSH2 0x1D25 JUMP JUMPDEST SWAP1 POP DUP1 DUP4 DUP3 MSTORE PUSH1 0x20 DUP3 ADD SWAP1 POP PUSH1 0x20 DUP5 MUL DUP4 ADD DUP6 DUP2 GT ISZERO PUSH2 0x1F34 JUMPI PUSH2 0x1F33 PUSH2 0x1EF9 JUMP JUMPDEST JUMPDEST DUP4 JUMPDEST DUP2 DUP2 LT ISZERO PUSH2 0x1F7B JUMPI DUP1 CALLDATALOAD PUSH8 0xFFFFFFFFFFFFFFFF DUP2 GT ISZERO PUSH2 0x1F59 JUMPI PUSH2 0x1F58 PUSH2 0x1CAA JUMP JUMPDEST JUMPDEST DUP1 DUP7 ADD PUSH2 0x1F66 DUP10 DUP3 PUSH2 0x1DC2 JUMP JUMPDEST DUP6 MSTORE PUSH1 0x20 DUP6 ADD SWAP5 POP POP POP PUSH1 0x20 DUP2 ADD SWAP1 POP PUSH2 0x1F36 JUMP JUMPDEST POP POP POP SWAP4 SWAP3 POP POP POP JUMP JUMPDEST PUSH1 0x0 DUP3 PUSH1 0x1F DUP4 ADD SLT PUSH2 0x1F9A JUMPI PUSH2 0x1F99 PUSH2 0x1CAA JUMP JUMPDEST JUMPDEST DUP2 CALLDATALOAD PUSH2 0x1FAA DUP5 DUP3 PUSH1 0x20 DUP7 ADD PUSH2 0x1EFE JUMP JUMPDEST SWAP2 POP POP SWAP3 SWAP2 POP POP JUMP JUMPDEST PUSH1 0x0 PUSH1 0x20 DUP3 DUP5 SUB SLT ISZERO PUSH2 0x1FC9 JUMPI PUSH2 0x1FC8 PUSH2 0x1CA0 JUMP JUMPDEST JUMPDEST PUSH1 0x0 DUP3 ADD CALLDATALOAD PUSH8 0xFFFFFFFFFFFFFFFF DUP2 GT ISZERO PUSH2 0x1FE7 JUMPI PUSH2 0x1FE6 PUSH2 0x1CA5 JUMP JUMPDEST JUMPDEST PUSH2 0x1FF3 DUP5 DUP3 DUP6 ADD PUSH2 0x1F85 JUMP JUMPDEST SWAP2 POP POP SWAP3 SWAP2 POP POP JUMP JUMPDEST PUSH1 0x0 DUP2 MLOAD SWAP1 POP SWAP2 SWAP1 POP JUMP JUMPDEST PUSH1 0x0 DUP3 DUP3 MSTORE PUSH1 0x20 DUP3 ADD SWAP1 POP SWAP3 SWAP2 POP POP JUMP JUMPDEST PUSH1 0x0 DUP2 SWAP1 POP PUSH1 0x20 DUP3 ADD SWAP1 POP SWAP2 SWAP1 POP JUMP JUMPDEST PUSH1 0x0 DUP2 MLOAD SWAP1 POP SWAP2 SWAP1 POP JUMP JUMPDEST PUSH1 0x0 DUP3 DUP3 MSTORE PUSH1 0x20 DUP3 ADD SWAP1 POP SWAP3 SWAP2 POP POP JUMP JUMPDEST PUSH1 0x0 JUMPDEST DUP4 DUP2 LT ISZERO PUSH2 0x2062 JUMPI DUP1 DUP3 ADD MLOAD DUP2 DUP5 ADD MSTORE PUSH1 0x20 DUP2 ADD SWAP1 POP PUSH2 0x2047 JUMP JUMPDEST PUSH1 0x0 DUP5 DUP5 ADD MSTORE POP POP POP POP JUMP JUMPDEST PUSH1 0x0 PUSH2 0x2079 DUP3 PUSH2 0x2028 JUMP JUMPDEST PUSH2 0x2083 DUP2 DUP6 PUSH2 0x2033 JUMP JUMPDEST SWAP4 POP PUSH2 0x2093 DUP2 DUP6 PUSH1 0x20 DUP7 ADD PUSH2 0x2044 JUMP JUMPDEST PUSH2 0x209C DUP2 PUSH2 0x1CB4 JUMP JUMPDEST DUP5 ADD SWAP2 POP POP SWAP3 SWAP2 POP POP JUMP JUMPDEST PUSH2 0x20B0 DUP2 PUSH2 0x1E97 JUMP JUMPDEST DUP3 MSTORE POP POP JUMP JUMPDEST PUSH1 0x0 DUP2 SWAP1 POP SWAP2 SWAP1 POP JUMP JUMPDEST PUSH2 0x20C9 DUP2 PUSH2 0x20B6 JUMP JUMPDEST DUP3 MSTORE POP POP JUMP JUMPDEST PUSH1 0x0 PUSH1 0x60 DUP4 ADD PUSH1 0x0 DUP4 ADD MLOAD DUP5 DUP3 SUB PUSH1 0x0 DUP7 ADD MSTORE PUSH2 0x20EC DUP3 DUP3 PUSH2 0x206E JUMP JUMPDEST SWAP2 POP POP PUSH1 0x20 DUP4 ADD MLOAD PUSH2 0x2101 PUSH1 0x20 DUP7 ADD DUP3 PUSH2 0x20A7 JUMP JUMPDEST POP PUSH1 0x40 DUP4 ADD MLOAD PUSH2 0x2114 PUSH1 0x40 DUP7 ADD DUP3 PUSH2 0x20C0 JUMP JUMPDEST POP DUP1 SWAP2 POP POP SWAP3 SWAP2 POP POP JUMP JUMPDEST PUSH1 0x0 PUSH2 0x212B DUP4 DUP4 PUSH2 0x20CF JUMP JUMPDEST SWAP1 POP SWAP3 SWAP2 POP POP JUMP JUMPDEST PUSH1 0x0 PUSH1 0x20 DUP3 ADD SWAP1 POP SWAP2 SWAP1 POP JUMP JUMPDEST PUSH1 0x0 PUSH2 0x214B DUP3 PUSH2 0x1FFC JUMP JUMPDEST PUSH2 0x2155 DUP2 DUP6 PUSH2 0x2007 JUMP JUMPDEST SWAP4 POP DUP4 PUSH1 0x20 DUP3 MUL DUP6 ADD PUSH2 0x2167 DUP6 PUSH2 0x2018 JUMP JUMPDEST DUP1 PUSH1 0x0 JUMPDEST DUP6 DUP2 LT ISZERO PUSH2 0x21A3 JUMPI DUP5 DUP5 SUB DUP10 MSTORE DUP2 MLOAD PUSH2 0x2184 DUP6 DUP3 PUSH2 0x211F JUMP JUMPDEST SWAP5 POP PUSH2 0x218F DUP4 PUSH2 0x2133 JUMP JUMPDEST SWAP3 POP PUSH1 0x20 DUP11 ADD SWAP10 POP POP PUSH1 0x1 DUP2 ADD SWAP1 POP PUSH2 0x216B JUMP JUMPDEST POP DUP3 SWAP8 POP DUP8 SWAP6 POP POP POP POP POP POP SWAP3 SWAP2 POP POP JUMP JUMPDEST PUSH1 0x0 PUSH1 0x20 DUP3 ADD SWAP1 POP DUP2 DUP2 SUB PUSH1 0x0 DUP4 ADD MSTORE PUSH2 0x21CF DUP2 DUP5 PUSH2 0x2140 JUMP JUMPDEST SWAP1 POP SWAP3 SWAP2 POP POP JUMP JUMPDEST PUSH1 0x0 PUSH8 0xFFFFFFFFFFFFFFFF DUP3 GT ISZERO PUSH2 0x21F2 JUMPI PUSH2 0x21F1 PUSH2 0x1CC5 JUMP JUMPDEST JUMPDEST PUSH1 0x20 DUP3 MUL SWAP1 POP PUSH1 0x20 DUP2 ADD SWAP1 POP SWAP2 SWAP1 POP JUMP JUMPDEST PUSH1 0x0 PUSH2 0x2216 PUSH2 0x2211 DUP5 PUSH2 0x21D7 JUMP JUMPDEST PUSH2 0x1D25 JUMP JUMPDEST SWAP1 POP DUP1 DUP4 DUP3 MSTORE PUSH1 0x20 DUP3 ADD SWAP1 POP PUSH1 0x20 DUP5 MUL DUP4 ADD DUP6 DUP2 GT ISZERO PUSH2 0x2239 JUMPI PUSH2 0x2238 PUSH2 0x1EF9 JUMP JUMPDEST JUMPDEST DUP4 JUMPDEST DUP2 DUP2 LT ISZERO PUSH2 0x2280 JUMPI DUP1 CALLDATALOAD PUSH8 0xFFFFFFFFFFFFFFFF DUP2 GT ISZERO PUSH2 0x225E JUMPI PUSH2 0x225D PUSH2 0x1CAA JUMP JUMPDEST JUMPDEST DUP1 DUP7 ADD PUSH2 0x226B DUP10 DUP3 PUSH2 0x1F85 JUMP JUMPDEST DUP6 MSTORE PUSH1 0x20 DUP6 ADD SWAP5 POP POP POP PUSH1 0x20 DUP2 ADD SWAP1 POP PUSH2 0x223B JUMP JUMPDEST POP POP POP SWAP4 SWAP3 POP POP POP JUMP JUMPDEST PUSH1 0x0 DUP3 PUSH1 0x1F DUP4 ADD SLT PUSH2 0x229F JUMPI PUSH2 0x229E PUSH2 0x1CAA JUMP JUMPDEST JUMPDEST DUP2 CALLDATALOAD PUSH2 0x22AF DUP5 DUP3 PUSH1 0x20 DUP7 ADD PUSH2 0x2203 JUMP JUMPDEST SWAP2 POP POP SWAP3 SWAP2 POP POP JUMP JUMPDEST PUSH1 0x0 PUSH8 0xFFFFFFFFFFFFFFFF DUP3 GT ISZERO PUSH2 0x22D3 JUMPI PUSH2 0x22D2 PUSH2 0x1CC5 JUMP JUMPDEST JUMPDEST PUSH1 0x20 DUP3 MUL SWAP1 POP PUSH1 0x20 DUP2 ADD SWAP1 POP SWAP2 SWAP1 POP JUMP JUMPDEST PUSH2 0x22ED DUP2 PUSH2 0x1E97 JUMP JUMPDEST DUP2 EQ PUSH2 0x22F8 JUMPI PUSH1 0x0 DUP1 REVERT JUMPDEST POP JUMP JUMPDEST PUSH1 0x0 DUP2 CALLDATALOAD SWAP1 POP PUSH2 0x230A DUP2 PUSH2 0x22E4 JUMP JUMPDEST SWAP3 SWAP2 POP POP JUMP JUMPDEST PUSH1 0x0 PUSH2 0x2323 PUSH2 0x231E DUP5 PUSH2 0x22B8 JUMP JUMPDEST PUSH2 0x1D25 JUMP JUMPDEST SWAP1 POP DUP1 DUP4 DUP3 MSTORE PUSH1 0x20 DUP3 ADD SWAP1 POP PUSH1 0x20 DUP5 MUL DUP4 ADD DUP6 DUP2 GT ISZERO PUSH2 0x2346 JUMPI PUSH2 0x2345 PUSH2 0x1EF9 JUMP JUMPDEST JUMPDEST DUP4 JUMPDEST DUP2 DUP2 LT ISZERO PUSH2 0x236F JUMPI DUP1 PUSH2 0x235B DUP9 DUP3 PUSH2 0x22FB JUMP JUMPDEST DUP5 MSTORE PUSH1 0x20 DUP5 ADD SWAP4 POP POP PUSH1 0x20 DUP2 ADD SWAP1 POP PUSH2 0x2348 JUMP JUMPDEST POP POP POP SWAP4 SWAP3 POP POP POP JUMP JUMPDEST PUSH1 0x0 DUP3 PUSH1 0x1F DUP4 ADD SLT PUSH2 0x238E JUMPI PUSH2 0x238D PUSH2 0x1CAA JUMP JUMPDEST JUMPDEST DUP2 CALLDATALOAD PUSH2 0x239E DUP5 DUP3 PUSH1 0x20 DUP7 ADD PUSH2 0x2310 JUMP JUMPDEST SWAP2 POP POP SWAP3 SWAP2 POP POP JUMP JUMPDEST PUSH1 0x0 DUP1 PUSH1 0x0 DUP1 PUSH1 0x0 DUP1 PUSH1 0x0 DUP1 PUSH2 0x100 DUP10 DUP12 SUB SLT ISZERO PUSH2 0x23C8 JUMPI PUSH2 0x23C7 PUSH2 0x1CA0 JUMP JUMPDEST JUMPDEST PUSH1 0x0 DUP10 ADD CALLDATALOAD PUSH8 0xFFFFFFFFFFFFFFFF DUP2 GT ISZERO PUSH2 0x23E6 JUMPI PUSH2 0x23E5 PUSH2 0x1CA5 JUMP JUMPDEST JUMPDEST PUSH2 0x23F2 DUP12 DUP3 DUP13 ADD PUSH2 0x1DC2 JUMP JUMPDEST SWAP9 POP POP PUSH1 0x20 DUP10 ADD CALLDATALOAD PUSH8 0xFFFFFFFFFFFFFFFF DUP2 GT ISZERO PUSH2 0x2413 JUMPI PUSH2 0x2412 PUSH2 0x1CA5 JUMP JUMPDEST JUMPDEST PUSH2 0x241F DUP12 DUP3 DUP13 ADD PUSH2 0x228A JUMP JUMPDEST SWAP8 POP POP PUSH1 0x40 DUP10 ADD CALLDATALOAD PUSH8 0xFFFFFFFFFFFFFFFF DUP2 GT ISZERO PUSH2 0x2440 JUMPI PUSH2 0x243F PUSH2 0x1CA5 JUMP JUMPDEST JUMPDEST PUSH2 0x244C DUP12 DUP3 DUP13 ADD PUSH2 0x2379 JUMP JUMPDEST SWAP7 POP POP PUSH1 0x60 DUP10 ADD CALLDATALOAD PUSH8 0xFFFFFFFFFFFFFFFF DUP2 GT ISZERO PUSH2 0x246D JUMPI PUSH2 0x246C PUSH2 0x1CA5 JUMP JUMPDEST JUMPDEST PUSH2 0x2479 DUP12 DUP3 DUP13 ADD PUSH2 0x1F85 JUMP JUMPDEST SWAP6 POP POP PUSH1 0x80 DUP10 ADD CALLDATALOAD PUSH8 0xFFFFFFFFFFFFFFFF DUP2 GT ISZERO PUSH2 0x249A JUMPI PUSH2 0x2499 PUSH2 0x1CA5 JUMP JUMPDEST JUMPDEST PUSH2 0x24A6 DUP12 DUP3 DUP13 ADD PUSH2 0x1F85 JUMP JUMPDEST SWAP5 POP POP PUSH1 0xA0 DUP10 ADD CALLDATALOAD PUSH8 0xFFFFFFFFFFFFFFFF DUP2 GT ISZERO PUSH2 0x24C7 JUMPI PUSH2 0x24C6 PUSH2 0x1CA5 JUMP JUMPDEST JUMPDEST PUSH2 0x24D3 DUP12 DUP3 DUP13 ADD PUSH2 0x1F85 JUMP JUMPDEST SWAP4 POP POP PUSH1 0xC0 DUP10 ADD CALLDATALOAD PUSH8 0xFFFFFFFFFFFFFFFF DUP2 GT ISZERO PUSH2 0x24F4 JUMPI PUSH2 0x24F3 PUSH2 0x1CA5 JUMP JUMPDEST JUMPDEST PUSH2 0x2500 DUP12 DUP3 DUP13 ADD PUSH2 0x1DC2 JUMP JUMPDEST SWAP3 POP POP PUSH1 0xE0 DUP10 ADD CALLDATALOAD PUSH8 0xFFFFFFFFFFFFFFFF DUP2 GT ISZERO PUSH2 0x2521 JUMPI PUSH2 0x2520 PUSH2 0x1CA5 JUMP JUMPDEST JUMPDEST PUSH2 0x252D DUP12 DUP3 DUP13 ADD PUSH2 0x1DC2 JUMP JUMPDEST SWAP2 POP POP SWAP3 SWAP6 SWAP9 POP SWAP3 SWAP6 SWAP9 SWAP1 SWAP4 SWAP7 POP JUMP JUMPDEST PUSH1 0x0 PUSH8 0xFFFFFFFFFFFFFFFF DUP3 GT ISZERO PUSH2 0x2558 JUMPI PUSH2 0x2557 PUSH2 0x1CC5 JUMP JUMPDEST JUMPDEST PUSH1 0x20 DUP3 MUL SWAP1 POP PUSH1 0x20 DUP2 ADD SWAP1 POP SWAP2 SWAP1 POP JUMP JUMPDEST PUSH1 0x0 DUP1 REVERT JUMPDEST PUSH1 0x0 DUP1 REVERT JUMPDEST PUSH2 0x257C DUP2 PUSH2 0x20B6 JUMP JUMPDEST DUP2 EQ PUSH2 0x2587 JUMPI PUSH1 0x0 DUP1 REVERT JUMPDEST POP JUMP JUMPDEST PUSH1 0x0 DUP2 CALLDATALOAD SWAP1 POP PUSH2 0x2599 DUP2 PUSH2 0x2573 JUMP JUMPDEST SWAP3 SWAP2 POP POP JUMP JUMPDEST PUSH1 0x0 PUSH1 0x60 DUP3 DUP5 SUB SLT ISZERO PUSH2 0x25B5 JUMPI PUSH2 0x25B4 PUSH2 0x2569 JUMP JUMPDEST JUMPDEST PUSH2 0x25BF PUSH1 0x60 PUSH2 0x1D25 JUMP JUMPDEST SWAP1 POP PUSH1 0x0 DUP3 ADD CALLDATALOAD PUSH8 0xFFFFFFFFFFFFFFFF DUP2 GT ISZERO PUSH2 0x25DF JUMPI PUSH2 0x25DE PUSH2 0x256E JUMP JUMPDEST JUMPDEST PUSH2 0x25EB DUP5 DUP3 DUP6 ADD PUSH2 0x1DC2 JUMP JUMPDEST PUSH1 0x0 DUP4 ADD MSTORE POP PUSH1 0x20 PUSH2 0x25FF DUP5 DUP3 DUP6 ADD PUSH2 0x22FB JUMP JUMPDEST PUSH1 0x20 DUP4 ADD MSTORE POP PUSH1 0x40 PUSH2 0x2613 DUP5 DUP3 DUP6 ADD PUSH2 0x258A JUMP JUMPDEST PUSH1 0x40 DUP4 ADD MSTORE POP SWAP3 SWAP2 POP POP JUMP JUMPDEST PUSH1 0x0 PUSH2 0x2632 PUSH2 0x262D DUP5 PUSH2 0x253D JUMP JUMPDEST PUSH2 0x1D25 JUMP JUMPDEST SWAP1 POP DUP1 DUP4 DUP3 MSTORE PUSH1 0x20 DUP3 ADD SWAP1 POP PUSH1 0x20 DUP5 MUL DUP4 ADD DUP6 DUP2 GT ISZERO PUSH2 0x2655 JUMPI PUSH2 0x2654 PUSH2 0x1EF9 JUMP JUMPDEST JUMPDEST DUP4 JUMPDEST DUP2 DUP2 LT ISZERO PUSH2 0x269C JUMPI DUP1 CALLDATALOAD PUSH8 0xFFFFFFFFFFFFFFFF DUP2 GT ISZERO PUSH2 0x267A JUMPI PUSH2 0x2679 PUSH2 0x1CAA JUMP JUMPDEST JUMPDEST DUP1 DUP7 ADD PUSH2 0x2687 DUP10 DUP3 PUSH2 0x259F JUMP JUMPDEST DUP6 MSTORE PUSH1 0x20 DUP6 ADD SWAP5 POP POP POP PUSH1 0x20 DUP2 ADD SWAP1 POP PUSH2 0x2657 JUMP JUMPDEST POP POP POP SWAP4 SWAP3 POP POP POP JUMP JUMPDEST PUSH1 0x0 DUP3 PUSH1 0x1F DUP4 ADD SLT PUSH2 0x26BB JUMPI PUSH2 0x26BA PUSH2 0x1CAA JUMP JUMPDEST JUMPDEST DUP2 CALLDATALOAD PUSH2 0x26CB DUP5 DUP3 PUSH1 0x20 DUP7 ADD PUSH2 0x261F JUMP JUMPDEST SWAP2 POP POP SWAP3 SWAP2 POP POP JUMP JUMPDEST PUSH1 0x0 DUP1 PUSH1 0x0 DUP1 PUSH1 0x0 PUSH1 0xA0 DUP7 DUP9 SUB SLT ISZERO PUSH2 0x26F0 JUMPI PUSH2 0x26EF PUSH2 0x1CA0 JUMP JUMPDEST JUMPDEST PUSH1 0x0 DUP7 ADD CALLDATALOAD PUSH8 0xFFFFFFFFFFFFFFFF DUP2 GT ISZERO PUSH2 0x270E JUMPI PUSH2 0x270D PUSH2 0x1CA5 JUMP JUMPDEST JUMPDEST PUSH2 0x271A DUP9 DUP3 DUP10 ADD PUSH2 0x228A JUMP JUMPDEST SWAP6 POP POP PUSH1 0x20 DUP7 ADD CALLDATALOAD PUSH8 0xFFFFFFFFFFFFFFFF DUP2 GT ISZERO PUSH2 0x273B JUMPI PUSH2 0x273A PUSH2 0x1CA5 JUMP JUMPDEST JUMPDEST PUSH2 0x2747 DUP9 DUP3 DUP10 ADD PUSH2 0x2379 JUMP JUMPDEST SWAP5 POP POP PUSH1 0x40 DUP7 ADD CALLDATALOAD PUSH8 0xFFFFFFFFFFFFFFFF DUP2 GT ISZERO PUSH2 0x2768 JUMPI PUSH2 0x2767 PUSH2 0x1CA5 JUMP JUMPDEST JUMPDEST PUSH2 0x2774 DUP9 DUP3 DUP10 ADD PUSH2 0x26A6 JUMP JUMPDEST SWAP4 POP POP PUSH1 0x60 DUP7 ADD CALLDATALOAD PUSH8 0xFFFFFFFFFFFFFFFF DUP2 GT ISZERO PUSH2 0x2795 JUMPI PUSH2 0x2794 PUSH2 0x1CA5 JUMP JUMPDEST JUMPDEST PUSH2 0x27A1 DUP9 DUP3 DUP10 ADD PUSH2 0x1F85 JUMP JUMPDEST SWAP3 POP POP PUSH1 0x80 DUP7 ADD CALLDATALOAD PUSH8 0xFFFFFFFFFFFFFFFF DUP2 GT ISZERO PUSH2 0x27C2 JUMPI PUSH2 0x27C1 PUSH2 0x1CA5 JUMP JUMPDEST JUMPDEST PUSH2 0x27CE DUP9 DUP3 DUP10 ADD PUSH2 0x259F JUMP JUMPDEST SWAP2 POP POP SWAP3 SWAP6 POP SWAP3 SWAP6 SWAP1 SWAP4 POP JUMP JUMPDEST PUSH32 0x4E487B7100000000000000000000000000000000000000000000000000000000 PUSH1 0x0 MSTORE PUSH1 0x32 PUSH1 0x4 MSTORE PUSH1 0x24 PUSH1 0x0 REVERT JUMPDEST PUSH32 0x4E487B7100000000000000000000000000000000000000000000000000000000 PUSH1 0x0 MSTORE PUSH1 0x11 PUSH1 0x4 MSTORE PUSH1 0x24 PUSH1 0x0 REVERT JUMPDEST PUSH1 0x0 PUSH2 0x2844 DUP3 PUSH2 0x20B6 JUMP JUMPDEST SWAP2 POP PUSH32 0xFFFFFFFFFFFFFFFFFFFFFFFFFFFFFFFFFFFFFFFFFFFFFFFFFFFFFFFFFFFFFFFF DUP3 SUB PUSH2 0x2876 JUMPI PUSH2 0x2875 PUSH2 0x280A JUMP JUMPDEST JUMPDEST PUSH1 0x1 DUP3 ADD SWAP1 POP SWAP2 SWAP1 POP JUMP JUMPDEST PUSH1 0x0 DUP3 DUP3 MSTORE PUSH1 0x20 DUP3 ADD SWAP1 POP SWAP3 SWAP2 POP POP JUMP JUMPDEST PUSH32 0x4D6F64756C617220696E766572736520766572696669636174696F6E20666169 PUSH1 0x0 DUP3 ADD MSTORE PUSH32 0x6C732E0000000000000000000000000000000000000000000000000000000000 PUSH1 0x20 DUP3 ADD MSTORE POP JUMP JUMPDEST PUSH1 0x0 PUSH2 0x28EE PUSH1 0x23 DUP4 PUSH2 0x2881 JUMP JUMPDEST SWAP2 POP PUSH2 0x28F9 DUP3 PUSH2 0x2892 JUMP JUMPDEST PUSH1 0x40 DUP3 ADD SWAP1 POP SWAP2 SWAP1 POP JUMP JUMPDEST PUSH1 0x0 PUSH1 0x20 DUP3 ADD SWAP1 POP DUP2 DUP2 SUB PUSH1 0x0 DUP4 ADD MSTORE PUSH2 0x291D DUP2 PUSH2 0x28E1 JUMP JUMPDEST SWAP1 POP SWAP2 SWAP1 POP JUMP JUMPDEST PUSH1 0x0 DUP2 MLOAD SWAP1 POP SWAP2 SWAP1 POP JUMP JUMPDEST PUSH1 0x0 PUSH2 0x293A DUP3 PUSH2 0x2924 JUMP JUMPDEST PUSH2 0x2944 DUP2 DUP6 PUSH2 0x2881 JUMP JUMPDEST SWAP4 POP PUSH2 0x2954 DUP2 DUP6 PUSH1 0x20 DUP7 ADD PUSH2 0x2044 JUMP JUMPDEST PUSH2 0x295D DUP2 PUSH2 0x1CB4 JUMP JUMPDEST DUP5 ADD SWAP2 POP POP SWAP3 SWAP2 POP POP JUMP JUMPDEST PUSH1 0x0 PUSH1 0x20 DUP3 ADD SWAP1 POP DUP2 DUP2 SUB PUSH1 0x0 DUP4 ADD MSTORE PUSH2 0x2982 DUP2 DUP5 PUSH2 0x292F JUMP JUMPDEST SWAP1 POP SWAP3 SWAP2 POP POP JUMP JUMPDEST PUSH32 0x736F6D657468696E672077726F6E672068657265000000000000000000000000 PUSH1 0x0 DUP3 ADD MSTORE POP JUMP JUMPDEST PUSH1 0x0 PUSH2 0x29C0 PUSH1 0x14 DUP4 PUSH2 0x2881 JUMP JUMPDEST SWAP2 POP PUSH2 0x29CB DUP3 PUSH2 0x298A JUMP JUMPDEST PUSH1 0x20 DUP3 ADD SWAP1 POP SWAP2 SWAP1 POP JUMP JUMPDEST PUSH1 0x0 PUSH1 0x20 DUP3 ADD SWAP1 POP DUP2 DUP2 SUB PUSH1 0x0 DUP4 ADD MSTORE PUSH2 0x29EF DUP2 PUSH2 0x29B3 JUMP JUMPDEST SWAP1 POP SWAP2 SWAP1 POP JUMP JUMPDEST PUSH32 0x616E64206865726520746F6F0000000000000000000000000000000000000000 PUSH1 0x0 DUP3 ADD MSTORE POP JUMP JUMPDEST PUSH1 0x0 PUSH2 0x2A2C PUSH1 0xC DUP4 PUSH2 0x2881 JUMP JUMPDEST SWAP2 POP PUSH2 0x2A37 DUP3 PUSH2 0x29F6 JUMP JUMPDEST PUSH1 0x20 DUP3 ADD SWAP1 POP SWAP2 SWAP1 POP JUMP JUMPDEST PUSH1 0x0 PUSH1 0x20 DUP3 ADD SWAP1 POP DUP2 DUP2 SUB PUSH1 0x0 DUP4 ADD MSTORE PUSH2 0x2A5B DUP2 PUSH2 0x2A1F JUMP JUMPDEST SWAP1 POP SWAP2 SWAP1 POP JUMP JUMPDEST PUSH1 0x0 DUP2 SWAP1 POP SWAP2 SWAP1 POP JUMP JUMPDEST PUSH1 0x0 PUSH2 0x2A77 DUP3 PUSH2 0x2A62 JUMP JUMPDEST SWAP2 POP PUSH2 0x2A82 DUP4 PUSH2 0x2A62 JUMP JUMPDEST SWAP3 POP DUP3 DUP3 MUL PUSH2 0x2A90 DUP2 PUSH2 0x2A62 JUMP JUMPDEST SWAP2 POP PUSH32 0x8000000000000000000000000000000000000000000000000000000000000000 DUP5 EQ PUSH1 0x0 DUP5 SLT AND ISZERO PUSH2 0x2AC8 JUMPI PUSH2 0x2AC7 PUSH2 0x280A JUMP JUMPDEST JUMPDEST DUP3 DUP3 SDIV DUP5 EQ DUP4 ISZERO OR PUSH2 0x2ADD JUMPI PUSH2 0x2ADC PUSH2 0x280A JUMP JUMPDEST JUMPDEST POP SWAP3 SWAP2 POP POP JUMP JUMPDEST PUSH1 0x0 PUSH2 0x2AEF DUP3 PUSH2 0x20B6 JUMP JUMPDEST SWAP2 POP PUSH2 0x2AFA DUP4 PUSH2 0x20B6 JUMP JUMPDEST SWAP3 POP DUP3 DUP3 ADD SWAP1 POP DUP1 DUP3 GT ISZERO PUSH2 0x2B12 JUMPI PUSH2 0x2B11 PUSH2 0x280A JUMP JUMPDEST JUMPDEST SWAP3 SWAP2 POP POP JUMP JUMPDEST PUSH1 0x0 PUSH2 0x2B23 DUP3 PUSH2 0x20B6 JUMP JUMPDEST SWAP2 POP PUSH2 0x2B2E DUP4 PUSH2 0x20B6 JUMP JUMPDEST SWAP3 POP DUP3 DUP3 SUB SWAP1 POP DUP2 DUP2 GT ISZERO PUSH2 0x2B46 JUMPI PUSH2 0x2B45 PUSH2 0x280A JUMP JUMPDEST JUMPDEST SWAP3 SWAP2 POP POP JUMP INVALID LOG2 PUSH5 0x6970667358 0x22 SLT KECCAK256 CODESIZE 0xD PUSH7 0xBB88E59A39952F ADD LOG4 SWAP16 JUMPDEST SWAP6 CALLDATACOPY MUL MOD 0x5D DUP2 0xC5 PUSH30 0x9CC05E2F2FB631EB6C7864736F6C63430008110033000000000000000000 "},"methodIdentifiers":{"BN(bytes[])":"6fd08499","checkEvery(bytes[][],bool[],(bytes,bool,uint256)[],bytes[],(bytes,bool,uint256))":"cd3cf360","verifyInvMod(bytes,bytes,bytes)":"41a3aa0c","verifyTx(bytes,bytes[][],bool[],bytes[],bytes[],bytes[],bytes,bytes)":"9e97f341"}}}}}