{"contracts/Test.sol":{"Test":{"abi":[{"inputs":[{"internalType":"bytes","name":"num1","type":"bytes"},{"internalType":"bytes","name":"num2","type":"bytes"}],"name":"add","outputs":[{"components":[{"internalType":"bytes","name":"val","type":"bytes"},{"internalType":"bool","name":"neg","type":"bool"},{"internalType":"uint256","name":"bitlen","type":"uint256"}],"internalType":"struct BigNumber","name":"","type":"tuple"}],"stateMutability":"view","type":"function"},{"inputs":[{"internalType":"string[][]","name":"proof","type":"string[][]"},{"components":[{"internalType":"bytes","name":"val","type":"bytes"},{"internalType":"bool","name":"neg","type":"bool"},{"internalType":"uint256","name":"bitlen","type":"uint256"}],"internalType":"struct BigNumber[]","name":"AS","type":"tuple[]"},{"components":[{"internalType":"bytes","name":"val","type":"bytes"},{"internalType":"bool","name":"neg","type":"bool"},{"internalType":"uint256","name":"bitlen","type":"uint256"}],"internalType":"struct BigNumber","name":"_pub","type":"tuple"}],"name":"checkEvery","outputs":[{"components":[{"internalType":"bytes","name":"val","type":"bytes"},{"internalType":"bool","name":"neg","type":"bool"},{"internalType":"uint256","name":"bitlen","type":"uint256"}],"internalType":"struct BigNumber","name":"","type":"tuple"}],"stateMutability":"view","type":"function"},{"inputs":[{"components":[{"internalType":"bytes","name":"val","type":"bytes"},{"internalType":"bool","name":"neg","type":"bool"},{"internalType":"uint256","name":"bitlen","type":"uint256"}],"internalType":"struct BigNumber","name":"_bg","type":"tuple"}],"name":"generator","outputs":[{"components":[{"internalType":"bytes","name":"val","type":"bytes"},{"internalType":"bool","name":"neg","type":"bool"},{"internalType":"uint256","name":"bitlen","type":"uint256"}],"internalType":"struct BigNumber","name":"","type":"tuple"}],"stateMutability":"view","type":"function"},{"inputs":[{"internalType":"string","name":"_text","type":"string"},{"internalType":"uint256","name":"_num","type":"uint256"},{"internalType":"address","name":"_addr","type":"address"}],"name":"hash","outputs":[{"internalType":"bytes32","name":"","type":"bytes32"}],"stateMutability":"pure","type":"function"},{"inputs":[],"name":"test","outputs":[{"components":[{"internalType":"bytes","name":"val","type":"bytes"},{"internalType":"bool","name":"neg","type":"bool"},{"internalType":"uint256","name":"bitlen","type":"uint256"}],"internalType":"struct BigNumber","name":"result","type":"tuple"}],"stateMutability":"view","type":"function"},{"inputs":[],"name":"test2","outputs":[{"components":[{"internalType":"bytes","name":"val","type":"bytes"},{"internalType":"bool","name":"neg","type":"bool"},{"internalType":"uint256","name":"bitlen","type":"uint256"}],"internalType":"struct BigNumber","name":"result","type":"tuple"}],"stateMutability":"view","type":"function"},{"inputs":[{"internalType":"bytes","name":"_gmk","type":"bytes"},{"internalType":"bytes","name":"_N","type":"bytes"},{"internalType":"bytes","name":"_r","type":"bytes"}],"name":"verifyInvMod","outputs":[{"internalType":"bool","name":"verify","type":"bool"}],"stateMutability":"view","type":"function"},{"inputs":[{"internalType":"string","name":"_ciphertext","type":"string"},{"internalType":"string[][]","name":"proof","type":"string[][]"},{"internalType":"bytes[]","name":"_as","type":"bytes[]"},{"internalType":"string","name":"_e","type":"string"},{"internalType":"string","name":"pubKey","type":"string"}],"name":"verifyMembershipZKP","outputs":[{"internalType":"bytes","name":"","type":"bytes"},{"components":[{"internalType":"bytes","name":"val","type":"bytes"},{"internalType":"bool","name":"neg","type":"bool"},{"internalType":"uint256","name":"bitlen","type":"uint256"}],"internalType":"struct BigNumber","name":"","type":"tuple"}],"stateMutability":"view","type":"function"}],"evm":{"bytecode":{"linkReferences":{},"object":"608060405234801561001057600080fd5b50612ebb806100206000396000f3fe608060405234801561001057600080fd5b50600436106100885760003560e01c806366e41cb71161005b57806366e41cb71461014e578063d5f679b11461016c578063e40d21c81461019c578063f8a8fd6d146101cc57610088565b8063260804341461008d5780633b007d8e146100be57806341a3aa0c146100ee5780635dda416e1461011e575b600080fd5b6100a760048036038101906100a291906121b2565b6101ea565b6040516100b5929190612406565b60405180910390f35b6100d860048036038101906100d3919061243d565b6104d0565b6040516100e591906124b5565b60405180910390f35b610108600480360381019061010391906124d7565b6104fe565b604051610115919061258d565b60405180910390f35b61013860048036038101906101339190612632565b610543565b60405161014591906126ba565b60405180910390f35b610156610579565b60405161016391906124b5565b60405180910390f35b6101866004803603810190610181919061278b565b610685565b60405161019391906124b5565b60405180910390f35b6101b660048036038101906101b191906128b5565b6106f4565b6040516101c391906124b5565b60405180910390f35b6101d4610897565b6040516101e191906124b5565b60405180910390f35b60606101f4611cec565b60006102018860006109a2565b905060006102108560006109a2565b9050600061022782836109be90919063ffffffff16565b90506000885167ffffffffffffffff81111561024657610245611d3e565b5b60405190808252806020026020018201604052801561027f57816020015b61026c611cec565b8152602001906001900390816102645790505b50905060005b89518110156102fe5760006102c96102b88c84815181106102a9576102a861295c565b5b602002602001015160006109a2565b8588610a639092919063ffffffff16565b9050808383815181106102df576102de61295c565b5b60200260200101819052505080806102f6906129ba565b915050610285565b506000610309610a87565b905060005b8b6000815181106103225761032161295c565b5b60200260200101515181101561040e5760006103748d60008151811061034b5761034a61295c565b5b602002602001015183815181106103655761036461295c565b5b602002602001015160006109a2565b9050600082036103d3576103d0866103c28f6000815181106103995761039861295c565b5b602002602001015185815181106103b3576103b261295c565b5b602002602001015160016109a2565b610ac990919063ffffffff16565b92505b6103f8866103ea8386610aeb90919063ffffffff16565b610ac990919063ffffffff16565b9250508080610406906129ba565b91505061030e565b5061042c61041d8a60006109a2565b82610d1390919063ffffffff16565b6104c0576104706040518060400160405280600681526020017f6c656e67746800000000000000000000000000000000000000000000000000008152508d51610d3f565b8b6104b28c6000815181106104885761048761295c565b5b60200260200101516000815181106104a3576104a261295c565b5b602002602001015160016109a2565b9650965050505050506104c6565b50505050505b9550959350505050565b6104d8611cec565b6104f66104e68460006109a2565b6104f18460006109a2565b610aeb565b905092915050565b60008061050c8560006109a2565b9050600061051b8560006109a2565b9050600061052a8560006109a2565b9050610537838383610ddb565b93505050509392505050565b600083838360405160200161055a93929190612ab2565b6040516020818303038152906040528051906020012090509392505050565b610581611cec565b60006040518060400160405280600b81526020017f68656c6c6f20776f726c64000000000000000000000000000000000000000000815250905060006105e960006040518060a0016040528060808152602001612e06608091396109a290919063ffffffff16565b9050600061063660006040518060400160405280600381526020017f01000100000000000000000000000000000000000000000000000000000000008152506109a290919063ffffffff16565b90506000610667600060405180610120016040528060e78152602001612d1f60e791396109a290919063ffffffff16565b905061067c8184610aeb90919063ffffffff16565b94505050505090565b61068d611cec565b60006106d760006040518060400160405280600281526020017e010000000000000000000000000000000000000000000000000000000000008152506109a290919063ffffffff16565b90506106ec8184610aeb90919063ffffffff16565b915050919050565b6106fc611cec565b600061071183846109be90919063ffffffff16565b90506000856002815181106107295761072861295c565b5b60200260200101515181101561088d57600061077b876002815181106107525761075161295c565b5b6020026020010151838151811061076c5761076b61295c565b5b602002602001015160006109a2565b905060006107bf886001815181106107965761079561295c565b5b602002602001015184815181106107b0576107af61295c565b5b602002602001015160006109a2565b90506000610803896000815181106107da576107d961295c565b5b602002602001015185815181106107f4576107f361295c565b5b602002602001015160006109a2565b9050600084036108505761084d896000815181106108245761082361295c565b5b6020026020010151858151811061083e5761083d61295c565b5b602002602001015160006109a2565b90505b60008885815181106108655761086461295c565b5b60200260200101519050600061087c828489610e2e565b905080975050505050505050610890565b50505b9392505050565b61089f611cec565b60006040518060400160405280600b81526020017f68656c6c6f20776f726c640000000000000000000000000000000000000000008152509050600061090760006040518060a0016040528060808152602001612e06608091396109a290919063ffffffff16565b9050600061095460006040518060400160405280600381526020017f01000100000000000000000000000000000000000000000000000000000000008152506109a290919063ffffffff16565b9050600061098460006040518060e0016040528060c08152602001612c5f60c091396109a290919063ffffffff16565b90506109998184610aeb90919063ffffffff16565b94505050505090565b6109aa611cec565b6109b683836000610f2b565b905092915050565b6109c6611cec565b60006109d28484610aeb565b905060006109f2826109e2610ff8565b6109ed85600261103a565b610e2e565b90506109fe8585610d13565b610a4d576000610a0e86866110b6565b90506000610a2e82610a1e610ff8565b610a2985600261103a565b610e2e565b9050610a44610a3d84836110b6565b6002611305565b94505050610a5b565b610a58816002611305565b92505b505092915050565b610a6b611cec565b610a7e610a7885856109be565b83610ac9565b90509392505050565b610a8f611cec565b6040518060600160405280604051806040016040528060208152602001600081525081526020016000151581526020016000815250905090565b610ad1611cec565b610ae383610add611467565b84610e2e565b905092915050565b610af3611cec565b60008360400151148015610b0b575060008260400151145b15610b1f57610b18610a87565b9050610d0d565b6000836040015103610b3357819050610d0d565b6000826040015103610b4757829050610d0d565b6060600080610b58868660006114a9565b9050856020015180610b6b575084602001515b15610c985785602001518015610b82575084602001515b15610be95760008112610bb357610ba6866000015186600001518860400151611686565b8093508194505050610bd3565b610bca856000015187600001518760400151611686565b80935081945050505b6001846020019015159081151581525050610c93565b60018103610c2457610c03866000015186600001516117bc565b80935081945050508560200151846020019015159081151581525050610c92565b7fffffffffffffffffffffffffffffffffffffffffffffffffffffffffffffffff8103610c7f57610c5d856000015187600001516117bc565b8093508194505050856020015115846020019015159081151581525050610c91565b610c87610a87565b9350505050610d0d565b5b5b610cf6565b60008112610cc457610cb7866000015186600001518860400151611686565b8093508194505050610ce4565b610cdb856000015187600001518760400151611686565b80935081945050505b60008460200190151590811515815250505b828460000181905250818460400181815250505050505b92915050565b600080610d22848460016114a9565b905060008114610d33576000610d36565b60015b91505092915050565b610dd78282604051602401610d55929190612b44565b6040516020818303038152906040527fb60e72cc000000000000000000000000000000000000000000000000000000007bffffffffffffffffffffffffffffffffffffffffffffffffffffffff19166020820180517bffffffffffffffffffffffffffffffffffffffffffffffffffffffff83818316178352505050506118e7565b5050565b60008360200151158015610df157508260200151155b610dfa57600080fd5b6000610e19610e0a868587610a63565b610e12611467565b60016114a9565b14610e2357600080fd5b600190509392505050565b610e36611cec565b6000151583602001511515148015610e5657506000151582602001511515145b8015610e6c5750610e6a8260000151611910565b155b610e7557600080fd5b6000610e8e856000015185600001518560000151611967565b90506000610e9b82611a41565b905060008103610eb657610ead610a87565b92505050610f24565b85602001518015610ecc5750610ecb85611a81565b5b15610f0157610ef860405180606001604052808481526020016001151581526020018381525085610aeb565b92505050610f24565b604051806060016040528083815260200160001515815260200182815250925050505b9392505050565b610f33611cec565b6020840184516000596000602084061460018114610f6557602084066020036020818401019350808501835250610f6f565b6020820192508382525b508282848660046101c2fa506020815101810160405280515b60006020821403610fbb57600060208301511460018114610fa95750610fbb565b60208301925050602081039050610f88565b808252818652876020870152505050505060008214610fda5781610fe8565b610fe78160000151611a41565b5b8160400181815250509392505050565b611000611cec565b6040518060600160405280604051806040016040528060208152602001600281525081526020016000151581526020016002815250905090565b611042611cec565b6000604051806040016040528060208152602001600081525090506000836040860151029050600161010082061b6020600161010084040102835280602084015260208351018301604052506040518060600160405280838152602001600015158152602001828152509250505092915050565b6110be611cec565b600083604001511480156110d6575060008260400151145b156110ea576110e3610a87565b90506112ff565b60606000806110fb868660006114a9565b915085602001518061110e575084602001515b156112455785602001518015611125575084602001515b156111d1576001820361116257611144866000015186600001516117bc565b809250819450505060018460200190151590811515815250506111cc565b7fffffffffffffffffffffffffffffffffffffffffffffffffffffffffffffffff82036111b95761119b856000015187600001516117bc565b809250819450505060008460200190151590811515815250506111cb565b6111c1610a87565b93505050506112ff565b5b611240565b600082126111fd576111f0866000015186600001518860400151611686565b809250819450505061121d565b611214856000015187600001518760400151611686565b80925081945050505b856020015161122d576000611230565b60015b8460200190151590811515815250505b6112e8565b6001820361127d5761125f866000015186600001516117bc565b809250819450505060008460200190151590811515815250506112e7565b7fffffffffffffffffffffffffffffffffffffffffffffffffffffffffffffffff82036112d4576112b6856000015187600001516117bc565b809250819450505060018460200190151590811515815250506112e6565b6112dc610a87565b93505050506112ff565b5b5b828460000181905250808460400181815250505050505b92915050565b61130d611cec565b600083515190508360400151831061135c576040518060600160405280604051806040016040528060208152602001600081525081526020016000151581526020016000815250915050611461565b82846040015161136c9190612b74565b84604001818152505061010083146101008411171561139d5760206101008404028103905080845152610100830692505b8351600060088506146001811461140e576000808661010003858501865b6000808214036114045760208114600181146113dd57602083035195506113e2565b600095505b5081518a1c935084831b945084841782526020820391506020810390506113bb565b505050505061143c565b6008850486518051602081018383018482038282848760046101c2fa6000601f840153848652505050505050505b506020810160008151146001810361145957602083510382528187525b505050839150505b92915050565b61146f611cec565b6040518060600160405280604051806040016040528060208152602001600181525081526020016000151581526020016001815250905090565b60008060019050821561157457846020015180156114c8575083602001515b156114f5577fffffffffffffffffffffffffffffffffffffffffffffffffffffffffffffffff9050611573565b600015158560200151151514801561151557506001151584602001511515145b1561152457600191505061167f565b600115158560200151151514801561154457506000151584602001511515145b15611572577fffffffffffffffffffffffffffffffffffffffffffffffffffffffffffffffff91505061167f565b5b5b83604001518560400151111561158d578091505061167f565b8460400151846040015111156115d157807fffffffffffffffffffffffffffffffffffffffffffffffffffffffffffffffff6115c99190612bb2565b91505061167f565b6000806000806000896000015151905060208a510194506020895101935060005b81811015611673578086015193508085015192508284111561161d578697505050505050505061167f565b8383111561165f57867fffffffffffffffffffffffffffffffffffffffffffffffffffffffffffffffff6116519190612bb2565b97505050505050505061167f565b60208161166c9190612c2a565b90506115f2565b50600096505050505050505b9392505050565b606060006060596000600160000388518901885189018a5160208601018b515b6000808214036117525783518c518e51038211600181146116ea5787820184526001881482881416600181146116df57600098506116e4565b600198505b50611739565b845188818401018552888103880383116001811461172b576000821160008b111789851416600181146117205760009a50611725565b60019a505b50611730565b600199505b50602086039550505b50602083039250602085039450506020810390506116a6565b506000851460018114611768576001825261176f565b6020870196505b50859650846020028c510187526020875101870160405260208701516001816101008d061c146001821417156117a65760018b019a505b5050505050505080849250925050935093915050565b6060600060606000807fffffffffffffffffffffffffffffffffffffffffffffffffffffffffffffffff90505987518751808203828b01828b0184860160208101865b60008082140361188f57845186821160018114611840578c8203855260018d146000831416600181146118355760009d5061183a565b60019d505b50611876565b85518d81840303865260018e148d8214168e8201841017600181146118685760009e5061186d565b60019e505b50602087039650505b50602084039350602086039550506020810390506117ff565b506020820191505b60008251036118b757602088019750602087039650602082019150611897565b879a50868b5280604052505050505050505060006118d484611a41565b9050838195509550505050509250929050565b60008151905060006a636f6e736f6c652e6c6f679050602083016000808483855afa5050505050565b600080600060208401905060005b845181101561195a578151925060008311156119405760009350505050611962565b6020820191506020816119539190612c2a565b905061191e565b506001925050505b919050565b606083518351835160405183815282602082015281604082015283606082018560208b0160046101c2fa84606001848184018660208c0160046101c2fa91508481019050838184018560208b0160046101c2fa915081600081036119c757fe5b5083810190508360608401828560056105465a03fa915081600081036119e957fe5b5083606084015b60006020831403611a2057600081511460018114611a0e5750611a20565b602082019150506020820391506119f0565b60208103985081895285856060010160405250505050505050509392505050565b6000611a4c82611910565b15611a5a5760009050611a7c565b600060208301519050611a6c81611a96565b9150600860208451030282019150505b919050565b60008151518251016002815106915050919050565b600080821460018114611ce1578260018403935060028404841793506004840484179350601084048417935061010084048417935062010000840484179350640100000000840484179350680100000000000000008404841793507001000000000000000000000000000000008404841793506001840193506040517ff8f9cbfae6cc78fbefe7cdc3a1793dfcf4f0e8bbd8cec470b6a28a7a5a3e1efd81527ff5ecf1b3e9debc68e1d9cfabc5997135bfb7a7a3938b7b606b5b4b3f2f1f0ffe60208201527ff6e4ed9ff2d6b458eadcdf97bd91692de2d4da8fd2d0ac50c6ae9a827252361660408201527fc8c0b887b0a8a4489c948c7f847c6125746c645c544c444038302820181008ff60608201527ff7cae577eec2a03cf3bad76fb589591debb2dd67e0aa9834bea6925f6a4a2e0e60808201527fe39ed557db96902cd38ed14fad815115c786af479b7e8324736353433727170760a08201527fc976c13bb96e881cb166a933a55e490d9d56952b8d4e801485467d236242260660c08201527f753a6d1b65325d0c552a4d1345224105391a310b29122104190a11030902010060e082015261010081016040527e818283848586878898a8b8c8d8e8f929395969799a9b9d9e9faaeb6bedeeff7f01000000000000000000000000000000000000000000000000000000000000008082880204818160ff038501510496507f800000000000000000000000000000000000000000000000000000000000000085116101000287019650600060018603861603611cd7576001870196505b5050505050611ce6565b600091505b50919050565b604051806060016040528060608152602001600015158152602001600081525090565b6000604051905090565b600080fd5b600080fd5b600080fd5b600080fd5b6000601f19601f8301169050919050565b7f4e487b7100000000000000000000000000000000000000000000000000000000600052604160045260246000fd5b611d7682611d2d565b810181811067ffffffffffffffff82111715611d9557611d94611d3e565b5b80604052505050565b6000611da8611d0f565b9050611db48282611d6d565b919050565b600067ffffffffffffffff821115611dd457611dd3611d3e565b5b611ddd82611d2d565b9050602081019050919050565b82818337600083830152505050565b6000611e0c611e0784611db9565b611d9e565b905082815260208101848484011115611e2857611e27611d28565b5b611e33848285611dea565b509392505050565b600082601f830112611e5057611e4f611d23565b5b8135611e60848260208601611df9565b91505092915050565b600067ffffffffffffffff821115611e8457611e83611d3e565b5b602082029050602081019050919050565b600080fd5b600067ffffffffffffffff821115611eb557611eb4611d3e565b5b602082029050602081019050919050565b6000611ed9611ed484611e9a565b611d9e565b90508083825260208201905060208402830185811115611efc57611efb611e95565b5b835b81811015611f4357803567ffffffffffffffff811115611f2157611f20611d23565b5b808601611f2e8982611e3b565b85526020850194505050602081019050611efe565b5050509392505050565b600082601f830112611f6257611f61611d23565b5b8135611f72848260208601611ec6565b91505092915050565b6000611f8e611f8984611e69565b611d9e565b90508083825260208201905060208402830185811115611fb157611fb0611e95565b5b835b81811015611ff857803567ffffffffffffffff811115611fd657611fd5611d23565b5b808601611fe38982611f4d565b85526020850194505050602081019050611fb3565b5050509392505050565b600082601f83011261201757612016611d23565b5b8135612027848260208601611f7b565b91505092915050565b600067ffffffffffffffff82111561204b5761204a611d3e565b5b602082029050602081019050919050565b600067ffffffffffffffff82111561207757612076611d3e565b5b61208082611d2d565b9050602081019050919050565b60006120a061209b8461205c565b611d9e565b9050828152602081018484840111156120bc576120bb611d28565b5b6120c7848285611dea565b509392505050565b600082601f8301126120e4576120e3611d23565b5b81356120f484826020860161208d565b91505092915050565b600061211061210b84612030565b611d9e565b9050808382526020820190506020840283018581111561213357612132611e95565b5b835b8181101561217a57803567ffffffffffffffff81111561215857612157611d23565b5b80860161216589826120cf565b85526020850194505050602081019050612135565b5050509392505050565b600082601f83011261219957612198611d23565b5b81356121a98482602086016120fd565b91505092915050565b600080600080600060a086880312156121ce576121cd611d19565b5b600086013567ffffffffffffffff8111156121ec576121eb611d1e565b5b6121f888828901611e3b565b955050602086013567ffffffffffffffff81111561221957612218611d1e565b5b61222588828901612002565b945050604086013567ffffffffffffffff81111561224657612245611d1e565b5b61225288828901612184565b935050606086013567ffffffffffffffff81111561227357612272611d1e565b5b61227f88828901611e3b565b925050608086013567ffffffffffffffff8111156122a05761229f611d1e565b5b6122ac88828901611e3b565b9150509295509295909350565b600081519050919050565b600082825260208201905092915050565b60005b838110156122f35780820151818401526020810190506122d8565b60008484015250505050565b600061230a826122b9565b61231481856122c4565b93506123248185602086016122d5565b61232d81611d2d565b840191505092915050565b600082825260208201905092915050565b6000612354826122b9565b61235e8185612338565b935061236e8185602086016122d5565b61237781611d2d565b840191505092915050565b60008115159050919050565b61239781612382565b82525050565b6000819050919050565b6123b08161239d565b82525050565b600060608301600083015184820360008601526123d38282612349565b91505060208301516123e8602086018261238e565b5060408301516123fb60408601826123a7565b508091505092915050565b6000604082019050818103600083015261242081856122ff565b9050818103602083015261243481846123b6565b90509392505050565b6000806040838503121561245457612453611d19565b5b600083013567ffffffffffffffff81111561247257612471611d1e565b5b61247e858286016120cf565b925050602083013567ffffffffffffffff81111561249f5761249e611d1e565b5b6124ab858286016120cf565b9150509250929050565b600060208201905081810360008301526124cf81846123b6565b905092915050565b6000806000606084860312156124f0576124ef611d19565b5b600084013567ffffffffffffffff81111561250e5761250d611d1e565b5b61251a868287016120cf565b935050602084013567ffffffffffffffff81111561253b5761253a611d1e565b5b612547868287016120cf565b925050604084013567ffffffffffffffff81111561256857612567611d1e565b5b612574868287016120cf565b9150509250925092565b61258781612382565b82525050565b60006020820190506125a2600083018461257e565b92915050565b6125b18161239d565b81146125bc57600080fd5b50565b6000813590506125ce816125a8565b92915050565b600073ffffffffffffffffffffffffffffffffffffffff82169050919050565b60006125ff826125d4565b9050919050565b61260f816125f4565b811461261a57600080fd5b50565b60008135905061262c81612606565b92915050565b60008060006060848603121561264b5761264a611d19565b5b600084013567ffffffffffffffff81111561266957612668611d1e565b5b61267586828701611e3b565b9350506020612686868287016125bf565b92505060406126978682870161261d565b9150509250925092565b6000819050919050565b6126b4816126a1565b82525050565b60006020820190506126cf60008301846126ab565b92915050565b600080fd5b600080fd5b6126e881612382565b81146126f357600080fd5b50565b600081359050612705816126df565b92915050565b600060608284031215612721576127206126d5565b5b61272b6060611d9e565b9050600082013567ffffffffffffffff81111561274b5761274a6126da565b5b612757848285016120cf565b600083015250602061276b848285016126f6565b602083015250604061277f848285016125bf565b60408301525092915050565b6000602082840312156127a1576127a0611d19565b5b600082013567ffffffffffffffff8111156127bf576127be611d1e565b5b6127cb8482850161270b565b91505092915050565b600067ffffffffffffffff8211156127ef576127ee611d3e565b5b602082029050602081019050919050565b600061281361280e846127d4565b611d9e565b9050808382526020820190506020840283018581111561283657612835611e95565b5b835b8181101561287d57803567ffffffffffffffff81111561285b5761285a611d23565b5b808601612868898261270b565b85526020850194505050602081019050612838565b5050509392505050565b600082601f83011261289c5761289b611d23565b5b81356128ac848260208601612800565b91505092915050565b6000806000606084860312156128ce576128cd611d19565b5b600084013567ffffffffffffffff8111156128ec576128eb611d1e565b5b6128f886828701612002565b935050602084013567ffffffffffffffff81111561291957612918611d1e565b5b61292586828701612887565b925050604084013567ffffffffffffffff81111561294657612945611d1e565b5b6129528682870161270b565b9150509250925092565b7f4e487b7100000000000000000000000000000000000000000000000000000000600052603260045260246000fd5b7f4e487b7100000000000000000000000000000000000000000000000000000000600052601160045260246000fd5b60006129c58261239d565b91507fffffffffffffffffffffffffffffffffffffffffffffffffffffffffffffffff82036129f7576129f661298b565b5b600182019050919050565b600081519050919050565b600081905092915050565b6000612a2382612a02565b612a2d8185612a0d565b9350612a3d8185602086016122d5565b80840191505092915050565b6000819050919050565b612a64612a5f8261239d565b612a49565b82525050565b60008160601b9050919050565b6000612a8282612a6a565b9050919050565b6000612a9482612a77565b9050919050565b612aac612aa7826125f4565b612a89565b82525050565b6000612abe8286612a18565b9150612aca8285612a53565b602082019150612ada8284612a9b565b601482019150819050949350505050565b600082825260208201905092915050565b6000612b0782612a02565b612b118185612aeb565b9350612b218185602086016122d5565b612b2a81611d2d565b840191505092915050565b612b3e8161239d565b82525050565b60006040820190508181036000830152612b5e8185612afc565b9050612b6d6020830184612b35565b9392505050565b6000612b7f8261239d565b9150612b8a8361239d565b9250828203905081811115612ba257612ba161298b565b5b92915050565b6000819050919050565b6000612bbd82612ba8565b9150612bc883612ba8565b9250828202612bd681612ba8565b91507f80000000000000000000000000000000000000000000000000000000000000008414600084121615612c0e57612c0d61298b565b5b8282058414831517612c2357612c2261298b565b5b5092915050565b6000612c358261239d565b9150612c408361239d565b9250828201905080821115612c5857612c5761298b565b5b9291505056fe6bd37cce7436ba529478c54d3969f91f6b807da4cb108d7359f2109eb322e5dde99c0c3dd5b7173b083cf254842c6bd1257eddd5308e3431c4ca97e2fb30a655b01b52aea181e1025e9d3df7082243d40e5486883d876e88c92bd0dad6febbf48b2e9e225129800000000000000000000000000000000000000000000000000000000000000000000000000000000000000000000000000000000000000000000000000000000000000000000000000000000000000000000000000000000001649420290310326129162254119500467218768306907220606612984880162663964403222012588101237853583864381409872326875081600491180970229675744463173478291577918876986852745897614703239499232282186868549690008488550391188447203873027812119950551634941227651863055020304956479547813767839418297240960317918869580828762285818584719361356117812685353478395099208868250134324510900053015712008969518882358040384736753124964380529663844689194972663272349191764266060135530497079bed733b48d69bdb03076cb17d9809072a5a765460bc72072d687dba492afe951d75b814f561f253ee5cc0f3d703b6eab5b5df635b03a5437c0a5c179309812f5b5c97650361c645bc99f806054de21eb187bc0a704ed38d3d4c2871a117c19b6da7e9a3d808481c46b22652d15b899ad3792da5419e50ee38759560002388a264697066735822122074088b23d7dea58501ba0fddad33099cd4b975dc019acdbac950a3f20390927a64736f6c63430008110033","opcodes":"PUSH1 0x80 PUSH1 0x40 MSTORE CALLVALUE DUP1 ISZERO PUSH2 0x10 JUMPI PUSH1 0x0 DUP1 REVERT JUMPDEST POP PUSH2 0x2EBB DUP1 PUSH2 0x20 PUSH1 0x0 CODECOPY PUSH1 0x0 RETURN INVALID PUSH1 0x80 PUSH1 0x40 MSTORE CALLVALUE DUP1 ISZERO PUSH2 0x10 JUMPI PUSH1 0x0 DUP1 REVERT JUMPDEST POP PUSH1 0x4 CALLDATASIZE LT PUSH2 0x88 JUMPI PUSH1 0x0 CALLDATALOAD PUSH1 0xE0 SHR DUP1 PUSH4 0x66E41CB7 GT PUSH2 0x5B JUMPI DUP1 PUSH4 0x66E41CB7 EQ PUSH2 0x14E JUMPI DUP1 PUSH4 0xD5F679B1 EQ PUSH2 0x16C JUMPI DUP1 PUSH4 0xE40D21C8 EQ PUSH2 0x19C JUMPI DUP1 PUSH4 0xF8A8FD6D EQ PUSH2 0x1CC JUMPI PUSH2 0x88 JUMP JUMPDEST DUP1 PUSH4 0x26080434 EQ PUSH2 0x8D JUMPI DUP1 PUSH4 0x3B007D8E EQ PUSH2 0xBE JUMPI DUP1 PUSH4 0x41A3AA0C EQ PUSH2 0xEE JUMPI DUP1 PUSH4 0x5DDA416E EQ PUSH2 0x11E JUMPI JUMPDEST PUSH1 0x0 DUP1 REVERT JUMPDEST PUSH2 0xA7 PUSH1 0x4 DUP1 CALLDATASIZE SUB DUP2 ADD SWAP1 PUSH2 0xA2 SWAP2 SWAP1 PUSH2 0x21B2 JUMP JUMPDEST PUSH2 0x1EA JUMP JUMPDEST PUSH1 0x40 MLOAD PUSH2 0xB5 SWAP3 SWAP2 SWAP1 PUSH2 0x2406 JUMP JUMPDEST PUSH1 0x40 MLOAD DUP1 SWAP2 SUB SWAP1 RETURN JUMPDEST PUSH2 0xD8 PUSH1 0x4 DUP1 CALLDATASIZE SUB DUP2 ADD SWAP1 PUSH2 0xD3 SWAP2 SWAP1 PUSH2 0x243D JUMP JUMPDEST PUSH2 0x4D0 JUMP JUMPDEST PUSH1 0x40 MLOAD PUSH2 0xE5 SWAP2 SWAP1 PUSH2 0x24B5 JUMP JUMPDEST PUSH1 0x40 MLOAD DUP1 SWAP2 SUB SWAP1 RETURN JUMPDEST PUSH2 0x108 PUSH1 0x4 DUP1 CALLDATASIZE SUB DUP2 ADD SWAP1 PUSH2 0x103 SWAP2 SWAP1 PUSH2 0x24D7 JUMP JUMPDEST PUSH2 0x4FE JUMP JUMPDEST PUSH1 0x40 MLOAD PUSH2 0x115 SWAP2 SWAP1 PUSH2 0x258D JUMP JUMPDEST PUSH1 0x40 MLOAD DUP1 SWAP2 SUB SWAP1 RETURN JUMPDEST PUSH2 0x138 PUSH1 0x4 DUP1 CALLDATASIZE SUB DUP2 ADD SWAP1 PUSH2 0x133 SWAP2 SWAP1 PUSH2 0x2632 JUMP JUMPDEST PUSH2 0x543 JUMP JUMPDEST PUSH1 0x40 MLOAD PUSH2 0x145 SWAP2 SWAP1 PUSH2 0x26BA JUMP JUMPDEST PUSH1 0x40 MLOAD DUP1 SWAP2 SUB SWAP1 RETURN JUMPDEST PUSH2 0x156 PUSH2 0x579 JUMP JUMPDEST PUSH1 0x40 MLOAD PUSH2 0x163 SWAP2 SWAP1 PUSH2 0x24B5 JUMP JUMPDEST PUSH1 0x40 MLOAD DUP1 SWAP2 SUB SWAP1 RETURN JUMPDEST PUSH2 0x186 PUSH1 0x4 DUP1 CALLDATASIZE SUB DUP2 ADD SWAP1 PUSH2 0x181 SWAP2 SWAP1 PUSH2 0x278B JUMP JUMPDEST PUSH2 0x685 JUMP JUMPDEST PUSH1 0x40 MLOAD PUSH2 0x193 SWAP2 SWAP1 PUSH2 0x24B5 JUMP JUMPDEST PUSH1 0x40 MLOAD DUP1 SWAP2 SUB SWAP1 RETURN JUMPDEST PUSH2 0x1B6 PUSH1 0x4 DUP1 CALLDATASIZE SUB DUP2 ADD SWAP1 PUSH2 0x1B1 SWAP2 SWAP1 PUSH2 0x28B5 JUMP JUMPDEST PUSH2 0x6F4 JUMP JUMPDEST PUSH1 0x40 MLOAD PUSH2 0x1C3 SWAP2 SWAP1 PUSH2 0x24B5 JUMP JUMPDEST PUSH1 0x40 MLOAD DUP1 SWAP2 SUB SWAP1 RETURN JUMPDEST PUSH2 0x1D4 PUSH2 0x897 JUMP JUMPDEST PUSH1 0x40 MLOAD PUSH2 0x1E1 SWAP2 SWAP1 PUSH2 0x24B5 JUMP JUMPDEST PUSH1 0x40 MLOAD DUP1 SWAP2 SUB SWAP1 RETURN JUMPDEST PUSH1 0x60 PUSH2 0x1F4 PUSH2 0x1CEC JUMP JUMPDEST PUSH1 0x0 PUSH2 0x201 DUP9 PUSH1 0x0 PUSH2 0x9A2 JUMP JUMPDEST SWAP1 POP PUSH1 0x0 PUSH2 0x210 DUP6 PUSH1 0x0 PUSH2 0x9A2 JUMP JUMPDEST SWAP1 POP PUSH1 0x0 PUSH2 0x227 DUP3 DUP4 PUSH2 0x9BE SWAP1 SWAP2 SWAP1 PUSH4 0xFFFFFFFF AND JUMP JUMPDEST SWAP1 POP PUSH1 0x0 DUP9 MLOAD PUSH8 0xFFFFFFFFFFFFFFFF DUP2 GT ISZERO PUSH2 0x246 JUMPI PUSH2 0x245 PUSH2 0x1D3E JUMP JUMPDEST JUMPDEST PUSH1 0x40 MLOAD SWAP1 DUP1 DUP3 MSTORE DUP1 PUSH1 0x20 MUL PUSH1 0x20 ADD DUP3 ADD PUSH1 0x40 MSTORE DUP1 ISZERO PUSH2 0x27F JUMPI DUP2 PUSH1 0x20 ADD JUMPDEST PUSH2 0x26C PUSH2 0x1CEC JUMP JUMPDEST DUP2 MSTORE PUSH1 0x20 ADD SWAP1 PUSH1 0x1 SWAP1 SUB SWAP1 DUP2 PUSH2 0x264 JUMPI SWAP1 POP JUMPDEST POP SWAP1 POP PUSH1 0x0 JUMPDEST DUP10 MLOAD DUP2 LT ISZERO PUSH2 0x2FE JUMPI PUSH1 0x0 PUSH2 0x2C9 PUSH2 0x2B8 DUP13 DUP5 DUP2 MLOAD DUP2 LT PUSH2 0x2A9 JUMPI PUSH2 0x2A8 PUSH2 0x295C JUMP JUMPDEST JUMPDEST PUSH1 0x20 MUL PUSH1 0x20 ADD ADD MLOAD PUSH1 0x0 PUSH2 0x9A2 JUMP JUMPDEST DUP6 DUP9 PUSH2 0xA63 SWAP1 SWAP3 SWAP2 SWAP1 PUSH4 0xFFFFFFFF AND JUMP JUMPDEST SWAP1 POP DUP1 DUP4 DUP4 DUP2 MLOAD DUP2 LT PUSH2 0x2DF JUMPI PUSH2 0x2DE PUSH2 0x295C JUMP JUMPDEST JUMPDEST PUSH1 0x20 MUL PUSH1 0x20 ADD ADD DUP2 SWAP1 MSTORE POP POP DUP1 DUP1 PUSH2 0x2F6 SWAP1 PUSH2 0x29BA JUMP JUMPDEST SWAP2 POP POP PUSH2 0x285 JUMP JUMPDEST POP PUSH1 0x0 PUSH2 0x309 PUSH2 0xA87 JUMP JUMPDEST SWAP1 POP PUSH1 0x0 JUMPDEST DUP12 PUSH1 0x0 DUP2 MLOAD DUP2 LT PUSH2 0x322 JUMPI PUSH2 0x321 PUSH2 0x295C JUMP JUMPDEST JUMPDEST PUSH1 0x20 MUL PUSH1 0x20 ADD ADD MLOAD MLOAD DUP2 LT ISZERO PUSH2 0x40E JUMPI PUSH1 0x0 PUSH2 0x374 DUP14 PUSH1 0x0 DUP2 MLOAD DUP2 LT PUSH2 0x34B JUMPI PUSH2 0x34A PUSH2 0x295C JUMP JUMPDEST JUMPDEST PUSH1 0x20 MUL PUSH1 0x20 ADD ADD MLOAD DUP4 DUP2 MLOAD DUP2 LT PUSH2 0x365 JUMPI PUSH2 0x364 PUSH2 0x295C JUMP JUMPDEST JUMPDEST PUSH1 0x20 MUL PUSH1 0x20 ADD ADD MLOAD PUSH1 0x0 PUSH2 0x9A2 JUMP JUMPDEST SWAP1 POP PUSH1 0x0 DUP3 SUB PUSH2 0x3D3 JUMPI PUSH2 0x3D0 DUP7 PUSH2 0x3C2 DUP16 PUSH1 0x0 DUP2 MLOAD DUP2 LT PUSH2 0x399 JUMPI PUSH2 0x398 PUSH2 0x295C JUMP JUMPDEST JUMPDEST PUSH1 0x20 MUL PUSH1 0x20 ADD ADD MLOAD DUP6 DUP2 MLOAD DUP2 LT PUSH2 0x3B3 JUMPI PUSH2 0x3B2 PUSH2 0x295C JUMP JUMPDEST JUMPDEST PUSH1 0x20 MUL PUSH1 0x20 ADD ADD MLOAD PUSH1 0x1 PUSH2 0x9A2 JUMP JUMPDEST PUSH2 0xAC9 SWAP1 SWAP2 SWAP1 PUSH4 0xFFFFFFFF AND JUMP JUMPDEST SWAP3 POP JUMPDEST PUSH2 0x3F8 DUP7 PUSH2 0x3EA DUP4 DUP7 PUSH2 0xAEB SWAP1 SWAP2 SWAP1 PUSH4 0xFFFFFFFF AND JUMP JUMPDEST PUSH2 0xAC9 SWAP1 SWAP2 SWAP1 PUSH4 0xFFFFFFFF AND JUMP JUMPDEST SWAP3 POP POP DUP1 DUP1 PUSH2 0x406 SWAP1 PUSH2 0x29BA JUMP JUMPDEST SWAP2 POP POP PUSH2 0x30E JUMP JUMPDEST POP PUSH2 0x42C PUSH2 0x41D DUP11 PUSH1 0x0 PUSH2 0x9A2 JUMP JUMPDEST DUP3 PUSH2 0xD13 SWAP1 SWAP2 SWAP1 PUSH4 0xFFFFFFFF AND JUMP JUMPDEST PUSH2 0x4C0 JUMPI PUSH2 0x470 PUSH1 0x40 MLOAD DUP1 PUSH1 0x40 ADD PUSH1 0x40 MSTORE DUP1 PUSH1 0x6 DUP2 MSTORE PUSH1 0x20 ADD PUSH32 0x6C656E6774680000000000000000000000000000000000000000000000000000 DUP2 MSTORE POP DUP14 MLOAD PUSH2 0xD3F JUMP JUMPDEST DUP12 PUSH2 0x4B2 DUP13 PUSH1 0x0 DUP2 MLOAD DUP2 LT PUSH2 0x488 JUMPI PUSH2 0x487 PUSH2 0x295C JUMP JUMPDEST JUMPDEST PUSH1 0x20 MUL PUSH1 0x20 ADD ADD MLOAD PUSH1 0x0 DUP2 MLOAD DUP2 LT PUSH2 0x4A3 JUMPI PUSH2 0x4A2 PUSH2 0x295C JUMP JUMPDEST JUMPDEST PUSH1 0x20 MUL PUSH1 0x20 ADD ADD MLOAD PUSH1 0x1 PUSH2 0x9A2 JUMP JUMPDEST SWAP7 POP SWAP7 POP POP POP POP POP POP PUSH2 0x4C6 JUMP JUMPDEST POP POP POP POP POP JUMPDEST SWAP6 POP SWAP6 SWAP4 POP POP POP POP JUMP JUMPDEST PUSH2 0x4D8 PUSH2 0x1CEC JUMP JUMPDEST PUSH2 0x4F6 PUSH2 0x4E6 DUP5 PUSH1 0x0 PUSH2 0x9A2 JUMP JUMPDEST PUSH2 0x4F1 DUP5 PUSH1 0x0 PUSH2 0x9A2 JUMP JUMPDEST PUSH2 0xAEB JUMP JUMPDEST SWAP1 POP SWAP3 SWAP2 POP POP JUMP JUMPDEST PUSH1 0x0 DUP1 PUSH2 0x50C DUP6 PUSH1 0x0 PUSH2 0x9A2 JUMP JUMPDEST SWAP1 POP PUSH1 0x0 PUSH2 0x51B DUP6 PUSH1 0x0 PUSH2 0x9A2 JUMP JUMPDEST SWAP1 POP PUSH1 0x0 PUSH2 0x52A DUP6 PUSH1 0x0 PUSH2 0x9A2 JUMP JUMPDEST SWAP1 POP PUSH2 0x537 DUP4 DUP4 DUP4 PUSH2 0xDDB JUMP JUMPDEST SWAP4 POP POP POP POP SWAP4 SWAP3 POP POP POP JUMP JUMPDEST PUSH1 0x0 DUP4 DUP4 DUP4 PUSH1 0x40 MLOAD PUSH1 0x20 ADD PUSH2 0x55A SWAP4 SWAP3 SWAP2 SWAP1 PUSH2 0x2AB2 JUMP JUMPDEST PUSH1 0x40 MLOAD PUSH1 0x20 DUP2 DUP4 SUB SUB DUP2 MSTORE SWAP1 PUSH1 0x40 MSTORE DUP1 MLOAD SWAP1 PUSH1 0x20 ADD KECCAK256 SWAP1 POP SWAP4 SWAP3 POP POP POP JUMP JUMPDEST PUSH2 0x581 PUSH2 0x1CEC JUMP JUMPDEST PUSH1 0x0 PUSH1 0x40 MLOAD DUP1 PUSH1 0x40 ADD PUSH1 0x40 MSTORE DUP1 PUSH1 0xB DUP2 MSTORE PUSH1 0x20 ADD PUSH32 0x68656C6C6F20776F726C64000000000000000000000000000000000000000000 DUP2 MSTORE POP SWAP1 POP PUSH1 0x0 PUSH2 0x5E9 PUSH1 0x0 PUSH1 0x40 MLOAD DUP1 PUSH1 0xA0 ADD PUSH1 0x40 MSTORE DUP1 PUSH1 0x80 DUP2 MSTORE PUSH1 0x20 ADD PUSH2 0x2E06 PUSH1 0x80 SWAP2 CODECOPY PUSH2 0x9A2 SWAP1 SWAP2 SWAP1 PUSH4 0xFFFFFFFF AND JUMP JUMPDEST SWAP1 POP PUSH1 0x0 PUSH2 0x636 PUSH1 0x0 PUSH1 0x40 MLOAD DUP1 PUSH1 0x40 ADD PUSH1 0x40 MSTORE DUP1 PUSH1 0x3 DUP2 MSTORE PUSH1 0x20 ADD PUSH32 0x100010000000000000000000000000000000000000000000000000000000000 DUP2 MSTORE POP PUSH2 0x9A2 SWAP1 SWAP2 SWAP1 PUSH4 0xFFFFFFFF AND JUMP JUMPDEST SWAP1 POP PUSH1 0x0 PUSH2 0x667 PUSH1 0x0 PUSH1 0x40 MLOAD DUP1 PUSH2 0x120 ADD PUSH1 0x40 MSTORE DUP1 PUSH1 0xE7 DUP2 MSTORE PUSH1 0x20 ADD PUSH2 0x2D1F PUSH1 0xE7 SWAP2 CODECOPY PUSH2 0x9A2 SWAP1 SWAP2 SWAP1 PUSH4 0xFFFFFFFF AND JUMP JUMPDEST SWAP1 POP PUSH2 0x67C DUP2 DUP5 PUSH2 0xAEB SWAP1 SWAP2 SWAP1 PUSH4 0xFFFFFFFF AND JUMP JUMPDEST SWAP5 POP POP POP POP POP SWAP1 JUMP JUMPDEST PUSH2 0x68D PUSH2 0x1CEC JUMP JUMPDEST PUSH1 0x0 PUSH2 0x6D7 PUSH1 0x0 PUSH1 0x40 MLOAD DUP1 PUSH1 0x40 ADD PUSH1 0x40 MSTORE DUP1 PUSH1 0x2 DUP2 MSTORE PUSH1 0x20 ADD PUSH31 0x1000000000000000000000000000000000000000000000000000000000000 DUP2 MSTORE POP PUSH2 0x9A2 SWAP1 SWAP2 SWAP1 PUSH4 0xFFFFFFFF AND JUMP JUMPDEST SWAP1 POP PUSH2 0x6EC DUP2 DUP5 PUSH2 0xAEB SWAP1 SWAP2 SWAP1 PUSH4 0xFFFFFFFF AND JUMP JUMPDEST SWAP2 POP POP SWAP2 SWAP1 POP JUMP JUMPDEST PUSH2 0x6FC PUSH2 0x1CEC JUMP JUMPDEST PUSH1 0x0 PUSH2 0x711 DUP4 DUP5 PUSH2 0x9BE SWAP1 SWAP2 SWAP1 PUSH4 0xFFFFFFFF AND JUMP JUMPDEST SWAP1 POP PUSH1 0x0 DUP6 PUSH1 0x2 DUP2 MLOAD DUP2 LT PUSH2 0x729 JUMPI PUSH2 0x728 PUSH2 0x295C JUMP JUMPDEST JUMPDEST PUSH1 0x20 MUL PUSH1 0x20 ADD ADD MLOAD MLOAD DUP2 LT ISZERO PUSH2 0x88D JUMPI PUSH1 0x0 PUSH2 0x77B DUP8 PUSH1 0x2 DUP2 MLOAD DUP2 LT PUSH2 0x752 JUMPI PUSH2 0x751 PUSH2 0x295C JUMP JUMPDEST JUMPDEST PUSH1 0x20 MUL PUSH1 0x20 ADD ADD MLOAD DUP4 DUP2 MLOAD DUP2 LT PUSH2 0x76C JUMPI PUSH2 0x76B PUSH2 0x295C JUMP JUMPDEST JUMPDEST PUSH1 0x20 MUL PUSH1 0x20 ADD ADD MLOAD PUSH1 0x0 PUSH2 0x9A2 JUMP JUMPDEST SWAP1 POP PUSH1 0x0 PUSH2 0x7BF DUP9 PUSH1 0x1 DUP2 MLOAD DUP2 LT PUSH2 0x796 JUMPI PUSH2 0x795 PUSH2 0x295C JUMP JUMPDEST JUMPDEST PUSH1 0x20 MUL PUSH1 0x20 ADD ADD MLOAD DUP5 DUP2 MLOAD DUP2 LT PUSH2 0x7B0 JUMPI PUSH2 0x7AF PUSH2 0x295C JUMP JUMPDEST JUMPDEST PUSH1 0x20 MUL PUSH1 0x20 ADD ADD MLOAD PUSH1 0x0 PUSH2 0x9A2 JUMP JUMPDEST SWAP1 POP PUSH1 0x0 PUSH2 0x803 DUP10 PUSH1 0x0 DUP2 MLOAD DUP2 LT PUSH2 0x7DA JUMPI PUSH2 0x7D9 PUSH2 0x295C JUMP JUMPDEST JUMPDEST PUSH1 0x20 MUL PUSH1 0x20 ADD ADD MLOAD DUP6 DUP2 MLOAD DUP2 LT PUSH2 0x7F4 JUMPI PUSH2 0x7F3 PUSH2 0x295C JUMP JUMPDEST JUMPDEST PUSH1 0x20 MUL PUSH1 0x20 ADD ADD MLOAD PUSH1 0x0 PUSH2 0x9A2 JUMP JUMPDEST SWAP1 POP PUSH1 0x0 DUP5 SUB PUSH2 0x850 JUMPI PUSH2 0x84D DUP10 PUSH1 0x0 DUP2 MLOAD DUP2 LT PUSH2 0x824 JUMPI PUSH2 0x823 PUSH2 0x295C JUMP JUMPDEST JUMPDEST PUSH1 0x20 MUL PUSH1 0x20 ADD ADD MLOAD DUP6 DUP2 MLOAD DUP2 LT PUSH2 0x83E JUMPI PUSH2 0x83D PUSH2 0x295C JUMP JUMPDEST JUMPDEST PUSH1 0x20 MUL PUSH1 0x20 ADD ADD MLOAD PUSH1 0x0 PUSH2 0x9A2 JUMP JUMPDEST SWAP1 POP JUMPDEST PUSH1 0x0 DUP9 DUP6 DUP2 MLOAD DUP2 LT PUSH2 0x865 JUMPI PUSH2 0x864 PUSH2 0x295C JUMP JUMPDEST JUMPDEST PUSH1 0x20 MUL PUSH1 0x20 ADD ADD MLOAD SWAP1 POP PUSH1 0x0 PUSH2 0x87C DUP3 DUP5 DUP10 PUSH2 0xE2E JUMP JUMPDEST SWAP1 POP DUP1 SWAP8 POP POP POP POP POP POP POP POP PUSH2 0x890 JUMP JUMPDEST POP POP JUMPDEST SWAP4 SWAP3 POP POP POP JUMP JUMPDEST PUSH2 0x89F PUSH2 0x1CEC JUMP JUMPDEST PUSH1 0x0 PUSH1 0x40 MLOAD DUP1 PUSH1 0x40 ADD PUSH1 0x40 MSTORE DUP1 PUSH1 0xB DUP2 MSTORE PUSH1 0x20 ADD PUSH32 0x68656C6C6F20776F726C64000000000000000000000000000000000000000000 DUP2 MSTORE POP SWAP1 POP PUSH1 0x0 PUSH2 0x907 PUSH1 0x0 PUSH1 0x40 MLOAD DUP1 PUSH1 0xA0 ADD PUSH1 0x40 MSTORE DUP1 PUSH1 0x80 DUP2 MSTORE PUSH1 0x20 ADD PUSH2 0x2E06 PUSH1 0x80 SWAP2 CODECOPY PUSH2 0x9A2 SWAP1 SWAP2 SWAP1 PUSH4 0xFFFFFFFF AND JUMP JUMPDEST SWAP1 POP PUSH1 0x0 PUSH2 0x954 PUSH1 0x0 PUSH1 0x40 MLOAD DUP1 PUSH1 0x40 ADD PUSH1 0x40 MSTORE DUP1 PUSH1 0x3 DUP2 MSTORE PUSH1 0x20 ADD PUSH32 0x100010000000000000000000000000000000000000000000000000000000000 DUP2 MSTORE POP PUSH2 0x9A2 SWAP1 SWAP2 SWAP1 PUSH4 0xFFFFFFFF AND JUMP JUMPDEST SWAP1 POP PUSH1 0x0 PUSH2 0x984 PUSH1 0x0 PUSH1 0x40 MLOAD DUP1 PUSH1 0xE0 ADD PUSH1 0x40 MSTORE DUP1 PUSH1 0xC0 DUP2 MSTORE PUSH1 0x20 ADD PUSH2 0x2C5F PUSH1 0xC0 SWAP2 CODECOPY PUSH2 0x9A2 SWAP1 SWAP2 SWAP1 PUSH4 0xFFFFFFFF AND JUMP JUMPDEST SWAP1 POP PUSH2 0x999 DUP2 DUP5 PUSH2 0xAEB SWAP1 SWAP2 SWAP1 PUSH4 0xFFFFFFFF AND JUMP JUMPDEST SWAP5 POP POP POP POP POP SWAP1 JUMP JUMPDEST PUSH2 0x9AA PUSH2 0x1CEC JUMP JUMPDEST PUSH2 0x9B6 DUP4 DUP4 PUSH1 0x0 PUSH2 0xF2B JUMP JUMPDEST SWAP1 POP SWAP3 SWAP2 POP POP JUMP JUMPDEST PUSH2 0x9C6 PUSH2 0x1CEC JUMP JUMPDEST PUSH1 0x0 PUSH2 0x9D2 DUP5 DUP5 PUSH2 0xAEB JUMP JUMPDEST SWAP1 POP PUSH1 0x0 PUSH2 0x9F2 DUP3 PUSH2 0x9E2 PUSH2 0xFF8 JUMP JUMPDEST PUSH2 0x9ED DUP6 PUSH1 0x2 PUSH2 0x103A JUMP JUMPDEST PUSH2 0xE2E JUMP JUMPDEST SWAP1 POP PUSH2 0x9FE DUP6 DUP6 PUSH2 0xD13 JUMP JUMPDEST PUSH2 0xA4D JUMPI PUSH1 0x0 PUSH2 0xA0E DUP7 DUP7 PUSH2 0x10B6 JUMP JUMPDEST SWAP1 POP PUSH1 0x0 PUSH2 0xA2E DUP3 PUSH2 0xA1E PUSH2 0xFF8 JUMP JUMPDEST PUSH2 0xA29 DUP6 PUSH1 0x2 PUSH2 0x103A JUMP JUMPDEST PUSH2 0xE2E JUMP JUMPDEST SWAP1 POP PUSH2 0xA44 PUSH2 0xA3D DUP5 DUP4 PUSH2 0x10B6 JUMP JUMPDEST PUSH1 0x2 PUSH2 0x1305 JUMP JUMPDEST SWAP5 POP POP POP PUSH2 0xA5B JUMP JUMPDEST PUSH2 0xA58 DUP2 PUSH1 0x2 PUSH2 0x1305 JUMP JUMPDEST SWAP3 POP JUMPDEST POP POP SWAP3 SWAP2 POP POP JUMP JUMPDEST PUSH2 0xA6B PUSH2 0x1CEC JUMP JUMPDEST PUSH2 0xA7E PUSH2 0xA78 DUP6 DUP6 PUSH2 0x9BE JUMP JUMPDEST DUP4 PUSH2 0xAC9 JUMP JUMPDEST SWAP1 POP SWAP4 SWAP3 POP POP POP JUMP JUMPDEST PUSH2 0xA8F PUSH2 0x1CEC JUMP JUMPDEST PUSH1 0x40 MLOAD DUP1 PUSH1 0x60 ADD PUSH1 0x40 MSTORE DUP1 PUSH1 0x40 MLOAD DUP1 PUSH1 0x40 ADD PUSH1 0x40 MSTORE DUP1 PUSH1 0x20 DUP2 MSTORE PUSH1 0x20 ADD PUSH1 0x0 DUP2 MSTORE POP DUP2 MSTORE PUSH1 0x20 ADD PUSH1 0x0 ISZERO ISZERO DUP2 MSTORE PUSH1 0x20 ADD PUSH1 0x0 DUP2 MSTORE POP SWAP1 POP SWAP1 JUMP JUMPDEST PUSH2 0xAD1 PUSH2 0x1CEC JUMP JUMPDEST PUSH2 0xAE3 DUP4 PUSH2 0xADD PUSH2 0x1467 JUMP JUMPDEST DUP5 PUSH2 0xE2E JUMP JUMPDEST SWAP1 POP SWAP3 SWAP2 POP POP JUMP JUMPDEST PUSH2 0xAF3 PUSH2 0x1CEC JUMP JUMPDEST PUSH1 0x0 DUP4 PUSH1 0x40 ADD MLOAD EQ DUP1 ISZERO PUSH2 0xB0B JUMPI POP PUSH1 0x0 DUP3 PUSH1 0x40 ADD MLOAD EQ JUMPDEST ISZERO PUSH2 0xB1F JUMPI PUSH2 0xB18 PUSH2 0xA87 JUMP JUMPDEST SWAP1 POP PUSH2 0xD0D JUMP JUMPDEST PUSH1 0x0 DUP4 PUSH1 0x40 ADD MLOAD SUB PUSH2 0xB33 JUMPI DUP2 SWAP1 POP PUSH2 0xD0D JUMP JUMPDEST PUSH1 0x0 DUP3 PUSH1 0x40 ADD MLOAD SUB PUSH2 0xB47 JUMPI DUP3 SWAP1 POP PUSH2 0xD0D JUMP JUMPDEST PUSH1 0x60 PUSH1 0x0 DUP1 PUSH2 0xB58 DUP7 DUP7 PUSH1 0x0 PUSH2 0x14A9 JUMP JUMPDEST SWAP1 POP DUP6 PUSH1 0x20 ADD MLOAD DUP1 PUSH2 0xB6B JUMPI POP DUP5 PUSH1 0x20 ADD MLOAD JUMPDEST ISZERO PUSH2 0xC98 JUMPI DUP6 PUSH1 0x20 ADD MLOAD DUP1 ISZERO PUSH2 0xB82 JUMPI POP DUP5 PUSH1 0x20 ADD MLOAD JUMPDEST ISZERO PUSH2 0xBE9 JUMPI PUSH1 0x0 DUP2 SLT PUSH2 0xBB3 JUMPI PUSH2 0xBA6 DUP7 PUSH1 0x0 ADD MLOAD DUP7 PUSH1 0x0 ADD MLOAD DUP9 PUSH1 0x40 ADD MLOAD PUSH2 0x1686 JUMP JUMPDEST DUP1 SWAP4 POP DUP2 SWAP5 POP POP POP PUSH2 0xBD3 JUMP JUMPDEST PUSH2 0xBCA DUP6 PUSH1 0x0 ADD MLOAD DUP8 PUSH1 0x0 ADD MLOAD DUP8 PUSH1 0x40 ADD MLOAD PUSH2 0x1686 JUMP JUMPDEST DUP1 SWAP4 POP DUP2 SWAP5 POP POP POP JUMPDEST PUSH1 0x1 DUP5 PUSH1 0x20 ADD SWAP1 ISZERO ISZERO SWAP1 DUP2 ISZERO ISZERO DUP2 MSTORE POP POP PUSH2 0xC93 JUMP JUMPDEST PUSH1 0x1 DUP2 SUB PUSH2 0xC24 JUMPI PUSH2 0xC03 DUP7 PUSH1 0x0 ADD MLOAD DUP7 PUSH1 0x0 ADD MLOAD PUSH2 0x17BC JUMP JUMPDEST DUP1 SWAP4 POP DUP2 SWAP5 POP POP POP DUP6 PUSH1 0x20 ADD MLOAD DUP5 PUSH1 0x20 ADD SWAP1 ISZERO ISZERO SWAP1 DUP2 ISZERO ISZERO DUP2 MSTORE POP POP PUSH2 0xC92 JUMP JUMPDEST PUSH32 0xFFFFFFFFFFFFFFFFFFFFFFFFFFFFFFFFFFFFFFFFFFFFFFFFFFFFFFFFFFFFFFFF DUP2 SUB PUSH2 0xC7F JUMPI PUSH2 0xC5D DUP6 PUSH1 0x0 ADD MLOAD DUP8 PUSH1 0x0 ADD MLOAD PUSH2 0x17BC JUMP JUMPDEST DUP1 SWAP4 POP DUP2 SWAP5 POP POP POP DUP6 PUSH1 0x20 ADD MLOAD ISZERO DUP5 PUSH1 0x20 ADD SWAP1 ISZERO ISZERO SWAP1 DUP2 ISZERO ISZERO DUP2 MSTORE POP POP PUSH2 0xC91 JUMP JUMPDEST PUSH2 0xC87 PUSH2 0xA87 JUMP JUMPDEST SWAP4 POP POP POP POP PUSH2 0xD0D JUMP JUMPDEST JUMPDEST JUMPDEST PUSH2 0xCF6 JUMP JUMPDEST PUSH1 0x0 DUP2 SLT PUSH2 0xCC4 JUMPI PUSH2 0xCB7 DUP7 PUSH1 0x0 ADD MLOAD DUP7 PUSH1 0x0 ADD MLOAD DUP9 PUSH1 0x40 ADD MLOAD PUSH2 0x1686 JUMP JUMPDEST DUP1 SWAP4 POP DUP2 SWAP5 POP POP POP PUSH2 0xCE4 JUMP JUMPDEST PUSH2 0xCDB DUP6 PUSH1 0x0 ADD MLOAD DUP8 PUSH1 0x0 ADD MLOAD DUP8 PUSH1 0x40 ADD MLOAD PUSH2 0x1686 JUMP JUMPDEST DUP1 SWAP4 POP DUP2 SWAP5 POP POP POP JUMPDEST PUSH1 0x0 DUP5 PUSH1 0x20 ADD SWAP1 ISZERO ISZERO SWAP1 DUP2 ISZERO ISZERO DUP2 MSTORE POP POP JUMPDEST DUP3 DUP5 PUSH1 0x0 ADD DUP2 SWAP1 MSTORE POP DUP2 DUP5 PUSH1 0x40 ADD DUP2 DUP2 MSTORE POP POP POP POP POP JUMPDEST SWAP3 SWAP2 POP POP JUMP JUMPDEST PUSH1 0x0 DUP1 PUSH2 0xD22 DUP5 DUP5 PUSH1 0x1 PUSH2 0x14A9 JUMP JUMPDEST SWAP1 POP PUSH1 0x0 DUP2 EQ PUSH2 0xD33 JUMPI PUSH1 0x0 PUSH2 0xD36 JUMP JUMPDEST PUSH1 0x1 JUMPDEST SWAP2 POP POP SWAP3 SWAP2 POP POP JUMP JUMPDEST PUSH2 0xDD7 DUP3 DUP3 PUSH1 0x40 MLOAD PUSH1 0x24 ADD PUSH2 0xD55 SWAP3 SWAP2 SWAP1 PUSH2 0x2B44 JUMP JUMPDEST PUSH1 0x40 MLOAD PUSH1 0x20 DUP2 DUP4 SUB SUB DUP2 MSTORE SWAP1 PUSH1 0x40 MSTORE PUSH32 0xB60E72CC00000000000000000000000000000000000000000000000000000000 PUSH28 0xFFFFFFFFFFFFFFFFFFFFFFFFFFFFFFFFFFFFFFFFFFFFFFFFFFFFFFFF NOT AND PUSH1 0x20 DUP3 ADD DUP1 MLOAD PUSH28 0xFFFFFFFFFFFFFFFFFFFFFFFFFFFFFFFFFFFFFFFFFFFFFFFFFFFFFFFF DUP4 DUP2 DUP4 AND OR DUP4 MSTORE POP POP POP POP PUSH2 0x18E7 JUMP JUMPDEST POP POP JUMP JUMPDEST PUSH1 0x0 DUP4 PUSH1 0x20 ADD MLOAD ISZERO DUP1 ISZERO PUSH2 0xDF1 JUMPI POP DUP3 PUSH1 0x20 ADD MLOAD ISZERO JUMPDEST PUSH2 0xDFA JUMPI PUSH1 0x0 DUP1 REVERT JUMPDEST PUSH1 0x0 PUSH2 0xE19 PUSH2 0xE0A DUP7 DUP6 DUP8 PUSH2 0xA63 JUMP JUMPDEST PUSH2 0xE12 PUSH2 0x1467 JUMP JUMPDEST PUSH1 0x1 PUSH2 0x14A9 JUMP JUMPDEST EQ PUSH2 0xE23 JUMPI PUSH1 0x0 DUP1 REVERT JUMPDEST PUSH1 0x1 SWAP1 POP SWAP4 SWAP3 POP POP POP JUMP JUMPDEST PUSH2 0xE36 PUSH2 0x1CEC JUMP JUMPDEST PUSH1 0x0 ISZERO ISZERO DUP4 PUSH1 0x20 ADD MLOAD ISZERO ISZERO EQ DUP1 ISZERO PUSH2 0xE56 JUMPI POP PUSH1 0x0 ISZERO ISZERO DUP3 PUSH1 0x20 ADD MLOAD ISZERO ISZERO EQ JUMPDEST DUP1 ISZERO PUSH2 0xE6C JUMPI POP PUSH2 0xE6A DUP3 PUSH1 0x0 ADD MLOAD PUSH2 0x1910 JUMP JUMPDEST ISZERO JUMPDEST PUSH2 0xE75 JUMPI PUSH1 0x0 DUP1 REVERT JUMPDEST PUSH1 0x0 PUSH2 0xE8E DUP6 PUSH1 0x0 ADD MLOAD DUP6 PUSH1 0x0 ADD MLOAD DUP6 PUSH1 0x0 ADD MLOAD PUSH2 0x1967 JUMP JUMPDEST SWAP1 POP PUSH1 0x0 PUSH2 0xE9B DUP3 PUSH2 0x1A41 JUMP JUMPDEST SWAP1 POP PUSH1 0x0 DUP2 SUB PUSH2 0xEB6 JUMPI PUSH2 0xEAD PUSH2 0xA87 JUMP JUMPDEST SWAP3 POP POP POP PUSH2 0xF24 JUMP JUMPDEST DUP6 PUSH1 0x20 ADD MLOAD DUP1 ISZERO PUSH2 0xECC JUMPI POP PUSH2 0xECB DUP6 PUSH2 0x1A81 JUMP JUMPDEST JUMPDEST ISZERO PUSH2 0xF01 JUMPI PUSH2 0xEF8 PUSH1 0x40 MLOAD DUP1 PUSH1 0x60 ADD PUSH1 0x40 MSTORE DUP1 DUP5 DUP2 MSTORE PUSH1 0x20 ADD PUSH1 0x1 ISZERO ISZERO DUP2 MSTORE PUSH1 0x20 ADD DUP4 DUP2 MSTORE POP DUP6 PUSH2 0xAEB JUMP JUMPDEST SWAP3 POP POP POP PUSH2 0xF24 JUMP JUMPDEST PUSH1 0x40 MLOAD DUP1 PUSH1 0x60 ADD PUSH1 0x40 MSTORE DUP1 DUP4 DUP2 MSTORE PUSH1 0x20 ADD PUSH1 0x0 ISZERO ISZERO DUP2 MSTORE PUSH1 0x20 ADD DUP3 DUP2 MSTORE POP SWAP3 POP POP POP JUMPDEST SWAP4 SWAP3 POP POP POP JUMP JUMPDEST PUSH2 0xF33 PUSH2 0x1CEC JUMP JUMPDEST PUSH1 0x20 DUP5 ADD DUP5 MLOAD PUSH1 0x0 MSIZE PUSH1 0x0 PUSH1 0x20 DUP5 MOD EQ PUSH1 0x1 DUP2 EQ PUSH2 0xF65 JUMPI PUSH1 0x20 DUP5 MOD PUSH1 0x20 SUB PUSH1 0x20 DUP2 DUP5 ADD ADD SWAP4 POP DUP1 DUP6 ADD DUP4 MSTORE POP PUSH2 0xF6F JUMP JUMPDEST PUSH1 0x20 DUP3 ADD SWAP3 POP DUP4 DUP3 MSTORE JUMPDEST POP DUP3 DUP3 DUP5 DUP7 PUSH1 0x4 PUSH2 0x1C2 STATICCALL POP PUSH1 0x20 DUP2 MLOAD ADD DUP2 ADD PUSH1 0x40 MSTORE DUP1 MLOAD JUMPDEST PUSH1 0x0 PUSH1 0x20 DUP3 EQ SUB PUSH2 0xFBB JUMPI PUSH1 0x0 PUSH1 0x20 DUP4 ADD MLOAD EQ PUSH1 0x1 DUP2 EQ PUSH2 0xFA9 JUMPI POP PUSH2 0xFBB JUMP JUMPDEST PUSH1 0x20 DUP4 ADD SWAP3 POP POP PUSH1 0x20 DUP2 SUB SWAP1 POP PUSH2 0xF88 JUMP JUMPDEST DUP1 DUP3 MSTORE DUP2 DUP7 MSTORE DUP8 PUSH1 0x20 DUP8 ADD MSTORE POP POP POP POP POP PUSH1 0x0 DUP3 EQ PUSH2 0xFDA JUMPI DUP2 PUSH2 0xFE8 JUMP JUMPDEST PUSH2 0xFE7 DUP2 PUSH1 0x0 ADD MLOAD PUSH2 0x1A41 JUMP JUMPDEST JUMPDEST DUP2 PUSH1 0x40 ADD DUP2 DUP2 MSTORE POP POP SWAP4 SWAP3 POP POP POP JUMP JUMPDEST PUSH2 0x1000 PUSH2 0x1CEC JUMP JUMPDEST PUSH1 0x40 MLOAD DUP1 PUSH1 0x60 ADD PUSH1 0x40 MSTORE DUP1 PUSH1 0x40 MLOAD DUP1 PUSH1 0x40 ADD PUSH1 0x40 MSTORE DUP1 PUSH1 0x20 DUP2 MSTORE PUSH1 0x20 ADD PUSH1 0x2 DUP2 MSTORE POP DUP2 MSTORE PUSH1 0x20 ADD PUSH1 0x0 ISZERO ISZERO DUP2 MSTORE PUSH1 0x20 ADD PUSH1 0x2 DUP2 MSTORE POP SWAP1 POP SWAP1 JUMP JUMPDEST PUSH2 0x1042 PUSH2 0x1CEC JUMP JUMPDEST PUSH1 0x0 PUSH1 0x40 MLOAD DUP1 PUSH1 0x40 ADD PUSH1 0x40 MSTORE DUP1 PUSH1 0x20 DUP2 MSTORE PUSH1 0x20 ADD PUSH1 0x0 DUP2 MSTORE POP SWAP1 POP PUSH1 0x0 DUP4 PUSH1 0x40 DUP7 ADD MLOAD MUL SWAP1 POP PUSH1 0x1 PUSH2 0x100 DUP3 MOD SHL PUSH1 0x20 PUSH1 0x1 PUSH2 0x100 DUP5 DIV ADD MUL DUP4 MSTORE DUP1 PUSH1 0x20 DUP5 ADD MSTORE PUSH1 0x20 DUP4 MLOAD ADD DUP4 ADD PUSH1 0x40 MSTORE POP PUSH1 0x40 MLOAD DUP1 PUSH1 0x60 ADD PUSH1 0x40 MSTORE DUP1 DUP4 DUP2 MSTORE PUSH1 0x20 ADD PUSH1 0x0 ISZERO ISZERO DUP2 MSTORE PUSH1 0x20 ADD DUP3 DUP2 MSTORE POP SWAP3 POP POP POP SWAP3 SWAP2 POP POP JUMP JUMPDEST PUSH2 0x10BE PUSH2 0x1CEC JUMP JUMPDEST PUSH1 0x0 DUP4 PUSH1 0x40 ADD MLOAD EQ DUP1 ISZERO PUSH2 0x10D6 JUMPI POP PUSH1 0x0 DUP3 PUSH1 0x40 ADD MLOAD EQ JUMPDEST ISZERO PUSH2 0x10EA JUMPI PUSH2 0x10E3 PUSH2 0xA87 JUMP JUMPDEST SWAP1 POP PUSH2 0x12FF JUMP JUMPDEST PUSH1 0x60 PUSH1 0x0 DUP1 PUSH2 0x10FB DUP7 DUP7 PUSH1 0x0 PUSH2 0x14A9 JUMP JUMPDEST SWAP2 POP DUP6 PUSH1 0x20 ADD MLOAD DUP1 PUSH2 0x110E JUMPI POP DUP5 PUSH1 0x20 ADD MLOAD JUMPDEST ISZERO PUSH2 0x1245 JUMPI DUP6 PUSH1 0x20 ADD MLOAD DUP1 ISZERO PUSH2 0x1125 JUMPI POP DUP5 PUSH1 0x20 ADD MLOAD JUMPDEST ISZERO PUSH2 0x11D1 JUMPI PUSH1 0x1 DUP3 SUB PUSH2 0x1162 JUMPI PUSH2 0x1144 DUP7 PUSH1 0x0 ADD MLOAD DUP7 PUSH1 0x0 ADD MLOAD PUSH2 0x17BC JUMP JUMPDEST DUP1 SWAP3 POP DUP2 SWAP5 POP POP POP PUSH1 0x1 DUP5 PUSH1 0x20 ADD SWAP1 ISZERO ISZERO SWAP1 DUP2 ISZERO ISZERO DUP2 MSTORE POP POP PUSH2 0x11CC JUMP JUMPDEST PUSH32 0xFFFFFFFFFFFFFFFFFFFFFFFFFFFFFFFFFFFFFFFFFFFFFFFFFFFFFFFFFFFFFFFF DUP3 SUB PUSH2 0x11B9 JUMPI PUSH2 0x119B DUP6 PUSH1 0x0 ADD MLOAD DUP8 PUSH1 0x0 ADD MLOAD PUSH2 0x17BC JUMP JUMPDEST DUP1 SWAP3 POP DUP2 SWAP5 POP POP POP PUSH1 0x0 DUP5 PUSH1 0x20 ADD SWAP1 ISZERO ISZERO SWAP1 DUP2 ISZERO ISZERO DUP2 MSTORE POP POP PUSH2 0x11CB JUMP JUMPDEST PUSH2 0x11C1 PUSH2 0xA87 JUMP JUMPDEST SWAP4 POP POP POP POP PUSH2 0x12FF JUMP JUMPDEST JUMPDEST PUSH2 0x1240 JUMP JUMPDEST PUSH1 0x0 DUP3 SLT PUSH2 0x11FD JUMPI PUSH2 0x11F0 DUP7 PUSH1 0x0 ADD MLOAD DUP7 PUSH1 0x0 ADD MLOAD DUP9 PUSH1 0x40 ADD MLOAD PUSH2 0x1686 JUMP JUMPDEST DUP1 SWAP3 POP DUP2 SWAP5 POP POP POP PUSH2 0x121D JUMP JUMPDEST PUSH2 0x1214 DUP6 PUSH1 0x0 ADD MLOAD DUP8 PUSH1 0x0 ADD MLOAD DUP8 PUSH1 0x40 ADD MLOAD PUSH2 0x1686 JUMP JUMPDEST DUP1 SWAP3 POP DUP2 SWAP5 POP POP POP JUMPDEST DUP6 PUSH1 0x20 ADD MLOAD PUSH2 0x122D JUMPI PUSH1 0x0 PUSH2 0x1230 JUMP JUMPDEST PUSH1 0x1 JUMPDEST DUP5 PUSH1 0x20 ADD SWAP1 ISZERO ISZERO SWAP1 DUP2 ISZERO ISZERO DUP2 MSTORE POP POP JUMPDEST PUSH2 0x12E8 JUMP JUMPDEST PUSH1 0x1 DUP3 SUB PUSH2 0x127D JUMPI PUSH2 0x125F DUP7 PUSH1 0x0 ADD MLOAD DUP7 PUSH1 0x0 ADD MLOAD PUSH2 0x17BC JUMP JUMPDEST DUP1 SWAP3 POP DUP2 SWAP5 POP POP POP PUSH1 0x0 DUP5 PUSH1 0x20 ADD SWAP1 ISZERO ISZERO SWAP1 DUP2 ISZERO ISZERO DUP2 MSTORE POP POP PUSH2 0x12E7 JUMP JUMPDEST PUSH32 0xFFFFFFFFFFFFFFFFFFFFFFFFFFFFFFFFFFFFFFFFFFFFFFFFFFFFFFFFFFFFFFFF DUP3 SUB PUSH2 0x12D4 JUMPI PUSH2 0x12B6 DUP6 PUSH1 0x0 ADD MLOAD DUP8 PUSH1 0x0 ADD MLOAD PUSH2 0x17BC JUMP JUMPDEST DUP1 SWAP3 POP DUP2 SWAP5 POP POP POP PUSH1 0x1 DUP5 PUSH1 0x20 ADD SWAP1 ISZERO ISZERO SWAP1 DUP2 ISZERO ISZERO DUP2 MSTORE POP POP PUSH2 0x12E6 JUMP JUMPDEST PUSH2 0x12DC PUSH2 0xA87 JUMP JUMPDEST SWAP4 POP POP POP POP PUSH2 0x12FF JUMP JUMPDEST JUMPDEST JUMPDEST DUP3 DUP5 PUSH1 0x0 ADD DUP2 SWAP1 MSTORE POP DUP1 DUP5 PUSH1 0x40 ADD DUP2 DUP2 MSTORE POP POP POP POP POP JUMPDEST SWAP3 SWAP2 POP POP JUMP JUMPDEST PUSH2 0x130D PUSH2 0x1CEC JUMP JUMPDEST PUSH1 0x0 DUP4 MLOAD MLOAD SWAP1 POP DUP4 PUSH1 0x40 ADD MLOAD DUP4 LT PUSH2 0x135C JUMPI PUSH1 0x40 MLOAD DUP1 PUSH1 0x60 ADD PUSH1 0x40 MSTORE DUP1 PUSH1 0x40 MLOAD DUP1 PUSH1 0x40 ADD PUSH1 0x40 MSTORE DUP1 PUSH1 0x20 DUP2 MSTORE PUSH1 0x20 ADD PUSH1 0x0 DUP2 MSTORE POP DUP2 MSTORE PUSH1 0x20 ADD PUSH1 0x0 ISZERO ISZERO DUP2 MSTORE PUSH1 0x20 ADD PUSH1 0x0 DUP2 MSTORE POP SWAP2 POP POP PUSH2 0x1461 JUMP JUMPDEST DUP3 DUP5 PUSH1 0x40 ADD MLOAD PUSH2 0x136C SWAP2 SWAP1 PUSH2 0x2B74 JUMP JUMPDEST DUP5 PUSH1 0x40 ADD DUP2 DUP2 MSTORE POP POP PUSH2 0x100 DUP4 EQ PUSH2 0x100 DUP5 GT OR ISZERO PUSH2 0x139D JUMPI PUSH1 0x20 PUSH2 0x100 DUP5 DIV MUL DUP2 SUB SWAP1 POP DUP1 DUP5 MLOAD MSTORE PUSH2 0x100 DUP4 MOD SWAP3 POP JUMPDEST DUP4 MLOAD PUSH1 0x0 PUSH1 0x8 DUP6 MOD EQ PUSH1 0x1 DUP2 EQ PUSH2 0x140E JUMPI PUSH1 0x0 DUP1 DUP7 PUSH2 0x100 SUB DUP6 DUP6 ADD DUP7 JUMPDEST PUSH1 0x0 DUP1 DUP3 EQ SUB PUSH2 0x1404 JUMPI PUSH1 0x20 DUP2 EQ PUSH1 0x1 DUP2 EQ PUSH2 0x13DD JUMPI PUSH1 0x20 DUP4 SUB MLOAD SWAP6 POP PUSH2 0x13E2 JUMP JUMPDEST PUSH1 0x0 SWAP6 POP JUMPDEST POP DUP2 MLOAD DUP11 SHR SWAP4 POP DUP5 DUP4 SHL SWAP5 POP DUP5 DUP5 OR DUP3 MSTORE PUSH1 0x20 DUP3 SUB SWAP2 POP PUSH1 0x20 DUP2 SUB SWAP1 POP PUSH2 0x13BB JUMP JUMPDEST POP POP POP POP POP PUSH2 0x143C JUMP JUMPDEST PUSH1 0x8 DUP6 DIV DUP7 MLOAD DUP1 MLOAD PUSH1 0x20 DUP2 ADD DUP4 DUP4 ADD DUP5 DUP3 SUB DUP3 DUP3 DUP5 DUP8 PUSH1 0x4 PUSH2 0x1C2 STATICCALL PUSH1 0x0 PUSH1 0x1F DUP5 ADD MSTORE8 DUP5 DUP7 MSTORE POP POP POP POP POP POP POP JUMPDEST POP PUSH1 0x20 DUP2 ADD PUSH1 0x0 DUP2 MLOAD EQ PUSH1 0x1 DUP2 SUB PUSH2 0x1459 JUMPI PUSH1 0x20 DUP4 MLOAD SUB DUP3 MSTORE DUP2 DUP8 MSTORE JUMPDEST POP POP POP DUP4 SWAP2 POP POP JUMPDEST SWAP3 SWAP2 POP POP JUMP JUMPDEST PUSH2 0x146F PUSH2 0x1CEC JUMP JUMPDEST PUSH1 0x40 MLOAD DUP1 PUSH1 0x60 ADD PUSH1 0x40 MSTORE DUP1 PUSH1 0x40 MLOAD DUP1 PUSH1 0x40 ADD PUSH1 0x40 MSTORE DUP1 PUSH1 0x20 DUP2 MSTORE PUSH1 0x20 ADD PUSH1 0x1 DUP2 MSTORE POP DUP2 MSTORE PUSH1 0x20 ADD PUSH1 0x0 ISZERO ISZERO DUP2 MSTORE PUSH1 0x20 ADD PUSH1 0x1 DUP2 MSTORE POP SWAP1 POP SWAP1 JUMP JUMPDEST PUSH1 0x0 DUP1 PUSH1 0x1 SWAP1 POP DUP3 ISZERO PUSH2 0x1574 JUMPI DUP5 PUSH1 0x20 ADD MLOAD DUP1 ISZERO PUSH2 0x14C8 JUMPI POP DUP4 PUSH1 0x20 ADD MLOAD JUMPDEST ISZERO PUSH2 0x14F5 JUMPI PUSH32 0xFFFFFFFFFFFFFFFFFFFFFFFFFFFFFFFFFFFFFFFFFFFFFFFFFFFFFFFFFFFFFFFF SWAP1 POP PUSH2 0x1573 JUMP JUMPDEST PUSH1 0x0 ISZERO ISZERO DUP6 PUSH1 0x20 ADD MLOAD ISZERO ISZERO EQ DUP1 ISZERO PUSH2 0x1515 JUMPI POP PUSH1 0x1 ISZERO ISZERO DUP5 PUSH1 0x20 ADD MLOAD ISZERO ISZERO EQ JUMPDEST ISZERO PUSH2 0x1524 JUMPI PUSH1 0x1 SWAP2 POP POP PUSH2 0x167F JUMP JUMPDEST PUSH1 0x1 ISZERO ISZERO DUP6 PUSH1 0x20 ADD MLOAD ISZERO ISZERO EQ DUP1 ISZERO PUSH2 0x1544 JUMPI POP PUSH1 0x0 ISZERO ISZERO DUP5 PUSH1 0x20 ADD MLOAD ISZERO ISZERO EQ JUMPDEST ISZERO PUSH2 0x1572 JUMPI PUSH32 0xFFFFFFFFFFFFFFFFFFFFFFFFFFFFFFFFFFFFFFFFFFFFFFFFFFFFFFFFFFFFFFFF SWAP2 POP POP PUSH2 0x167F JUMP JUMPDEST JUMPDEST JUMPDEST DUP4 PUSH1 0x40 ADD MLOAD DUP6 PUSH1 0x40 ADD MLOAD GT ISZERO PUSH2 0x158D JUMPI DUP1 SWAP2 POP POP PUSH2 0x167F JUMP JUMPDEST DUP5 PUSH1 0x40 ADD MLOAD DUP5 PUSH1 0x40 ADD MLOAD GT ISZERO PUSH2 0x15D1 JUMPI DUP1 PUSH32 0xFFFFFFFFFFFFFFFFFFFFFFFFFFFFFFFFFFFFFFFFFFFFFFFFFFFFFFFFFFFFFFFF PUSH2 0x15C9 SWAP2 SWAP1 PUSH2 0x2BB2 JUMP JUMPDEST SWAP2 POP POP PUSH2 0x167F JUMP JUMPDEST PUSH1 0x0 DUP1 PUSH1 0x0 DUP1 PUSH1 0x0 DUP10 PUSH1 0x0 ADD MLOAD MLOAD SWAP1 POP PUSH1 0x20 DUP11 MLOAD ADD SWAP5 POP PUSH1 0x20 DUP10 MLOAD ADD SWAP4 POP PUSH1 0x0 JUMPDEST DUP2 DUP2 LT ISZERO PUSH2 0x1673 JUMPI DUP1 DUP7 ADD MLOAD SWAP4 POP DUP1 DUP6 ADD MLOAD SWAP3 POP DUP3 DUP5 GT ISZERO PUSH2 0x161D JUMPI DUP7 SWAP8 POP POP POP POP POP POP POP POP PUSH2 0x167F JUMP JUMPDEST DUP4 DUP4 GT ISZERO PUSH2 0x165F JUMPI DUP7 PUSH32 0xFFFFFFFFFFFFFFFFFFFFFFFFFFFFFFFFFFFFFFFFFFFFFFFFFFFFFFFFFFFFFFFF PUSH2 0x1651 SWAP2 SWAP1 PUSH2 0x2BB2 JUMP JUMPDEST SWAP8 POP POP POP POP POP POP POP POP PUSH2 0x167F JUMP JUMPDEST PUSH1 0x20 DUP2 PUSH2 0x166C SWAP2 SWAP1 PUSH2 0x2C2A JUMP JUMPDEST SWAP1 POP PUSH2 0x15F2 JUMP JUMPDEST POP PUSH1 0x0 SWAP7 POP POP POP POP POP POP POP JUMPDEST SWAP4 SWAP3 POP POP POP JUMP JUMPDEST PUSH1 0x60 PUSH1 0x0 PUSH1 0x60 MSIZE PUSH1 0x0 PUSH1 0x1 PUSH1 0x0 SUB DUP9 MLOAD DUP10 ADD DUP9 MLOAD DUP10 ADD DUP11 MLOAD PUSH1 0x20 DUP7 ADD ADD DUP12 MLOAD JUMPDEST PUSH1 0x0 DUP1 DUP3 EQ SUB PUSH2 0x1752 JUMPI DUP4 MLOAD DUP13 MLOAD DUP15 MLOAD SUB DUP3 GT PUSH1 0x1 DUP2 EQ PUSH2 0x16EA JUMPI DUP8 DUP3 ADD DUP5 MSTORE PUSH1 0x1 DUP9 EQ DUP3 DUP9 EQ AND PUSH1 0x1 DUP2 EQ PUSH2 0x16DF JUMPI PUSH1 0x0 SWAP9 POP PUSH2 0x16E4 JUMP JUMPDEST PUSH1 0x1 SWAP9 POP JUMPDEST POP PUSH2 0x1739 JUMP JUMPDEST DUP5 MLOAD DUP9 DUP2 DUP5 ADD ADD DUP6 MSTORE DUP9 DUP2 SUB DUP9 SUB DUP4 GT PUSH1 0x1 DUP2 EQ PUSH2 0x172B JUMPI PUSH1 0x0 DUP3 GT PUSH1 0x0 DUP12 GT OR DUP10 DUP6 EQ AND PUSH1 0x1 DUP2 EQ PUSH2 0x1720 JUMPI PUSH1 0x0 SWAP11 POP PUSH2 0x1725 JUMP JUMPDEST PUSH1 0x1 SWAP11 POP JUMPDEST POP PUSH2 0x1730 JUMP JUMPDEST PUSH1 0x1 SWAP10 POP JUMPDEST POP PUSH1 0x20 DUP7 SUB SWAP6 POP POP JUMPDEST POP PUSH1 0x20 DUP4 SUB SWAP3 POP PUSH1 0x20 DUP6 SUB SWAP5 POP POP PUSH1 0x20 DUP2 SUB SWAP1 POP PUSH2 0x16A6 JUMP JUMPDEST POP PUSH1 0x0 DUP6 EQ PUSH1 0x1 DUP2 EQ PUSH2 0x1768 JUMPI PUSH1 0x1 DUP3 MSTORE PUSH2 0x176F JUMP JUMPDEST PUSH1 0x20 DUP8 ADD SWAP7 POP JUMPDEST POP DUP6 SWAP7 POP DUP5 PUSH1 0x20 MUL DUP13 MLOAD ADD DUP8 MSTORE PUSH1 0x20 DUP8 MLOAD ADD DUP8 ADD PUSH1 0x40 MSTORE PUSH1 0x20 DUP8 ADD MLOAD PUSH1 0x1 DUP2 PUSH2 0x100 DUP14 MOD SHR EQ PUSH1 0x1 DUP3 EQ OR ISZERO PUSH2 0x17A6 JUMPI PUSH1 0x1 DUP12 ADD SWAP11 POP JUMPDEST POP POP POP POP POP POP POP DUP1 DUP5 SWAP3 POP SWAP3 POP POP SWAP4 POP SWAP4 SWAP2 POP POP JUMP JUMPDEST PUSH1 0x60 PUSH1 0x0 PUSH1 0x60 PUSH1 0x0 DUP1 PUSH32 0xFFFFFFFFFFFFFFFFFFFFFFFFFFFFFFFFFFFFFFFFFFFFFFFFFFFFFFFFFFFFFFFF SWAP1 POP MSIZE DUP8 MLOAD DUP8 MLOAD DUP1 DUP3 SUB DUP3 DUP12 ADD DUP3 DUP12 ADD DUP5 DUP7 ADD PUSH1 0x20 DUP2 ADD DUP7 JUMPDEST PUSH1 0x0 DUP1 DUP3 EQ SUB PUSH2 0x188F JUMPI DUP5 MLOAD DUP7 DUP3 GT PUSH1 0x1 DUP2 EQ PUSH2 0x1840 JUMPI DUP13 DUP3 SUB DUP6 MSTORE PUSH1 0x1 DUP14 EQ PUSH1 0x0 DUP4 EQ AND PUSH1 0x1 DUP2 EQ PUSH2 0x1835 JUMPI PUSH1 0x0 SWAP14 POP PUSH2 0x183A JUMP JUMPDEST PUSH1 0x1 SWAP14 POP JUMPDEST POP PUSH2 0x1876 JUMP JUMPDEST DUP6 MLOAD DUP14 DUP2 DUP5 SUB SUB DUP7 MSTORE PUSH1 0x1 DUP15 EQ DUP14 DUP3 EQ AND DUP15 DUP3 ADD DUP5 LT OR PUSH1 0x1 DUP2 EQ PUSH2 0x1868 JUMPI PUSH1 0x0 SWAP15 POP PUSH2 0x186D JUMP JUMPDEST PUSH1 0x1 SWAP15 POP JUMPDEST POP PUSH1 0x20 DUP8 SUB SWAP7 POP POP JUMPDEST POP PUSH1 0x20 DUP5 SUB SWAP4 POP PUSH1 0x20 DUP7 SUB SWAP6 POP POP PUSH1 0x20 DUP2 SUB SWAP1 POP PUSH2 0x17FF JUMP JUMPDEST POP PUSH1 0x20 DUP3 ADD SWAP2 POP JUMPDEST PUSH1 0x0 DUP3 MLOAD SUB PUSH2 0x18B7 JUMPI PUSH1 0x20 DUP9 ADD SWAP8 POP PUSH1 0x20 DUP8 SUB SWAP7 POP PUSH1 0x20 DUP3 ADD SWAP2 POP PUSH2 0x1897 JUMP JUMPDEST DUP8 SWAP11 POP DUP7 DUP12 MSTORE DUP1 PUSH1 0x40 MSTORE POP POP POP POP POP POP POP POP PUSH1 0x0 PUSH2 0x18D4 DUP5 PUSH2 0x1A41 JUMP JUMPDEST SWAP1 POP DUP4 DUP2 SWAP6 POP SWAP6 POP POP POP POP POP SWAP3 POP SWAP3 SWAP1 POP JUMP JUMPDEST PUSH1 0x0 DUP2 MLOAD SWAP1 POP PUSH1 0x0 PUSH11 0x636F6E736F6C652E6C6F67 SWAP1 POP PUSH1 0x20 DUP4 ADD PUSH1 0x0 DUP1 DUP5 DUP4 DUP6 GAS STATICCALL POP POP POP POP POP JUMP JUMPDEST PUSH1 0x0 DUP1 PUSH1 0x0 PUSH1 0x20 DUP5 ADD SWAP1 POP PUSH1 0x0 JUMPDEST DUP5 MLOAD DUP2 LT ISZERO PUSH2 0x195A JUMPI DUP2 MLOAD SWAP3 POP PUSH1 0x0 DUP4 GT ISZERO PUSH2 0x1940 JUMPI PUSH1 0x0 SWAP4 POP POP POP POP PUSH2 0x1962 JUMP JUMPDEST PUSH1 0x20 DUP3 ADD SWAP2 POP PUSH1 0x20 DUP2 PUSH2 0x1953 SWAP2 SWAP1 PUSH2 0x2C2A JUMP JUMPDEST SWAP1 POP PUSH2 0x191E JUMP JUMPDEST POP PUSH1 0x1 SWAP3 POP POP POP JUMPDEST SWAP2 SWAP1 POP JUMP JUMPDEST PUSH1 0x60 DUP4 MLOAD DUP4 MLOAD DUP4 MLOAD PUSH1 0x40 MLOAD DUP4 DUP2 MSTORE DUP3 PUSH1 0x20 DUP3 ADD MSTORE DUP2 PUSH1 0x40 DUP3 ADD MSTORE DUP4 PUSH1 0x60 DUP3 ADD DUP6 PUSH1 0x20 DUP12 ADD PUSH1 0x4 PUSH2 0x1C2 STATICCALL DUP5 PUSH1 0x60 ADD DUP5 DUP2 DUP5 ADD DUP7 PUSH1 0x20 DUP13 ADD PUSH1 0x4 PUSH2 0x1C2 STATICCALL SWAP2 POP DUP5 DUP2 ADD SWAP1 POP DUP4 DUP2 DUP5 ADD DUP6 PUSH1 0x20 DUP12 ADD PUSH1 0x4 PUSH2 0x1C2 STATICCALL SWAP2 POP DUP2 PUSH1 0x0 DUP2 SUB PUSH2 0x19C7 JUMPI INVALID JUMPDEST POP DUP4 DUP2 ADD SWAP1 POP DUP4 PUSH1 0x60 DUP5 ADD DUP3 DUP6 PUSH1 0x5 PUSH2 0x546 GAS SUB STATICCALL SWAP2 POP DUP2 PUSH1 0x0 DUP2 SUB PUSH2 0x19E9 JUMPI INVALID JUMPDEST POP DUP4 PUSH1 0x60 DUP5 ADD JUMPDEST PUSH1 0x0 PUSH1 0x20 DUP4 EQ SUB PUSH2 0x1A20 JUMPI PUSH1 0x0 DUP2 MLOAD EQ PUSH1 0x1 DUP2 EQ PUSH2 0x1A0E JUMPI POP PUSH2 0x1A20 JUMP JUMPDEST PUSH1 0x20 DUP3 ADD SWAP2 POP POP PUSH1 0x20 DUP3 SUB SWAP2 POP PUSH2 0x19F0 JUMP JUMPDEST PUSH1 0x20 DUP2 SUB SWAP9 POP DUP2 DUP10 MSTORE DUP6 DUP6 PUSH1 0x60 ADD ADD PUSH1 0x40 MSTORE POP POP POP POP POP POP POP POP SWAP4 SWAP3 POP POP POP JUMP JUMPDEST PUSH1 0x0 PUSH2 0x1A4C DUP3 PUSH2 0x1910 JUMP JUMPDEST ISZERO PUSH2 0x1A5A JUMPI PUSH1 0x0 SWAP1 POP PUSH2 0x1A7C JUMP JUMPDEST PUSH1 0x0 PUSH1 0x20 DUP4 ADD MLOAD SWAP1 POP PUSH2 0x1A6C DUP2 PUSH2 0x1A96 JUMP JUMPDEST SWAP2 POP PUSH1 0x8 PUSH1 0x20 DUP5 MLOAD SUB MUL DUP3 ADD SWAP2 POP POP JUMPDEST SWAP2 SWAP1 POP JUMP JUMPDEST PUSH1 0x0 DUP2 MLOAD MLOAD DUP3 MLOAD ADD PUSH1 0x2 DUP2 MLOAD MOD SWAP2 POP POP SWAP2 SWAP1 POP JUMP JUMPDEST PUSH1 0x0 DUP1 DUP3 EQ PUSH1 0x1 DUP2 EQ PUSH2 0x1CE1 JUMPI DUP3 PUSH1 0x1 DUP5 SUB SWAP4 POP PUSH1 0x2 DUP5 DIV DUP5 OR SWAP4 POP PUSH1 0x4 DUP5 DIV DUP5 OR SWAP4 POP PUSH1 0x10 DUP5 DIV DUP5 OR SWAP4 POP PUSH2 0x100 DUP5 DIV DUP5 OR SWAP4 POP PUSH3 0x10000 DUP5 DIV DUP5 OR SWAP4 POP PUSH5 0x100000000 DUP5 DIV DUP5 OR SWAP4 POP PUSH9 0x10000000000000000 DUP5 DIV DUP5 OR SWAP4 POP PUSH17 0x100000000000000000000000000000000 DUP5 DIV DUP5 OR SWAP4 POP PUSH1 0x1 DUP5 ADD SWAP4 POP PUSH1 0x40 MLOAD PUSH32 0xF8F9CBFAE6CC78FBEFE7CDC3A1793DFCF4F0E8BBD8CEC470B6A28A7A5A3E1EFD DUP2 MSTORE PUSH32 0xF5ECF1B3E9DEBC68E1D9CFABC5997135BFB7A7A3938B7B606B5B4B3F2F1F0FFE PUSH1 0x20 DUP3 ADD MSTORE PUSH32 0xF6E4ED9FF2D6B458EADCDF97BD91692DE2D4DA8FD2D0AC50C6AE9A8272523616 PUSH1 0x40 DUP3 ADD MSTORE PUSH32 0xC8C0B887B0A8A4489C948C7F847C6125746C645C544C444038302820181008FF PUSH1 0x60 DUP3 ADD MSTORE PUSH32 0xF7CAE577EEC2A03CF3BAD76FB589591DEBB2DD67E0AA9834BEA6925F6A4A2E0E PUSH1 0x80 DUP3 ADD MSTORE PUSH32 0xE39ED557DB96902CD38ED14FAD815115C786AF479B7E83247363534337271707 PUSH1 0xA0 DUP3 ADD MSTORE PUSH32 0xC976C13BB96E881CB166A933A55E490D9D56952B8D4E801485467D2362422606 PUSH1 0xC0 DUP3 ADD MSTORE PUSH32 0x753A6D1B65325D0C552A4D1345224105391A310B29122104190A110309020100 PUSH1 0xE0 DUP3 ADD MSTORE PUSH2 0x100 DUP2 ADD PUSH1 0x40 MSTORE PUSH31 0x818283848586878898A8B8C8D8E8F929395969799A9B9D9E9FAAEB6BEDEEFF PUSH32 0x100000000000000000000000000000000000000000000000000000000000000 DUP1 DUP3 DUP9 MUL DIV DUP2 DUP2 PUSH1 0xFF SUB DUP6 ADD MLOAD DIV SWAP7 POP PUSH32 0x8000000000000000000000000000000000000000000000000000000000000000 DUP6 GT PUSH2 0x100 MUL DUP8 ADD SWAP7 POP PUSH1 0x0 PUSH1 0x1 DUP7 SUB DUP7 AND SUB PUSH2 0x1CD7 JUMPI PUSH1 0x1 DUP8 ADD SWAP7 POP JUMPDEST POP POP POP POP POP PUSH2 0x1CE6 JUMP JUMPDEST PUSH1 0x0 SWAP2 POP JUMPDEST POP SWAP2 SWAP1 POP JUMP JUMPDEST PUSH1 0x40 MLOAD DUP1 PUSH1 0x60 ADD PUSH1 0x40 MSTORE DUP1 PUSH1 0x60 DUP2 MSTORE PUSH1 0x20 ADD PUSH1 0x0 ISZERO ISZERO DUP2 MSTORE PUSH1 0x20 ADD PUSH1 0x0 DUP2 MSTORE POP SWAP1 JUMP JUMPDEST PUSH1 0x0 PUSH1 0x40 MLOAD SWAP1 POP SWAP1 JUMP JUMPDEST PUSH1 0x0 DUP1 REVERT JUMPDEST PUSH1 0x0 DUP1 REVERT JUMPDEST PUSH1 0x0 DUP1 REVERT JUMPDEST PUSH1 0x0 DUP1 REVERT JUMPDEST PUSH1 0x0 PUSH1 0x1F NOT PUSH1 0x1F DUP4 ADD AND SWAP1 POP SWAP2 SWAP1 POP JUMP JUMPDEST PUSH32 0x4E487B7100000000000000000000000000000000000000000000000000000000 PUSH1 0x0 MSTORE PUSH1 0x41 PUSH1 0x4 MSTORE PUSH1 0x24 PUSH1 0x0 REVERT JUMPDEST PUSH2 0x1D76 DUP3 PUSH2 0x1D2D JUMP JUMPDEST DUP2 ADD DUP2 DUP2 LT PUSH8 0xFFFFFFFFFFFFFFFF DUP3 GT OR ISZERO PUSH2 0x1D95 JUMPI PUSH2 0x1D94 PUSH2 0x1D3E JUMP JUMPDEST JUMPDEST DUP1 PUSH1 0x40 MSTORE POP POP POP JUMP JUMPDEST PUSH1 0x0 PUSH2 0x1DA8 PUSH2 0x1D0F JUMP JUMPDEST SWAP1 POP PUSH2 0x1DB4 DUP3 DUP3 PUSH2 0x1D6D JUMP JUMPDEST SWAP2 SWAP1 POP JUMP JUMPDEST PUSH1 0x0 PUSH8 0xFFFFFFFFFFFFFFFF DUP3 GT ISZERO PUSH2 0x1DD4 JUMPI PUSH2 0x1DD3 PUSH2 0x1D3E JUMP JUMPDEST JUMPDEST PUSH2 0x1DDD DUP3 PUSH2 0x1D2D JUMP JUMPDEST SWAP1 POP PUSH1 0x20 DUP2 ADD SWAP1 POP SWAP2 SWAP1 POP JUMP JUMPDEST DUP3 DUP2 DUP4 CALLDATACOPY PUSH1 0x0 DUP4 DUP4 ADD MSTORE POP POP POP JUMP JUMPDEST PUSH1 0x0 PUSH2 0x1E0C PUSH2 0x1E07 DUP5 PUSH2 0x1DB9 JUMP JUMPDEST PUSH2 0x1D9E JUMP JUMPDEST SWAP1 POP DUP3 DUP2 MSTORE PUSH1 0x20 DUP2 ADD DUP5 DUP5 DUP5 ADD GT ISZERO PUSH2 0x1E28 JUMPI PUSH2 0x1E27 PUSH2 0x1D28 JUMP JUMPDEST JUMPDEST PUSH2 0x1E33 DUP5 DUP3 DUP6 PUSH2 0x1DEA JUMP JUMPDEST POP SWAP4 SWAP3 POP POP POP JUMP JUMPDEST PUSH1 0x0 DUP3 PUSH1 0x1F DUP4 ADD SLT PUSH2 0x1E50 JUMPI PUSH2 0x1E4F PUSH2 0x1D23 JUMP JUMPDEST JUMPDEST DUP2 CALLDATALOAD PUSH2 0x1E60 DUP5 DUP3 PUSH1 0x20 DUP7 ADD PUSH2 0x1DF9 JUMP JUMPDEST SWAP2 POP POP SWAP3 SWAP2 POP POP JUMP JUMPDEST PUSH1 0x0 PUSH8 0xFFFFFFFFFFFFFFFF DUP3 GT ISZERO PUSH2 0x1E84 JUMPI PUSH2 0x1E83 PUSH2 0x1D3E JUMP JUMPDEST JUMPDEST PUSH1 0x20 DUP3 MUL SWAP1 POP PUSH1 0x20 DUP2 ADD SWAP1 POP SWAP2 SWAP1 POP JUMP JUMPDEST PUSH1 0x0 DUP1 REVERT JUMPDEST PUSH1 0x0 PUSH8 0xFFFFFFFFFFFFFFFF DUP3 GT ISZERO PUSH2 0x1EB5 JUMPI PUSH2 0x1EB4 PUSH2 0x1D3E JUMP JUMPDEST JUMPDEST PUSH1 0x20 DUP3 MUL SWAP1 POP PUSH1 0x20 DUP2 ADD SWAP1 POP SWAP2 SWAP1 POP JUMP JUMPDEST PUSH1 0x0 PUSH2 0x1ED9 PUSH2 0x1ED4 DUP5 PUSH2 0x1E9A JUMP JUMPDEST PUSH2 0x1D9E JUMP JUMPDEST SWAP1 POP DUP1 DUP4 DUP3 MSTORE PUSH1 0x20 DUP3 ADD SWAP1 POP PUSH1 0x20 DUP5 MUL DUP4 ADD DUP6 DUP2 GT ISZERO PUSH2 0x1EFC JUMPI PUSH2 0x1EFB PUSH2 0x1E95 JUMP JUMPDEST JUMPDEST DUP4 JUMPDEST DUP2 DUP2 LT ISZERO PUSH2 0x1F43 JUMPI DUP1 CALLDATALOAD PUSH8 0xFFFFFFFFFFFFFFFF DUP2 GT ISZERO PUSH2 0x1F21 JUMPI PUSH2 0x1F20 PUSH2 0x1D23 JUMP JUMPDEST JUMPDEST DUP1 DUP7 ADD PUSH2 0x1F2E DUP10 DUP3 PUSH2 0x1E3B JUMP JUMPDEST DUP6 MSTORE PUSH1 0x20 DUP6 ADD SWAP5 POP POP POP PUSH1 0x20 DUP2 ADD SWAP1 POP PUSH2 0x1EFE JUMP JUMPDEST POP POP POP SWAP4 SWAP3 POP POP POP JUMP JUMPDEST PUSH1 0x0 DUP3 PUSH1 0x1F DUP4 ADD SLT PUSH2 0x1F62 JUMPI PUSH2 0x1F61 PUSH2 0x1D23 JUMP JUMPDEST JUMPDEST DUP2 CALLDATALOAD PUSH2 0x1F72 DUP5 DUP3 PUSH1 0x20 DUP7 ADD PUSH2 0x1EC6 JUMP JUMPDEST SWAP2 POP POP SWAP3 SWAP2 POP POP JUMP JUMPDEST PUSH1 0x0 PUSH2 0x1F8E PUSH2 0x1F89 DUP5 PUSH2 0x1E69 JUMP JUMPDEST PUSH2 0x1D9E JUMP JUMPDEST SWAP1 POP DUP1 DUP4 DUP3 MSTORE PUSH1 0x20 DUP3 ADD SWAP1 POP PUSH1 0x20 DUP5 MUL DUP4 ADD DUP6 DUP2 GT ISZERO PUSH2 0x1FB1 JUMPI PUSH2 0x1FB0 PUSH2 0x1E95 JUMP JUMPDEST JUMPDEST DUP4 JUMPDEST DUP2 DUP2 LT ISZERO PUSH2 0x1FF8 JUMPI DUP1 CALLDATALOAD PUSH8 0xFFFFFFFFFFFFFFFF DUP2 GT ISZERO PUSH2 0x1FD6 JUMPI PUSH2 0x1FD5 PUSH2 0x1D23 JUMP JUMPDEST JUMPDEST DUP1 DUP7 ADD PUSH2 0x1FE3 DUP10 DUP3 PUSH2 0x1F4D JUMP JUMPDEST DUP6 MSTORE PUSH1 0x20 DUP6 ADD SWAP5 POP POP POP PUSH1 0x20 DUP2 ADD SWAP1 POP PUSH2 0x1FB3 JUMP JUMPDEST POP POP POP SWAP4 SWAP3 POP POP POP JUMP JUMPDEST PUSH1 0x0 DUP3 PUSH1 0x1F DUP4 ADD SLT PUSH2 0x2017 JUMPI PUSH2 0x2016 PUSH2 0x1D23 JUMP JUMPDEST JUMPDEST DUP2 CALLDATALOAD PUSH2 0x2027 DUP5 DUP3 PUSH1 0x20 DUP7 ADD PUSH2 0x1F7B JUMP JUMPDEST SWAP2 POP POP SWAP3 SWAP2 POP POP JUMP JUMPDEST PUSH1 0x0 PUSH8 0xFFFFFFFFFFFFFFFF DUP3 GT ISZERO PUSH2 0x204B JUMPI PUSH2 0x204A PUSH2 0x1D3E JUMP JUMPDEST JUMPDEST PUSH1 0x20 DUP3 MUL SWAP1 POP PUSH1 0x20 DUP2 ADD SWAP1 POP SWAP2 SWAP1 POP JUMP JUMPDEST PUSH1 0x0 PUSH8 0xFFFFFFFFFFFFFFFF DUP3 GT ISZERO PUSH2 0x2077 JUMPI PUSH2 0x2076 PUSH2 0x1D3E JUMP JUMPDEST JUMPDEST PUSH2 0x2080 DUP3 PUSH2 0x1D2D JUMP JUMPDEST SWAP1 POP PUSH1 0x20 DUP2 ADD SWAP1 POP SWAP2 SWAP1 POP JUMP JUMPDEST PUSH1 0x0 PUSH2 0x20A0 PUSH2 0x209B DUP5 PUSH2 0x205C JUMP JUMPDEST PUSH2 0x1D9E JUMP JUMPDEST SWAP1 POP DUP3 DUP2 MSTORE PUSH1 0x20 DUP2 ADD DUP5 DUP5 DUP5 ADD GT ISZERO PUSH2 0x20BC JUMPI PUSH2 0x20BB PUSH2 0x1D28 JUMP JUMPDEST JUMPDEST PUSH2 0x20C7 DUP5 DUP3 DUP6 PUSH2 0x1DEA JUMP JUMPDEST POP SWAP4 SWAP3 POP POP POP JUMP JUMPDEST PUSH1 0x0 DUP3 PUSH1 0x1F DUP4 ADD SLT PUSH2 0x20E4 JUMPI PUSH2 0x20E3 PUSH2 0x1D23 JUMP JUMPDEST JUMPDEST DUP2 CALLDATALOAD PUSH2 0x20F4 DUP5 DUP3 PUSH1 0x20 DUP7 ADD PUSH2 0x208D JUMP JUMPDEST SWAP2 POP POP SWAP3 SWAP2 POP POP JUMP JUMPDEST PUSH1 0x0 PUSH2 0x2110 PUSH2 0x210B DUP5 PUSH2 0x2030 JUMP JUMPDEST PUSH2 0x1D9E JUMP JUMPDEST SWAP1 POP DUP1 DUP4 DUP3 MSTORE PUSH1 0x20 DUP3 ADD SWAP1 POP PUSH1 0x20 DUP5 MUL DUP4 ADD DUP6 DUP2 GT ISZERO PUSH2 0x2133 JUMPI PUSH2 0x2132 PUSH2 0x1E95 JUMP JUMPDEST JUMPDEST DUP4 JUMPDEST DUP2 DUP2 LT ISZERO PUSH2 0x217A JUMPI DUP1 CALLDATALOAD PUSH8 0xFFFFFFFFFFFFFFFF DUP2 GT ISZERO PUSH2 0x2158 JUMPI PUSH2 0x2157 PUSH2 0x1D23 JUMP JUMPDEST JUMPDEST DUP1 DUP7 ADD PUSH2 0x2165 DUP10 DUP3 PUSH2 0x20CF JUMP JUMPDEST DUP6 MSTORE PUSH1 0x20 DUP6 ADD SWAP5 POP POP POP PUSH1 0x20 DUP2 ADD SWAP1 POP PUSH2 0x2135 JUMP JUMPDEST POP POP POP SWAP4 SWAP3 POP POP POP JUMP JUMPDEST PUSH1 0x0 DUP3 PUSH1 0x1F DUP4 ADD SLT PUSH2 0x2199 JUMPI PUSH2 0x2198 PUSH2 0x1D23 JUMP JUMPDEST JUMPDEST DUP2 CALLDATALOAD PUSH2 0x21A9 DUP5 DUP3 PUSH1 0x20 DUP7 ADD PUSH2 0x20FD JUMP JUMPDEST SWAP2 POP POP SWAP3 SWAP2 POP POP JUMP JUMPDEST PUSH1 0x0 DUP1 PUSH1 0x0 DUP1 PUSH1 0x0 PUSH1 0xA0 DUP7 DUP9 SUB SLT ISZERO PUSH2 0x21CE JUMPI PUSH2 0x21CD PUSH2 0x1D19 JUMP JUMPDEST JUMPDEST PUSH1 0x0 DUP7 ADD CALLDATALOAD PUSH8 0xFFFFFFFFFFFFFFFF DUP2 GT ISZERO PUSH2 0x21EC JUMPI PUSH2 0x21EB PUSH2 0x1D1E JUMP JUMPDEST JUMPDEST PUSH2 0x21F8 DUP9 DUP3 DUP10 ADD PUSH2 0x1E3B JUMP JUMPDEST SWAP6 POP POP PUSH1 0x20 DUP7 ADD CALLDATALOAD PUSH8 0xFFFFFFFFFFFFFFFF DUP2 GT ISZERO PUSH2 0x2219 JUMPI PUSH2 0x2218 PUSH2 0x1D1E JUMP JUMPDEST JUMPDEST PUSH2 0x2225 DUP9 DUP3 DUP10 ADD PUSH2 0x2002 JUMP JUMPDEST SWAP5 POP POP PUSH1 0x40 DUP7 ADD CALLDATALOAD PUSH8 0xFFFFFFFFFFFFFFFF DUP2 GT ISZERO PUSH2 0x2246 JUMPI PUSH2 0x2245 PUSH2 0x1D1E JUMP JUMPDEST JUMPDEST PUSH2 0x2252 DUP9 DUP3 DUP10 ADD PUSH2 0x2184 JUMP JUMPDEST SWAP4 POP POP PUSH1 0x60 DUP7 ADD CALLDATALOAD PUSH8 0xFFFFFFFFFFFFFFFF DUP2 GT ISZERO PUSH2 0x2273 JUMPI PUSH2 0x2272 PUSH2 0x1D1E JUMP JUMPDEST JUMPDEST PUSH2 0x227F DUP9 DUP3 DUP10 ADD PUSH2 0x1E3B JUMP JUMPDEST SWAP3 POP POP PUSH1 0x80 DUP7 ADD CALLDATALOAD PUSH8 0xFFFFFFFFFFFFFFFF DUP2 GT ISZERO PUSH2 0x22A0 JUMPI PUSH2 0x229F PUSH2 0x1D1E JUMP JUMPDEST JUMPDEST PUSH2 0x22AC DUP9 DUP3 DUP10 ADD PUSH2 0x1E3B JUMP JUMPDEST SWAP2 POP POP SWAP3 SWAP6 POP SWAP3 SWAP6 SWAP1 SWAP4 POP JUMP JUMPDEST PUSH1 0x0 DUP2 MLOAD SWAP1 POP SWAP2 SWAP1 POP JUMP JUMPDEST PUSH1 0x0 DUP3 DUP3 MSTORE PUSH1 0x20 DUP3 ADD SWAP1 POP SWAP3 SWAP2 POP POP JUMP JUMPDEST PUSH1 0x0 JUMPDEST DUP4 DUP2 LT ISZERO PUSH2 0x22F3 JUMPI DUP1 DUP3 ADD MLOAD DUP2 DUP5 ADD MSTORE PUSH1 0x20 DUP2 ADD SWAP1 POP PUSH2 0x22D8 JUMP JUMPDEST PUSH1 0x0 DUP5 DUP5 ADD MSTORE POP POP POP POP JUMP JUMPDEST PUSH1 0x0 PUSH2 0x230A DUP3 PUSH2 0x22B9 JUMP JUMPDEST PUSH2 0x2314 DUP2 DUP6 PUSH2 0x22C4 JUMP JUMPDEST SWAP4 POP PUSH2 0x2324 DUP2 DUP6 PUSH1 0x20 DUP7 ADD PUSH2 0x22D5 JUMP JUMPDEST PUSH2 0x232D DUP2 PUSH2 0x1D2D JUMP JUMPDEST DUP5 ADD SWAP2 POP POP SWAP3 SWAP2 POP POP JUMP JUMPDEST PUSH1 0x0 DUP3 DUP3 MSTORE PUSH1 0x20 DUP3 ADD SWAP1 POP SWAP3 SWAP2 POP POP JUMP JUMPDEST PUSH1 0x0 PUSH2 0x2354 DUP3 PUSH2 0x22B9 JUMP JUMPDEST PUSH2 0x235E DUP2 DUP6 PUSH2 0x2338 JUMP JUMPDEST SWAP4 POP PUSH2 0x236E DUP2 DUP6 PUSH1 0x20 DUP7 ADD PUSH2 0x22D5 JUMP JUMPDEST PUSH2 0x2377 DUP2 PUSH2 0x1D2D JUMP JUMPDEST DUP5 ADD SWAP2 POP POP SWAP3 SWAP2 POP POP JUMP JUMPDEST PUSH1 0x0 DUP2 ISZERO ISZERO SWAP1 POP SWAP2 SWAP1 POP JUMP JUMPDEST PUSH2 0x2397 DUP2 PUSH2 0x2382 JUMP JUMPDEST DUP3 MSTORE POP POP JUMP JUMPDEST PUSH1 0x0 DUP2 SWAP1 POP SWAP2 SWAP1 POP JUMP JUMPDEST PUSH2 0x23B0 DUP2 PUSH2 0x239D JUMP JUMPDEST DUP3 MSTORE POP POP JUMP JUMPDEST PUSH1 0x0 PUSH1 0x60 DUP4 ADD PUSH1 0x0 DUP4 ADD MLOAD DUP5 DUP3 SUB PUSH1 0x0 DUP7 ADD MSTORE PUSH2 0x23D3 DUP3 DUP3 PUSH2 0x2349 JUMP JUMPDEST SWAP2 POP POP PUSH1 0x20 DUP4 ADD MLOAD PUSH2 0x23E8 PUSH1 0x20 DUP7 ADD DUP3 PUSH2 0x238E JUMP JUMPDEST POP PUSH1 0x40 DUP4 ADD MLOAD PUSH2 0x23FB PUSH1 0x40 DUP7 ADD DUP3 PUSH2 0x23A7 JUMP JUMPDEST POP DUP1 SWAP2 POP POP SWAP3 SWAP2 POP POP JUMP JUMPDEST PUSH1 0x0 PUSH1 0x40 DUP3 ADD SWAP1 POP DUP2 DUP2 SUB PUSH1 0x0 DUP4 ADD MSTORE PUSH2 0x2420 DUP2 DUP6 PUSH2 0x22FF JUMP JUMPDEST SWAP1 POP DUP2 DUP2 SUB PUSH1 0x20 DUP4 ADD MSTORE PUSH2 0x2434 DUP2 DUP5 PUSH2 0x23B6 JUMP JUMPDEST SWAP1 POP SWAP4 SWAP3 POP POP POP JUMP JUMPDEST PUSH1 0x0 DUP1 PUSH1 0x40 DUP4 DUP6 SUB SLT ISZERO PUSH2 0x2454 JUMPI PUSH2 0x2453 PUSH2 0x1D19 JUMP JUMPDEST JUMPDEST PUSH1 0x0 DUP4 ADD CALLDATALOAD PUSH8 0xFFFFFFFFFFFFFFFF DUP2 GT ISZERO PUSH2 0x2472 JUMPI PUSH2 0x2471 PUSH2 0x1D1E JUMP JUMPDEST JUMPDEST PUSH2 0x247E DUP6 DUP3 DUP7 ADD PUSH2 0x20CF JUMP JUMPDEST SWAP3 POP POP PUSH1 0x20 DUP4 ADD CALLDATALOAD PUSH8 0xFFFFFFFFFFFFFFFF DUP2 GT ISZERO PUSH2 0x249F JUMPI PUSH2 0x249E PUSH2 0x1D1E JUMP JUMPDEST JUMPDEST PUSH2 0x24AB DUP6 DUP3 DUP7 ADD PUSH2 0x20CF JUMP JUMPDEST SWAP2 POP POP SWAP3 POP SWAP3 SWAP1 POP JUMP JUMPDEST PUSH1 0x0 PUSH1 0x20 DUP3 ADD SWAP1 POP DUP2 DUP2 SUB PUSH1 0x0 DUP4 ADD MSTORE PUSH2 0x24CF DUP2 DUP5 PUSH2 0x23B6 JUMP JUMPDEST SWAP1 POP SWAP3 SWAP2 POP POP JUMP JUMPDEST PUSH1 0x0 DUP1 PUSH1 0x0 PUSH1 0x60 DUP5 DUP7 SUB SLT ISZERO PUSH2 0x24F0 JUMPI PUSH2 0x24EF PUSH2 0x1D19 JUMP JUMPDEST JUMPDEST PUSH1 0x0 DUP5 ADD CALLDATALOAD PUSH8 0xFFFFFFFFFFFFFFFF DUP2 GT ISZERO PUSH2 0x250E JUMPI PUSH2 0x250D PUSH2 0x1D1E JUMP JUMPDEST JUMPDEST PUSH2 0x251A DUP7 DUP3 DUP8 ADD PUSH2 0x20CF JUMP JUMPDEST SWAP4 POP POP PUSH1 0x20 DUP5 ADD CALLDATALOAD PUSH8 0xFFFFFFFFFFFFFFFF DUP2 GT ISZERO PUSH2 0x253B JUMPI PUSH2 0x253A PUSH2 0x1D1E JUMP JUMPDEST JUMPDEST PUSH2 0x2547 DUP7 DUP3 DUP8 ADD PUSH2 0x20CF JUMP JUMPDEST SWAP3 POP POP PUSH1 0x40 DUP5 ADD CALLDATALOAD PUSH8 0xFFFFFFFFFFFFFFFF DUP2 GT ISZERO PUSH2 0x2568 JUMPI PUSH2 0x2567 PUSH2 0x1D1E JUMP JUMPDEST JUMPDEST PUSH2 0x2574 DUP7 DUP3 DUP8 ADD PUSH2 0x20CF JUMP JUMPDEST SWAP2 POP POP SWAP3 POP SWAP3 POP SWAP3 JUMP JUMPDEST PUSH2 0x2587 DUP2 PUSH2 0x2382 JUMP JUMPDEST DUP3 MSTORE POP POP JUMP JUMPDEST PUSH1 0x0 PUSH1 0x20 DUP3 ADD SWAP1 POP PUSH2 0x25A2 PUSH1 0x0 DUP4 ADD DUP5 PUSH2 0x257E JUMP JUMPDEST SWAP3 SWAP2 POP POP JUMP JUMPDEST PUSH2 0x25B1 DUP2 PUSH2 0x239D JUMP JUMPDEST DUP2 EQ PUSH2 0x25BC JUMPI PUSH1 0x0 DUP1 REVERT JUMPDEST POP JUMP JUMPDEST PUSH1 0x0 DUP2 CALLDATALOAD SWAP1 POP PUSH2 0x25CE DUP2 PUSH2 0x25A8 JUMP JUMPDEST SWAP3 SWAP2 POP POP JUMP JUMPDEST PUSH1 0x0 PUSH20 0xFFFFFFFFFFFFFFFFFFFFFFFFFFFFFFFFFFFFFFFF DUP3 AND SWAP1 POP SWAP2 SWAP1 POP JUMP JUMPDEST PUSH1 0x0 PUSH2 0x25FF DUP3 PUSH2 0x25D4 JUMP JUMPDEST SWAP1 POP SWAP2 SWAP1 POP JUMP JUMPDEST PUSH2 0x260F DUP2 PUSH2 0x25F4 JUMP JUMPDEST DUP2 EQ PUSH2 0x261A JUMPI PUSH1 0x0 DUP1 REVERT JUMPDEST POP JUMP JUMPDEST PUSH1 0x0 DUP2 CALLDATALOAD SWAP1 POP PUSH2 0x262C DUP2 PUSH2 0x2606 JUMP JUMPDEST SWAP3 SWAP2 POP POP JUMP JUMPDEST PUSH1 0x0 DUP1 PUSH1 0x0 PUSH1 0x60 DUP5 DUP7 SUB SLT ISZERO PUSH2 0x264B JUMPI PUSH2 0x264A PUSH2 0x1D19 JUMP JUMPDEST JUMPDEST PUSH1 0x0 DUP5 ADD CALLDATALOAD PUSH8 0xFFFFFFFFFFFFFFFF DUP2 GT ISZERO PUSH2 0x2669 JUMPI PUSH2 0x2668 PUSH2 0x1D1E JUMP JUMPDEST JUMPDEST PUSH2 0x2675 DUP7 DUP3 DUP8 ADD PUSH2 0x1E3B JUMP JUMPDEST SWAP4 POP POP PUSH1 0x20 PUSH2 0x2686 DUP7 DUP3 DUP8 ADD PUSH2 0x25BF JUMP JUMPDEST SWAP3 POP POP PUSH1 0x40 PUSH2 0x2697 DUP7 DUP3 DUP8 ADD PUSH2 0x261D JUMP JUMPDEST SWAP2 POP POP SWAP3 POP SWAP3 POP SWAP3 JUMP JUMPDEST PUSH1 0x0 DUP2 SWAP1 POP SWAP2 SWAP1 POP JUMP JUMPDEST PUSH2 0x26B4 DUP2 PUSH2 0x26A1 JUMP JUMPDEST DUP3 MSTORE POP POP JUMP JUMPDEST PUSH1 0x0 PUSH1 0x20 DUP3 ADD SWAP1 POP PUSH2 0x26CF PUSH1 0x0 DUP4 ADD DUP5 PUSH2 0x26AB JUMP JUMPDEST SWAP3 SWAP2 POP POP JUMP JUMPDEST PUSH1 0x0 DUP1 REVERT JUMPDEST PUSH1 0x0 DUP1 REVERT JUMPDEST PUSH2 0x26E8 DUP2 PUSH2 0x2382 JUMP JUMPDEST DUP2 EQ PUSH2 0x26F3 JUMPI PUSH1 0x0 DUP1 REVERT JUMPDEST POP JUMP JUMPDEST PUSH1 0x0 DUP2 CALLDATALOAD SWAP1 POP PUSH2 0x2705 DUP2 PUSH2 0x26DF JUMP JUMPDEST SWAP3 SWAP2 POP POP JUMP JUMPDEST PUSH1 0x0 PUSH1 0x60 DUP3 DUP5 SUB SLT ISZERO PUSH2 0x2721 JUMPI PUSH2 0x2720 PUSH2 0x26D5 JUMP JUMPDEST JUMPDEST PUSH2 0x272B PUSH1 0x60 PUSH2 0x1D9E JUMP JUMPDEST SWAP1 POP PUSH1 0x0 DUP3 ADD CALLDATALOAD PUSH8 0xFFFFFFFFFFFFFFFF DUP2 GT ISZERO PUSH2 0x274B JUMPI PUSH2 0x274A PUSH2 0x26DA JUMP JUMPDEST JUMPDEST PUSH2 0x2757 DUP5 DUP3 DUP6 ADD PUSH2 0x20CF JUMP JUMPDEST PUSH1 0x0 DUP4 ADD MSTORE POP PUSH1 0x20 PUSH2 0x276B DUP5 DUP3 DUP6 ADD PUSH2 0x26F6 JUMP JUMPDEST PUSH1 0x20 DUP4 ADD MSTORE POP PUSH1 0x40 PUSH2 0x277F DUP5 DUP3 DUP6 ADD PUSH2 0x25BF JUMP JUMPDEST PUSH1 0x40 DUP4 ADD MSTORE POP SWAP3 SWAP2 POP POP JUMP JUMPDEST PUSH1 0x0 PUSH1 0x20 DUP3 DUP5 SUB SLT ISZERO PUSH2 0x27A1 JUMPI PUSH2 0x27A0 PUSH2 0x1D19 JUMP JUMPDEST JUMPDEST PUSH1 0x0 DUP3 ADD CALLDATALOAD PUSH8 0xFFFFFFFFFFFFFFFF DUP2 GT ISZERO PUSH2 0x27BF JUMPI PUSH2 0x27BE PUSH2 0x1D1E JUMP JUMPDEST JUMPDEST PUSH2 0x27CB DUP5 DUP3 DUP6 ADD PUSH2 0x270B JUMP JUMPDEST SWAP2 POP POP SWAP3 SWAP2 POP POP JUMP JUMPDEST PUSH1 0x0 PUSH8 0xFFFFFFFFFFFFFFFF DUP3 GT ISZERO PUSH2 0x27EF JUMPI PUSH2 0x27EE PUSH2 0x1D3E JUMP JUMPDEST JUMPDEST PUSH1 0x20 DUP3 MUL SWAP1 POP PUSH1 0x20 DUP2 ADD SWAP1 POP SWAP2 SWAP1 POP JUMP JUMPDEST PUSH1 0x0 PUSH2 0x2813 PUSH2 0x280E DUP5 PUSH2 0x27D4 JUMP JUMPDEST PUSH2 0x1D9E JUMP JUMPDEST SWAP1 POP DUP1 DUP4 DUP3 MSTORE PUSH1 0x20 DUP3 ADD SWAP1 POP PUSH1 0x20 DUP5 MUL DUP4 ADD DUP6 DUP2 GT ISZERO PUSH2 0x2836 JUMPI PUSH2 0x2835 PUSH2 0x1E95 JUMP JUMPDEST JUMPDEST DUP4 JUMPDEST DUP2 DUP2 LT ISZERO PUSH2 0x287D JUMPI DUP1 CALLDATALOAD PUSH8 0xFFFFFFFFFFFFFFFF DUP2 GT ISZERO PUSH2 0x285B JUMPI PUSH2 0x285A PUSH2 0x1D23 JUMP JUMPDEST JUMPDEST DUP1 DUP7 ADD PUSH2 0x2868 DUP10 DUP3 PUSH2 0x270B JUMP JUMPDEST DUP6 MSTORE PUSH1 0x20 DUP6 ADD SWAP5 POP POP POP PUSH1 0x20 DUP2 ADD SWAP1 POP PUSH2 0x2838 JUMP JUMPDEST POP POP POP SWAP4 SWAP3 POP POP POP JUMP JUMPDEST PUSH1 0x0 DUP3 PUSH1 0x1F DUP4 ADD SLT PUSH2 0x289C JUMPI PUSH2 0x289B PUSH2 0x1D23 JUMP JUMPDEST JUMPDEST DUP2 CALLDATALOAD PUSH2 0x28AC DUP5 DUP3 PUSH1 0x20 DUP7 ADD PUSH2 0x2800 JUMP JUMPDEST SWAP2 POP POP SWAP3 SWAP2 POP POP JUMP JUMPDEST PUSH1 0x0 DUP1 PUSH1 0x0 PUSH1 0x60 DUP5 DUP7 SUB SLT ISZERO PUSH2 0x28CE JUMPI PUSH2 0x28CD PUSH2 0x1D19 JUMP JUMPDEST JUMPDEST PUSH1 0x0 DUP5 ADD CALLDATALOAD PUSH8 0xFFFFFFFFFFFFFFFF DUP2 GT ISZERO PUSH2 0x28EC JUMPI PUSH2 0x28EB PUSH2 0x1D1E JUMP JUMPDEST JUMPDEST PUSH2 0x28F8 DUP7 DUP3 DUP8 ADD PUSH2 0x2002 JUMP JUMPDEST SWAP4 POP POP PUSH1 0x20 DUP5 ADD CALLDATALOAD PUSH8 0xFFFFFFFFFFFFFFFF DUP2 GT ISZERO PUSH2 0x2919 JUMPI PUSH2 0x2918 PUSH2 0x1D1E JUMP JUMPDEST JUMPDEST PUSH2 0x2925 DUP7 DUP3 DUP8 ADD PUSH2 0x2887 JUMP JUMPDEST SWAP3 POP POP PUSH1 0x40 DUP5 ADD CALLDATALOAD PUSH8 0xFFFFFFFFFFFFFFFF DUP2 GT ISZERO PUSH2 0x2946 JUMPI PUSH2 0x2945 PUSH2 0x1D1E JUMP JUMPDEST JUMPDEST PUSH2 0x2952 DUP7 DUP3 DUP8 ADD PUSH2 0x270B JUMP JUMPDEST SWAP2 POP POP SWAP3 POP SWAP3 POP SWAP3 JUMP JUMPDEST PUSH32 0x4E487B7100000000000000000000000000000000000000000000000000000000 PUSH1 0x0 MSTORE PUSH1 0x32 PUSH1 0x4 MSTORE PUSH1 0x24 PUSH1 0x0 REVERT JUMPDEST PUSH32 0x4E487B7100000000000000000000000000000000000000000000000000000000 PUSH1 0x0 MSTORE PUSH1 0x11 PUSH1 0x4 MSTORE PUSH1 0x24 PUSH1 0x0 REVERT JUMPDEST PUSH1 0x0 PUSH2 0x29C5 DUP3 PUSH2 0x239D JUMP JUMPDEST SWAP2 POP PUSH32 0xFFFFFFFFFFFFFFFFFFFFFFFFFFFFFFFFFFFFFFFFFFFFFFFFFFFFFFFFFFFFFFFF DUP3 SUB PUSH2 0x29F7 JUMPI PUSH2 0x29F6 PUSH2 0x298B JUMP JUMPDEST JUMPDEST PUSH1 0x1 DUP3 ADD SWAP1 POP SWAP2 SWAP1 POP JUMP JUMPDEST PUSH1 0x0 DUP2 MLOAD SWAP1 POP SWAP2 SWAP1 POP JUMP JUMPDEST PUSH1 0x0 DUP2 SWAP1 POP SWAP3 SWAP2 POP POP JUMP JUMPDEST PUSH1 0x0 PUSH2 0x2A23 DUP3 PUSH2 0x2A02 JUMP JUMPDEST PUSH2 0x2A2D DUP2 DUP6 PUSH2 0x2A0D JUMP JUMPDEST SWAP4 POP PUSH2 0x2A3D DUP2 DUP6 PUSH1 0x20 DUP7 ADD PUSH2 0x22D5 JUMP JUMPDEST DUP1 DUP5 ADD SWAP2 POP POP SWAP3 SWAP2 POP POP JUMP JUMPDEST PUSH1 0x0 DUP2 SWAP1 POP SWAP2 SWAP1 POP JUMP JUMPDEST PUSH2 0x2A64 PUSH2 0x2A5F DUP3 PUSH2 0x239D JUMP JUMPDEST PUSH2 0x2A49 JUMP JUMPDEST DUP3 MSTORE POP POP JUMP JUMPDEST PUSH1 0x0 DUP2 PUSH1 0x60 SHL SWAP1 POP SWAP2 SWAP1 POP JUMP JUMPDEST PUSH1 0x0 PUSH2 0x2A82 DUP3 PUSH2 0x2A6A JUMP JUMPDEST SWAP1 POP SWAP2 SWAP1 POP JUMP JUMPDEST PUSH1 0x0 PUSH2 0x2A94 DUP3 PUSH2 0x2A77 JUMP JUMPDEST SWAP1 POP SWAP2 SWAP1 POP JUMP JUMPDEST PUSH2 0x2AAC PUSH2 0x2AA7 DUP3 PUSH2 0x25F4 JUMP JUMPDEST PUSH2 0x2A89 JUMP JUMPDEST DUP3 MSTORE POP POP JUMP JUMPDEST PUSH1 0x0 PUSH2 0x2ABE DUP3 DUP7 PUSH2 0x2A18 JUMP JUMPDEST SWAP2 POP PUSH2 0x2ACA DUP3 DUP6 PUSH2 0x2A53 JUMP JUMPDEST PUSH1 0x20 DUP3 ADD SWAP2 POP PUSH2 0x2ADA DUP3 DUP5 PUSH2 0x2A9B JUMP JUMPDEST PUSH1 0x14 DUP3 ADD SWAP2 POP DUP2 SWAP1 POP SWAP5 SWAP4 POP POP POP POP JUMP JUMPDEST PUSH1 0x0 DUP3 DUP3 MSTORE PUSH1 0x20 DUP3 ADD SWAP1 POP SWAP3 SWAP2 POP POP JUMP JUMPDEST PUSH1 0x0 PUSH2 0x2B07 DUP3 PUSH2 0x2A02 JUMP JUMPDEST PUSH2 0x2B11 DUP2 DUP6 PUSH2 0x2AEB JUMP JUMPDEST SWAP4 POP PUSH2 0x2B21 DUP2 DUP6 PUSH1 0x20 DUP7 ADD PUSH2 0x22D5 JUMP JUMPDEST PUSH2 0x2B2A DUP2 PUSH2 0x1D2D JUMP JUMPDEST DUP5 ADD SWAP2 POP POP SWAP3 SWAP2 POP POP JUMP JUMPDEST PUSH2 0x2B3E DUP2 PUSH2 0x239D JUMP JUMPDEST DUP3 MSTORE POP POP JUMP JUMPDEST PUSH1 0x0 PUSH1 0x40 DUP3 ADD SWAP1 POP DUP2 DUP2 SUB PUSH1 0x0 DUP4 ADD MSTORE PUSH2 0x2B5E DUP2 DUP6 PUSH2 0x2AFC JUMP JUMPDEST SWAP1 POP PUSH2 0x2B6D PUSH1 0x20 DUP4 ADD DUP5 PUSH2 0x2B35 JUMP JUMPDEST SWAP4 SWAP3 POP POP POP JUMP JUMPDEST PUSH1 0x0 PUSH2 0x2B7F DUP3 PUSH2 0x239D JUMP JUMPDEST SWAP2 POP PUSH2 0x2B8A DUP4 PUSH2 0x239D JUMP JUMPDEST SWAP3 POP DUP3 DUP3 SUB SWAP1 POP DUP2 DUP2 GT ISZERO PUSH2 0x2BA2 JUMPI PUSH2 0x2BA1 PUSH2 0x298B JUMP JUMPDEST JUMPDEST SWAP3 SWAP2 POP POP JUMP JUMPDEST PUSH1 0x0 DUP2 SWAP1 POP SWAP2 SWAP1 POP JUMP JUMPDEST PUSH1 0x0 PUSH2 0x2BBD DUP3 PUSH2 0x2BA8 JUMP JUMPDEST SWAP2 POP PUSH2 0x2BC8 DUP4 PUSH2 0x2BA8 JUMP JUMPDEST SWAP3 POP DUP3 DUP3 MUL PUSH2 0x2BD6 DUP2 PUSH2 0x2BA8 JUMP JUMPDEST SWAP2 POP PUSH32 0x8000000000000000000000000000000000000000000000000000000000000000 DUP5 EQ PUSH1 0x0 DUP5 SLT AND ISZERO PUSH2 0x2C0E JUMPI PUSH2 0x2C0D PUSH2 0x298B JUMP JUMPDEST JUMPDEST DUP3 DUP3 SDIV DUP5 EQ DUP4 ISZERO OR PUSH2 0x2C23 JUMPI PUSH2 0x2C22 PUSH2 0x298B JUMP JUMPDEST JUMPDEST POP SWAP3 SWAP2 POP POP JUMP JUMPDEST PUSH1 0x0 PUSH2 0x2C35 DUP3 PUSH2 0x239D JUMP JUMPDEST SWAP2 POP PUSH2 0x2C40 DUP4 PUSH2 0x239D JUMP JUMPDEST SWAP3 POP DUP3 DUP3 ADD SWAP1 POP DUP1 DUP3 GT ISZERO PUSH2 0x2C58 JUMPI PUSH2 0x2C57 PUSH2 0x298B JUMP JUMPDEST JUMPDEST SWAP3 SWAP2 POP POP JUMP INVALID PUSH12 0xD37CCE7436BA529478C54D39 PUSH10 0xF91F6B807DA4CB108D73 MSIZE CALLCODE LT SWAP15 0xB3 0x22 0xE5 0xDD 0xE9 SWAP13 0xC RETURNDATASIZE 0xD5 0xB7 OR EXTCODESIZE ADDMOD EXTCODECOPY CALLCODE SLOAD DUP5 0x2C PUSH12 0xD1257EDDD5308E3431C4CA97 0xE2 0xFB ADDRESS 0xA6 SSTORE 0xB0 SHL MSTORE 0xAE LOG1 DUP2 0xE1 MUL 0x5E SWAP14 RETURNDATASIZE 0xF7 ADDMOD 0x22 NUMBER 0xD4 0xE SLOAD DUP7 DUP9 RETURNDATASIZE DUP8 PUSH15 0x88C92BD0DAD6FEBBF48B2E9E225129 DUP1 STOP STOP STOP STOP STOP STOP STOP STOP STOP STOP STOP STOP STOP STOP STOP STOP STOP STOP STOP STOP STOP STOP STOP STOP STOP STOP STOP STOP STOP STOP STOP STOP STOP STOP STOP STOP STOP STOP STOP STOP STOP STOP STOP STOP STOP STOP STOP STOP STOP STOP STOP STOP STOP STOP STOP STOP STOP STOP STOP STOP STOP STOP STOP STOP STOP STOP STOP STOP STOP STOP STOP STOP STOP STOP STOP STOP STOP STOP STOP STOP STOP STOP STOP STOP STOP STOP STOP STOP ADD PUSH5 0x9420290310 ORIGIN PUSH2 0x2916 0x22 SLOAD GT SWAP6 STOP CHAINID PUSH19 0x18768306907220606612984880162663964403 0x22 KECCAK256 SLT PC DUP2 ADD 0x23 PUSH25 0x53583864381409872326875081600491180970229675744463 OR CALLVALUE PUSH25 0x29157791887698685274589761470323949923228218686854 SWAP7 SWAP1 STOP DUP5 DUP9 SSTORE SUB SWAP2 XOR DUP5 SELFBALANCE KECCAK256 CODESIZE PUSH20 0x278121199505516349412276518630550203049 JUMP SELFBALANCE SWAP6 SELFBALANCE DUP2 CALLDATACOPY PUSH8 0x8394182972409603 OR SWAP2 DUP9 PUSH10 0x58082876228581858471 SWAP4 PUSH2 0x3561 OR DUP2 0x26 DUP6 CALLDATALOAD CALLVALUE PUSH25 0x39509920886825013432451090005301571200896951888235 DUP1 BLOCKHASH CODESIZE SELFBALANCE CALLDATASIZE PUSH22 0x31249643805296638446891949726632723491917642 PUSH7 0x6013553049707 SWAP12 0xED PUSH20 0x3B48D69BDB03076CB17D9809072A5A765460BC72 SMOD 0x2D PUSH9 0x7DBA492AFE951D75B8 EQ CREATE2 PUSH2 0xF253 0xEE 0x5C 0xC0 RETURN 0xD7 SUB 0xB6 0xEA 0xB5 0xB5 0xDF PUSH4 0x5B03A543 PUSH29 0xA5C179309812F5B5C97650361C645BC99F806054DE21EB187BC0A704E 0xD3 DUP14 RETURNDATASIZE 0x4C 0x28 PUSH18 0xA117C19B6DA7E9A3D808481C46B22652D15B DUP10 SWAP11 0xD3 PUSH26 0x2DA5419E50EE38759560002388A264697066735822122074088B 0x23 0xD7 0xDE 0xA5 DUP6 ADD 0xBA 0xF 0xDD 0xAD CALLER MULMOD SWAP13 0xD4 0xB9 PUSH22 0xDC019ACDBAC950A3F20390927A64736F6C6343000811 STOP CALLER "},"methodIdentifiers":{"add(bytes,bytes)":"3b007d8e","checkEvery(string[][],(bytes,bool,uint256)[],(bytes,bool,uint256))":"e40d21c8","generator((bytes,bool,uint256))":"d5f679b1","hash(string,uint256,address)":"5dda416e","test()":"f8a8fd6d","test2()":"66e41cb7","verifyInvMod(bytes,bytes,bytes)":"41a3aa0c","verifyMembershipZKP(string,string[][],bytes[],string,string)":"26080434"}}}}}