{"contracts/VerifierZKPCorrectDecryption.sol":{"VerifierZKPCorrectDecryption":{"abi":[{"inputs":[{"internalType":"bytes","name":"_c","type":"bytes"},{"internalType":"bytes","name":"_ci","type":"bytes"},{"internalType":"bytes","name":"_R1","type":"bytes"},{"internalType":"bytes","name":"_R2","type":"bytes"},{"internalType":"bytes","name":"_z","type":"bytes"},{"internalType":"bytes","name":"_cc","type":"bytes"},{"internalType":"bytes","name":"_vki","type":"bytes"},{"internalType":"bytes","name":"_N","type":"bytes"},{"internalType":"bytes","name":"_delta","type":"bytes"},{"internalType":"bytes","name":"_vk","type":"bytes"}],"name":"verifyTx","outputs":[{"internalType":"bool","name":"","type":"bool"}],"stateMutability":"view","type":"function"}],"evm":{"bytecode":{"linkReferences":{},"object":"608060405234801561001057600080fd5b50611ac6806100206000396000f3fe608060405234801561001057600080fd5b506004361061002b5760003560e01c8063489cb67014610030575b600080fd5b61004a60048036038101906100459190611704565b610060565b6040516100579190611916565b60405180910390f35b60008061006f83858a886100e9565b9050600061007f8b888a89610164565b9050600061008f8e878c8a6101e9565b9050600061009f8c8f8c8b610281565b905060006100b6848661031a90919063ffffffff16565b80156100d157506100d0828461031a90919063ffffffff16565b5b905080955050505050509a9950505050505050505050565b6100f1611587565b60006100fe836000610346565b90506000610115828361036290919063ffffffff16565b90506000610154610127896000610346565b61014e610135896000610346565b6101408b6000610346565b61036290919063ffffffff16565b84610407565b9050809350505050949350505050565b61016c611587565b6000610179866000610346565b90506000610188866000610346565b90506000610197866000610346565b905060006101a6866000610346565b905060006101bd828361036290919063ffffffff16565b905060006101d6866101d0878786610407565b84610504565b9050809650505050505050949350505050565b6101f1611587565b60006101fe836000610346565b90506000610215828361036290919063ffffffff16565b90506000610271610227896000610346565b61026b6102516102388a6000610346565b6102438c6000610346565b61036290919063ffffffff16565b61025d60046000610528565b61036290919063ffffffff16565b84610407565b9050809350505050949350505050565b610289611587565b6000610296866000610346565b905060006102a5866000610346565b905060006102b4866000610346565b905060006102c3866000610346565b905060006102da828361036290919063ffffffff16565b9050600061030786610301876102fb6102f560026000610528565b89610362565b86610407565b84610504565b9050809650505050505050949350505050565b60008061032984846001610563565b90506000811461033a57600061033d565b60015b91505092915050565b61034e611587565b61035a83836000610740565b905092915050565b61036a611587565b6000610376848461080d565b9050600061039682610386610a35565b610391856002610a77565b610407565b90506103a2858561031a565b6103f15760006103b28686610af3565b905060006103d2826103c2610a35565b6103cd856002610a77565b610407565b90506103e86103e18483610af3565b6002610d42565b945050506103ff565b6103fc816002610d42565b92505b505092915050565b61040f611587565b600015158360200151151514801561042f57506000151582602001511515145b801561044557506104438260000151610ea4565b155b61044e57600080fd5b6000610467856000015185600001518560000151610efb565b9050600061047482610fd5565b90506000810361048f57610486611015565b925050506104fd565b856020015180156104a557506104a485611057565b5b156104da576104d16040518060600160405280848152602001600115158152602001838152508561080d565b925050506104fd565b604051806060016040528083815260200160001515815260200182815250925050505b9392505050565b61050c611587565b61051f6105198585610362565b8361106c565b90509392505050565b610530611587565b61055b83604051602001610544919061195c565b604051602081830303815290604052836000610740565b905092915050565b60008060019050821561062e5784602001518015610582575083602001515b156105af577fffffffffffffffffffffffffffffffffffffffffffffffffffffffffffffffff905061062d565b60001515856020015115151480156105cf57506001151584602001511515145b156105de576001915050610739565b60011515856020015115151480156105fe57506000151584602001511515145b1561062c577fffffffffffffffffffffffffffffffffffffffffffffffffffffffffffffffff915050610739565b5b5b8360400151856040015111156106475780915050610739565b84604001518460400151111561068b57807fffffffffffffffffffffffffffffffffffffffffffffffffffffffffffffffff61068391906119b0565b915050610739565b6000806000806000896000015151905060208a510194506020895101935060005b8181101561072d57808601519350808501519250828411156106d75786975050505050505050610739565b8383111561071957867fffffffffffffffffffffffffffffffffffffffffffffffffffffffffffffffff61070b91906119b0565b975050505050505050610739565b6020816107269190611a28565b90506106ac565b50600096505050505050505b9392505050565b610748611587565b602084018451600059600060208406146001811461077a57602084066020036020818401019350808501835250610784565b6020820192508382525b508282848660046101c2fa506020815101810160405280515b600060208214036107d0576000602083015114600181146107be57506107d0565b6020830192505060208103905061079d565b8082528186528760208701525050505050600082146107ef57816107fd565b6107fc8160000151610fd5565b5b8160400181815250509392505050565b610815611587565b6000836040015114801561082d575060008260400151145b156108415761083a611015565b9050610a2f565b600083604001510361085557819050610a2f565b600082604001510361086957829050610a2f565b606060008061087a86866000610563565b905085602001518061088d575084602001515b156109ba57856020015180156108a4575084602001515b1561090b57600081126108d5576108c886600001518660000151886040015161108e565b80935081945050506108f5565b6108ec85600001518760000151876040015161108e565b80935081945050505b60018460200190151590811515815250506109b5565b6001810361094657610925866000015186600001516111c4565b809350819450505085602001518460200190151590811515815250506109b4565b7fffffffffffffffffffffffffffffffffffffffffffffffffffffffffffffffff81036109a15761097f856000015187600001516111c4565b80935081945050508560200151158460200190151590811515815250506109b3565b6109a9611015565b9350505050610a2f565b5b5b610a18565b600081126109e6576109d986600001518660000151886040015161108e565b8093508194505050610a06565b6109fd85600001518760000151876040015161108e565b80935081945050505b60008460200190151590811515815250505b828460000181905250818460400181815250505050505b92915050565b610a3d611587565b6040518060600160405280604051806040016040528060208152602001600281525081526020016000151581526020016002815250905090565b610a7f611587565b6000604051806040016040528060208152602001600081525090506000836040860151029050600161010082061b6020600161010084040102835280602084015260208351018301604052506040518060600160405280838152602001600015158152602001828152509250505092915050565b610afb611587565b60008360400151148015610b13575060008260400151145b15610b2757610b20611015565b9050610d3c565b6060600080610b3886866000610563565b9150856020015180610b4b575084602001515b15610c825785602001518015610b62575084602001515b15610c0e5760018203610b9f57610b81866000015186600001516111c4565b80925081945050506001846020019015159081151581525050610c09565b7fffffffffffffffffffffffffffffffffffffffffffffffffffffffffffffffff8203610bf657610bd8856000015187600001516111c4565b80925081945050506000846020019015159081151581525050610c08565b610bfe611015565b9350505050610d3c565b5b610c7d565b60008212610c3a57610c2d86600001518660000151886040015161108e565b8092508194505050610c5a565b610c5185600001518760000151876040015161108e565b80925081945050505b8560200151610c6a576000610c6d565b60015b8460200190151590811515815250505b610d25565b60018203610cba57610c9c866000015186600001516111c4565b80925081945050506000846020019015159081151581525050610d24565b7fffffffffffffffffffffffffffffffffffffffffffffffffffffffffffffffff8203610d1157610cf3856000015187600001516111c4565b80925081945050506001846020019015159081151581525050610d23565b610d19611015565b9350505050610d3c565b5b5b828460000181905250808460400181815250505050505b92915050565b610d4a611587565b6000835151905083604001518310610d99576040518060600160405280604051806040016040528060208152602001600081525081526020016000151581526020016000815250915050610e9e565b828460400151610da99190611a5c565b846040018181525050610100831461010084111715610dda5760206101008404028103905080845152610100830692505b83516000600885061460018114610e4b576000808661010003858501865b600080821403610e41576020811460018114610e1a5760208303519550610e1f565b600095505b5081518a1c935084831b94508484178252602082039150602081039050610df8565b5050505050610e79565b6008850486518051602081018383018482038282848760046101c2fa6000601f840153848652505050505050505b5060208101600081511460018103610e9657602083510382528187525b505050839150505b92915050565b600080600060208401905060005b8451811015610eee57815192506000831115610ed45760009350505050610ef6565b602082019150602081610ee79190611a28565b9050610eb2565b506001925050505b919050565b606083518351835160405183815282602082015281604082015283606082018560208b0160046101c2fa84606001848184018660208c0160046101c2fa91508481019050838184018560208b0160046101c2fa91508160008103610f5b57fe5b5083810190508360608401828560056105465a03fa91508160008103610f7d57fe5b5083606084015b60006020831403610fb457600081511460018114610fa25750610fb4565b60208201915050602082039150610f84565b60208103985081895285856060010160405250505050505050509392505050565b6000610fe082610ea4565b15610fee5760009050611010565b600060208301519050611000816112ef565b9150600860208451030282019150505b919050565b61101d611587565b6040518060600160405280604051806040016040528060208152602001600081525081526020016000151581526020016000815250905090565b60008151518251016002815106915050919050565b611074611587565b61108683611080611545565b84610407565b905092915050565b606060006060596000600160000388518901885189018a5160208601018b515b60008082140361115a5783518c518e51038211600181146110f25787820184526001881482881416600181146110e757600098506110ec565b600198505b50611141565b8451888184010185528881038803831160018114611133576000821160008b111789851416600181146111285760009a5061112d565b60019a505b50611138565b600199505b50602086039550505b50602083039250602085039450506020810390506110ae565b5060008514600181146111705760018252611177565b6020870196505b50859650846020028c510187526020875101870160405260208701516001816101008d061c146001821417156111ae5760018b019a505b5050505050505080849250925050935093915050565b6060600060606000807fffffffffffffffffffffffffffffffffffffffffffffffffffffffffffffffff90505987518751808203828b01828b0184860160208101865b60008082140361129757845186821160018114611248578c8203855260018d1460008314166001811461123d5760009d50611242565b60019d505b5061127e565b85518d81840303865260018e148d8214168e8201841017600181146112705760009e50611275565b60019e505b50602087039650505b5060208403935060208603955050602081039050611207565b506020820191505b60008251036112bf5760208801975060208703965060208201915061129f565b879a50868b5280604052505050505050505060006112dc84610fd5565b9050838195509550505050509250929050565b60008082146001811461153a578260018403935060028404841793506004840484179350601084048417935061010084048417935062010000840484179350640100000000840484179350680100000000000000008404841793507001000000000000000000000000000000008404841793506001840193506040517ff8f9cbfae6cc78fbefe7cdc3a1793dfcf4f0e8bbd8cec470b6a28a7a5a3e1efd81527ff5ecf1b3e9debc68e1d9cfabc5997135bfb7a7a3938b7b606b5b4b3f2f1f0ffe60208201527ff6e4ed9ff2d6b458eadcdf97bd91692de2d4da8fd2d0ac50c6ae9a827252361660408201527fc8c0b887b0a8a4489c948c7f847c6125746c645c544c444038302820181008ff60608201527ff7cae577eec2a03cf3bad76fb589591debb2dd67e0aa9834bea6925f6a4a2e0e60808201527fe39ed557db96902cd38ed14fad815115c786af479b7e8324736353433727170760a08201527fc976c13bb96e881cb166a933a55e490d9d56952b8d4e801485467d236242260660c08201527f753a6d1b65325d0c552a4d1345224105391a310b29122104190a11030902010060e082015261010081016040527e818283848586878898a8b8c8d8e8f929395969799a9b9d9e9faaeb6bedeeff7f01000000000000000000000000000000000000000000000000000000000000008082880204818160ff038501510496507f800000000000000000000000000000000000000000000000000000000000000085116101000287019650600060018603861603611530576001870196505b505050505061153f565b600091505b50919050565b61154d611587565b6040518060600160405280604051806040016040528060208152602001600181525081526020016000151581526020016001815250905090565b604051806060016040528060608152602001600015158152602001600081525090565b6000604051905090565b600080fd5b600080fd5b600080fd5b600080fd5b6000601f19601f8301169050919050565b7f4e487b7100000000000000000000000000000000000000000000000000000000600052604160045260246000fd5b611611826115c8565b810181811067ffffffffffffffff821117156116305761162f6115d9565b5b80604052505050565b60006116436115aa565b905061164f8282611608565b919050565b600067ffffffffffffffff82111561166f5761166e6115d9565b5b611678826115c8565b9050602081019050919050565b82818337600083830152505050565b60006116a76116a284611654565b611639565b9050828152602081018484840111156116c3576116c26115c3565b5b6116ce848285611685565b509392505050565b600082601f8301126116eb576116ea6115be565b5b81356116fb848260208601611694565b91505092915050565b6000806000806000806000806000806101408b8d031215611728576117276115b4565b5b60008b013567ffffffffffffffff811115611746576117456115b9565b5b6117528d828e016116d6565b9a505060208b013567ffffffffffffffff811115611773576117726115b9565b5b61177f8d828e016116d6565b99505060408b013567ffffffffffffffff8111156117a05761179f6115b9565b5b6117ac8d828e016116d6565b98505060608b013567ffffffffffffffff8111156117cd576117cc6115b9565b5b6117d98d828e016116d6565b97505060808b013567ffffffffffffffff8111156117fa576117f96115b9565b5b6118068d828e016116d6565b96505060a08b013567ffffffffffffffff811115611827576118266115b9565b5b6118338d828e016116d6565b95505060c08b013567ffffffffffffffff811115611854576118536115b9565b5b6118608d828e016116d6565b94505060e08b013567ffffffffffffffff811115611881576118806115b9565b5b61188d8d828e016116d6565b9350506101008b013567ffffffffffffffff8111156118af576118ae6115b9565b5b6118bb8d828e016116d6565b9250506101208b013567ffffffffffffffff8111156118dd576118dc6115b9565b5b6118e98d828e016116d6565b9150509295989b9194979a5092959850565b60008115159050919050565b611910816118fb565b82525050565b600060208201905061192b6000830184611907565b92915050565b6000819050919050565b6000819050919050565b61195661195182611931565b61193b565b82525050565b60006119688284611945565b60208201915081905092915050565b6000819050919050565b7f4e487b7100000000000000000000000000000000000000000000000000000000600052601160045260246000fd5b60006119bb82611977565b91506119c683611977565b92508282026119d481611977565b91507f80000000000000000000000000000000000000000000000000000000000000008414600084121615611a0c57611a0b611981565b5b8282058414831517611a2157611a20611981565b5b5092915050565b6000611a3382611931565b9150611a3e83611931565b9250828201905080821115611a5657611a55611981565b5b92915050565b6000611a6782611931565b9150611a7283611931565b9250828203905081811115611a8a57611a89611981565b5b9291505056fea264697066735822122092f5614c0690534d1a883d18eedbc6f137be6eb7969936bb7a3639c3c97d734964736f6c63430008110033","opcodes":"PUSH1 0x80 PUSH1 0x40 MSTORE CALLVALUE DUP1 ISZERO PUSH2 0x10 JUMPI PUSH1 0x0 DUP1 REVERT JUMPDEST POP PUSH2 0x1AC6 DUP1 PUSH2 0x20 PUSH1 0x0 CODECOPY PUSH1 0x0 RETURN INVALID PUSH1 0x80 PUSH1 0x40 MSTORE CALLVALUE DUP1 ISZERO PUSH2 0x10 JUMPI PUSH1 0x0 DUP1 REVERT JUMPDEST POP PUSH1 0x4 CALLDATASIZE LT PUSH2 0x2B JUMPI PUSH1 0x0 CALLDATALOAD PUSH1 0xE0 SHR DUP1 PUSH4 0x489CB670 EQ PUSH2 0x30 JUMPI JUMPDEST PUSH1 0x0 DUP1 REVERT JUMPDEST PUSH2 0x4A PUSH1 0x4 DUP1 CALLDATASIZE SUB DUP2 ADD SWAP1 PUSH2 0x45 SWAP2 SWAP1 PUSH2 0x1704 JUMP JUMPDEST PUSH2 0x60 JUMP JUMPDEST PUSH1 0x40 MLOAD PUSH2 0x57 SWAP2 SWAP1 PUSH2 0x1916 JUMP JUMPDEST PUSH1 0x40 MLOAD DUP1 SWAP2 SUB SWAP1 RETURN JUMPDEST PUSH1 0x0 DUP1 PUSH2 0x6F DUP4 DUP6 DUP11 DUP9 PUSH2 0xE9 JUMP JUMPDEST SWAP1 POP PUSH1 0x0 PUSH2 0x7F DUP12 DUP9 DUP11 DUP10 PUSH2 0x164 JUMP JUMPDEST SWAP1 POP PUSH1 0x0 PUSH2 0x8F DUP15 DUP8 DUP13 DUP11 PUSH2 0x1E9 JUMP JUMPDEST SWAP1 POP PUSH1 0x0 PUSH2 0x9F DUP13 DUP16 DUP13 DUP12 PUSH2 0x281 JUMP JUMPDEST SWAP1 POP PUSH1 0x0 PUSH2 0xB6 DUP5 DUP7 PUSH2 0x31A SWAP1 SWAP2 SWAP1 PUSH4 0xFFFFFFFF AND JUMP JUMPDEST DUP1 ISZERO PUSH2 0xD1 JUMPI POP PUSH2 0xD0 DUP3 DUP5 PUSH2 0x31A SWAP1 SWAP2 SWAP1 PUSH4 0xFFFFFFFF AND JUMP JUMPDEST JUMPDEST SWAP1 POP DUP1 SWAP6 POP POP POP POP POP POP SWAP11 SWAP10 POP POP POP POP POP POP POP POP POP POP JUMP JUMPDEST PUSH2 0xF1 PUSH2 0x1587 JUMP JUMPDEST PUSH1 0x0 PUSH2 0xFE DUP4 PUSH1 0x0 PUSH2 0x346 JUMP JUMPDEST SWAP1 POP PUSH1 0x0 PUSH2 0x115 DUP3 DUP4 PUSH2 0x362 SWAP1 SWAP2 SWAP1 PUSH4 0xFFFFFFFF AND JUMP JUMPDEST SWAP1 POP PUSH1 0x0 PUSH2 0x154 PUSH2 0x127 DUP10 PUSH1 0x0 PUSH2 0x346 JUMP JUMPDEST PUSH2 0x14E PUSH2 0x135 DUP10 PUSH1 0x0 PUSH2 0x346 JUMP JUMPDEST PUSH2 0x140 DUP12 PUSH1 0x0 PUSH2 0x346 JUMP JUMPDEST PUSH2 0x362 SWAP1 SWAP2 SWAP1 PUSH4 0xFFFFFFFF AND JUMP JUMPDEST DUP5 PUSH2 0x407 JUMP JUMPDEST SWAP1 POP DUP1 SWAP4 POP POP POP POP SWAP5 SWAP4 POP POP POP POP JUMP JUMPDEST PUSH2 0x16C PUSH2 0x1587 JUMP JUMPDEST PUSH1 0x0 PUSH2 0x179 DUP7 PUSH1 0x0 PUSH2 0x346 JUMP JUMPDEST SWAP1 POP PUSH1 0x0 PUSH2 0x188 DUP7 PUSH1 0x0 PUSH2 0x346 JUMP JUMPDEST SWAP1 POP PUSH1 0x0 PUSH2 0x197 DUP7 PUSH1 0x0 PUSH2 0x346 JUMP JUMPDEST SWAP1 POP PUSH1 0x0 PUSH2 0x1A6 DUP7 PUSH1 0x0 PUSH2 0x346 JUMP JUMPDEST SWAP1 POP PUSH1 0x0 PUSH2 0x1BD DUP3 DUP4 PUSH2 0x362 SWAP1 SWAP2 SWAP1 PUSH4 0xFFFFFFFF AND JUMP JUMPDEST SWAP1 POP PUSH1 0x0 PUSH2 0x1D6 DUP7 PUSH2 0x1D0 DUP8 DUP8 DUP7 PUSH2 0x407 JUMP JUMPDEST DUP5 PUSH2 0x504 JUMP JUMPDEST SWAP1 POP DUP1 SWAP7 POP POP POP POP POP POP POP SWAP5 SWAP4 POP POP POP POP JUMP JUMPDEST PUSH2 0x1F1 PUSH2 0x1587 JUMP JUMPDEST PUSH1 0x0 PUSH2 0x1FE DUP4 PUSH1 0x0 PUSH2 0x346 JUMP JUMPDEST SWAP1 POP PUSH1 0x0 PUSH2 0x215 DUP3 DUP4 PUSH2 0x362 SWAP1 SWAP2 SWAP1 PUSH4 0xFFFFFFFF AND JUMP JUMPDEST SWAP1 POP PUSH1 0x0 PUSH2 0x271 PUSH2 0x227 DUP10 PUSH1 0x0 PUSH2 0x346 JUMP JUMPDEST PUSH2 0x26B PUSH2 0x251 PUSH2 0x238 DUP11 PUSH1 0x0 PUSH2 0x346 JUMP JUMPDEST PUSH2 0x243 DUP13 PUSH1 0x0 PUSH2 0x346 JUMP JUMPDEST PUSH2 0x362 SWAP1 SWAP2 SWAP1 PUSH4 0xFFFFFFFF AND JUMP JUMPDEST PUSH2 0x25D PUSH1 0x4 PUSH1 0x0 PUSH2 0x528 JUMP JUMPDEST PUSH2 0x362 SWAP1 SWAP2 SWAP1 PUSH4 0xFFFFFFFF AND JUMP JUMPDEST DUP5 PUSH2 0x407 JUMP JUMPDEST SWAP1 POP DUP1 SWAP4 POP POP POP POP SWAP5 SWAP4 POP POP POP POP JUMP JUMPDEST PUSH2 0x289 PUSH2 0x1587 JUMP JUMPDEST PUSH1 0x0 PUSH2 0x296 DUP7 PUSH1 0x0 PUSH2 0x346 JUMP JUMPDEST SWAP1 POP PUSH1 0x0 PUSH2 0x2A5 DUP7 PUSH1 0x0 PUSH2 0x346 JUMP JUMPDEST SWAP1 POP PUSH1 0x0 PUSH2 0x2B4 DUP7 PUSH1 0x0 PUSH2 0x346 JUMP JUMPDEST SWAP1 POP PUSH1 0x0 PUSH2 0x2C3 DUP7 PUSH1 0x0 PUSH2 0x346 JUMP JUMPDEST SWAP1 POP PUSH1 0x0 PUSH2 0x2DA DUP3 DUP4 PUSH2 0x362 SWAP1 SWAP2 SWAP1 PUSH4 0xFFFFFFFF AND JUMP JUMPDEST SWAP1 POP PUSH1 0x0 PUSH2 0x307 DUP7 PUSH2 0x301 DUP8 PUSH2 0x2FB PUSH2 0x2F5 PUSH1 0x2 PUSH1 0x0 PUSH2 0x528 JUMP JUMPDEST DUP10 PUSH2 0x362 JUMP JUMPDEST DUP7 PUSH2 0x407 JUMP JUMPDEST DUP5 PUSH2 0x504 JUMP JUMPDEST SWAP1 POP DUP1 SWAP7 POP POP POP POP POP POP POP SWAP5 SWAP4 POP POP POP POP JUMP JUMPDEST PUSH1 0x0 DUP1 PUSH2 0x329 DUP5 DUP5 PUSH1 0x1 PUSH2 0x563 JUMP JUMPDEST SWAP1 POP PUSH1 0x0 DUP2 EQ PUSH2 0x33A JUMPI PUSH1 0x0 PUSH2 0x33D JUMP JUMPDEST PUSH1 0x1 JUMPDEST SWAP2 POP POP SWAP3 SWAP2 POP POP JUMP JUMPDEST PUSH2 0x34E PUSH2 0x1587 JUMP JUMPDEST PUSH2 0x35A DUP4 DUP4 PUSH1 0x0 PUSH2 0x740 JUMP JUMPDEST SWAP1 POP SWAP3 SWAP2 POP POP JUMP JUMPDEST PUSH2 0x36A PUSH2 0x1587 JUMP JUMPDEST PUSH1 0x0 PUSH2 0x376 DUP5 DUP5 PUSH2 0x80D JUMP JUMPDEST SWAP1 POP PUSH1 0x0 PUSH2 0x396 DUP3 PUSH2 0x386 PUSH2 0xA35 JUMP JUMPDEST PUSH2 0x391 DUP6 PUSH1 0x2 PUSH2 0xA77 JUMP JUMPDEST PUSH2 0x407 JUMP JUMPDEST SWAP1 POP PUSH2 0x3A2 DUP6 DUP6 PUSH2 0x31A JUMP JUMPDEST PUSH2 0x3F1 JUMPI PUSH1 0x0 PUSH2 0x3B2 DUP7 DUP7 PUSH2 0xAF3 JUMP JUMPDEST SWAP1 POP PUSH1 0x0 PUSH2 0x3D2 DUP3 PUSH2 0x3C2 PUSH2 0xA35 JUMP JUMPDEST PUSH2 0x3CD DUP6 PUSH1 0x2 PUSH2 0xA77 JUMP JUMPDEST PUSH2 0x407 JUMP JUMPDEST SWAP1 POP PUSH2 0x3E8 PUSH2 0x3E1 DUP5 DUP4 PUSH2 0xAF3 JUMP JUMPDEST PUSH1 0x2 PUSH2 0xD42 JUMP JUMPDEST SWAP5 POP POP POP PUSH2 0x3FF JUMP JUMPDEST PUSH2 0x3FC DUP2 PUSH1 0x2 PUSH2 0xD42 JUMP JUMPDEST SWAP3 POP JUMPDEST POP POP SWAP3 SWAP2 POP POP JUMP JUMPDEST PUSH2 0x40F PUSH2 0x1587 JUMP JUMPDEST PUSH1 0x0 ISZERO ISZERO DUP4 PUSH1 0x20 ADD MLOAD ISZERO ISZERO EQ DUP1 ISZERO PUSH2 0x42F JUMPI POP PUSH1 0x0 ISZERO ISZERO DUP3 PUSH1 0x20 ADD MLOAD ISZERO ISZERO EQ JUMPDEST DUP1 ISZERO PUSH2 0x445 JUMPI POP PUSH2 0x443 DUP3 PUSH1 0x0 ADD MLOAD PUSH2 0xEA4 JUMP JUMPDEST ISZERO JUMPDEST PUSH2 0x44E JUMPI PUSH1 0x0 DUP1 REVERT JUMPDEST PUSH1 0x0 PUSH2 0x467 DUP6 PUSH1 0x0 ADD MLOAD DUP6 PUSH1 0x0 ADD MLOAD DUP6 PUSH1 0x0 ADD MLOAD PUSH2 0xEFB JUMP JUMPDEST SWAP1 POP PUSH1 0x0 PUSH2 0x474 DUP3 PUSH2 0xFD5 JUMP JUMPDEST SWAP1 POP PUSH1 0x0 DUP2 SUB PUSH2 0x48F JUMPI PUSH2 0x486 PUSH2 0x1015 JUMP JUMPDEST SWAP3 POP POP POP PUSH2 0x4FD JUMP JUMPDEST DUP6 PUSH1 0x20 ADD MLOAD DUP1 ISZERO PUSH2 0x4A5 JUMPI POP PUSH2 0x4A4 DUP6 PUSH2 0x1057 JUMP JUMPDEST JUMPDEST ISZERO PUSH2 0x4DA JUMPI PUSH2 0x4D1 PUSH1 0x40 MLOAD DUP1 PUSH1 0x60 ADD PUSH1 0x40 MSTORE DUP1 DUP5 DUP2 MSTORE PUSH1 0x20 ADD PUSH1 0x1 ISZERO ISZERO DUP2 MSTORE PUSH1 0x20 ADD DUP4 DUP2 MSTORE POP DUP6 PUSH2 0x80D JUMP JUMPDEST SWAP3 POP POP POP PUSH2 0x4FD JUMP JUMPDEST PUSH1 0x40 MLOAD DUP1 PUSH1 0x60 ADD PUSH1 0x40 MSTORE DUP1 DUP4 DUP2 MSTORE PUSH1 0x20 ADD PUSH1 0x0 ISZERO ISZERO DUP2 MSTORE PUSH1 0x20 ADD DUP3 DUP2 MSTORE POP SWAP3 POP POP POP JUMPDEST SWAP4 SWAP3 POP POP POP JUMP JUMPDEST PUSH2 0x50C PUSH2 0x1587 JUMP JUMPDEST PUSH2 0x51F PUSH2 0x519 DUP6 DUP6 PUSH2 0x362 JUMP JUMPDEST DUP4 PUSH2 0x106C JUMP JUMPDEST SWAP1 POP SWAP4 SWAP3 POP POP POP JUMP JUMPDEST PUSH2 0x530 PUSH2 0x1587 JUMP JUMPDEST PUSH2 0x55B DUP4 PUSH1 0x40 MLOAD PUSH1 0x20 ADD PUSH2 0x544 SWAP2 SWAP1 PUSH2 0x195C JUMP JUMPDEST PUSH1 0x40 MLOAD PUSH1 0x20 DUP2 DUP4 SUB SUB DUP2 MSTORE SWAP1 PUSH1 0x40 MSTORE DUP4 PUSH1 0x0 PUSH2 0x740 JUMP JUMPDEST SWAP1 POP SWAP3 SWAP2 POP POP JUMP JUMPDEST PUSH1 0x0 DUP1 PUSH1 0x1 SWAP1 POP DUP3 ISZERO PUSH2 0x62E JUMPI DUP5 PUSH1 0x20 ADD MLOAD DUP1 ISZERO PUSH2 0x582 JUMPI POP DUP4 PUSH1 0x20 ADD MLOAD JUMPDEST ISZERO PUSH2 0x5AF JUMPI PUSH32 0xFFFFFFFFFFFFFFFFFFFFFFFFFFFFFFFFFFFFFFFFFFFFFFFFFFFFFFFFFFFFFFFF SWAP1 POP PUSH2 0x62D JUMP JUMPDEST PUSH1 0x0 ISZERO ISZERO DUP6 PUSH1 0x20 ADD MLOAD ISZERO ISZERO EQ DUP1 ISZERO PUSH2 0x5CF JUMPI POP PUSH1 0x1 ISZERO ISZERO DUP5 PUSH1 0x20 ADD MLOAD ISZERO ISZERO EQ JUMPDEST ISZERO PUSH2 0x5DE JUMPI PUSH1 0x1 SWAP2 POP POP PUSH2 0x739 JUMP JUMPDEST PUSH1 0x1 ISZERO ISZERO DUP6 PUSH1 0x20 ADD MLOAD ISZERO ISZERO EQ DUP1 ISZERO PUSH2 0x5FE JUMPI POP PUSH1 0x0 ISZERO ISZERO DUP5 PUSH1 0x20 ADD MLOAD ISZERO ISZERO EQ JUMPDEST ISZERO PUSH2 0x62C JUMPI PUSH32 0xFFFFFFFFFFFFFFFFFFFFFFFFFFFFFFFFFFFFFFFFFFFFFFFFFFFFFFFFFFFFFFFF SWAP2 POP POP PUSH2 0x739 JUMP JUMPDEST JUMPDEST JUMPDEST DUP4 PUSH1 0x40 ADD MLOAD DUP6 PUSH1 0x40 ADD MLOAD GT ISZERO PUSH2 0x647 JUMPI DUP1 SWAP2 POP POP PUSH2 0x739 JUMP JUMPDEST DUP5 PUSH1 0x40 ADD MLOAD DUP5 PUSH1 0x40 ADD MLOAD GT ISZERO PUSH2 0x68B JUMPI DUP1 PUSH32 0xFFFFFFFFFFFFFFFFFFFFFFFFFFFFFFFFFFFFFFFFFFFFFFFFFFFFFFFFFFFFFFFF PUSH2 0x683 SWAP2 SWAP1 PUSH2 0x19B0 JUMP JUMPDEST SWAP2 POP POP PUSH2 0x739 JUMP JUMPDEST PUSH1 0x0 DUP1 PUSH1 0x0 DUP1 PUSH1 0x0 DUP10 PUSH1 0x0 ADD MLOAD MLOAD SWAP1 POP PUSH1 0x20 DUP11 MLOAD ADD SWAP5 POP PUSH1 0x20 DUP10 MLOAD ADD SWAP4 POP PUSH1 0x0 JUMPDEST DUP2 DUP2 LT ISZERO PUSH2 0x72D JUMPI DUP1 DUP7 ADD MLOAD SWAP4 POP DUP1 DUP6 ADD MLOAD SWAP3 POP DUP3 DUP5 GT ISZERO PUSH2 0x6D7 JUMPI DUP7 SWAP8 POP POP POP POP POP POP POP POP PUSH2 0x739 JUMP JUMPDEST DUP4 DUP4 GT ISZERO PUSH2 0x719 JUMPI DUP7 PUSH32 0xFFFFFFFFFFFFFFFFFFFFFFFFFFFFFFFFFFFFFFFFFFFFFFFFFFFFFFFFFFFFFFFF PUSH2 0x70B SWAP2 SWAP1 PUSH2 0x19B0 JUMP JUMPDEST SWAP8 POP POP POP POP POP POP POP POP PUSH2 0x739 JUMP JUMPDEST PUSH1 0x20 DUP2 PUSH2 0x726 SWAP2 SWAP1 PUSH2 0x1A28 JUMP JUMPDEST SWAP1 POP PUSH2 0x6AC JUMP JUMPDEST POP PUSH1 0x0 SWAP7 POP POP POP POP POP POP POP JUMPDEST SWAP4 SWAP3 POP POP POP JUMP JUMPDEST PUSH2 0x748 PUSH2 0x1587 JUMP JUMPDEST PUSH1 0x20 DUP5 ADD DUP5 MLOAD PUSH1 0x0 MSIZE PUSH1 0x0 PUSH1 0x20 DUP5 MOD EQ PUSH1 0x1 DUP2 EQ PUSH2 0x77A JUMPI PUSH1 0x20 DUP5 MOD PUSH1 0x20 SUB PUSH1 0x20 DUP2 DUP5 ADD ADD SWAP4 POP DUP1 DUP6 ADD DUP4 MSTORE POP PUSH2 0x784 JUMP JUMPDEST PUSH1 0x20 DUP3 ADD SWAP3 POP DUP4 DUP3 MSTORE JUMPDEST POP DUP3 DUP3 DUP5 DUP7 PUSH1 0x4 PUSH2 0x1C2 STATICCALL POP PUSH1 0x20 DUP2 MLOAD ADD DUP2 ADD PUSH1 0x40 MSTORE DUP1 MLOAD JUMPDEST PUSH1 0x0 PUSH1 0x20 DUP3 EQ SUB PUSH2 0x7D0 JUMPI PUSH1 0x0 PUSH1 0x20 DUP4 ADD MLOAD EQ PUSH1 0x1 DUP2 EQ PUSH2 0x7BE JUMPI POP PUSH2 0x7D0 JUMP JUMPDEST PUSH1 0x20 DUP4 ADD SWAP3 POP POP PUSH1 0x20 DUP2 SUB SWAP1 POP PUSH2 0x79D JUMP JUMPDEST DUP1 DUP3 MSTORE DUP2 DUP7 MSTORE DUP8 PUSH1 0x20 DUP8 ADD MSTORE POP POP POP POP POP PUSH1 0x0 DUP3 EQ PUSH2 0x7EF JUMPI DUP2 PUSH2 0x7FD JUMP JUMPDEST PUSH2 0x7FC DUP2 PUSH1 0x0 ADD MLOAD PUSH2 0xFD5 JUMP JUMPDEST JUMPDEST DUP2 PUSH1 0x40 ADD DUP2 DUP2 MSTORE POP POP SWAP4 SWAP3 POP POP POP JUMP JUMPDEST PUSH2 0x815 PUSH2 0x1587 JUMP JUMPDEST PUSH1 0x0 DUP4 PUSH1 0x40 ADD MLOAD EQ DUP1 ISZERO PUSH2 0x82D JUMPI POP PUSH1 0x0 DUP3 PUSH1 0x40 ADD MLOAD EQ JUMPDEST ISZERO PUSH2 0x841 JUMPI PUSH2 0x83A PUSH2 0x1015 JUMP JUMPDEST SWAP1 POP PUSH2 0xA2F JUMP JUMPDEST PUSH1 0x0 DUP4 PUSH1 0x40 ADD MLOAD SUB PUSH2 0x855 JUMPI DUP2 SWAP1 POP PUSH2 0xA2F JUMP JUMPDEST PUSH1 0x0 DUP3 PUSH1 0x40 ADD MLOAD SUB PUSH2 0x869 JUMPI DUP3 SWAP1 POP PUSH2 0xA2F JUMP JUMPDEST PUSH1 0x60 PUSH1 0x0 DUP1 PUSH2 0x87A DUP7 DUP7 PUSH1 0x0 PUSH2 0x563 JUMP JUMPDEST SWAP1 POP DUP6 PUSH1 0x20 ADD MLOAD DUP1 PUSH2 0x88D JUMPI POP DUP5 PUSH1 0x20 ADD MLOAD JUMPDEST ISZERO PUSH2 0x9BA JUMPI DUP6 PUSH1 0x20 ADD MLOAD DUP1 ISZERO PUSH2 0x8A4 JUMPI POP DUP5 PUSH1 0x20 ADD MLOAD JUMPDEST ISZERO PUSH2 0x90B JUMPI PUSH1 0x0 DUP2 SLT PUSH2 0x8D5 JUMPI PUSH2 0x8C8 DUP7 PUSH1 0x0 ADD MLOAD DUP7 PUSH1 0x0 ADD MLOAD DUP9 PUSH1 0x40 ADD MLOAD PUSH2 0x108E JUMP JUMPDEST DUP1 SWAP4 POP DUP2 SWAP5 POP POP POP PUSH2 0x8F5 JUMP JUMPDEST PUSH2 0x8EC DUP6 PUSH1 0x0 ADD MLOAD DUP8 PUSH1 0x0 ADD MLOAD DUP8 PUSH1 0x40 ADD MLOAD PUSH2 0x108E JUMP JUMPDEST DUP1 SWAP4 POP DUP2 SWAP5 POP POP POP JUMPDEST PUSH1 0x1 DUP5 PUSH1 0x20 ADD SWAP1 ISZERO ISZERO SWAP1 DUP2 ISZERO ISZERO DUP2 MSTORE POP POP PUSH2 0x9B5 JUMP JUMPDEST PUSH1 0x1 DUP2 SUB PUSH2 0x946 JUMPI PUSH2 0x925 DUP7 PUSH1 0x0 ADD MLOAD DUP7 PUSH1 0x0 ADD MLOAD PUSH2 0x11C4 JUMP JUMPDEST DUP1 SWAP4 POP DUP2 SWAP5 POP POP POP DUP6 PUSH1 0x20 ADD MLOAD DUP5 PUSH1 0x20 ADD SWAP1 ISZERO ISZERO SWAP1 DUP2 ISZERO ISZERO DUP2 MSTORE POP POP PUSH2 0x9B4 JUMP JUMPDEST PUSH32 0xFFFFFFFFFFFFFFFFFFFFFFFFFFFFFFFFFFFFFFFFFFFFFFFFFFFFFFFFFFFFFFFF DUP2 SUB PUSH2 0x9A1 JUMPI PUSH2 0x97F DUP6 PUSH1 0x0 ADD MLOAD DUP8 PUSH1 0x0 ADD MLOAD PUSH2 0x11C4 JUMP JUMPDEST DUP1 SWAP4 POP DUP2 SWAP5 POP POP POP DUP6 PUSH1 0x20 ADD MLOAD ISZERO DUP5 PUSH1 0x20 ADD SWAP1 ISZERO ISZERO SWAP1 DUP2 ISZERO ISZERO DUP2 MSTORE POP POP PUSH2 0x9B3 JUMP JUMPDEST PUSH2 0x9A9 PUSH2 0x1015 JUMP JUMPDEST SWAP4 POP POP POP POP PUSH2 0xA2F JUMP JUMPDEST JUMPDEST JUMPDEST PUSH2 0xA18 JUMP JUMPDEST PUSH1 0x0 DUP2 SLT PUSH2 0x9E6 JUMPI PUSH2 0x9D9 DUP7 PUSH1 0x0 ADD MLOAD DUP7 PUSH1 0x0 ADD MLOAD DUP9 PUSH1 0x40 ADD MLOAD PUSH2 0x108E JUMP JUMPDEST DUP1 SWAP4 POP DUP2 SWAP5 POP POP POP PUSH2 0xA06 JUMP JUMPDEST PUSH2 0x9FD DUP6 PUSH1 0x0 ADD MLOAD DUP8 PUSH1 0x0 ADD MLOAD DUP8 PUSH1 0x40 ADD MLOAD PUSH2 0x108E JUMP JUMPDEST DUP1 SWAP4 POP DUP2 SWAP5 POP POP POP JUMPDEST PUSH1 0x0 DUP5 PUSH1 0x20 ADD SWAP1 ISZERO ISZERO SWAP1 DUP2 ISZERO ISZERO DUP2 MSTORE POP POP JUMPDEST DUP3 DUP5 PUSH1 0x0 ADD DUP2 SWAP1 MSTORE POP DUP2 DUP5 PUSH1 0x40 ADD DUP2 DUP2 MSTORE POP POP POP POP POP JUMPDEST SWAP3 SWAP2 POP POP JUMP JUMPDEST PUSH2 0xA3D PUSH2 0x1587 JUMP JUMPDEST PUSH1 0x40 MLOAD DUP1 PUSH1 0x60 ADD PUSH1 0x40 MSTORE DUP1 PUSH1 0x40 MLOAD DUP1 PUSH1 0x40 ADD PUSH1 0x40 MSTORE DUP1 PUSH1 0x20 DUP2 MSTORE PUSH1 0x20 ADD PUSH1 0x2 DUP2 MSTORE POP DUP2 MSTORE PUSH1 0x20 ADD PUSH1 0x0 ISZERO ISZERO DUP2 MSTORE PUSH1 0x20 ADD PUSH1 0x2 DUP2 MSTORE POP SWAP1 POP SWAP1 JUMP JUMPDEST PUSH2 0xA7F PUSH2 0x1587 JUMP JUMPDEST PUSH1 0x0 PUSH1 0x40 MLOAD DUP1 PUSH1 0x40 ADD PUSH1 0x40 MSTORE DUP1 PUSH1 0x20 DUP2 MSTORE PUSH1 0x20 ADD PUSH1 0x0 DUP2 MSTORE POP SWAP1 POP PUSH1 0x0 DUP4 PUSH1 0x40 DUP7 ADD MLOAD MUL SWAP1 POP PUSH1 0x1 PUSH2 0x100 DUP3 MOD SHL PUSH1 0x20 PUSH1 0x1 PUSH2 0x100 DUP5 DIV ADD MUL DUP4 MSTORE DUP1 PUSH1 0x20 DUP5 ADD MSTORE PUSH1 0x20 DUP4 MLOAD ADD DUP4 ADD PUSH1 0x40 MSTORE POP PUSH1 0x40 MLOAD DUP1 PUSH1 0x60 ADD PUSH1 0x40 MSTORE DUP1 DUP4 DUP2 MSTORE PUSH1 0x20 ADD PUSH1 0x0 ISZERO ISZERO DUP2 MSTORE PUSH1 0x20 ADD DUP3 DUP2 MSTORE POP SWAP3 POP POP POP SWAP3 SWAP2 POP POP JUMP JUMPDEST PUSH2 0xAFB PUSH2 0x1587 JUMP JUMPDEST PUSH1 0x0 DUP4 PUSH1 0x40 ADD MLOAD EQ DUP1 ISZERO PUSH2 0xB13 JUMPI POP PUSH1 0x0 DUP3 PUSH1 0x40 ADD MLOAD EQ JUMPDEST ISZERO PUSH2 0xB27 JUMPI PUSH2 0xB20 PUSH2 0x1015 JUMP JUMPDEST SWAP1 POP PUSH2 0xD3C JUMP JUMPDEST PUSH1 0x60 PUSH1 0x0 DUP1 PUSH2 0xB38 DUP7 DUP7 PUSH1 0x0 PUSH2 0x563 JUMP JUMPDEST SWAP2 POP DUP6 PUSH1 0x20 ADD MLOAD DUP1 PUSH2 0xB4B JUMPI POP DUP5 PUSH1 0x20 ADD MLOAD JUMPDEST ISZERO PUSH2 0xC82 JUMPI DUP6 PUSH1 0x20 ADD MLOAD DUP1 ISZERO PUSH2 0xB62 JUMPI POP DUP5 PUSH1 0x20 ADD MLOAD JUMPDEST ISZERO PUSH2 0xC0E JUMPI PUSH1 0x1 DUP3 SUB PUSH2 0xB9F JUMPI PUSH2 0xB81 DUP7 PUSH1 0x0 ADD MLOAD DUP7 PUSH1 0x0 ADD MLOAD PUSH2 0x11C4 JUMP JUMPDEST DUP1 SWAP3 POP DUP2 SWAP5 POP POP POP PUSH1 0x1 DUP5 PUSH1 0x20 ADD SWAP1 ISZERO ISZERO SWAP1 DUP2 ISZERO ISZERO DUP2 MSTORE POP POP PUSH2 0xC09 JUMP JUMPDEST PUSH32 0xFFFFFFFFFFFFFFFFFFFFFFFFFFFFFFFFFFFFFFFFFFFFFFFFFFFFFFFFFFFFFFFF DUP3 SUB PUSH2 0xBF6 JUMPI PUSH2 0xBD8 DUP6 PUSH1 0x0 ADD MLOAD DUP8 PUSH1 0x0 ADD MLOAD PUSH2 0x11C4 JUMP JUMPDEST DUP1 SWAP3 POP DUP2 SWAP5 POP POP POP PUSH1 0x0 DUP5 PUSH1 0x20 ADD SWAP1 ISZERO ISZERO SWAP1 DUP2 ISZERO ISZERO DUP2 MSTORE POP POP PUSH2 0xC08 JUMP JUMPDEST PUSH2 0xBFE PUSH2 0x1015 JUMP JUMPDEST SWAP4 POP POP POP POP PUSH2 0xD3C JUMP JUMPDEST JUMPDEST PUSH2 0xC7D JUMP JUMPDEST PUSH1 0x0 DUP3 SLT PUSH2 0xC3A JUMPI PUSH2 0xC2D DUP7 PUSH1 0x0 ADD MLOAD DUP7 PUSH1 0x0 ADD MLOAD DUP9 PUSH1 0x40 ADD MLOAD PUSH2 0x108E JUMP JUMPDEST DUP1 SWAP3 POP DUP2 SWAP5 POP POP POP PUSH2 0xC5A JUMP JUMPDEST PUSH2 0xC51 DUP6 PUSH1 0x0 ADD MLOAD DUP8 PUSH1 0x0 ADD MLOAD DUP8 PUSH1 0x40 ADD MLOAD PUSH2 0x108E JUMP JUMPDEST DUP1 SWAP3 POP DUP2 SWAP5 POP POP POP JUMPDEST DUP6 PUSH1 0x20 ADD MLOAD PUSH2 0xC6A JUMPI PUSH1 0x0 PUSH2 0xC6D JUMP JUMPDEST PUSH1 0x1 JUMPDEST DUP5 PUSH1 0x20 ADD SWAP1 ISZERO ISZERO SWAP1 DUP2 ISZERO ISZERO DUP2 MSTORE POP POP JUMPDEST PUSH2 0xD25 JUMP JUMPDEST PUSH1 0x1 DUP3 SUB PUSH2 0xCBA JUMPI PUSH2 0xC9C DUP7 PUSH1 0x0 ADD MLOAD DUP7 PUSH1 0x0 ADD MLOAD PUSH2 0x11C4 JUMP JUMPDEST DUP1 SWAP3 POP DUP2 SWAP5 POP POP POP PUSH1 0x0 DUP5 PUSH1 0x20 ADD SWAP1 ISZERO ISZERO SWAP1 DUP2 ISZERO ISZERO DUP2 MSTORE POP POP PUSH2 0xD24 JUMP JUMPDEST PUSH32 0xFFFFFFFFFFFFFFFFFFFFFFFFFFFFFFFFFFFFFFFFFFFFFFFFFFFFFFFFFFFFFFFF DUP3 SUB PUSH2 0xD11 JUMPI PUSH2 0xCF3 DUP6 PUSH1 0x0 ADD MLOAD DUP8 PUSH1 0x0 ADD MLOAD PUSH2 0x11C4 JUMP JUMPDEST DUP1 SWAP3 POP DUP2 SWAP5 POP POP POP PUSH1 0x1 DUP5 PUSH1 0x20 ADD SWAP1 ISZERO ISZERO SWAP1 DUP2 ISZERO ISZERO DUP2 MSTORE POP POP PUSH2 0xD23 JUMP JUMPDEST PUSH2 0xD19 PUSH2 0x1015 JUMP JUMPDEST SWAP4 POP POP POP POP PUSH2 0xD3C JUMP JUMPDEST JUMPDEST JUMPDEST DUP3 DUP5 PUSH1 0x0 ADD DUP2 SWAP1 MSTORE POP DUP1 DUP5 PUSH1 0x40 ADD DUP2 DUP2 MSTORE POP POP POP POP POP JUMPDEST SWAP3 SWAP2 POP POP JUMP JUMPDEST PUSH2 0xD4A PUSH2 0x1587 JUMP JUMPDEST PUSH1 0x0 DUP4 MLOAD MLOAD SWAP1 POP DUP4 PUSH1 0x40 ADD MLOAD DUP4 LT PUSH2 0xD99 JUMPI PUSH1 0x40 MLOAD DUP1 PUSH1 0x60 ADD PUSH1 0x40 MSTORE DUP1 PUSH1 0x40 MLOAD DUP1 PUSH1 0x40 ADD PUSH1 0x40 MSTORE DUP1 PUSH1 0x20 DUP2 MSTORE PUSH1 0x20 ADD PUSH1 0x0 DUP2 MSTORE POP DUP2 MSTORE PUSH1 0x20 ADD PUSH1 0x0 ISZERO ISZERO DUP2 MSTORE PUSH1 0x20 ADD PUSH1 0x0 DUP2 MSTORE POP SWAP2 POP POP PUSH2 0xE9E JUMP JUMPDEST DUP3 DUP5 PUSH1 0x40 ADD MLOAD PUSH2 0xDA9 SWAP2 SWAP1 PUSH2 0x1A5C JUMP JUMPDEST DUP5 PUSH1 0x40 ADD DUP2 DUP2 MSTORE POP POP PUSH2 0x100 DUP4 EQ PUSH2 0x100 DUP5 GT OR ISZERO PUSH2 0xDDA JUMPI PUSH1 0x20 PUSH2 0x100 DUP5 DIV MUL DUP2 SUB SWAP1 POP DUP1 DUP5 MLOAD MSTORE PUSH2 0x100 DUP4 MOD SWAP3 POP JUMPDEST DUP4 MLOAD PUSH1 0x0 PUSH1 0x8 DUP6 MOD EQ PUSH1 0x1 DUP2 EQ PUSH2 0xE4B JUMPI PUSH1 0x0 DUP1 DUP7 PUSH2 0x100 SUB DUP6 DUP6 ADD DUP7 JUMPDEST PUSH1 0x0 DUP1 DUP3 EQ SUB PUSH2 0xE41 JUMPI PUSH1 0x20 DUP2 EQ PUSH1 0x1 DUP2 EQ PUSH2 0xE1A JUMPI PUSH1 0x20 DUP4 SUB MLOAD SWAP6 POP PUSH2 0xE1F JUMP JUMPDEST PUSH1 0x0 SWAP6 POP JUMPDEST POP DUP2 MLOAD DUP11 SHR SWAP4 POP DUP5 DUP4 SHL SWAP5 POP DUP5 DUP5 OR DUP3 MSTORE PUSH1 0x20 DUP3 SUB SWAP2 POP PUSH1 0x20 DUP2 SUB SWAP1 POP PUSH2 0xDF8 JUMP JUMPDEST POP POP POP POP POP PUSH2 0xE79 JUMP JUMPDEST PUSH1 0x8 DUP6 DIV DUP7 MLOAD DUP1 MLOAD PUSH1 0x20 DUP2 ADD DUP4 DUP4 ADD DUP5 DUP3 SUB DUP3 DUP3 DUP5 DUP8 PUSH1 0x4 PUSH2 0x1C2 STATICCALL PUSH1 0x0 PUSH1 0x1F DUP5 ADD MSTORE8 DUP5 DUP7 MSTORE POP POP POP POP POP POP POP JUMPDEST POP PUSH1 0x20 DUP2 ADD PUSH1 0x0 DUP2 MLOAD EQ PUSH1 0x1 DUP2 SUB PUSH2 0xE96 JUMPI PUSH1 0x20 DUP4 MLOAD SUB DUP3 MSTORE DUP2 DUP8 MSTORE JUMPDEST POP POP POP DUP4 SWAP2 POP POP JUMPDEST SWAP3 SWAP2 POP POP JUMP JUMPDEST PUSH1 0x0 DUP1 PUSH1 0x0 PUSH1 0x20 DUP5 ADD SWAP1 POP PUSH1 0x0 JUMPDEST DUP5 MLOAD DUP2 LT ISZERO PUSH2 0xEEE JUMPI DUP2 MLOAD SWAP3 POP PUSH1 0x0 DUP4 GT ISZERO PUSH2 0xED4 JUMPI PUSH1 0x0 SWAP4 POP POP POP POP PUSH2 0xEF6 JUMP JUMPDEST PUSH1 0x20 DUP3 ADD SWAP2 POP PUSH1 0x20 DUP2 PUSH2 0xEE7 SWAP2 SWAP1 PUSH2 0x1A28 JUMP JUMPDEST SWAP1 POP PUSH2 0xEB2 JUMP JUMPDEST POP PUSH1 0x1 SWAP3 POP POP POP JUMPDEST SWAP2 SWAP1 POP JUMP JUMPDEST PUSH1 0x60 DUP4 MLOAD DUP4 MLOAD DUP4 MLOAD PUSH1 0x40 MLOAD DUP4 DUP2 MSTORE DUP3 PUSH1 0x20 DUP3 ADD MSTORE DUP2 PUSH1 0x40 DUP3 ADD MSTORE DUP4 PUSH1 0x60 DUP3 ADD DUP6 PUSH1 0x20 DUP12 ADD PUSH1 0x4 PUSH2 0x1C2 STATICCALL DUP5 PUSH1 0x60 ADD DUP5 DUP2 DUP5 ADD DUP7 PUSH1 0x20 DUP13 ADD PUSH1 0x4 PUSH2 0x1C2 STATICCALL SWAP2 POP DUP5 DUP2 ADD SWAP1 POP DUP4 DUP2 DUP5 ADD DUP6 PUSH1 0x20 DUP12 ADD PUSH1 0x4 PUSH2 0x1C2 STATICCALL SWAP2 POP DUP2 PUSH1 0x0 DUP2 SUB PUSH2 0xF5B JUMPI INVALID JUMPDEST POP DUP4 DUP2 ADD SWAP1 POP DUP4 PUSH1 0x60 DUP5 ADD DUP3 DUP6 PUSH1 0x5 PUSH2 0x546 GAS SUB STATICCALL SWAP2 POP DUP2 PUSH1 0x0 DUP2 SUB PUSH2 0xF7D JUMPI INVALID JUMPDEST POP DUP4 PUSH1 0x60 DUP5 ADD JUMPDEST PUSH1 0x0 PUSH1 0x20 DUP4 EQ SUB PUSH2 0xFB4 JUMPI PUSH1 0x0 DUP2 MLOAD EQ PUSH1 0x1 DUP2 EQ PUSH2 0xFA2 JUMPI POP PUSH2 0xFB4 JUMP JUMPDEST PUSH1 0x20 DUP3 ADD SWAP2 POP POP PUSH1 0x20 DUP3 SUB SWAP2 POP PUSH2 0xF84 JUMP JUMPDEST PUSH1 0x20 DUP2 SUB SWAP9 POP DUP2 DUP10 MSTORE DUP6 DUP6 PUSH1 0x60 ADD ADD PUSH1 0x40 MSTORE POP POP POP POP POP POP POP POP SWAP4 SWAP3 POP POP POP JUMP JUMPDEST PUSH1 0x0 PUSH2 0xFE0 DUP3 PUSH2 0xEA4 JUMP JUMPDEST ISZERO PUSH2 0xFEE JUMPI PUSH1 0x0 SWAP1 POP PUSH2 0x1010 JUMP JUMPDEST PUSH1 0x0 PUSH1 0x20 DUP4 ADD MLOAD SWAP1 POP PUSH2 0x1000 DUP2 PUSH2 0x12EF JUMP JUMPDEST SWAP2 POP PUSH1 0x8 PUSH1 0x20 DUP5 MLOAD SUB MUL DUP3 ADD SWAP2 POP POP JUMPDEST SWAP2 SWAP1 POP JUMP JUMPDEST PUSH2 0x101D PUSH2 0x1587 JUMP JUMPDEST PUSH1 0x40 MLOAD DUP1 PUSH1 0x60 ADD PUSH1 0x40 MSTORE DUP1 PUSH1 0x40 MLOAD DUP1 PUSH1 0x40 ADD PUSH1 0x40 MSTORE DUP1 PUSH1 0x20 DUP2 MSTORE PUSH1 0x20 ADD PUSH1 0x0 DUP2 MSTORE POP DUP2 MSTORE PUSH1 0x20 ADD PUSH1 0x0 ISZERO ISZERO DUP2 MSTORE PUSH1 0x20 ADD PUSH1 0x0 DUP2 MSTORE POP SWAP1 POP SWAP1 JUMP JUMPDEST PUSH1 0x0 DUP2 MLOAD MLOAD DUP3 MLOAD ADD PUSH1 0x2 DUP2 MLOAD MOD SWAP2 POP POP SWAP2 SWAP1 POP JUMP JUMPDEST PUSH2 0x1074 PUSH2 0x1587 JUMP JUMPDEST PUSH2 0x1086 DUP4 PUSH2 0x1080 PUSH2 0x1545 JUMP JUMPDEST DUP5 PUSH2 0x407 JUMP JUMPDEST SWAP1 POP SWAP3 SWAP2 POP POP JUMP JUMPDEST PUSH1 0x60 PUSH1 0x0 PUSH1 0x60 MSIZE PUSH1 0x0 PUSH1 0x1 PUSH1 0x0 SUB DUP9 MLOAD DUP10 ADD DUP9 MLOAD DUP10 ADD DUP11 MLOAD PUSH1 0x20 DUP7 ADD ADD DUP12 MLOAD JUMPDEST PUSH1 0x0 DUP1 DUP3 EQ SUB PUSH2 0x115A JUMPI DUP4 MLOAD DUP13 MLOAD DUP15 MLOAD SUB DUP3 GT PUSH1 0x1 DUP2 EQ PUSH2 0x10F2 JUMPI DUP8 DUP3 ADD DUP5 MSTORE PUSH1 0x1 DUP9 EQ DUP3 DUP9 EQ AND PUSH1 0x1 DUP2 EQ PUSH2 0x10E7 JUMPI PUSH1 0x0 SWAP9 POP PUSH2 0x10EC JUMP JUMPDEST PUSH1 0x1 SWAP9 POP JUMPDEST POP PUSH2 0x1141 JUMP JUMPDEST DUP5 MLOAD DUP9 DUP2 DUP5 ADD ADD DUP6 MSTORE DUP9 DUP2 SUB DUP9 SUB DUP4 GT PUSH1 0x1 DUP2 EQ PUSH2 0x1133 JUMPI PUSH1 0x0 DUP3 GT PUSH1 0x0 DUP12 GT OR DUP10 DUP6 EQ AND PUSH1 0x1 DUP2 EQ PUSH2 0x1128 JUMPI PUSH1 0x0 SWAP11 POP PUSH2 0x112D JUMP JUMPDEST PUSH1 0x1 SWAP11 POP JUMPDEST POP PUSH2 0x1138 JUMP JUMPDEST PUSH1 0x1 SWAP10 POP JUMPDEST POP PUSH1 0x20 DUP7 SUB SWAP6 POP POP JUMPDEST POP PUSH1 0x20 DUP4 SUB SWAP3 POP PUSH1 0x20 DUP6 SUB SWAP5 POP POP PUSH1 0x20 DUP2 SUB SWAP1 POP PUSH2 0x10AE JUMP JUMPDEST POP PUSH1 0x0 DUP6 EQ PUSH1 0x1 DUP2 EQ PUSH2 0x1170 JUMPI PUSH1 0x1 DUP3 MSTORE PUSH2 0x1177 JUMP JUMPDEST PUSH1 0x20 DUP8 ADD SWAP7 POP JUMPDEST POP DUP6 SWAP7 POP DUP5 PUSH1 0x20 MUL DUP13 MLOAD ADD DUP8 MSTORE PUSH1 0x20 DUP8 MLOAD ADD DUP8 ADD PUSH1 0x40 MSTORE PUSH1 0x20 DUP8 ADD MLOAD PUSH1 0x1 DUP2 PUSH2 0x100 DUP14 MOD SHR EQ PUSH1 0x1 DUP3 EQ OR ISZERO PUSH2 0x11AE JUMPI PUSH1 0x1 DUP12 ADD SWAP11 POP JUMPDEST POP POP POP POP POP POP POP DUP1 DUP5 SWAP3 POP SWAP3 POP POP SWAP4 POP SWAP4 SWAP2 POP POP JUMP JUMPDEST PUSH1 0x60 PUSH1 0x0 PUSH1 0x60 PUSH1 0x0 DUP1 PUSH32 0xFFFFFFFFFFFFFFFFFFFFFFFFFFFFFFFFFFFFFFFFFFFFFFFFFFFFFFFFFFFFFFFF SWAP1 POP MSIZE DUP8 MLOAD DUP8 MLOAD DUP1 DUP3 SUB DUP3 DUP12 ADD DUP3 DUP12 ADD DUP5 DUP7 ADD PUSH1 0x20 DUP2 ADD DUP7 JUMPDEST PUSH1 0x0 DUP1 DUP3 EQ SUB PUSH2 0x1297 JUMPI DUP5 MLOAD DUP7 DUP3 GT PUSH1 0x1 DUP2 EQ PUSH2 0x1248 JUMPI DUP13 DUP3 SUB DUP6 MSTORE PUSH1 0x1 DUP14 EQ PUSH1 0x0 DUP4 EQ AND PUSH1 0x1 DUP2 EQ PUSH2 0x123D JUMPI PUSH1 0x0 SWAP14 POP PUSH2 0x1242 JUMP JUMPDEST PUSH1 0x1 SWAP14 POP JUMPDEST POP PUSH2 0x127E JUMP JUMPDEST DUP6 MLOAD DUP14 DUP2 DUP5 SUB SUB DUP7 MSTORE PUSH1 0x1 DUP15 EQ DUP14 DUP3 EQ AND DUP15 DUP3 ADD DUP5 LT OR PUSH1 0x1 DUP2 EQ PUSH2 0x1270 JUMPI PUSH1 0x0 SWAP15 POP PUSH2 0x1275 JUMP JUMPDEST PUSH1 0x1 SWAP15 POP JUMPDEST POP PUSH1 0x20 DUP8 SUB SWAP7 POP POP JUMPDEST POP PUSH1 0x20 DUP5 SUB SWAP4 POP PUSH1 0x20 DUP7 SUB SWAP6 POP POP PUSH1 0x20 DUP2 SUB SWAP1 POP PUSH2 0x1207 JUMP JUMPDEST POP PUSH1 0x20 DUP3 ADD SWAP2 POP JUMPDEST PUSH1 0x0 DUP3 MLOAD SUB PUSH2 0x12BF JUMPI PUSH1 0x20 DUP9 ADD SWAP8 POP PUSH1 0x20 DUP8 SUB SWAP7 POP PUSH1 0x20 DUP3 ADD SWAP2 POP PUSH2 0x129F JUMP JUMPDEST DUP8 SWAP11 POP DUP7 DUP12 MSTORE DUP1 PUSH1 0x40 MSTORE POP POP POP POP POP POP POP POP PUSH1 0x0 PUSH2 0x12DC DUP5 PUSH2 0xFD5 JUMP JUMPDEST SWAP1 POP DUP4 DUP2 SWAP6 POP SWAP6 POP POP POP POP POP SWAP3 POP SWAP3 SWAP1 POP JUMP JUMPDEST PUSH1 0x0 DUP1 DUP3 EQ PUSH1 0x1 DUP2 EQ PUSH2 0x153A JUMPI DUP3 PUSH1 0x1 DUP5 SUB SWAP4 POP PUSH1 0x2 DUP5 DIV DUP5 OR SWAP4 POP PUSH1 0x4 DUP5 DIV DUP5 OR SWAP4 POP PUSH1 0x10 DUP5 DIV DUP5 OR SWAP4 POP PUSH2 0x100 DUP5 DIV DUP5 OR SWAP4 POP PUSH3 0x10000 DUP5 DIV DUP5 OR SWAP4 POP PUSH5 0x100000000 DUP5 DIV DUP5 OR SWAP4 POP PUSH9 0x10000000000000000 DUP5 DIV DUP5 OR SWAP4 POP PUSH17 0x100000000000000000000000000000000 DUP5 DIV DUP5 OR SWAP4 POP PUSH1 0x1 DUP5 ADD SWAP4 POP PUSH1 0x40 MLOAD PUSH32 0xF8F9CBFAE6CC78FBEFE7CDC3A1793DFCF4F0E8BBD8CEC470B6A28A7A5A3E1EFD DUP2 MSTORE PUSH32 0xF5ECF1B3E9DEBC68E1D9CFABC5997135BFB7A7A3938B7B606B5B4B3F2F1F0FFE PUSH1 0x20 DUP3 ADD MSTORE PUSH32 0xF6E4ED9FF2D6B458EADCDF97BD91692DE2D4DA8FD2D0AC50C6AE9A8272523616 PUSH1 0x40 DUP3 ADD MSTORE PUSH32 0xC8C0B887B0A8A4489C948C7F847C6125746C645C544C444038302820181008FF PUSH1 0x60 DUP3 ADD MSTORE PUSH32 0xF7CAE577EEC2A03CF3BAD76FB589591DEBB2DD67E0AA9834BEA6925F6A4A2E0E PUSH1 0x80 DUP3 ADD MSTORE PUSH32 0xE39ED557DB96902CD38ED14FAD815115C786AF479B7E83247363534337271707 PUSH1 0xA0 DUP3 ADD MSTORE PUSH32 0xC976C13BB96E881CB166A933A55E490D9D56952B8D4E801485467D2362422606 PUSH1 0xC0 DUP3 ADD MSTORE PUSH32 0x753A6D1B65325D0C552A4D1345224105391A310B29122104190A110309020100 PUSH1 0xE0 DUP3 ADD MSTORE PUSH2 0x100 DUP2 ADD PUSH1 0x40 MSTORE PUSH31 0x818283848586878898A8B8C8D8E8F929395969799A9B9D9E9FAAEB6BEDEEFF PUSH32 0x100000000000000000000000000000000000000000000000000000000000000 DUP1 DUP3 DUP9 MUL DIV DUP2 DUP2 PUSH1 0xFF SUB DUP6 ADD MLOAD DIV SWAP7 POP PUSH32 0x8000000000000000000000000000000000000000000000000000000000000000 DUP6 GT PUSH2 0x100 MUL DUP8 ADD SWAP7 POP PUSH1 0x0 PUSH1 0x1 DUP7 SUB DUP7 AND SUB PUSH2 0x1530 JUMPI PUSH1 0x1 DUP8 ADD SWAP7 POP JUMPDEST POP POP POP POP POP PUSH2 0x153F JUMP JUMPDEST PUSH1 0x0 SWAP2 POP JUMPDEST POP SWAP2 SWAP1 POP JUMP JUMPDEST PUSH2 0x154D PUSH2 0x1587 JUMP JUMPDEST PUSH1 0x40 MLOAD DUP1 PUSH1 0x60 ADD PUSH1 0x40 MSTORE DUP1 PUSH1 0x40 MLOAD DUP1 PUSH1 0x40 ADD PUSH1 0x40 MSTORE DUP1 PUSH1 0x20 DUP2 MSTORE PUSH1 0x20 ADD PUSH1 0x1 DUP2 MSTORE POP DUP2 MSTORE PUSH1 0x20 ADD PUSH1 0x0 ISZERO ISZERO DUP2 MSTORE PUSH1 0x20 ADD PUSH1 0x1 DUP2 MSTORE POP SWAP1 POP SWAP1 JUMP JUMPDEST PUSH1 0x40 MLOAD DUP1 PUSH1 0x60 ADD PUSH1 0x40 MSTORE DUP1 PUSH1 0x60 DUP2 MSTORE PUSH1 0x20 ADD PUSH1 0x0 ISZERO ISZERO DUP2 MSTORE PUSH1 0x20 ADD PUSH1 0x0 DUP2 MSTORE POP SWAP1 JUMP JUMPDEST PUSH1 0x0 PUSH1 0x40 MLOAD SWAP1 POP SWAP1 JUMP JUMPDEST PUSH1 0x0 DUP1 REVERT JUMPDEST PUSH1 0x0 DUP1 REVERT JUMPDEST PUSH1 0x0 DUP1 REVERT JUMPDEST PUSH1 0x0 DUP1 REVERT JUMPDEST PUSH1 0x0 PUSH1 0x1F NOT PUSH1 0x1F DUP4 ADD AND SWAP1 POP SWAP2 SWAP1 POP JUMP JUMPDEST PUSH32 0x4E487B7100000000000000000000000000000000000000000000000000000000 PUSH1 0x0 MSTORE PUSH1 0x41 PUSH1 0x4 MSTORE PUSH1 0x24 PUSH1 0x0 REVERT JUMPDEST PUSH2 0x1611 DUP3 PUSH2 0x15C8 JUMP JUMPDEST DUP2 ADD DUP2 DUP2 LT PUSH8 0xFFFFFFFFFFFFFFFF DUP3 GT OR ISZERO PUSH2 0x1630 JUMPI PUSH2 0x162F PUSH2 0x15D9 JUMP JUMPDEST JUMPDEST DUP1 PUSH1 0x40 MSTORE POP POP POP JUMP JUMPDEST PUSH1 0x0 PUSH2 0x1643 PUSH2 0x15AA JUMP JUMPDEST SWAP1 POP PUSH2 0x164F DUP3 DUP3 PUSH2 0x1608 JUMP JUMPDEST SWAP2 SWAP1 POP JUMP JUMPDEST PUSH1 0x0 PUSH8 0xFFFFFFFFFFFFFFFF DUP3 GT ISZERO PUSH2 0x166F JUMPI PUSH2 0x166E PUSH2 0x15D9 JUMP JUMPDEST JUMPDEST PUSH2 0x1678 DUP3 PUSH2 0x15C8 JUMP JUMPDEST SWAP1 POP PUSH1 0x20 DUP2 ADD SWAP1 POP SWAP2 SWAP1 POP JUMP JUMPDEST DUP3 DUP2 DUP4 CALLDATACOPY PUSH1 0x0 DUP4 DUP4 ADD MSTORE POP POP POP JUMP JUMPDEST PUSH1 0x0 PUSH2 0x16A7 PUSH2 0x16A2 DUP5 PUSH2 0x1654 JUMP JUMPDEST PUSH2 0x1639 JUMP JUMPDEST SWAP1 POP DUP3 DUP2 MSTORE PUSH1 0x20 DUP2 ADD DUP5 DUP5 DUP5 ADD GT ISZERO PUSH2 0x16C3 JUMPI PUSH2 0x16C2 PUSH2 0x15C3 JUMP JUMPDEST JUMPDEST PUSH2 0x16CE DUP5 DUP3 DUP6 PUSH2 0x1685 JUMP JUMPDEST POP SWAP4 SWAP3 POP POP POP JUMP JUMPDEST PUSH1 0x0 DUP3 PUSH1 0x1F DUP4 ADD SLT PUSH2 0x16EB JUMPI PUSH2 0x16EA PUSH2 0x15BE JUMP JUMPDEST JUMPDEST DUP2 CALLDATALOAD PUSH2 0x16FB DUP5 DUP3 PUSH1 0x20 DUP7 ADD PUSH2 0x1694 JUMP JUMPDEST SWAP2 POP POP SWAP3 SWAP2 POP POP JUMP JUMPDEST PUSH1 0x0 DUP1 PUSH1 0x0 DUP1 PUSH1 0x0 DUP1 PUSH1 0x0 DUP1 PUSH1 0x0 DUP1 PUSH2 0x140 DUP12 DUP14 SUB SLT ISZERO PUSH2 0x1728 JUMPI PUSH2 0x1727 PUSH2 0x15B4 JUMP JUMPDEST JUMPDEST PUSH1 0x0 DUP12 ADD CALLDATALOAD PUSH8 0xFFFFFFFFFFFFFFFF DUP2 GT ISZERO PUSH2 0x1746 JUMPI PUSH2 0x1745 PUSH2 0x15B9 JUMP JUMPDEST JUMPDEST PUSH2 0x1752 DUP14 DUP3 DUP15 ADD PUSH2 0x16D6 JUMP JUMPDEST SWAP11 POP POP PUSH1 0x20 DUP12 ADD CALLDATALOAD PUSH8 0xFFFFFFFFFFFFFFFF DUP2 GT ISZERO PUSH2 0x1773 JUMPI PUSH2 0x1772 PUSH2 0x15B9 JUMP JUMPDEST JUMPDEST PUSH2 0x177F DUP14 DUP3 DUP15 ADD PUSH2 0x16D6 JUMP JUMPDEST SWAP10 POP POP PUSH1 0x40 DUP12 ADD CALLDATALOAD PUSH8 0xFFFFFFFFFFFFFFFF DUP2 GT ISZERO PUSH2 0x17A0 JUMPI PUSH2 0x179F PUSH2 0x15B9 JUMP JUMPDEST JUMPDEST PUSH2 0x17AC DUP14 DUP3 DUP15 ADD PUSH2 0x16D6 JUMP JUMPDEST SWAP9 POP POP PUSH1 0x60 DUP12 ADD CALLDATALOAD PUSH8 0xFFFFFFFFFFFFFFFF DUP2 GT ISZERO PUSH2 0x17CD JUMPI PUSH2 0x17CC PUSH2 0x15B9 JUMP JUMPDEST JUMPDEST PUSH2 0x17D9 DUP14 DUP3 DUP15 ADD PUSH2 0x16D6 JUMP JUMPDEST SWAP8 POP POP PUSH1 0x80 DUP12 ADD CALLDATALOAD PUSH8 0xFFFFFFFFFFFFFFFF DUP2 GT ISZERO PUSH2 0x17FA JUMPI PUSH2 0x17F9 PUSH2 0x15B9 JUMP JUMPDEST JUMPDEST PUSH2 0x1806 DUP14 DUP3 DUP15 ADD PUSH2 0x16D6 JUMP JUMPDEST SWAP7 POP POP PUSH1 0xA0 DUP12 ADD CALLDATALOAD PUSH8 0xFFFFFFFFFFFFFFFF DUP2 GT ISZERO PUSH2 0x1827 JUMPI PUSH2 0x1826 PUSH2 0x15B9 JUMP JUMPDEST JUMPDEST PUSH2 0x1833 DUP14 DUP3 DUP15 ADD PUSH2 0x16D6 JUMP JUMPDEST SWAP6 POP POP PUSH1 0xC0 DUP12 ADD CALLDATALOAD PUSH8 0xFFFFFFFFFFFFFFFF DUP2 GT ISZERO PUSH2 0x1854 JUMPI PUSH2 0x1853 PUSH2 0x15B9 JUMP JUMPDEST JUMPDEST PUSH2 0x1860 DUP14 DUP3 DUP15 ADD PUSH2 0x16D6 JUMP JUMPDEST SWAP5 POP POP PUSH1 0xE0 DUP12 ADD CALLDATALOAD PUSH8 0xFFFFFFFFFFFFFFFF DUP2 GT ISZERO PUSH2 0x1881 JUMPI PUSH2 0x1880 PUSH2 0x15B9 JUMP JUMPDEST JUMPDEST PUSH2 0x188D DUP14 DUP3 DUP15 ADD PUSH2 0x16D6 JUMP JUMPDEST SWAP4 POP POP PUSH2 0x100 DUP12 ADD CALLDATALOAD PUSH8 0xFFFFFFFFFFFFFFFF DUP2 GT ISZERO PUSH2 0x18AF JUMPI PUSH2 0x18AE PUSH2 0x15B9 JUMP JUMPDEST JUMPDEST PUSH2 0x18BB DUP14 DUP3 DUP15 ADD PUSH2 0x16D6 JUMP JUMPDEST SWAP3 POP POP PUSH2 0x120 DUP12 ADD CALLDATALOAD PUSH8 0xFFFFFFFFFFFFFFFF DUP2 GT ISZERO PUSH2 0x18DD JUMPI PUSH2 0x18DC PUSH2 0x15B9 JUMP JUMPDEST JUMPDEST PUSH2 0x18E9 DUP14 DUP3 DUP15 ADD PUSH2 0x16D6 JUMP JUMPDEST SWAP2 POP POP SWAP3 SWAP6 SWAP9 SWAP12 SWAP2 SWAP5 SWAP8 SWAP11 POP SWAP3 SWAP6 SWAP9 POP JUMP JUMPDEST PUSH1 0x0 DUP2 ISZERO ISZERO SWAP1 POP SWAP2 SWAP1 POP JUMP JUMPDEST PUSH2 0x1910 DUP2 PUSH2 0x18FB JUMP JUMPDEST DUP3 MSTORE POP POP JUMP JUMPDEST PUSH1 0x0 PUSH1 0x20 DUP3 ADD SWAP1 POP PUSH2 0x192B PUSH1 0x0 DUP4 ADD DUP5 PUSH2 0x1907 JUMP JUMPDEST SWAP3 SWAP2 POP POP JUMP JUMPDEST PUSH1 0x0 DUP2 SWAP1 POP SWAP2 SWAP1 POP JUMP JUMPDEST PUSH1 0x0 DUP2 SWAP1 POP SWAP2 SWAP1 POP JUMP JUMPDEST PUSH2 0x1956 PUSH2 0x1951 DUP3 PUSH2 0x1931 JUMP JUMPDEST PUSH2 0x193B JUMP JUMPDEST DUP3 MSTORE POP POP JUMP JUMPDEST PUSH1 0x0 PUSH2 0x1968 DUP3 DUP5 PUSH2 0x1945 JUMP JUMPDEST PUSH1 0x20 DUP3 ADD SWAP2 POP DUP2 SWAP1 POP SWAP3 SWAP2 POP POP JUMP JUMPDEST PUSH1 0x0 DUP2 SWAP1 POP SWAP2 SWAP1 POP JUMP JUMPDEST PUSH32 0x4E487B7100000000000000000000000000000000000000000000000000000000 PUSH1 0x0 MSTORE PUSH1 0x11 PUSH1 0x4 MSTORE PUSH1 0x24 PUSH1 0x0 REVERT JUMPDEST PUSH1 0x0 PUSH2 0x19BB DUP3 PUSH2 0x1977 JUMP JUMPDEST SWAP2 POP PUSH2 0x19C6 DUP4 PUSH2 0x1977 JUMP JUMPDEST SWAP3 POP DUP3 DUP3 MUL PUSH2 0x19D4 DUP2 PUSH2 0x1977 JUMP JUMPDEST SWAP2 POP PUSH32 0x8000000000000000000000000000000000000000000000000000000000000000 DUP5 EQ PUSH1 0x0 DUP5 SLT AND ISZERO PUSH2 0x1A0C JUMPI PUSH2 0x1A0B PUSH2 0x1981 JUMP JUMPDEST JUMPDEST DUP3 DUP3 SDIV DUP5 EQ DUP4 ISZERO OR PUSH2 0x1A21 JUMPI PUSH2 0x1A20 PUSH2 0x1981 JUMP JUMPDEST JUMPDEST POP SWAP3 SWAP2 POP POP JUMP JUMPDEST PUSH1 0x0 PUSH2 0x1A33 DUP3 PUSH2 0x1931 JUMP JUMPDEST SWAP2 POP PUSH2 0x1A3E DUP4 PUSH2 0x1931 JUMP JUMPDEST SWAP3 POP DUP3 DUP3 ADD SWAP1 POP DUP1 DUP3 GT ISZERO PUSH2 0x1A56 JUMPI PUSH2 0x1A55 PUSH2 0x1981 JUMP JUMPDEST JUMPDEST SWAP3 SWAP2 POP POP JUMP JUMPDEST PUSH1 0x0 PUSH2 0x1A67 DUP3 PUSH2 0x1931 JUMP JUMPDEST SWAP2 POP PUSH2 0x1A72 DUP4 PUSH2 0x1931 JUMP JUMPDEST SWAP3 POP DUP3 DUP3 SUB SWAP1 POP DUP2 DUP2 GT ISZERO PUSH2 0x1A8A JUMPI PUSH2 0x1A89 PUSH2 0x1981 JUMP JUMPDEST JUMPDEST SWAP3 SWAP2 POP POP JUMP INVALID LOG2 PUSH5 0x6970667358 0x22 SLT KECCAK256 SWAP3 CREATE2 PUSH2 0x4C06 SWAP1 MSTORE8 0x4D BYTE DUP9 RETURNDATASIZE XOR 0xEE 0xDB 0xC6 CALL CALLDATACOPY 0xBE PUSH15 0xB7969936BB7A3639C3C97D73496473 PUSH16 0x6C634300081100330000000000000000 "},"methodIdentifiers":{"verifyTx(bytes,bytes,bytes,bytes,bytes,bytes,bytes,bytes,bytes,bytes)":"489cb670"}}}}}