{"contracts/Verifier.sol":{"Verifier":{"abi":[{"inputs":[{"internalType":"address","name":"_forwarder","type":"address"}],"stateMutability":"nonpayable","type":"constructor"},{"anonymous":false,"inputs":[{"indexed":false,"internalType":"bool","name":"","type":"bool"}],"name":"AuthentificationStatus","type":"event"},{"inputs":[],"name":"getTrustedForwarder","outputs":[{"internalType":"address","name":"forwarder","type":"address"}],"stateMutability":"view","type":"function"},{"inputs":[{"internalType":"address","name":"forwarder","type":"address"}],"name":"isTrustedForwarder","outputs":[{"internalType":"bool","name":"","type":"bool"}],"stateMutability":"view","type":"function"},{"inputs":[{"components":[{"components":[{"internalType":"uint256","name":"X","type":"uint256"},{"internalType":"uint256","name":"Y","type":"uint256"}],"internalType":"struct Utils.G1Point","name":"a","type":"tuple"},{"components":[{"internalType":"uint256[2]","name":"X","type":"uint256[2]"},{"internalType":"uint256[2]","name":"Y","type":"uint256[2]"}],"internalType":"struct Utils.G2Point","name":"b","type":"tuple"},{"components":[{"internalType":"uint256","name":"X","type":"uint256"},{"internalType":"uint256","name":"Y","type":"uint256"}],"internalType":"struct Utils.G1Point","name":"c","type":"tuple"}],"internalType":"struct Utils.Proof","name":"proof","type":"tuple"},{"internalType":"uint256[2]","name":"input","type":"uint256[2]"}],"name":"verifyTx","outputs":[{"internalType":"bool","name":"r","type":"bool"}],"stateMutability":"nonpayable","type":"function"}],"evm":{"bytecode":{"linkReferences":{},"object":"60806040523480156200001157600080fd5b50604051620017be380380620017be8339818101604052810190620000379190620000fc565b62000048816200004f60201b60201c565b506200012e565b806000806101000a81548173ffffffffffffffffffffffffffffffffffffffff021916908373ffffffffffffffffffffffffffffffffffffffff16021790555050565b600080fd5b600073ffffffffffffffffffffffffffffffffffffffff82169050919050565b6000620000c48262000097565b9050919050565b620000d681620000b7565b8114620000e257600080fd5b50565b600081519050620000f681620000cb565b92915050565b60006020828403121562000115576200011462000092565b5b60006200012584828501620000e5565b91505092915050565b611680806200013e6000396000f3fe608060405234801561001057600080fd5b50600436106100415760003560e01c806343cd76fc14610046578063572b6c0514610076578063ce1b815f146100a6575b600080fd5b610060600480360381019061005b919061136d565b6100c4565b60405161006d91906113ca565b60405180910390f35b610090600480360381019061008b9190611443565b610201565b60405161009d91906113ca565b60405180910390f35b6100ae61025a565b6040516100bb919061147f565b60405180910390f35b600080600267ffffffffffffffff8111156100e2576100e16110fc565b5b6040519080825280602002602001820160405280156101105781602001602082028036833780820191505090505b50905060005b6002811015610169578381600281106101325761013161149a565b5b602002015182828151811061014a5761014961149a565b5b6020026020010181815250508080610161906114f8565b915050610116565b5060006101768286610283565b036101bd577fa589151d4dc88ac2a10c6e0cd8aad42f7af34723f2b7468a1ad8267968dd648a60016040516101ab91906113ca565b60405180910390a160019150506101fb565b7fa589151d4dc88ac2a10c6e0cd8aad42f7af34723f2b7468a1ad8267968dd648a60006040516101ed91906113ca565b60405180910390a160009150505b92915050565b60008060009054906101000a900473ffffffffffffffffffffffffffffffffffffffff1673ffffffffffffffffffffffffffffffffffffffff168273ffffffffffffffffffffffffffffffffffffffff16149050919050565b60008060009054906101000a900473ffffffffffffffffffffffffffffffffffffffff16905090565b6000807f30644e72e131a029b85045b68181585d2833e84879b9709143e1f593f0000001905060006102b361041a565b9050806080015151600186516102c99190611540565b146102d357600080fd5b60006040518060400160405280600081526020016000815250905060005b865181101561038c578387828151811061030e5761030d61149a565b5b60200260200101511061032057600080fd5b6103778261037285608001516001856103399190611540565b8151811061034a5761034961149a565b5b60200260200101518a85815181106103655761036461149a565b5b6020026020010151610896565b610938565b91508080610384906114f8565b9150506102f1565b506103b68183608001516000815181106103a9576103a861149a565b5b6020026020010151610938565b90506103fc856000015186602001516103ce84610a00565b85604001516103e08a60400151610a00565b87606001516103f28960200151610a00565b8960000151610aa5565b61040c5760019350505050610414565b600093505050505b92915050565b610422610fc8565b60405180604001604052807f066553b8fcba117b33de76a56dd17aaffd849ca7b4fe0d2c6a16e9ec14a8882281526020017f066f78592f981303ddda83b10ba98511eba5a37b4ea9b0853da73f9ef97849748152508160200181905250604051806040016040528060405180604001604052807f07a604c23b2259a5c440f40e0770d6f906e9b42845e5ab2cf664863d4322693c81526020017f144d527bfeed78141d970e24292ccd24d91f9190fda2a09da56dc3f7a52f283e815250815260200160405180604001604052807f20c68e33e17bb1bc424cb2d8212e940d348f25cb2002738b8491ddb16acc6ba181526020017f03237622bda6cd21a559fbb7e525b26d2754178a551e5d6483a13181a8321fa18152508152508160000181905250604051806040016040528060405180604001604052807f2c8d18ec7a27c73c549ae598858e04549a4afbf55b35ac27a33500fa47979a3181526020017f09af3cff8c3632ca41eec1e7b63da858df12912ffb3c8e2d1d24d40ef4727f9d815250815260200160405180604001604052807f0dc4ee154e51be54fc5682bfb2139ef09e7681b25d321ddd717cbf7ba972675181526020017f02c73f32b3d80c1b6f9dce28c840c69cefc7d4b7e0ec4a9dab7019bea724e4cc8152508152508160400181905250604051806040016040528060405180604001604052807f15116ac1900ccf0db1d370fec8291f78e78ddc4b18205f54e6a22a224bbb557f81526020017f267143bc514049ef27a7953e1c0d9587bb5f1dbfec3d717ec41c86137a991f69815250815260200160405180604001604052807f28206e51e757bd8b5e4fe2bafbcd1196498643337aaa9e7afd9a47b76c94435781526020017f0d14f9093dece5d4af5ed4124ae4600d94499253552996fc7073a1dcde9099198152508152508160600181905250600367ffffffffffffffff8111156106e9576106e86110fc565b5b60405190808252806020026020018201604052801561072257816020015b61070f61100f565b8152602001906001900390816107075790505b50816080018190525060405180604001604052807f13ed617263023bbc7a813d5788af3340ade29b94293353cc6d4d3221efe507fe81526020017f2bb8f6be056cb950abf8267afcd9a6d787b704fd92752e8559f4107cb99521d281525081608001516000815181106107985761079761149a565b5b602002602001018190525060405180604001604052807f188edc46c3d2c77dce751077dff767c1988a8f3a5b7d419595c17f6c5eb851ee81526020017f2af8e5df9668af1995b08ef029fabaae04eb8f497cfacbb9eb442c2fc605dd9f81525081608001516001815181106108105761080f61149a565b5b602002602001018190525060405180604001604052807f199f68a740799a5298d65bea4fd65c3ca9add7ef4090b8a9a912ec820e225bea81526020017f24ea1ec41b0ee418fa3c73183ca75c5ea2f0bd0dc33af48a0900b6d347d9597581525081608001516002815181106108885761088761149a565b5b602002602001018190525090565b61089e61100f565b6108a6611029565b8360000151816000600381106108bf576108be61149a565b5b6020020181815250508360200151816001600381106108e1576108e061149a565b5b60200201818152505082816002600381106108ff576108fe61149a565b5b602002018181525050600060608360808460076107d05a03fa9050806000810361092557fe5b508061093057600080fd5b505092915050565b61094061100f565b61094861104b565b8360000151816000600481106109615761096061149a565b5b6020020181815250508360200151816001600481106109835761098261149a565b5b6020020181815250508260000151816002600481106109a5576109a461149a565b5b6020020181815250508260200151816003600481106109c7576109c661149a565b5b602002018181525050600060608360c08460066107d05a03fa905080600081036109ed57fe5b50806109f857600080fd5b505092915050565b610a0861100f565b60007f30644e72e131a029b85045b68181585d97816a916871ca8d3c208c16d87cfd47905060008360000151148015610a45575060008360200151145b15610a69576040518060400160405280600081526020016000815250915050610aa0565b604051806040016040528084600001518152602001828560200151610a8e91906115a3565b83610a9991906115d4565b8152509150505b919050565b600080600467ffffffffffffffff811115610ac357610ac26110fc565b5b604051908082528060200260200182016040528015610afc57816020015b610ae961100f565b815260200190600190039081610ae15790505b5090506000600467ffffffffffffffff811115610b1c57610b1b6110fc565b5b604051908082528060200260200182016040528015610b5557816020015b610b4261106d565b815260200190600190039081610b3a5790505b5090508a82600081518110610b6d57610b6c61149a565b5b60200260200101819052508882600181518110610b8d57610b8c61149a565b5b60200260200101819052508682600281518110610bad57610bac61149a565b5b60200260200101819052508482600381518110610bcd57610bcc61149a565b5b60200260200101819052508981600081518110610bed57610bec61149a565b5b60200260200101819052508781600181518110610c0d57610c0c61149a565b5b60200260200101819052508581600281518110610c2d57610c2c61149a565b5b60200260200101819052508381600381518110610c4d57610c4c61149a565b5b6020026020010181905250610c628282610c72565b9250505098975050505050505050565b60008151835114610c8257600080fd5b6000835190506000600682610c979190611608565b905060008167ffffffffffffffff811115610cb557610cb46110fc565b5b604051908082528060200260200182016040528015610ce35781602001602082028036833780820191505090505b50905060005b83811015610f6857868181518110610d0457610d0361149a565b5b602002602001015160000151826000600684610d209190611608565b610d2a9190611540565b81518110610d3b57610d3a61149a565b5b602002602001018181525050868181518110610d5a57610d5961149a565b5b602002602001015160200151826001600684610d769190611608565b610d809190611540565b81518110610d9157610d9061149a565b5b602002602001018181525050858181518110610db057610daf61149a565b5b602002602001015160000151600160028110610dcf57610dce61149a565b5b6020020151826002600684610de49190611608565b610dee9190611540565b81518110610dff57610dfe61149a565b5b602002602001018181525050858181518110610e1e57610e1d61149a565b5b602002602001015160000151600060028110610e3d57610e3c61149a565b5b6020020151826003600684610e529190611608565b610e5c9190611540565b81518110610e6d57610e6c61149a565b5b602002602001018181525050858181518110610e8c57610e8b61149a565b5b602002602001015160200151600160028110610eab57610eaa61149a565b5b6020020151826004600684610ec09190611608565b610eca9190611540565b81518110610edb57610eda61149a565b5b602002602001018181525050858181518110610efa57610ef961149a565b5b602002602001015160200151600060028110610f1957610f1861149a565b5b6020020151826005600684610f2e9190611608565b610f389190611540565b81518110610f4957610f4861149a565b5b6020026020010181815250508080610f60906114f8565b915050610ce9565b50610f71611093565b6000602082602086026020860160086107d05a03fa90508060008103610f9357fe5b5080610f9e57600080fd5b600082600060018110610fb457610fb361149a565b5b602002015114159550505050505092915050565b6040518060a00160405280610fdb61106d565b8152602001610fe861100f565b8152602001610ff561106d565b815260200161100261106d565b8152602001606081525090565b604051806040016040528060008152602001600081525090565b6040518060600160405280600390602082028036833780820191505090505090565b6040518060800160405280600490602082028036833780820191505090505090565b60405180604001604052806110806110b5565b815260200161108d6110b5565b81525090565b6040518060200160405280600190602082028036833780820191505090505090565b6040518060400160405280600290602082028036833780820191505090505090565b6000604051905090565b600080fd5b600080fd5b6000601f19601f8301169050919050565b7f4e487b7100000000000000000000000000000000000000000000000000000000600052604160045260246000fd5b611134826110eb565b810181811067ffffffffffffffff82111715611153576111526110fc565b5b80604052505050565b60006111666110d7565b9050611172828261112b565b919050565b6000819050919050565b61118a81611177565b811461119557600080fd5b50565b6000813590506111a781611181565b92915050565b6000604082840312156111c3576111c26110e6565b5b6111cd604061115c565b905060006111dd84828501611198565b60008301525060206111f184828501611198565b60208301525092915050565b600080fd5b600067ffffffffffffffff82111561121d5761121c6110fc565b5b602082029050919050565b600080fd5b600061124061123b84611202565b61115c565b9050806020840283018581111561125a57611259611228565b5b835b81811015611283578061126f8882611198565b84526020840193505060208101905061125c565b5050509392505050565b600082601f8301126112a2576112a16111fd565b5b60026112af84828561122d565b91505092915050565b6000608082840312156112ce576112cd6110e6565b5b6112d8604061115c565b905060006112e88482850161128d565b60008301525060406112fc8482850161128d565b60208301525092915050565b6000610100828403121561131f5761131e6110e6565b5b611329606061115c565b90506000611339848285016111ad565b600083015250604061134d848285016112b8565b60208301525060c0611361848285016111ad565b60408301525092915050565b6000806101408385031215611385576113846110e1565b5b600061139385828601611308565b9250506101006113a58582860161128d565b9150509250929050565b60008115159050919050565b6113c4816113af565b82525050565b60006020820190506113df60008301846113bb565b92915050565b600073ffffffffffffffffffffffffffffffffffffffff82169050919050565b6000611410826113e5565b9050919050565b61142081611405565b811461142b57600080fd5b50565b60008135905061143d81611417565b92915050565b600060208284031215611459576114586110e1565b5b60006114678482850161142e565b91505092915050565b61147981611405565b82525050565b60006020820190506114946000830184611470565b92915050565b7f4e487b7100000000000000000000000000000000000000000000000000000000600052603260045260246000fd5b7f4e487b7100000000000000000000000000000000000000000000000000000000600052601160045260246000fd5b600061150382611177565b91507fffffffffffffffffffffffffffffffffffffffffffffffffffffffffffffffff8203611535576115346114c9565b5b600182019050919050565b600061154b82611177565b915061155683611177565b925082820190508082111561156e5761156d6114c9565b5b92915050565b7f4e487b7100000000000000000000000000000000000000000000000000000000600052601260045260246000fd5b60006115ae82611177565b91506115b983611177565b9250826115c9576115c8611574565b5b828206905092915050565b60006115df82611177565b91506115ea83611177565b9250828203905081811115611602576116016114c9565b5b92915050565b600061161382611177565b915061161e83611177565b925082820261162c81611177565b91508282048414831517611643576116426114c9565b5b509291505056fea2646970667358221220d2072ae468e0ad9ac516493b2c201b7687d81d3cf29d4d704c68db524aaf845764736f6c63430008110033","opcodes":"PUSH1 0x80 PUSH1 0x40 MSTORE CALLVALUE DUP1 ISZERO PUSH3 0x11 JUMPI PUSH1 0x0 DUP1 REVERT JUMPDEST POP PUSH1 0x40 MLOAD PUSH3 0x17BE CODESIZE SUB DUP1 PUSH3 0x17BE DUP4 CODECOPY DUP2 DUP2 ADD PUSH1 0x40 MSTORE DUP2 ADD SWAP1 PUSH3 0x37 SWAP2 SWAP1 PUSH3 0xFC JUMP JUMPDEST PUSH3 0x48 DUP2 PUSH3 0x4F PUSH1 0x20 SHL PUSH1 0x20 SHR JUMP JUMPDEST POP PUSH3 0x12E JUMP JUMPDEST DUP1 PUSH1 0x0 DUP1 PUSH2 0x100 EXP DUP2 SLOAD DUP2 PUSH20 0xFFFFFFFFFFFFFFFFFFFFFFFFFFFFFFFFFFFFFFFF MUL NOT AND SWAP1 DUP4 PUSH20 0xFFFFFFFFFFFFFFFFFFFFFFFFFFFFFFFFFFFFFFFF AND MUL OR SWAP1 SSTORE POP POP JUMP JUMPDEST PUSH1 0x0 DUP1 REVERT JUMPDEST PUSH1 0x0 PUSH20 0xFFFFFFFFFFFFFFFFFFFFFFFFFFFFFFFFFFFFFFFF DUP3 AND SWAP1 POP SWAP2 SWAP1 POP JUMP JUMPDEST PUSH1 0x0 PUSH3 0xC4 DUP3 PUSH3 0x97 JUMP JUMPDEST SWAP1 POP SWAP2 SWAP1 POP JUMP JUMPDEST PUSH3 0xD6 DUP2 PUSH3 0xB7 JUMP JUMPDEST DUP2 EQ PUSH3 0xE2 JUMPI PUSH1 0x0 DUP1 REVERT JUMPDEST POP JUMP JUMPDEST PUSH1 0x0 DUP2 MLOAD SWAP1 POP PUSH3 0xF6 DUP2 PUSH3 0xCB JUMP JUMPDEST SWAP3 SWAP2 POP POP JUMP JUMPDEST PUSH1 0x0 PUSH1 0x20 DUP3 DUP5 SUB SLT ISZERO PUSH3 0x115 JUMPI PUSH3 0x114 PUSH3 0x92 JUMP JUMPDEST JUMPDEST PUSH1 0x0 PUSH3 0x125 DUP5 DUP3 DUP6 ADD PUSH3 0xE5 JUMP JUMPDEST SWAP2 POP POP SWAP3 SWAP2 POP POP JUMP JUMPDEST PUSH2 0x1680 DUP1 PUSH3 0x13E PUSH1 0x0 CODECOPY PUSH1 0x0 RETURN INVALID PUSH1 0x80 PUSH1 0x40 MSTORE CALLVALUE DUP1 ISZERO PUSH2 0x10 JUMPI PUSH1 0x0 DUP1 REVERT JUMPDEST POP PUSH1 0x4 CALLDATASIZE LT PUSH2 0x41 JUMPI PUSH1 0x0 CALLDATALOAD PUSH1 0xE0 SHR DUP1 PUSH4 0x43CD76FC EQ PUSH2 0x46 JUMPI DUP1 PUSH4 0x572B6C05 EQ PUSH2 0x76 JUMPI DUP1 PUSH4 0xCE1B815F EQ PUSH2 0xA6 JUMPI JUMPDEST PUSH1 0x0 DUP1 REVERT JUMPDEST PUSH2 0x60 PUSH1 0x4 DUP1 CALLDATASIZE SUB DUP2 ADD SWAP1 PUSH2 0x5B SWAP2 SWAP1 PUSH2 0x136D JUMP JUMPDEST PUSH2 0xC4 JUMP JUMPDEST PUSH1 0x40 MLOAD PUSH2 0x6D SWAP2 SWAP1 PUSH2 0x13CA JUMP JUMPDEST PUSH1 0x40 MLOAD DUP1 SWAP2 SUB SWAP1 RETURN JUMPDEST PUSH2 0x90 PUSH1 0x4 DUP1 CALLDATASIZE SUB DUP2 ADD SWAP1 PUSH2 0x8B SWAP2 SWAP1 PUSH2 0x1443 JUMP JUMPDEST PUSH2 0x201 JUMP JUMPDEST PUSH1 0x40 MLOAD PUSH2 0x9D SWAP2 SWAP1 PUSH2 0x13CA JUMP JUMPDEST PUSH1 0x40 MLOAD DUP1 SWAP2 SUB SWAP1 RETURN JUMPDEST PUSH2 0xAE PUSH2 0x25A JUMP JUMPDEST PUSH1 0x40 MLOAD PUSH2 0xBB SWAP2 SWAP1 PUSH2 0x147F JUMP JUMPDEST PUSH1 0x40 MLOAD DUP1 SWAP2 SUB SWAP1 RETURN JUMPDEST PUSH1 0x0 DUP1 PUSH1 0x2 PUSH8 0xFFFFFFFFFFFFFFFF DUP2 GT ISZERO PUSH2 0xE2 JUMPI PUSH2 0xE1 PUSH2 0x10FC JUMP JUMPDEST JUMPDEST PUSH1 0x40 MLOAD SWAP1 DUP1 DUP3 MSTORE DUP1 PUSH1 0x20 MUL PUSH1 0x20 ADD DUP3 ADD PUSH1 0x40 MSTORE DUP1 ISZERO PUSH2 0x110 JUMPI DUP2 PUSH1 0x20 ADD PUSH1 0x20 DUP3 MUL DUP1 CALLDATASIZE DUP4 CALLDATACOPY DUP1 DUP3 ADD SWAP2 POP POP SWAP1 POP JUMPDEST POP SWAP1 POP PUSH1 0x0 JUMPDEST PUSH1 0x2 DUP2 LT ISZERO PUSH2 0x169 JUMPI DUP4 DUP2 PUSH1 0x2 DUP2 LT PUSH2 0x132 JUMPI PUSH2 0x131 PUSH2 0x149A JUMP JUMPDEST JUMPDEST PUSH1 0x20 MUL ADD MLOAD DUP3 DUP3 DUP2 MLOAD DUP2 LT PUSH2 0x14A JUMPI PUSH2 0x149 PUSH2 0x149A JUMP JUMPDEST JUMPDEST PUSH1 0x20 MUL PUSH1 0x20 ADD ADD DUP2 DUP2 MSTORE POP POP DUP1 DUP1 PUSH2 0x161 SWAP1 PUSH2 0x14F8 JUMP JUMPDEST SWAP2 POP POP PUSH2 0x116 JUMP JUMPDEST POP PUSH1 0x0 PUSH2 0x176 DUP3 DUP7 PUSH2 0x283 JUMP JUMPDEST SUB PUSH2 0x1BD JUMPI PUSH32 0xA589151D4DC88AC2A10C6E0CD8AAD42F7AF34723F2B7468A1AD8267968DD648A PUSH1 0x1 PUSH1 0x40 MLOAD PUSH2 0x1AB SWAP2 SWAP1 PUSH2 0x13CA JUMP JUMPDEST PUSH1 0x40 MLOAD DUP1 SWAP2 SUB SWAP1 LOG1 PUSH1 0x1 SWAP2 POP POP PUSH2 0x1FB JUMP JUMPDEST PUSH32 0xA589151D4DC88AC2A10C6E0CD8AAD42F7AF34723F2B7468A1AD8267968DD648A PUSH1 0x0 PUSH1 0x40 MLOAD PUSH2 0x1ED SWAP2 SWAP1 PUSH2 0x13CA JUMP JUMPDEST PUSH1 0x40 MLOAD DUP1 SWAP2 SUB SWAP1 LOG1 PUSH1 0x0 SWAP2 POP POP JUMPDEST SWAP3 SWAP2 POP POP JUMP JUMPDEST PUSH1 0x0 DUP1 PUSH1 0x0 SWAP1 SLOAD SWAP1 PUSH2 0x100 EXP SWAP1 DIV PUSH20 0xFFFFFFFFFFFFFFFFFFFFFFFFFFFFFFFFFFFFFFFF AND PUSH20 0xFFFFFFFFFFFFFFFFFFFFFFFFFFFFFFFFFFFFFFFF AND DUP3 PUSH20 0xFFFFFFFFFFFFFFFFFFFFFFFFFFFFFFFFFFFFFFFF AND EQ SWAP1 POP SWAP2 SWAP1 POP JUMP JUMPDEST PUSH1 0x0 DUP1 PUSH1 0x0 SWAP1 SLOAD SWAP1 PUSH2 0x100 EXP SWAP1 DIV PUSH20 0xFFFFFFFFFFFFFFFFFFFFFFFFFFFFFFFFFFFFFFFF AND SWAP1 POP SWAP1 JUMP JUMPDEST PUSH1 0x0 DUP1 PUSH32 0x30644E72E131A029B85045B68181585D2833E84879B9709143E1F593F0000001 SWAP1 POP PUSH1 0x0 PUSH2 0x2B3 PUSH2 0x41A JUMP JUMPDEST SWAP1 POP DUP1 PUSH1 0x80 ADD MLOAD MLOAD PUSH1 0x1 DUP7 MLOAD PUSH2 0x2C9 SWAP2 SWAP1 PUSH2 0x1540 JUMP JUMPDEST EQ PUSH2 0x2D3 JUMPI PUSH1 0x0 DUP1 REVERT JUMPDEST PUSH1 0x0 PUSH1 0x40 MLOAD DUP1 PUSH1 0x40 ADD PUSH1 0x40 MSTORE DUP1 PUSH1 0x0 DUP2 MSTORE PUSH1 0x20 ADD PUSH1 0x0 DUP2 MSTORE POP SWAP1 POP PUSH1 0x0 JUMPDEST DUP7 MLOAD DUP2 LT ISZERO PUSH2 0x38C JUMPI DUP4 DUP8 DUP3 DUP2 MLOAD DUP2 LT PUSH2 0x30E JUMPI PUSH2 0x30D PUSH2 0x149A JUMP JUMPDEST JUMPDEST PUSH1 0x20 MUL PUSH1 0x20 ADD ADD MLOAD LT PUSH2 0x320 JUMPI PUSH1 0x0 DUP1 REVERT JUMPDEST PUSH2 0x377 DUP3 PUSH2 0x372 DUP6 PUSH1 0x80 ADD MLOAD PUSH1 0x1 DUP6 PUSH2 0x339 SWAP2 SWAP1 PUSH2 0x1540 JUMP JUMPDEST DUP2 MLOAD DUP2 LT PUSH2 0x34A JUMPI PUSH2 0x349 PUSH2 0x149A JUMP JUMPDEST JUMPDEST PUSH1 0x20 MUL PUSH1 0x20 ADD ADD MLOAD DUP11 DUP6 DUP2 MLOAD DUP2 LT PUSH2 0x365 JUMPI PUSH2 0x364 PUSH2 0x149A JUMP JUMPDEST JUMPDEST PUSH1 0x20 MUL PUSH1 0x20 ADD ADD MLOAD PUSH2 0x896 JUMP JUMPDEST PUSH2 0x938 JUMP JUMPDEST SWAP2 POP DUP1 DUP1 PUSH2 0x384 SWAP1 PUSH2 0x14F8 JUMP JUMPDEST SWAP2 POP POP PUSH2 0x2F1 JUMP JUMPDEST POP PUSH2 0x3B6 DUP2 DUP4 PUSH1 0x80 ADD MLOAD PUSH1 0x0 DUP2 MLOAD DUP2 LT PUSH2 0x3A9 JUMPI PUSH2 0x3A8 PUSH2 0x149A JUMP JUMPDEST JUMPDEST PUSH1 0x20 MUL PUSH1 0x20 ADD ADD MLOAD PUSH2 0x938 JUMP JUMPDEST SWAP1 POP PUSH2 0x3FC DUP6 PUSH1 0x0 ADD MLOAD DUP7 PUSH1 0x20 ADD MLOAD PUSH2 0x3CE DUP5 PUSH2 0xA00 JUMP JUMPDEST DUP6 PUSH1 0x40 ADD MLOAD PUSH2 0x3E0 DUP11 PUSH1 0x40 ADD MLOAD PUSH2 0xA00 JUMP JUMPDEST DUP8 PUSH1 0x60 ADD MLOAD PUSH2 0x3F2 DUP10 PUSH1 0x20 ADD MLOAD PUSH2 0xA00 JUMP JUMPDEST DUP10 PUSH1 0x0 ADD MLOAD PUSH2 0xAA5 JUMP JUMPDEST PUSH2 0x40C JUMPI PUSH1 0x1 SWAP4 POP POP POP POP PUSH2 0x414 JUMP JUMPDEST PUSH1 0x0 SWAP4 POP POP POP POP JUMPDEST SWAP3 SWAP2 POP POP JUMP JUMPDEST PUSH2 0x422 PUSH2 0xFC8 JUMP JUMPDEST PUSH1 0x40 MLOAD DUP1 PUSH1 0x40 ADD PUSH1 0x40 MSTORE DUP1 PUSH32 0x66553B8FCBA117B33DE76A56DD17AAFFD849CA7B4FE0D2C6A16E9EC14A88822 DUP2 MSTORE PUSH1 0x20 ADD PUSH32 0x66F78592F981303DDDA83B10BA98511EBA5A37B4EA9B0853DA73F9EF9784974 DUP2 MSTORE POP DUP2 PUSH1 0x20 ADD DUP2 SWAP1 MSTORE POP PUSH1 0x40 MLOAD DUP1 PUSH1 0x40 ADD PUSH1 0x40 MSTORE DUP1 PUSH1 0x40 MLOAD DUP1 PUSH1 0x40 ADD PUSH1 0x40 MSTORE DUP1 PUSH32 0x7A604C23B2259A5C440F40E0770D6F906E9B42845E5AB2CF664863D4322693C DUP2 MSTORE PUSH1 0x20 ADD PUSH32 0x144D527BFEED78141D970E24292CCD24D91F9190FDA2A09DA56DC3F7A52F283E DUP2 MSTORE POP DUP2 MSTORE PUSH1 0x20 ADD PUSH1 0x40 MLOAD DUP1 PUSH1 0x40 ADD PUSH1 0x40 MSTORE DUP1 PUSH32 0x20C68E33E17BB1BC424CB2D8212E940D348F25CB2002738B8491DDB16ACC6BA1 DUP2 MSTORE PUSH1 0x20 ADD PUSH32 0x3237622BDA6CD21A559FBB7E525B26D2754178A551E5D6483A13181A8321FA1 DUP2 MSTORE POP DUP2 MSTORE POP DUP2 PUSH1 0x0 ADD DUP2 SWAP1 MSTORE POP PUSH1 0x40 MLOAD DUP1 PUSH1 0x40 ADD PUSH1 0x40 MSTORE DUP1 PUSH1 0x40 MLOAD DUP1 PUSH1 0x40 ADD PUSH1 0x40 MSTORE DUP1 PUSH32 0x2C8D18EC7A27C73C549AE598858E04549A4AFBF55B35AC27A33500FA47979A31 DUP2 MSTORE PUSH1 0x20 ADD PUSH32 0x9AF3CFF8C3632CA41EEC1E7B63DA858DF12912FFB3C8E2D1D24D40EF4727F9D DUP2 MSTORE POP DUP2 MSTORE PUSH1 0x20 ADD PUSH1 0x40 MLOAD DUP1 PUSH1 0x40 ADD PUSH1 0x40 MSTORE DUP1 PUSH32 0xDC4EE154E51BE54FC5682BFB2139EF09E7681B25D321DDD717CBF7BA9726751 DUP2 MSTORE PUSH1 0x20 ADD PUSH32 0x2C73F32B3D80C1B6F9DCE28C840C69CEFC7D4B7E0EC4A9DAB7019BEA724E4CC DUP2 MSTORE POP DUP2 MSTORE POP DUP2 PUSH1 0x40 ADD DUP2 SWAP1 MSTORE POP PUSH1 0x40 MLOAD DUP1 PUSH1 0x40 ADD PUSH1 0x40 MSTORE DUP1 PUSH1 0x40 MLOAD DUP1 PUSH1 0x40 ADD PUSH1 0x40 MSTORE DUP1 PUSH32 0x15116AC1900CCF0DB1D370FEC8291F78E78DDC4B18205F54E6A22A224BBB557F DUP2 MSTORE PUSH1 0x20 ADD PUSH32 0x267143BC514049EF27A7953E1C0D9587BB5F1DBFEC3D717EC41C86137A991F69 DUP2 MSTORE POP DUP2 MSTORE PUSH1 0x20 ADD PUSH1 0x40 MLOAD DUP1 PUSH1 0x40 ADD PUSH1 0x40 MSTORE DUP1 PUSH32 0x28206E51E757BD8B5E4FE2BAFBCD1196498643337AAA9E7AFD9A47B76C944357 DUP2 MSTORE PUSH1 0x20 ADD PUSH32 0xD14F9093DECE5D4AF5ED4124AE4600D94499253552996FC7073A1DCDE909919 DUP2 MSTORE POP DUP2 MSTORE POP DUP2 PUSH1 0x60 ADD DUP2 SWAP1 MSTORE POP PUSH1 0x3 PUSH8 0xFFFFFFFFFFFFFFFF DUP2 GT ISZERO PUSH2 0x6E9 JUMPI PUSH2 0x6E8 PUSH2 0x10FC JUMP JUMPDEST JUMPDEST PUSH1 0x40 MLOAD SWAP1 DUP1 DUP3 MSTORE DUP1 PUSH1 0x20 MUL PUSH1 0x20 ADD DUP3 ADD PUSH1 0x40 MSTORE DUP1 ISZERO PUSH2 0x722 JUMPI DUP2 PUSH1 0x20 ADD JUMPDEST PUSH2 0x70F PUSH2 0x100F JUMP JUMPDEST DUP2 MSTORE PUSH1 0x20 ADD SWAP1 PUSH1 0x1 SWAP1 SUB SWAP1 DUP2 PUSH2 0x707 JUMPI SWAP1 POP JUMPDEST POP DUP2 PUSH1 0x80 ADD DUP2 SWAP1 MSTORE POP PUSH1 0x40 MLOAD DUP1 PUSH1 0x40 ADD PUSH1 0x40 MSTORE DUP1 PUSH32 0x13ED617263023BBC7A813D5788AF3340ADE29B94293353CC6D4D3221EFE507FE DUP2 MSTORE PUSH1 0x20 ADD PUSH32 0x2BB8F6BE056CB950ABF8267AFCD9A6D787B704FD92752E8559F4107CB99521D2 DUP2 MSTORE POP DUP2 PUSH1 0x80 ADD MLOAD PUSH1 0x0 DUP2 MLOAD DUP2 LT PUSH2 0x798 JUMPI PUSH2 0x797 PUSH2 0x149A JUMP JUMPDEST JUMPDEST PUSH1 0x20 MUL PUSH1 0x20 ADD ADD DUP2 SWAP1 MSTORE POP PUSH1 0x40 MLOAD DUP1 PUSH1 0x40 ADD PUSH1 0x40 MSTORE DUP1 PUSH32 0x188EDC46C3D2C77DCE751077DFF767C1988A8F3A5B7D419595C17F6C5EB851EE DUP2 MSTORE PUSH1 0x20 ADD PUSH32 0x2AF8E5DF9668AF1995B08EF029FABAAE04EB8F497CFACBB9EB442C2FC605DD9F DUP2 MSTORE POP DUP2 PUSH1 0x80 ADD MLOAD PUSH1 0x1 DUP2 MLOAD DUP2 LT PUSH2 0x810 JUMPI PUSH2 0x80F PUSH2 0x149A JUMP JUMPDEST JUMPDEST PUSH1 0x20 MUL PUSH1 0x20 ADD ADD DUP2 SWAP1 MSTORE POP PUSH1 0x40 MLOAD DUP1 PUSH1 0x40 ADD PUSH1 0x40 MSTORE DUP1 PUSH32 0x199F68A740799A5298D65BEA4FD65C3CA9ADD7EF4090B8A9A912EC820E225BEA DUP2 MSTORE PUSH1 0x20 ADD PUSH32 0x24EA1EC41B0EE418FA3C73183CA75C5EA2F0BD0DC33AF48A0900B6D347D95975 DUP2 MSTORE POP DUP2 PUSH1 0x80 ADD MLOAD PUSH1 0x2 DUP2 MLOAD DUP2 LT PUSH2 0x888 JUMPI PUSH2 0x887 PUSH2 0x149A JUMP JUMPDEST JUMPDEST PUSH1 0x20 MUL PUSH1 0x20 ADD ADD DUP2 SWAP1 MSTORE POP SWAP1 JUMP JUMPDEST PUSH2 0x89E PUSH2 0x100F JUMP JUMPDEST PUSH2 0x8A6 PUSH2 0x1029 JUMP JUMPDEST DUP4 PUSH1 0x0 ADD MLOAD DUP2 PUSH1 0x0 PUSH1 0x3 DUP2 LT PUSH2 0x8BF JUMPI PUSH2 0x8BE PUSH2 0x149A JUMP JUMPDEST JUMPDEST PUSH1 0x20 MUL ADD DUP2 DUP2 MSTORE POP POP DUP4 PUSH1 0x20 ADD MLOAD DUP2 PUSH1 0x1 PUSH1 0x3 DUP2 LT PUSH2 0x8E1 JUMPI PUSH2 0x8E0 PUSH2 0x149A JUMP JUMPDEST JUMPDEST PUSH1 0x20 MUL ADD DUP2 DUP2 MSTORE POP POP DUP3 DUP2 PUSH1 0x2 PUSH1 0x3 DUP2 LT PUSH2 0x8FF JUMPI PUSH2 0x8FE PUSH2 0x149A JUMP JUMPDEST JUMPDEST PUSH1 0x20 MUL ADD DUP2 DUP2 MSTORE POP POP PUSH1 0x0 PUSH1 0x60 DUP4 PUSH1 0x80 DUP5 PUSH1 0x7 PUSH2 0x7D0 GAS SUB STATICCALL SWAP1 POP DUP1 PUSH1 0x0 DUP2 SUB PUSH2 0x925 JUMPI INVALID JUMPDEST POP DUP1 PUSH2 0x930 JUMPI PUSH1 0x0 DUP1 REVERT JUMPDEST POP POP SWAP3 SWAP2 POP POP JUMP JUMPDEST PUSH2 0x940 PUSH2 0x100F JUMP JUMPDEST PUSH2 0x948 PUSH2 0x104B JUMP JUMPDEST DUP4 PUSH1 0x0 ADD MLOAD DUP2 PUSH1 0x0 PUSH1 0x4 DUP2 LT PUSH2 0x961 JUMPI PUSH2 0x960 PUSH2 0x149A JUMP JUMPDEST JUMPDEST PUSH1 0x20 MUL ADD DUP2 DUP2 MSTORE POP POP DUP4 PUSH1 0x20 ADD MLOAD DUP2 PUSH1 0x1 PUSH1 0x4 DUP2 LT PUSH2 0x983 JUMPI PUSH2 0x982 PUSH2 0x149A JUMP JUMPDEST JUMPDEST PUSH1 0x20 MUL ADD DUP2 DUP2 MSTORE POP POP DUP3 PUSH1 0x0 ADD MLOAD DUP2 PUSH1 0x2 PUSH1 0x4 DUP2 LT PUSH2 0x9A5 JUMPI PUSH2 0x9A4 PUSH2 0x149A JUMP JUMPDEST JUMPDEST PUSH1 0x20 MUL ADD DUP2 DUP2 MSTORE POP POP DUP3 PUSH1 0x20 ADD MLOAD DUP2 PUSH1 0x3 PUSH1 0x4 DUP2 LT PUSH2 0x9C7 JUMPI PUSH2 0x9C6 PUSH2 0x149A JUMP JUMPDEST JUMPDEST PUSH1 0x20 MUL ADD DUP2 DUP2 MSTORE POP POP PUSH1 0x0 PUSH1 0x60 DUP4 PUSH1 0xC0 DUP5 PUSH1 0x6 PUSH2 0x7D0 GAS SUB STATICCALL SWAP1 POP DUP1 PUSH1 0x0 DUP2 SUB PUSH2 0x9ED JUMPI INVALID JUMPDEST POP DUP1 PUSH2 0x9F8 JUMPI PUSH1 0x0 DUP1 REVERT JUMPDEST POP POP SWAP3 SWAP2 POP POP JUMP JUMPDEST PUSH2 0xA08 PUSH2 0x100F JUMP JUMPDEST PUSH1 0x0 PUSH32 0x30644E72E131A029B85045B68181585D97816A916871CA8D3C208C16D87CFD47 SWAP1 POP PUSH1 0x0 DUP4 PUSH1 0x0 ADD MLOAD EQ DUP1 ISZERO PUSH2 0xA45 JUMPI POP PUSH1 0x0 DUP4 PUSH1 0x20 ADD MLOAD EQ JUMPDEST ISZERO PUSH2 0xA69 JUMPI PUSH1 0x40 MLOAD DUP1 PUSH1 0x40 ADD PUSH1 0x40 MSTORE DUP1 PUSH1 0x0 DUP2 MSTORE PUSH1 0x20 ADD PUSH1 0x0 DUP2 MSTORE POP SWAP2 POP POP PUSH2 0xAA0 JUMP JUMPDEST PUSH1 0x40 MLOAD DUP1 PUSH1 0x40 ADD PUSH1 0x40 MSTORE DUP1 DUP5 PUSH1 0x0 ADD MLOAD DUP2 MSTORE PUSH1 0x20 ADD DUP3 DUP6 PUSH1 0x20 ADD MLOAD PUSH2 0xA8E SWAP2 SWAP1 PUSH2 0x15A3 JUMP JUMPDEST DUP4 PUSH2 0xA99 SWAP2 SWAP1 PUSH2 0x15D4 JUMP JUMPDEST DUP2 MSTORE POP SWAP2 POP POP JUMPDEST SWAP2 SWAP1 POP JUMP JUMPDEST PUSH1 0x0 DUP1 PUSH1 0x4 PUSH8 0xFFFFFFFFFFFFFFFF DUP2 GT ISZERO PUSH2 0xAC3 JUMPI PUSH2 0xAC2 PUSH2 0x10FC JUMP JUMPDEST JUMPDEST PUSH1 0x40 MLOAD SWAP1 DUP1 DUP3 MSTORE DUP1 PUSH1 0x20 MUL PUSH1 0x20 ADD DUP3 ADD PUSH1 0x40 MSTORE DUP1 ISZERO PUSH2 0xAFC JUMPI DUP2 PUSH1 0x20 ADD JUMPDEST PUSH2 0xAE9 PUSH2 0x100F JUMP JUMPDEST DUP2 MSTORE PUSH1 0x20 ADD SWAP1 PUSH1 0x1 SWAP1 SUB SWAP1 DUP2 PUSH2 0xAE1 JUMPI SWAP1 POP JUMPDEST POP SWAP1 POP PUSH1 0x0 PUSH1 0x4 PUSH8 0xFFFFFFFFFFFFFFFF DUP2 GT ISZERO PUSH2 0xB1C JUMPI PUSH2 0xB1B PUSH2 0x10FC JUMP JUMPDEST JUMPDEST PUSH1 0x40 MLOAD SWAP1 DUP1 DUP3 MSTORE DUP1 PUSH1 0x20 MUL PUSH1 0x20 ADD DUP3 ADD PUSH1 0x40 MSTORE DUP1 ISZERO PUSH2 0xB55 JUMPI DUP2 PUSH1 0x20 ADD JUMPDEST PUSH2 0xB42 PUSH2 0x106D JUMP JUMPDEST DUP2 MSTORE PUSH1 0x20 ADD SWAP1 PUSH1 0x1 SWAP1 SUB SWAP1 DUP2 PUSH2 0xB3A JUMPI SWAP1 POP JUMPDEST POP SWAP1 POP DUP11 DUP3 PUSH1 0x0 DUP2 MLOAD DUP2 LT PUSH2 0xB6D JUMPI PUSH2 0xB6C PUSH2 0x149A JUMP JUMPDEST JUMPDEST PUSH1 0x20 MUL PUSH1 0x20 ADD ADD DUP2 SWAP1 MSTORE POP DUP9 DUP3 PUSH1 0x1 DUP2 MLOAD DUP2 LT PUSH2 0xB8D JUMPI PUSH2 0xB8C PUSH2 0x149A JUMP JUMPDEST JUMPDEST PUSH1 0x20 MUL PUSH1 0x20 ADD ADD DUP2 SWAP1 MSTORE POP DUP7 DUP3 PUSH1 0x2 DUP2 MLOAD DUP2 LT PUSH2 0xBAD JUMPI PUSH2 0xBAC PUSH2 0x149A JUMP JUMPDEST JUMPDEST PUSH1 0x20 MUL PUSH1 0x20 ADD ADD DUP2 SWAP1 MSTORE POP DUP5 DUP3 PUSH1 0x3 DUP2 MLOAD DUP2 LT PUSH2 0xBCD JUMPI PUSH2 0xBCC PUSH2 0x149A JUMP JUMPDEST JUMPDEST PUSH1 0x20 MUL PUSH1 0x20 ADD ADD DUP2 SWAP1 MSTORE POP DUP10 DUP2 PUSH1 0x0 DUP2 MLOAD DUP2 LT PUSH2 0xBED JUMPI PUSH2 0xBEC PUSH2 0x149A JUMP JUMPDEST JUMPDEST PUSH1 0x20 MUL PUSH1 0x20 ADD ADD DUP2 SWAP1 MSTORE POP DUP8 DUP2 PUSH1 0x1 DUP2 MLOAD DUP2 LT PUSH2 0xC0D JUMPI PUSH2 0xC0C PUSH2 0x149A JUMP JUMPDEST JUMPDEST PUSH1 0x20 MUL PUSH1 0x20 ADD ADD DUP2 SWAP1 MSTORE POP DUP6 DUP2 PUSH1 0x2 DUP2 MLOAD DUP2 LT PUSH2 0xC2D JUMPI PUSH2 0xC2C PUSH2 0x149A JUMP JUMPDEST JUMPDEST PUSH1 0x20 MUL PUSH1 0x20 ADD ADD DUP2 SWAP1 MSTORE POP DUP4 DUP2 PUSH1 0x3 DUP2 MLOAD DUP2 LT PUSH2 0xC4D JUMPI PUSH2 0xC4C PUSH2 0x149A JUMP JUMPDEST JUMPDEST PUSH1 0x20 MUL PUSH1 0x20 ADD ADD DUP2 SWAP1 MSTORE POP PUSH2 0xC62 DUP3 DUP3 PUSH2 0xC72 JUMP JUMPDEST SWAP3 POP POP POP SWAP9 SWAP8 POP POP POP POP POP POP POP POP JUMP JUMPDEST PUSH1 0x0 DUP2 MLOAD DUP4 MLOAD EQ PUSH2 0xC82 JUMPI PUSH1 0x0 DUP1 REVERT JUMPDEST PUSH1 0x0 DUP4 MLOAD SWAP1 POP PUSH1 0x0 PUSH1 0x6 DUP3 PUSH2 0xC97 SWAP2 SWAP1 PUSH2 0x1608 JUMP JUMPDEST SWAP1 POP PUSH1 0x0 DUP2 PUSH8 0xFFFFFFFFFFFFFFFF DUP2 GT ISZERO PUSH2 0xCB5 JUMPI PUSH2 0xCB4 PUSH2 0x10FC JUMP JUMPDEST JUMPDEST PUSH1 0x40 MLOAD SWAP1 DUP1 DUP3 MSTORE DUP1 PUSH1 0x20 MUL PUSH1 0x20 ADD DUP3 ADD PUSH1 0x40 MSTORE DUP1 ISZERO PUSH2 0xCE3 JUMPI DUP2 PUSH1 0x20 ADD PUSH1 0x20 DUP3 MUL DUP1 CALLDATASIZE DUP4 CALLDATACOPY DUP1 DUP3 ADD SWAP2 POP POP SWAP1 POP JUMPDEST POP SWAP1 POP PUSH1 0x0 JUMPDEST DUP4 DUP2 LT ISZERO PUSH2 0xF68 JUMPI DUP7 DUP2 DUP2 MLOAD DUP2 LT PUSH2 0xD04 JUMPI PUSH2 0xD03 PUSH2 0x149A JUMP JUMPDEST JUMPDEST PUSH1 0x20 MUL PUSH1 0x20 ADD ADD MLOAD PUSH1 0x0 ADD MLOAD DUP3 PUSH1 0x0 PUSH1 0x6 DUP5 PUSH2 0xD20 SWAP2 SWAP1 PUSH2 0x1608 JUMP JUMPDEST PUSH2 0xD2A SWAP2 SWAP1 PUSH2 0x1540 JUMP JUMPDEST DUP2 MLOAD DUP2 LT PUSH2 0xD3B JUMPI PUSH2 0xD3A PUSH2 0x149A JUMP JUMPDEST JUMPDEST PUSH1 0x20 MUL PUSH1 0x20 ADD ADD DUP2 DUP2 MSTORE POP POP DUP7 DUP2 DUP2 MLOAD DUP2 LT PUSH2 0xD5A JUMPI PUSH2 0xD59 PUSH2 0x149A JUMP JUMPDEST JUMPDEST PUSH1 0x20 MUL PUSH1 0x20 ADD ADD MLOAD PUSH1 0x20 ADD MLOAD DUP3 PUSH1 0x1 PUSH1 0x6 DUP5 PUSH2 0xD76 SWAP2 SWAP1 PUSH2 0x1608 JUMP JUMPDEST PUSH2 0xD80 SWAP2 SWAP1 PUSH2 0x1540 JUMP JUMPDEST DUP2 MLOAD DUP2 LT PUSH2 0xD91 JUMPI PUSH2 0xD90 PUSH2 0x149A JUMP JUMPDEST JUMPDEST PUSH1 0x20 MUL PUSH1 0x20 ADD ADD DUP2 DUP2 MSTORE POP POP DUP6 DUP2 DUP2 MLOAD DUP2 LT PUSH2 0xDB0 JUMPI PUSH2 0xDAF PUSH2 0x149A JUMP JUMPDEST JUMPDEST PUSH1 0x20 MUL PUSH1 0x20 ADD ADD MLOAD PUSH1 0x0 ADD MLOAD PUSH1 0x1 PUSH1 0x2 DUP2 LT PUSH2 0xDCF JUMPI PUSH2 0xDCE PUSH2 0x149A JUMP JUMPDEST JUMPDEST PUSH1 0x20 MUL ADD MLOAD DUP3 PUSH1 0x2 PUSH1 0x6 DUP5 PUSH2 0xDE4 SWAP2 SWAP1 PUSH2 0x1608 JUMP JUMPDEST PUSH2 0xDEE SWAP2 SWAP1 PUSH2 0x1540 JUMP JUMPDEST DUP2 MLOAD DUP2 LT PUSH2 0xDFF JUMPI PUSH2 0xDFE PUSH2 0x149A JUMP JUMPDEST JUMPDEST PUSH1 0x20 MUL PUSH1 0x20 ADD ADD DUP2 DUP2 MSTORE POP POP DUP6 DUP2 DUP2 MLOAD DUP2 LT PUSH2 0xE1E JUMPI PUSH2 0xE1D PUSH2 0x149A JUMP JUMPDEST JUMPDEST PUSH1 0x20 MUL PUSH1 0x20 ADD ADD MLOAD PUSH1 0x0 ADD MLOAD PUSH1 0x0 PUSH1 0x2 DUP2 LT PUSH2 0xE3D JUMPI PUSH2 0xE3C PUSH2 0x149A JUMP JUMPDEST JUMPDEST PUSH1 0x20 MUL ADD MLOAD DUP3 PUSH1 0x3 PUSH1 0x6 DUP5 PUSH2 0xE52 SWAP2 SWAP1 PUSH2 0x1608 JUMP JUMPDEST PUSH2 0xE5C SWAP2 SWAP1 PUSH2 0x1540 JUMP JUMPDEST DUP2 MLOAD DUP2 LT PUSH2 0xE6D JUMPI PUSH2 0xE6C PUSH2 0x149A JUMP JUMPDEST JUMPDEST PUSH1 0x20 MUL PUSH1 0x20 ADD ADD DUP2 DUP2 MSTORE POP POP DUP6 DUP2 DUP2 MLOAD DUP2 LT PUSH2 0xE8C JUMPI PUSH2 0xE8B PUSH2 0x149A JUMP JUMPDEST JUMPDEST PUSH1 0x20 MUL PUSH1 0x20 ADD ADD MLOAD PUSH1 0x20 ADD MLOAD PUSH1 0x1 PUSH1 0x2 DUP2 LT PUSH2 0xEAB JUMPI PUSH2 0xEAA PUSH2 0x149A JUMP JUMPDEST JUMPDEST PUSH1 0x20 MUL ADD MLOAD DUP3 PUSH1 0x4 PUSH1 0x6 DUP5 PUSH2 0xEC0 SWAP2 SWAP1 PUSH2 0x1608 JUMP JUMPDEST PUSH2 0xECA SWAP2 SWAP1 PUSH2 0x1540 JUMP JUMPDEST DUP2 MLOAD DUP2 LT PUSH2 0xEDB JUMPI PUSH2 0xEDA PUSH2 0x149A JUMP JUMPDEST JUMPDEST PUSH1 0x20 MUL PUSH1 0x20 ADD ADD DUP2 DUP2 MSTORE POP POP DUP6 DUP2 DUP2 MLOAD DUP2 LT PUSH2 0xEFA JUMPI PUSH2 0xEF9 PUSH2 0x149A JUMP JUMPDEST JUMPDEST PUSH1 0x20 MUL PUSH1 0x20 ADD ADD MLOAD PUSH1 0x20 ADD MLOAD PUSH1 0x0 PUSH1 0x2 DUP2 LT PUSH2 0xF19 JUMPI PUSH2 0xF18 PUSH2 0x149A JUMP JUMPDEST JUMPDEST PUSH1 0x20 MUL ADD MLOAD DUP3 PUSH1 0x5 PUSH1 0x6 DUP5 PUSH2 0xF2E SWAP2 SWAP1 PUSH2 0x1608 JUMP JUMPDEST PUSH2 0xF38 SWAP2 SWAP1 PUSH2 0x1540 JUMP JUMPDEST DUP2 MLOAD DUP2 LT PUSH2 0xF49 JUMPI PUSH2 0xF48 PUSH2 0x149A JUMP JUMPDEST JUMPDEST PUSH1 0x20 MUL PUSH1 0x20 ADD ADD DUP2 DUP2 MSTORE POP POP DUP1 DUP1 PUSH2 0xF60 SWAP1 PUSH2 0x14F8 JUMP JUMPDEST SWAP2 POP POP PUSH2 0xCE9 JUMP JUMPDEST POP PUSH2 0xF71 PUSH2 0x1093 JUMP JUMPDEST PUSH1 0x0 PUSH1 0x20 DUP3 PUSH1 0x20 DUP7 MUL PUSH1 0x20 DUP7 ADD PUSH1 0x8 PUSH2 0x7D0 GAS SUB STATICCALL SWAP1 POP DUP1 PUSH1 0x0 DUP2 SUB PUSH2 0xF93 JUMPI INVALID JUMPDEST POP DUP1 PUSH2 0xF9E JUMPI PUSH1 0x0 DUP1 REVERT JUMPDEST PUSH1 0x0 DUP3 PUSH1 0x0 PUSH1 0x1 DUP2 LT PUSH2 0xFB4 JUMPI PUSH2 0xFB3 PUSH2 0x149A JUMP JUMPDEST JUMPDEST PUSH1 0x20 MUL ADD MLOAD EQ ISZERO SWAP6 POP POP POP POP POP POP SWAP3 SWAP2 POP POP JUMP JUMPDEST PUSH1 0x40 MLOAD DUP1 PUSH1 0xA0 ADD PUSH1 0x40 MSTORE DUP1 PUSH2 0xFDB PUSH2 0x106D JUMP JUMPDEST DUP2 MSTORE PUSH1 0x20 ADD PUSH2 0xFE8 PUSH2 0x100F JUMP JUMPDEST DUP2 MSTORE PUSH1 0x20 ADD PUSH2 0xFF5 PUSH2 0x106D JUMP JUMPDEST DUP2 MSTORE PUSH1 0x20 ADD PUSH2 0x1002 PUSH2 0x106D JUMP JUMPDEST DUP2 MSTORE PUSH1 0x20 ADD PUSH1 0x60 DUP2 MSTORE POP SWAP1 JUMP JUMPDEST PUSH1 0x40 MLOAD DUP1 PUSH1 0x40 ADD PUSH1 0x40 MSTORE DUP1 PUSH1 0x0 DUP2 MSTORE PUSH1 0x20 ADD PUSH1 0x0 DUP2 MSTORE POP SWAP1 JUMP JUMPDEST PUSH1 0x40 MLOAD DUP1 PUSH1 0x60 ADD PUSH1 0x40 MSTORE DUP1 PUSH1 0x3 SWAP1 PUSH1 0x20 DUP3 MUL DUP1 CALLDATASIZE DUP4 CALLDATACOPY DUP1 DUP3 ADD SWAP2 POP POP SWAP1 POP POP SWAP1 JUMP JUMPDEST PUSH1 0x40 MLOAD DUP1 PUSH1 0x80 ADD PUSH1 0x40 MSTORE DUP1 PUSH1 0x4 SWAP1 PUSH1 0x20 DUP3 MUL DUP1 CALLDATASIZE DUP4 CALLDATACOPY DUP1 DUP3 ADD SWAP2 POP POP SWAP1 POP POP SWAP1 JUMP JUMPDEST PUSH1 0x40 MLOAD DUP1 PUSH1 0x40 ADD PUSH1 0x40 MSTORE DUP1 PUSH2 0x1080 PUSH2 0x10B5 JUMP JUMPDEST DUP2 MSTORE PUSH1 0x20 ADD PUSH2 0x108D PUSH2 0x10B5 JUMP JUMPDEST DUP2 MSTORE POP SWAP1 JUMP JUMPDEST PUSH1 0x40 MLOAD DUP1 PUSH1 0x20 ADD PUSH1 0x40 MSTORE DUP1 PUSH1 0x1 SWAP1 PUSH1 0x20 DUP3 MUL DUP1 CALLDATASIZE DUP4 CALLDATACOPY DUP1 DUP3 ADD SWAP2 POP POP SWAP1 POP POP SWAP1 JUMP JUMPDEST PUSH1 0x40 MLOAD DUP1 PUSH1 0x40 ADD PUSH1 0x40 MSTORE DUP1 PUSH1 0x2 SWAP1 PUSH1 0x20 DUP3 MUL DUP1 CALLDATASIZE DUP4 CALLDATACOPY DUP1 DUP3 ADD SWAP2 POP POP SWAP1 POP POP SWAP1 JUMP JUMPDEST PUSH1 0x0 PUSH1 0x40 MLOAD SWAP1 POP SWAP1 JUMP JUMPDEST PUSH1 0x0 DUP1 REVERT JUMPDEST PUSH1 0x0 DUP1 REVERT JUMPDEST PUSH1 0x0 PUSH1 0x1F NOT PUSH1 0x1F DUP4 ADD AND SWAP1 POP SWAP2 SWAP1 POP JUMP JUMPDEST PUSH32 0x4E487B7100000000000000000000000000000000000000000000000000000000 PUSH1 0x0 MSTORE PUSH1 0x41 PUSH1 0x4 MSTORE PUSH1 0x24 PUSH1 0x0 REVERT JUMPDEST PUSH2 0x1134 DUP3 PUSH2 0x10EB JUMP JUMPDEST DUP2 ADD DUP2 DUP2 LT PUSH8 0xFFFFFFFFFFFFFFFF DUP3 GT OR ISZERO PUSH2 0x1153 JUMPI PUSH2 0x1152 PUSH2 0x10FC JUMP JUMPDEST JUMPDEST DUP1 PUSH1 0x40 MSTORE POP POP POP JUMP JUMPDEST PUSH1 0x0 PUSH2 0x1166 PUSH2 0x10D7 JUMP JUMPDEST SWAP1 POP PUSH2 0x1172 DUP3 DUP3 PUSH2 0x112B JUMP JUMPDEST SWAP2 SWAP1 POP JUMP JUMPDEST PUSH1 0x0 DUP2 SWAP1 POP SWAP2 SWAP1 POP JUMP JUMPDEST PUSH2 0x118A DUP2 PUSH2 0x1177 JUMP JUMPDEST DUP2 EQ PUSH2 0x1195 JUMPI PUSH1 0x0 DUP1 REVERT JUMPDEST POP JUMP JUMPDEST PUSH1 0x0 DUP2 CALLDATALOAD SWAP1 POP PUSH2 0x11A7 DUP2 PUSH2 0x1181 JUMP JUMPDEST SWAP3 SWAP2 POP POP JUMP JUMPDEST PUSH1 0x0 PUSH1 0x40 DUP3 DUP5 SUB SLT ISZERO PUSH2 0x11C3 JUMPI PUSH2 0x11C2 PUSH2 0x10E6 JUMP JUMPDEST JUMPDEST PUSH2 0x11CD PUSH1 0x40 PUSH2 0x115C JUMP JUMPDEST SWAP1 POP PUSH1 0x0 PUSH2 0x11DD DUP5 DUP3 DUP6 ADD PUSH2 0x1198 JUMP JUMPDEST PUSH1 0x0 DUP4 ADD MSTORE POP PUSH1 0x20 PUSH2 0x11F1 DUP5 DUP3 DUP6 ADD PUSH2 0x1198 JUMP JUMPDEST PUSH1 0x20 DUP4 ADD MSTORE POP SWAP3 SWAP2 POP POP JUMP JUMPDEST PUSH1 0x0 DUP1 REVERT JUMPDEST PUSH1 0x0 PUSH8 0xFFFFFFFFFFFFFFFF DUP3 GT ISZERO PUSH2 0x121D JUMPI PUSH2 0x121C PUSH2 0x10FC JUMP JUMPDEST JUMPDEST PUSH1 0x20 DUP3 MUL SWAP1 POP SWAP2 SWAP1 POP JUMP JUMPDEST PUSH1 0x0 DUP1 REVERT JUMPDEST PUSH1 0x0 PUSH2 0x1240 PUSH2 0x123B DUP5 PUSH2 0x1202 JUMP JUMPDEST PUSH2 0x115C JUMP JUMPDEST SWAP1 POP DUP1 PUSH1 0x20 DUP5 MUL DUP4 ADD DUP6 DUP2 GT ISZERO PUSH2 0x125A JUMPI PUSH2 0x1259 PUSH2 0x1228 JUMP JUMPDEST JUMPDEST DUP4 JUMPDEST DUP2 DUP2 LT ISZERO PUSH2 0x1283 JUMPI DUP1 PUSH2 0x126F DUP9 DUP3 PUSH2 0x1198 JUMP JUMPDEST DUP5 MSTORE PUSH1 0x20 DUP5 ADD SWAP4 POP POP PUSH1 0x20 DUP2 ADD SWAP1 POP PUSH2 0x125C JUMP JUMPDEST POP POP POP SWAP4 SWAP3 POP POP POP JUMP JUMPDEST PUSH1 0x0 DUP3 PUSH1 0x1F DUP4 ADD SLT PUSH2 0x12A2 JUMPI PUSH2 0x12A1 PUSH2 0x11FD JUMP JUMPDEST JUMPDEST PUSH1 0x2 PUSH2 0x12AF DUP5 DUP3 DUP6 PUSH2 0x122D JUMP JUMPDEST SWAP2 POP POP SWAP3 SWAP2 POP POP JUMP JUMPDEST PUSH1 0x0 PUSH1 0x80 DUP3 DUP5 SUB SLT ISZERO PUSH2 0x12CE JUMPI PUSH2 0x12CD PUSH2 0x10E6 JUMP JUMPDEST JUMPDEST PUSH2 0x12D8 PUSH1 0x40 PUSH2 0x115C JUMP JUMPDEST SWAP1 POP PUSH1 0x0 PUSH2 0x12E8 DUP5 DUP3 DUP6 ADD PUSH2 0x128D JUMP JUMPDEST PUSH1 0x0 DUP4 ADD MSTORE POP PUSH1 0x40 PUSH2 0x12FC DUP5 DUP3 DUP6 ADD PUSH2 0x128D JUMP JUMPDEST PUSH1 0x20 DUP4 ADD MSTORE POP SWAP3 SWAP2 POP POP JUMP JUMPDEST PUSH1 0x0 PUSH2 0x100 DUP3 DUP5 SUB SLT ISZERO PUSH2 0x131F JUMPI PUSH2 0x131E PUSH2 0x10E6 JUMP JUMPDEST JUMPDEST PUSH2 0x1329 PUSH1 0x60 PUSH2 0x115C JUMP JUMPDEST SWAP1 POP PUSH1 0x0 PUSH2 0x1339 DUP5 DUP3 DUP6 ADD PUSH2 0x11AD JUMP JUMPDEST PUSH1 0x0 DUP4 ADD MSTORE POP PUSH1 0x40 PUSH2 0x134D DUP5 DUP3 DUP6 ADD PUSH2 0x12B8 JUMP JUMPDEST PUSH1 0x20 DUP4 ADD MSTORE POP PUSH1 0xC0 PUSH2 0x1361 DUP5 DUP3 DUP6 ADD PUSH2 0x11AD JUMP JUMPDEST PUSH1 0x40 DUP4 ADD MSTORE POP SWAP3 SWAP2 POP POP JUMP JUMPDEST PUSH1 0x0 DUP1 PUSH2 0x140 DUP4 DUP6 SUB SLT ISZERO PUSH2 0x1385 JUMPI PUSH2 0x1384 PUSH2 0x10E1 JUMP JUMPDEST JUMPDEST PUSH1 0x0 PUSH2 0x1393 DUP6 DUP3 DUP7 ADD PUSH2 0x1308 JUMP JUMPDEST SWAP3 POP POP PUSH2 0x100 PUSH2 0x13A5 DUP6 DUP3 DUP7 ADD PUSH2 0x128D JUMP JUMPDEST SWAP2 POP POP SWAP3 POP SWAP3 SWAP1 POP JUMP JUMPDEST PUSH1 0x0 DUP2 ISZERO ISZERO SWAP1 POP SWAP2 SWAP1 POP JUMP JUMPDEST PUSH2 0x13C4 DUP2 PUSH2 0x13AF JUMP JUMPDEST DUP3 MSTORE POP POP JUMP JUMPDEST PUSH1 0x0 PUSH1 0x20 DUP3 ADD SWAP1 POP PUSH2 0x13DF PUSH1 0x0 DUP4 ADD DUP5 PUSH2 0x13BB JUMP JUMPDEST SWAP3 SWAP2 POP POP JUMP JUMPDEST PUSH1 0x0 PUSH20 0xFFFFFFFFFFFFFFFFFFFFFFFFFFFFFFFFFFFFFFFF DUP3 AND SWAP1 POP SWAP2 SWAP1 POP JUMP JUMPDEST PUSH1 0x0 PUSH2 0x1410 DUP3 PUSH2 0x13E5 JUMP JUMPDEST SWAP1 POP SWAP2 SWAP1 POP JUMP JUMPDEST PUSH2 0x1420 DUP2 PUSH2 0x1405 JUMP JUMPDEST DUP2 EQ PUSH2 0x142B JUMPI PUSH1 0x0 DUP1 REVERT JUMPDEST POP JUMP JUMPDEST PUSH1 0x0 DUP2 CALLDATALOAD SWAP1 POP PUSH2 0x143D DUP2 PUSH2 0x1417 JUMP JUMPDEST SWAP3 SWAP2 POP POP JUMP JUMPDEST PUSH1 0x0 PUSH1 0x20 DUP3 DUP5 SUB SLT ISZERO PUSH2 0x1459 JUMPI PUSH2 0x1458 PUSH2 0x10E1 JUMP JUMPDEST JUMPDEST PUSH1 0x0 PUSH2 0x1467 DUP5 DUP3 DUP6 ADD PUSH2 0x142E JUMP JUMPDEST SWAP2 POP POP SWAP3 SWAP2 POP POP JUMP JUMPDEST PUSH2 0x1479 DUP2 PUSH2 0x1405 JUMP JUMPDEST DUP3 MSTORE POP POP JUMP JUMPDEST PUSH1 0x0 PUSH1 0x20 DUP3 ADD SWAP1 POP PUSH2 0x1494 PUSH1 0x0 DUP4 ADD DUP5 PUSH2 0x1470 JUMP JUMPDEST SWAP3 SWAP2 POP POP JUMP JUMPDEST PUSH32 0x4E487B7100000000000000000000000000000000000000000000000000000000 PUSH1 0x0 MSTORE PUSH1 0x32 PUSH1 0x4 MSTORE PUSH1 0x24 PUSH1 0x0 REVERT JUMPDEST PUSH32 0x4E487B7100000000000000000000000000000000000000000000000000000000 PUSH1 0x0 MSTORE PUSH1 0x11 PUSH1 0x4 MSTORE PUSH1 0x24 PUSH1 0x0 REVERT JUMPDEST PUSH1 0x0 PUSH2 0x1503 DUP3 PUSH2 0x1177 JUMP JUMPDEST SWAP2 POP PUSH32 0xFFFFFFFFFFFFFFFFFFFFFFFFFFFFFFFFFFFFFFFFFFFFFFFFFFFFFFFFFFFFFFFF DUP3 SUB PUSH2 0x1535 JUMPI PUSH2 0x1534 PUSH2 0x14C9 JUMP JUMPDEST JUMPDEST PUSH1 0x1 DUP3 ADD SWAP1 POP SWAP2 SWAP1 POP JUMP JUMPDEST PUSH1 0x0 PUSH2 0x154B DUP3 PUSH2 0x1177 JUMP JUMPDEST SWAP2 POP PUSH2 0x1556 DUP4 PUSH2 0x1177 JUMP JUMPDEST SWAP3 POP DUP3 DUP3 ADD SWAP1 POP DUP1 DUP3 GT ISZERO PUSH2 0x156E JUMPI PUSH2 0x156D PUSH2 0x14C9 JUMP JUMPDEST JUMPDEST SWAP3 SWAP2 POP POP JUMP JUMPDEST PUSH32 0x4E487B7100000000000000000000000000000000000000000000000000000000 PUSH1 0x0 MSTORE PUSH1 0x12 PUSH1 0x4 MSTORE PUSH1 0x24 PUSH1 0x0 REVERT JUMPDEST PUSH1 0x0 PUSH2 0x15AE DUP3 PUSH2 0x1177 JUMP JUMPDEST SWAP2 POP PUSH2 0x15B9 DUP4 PUSH2 0x1177 JUMP JUMPDEST SWAP3 POP DUP3 PUSH2 0x15C9 JUMPI PUSH2 0x15C8 PUSH2 0x1574 JUMP JUMPDEST JUMPDEST DUP3 DUP3 MOD SWAP1 POP SWAP3 SWAP2 POP POP JUMP JUMPDEST PUSH1 0x0 PUSH2 0x15DF DUP3 PUSH2 0x1177 JUMP JUMPDEST SWAP2 POP PUSH2 0x15EA DUP4 PUSH2 0x1177 JUMP JUMPDEST SWAP3 POP DUP3 DUP3 SUB SWAP1 POP DUP2 DUP2 GT ISZERO PUSH2 0x1602 JUMPI PUSH2 0x1601 PUSH2 0x14C9 JUMP JUMPDEST JUMPDEST SWAP3 SWAP2 POP POP JUMP JUMPDEST PUSH1 0x0 PUSH2 0x1613 DUP3 PUSH2 0x1177 JUMP JUMPDEST SWAP2 POP PUSH2 0x161E DUP4 PUSH2 0x1177 JUMP JUMPDEST SWAP3 POP DUP3 DUP3 MUL PUSH2 0x162C DUP2 PUSH2 0x1177 JUMP JUMPDEST SWAP2 POP DUP3 DUP3 DIV DUP5 EQ DUP4 ISZERO OR PUSH2 0x1643 JUMPI PUSH2 0x1642 PUSH2 0x14C9 JUMP JUMPDEST JUMPDEST POP SWAP3 SWAP2 POP POP JUMP INVALID LOG2 PUSH5 0x6970667358 0x22 SLT KECCAK256 0xD2 SMOD 0x2A 0xE4 PUSH9 0xE0AD9AC516493B2C20 SHL PUSH23 0x87D81D3CF29D4D704C68DB524AAF845764736F6C634300 ADDMOD GT STOP CALLER "},"methodIdentifiers":{"getTrustedForwarder()":"ce1b815f","isTrustedForwarder(address)":"572b6c05","verifyTx(((uint256,uint256),(uint256[2],uint256[2]),(uint256,uint256)),uint256[2])":"43cd76fc"}}}}}