{"contracts/UpkeeperRegistar.sol":{"UpkeepIDConsumerExample":{"abi":[{"inputs":[{"internalType":"contract LinkTokenInterface","name":"_link","type":"address"},{"internalType":"address","name":"_registrar","type":"address"},{"internalType":"contract AutomationRegistryInterface","name":"_registry","type":"address"}],"stateMutability":"nonpayable","type":"constructor"},{"anonymous":false,"inputs":[{"indexed":false,"internalType":"uint256","name":"upkeepID","type":"uint256"}],"name":"UpkeepID","type":"event"},{"inputs":[],"name":"i_link","outputs":[{"internalType":"contract LinkTokenInterface","name":"","type":"address"}],"stateMutability":"view","type":"function"},{"inputs":[],"name":"i_registry","outputs":[{"internalType":"contract AutomationRegistryInterface","name":"","type":"address"}],"stateMutability":"view","type":"function"},{"inputs":[{"internalType":"string","name":"name","type":"string"},{"internalType":"bytes","name":"encryptedEmail","type":"bytes"},{"internalType":"address","name":"upkeepContract","type":"address"},{"internalType":"uint32","name":"gasLimit","type":"uint32"},{"internalType":"address","name":"adminAddress","type":"address"},{"internalType":"bytes","name":"checkData","type":"bytes"},{"internalType":"uint96","name":"amount","type":"uint96"},{"internalType":"uint8","name":"source","type":"uint8"}],"name":"registerAndPredictID","outputs":[{"internalType":"uint256","name":"","type":"uint256"}],"stateMutability":"nonpayable","type":"function"},{"inputs":[],"name":"registrar","outputs":[{"internalType":"address","name":"","type":"address"}],"stateMutability":"view","type":"function"}],"evm":{"bytecode":{"linkReferences":{},"object":"60e0604052633659d66660e01b6000806101000a81548163ffffffff021916908360e01c02179055503480156200003557600080fd5b50604051620015923803806200159283398181016040528101906200005b9190620001f4565b8273ffffffffffffffffffffffffffffffffffffffff1660808173ffffffffffffffffffffffffffffffffffffffff16815250508173ffffffffffffffffffffffffffffffffffffffff1660a08173ffffffffffffffffffffffffffffffffffffffff16815250508073ffffffffffffffffffffffffffffffffffffffff1660c08173ffffffffffffffffffffffffffffffffffffffff168152505050505062000250565b600080fd5b600073ffffffffffffffffffffffffffffffffffffffff82169050919050565b6000620001328262000105565b9050919050565b6000620001468262000125565b9050919050565b620001588162000139565b81146200016457600080fd5b50565b60008151905062000178816200014d565b92915050565b620001898162000125565b81146200019557600080fd5b50565b600081519050620001a9816200017e565b92915050565b6000620001bc8262000125565b9050919050565b620001ce81620001af565b8114620001da57600080fd5b50565b600081519050620001ee81620001c3565b92915050565b60008060006060848603121562000210576200020f62000100565b5b6000620002208682870162000167565b9350506020620002338682870162000198565b92505060406200024686828701620001dd565b9150509250925092565b60805160a05160c0516112f0620002a26000396000818160e3015281816102b301528181610385015261046301526000818161020001526104870152600081816101c401526104ab01526112f06000f3fe608060405234801561001057600080fd5b506004361061004c5760003560e01c806318a9fb8a146100515780632a663606146100815780632b20e3971461009f5780637d253aff146100bd575b600080fd5b61006b6004803603810190610066919061079e565b6100db565b60405161007891906108ca565b60405180910390f35b610089610461565b6040516100969190610944565b60405180910390f35b6100a7610485565b6040516100b4919061096e565b60405180910390f35b6100c56104a9565b6040516100d291906109aa565b60405180910390f35b6000806000807f000000000000000000000000000000000000000000000000000000000000000073ffffffffffffffffffffffffffffffffffffffff16631865c57d6040518163ffffffff1660e01b8152600401600060405180830381865afa15801561014c573d6000803e3d6000fd5b505050506040513d6000823e3d601f19601f820116820180604052508101906101759190610d07565b9250925092506000836000015163ffffffff16905060008f8f8f8f8f8f8f8f8f8f306040516020016101b19b9a99989796959493929190610e62565b60405160208183030381529060405290507f000000000000000000000000000000000000000000000000000000000000000073ffffffffffffffffffffffffffffffffffffffff16634000aea07f00000000000000000000000000000000000000000000000000000000000000008a60008054906101000a900460e01b85604051602001610240929190610f9c565b6040516020818303038152906040526040518463ffffffff1660e01b815260040161026d9392919061102e565b6020604051808303816000875af115801561028c573d6000803e3d6000fd5b505050506040513d601f19601f820116820180604052508101906102b091906110a4565b507f000000000000000000000000000000000000000000000000000000000000000073ffffffffffffffffffffffffffffffffffffffff16631865c57d6040518163ffffffff1660e01b8152600401600060405180830381865afa15801561031c573d6000803e3d6000fd5b505050506040513d6000823e3d601f19601f820116820180604052508101906103459190610d07565b8095508196508297505050506000856000015163ffffffff16905060018361036d9190611100565b81036104185760006001436103829190611134565b407f0000000000000000000000000000000000000000000000000000000000000000856040516020016103b793929190611211565b6040516020818303038152906040528051906020012060001c90507f63410b84334e1011f4c6e94909882bd236426deb3c6a08c13ec54cedad72d43c8160405161040191906108ca565b60405180910390a180975050505050505050610453565b6040517f08c379a000000000000000000000000000000000000000000000000000000000815260040161044a9061129a565b60405180910390fd5b9a9950505050505050505050565b7f000000000000000000000000000000000000000000000000000000000000000081565b7f000000000000000000000000000000000000000000000000000000000000000081565b7f000000000000000000000000000000000000000000000000000000000000000081565b6000604051905090565b600080fd5b600080fd5b600080fd5b600080fd5b6000601f19601f8301169050919050565b7f4e487b7100000000000000000000000000000000000000000000000000000000600052604160045260246000fd5b610534826104eb565b810181811067ffffffffffffffff82111715610553576105526104fc565b5b80604052505050565b60006105666104cd565b9050610572828261052b565b919050565b600067ffffffffffffffff821115610592576105916104fc565b5b61059b826104eb565b9050602081019050919050565b82818337600083830152505050565b60006105ca6105c584610577565b61055c565b9050828152602081018484840111156105e6576105e56104e6565b5b6105f18482856105a8565b509392505050565b600082601f83011261060e5761060d6104e1565b5b813561061e8482602086016105b7565b91505092915050565b600080fd5b600080fd5b60008083601f840112610647576106466104e1565b5b8235905067ffffffffffffffff81111561066457610663610627565b5b6020830191508360018202830111156106805761067f61062c565b5b9250929050565b600073ffffffffffffffffffffffffffffffffffffffff82169050919050565b60006106b282610687565b9050919050565b6106c2816106a7565b81146106cd57600080fd5b50565b6000813590506106df816106b9565b92915050565b600063ffffffff82169050919050565b6106fe816106e5565b811461070957600080fd5b50565b60008135905061071b816106f5565b92915050565b60006bffffffffffffffffffffffff82169050919050565b61074281610721565b811461074d57600080fd5b50565b60008135905061075f81610739565b92915050565b600060ff82169050919050565b61077b81610765565b811461078657600080fd5b50565b60008135905061079881610772565b92915050565b6000806000806000806000806000806101008b8d0312156107c2576107c16104d7565b5b60008b013567ffffffffffffffff8111156107e0576107df6104dc565b5b6107ec8d828e016105f9565b9a505060208b013567ffffffffffffffff81111561080d5761080c6104dc565b5b6108198d828e01610631565b9950995050604061082c8d828e016106d0565b975050606061083d8d828e0161070c565b965050608061084e8d828e016106d0565b95505060a08b013567ffffffffffffffff81111561086f5761086e6104dc565b5b61087b8d828e01610631565b945094505060c061088e8d828e01610750565b92505060e061089f8d828e01610789565b9150509295989b9194979a5092959850565b6000819050919050565b6108c4816108b1565b82525050565b60006020820190506108df60008301846108bb565b92915050565b6000819050919050565b600061090a61090561090084610687565b6108e5565b610687565b9050919050565b600061091c826108ef565b9050919050565b600061092e82610911565b9050919050565b61093e81610923565b82525050565b60006020820190506109596000830184610935565b92915050565b610968816106a7565b82525050565b6000602082019050610983600083018461095f565b92915050565b600061099482610911565b9050919050565b6109a481610989565b82525050565b60006020820190506109bf600083018461099b565b92915050565b600080fd5b6000815190506109d9816106f5565b92915050565b6000815190506109ee81610739565b92915050565b6109fd816108b1565b8114610a0857600080fd5b50565b600081519050610a1a816109f4565b92915050565b600060808284031215610a3657610a356109c5565b5b610a40608061055c565b90506000610a50848285016109ca565b6000830152506020610a64848285016109df565b6020830152506040610a7884828501610a0b565b6040830152506060610a8c84828501610a0b565b60608301525092915050565b600062ffffff82169050919050565b610ab081610a98565b8114610abb57600080fd5b50565b600081519050610acd81610aa7565b92915050565b600061ffff82169050919050565b610aea81610ad3565b8114610af557600080fd5b50565b600081519050610b0781610ae1565b92915050565b600081519050610b1c816106b9565b92915050565b60006101808284031215610b3957610b386109c5565b5b610b4461018061055c565b90506000610b54848285016109ca565b6000830152506020610b68848285016109ca565b6020830152506040610b7c84828501610abe565b6040830152506060610b90848285016109ca565b6060830152506080610ba484828501610abe565b60808301525060a0610bb884828501610af8565b60a08301525060c0610bcc848285016109df565b60c08301525060e0610be0848285016109ca565b60e083015250610100610bf584828501610a0b565b61010083015250610120610c0b84828501610a0b565b61012083015250610140610c2184828501610b0d565b61014083015250610160610c3784828501610b0d565b6101608301525092915050565b600067ffffffffffffffff821115610c5f57610c5e6104fc565b5b602082029050602081019050919050565b6000610c83610c7e84610c44565b61055c565b90508083825260208201905060208402830185811115610ca657610ca561062c565b5b835b81811015610ccf5780610cbb8882610b0d565b845260208401935050602081019050610ca8565b5050509392505050565b600082601f830112610cee57610ced6104e1565b5b8151610cfe848260208601610c70565b91505092915050565b60008060006102208486031215610d2157610d206104d7565b5b6000610d2f86828701610a20565b9350506080610d4086828701610b22565b92505061020084015167ffffffffffffffff811115610d6257610d616104dc565b5b610d6e86828701610cd9565b9150509250925092565b600081519050919050565b600082825260208201905092915050565b60005b83811015610db2578082015181840152602081019050610d97565b60008484015250505050565b6000610dc982610d78565b610dd38185610d83565b9350610de3818560208601610d94565b610dec816104eb565b840191505092915050565b600082825260208201905092915050565b6000610e148385610df7565b9350610e218385846105a8565b610e2a836104eb565b840190509392505050565b610e3e816106e5565b82525050565b610e4d81610721565b82525050565b610e5c81610765565b82525050565b6000610120820190508181036000830152610e7d818e610dbe565b90508181036020830152610e92818c8e610e08565b9050610ea1604083018b61095f565b610eae606083018a610e35565b610ebb608083018961095f565b81810360a0830152610ece818789610e08565b9050610edd60c0830186610e44565b610eea60e0830185610e53565b610ef861010083018461095f565b9c9b505050505050505050505050565b60007fffffffff0000000000000000000000000000000000000000000000000000000082169050919050565b6000819050919050565b610f4f610f4a82610f08565b610f34565b82525050565b600081519050919050565b600081905092915050565b6000610f7682610f55565b610f808185610f60565b9350610f90818560208601610d94565b80840191505092915050565b6000610fa88285610f3e565b600482019150610fb88284610f6b565b91508190509392505050565b6000610fdf610fda610fd584610721565b6108e5565b6108b1565b9050919050565b610fef81610fc4565b82525050565b600061100082610f55565b61100a8185610df7565b935061101a818560208601610d94565b611023816104eb565b840191505092915050565b6000606082019050611043600083018661095f565b6110506020830185610fe6565b81810360408301526110628184610ff5565b9050949350505050565b60008115159050919050565b6110818161106c565b811461108c57600080fd5b50565b60008151905061109e81611078565b92915050565b6000602082840312156110ba576110b96104d7565b5b60006110c88482850161108f565b91505092915050565b7f4e487b7100000000000000000000000000000000000000000000000000000000600052601160045260246000fd5b600061110b826108b1565b9150611116836108b1565b925082820190508082111561112e5761112d6110d1565b5b92915050565b600061113f826108b1565b915061114a836108b1565b9250828203905081811115611162576111616110d1565b5b92915050565b6000819050919050565b6000819050919050565b61118d61118882611168565b611172565b82525050565b60008160601b9050919050565b60006111ab82611193565b9050919050565b60006111bd826111a0565b9050919050565b6111d56111d0826106a7565b6111b2565b82525050565b60008160e01b9050919050565b60006111f3826111db565b9050919050565b61120b611206826106e5565b6111e8565b82525050565b600061121d828661117c565b60208201915061122d82856111c4565b60148201915061123d82846111fa565b600482019150819050949350505050565b7f6175746f2d617070726f76652064697361626c65640000000000000000000000600082015250565b6000611284601583610d83565b915061128f8261124e565b602082019050919050565b600060208201905081810360008301526112b381611277565b905091905056fea2646970667358221220569fc8450347cd2c78af53b6921b9ffbe73a27aba0d50a9c238013fc718b34e164736f6c63430008110033","opcodes":"PUSH1 0xE0 PUSH1 0x40 MSTORE PUSH4 0x3659D666 PUSH1 0xE0 SHL PUSH1 0x0 DUP1 PUSH2 0x100 EXP DUP2 SLOAD DUP2 PUSH4 0xFFFFFFFF MUL NOT AND SWAP1 DUP4 PUSH1 0xE0 SHR MUL OR SWAP1 SSTORE POP CALLVALUE DUP1 ISZERO PUSH3 0x35 JUMPI PUSH1 0x0 DUP1 REVERT JUMPDEST POP PUSH1 0x40 MLOAD PUSH3 0x1592 CODESIZE SUB DUP1 PUSH3 0x1592 DUP4 CODECOPY DUP2 DUP2 ADD PUSH1 0x40 MSTORE DUP2 ADD SWAP1 PUSH3 0x5B SWAP2 SWAP1 PUSH3 0x1F4 JUMP JUMPDEST DUP3 PUSH20 0xFFFFFFFFFFFFFFFFFFFFFFFFFFFFFFFFFFFFFFFF AND PUSH1 0x80 DUP2 PUSH20 0xFFFFFFFFFFFFFFFFFFFFFFFFFFFFFFFFFFFFFFFF AND DUP2 MSTORE POP POP DUP2 PUSH20 0xFFFFFFFFFFFFFFFFFFFFFFFFFFFFFFFFFFFFFFFF AND PUSH1 0xA0 DUP2 PUSH20 0xFFFFFFFFFFFFFFFFFFFFFFFFFFFFFFFFFFFFFFFF AND DUP2 MSTORE POP POP DUP1 PUSH20 0xFFFFFFFFFFFFFFFFFFFFFFFFFFFFFFFFFFFFFFFF AND PUSH1 0xC0 DUP2 PUSH20 0xFFFFFFFFFFFFFFFFFFFFFFFFFFFFFFFFFFFFFFFF AND DUP2 MSTORE POP POP POP POP POP PUSH3 0x250 JUMP JUMPDEST PUSH1 0x0 DUP1 REVERT JUMPDEST PUSH1 0x0 PUSH20 0xFFFFFFFFFFFFFFFFFFFFFFFFFFFFFFFFFFFFFFFF DUP3 AND SWAP1 POP SWAP2 SWAP1 POP JUMP JUMPDEST PUSH1 0x0 PUSH3 0x132 DUP3 PUSH3 0x105 JUMP JUMPDEST SWAP1 POP SWAP2 SWAP1 POP JUMP JUMPDEST PUSH1 0x0 PUSH3 0x146 DUP3 PUSH3 0x125 JUMP JUMPDEST SWAP1 POP SWAP2 SWAP1 POP JUMP JUMPDEST PUSH3 0x158 DUP2 PUSH3 0x139 JUMP JUMPDEST DUP2 EQ PUSH3 0x164 JUMPI PUSH1 0x0 DUP1 REVERT JUMPDEST POP JUMP JUMPDEST PUSH1 0x0 DUP2 MLOAD SWAP1 POP PUSH3 0x178 DUP2 PUSH3 0x14D JUMP JUMPDEST SWAP3 SWAP2 POP POP JUMP JUMPDEST PUSH3 0x189 DUP2 PUSH3 0x125 JUMP JUMPDEST DUP2 EQ PUSH3 0x195 JUMPI PUSH1 0x0 DUP1 REVERT JUMPDEST POP JUMP JUMPDEST PUSH1 0x0 DUP2 MLOAD SWAP1 POP PUSH3 0x1A9 DUP2 PUSH3 0x17E JUMP JUMPDEST SWAP3 SWAP2 POP POP JUMP JUMPDEST PUSH1 0x0 PUSH3 0x1BC DUP3 PUSH3 0x125 JUMP JUMPDEST SWAP1 POP SWAP2 SWAP1 POP JUMP JUMPDEST PUSH3 0x1CE DUP2 PUSH3 0x1AF JUMP JUMPDEST DUP2 EQ PUSH3 0x1DA JUMPI PUSH1 0x0 DUP1 REVERT JUMPDEST POP JUMP JUMPDEST PUSH1 0x0 DUP2 MLOAD SWAP1 POP PUSH3 0x1EE DUP2 PUSH3 0x1C3 JUMP JUMPDEST SWAP3 SWAP2 POP POP JUMP JUMPDEST PUSH1 0x0 DUP1 PUSH1 0x0 PUSH1 0x60 DUP5 DUP7 SUB SLT ISZERO PUSH3 0x210 JUMPI PUSH3 0x20F PUSH3 0x100 JUMP JUMPDEST JUMPDEST PUSH1 0x0 PUSH3 0x220 DUP7 DUP3 DUP8 ADD PUSH3 0x167 JUMP JUMPDEST SWAP4 POP POP PUSH1 0x20 PUSH3 0x233 DUP7 DUP3 DUP8 ADD PUSH3 0x198 JUMP JUMPDEST SWAP3 POP POP PUSH1 0x40 PUSH3 0x246 DUP7 DUP3 DUP8 ADD PUSH3 0x1DD JUMP JUMPDEST SWAP2 POP POP SWAP3 POP SWAP3 POP SWAP3 JUMP JUMPDEST PUSH1 0x80 MLOAD PUSH1 0xA0 MLOAD PUSH1 0xC0 MLOAD PUSH2 0x12F0 PUSH3 0x2A2 PUSH1 0x0 CODECOPY PUSH1 0x0 DUP2 DUP2 PUSH1 0xE3 ADD MSTORE DUP2 DUP2 PUSH2 0x2B3 ADD MSTORE DUP2 DUP2 PUSH2 0x385 ADD MSTORE PUSH2 0x463 ADD MSTORE PUSH1 0x0 DUP2 DUP2 PUSH2 0x200 ADD MSTORE PUSH2 0x487 ADD MSTORE PUSH1 0x0 DUP2 DUP2 PUSH2 0x1C4 ADD MSTORE PUSH2 0x4AB ADD MSTORE PUSH2 0x12F0 PUSH1 0x0 RETURN INVALID PUSH1 0x80 PUSH1 0x40 MSTORE CALLVALUE DUP1 ISZERO PUSH2 0x10 JUMPI PUSH1 0x0 DUP1 REVERT JUMPDEST POP PUSH1 0x4 CALLDATASIZE LT PUSH2 0x4C JUMPI PUSH1 0x0 CALLDATALOAD PUSH1 0xE0 SHR DUP1 PUSH4 0x18A9FB8A EQ PUSH2 0x51 JUMPI DUP1 PUSH4 0x2A663606 EQ PUSH2 0x81 JUMPI DUP1 PUSH4 0x2B20E397 EQ PUSH2 0x9F JUMPI DUP1 PUSH4 0x7D253AFF EQ PUSH2 0xBD JUMPI JUMPDEST PUSH1 0x0 DUP1 REVERT JUMPDEST PUSH2 0x6B PUSH1 0x4 DUP1 CALLDATASIZE SUB DUP2 ADD SWAP1 PUSH2 0x66 SWAP2 SWAP1 PUSH2 0x79E JUMP JUMPDEST PUSH2 0xDB JUMP JUMPDEST PUSH1 0x40 MLOAD PUSH2 0x78 SWAP2 SWAP1 PUSH2 0x8CA JUMP JUMPDEST PUSH1 0x40 MLOAD DUP1 SWAP2 SUB SWAP1 RETURN JUMPDEST PUSH2 0x89 PUSH2 0x461 JUMP JUMPDEST PUSH1 0x40 MLOAD PUSH2 0x96 SWAP2 SWAP1 PUSH2 0x944 JUMP JUMPDEST PUSH1 0x40 MLOAD DUP1 SWAP2 SUB SWAP1 RETURN JUMPDEST PUSH2 0xA7 PUSH2 0x485 JUMP JUMPDEST PUSH1 0x40 MLOAD PUSH2 0xB4 SWAP2 SWAP1 PUSH2 0x96E JUMP JUMPDEST PUSH1 0x40 MLOAD DUP1 SWAP2 SUB SWAP1 RETURN JUMPDEST PUSH2 0xC5 PUSH2 0x4A9 JUMP JUMPDEST PUSH1 0x40 MLOAD PUSH2 0xD2 SWAP2 SWAP1 PUSH2 0x9AA JUMP JUMPDEST PUSH1 0x40 MLOAD DUP1 SWAP2 SUB SWAP1 RETURN JUMPDEST PUSH1 0x0 DUP1 PUSH1 0x0 DUP1 PUSH32 0x0 PUSH20 0xFFFFFFFFFFFFFFFFFFFFFFFFFFFFFFFFFFFFFFFF AND PUSH4 0x1865C57D PUSH1 0x40 MLOAD DUP2 PUSH4 0xFFFFFFFF AND PUSH1 0xE0 SHL DUP2 MSTORE PUSH1 0x4 ADD PUSH1 0x0 PUSH1 0x40 MLOAD DUP1 DUP4 SUB DUP2 DUP7 GAS STATICCALL ISZERO DUP1 ISZERO PUSH2 0x14C JUMPI RETURNDATASIZE PUSH1 0x0 DUP1 RETURNDATACOPY RETURNDATASIZE PUSH1 0x0 REVERT JUMPDEST POP POP POP POP PUSH1 0x40 MLOAD RETURNDATASIZE PUSH1 0x0 DUP3 RETURNDATACOPY RETURNDATASIZE PUSH1 0x1F NOT PUSH1 0x1F DUP3 ADD AND DUP3 ADD DUP1 PUSH1 0x40 MSTORE POP DUP2 ADD SWAP1 PUSH2 0x175 SWAP2 SWAP1 PUSH2 0xD07 JUMP JUMPDEST SWAP3 POP SWAP3 POP SWAP3 POP PUSH1 0x0 DUP4 PUSH1 0x0 ADD MLOAD PUSH4 0xFFFFFFFF AND SWAP1 POP PUSH1 0x0 DUP16 DUP16 DUP16 DUP16 DUP16 DUP16 DUP16 DUP16 DUP16 DUP16 ADDRESS PUSH1 0x40 MLOAD PUSH1 0x20 ADD PUSH2 0x1B1 SWAP12 SWAP11 SWAP10 SWAP9 SWAP8 SWAP7 SWAP6 SWAP5 SWAP4 SWAP3 SWAP2 SWAP1 PUSH2 0xE62 JUMP JUMPDEST PUSH1 0x40 MLOAD PUSH1 0x20 DUP2 DUP4 SUB SUB DUP2 MSTORE SWAP1 PUSH1 0x40 MSTORE SWAP1 POP PUSH32 0x0 PUSH20 0xFFFFFFFFFFFFFFFFFFFFFFFFFFFFFFFFFFFFFFFF AND PUSH4 0x4000AEA0 PUSH32 0x0 DUP11 PUSH1 0x0 DUP1 SLOAD SWAP1 PUSH2 0x100 EXP SWAP1 DIV PUSH1 0xE0 SHL DUP6 PUSH1 0x40 MLOAD PUSH1 0x20 ADD PUSH2 0x240 SWAP3 SWAP2 SWAP1 PUSH2 0xF9C JUMP JUMPDEST PUSH1 0x40 MLOAD PUSH1 0x20 DUP2 DUP4 SUB SUB DUP2 MSTORE SWAP1 PUSH1 0x40 MSTORE PUSH1 0x40 MLOAD DUP5 PUSH4 0xFFFFFFFF AND PUSH1 0xE0 SHL DUP2 MSTORE PUSH1 0x4 ADD PUSH2 0x26D SWAP4 SWAP3 SWAP2 SWAP1 PUSH2 0x102E JUMP JUMPDEST PUSH1 0x20 PUSH1 0x40 MLOAD DUP1 DUP4 SUB DUP2 PUSH1 0x0 DUP8 GAS CALL ISZERO DUP1 ISZERO PUSH2 0x28C JUMPI RETURNDATASIZE PUSH1 0x0 DUP1 RETURNDATACOPY RETURNDATASIZE PUSH1 0x0 REVERT JUMPDEST POP POP POP POP PUSH1 0x40 MLOAD RETURNDATASIZE PUSH1 0x1F NOT PUSH1 0x1F DUP3 ADD AND DUP3 ADD DUP1 PUSH1 0x40 MSTORE POP DUP2 ADD SWAP1 PUSH2 0x2B0 SWAP2 SWAP1 PUSH2 0x10A4 JUMP JUMPDEST POP PUSH32 0x0 PUSH20 0xFFFFFFFFFFFFFFFFFFFFFFFFFFFFFFFFFFFFFFFF AND PUSH4 0x1865C57D PUSH1 0x40 MLOAD DUP2 PUSH4 0xFFFFFFFF AND PUSH1 0xE0 SHL DUP2 MSTORE PUSH1 0x4 ADD PUSH1 0x0 PUSH1 0x40 MLOAD DUP1 DUP4 SUB DUP2 DUP7 GAS STATICCALL ISZERO DUP1 ISZERO PUSH2 0x31C JUMPI RETURNDATASIZE PUSH1 0x0 DUP1 RETURNDATACOPY RETURNDATASIZE PUSH1 0x0 REVERT JUMPDEST POP POP POP POP PUSH1 0x40 MLOAD RETURNDATASIZE PUSH1 0x0 DUP3 RETURNDATACOPY RETURNDATASIZE PUSH1 0x1F NOT PUSH1 0x1F DUP3 ADD AND DUP3 ADD DUP1 PUSH1 0x40 MSTORE POP DUP2 ADD SWAP1 PUSH2 0x345 SWAP2 SWAP1 PUSH2 0xD07 JUMP JUMPDEST DUP1 SWAP6 POP DUP2 SWAP7 POP DUP3 SWAP8 POP POP POP POP PUSH1 0x0 DUP6 PUSH1 0x0 ADD MLOAD PUSH4 0xFFFFFFFF AND SWAP1 POP PUSH1 0x1 DUP4 PUSH2 0x36D SWAP2 SWAP1 PUSH2 0x1100 JUMP JUMPDEST DUP2 SUB PUSH2 0x418 JUMPI PUSH1 0x0 PUSH1 0x1 NUMBER PUSH2 0x382 SWAP2 SWAP1 PUSH2 0x1134 JUMP JUMPDEST BLOCKHASH PUSH32 0x0 DUP6 PUSH1 0x40 MLOAD PUSH1 0x20 ADD PUSH2 0x3B7 SWAP4 SWAP3 SWAP2 SWAP1 PUSH2 0x1211 JUMP JUMPDEST PUSH1 0x40 MLOAD PUSH1 0x20 DUP2 DUP4 SUB SUB DUP2 MSTORE SWAP1 PUSH1 0x40 MSTORE DUP1 MLOAD SWAP1 PUSH1 0x20 ADD KECCAK256 PUSH1 0x0 SHR SWAP1 POP PUSH32 0x63410B84334E1011F4C6E94909882BD236426DEB3C6A08C13EC54CEDAD72D43C DUP2 PUSH1 0x40 MLOAD PUSH2 0x401 SWAP2 SWAP1 PUSH2 0x8CA JUMP JUMPDEST PUSH1 0x40 MLOAD DUP1 SWAP2 SUB SWAP1 LOG1 DUP1 SWAP8 POP POP POP POP POP POP POP POP PUSH2 0x453 JUMP JUMPDEST PUSH1 0x40 MLOAD PUSH32 0x8C379A000000000000000000000000000000000000000000000000000000000 DUP2 MSTORE PUSH1 0x4 ADD PUSH2 0x44A SWAP1 PUSH2 0x129A JUMP JUMPDEST PUSH1 0x40 MLOAD DUP1 SWAP2 SUB SWAP1 REVERT JUMPDEST SWAP11 SWAP10 POP POP POP POP POP POP POP POP POP POP JUMP JUMPDEST PUSH32 0x0 DUP2 JUMP JUMPDEST PUSH32 0x0 DUP2 JUMP JUMPDEST PUSH32 0x0 DUP2 JUMP JUMPDEST PUSH1 0x0 PUSH1 0x40 MLOAD SWAP1 POP SWAP1 JUMP JUMPDEST PUSH1 0x0 DUP1 REVERT JUMPDEST PUSH1 0x0 DUP1 REVERT JUMPDEST PUSH1 0x0 DUP1 REVERT JUMPDEST PUSH1 0x0 DUP1 REVERT JUMPDEST PUSH1 0x0 PUSH1 0x1F NOT PUSH1 0x1F DUP4 ADD AND SWAP1 POP SWAP2 SWAP1 POP JUMP JUMPDEST PUSH32 0x4E487B7100000000000000000000000000000000000000000000000000000000 PUSH1 0x0 MSTORE PUSH1 0x41 PUSH1 0x4 MSTORE PUSH1 0x24 PUSH1 0x0 REVERT JUMPDEST PUSH2 0x534 DUP3 PUSH2 0x4EB JUMP JUMPDEST DUP2 ADD DUP2 DUP2 LT PUSH8 0xFFFFFFFFFFFFFFFF DUP3 GT OR ISZERO PUSH2 0x553 JUMPI PUSH2 0x552 PUSH2 0x4FC JUMP JUMPDEST JUMPDEST DUP1 PUSH1 0x40 MSTORE POP POP POP JUMP JUMPDEST PUSH1 0x0 PUSH2 0x566 PUSH2 0x4CD JUMP JUMPDEST SWAP1 POP PUSH2 0x572 DUP3 DUP3 PUSH2 0x52B JUMP JUMPDEST SWAP2 SWAP1 POP JUMP JUMPDEST PUSH1 0x0 PUSH8 0xFFFFFFFFFFFFFFFF DUP3 GT ISZERO PUSH2 0x592 JUMPI PUSH2 0x591 PUSH2 0x4FC JUMP JUMPDEST JUMPDEST PUSH2 0x59B DUP3 PUSH2 0x4EB JUMP JUMPDEST SWAP1 POP PUSH1 0x20 DUP2 ADD SWAP1 POP SWAP2 SWAP1 POP JUMP JUMPDEST DUP3 DUP2 DUP4 CALLDATACOPY PUSH1 0x0 DUP4 DUP4 ADD MSTORE POP POP POP JUMP JUMPDEST PUSH1 0x0 PUSH2 0x5CA PUSH2 0x5C5 DUP5 PUSH2 0x577 JUMP JUMPDEST PUSH2 0x55C JUMP JUMPDEST SWAP1 POP DUP3 DUP2 MSTORE PUSH1 0x20 DUP2 ADD DUP5 DUP5 DUP5 ADD GT ISZERO PUSH2 0x5E6 JUMPI PUSH2 0x5E5 PUSH2 0x4E6 JUMP JUMPDEST JUMPDEST PUSH2 0x5F1 DUP5 DUP3 DUP6 PUSH2 0x5A8 JUMP JUMPDEST POP SWAP4 SWAP3 POP POP POP JUMP JUMPDEST PUSH1 0x0 DUP3 PUSH1 0x1F DUP4 ADD SLT PUSH2 0x60E JUMPI PUSH2 0x60D PUSH2 0x4E1 JUMP JUMPDEST JUMPDEST DUP2 CALLDATALOAD PUSH2 0x61E DUP5 DUP3 PUSH1 0x20 DUP7 ADD PUSH2 0x5B7 JUMP JUMPDEST SWAP2 POP POP SWAP3 SWAP2 POP POP JUMP JUMPDEST PUSH1 0x0 DUP1 REVERT JUMPDEST PUSH1 0x0 DUP1 REVERT JUMPDEST PUSH1 0x0 DUP1 DUP4 PUSH1 0x1F DUP5 ADD SLT PUSH2 0x647 JUMPI PUSH2 0x646 PUSH2 0x4E1 JUMP JUMPDEST JUMPDEST DUP3 CALLDATALOAD SWAP1 POP PUSH8 0xFFFFFFFFFFFFFFFF DUP2 GT ISZERO PUSH2 0x664 JUMPI PUSH2 0x663 PUSH2 0x627 JUMP JUMPDEST JUMPDEST PUSH1 0x20 DUP4 ADD SWAP2 POP DUP4 PUSH1 0x1 DUP3 MUL DUP4 ADD GT ISZERO PUSH2 0x680 JUMPI PUSH2 0x67F PUSH2 0x62C JUMP JUMPDEST JUMPDEST SWAP3 POP SWAP3 SWAP1 POP JUMP JUMPDEST PUSH1 0x0 PUSH20 0xFFFFFFFFFFFFFFFFFFFFFFFFFFFFFFFFFFFFFFFF DUP3 AND SWAP1 POP SWAP2 SWAP1 POP JUMP JUMPDEST PUSH1 0x0 PUSH2 0x6B2 DUP3 PUSH2 0x687 JUMP JUMPDEST SWAP1 POP SWAP2 SWAP1 POP JUMP JUMPDEST PUSH2 0x6C2 DUP2 PUSH2 0x6A7 JUMP JUMPDEST DUP2 EQ PUSH2 0x6CD JUMPI PUSH1 0x0 DUP1 REVERT JUMPDEST POP JUMP JUMPDEST PUSH1 0x0 DUP2 CALLDATALOAD SWAP1 POP PUSH2 0x6DF DUP2 PUSH2 0x6B9 JUMP JUMPDEST SWAP3 SWAP2 POP POP JUMP JUMPDEST PUSH1 0x0 PUSH4 0xFFFFFFFF DUP3 AND SWAP1 POP SWAP2 SWAP1 POP JUMP JUMPDEST PUSH2 0x6FE DUP2 PUSH2 0x6E5 JUMP JUMPDEST DUP2 EQ PUSH2 0x709 JUMPI PUSH1 0x0 DUP1 REVERT JUMPDEST POP JUMP JUMPDEST PUSH1 0x0 DUP2 CALLDATALOAD SWAP1 POP PUSH2 0x71B DUP2 PUSH2 0x6F5 JUMP JUMPDEST SWAP3 SWAP2 POP POP JUMP JUMPDEST PUSH1 0x0 PUSH12 0xFFFFFFFFFFFFFFFFFFFFFFFF DUP3 AND SWAP1 POP SWAP2 SWAP1 POP JUMP JUMPDEST PUSH2 0x742 DUP2 PUSH2 0x721 JUMP JUMPDEST DUP2 EQ PUSH2 0x74D JUMPI PUSH1 0x0 DUP1 REVERT JUMPDEST POP JUMP JUMPDEST PUSH1 0x0 DUP2 CALLDATALOAD SWAP1 POP PUSH2 0x75F DUP2 PUSH2 0x739 JUMP JUMPDEST SWAP3 SWAP2 POP POP JUMP JUMPDEST PUSH1 0x0 PUSH1 0xFF DUP3 AND SWAP1 POP SWAP2 SWAP1 POP JUMP JUMPDEST PUSH2 0x77B DUP2 PUSH2 0x765 JUMP JUMPDEST DUP2 EQ PUSH2 0x786 JUMPI PUSH1 0x0 DUP1 REVERT JUMPDEST POP JUMP JUMPDEST PUSH1 0x0 DUP2 CALLDATALOAD SWAP1 POP PUSH2 0x798 DUP2 PUSH2 0x772 JUMP JUMPDEST SWAP3 SWAP2 POP POP JUMP JUMPDEST PUSH1 0x0 DUP1 PUSH1 0x0 DUP1 PUSH1 0x0 DUP1 PUSH1 0x0 DUP1 PUSH1 0x0 DUP1 PUSH2 0x100 DUP12 DUP14 SUB SLT ISZERO PUSH2 0x7C2 JUMPI PUSH2 0x7C1 PUSH2 0x4D7 JUMP JUMPDEST JUMPDEST PUSH1 0x0 DUP12 ADD CALLDATALOAD PUSH8 0xFFFFFFFFFFFFFFFF DUP2 GT ISZERO PUSH2 0x7E0 JUMPI PUSH2 0x7DF PUSH2 0x4DC JUMP JUMPDEST JUMPDEST PUSH2 0x7EC DUP14 DUP3 DUP15 ADD PUSH2 0x5F9 JUMP JUMPDEST SWAP11 POP POP PUSH1 0x20 DUP12 ADD CALLDATALOAD PUSH8 0xFFFFFFFFFFFFFFFF DUP2 GT ISZERO PUSH2 0x80D JUMPI PUSH2 0x80C PUSH2 0x4DC JUMP JUMPDEST JUMPDEST PUSH2 0x819 DUP14 DUP3 DUP15 ADD PUSH2 0x631 JUMP JUMPDEST SWAP10 POP SWAP10 POP POP PUSH1 0x40 PUSH2 0x82C DUP14 DUP3 DUP15 ADD PUSH2 0x6D0 JUMP JUMPDEST SWAP8 POP POP PUSH1 0x60 PUSH2 0x83D DUP14 DUP3 DUP15 ADD PUSH2 0x70C JUMP JUMPDEST SWAP7 POP POP PUSH1 0x80 PUSH2 0x84E DUP14 DUP3 DUP15 ADD PUSH2 0x6D0 JUMP JUMPDEST SWAP6 POP POP PUSH1 0xA0 DUP12 ADD CALLDATALOAD PUSH8 0xFFFFFFFFFFFFFFFF DUP2 GT ISZERO PUSH2 0x86F JUMPI PUSH2 0x86E PUSH2 0x4DC JUMP JUMPDEST JUMPDEST PUSH2 0x87B DUP14 DUP3 DUP15 ADD PUSH2 0x631 JUMP JUMPDEST SWAP5 POP SWAP5 POP POP PUSH1 0xC0 PUSH2 0x88E DUP14 DUP3 DUP15 ADD PUSH2 0x750 JUMP JUMPDEST SWAP3 POP POP PUSH1 0xE0 PUSH2 0x89F DUP14 DUP3 DUP15 ADD PUSH2 0x789 JUMP JUMPDEST SWAP2 POP POP SWAP3 SWAP6 SWAP9 SWAP12 SWAP2 SWAP5 SWAP8 SWAP11 POP SWAP3 SWAP6 SWAP9 POP JUMP JUMPDEST PUSH1 0x0 DUP2 SWAP1 POP SWAP2 SWAP1 POP JUMP JUMPDEST PUSH2 0x8C4 DUP2 PUSH2 0x8B1 JUMP JUMPDEST DUP3 MSTORE POP POP JUMP JUMPDEST PUSH1 0x0 PUSH1 0x20 DUP3 ADD SWAP1 POP PUSH2 0x8DF PUSH1 0x0 DUP4 ADD DUP5 PUSH2 0x8BB JUMP JUMPDEST SWAP3 SWAP2 POP POP JUMP JUMPDEST PUSH1 0x0 DUP2 SWAP1 POP SWAP2 SWAP1 POP JUMP JUMPDEST PUSH1 0x0 PUSH2 0x90A PUSH2 0x905 PUSH2 0x900 DUP5 PUSH2 0x687 JUMP JUMPDEST PUSH2 0x8E5 JUMP JUMPDEST PUSH2 0x687 JUMP JUMPDEST SWAP1 POP SWAP2 SWAP1 POP JUMP JUMPDEST PUSH1 0x0 PUSH2 0x91C DUP3 PUSH2 0x8EF JUMP JUMPDEST SWAP1 POP SWAP2 SWAP1 POP JUMP JUMPDEST PUSH1 0x0 PUSH2 0x92E DUP3 PUSH2 0x911 JUMP JUMPDEST SWAP1 POP SWAP2 SWAP1 POP JUMP JUMPDEST PUSH2 0x93E DUP2 PUSH2 0x923 JUMP JUMPDEST DUP3 MSTORE POP POP JUMP JUMPDEST PUSH1 0x0 PUSH1 0x20 DUP3 ADD SWAP1 POP PUSH2 0x959 PUSH1 0x0 DUP4 ADD DUP5 PUSH2 0x935 JUMP JUMPDEST SWAP3 SWAP2 POP POP JUMP JUMPDEST PUSH2 0x968 DUP2 PUSH2 0x6A7 JUMP JUMPDEST DUP3 MSTORE POP POP JUMP JUMPDEST PUSH1 0x0 PUSH1 0x20 DUP3 ADD SWAP1 POP PUSH2 0x983 PUSH1 0x0 DUP4 ADD DUP5 PUSH2 0x95F JUMP JUMPDEST SWAP3 SWAP2 POP POP JUMP JUMPDEST PUSH1 0x0 PUSH2 0x994 DUP3 PUSH2 0x911 JUMP JUMPDEST SWAP1 POP SWAP2 SWAP1 POP JUMP JUMPDEST PUSH2 0x9A4 DUP2 PUSH2 0x989 JUMP JUMPDEST DUP3 MSTORE POP POP JUMP JUMPDEST PUSH1 0x0 PUSH1 0x20 DUP3 ADD SWAP1 POP PUSH2 0x9BF PUSH1 0x0 DUP4 ADD DUP5 PUSH2 0x99B JUMP JUMPDEST SWAP3 SWAP2 POP POP JUMP JUMPDEST PUSH1 0x0 DUP1 REVERT JUMPDEST PUSH1 0x0 DUP2 MLOAD SWAP1 POP PUSH2 0x9D9 DUP2 PUSH2 0x6F5 JUMP JUMPDEST SWAP3 SWAP2 POP POP JUMP JUMPDEST PUSH1 0x0 DUP2 MLOAD SWAP1 POP PUSH2 0x9EE DUP2 PUSH2 0x739 JUMP JUMPDEST SWAP3 SWAP2 POP POP JUMP JUMPDEST PUSH2 0x9FD DUP2 PUSH2 0x8B1 JUMP JUMPDEST DUP2 EQ PUSH2 0xA08 JUMPI PUSH1 0x0 DUP1 REVERT JUMPDEST POP JUMP JUMPDEST PUSH1 0x0 DUP2 MLOAD SWAP1 POP PUSH2 0xA1A DUP2 PUSH2 0x9F4 JUMP JUMPDEST SWAP3 SWAP2 POP POP JUMP JUMPDEST PUSH1 0x0 PUSH1 0x80 DUP3 DUP5 SUB SLT ISZERO PUSH2 0xA36 JUMPI PUSH2 0xA35 PUSH2 0x9C5 JUMP JUMPDEST JUMPDEST PUSH2 0xA40 PUSH1 0x80 PUSH2 0x55C JUMP JUMPDEST SWAP1 POP PUSH1 0x0 PUSH2 0xA50 DUP5 DUP3 DUP6 ADD PUSH2 0x9CA JUMP JUMPDEST PUSH1 0x0 DUP4 ADD MSTORE POP PUSH1 0x20 PUSH2 0xA64 DUP5 DUP3 DUP6 ADD PUSH2 0x9DF JUMP JUMPDEST PUSH1 0x20 DUP4 ADD MSTORE POP PUSH1 0x40 PUSH2 0xA78 DUP5 DUP3 DUP6 ADD PUSH2 0xA0B JUMP JUMPDEST PUSH1 0x40 DUP4 ADD MSTORE POP PUSH1 0x60 PUSH2 0xA8C DUP5 DUP3 DUP6 ADD PUSH2 0xA0B JUMP JUMPDEST PUSH1 0x60 DUP4 ADD MSTORE POP SWAP3 SWAP2 POP POP JUMP JUMPDEST PUSH1 0x0 PUSH3 0xFFFFFF DUP3 AND SWAP1 POP SWAP2 SWAP1 POP JUMP JUMPDEST PUSH2 0xAB0 DUP2 PUSH2 0xA98 JUMP JUMPDEST DUP2 EQ PUSH2 0xABB JUMPI PUSH1 0x0 DUP1 REVERT JUMPDEST POP JUMP JUMPDEST PUSH1 0x0 DUP2 MLOAD SWAP1 POP PUSH2 0xACD DUP2 PUSH2 0xAA7 JUMP JUMPDEST SWAP3 SWAP2 POP POP JUMP JUMPDEST PUSH1 0x0 PUSH2 0xFFFF DUP3 AND SWAP1 POP SWAP2 SWAP1 POP JUMP JUMPDEST PUSH2 0xAEA DUP2 PUSH2 0xAD3 JUMP JUMPDEST DUP2 EQ PUSH2 0xAF5 JUMPI PUSH1 0x0 DUP1 REVERT JUMPDEST POP JUMP JUMPDEST PUSH1 0x0 DUP2 MLOAD SWAP1 POP PUSH2 0xB07 DUP2 PUSH2 0xAE1 JUMP JUMPDEST SWAP3 SWAP2 POP POP JUMP JUMPDEST PUSH1 0x0 DUP2 MLOAD SWAP1 POP PUSH2 0xB1C DUP2 PUSH2 0x6B9 JUMP JUMPDEST SWAP3 SWAP2 POP POP JUMP JUMPDEST PUSH1 0x0 PUSH2 0x180 DUP3 DUP5 SUB SLT ISZERO PUSH2 0xB39 JUMPI PUSH2 0xB38 PUSH2 0x9C5 JUMP JUMPDEST JUMPDEST PUSH2 0xB44 PUSH2 0x180 PUSH2 0x55C JUMP JUMPDEST SWAP1 POP PUSH1 0x0 PUSH2 0xB54 DUP5 DUP3 DUP6 ADD PUSH2 0x9CA JUMP JUMPDEST PUSH1 0x0 DUP4 ADD MSTORE POP PUSH1 0x20 PUSH2 0xB68 DUP5 DUP3 DUP6 ADD PUSH2 0x9CA JUMP JUMPDEST PUSH1 0x20 DUP4 ADD MSTORE POP PUSH1 0x40 PUSH2 0xB7C DUP5 DUP3 DUP6 ADD PUSH2 0xABE JUMP JUMPDEST PUSH1 0x40 DUP4 ADD MSTORE POP PUSH1 0x60 PUSH2 0xB90 DUP5 DUP3 DUP6 ADD PUSH2 0x9CA JUMP JUMPDEST PUSH1 0x60 DUP4 ADD MSTORE POP PUSH1 0x80 PUSH2 0xBA4 DUP5 DUP3 DUP6 ADD PUSH2 0xABE JUMP JUMPDEST PUSH1 0x80 DUP4 ADD MSTORE POP PUSH1 0xA0 PUSH2 0xBB8 DUP5 DUP3 DUP6 ADD PUSH2 0xAF8 JUMP JUMPDEST PUSH1 0xA0 DUP4 ADD MSTORE POP PUSH1 0xC0 PUSH2 0xBCC DUP5 DUP3 DUP6 ADD PUSH2 0x9DF JUMP JUMPDEST PUSH1 0xC0 DUP4 ADD MSTORE POP PUSH1 0xE0 PUSH2 0xBE0 DUP5 DUP3 DUP6 ADD PUSH2 0x9CA JUMP JUMPDEST PUSH1 0xE0 DUP4 ADD MSTORE POP PUSH2 0x100 PUSH2 0xBF5 DUP5 DUP3 DUP6 ADD PUSH2 0xA0B JUMP JUMPDEST PUSH2 0x100 DUP4 ADD MSTORE POP PUSH2 0x120 PUSH2 0xC0B DUP5 DUP3 DUP6 ADD PUSH2 0xA0B JUMP JUMPDEST PUSH2 0x120 DUP4 ADD MSTORE POP PUSH2 0x140 PUSH2 0xC21 DUP5 DUP3 DUP6 ADD PUSH2 0xB0D JUMP JUMPDEST PUSH2 0x140 DUP4 ADD MSTORE POP PUSH2 0x160 PUSH2 0xC37 DUP5 DUP3 DUP6 ADD PUSH2 0xB0D JUMP JUMPDEST PUSH2 0x160 DUP4 ADD MSTORE POP SWAP3 SWAP2 POP POP JUMP JUMPDEST PUSH1 0x0 PUSH8 0xFFFFFFFFFFFFFFFF DUP3 GT ISZERO PUSH2 0xC5F JUMPI PUSH2 0xC5E PUSH2 0x4FC JUMP JUMPDEST JUMPDEST PUSH1 0x20 DUP3 MUL SWAP1 POP PUSH1 0x20 DUP2 ADD SWAP1 POP SWAP2 SWAP1 POP JUMP JUMPDEST PUSH1 0x0 PUSH2 0xC83 PUSH2 0xC7E DUP5 PUSH2 0xC44 JUMP JUMPDEST PUSH2 0x55C JUMP JUMPDEST SWAP1 POP DUP1 DUP4 DUP3 MSTORE PUSH1 0x20 DUP3 ADD SWAP1 POP PUSH1 0x20 DUP5 MUL DUP4 ADD DUP6 DUP2 GT ISZERO PUSH2 0xCA6 JUMPI PUSH2 0xCA5 PUSH2 0x62C JUMP JUMPDEST JUMPDEST DUP4 JUMPDEST DUP2 DUP2 LT ISZERO PUSH2 0xCCF JUMPI DUP1 PUSH2 0xCBB DUP9 DUP3 PUSH2 0xB0D JUMP JUMPDEST DUP5 MSTORE PUSH1 0x20 DUP5 ADD SWAP4 POP POP PUSH1 0x20 DUP2 ADD SWAP1 POP PUSH2 0xCA8 JUMP JUMPDEST POP POP POP SWAP4 SWAP3 POP POP POP JUMP JUMPDEST PUSH1 0x0 DUP3 PUSH1 0x1F DUP4 ADD SLT PUSH2 0xCEE JUMPI PUSH2 0xCED PUSH2 0x4E1 JUMP JUMPDEST JUMPDEST DUP2 MLOAD PUSH2 0xCFE DUP5 DUP3 PUSH1 0x20 DUP7 ADD PUSH2 0xC70 JUMP JUMPDEST SWAP2 POP POP SWAP3 SWAP2 POP POP JUMP JUMPDEST PUSH1 0x0 DUP1 PUSH1 0x0 PUSH2 0x220 DUP5 DUP7 SUB SLT ISZERO PUSH2 0xD21 JUMPI PUSH2 0xD20 PUSH2 0x4D7 JUMP JUMPDEST JUMPDEST PUSH1 0x0 PUSH2 0xD2F DUP7 DUP3 DUP8 ADD PUSH2 0xA20 JUMP JUMPDEST SWAP4 POP POP PUSH1 0x80 PUSH2 0xD40 DUP7 DUP3 DUP8 ADD PUSH2 0xB22 JUMP JUMPDEST SWAP3 POP POP PUSH2 0x200 DUP5 ADD MLOAD PUSH8 0xFFFFFFFFFFFFFFFF DUP2 GT ISZERO PUSH2 0xD62 JUMPI PUSH2 0xD61 PUSH2 0x4DC JUMP JUMPDEST JUMPDEST PUSH2 0xD6E DUP7 DUP3 DUP8 ADD PUSH2 0xCD9 JUMP JUMPDEST SWAP2 POP POP SWAP3 POP SWAP3 POP SWAP3 JUMP JUMPDEST PUSH1 0x0 DUP2 MLOAD SWAP1 POP SWAP2 SWAP1 POP JUMP JUMPDEST PUSH1 0x0 DUP3 DUP3 MSTORE PUSH1 0x20 DUP3 ADD SWAP1 POP SWAP3 SWAP2 POP POP JUMP JUMPDEST PUSH1 0x0 JUMPDEST DUP4 DUP2 LT ISZERO PUSH2 0xDB2 JUMPI DUP1 DUP3 ADD MLOAD DUP2 DUP5 ADD MSTORE PUSH1 0x20 DUP2 ADD SWAP1 POP PUSH2 0xD97 JUMP JUMPDEST PUSH1 0x0 DUP5 DUP5 ADD MSTORE POP POP POP POP JUMP JUMPDEST PUSH1 0x0 PUSH2 0xDC9 DUP3 PUSH2 0xD78 JUMP JUMPDEST PUSH2 0xDD3 DUP2 DUP6 PUSH2 0xD83 JUMP JUMPDEST SWAP4 POP PUSH2 0xDE3 DUP2 DUP6 PUSH1 0x20 DUP7 ADD PUSH2 0xD94 JUMP JUMPDEST PUSH2 0xDEC DUP2 PUSH2 0x4EB JUMP JUMPDEST DUP5 ADD SWAP2 POP POP SWAP3 SWAP2 POP POP JUMP JUMPDEST PUSH1 0x0 DUP3 DUP3 MSTORE PUSH1 0x20 DUP3 ADD SWAP1 POP SWAP3 SWAP2 POP POP JUMP JUMPDEST PUSH1 0x0 PUSH2 0xE14 DUP4 DUP6 PUSH2 0xDF7 JUMP JUMPDEST SWAP4 POP PUSH2 0xE21 DUP4 DUP6 DUP5 PUSH2 0x5A8 JUMP JUMPDEST PUSH2 0xE2A DUP4 PUSH2 0x4EB JUMP JUMPDEST DUP5 ADD SWAP1 POP SWAP4 SWAP3 POP POP POP JUMP JUMPDEST PUSH2 0xE3E DUP2 PUSH2 0x6E5 JUMP JUMPDEST DUP3 MSTORE POP POP JUMP JUMPDEST PUSH2 0xE4D DUP2 PUSH2 0x721 JUMP JUMPDEST DUP3 MSTORE POP POP JUMP JUMPDEST PUSH2 0xE5C DUP2 PUSH2 0x765 JUMP JUMPDEST DUP3 MSTORE POP POP JUMP JUMPDEST PUSH1 0x0 PUSH2 0x120 DUP3 ADD SWAP1 POP DUP2 DUP2 SUB PUSH1 0x0 DUP4 ADD MSTORE PUSH2 0xE7D DUP2 DUP15 PUSH2 0xDBE JUMP JUMPDEST SWAP1 POP DUP2 DUP2 SUB PUSH1 0x20 DUP4 ADD MSTORE PUSH2 0xE92 DUP2 DUP13 DUP15 PUSH2 0xE08 JUMP JUMPDEST SWAP1 POP PUSH2 0xEA1 PUSH1 0x40 DUP4 ADD DUP12 PUSH2 0x95F JUMP JUMPDEST PUSH2 0xEAE PUSH1 0x60 DUP4 ADD DUP11 PUSH2 0xE35 JUMP JUMPDEST PUSH2 0xEBB PUSH1 0x80 DUP4 ADD DUP10 PUSH2 0x95F JUMP JUMPDEST DUP2 DUP2 SUB PUSH1 0xA0 DUP4 ADD MSTORE PUSH2 0xECE DUP2 DUP8 DUP10 PUSH2 0xE08 JUMP JUMPDEST SWAP1 POP PUSH2 0xEDD PUSH1 0xC0 DUP4 ADD DUP7 PUSH2 0xE44 JUMP JUMPDEST PUSH2 0xEEA PUSH1 0xE0 DUP4 ADD DUP6 PUSH2 0xE53 JUMP JUMPDEST PUSH2 0xEF8 PUSH2 0x100 DUP4 ADD DUP5 PUSH2 0x95F JUMP JUMPDEST SWAP13 SWAP12 POP POP POP POP POP POP POP POP POP POP POP POP JUMP JUMPDEST PUSH1 0x0 PUSH32 0xFFFFFFFF00000000000000000000000000000000000000000000000000000000 DUP3 AND SWAP1 POP SWAP2 SWAP1 POP JUMP JUMPDEST PUSH1 0x0 DUP2 SWAP1 POP SWAP2 SWAP1 POP JUMP JUMPDEST PUSH2 0xF4F PUSH2 0xF4A DUP3 PUSH2 0xF08 JUMP JUMPDEST PUSH2 0xF34 JUMP JUMPDEST DUP3 MSTORE POP POP JUMP JUMPDEST PUSH1 0x0 DUP2 MLOAD SWAP1 POP SWAP2 SWAP1 POP JUMP JUMPDEST PUSH1 0x0 DUP2 SWAP1 POP SWAP3 SWAP2 POP POP JUMP JUMPDEST PUSH1 0x0 PUSH2 0xF76 DUP3 PUSH2 0xF55 JUMP JUMPDEST PUSH2 0xF80 DUP2 DUP6 PUSH2 0xF60 JUMP JUMPDEST SWAP4 POP PUSH2 0xF90 DUP2 DUP6 PUSH1 0x20 DUP7 ADD PUSH2 0xD94 JUMP JUMPDEST DUP1 DUP5 ADD SWAP2 POP POP SWAP3 SWAP2 POP POP JUMP JUMPDEST PUSH1 0x0 PUSH2 0xFA8 DUP3 DUP6 PUSH2 0xF3E JUMP JUMPDEST PUSH1 0x4 DUP3 ADD SWAP2 POP PUSH2 0xFB8 DUP3 DUP5 PUSH2 0xF6B JUMP JUMPDEST SWAP2 POP DUP2 SWAP1 POP SWAP4 SWAP3 POP POP POP JUMP JUMPDEST PUSH1 0x0 PUSH2 0xFDF PUSH2 0xFDA PUSH2 0xFD5 DUP5 PUSH2 0x721 JUMP JUMPDEST PUSH2 0x8E5 JUMP JUMPDEST PUSH2 0x8B1 JUMP JUMPDEST SWAP1 POP SWAP2 SWAP1 POP JUMP JUMPDEST PUSH2 0xFEF DUP2 PUSH2 0xFC4 JUMP JUMPDEST DUP3 MSTORE POP POP JUMP JUMPDEST PUSH1 0x0 PUSH2 0x1000 DUP3 PUSH2 0xF55 JUMP JUMPDEST PUSH2 0x100A DUP2 DUP6 PUSH2 0xDF7 JUMP JUMPDEST SWAP4 POP PUSH2 0x101A DUP2 DUP6 PUSH1 0x20 DUP7 ADD PUSH2 0xD94 JUMP JUMPDEST PUSH2 0x1023 DUP2 PUSH2 0x4EB JUMP JUMPDEST DUP5 ADD SWAP2 POP POP SWAP3 SWAP2 POP POP JUMP JUMPDEST PUSH1 0x0 PUSH1 0x60 DUP3 ADD SWAP1 POP PUSH2 0x1043 PUSH1 0x0 DUP4 ADD DUP7 PUSH2 0x95F JUMP JUMPDEST PUSH2 0x1050 PUSH1 0x20 DUP4 ADD DUP6 PUSH2 0xFE6 JUMP JUMPDEST DUP2 DUP2 SUB PUSH1 0x40 DUP4 ADD MSTORE PUSH2 0x1062 DUP2 DUP5 PUSH2 0xFF5 JUMP JUMPDEST SWAP1 POP SWAP5 SWAP4 POP POP POP POP JUMP JUMPDEST PUSH1 0x0 DUP2 ISZERO ISZERO SWAP1 POP SWAP2 SWAP1 POP JUMP JUMPDEST PUSH2 0x1081 DUP2 PUSH2 0x106C JUMP JUMPDEST DUP2 EQ PUSH2 0x108C JUMPI PUSH1 0x0 DUP1 REVERT JUMPDEST POP JUMP JUMPDEST PUSH1 0x0 DUP2 MLOAD SWAP1 POP PUSH2 0x109E DUP2 PUSH2 0x1078 JUMP JUMPDEST SWAP3 SWAP2 POP POP JUMP JUMPDEST PUSH1 0x0 PUSH1 0x20 DUP3 DUP5 SUB SLT ISZERO PUSH2 0x10BA JUMPI PUSH2 0x10B9 PUSH2 0x4D7 JUMP JUMPDEST JUMPDEST PUSH1 0x0 PUSH2 0x10C8 DUP5 DUP3 DUP6 ADD PUSH2 0x108F JUMP JUMPDEST SWAP2 POP POP SWAP3 SWAP2 POP POP JUMP JUMPDEST PUSH32 0x4E487B7100000000000000000000000000000000000000000000000000000000 PUSH1 0x0 MSTORE PUSH1 0x11 PUSH1 0x4 MSTORE PUSH1 0x24 PUSH1 0x0 REVERT JUMPDEST PUSH1 0x0 PUSH2 0x110B DUP3 PUSH2 0x8B1 JUMP JUMPDEST SWAP2 POP PUSH2 0x1116 DUP4 PUSH2 0x8B1 JUMP JUMPDEST SWAP3 POP DUP3 DUP3 ADD SWAP1 POP DUP1 DUP3 GT ISZERO PUSH2 0x112E JUMPI PUSH2 0x112D PUSH2 0x10D1 JUMP JUMPDEST JUMPDEST SWAP3 SWAP2 POP POP JUMP JUMPDEST PUSH1 0x0 PUSH2 0x113F DUP3 PUSH2 0x8B1 JUMP JUMPDEST SWAP2 POP PUSH2 0x114A DUP4 PUSH2 0x8B1 JUMP JUMPDEST SWAP3 POP DUP3 DUP3 SUB SWAP1 POP DUP2 DUP2 GT ISZERO PUSH2 0x1162 JUMPI PUSH2 0x1161 PUSH2 0x10D1 JUMP JUMPDEST JUMPDEST SWAP3 SWAP2 POP POP JUMP JUMPDEST PUSH1 0x0 DUP2 SWAP1 POP SWAP2 SWAP1 POP JUMP JUMPDEST PUSH1 0x0 DUP2 SWAP1 POP SWAP2 SWAP1 POP JUMP JUMPDEST PUSH2 0x118D PUSH2 0x1188 DUP3 PUSH2 0x1168 JUMP JUMPDEST PUSH2 0x1172 JUMP JUMPDEST DUP3 MSTORE POP POP JUMP JUMPDEST PUSH1 0x0 DUP2 PUSH1 0x60 SHL SWAP1 POP SWAP2 SWAP1 POP JUMP JUMPDEST PUSH1 0x0 PUSH2 0x11AB DUP3 PUSH2 0x1193 JUMP JUMPDEST SWAP1 POP SWAP2 SWAP1 POP JUMP JUMPDEST PUSH1 0x0 PUSH2 0x11BD DUP3 PUSH2 0x11A0 JUMP JUMPDEST SWAP1 POP SWAP2 SWAP1 POP JUMP JUMPDEST PUSH2 0x11D5 PUSH2 0x11D0 DUP3 PUSH2 0x6A7 JUMP JUMPDEST PUSH2 0x11B2 JUMP JUMPDEST DUP3 MSTORE POP POP JUMP JUMPDEST PUSH1 0x0 DUP2 PUSH1 0xE0 SHL SWAP1 POP SWAP2 SWAP1 POP JUMP JUMPDEST PUSH1 0x0 PUSH2 0x11F3 DUP3 PUSH2 0x11DB JUMP JUMPDEST SWAP1 POP SWAP2 SWAP1 POP JUMP JUMPDEST PUSH2 0x120B PUSH2 0x1206 DUP3 PUSH2 0x6E5 JUMP JUMPDEST PUSH2 0x11E8 JUMP JUMPDEST DUP3 MSTORE POP POP JUMP JUMPDEST PUSH1 0x0 PUSH2 0x121D DUP3 DUP7 PUSH2 0x117C JUMP JUMPDEST PUSH1 0x20 DUP3 ADD SWAP2 POP PUSH2 0x122D DUP3 DUP6 PUSH2 0x11C4 JUMP JUMPDEST PUSH1 0x14 DUP3 ADD SWAP2 POP PUSH2 0x123D DUP3 DUP5 PUSH2 0x11FA JUMP JUMPDEST PUSH1 0x4 DUP3 ADD SWAP2 POP DUP2 SWAP1 POP SWAP5 SWAP4 POP POP POP POP JUMP JUMPDEST PUSH32 0x6175746F2D617070726F76652064697361626C65640000000000000000000000 PUSH1 0x0 DUP3 ADD MSTORE POP JUMP JUMPDEST PUSH1 0x0 PUSH2 0x1284 PUSH1 0x15 DUP4 PUSH2 0xD83 JUMP JUMPDEST SWAP2 POP PUSH2 0x128F DUP3 PUSH2 0x124E JUMP JUMPDEST PUSH1 0x20 DUP3 ADD SWAP1 POP SWAP2 SWAP1 POP JUMP JUMPDEST PUSH1 0x0 PUSH1 0x20 DUP3 ADD SWAP1 POP DUP2 DUP2 SUB PUSH1 0x0 DUP4 ADD MSTORE PUSH2 0x12B3 DUP2 PUSH2 0x1277 JUMP JUMPDEST SWAP1 POP SWAP2 SWAP1 POP JUMP INVALID LOG2 PUSH5 0x6970667358 0x22 SLT KECCAK256 JUMP SWAP16 0xC8 GASLIMIT SUB SELFBALANCE 0xCD 0x2C PUSH25 0xAF53B6921B9FFBE73A27ABA0D50A9C238013FC718B34E16473 PUSH16 0x6C634300081100330000000000000000 "},"methodIdentifiers":{"i_link()":"7d253aff","i_registry()":"2a663606","registerAndPredictID(string,bytes,address,uint32,address,bytes,uint96,uint8)":"18a9fb8a","registrar()":"2b20e397"}}}}}