{"contracts/Test.sol":{"Test":{"abi":[{"inputs":[{"internalType":"bytes[][]","name":"proof","type":"bytes[][]"},{"components":[{"internalType":"bytes","name":"val","type":"bytes"},{"internalType":"bool","name":"neg","type":"bool"},{"internalType":"uint256","name":"bitlen","type":"uint256"}],"internalType":"struct BigNumber[]","name":"AS","type":"tuple[]"},{"components":[{"internalType":"bytes","name":"val","type":"bytes"},{"internalType":"bool","name":"neg","type":"bool"},{"internalType":"uint256","name":"bitlen","type":"uint256"}],"internalType":"struct BigNumber","name":"_pub","type":"tuple"}],"name":"checkEvery","outputs":[{"internalType":"bool","name":"","type":"bool"}],"stateMutability":"view","type":"function"},{"inputs":[{"components":[{"internalType":"bytes","name":"val","type":"bytes"},{"internalType":"bool","name":"neg","type":"bool"},{"internalType":"uint256","name":"bitlen","type":"uint256"}],"internalType":"struct BigNumber","name":"bg","type":"tuple"}],"name":"generator","outputs":[{"components":[{"internalType":"bytes","name":"val","type":"bytes"},{"internalType":"bool","name":"neg","type":"bool"},{"internalType":"uint256","name":"bitlen","type":"uint256"}],"internalType":"struct BigNumber","name":"_bg","type":"tuple"}],"stateMutability":"view","type":"function"},{"inputs":[{"internalType":"string","name":"_text","type":"string"},{"internalType":"uint256","name":"_num","type":"uint256"},{"internalType":"address","name":"_addr","type":"address"}],"name":"hash","outputs":[{"internalType":"bytes32","name":"","type":"bytes32"}],"stateMutability":"pure","type":"function"},{"inputs":[],"name":"test","outputs":[{"components":[{"internalType":"bytes","name":"val","type":"bytes"},{"internalType":"bool","name":"neg","type":"bool"},{"internalType":"uint256","name":"bitlen","type":"uint256"}],"internalType":"struct BigNumber","name":"result","type":"tuple"}],"stateMutability":"view","type":"function"},{"inputs":[],"name":"test2","outputs":[{"components":[{"internalType":"bytes","name":"val","type":"bytes"},{"internalType":"bool","name":"neg","type":"bool"},{"internalType":"uint256","name":"bitlen","type":"uint256"}],"internalType":"struct BigNumber","name":"result","type":"tuple"}],"stateMutability":"view","type":"function"},{"inputs":[{"internalType":"bytes","name":"_gmk","type":"bytes"},{"internalType":"bytes","name":"_N","type":"bytes"},{"internalType":"bytes","name":"_r","type":"bytes"}],"name":"verifyInvMod","outputs":[{"internalType":"bool","name":"verify","type":"bool"}],"stateMutability":"view","type":"function"},{"inputs":[{"internalType":"bytes","name":"_ciphertext","type":"bytes"},{"internalType":"bytes[][]","name":"proof","type":"bytes[][]"},{"internalType":"bytes[]","name":"validMessages","type":"bytes[]"},{"internalType":"bytes[]","name":"_as","type":"bytes[]"},{"internalType":"bytes","name":"_e","type":"bytes"},{"internalType":"bytes","name":"pubKey","type":"bytes"}],"name":"verifyMembershipZKP","outputs":[{"internalType":"bool","name":"","type":"bool"}],"stateMutability":"view","type":"function"}],"evm":{"bytecode":{"linkReferences":{},"object":"608060405234801561001057600080fd5b50612a9c806100206000396000f3fe608060405234801561001057600080fd5b506004361061007d5760003560e01c806366e41cb71161005b57806366e41cb714610112578063b1e9dfaa14610130578063d5f679b114610160578063f8a8fd6d146101905761007d565b8063040068c91461008257806341a3aa0c146100b25780635dda416e146100e2575b600080fd5b61009c60048036038101906100979190611e46565b6101ae565b6040516100a99190611f96565b60405180910390f35b6100cc60048036038101906100c79190611fb1565b6103d5565b6040516100d99190611f96565b60405180910390f35b6100fc60048036038101906100f7919061218d565b61041a565b6040516101099190612215565b60405180910390f35b61011a610450565b604051610127919061231d565b60405180910390f35b61014a600480360381019061014591906124d6565b61055c565b6040516101579190611f96565b60405180910390f35b61017a6004803603810190610175919061257d565b610704565b604051610187919061231d565b60405180910390f35b610198610772565b6040516101a5919061231d565b60405180910390f35b6000806101bc88600061087d565b905060006101cb84600061087d565b905060006101e2828361089990919063ffffffff16565b90506000875167ffffffffffffffff81111561020157610200611b54565b5b60405190808252806020026020018201604052801561023a57816020015b610227611b02565b81526020019060019003908161021f5790505b50905060005b88518110156102b95760006102846102738b8481518110610264576102636125c6565b5b6020026020010151600061087d565b858861093e9092919063ffffffff16565b90508083838151811061029a576102996125c6565b5b60200260200101819052505080806102b190612624565b915050610240565b5060006102c4610962565b905060005b8b6000815181106102dd576102dc6125c6565b5b60200260200101515181101561036c57600061032f8d600081518110610306576103056125c6565b5b602002602001015183815181106103205761031f6125c6565b5b6020026020010151600061087d565b90506103568661034883866109a490919063ffffffff16565b610bcc90919063ffffffff16565b925050808061036490612624565b9150506102c9565b5061038a61037b89600061087d565b82610bee90919063ffffffff16565b61039c576000955050505050506103cb565b60006103a98c848761055c565b905080156103c057600196505050505050506103cb565b600096505050505050505b9695505050505050565b6000806103e385600061087d565b905060006103f285600061087d565b9050600061040185600061087d565b905061040e838383610c1a565b93505050509392505050565b60008383836040516020016104319392919061271c565b6040516020818303038152906040528051906020012090509392505050565b610458611b02565b60006040518060400160405280600b81526020017f68656c6c6f20776f726c64000000000000000000000000000000000000000000815250905060006104c060006040518060a00160405280608081526020016129e76080913961087d90919063ffffffff16565b9050600061050d60006040518060400160405280600381526020017f010001000000000000000000000000000000000000000000000000000000000081525061087d90919063ffffffff16565b9050600061053e600060405180610120016040528060e7815260200161290060e7913961087d90919063ffffffff16565b905061055381846109a490919063ffffffff16565b94505050505090565b600080610572838461089990919063ffffffff16565b905060005b8560028151811061058b5761058a6125c6565b5b6020026020010151518110156106f65760006105dd876002815181106105b4576105b36125c6565b5b602002602001015183815181106105ce576105cd6125c6565b5b6020026020010151600061087d565b90506000610621886001815181106105f8576105f76125c6565b5b60200260200101518481518110610612576106116125c6565b5b6020026020010151600061087d565b905060006106658960008151811061063c5761063b6125c6565b5b60200260200101518581518110610656576106556125c6565b5b6020026020010151600061087d565b9050600088858151811061067c5761067b6125c6565b5b602002602001015190506000610693828489610c6d565b905060006106a285838a61093e565b905060006106b1878c8b610c6d565b90506106c68282610bee90919063ffffffff16565b6106dc57600099505050505050505050506106fd565b5050505050505080806106ee90612624565b915050610577565b5060019150505b9392505050565b61070c611b02565b600061075660006040518060400160405280600281526020017e0100000000000000000000000000000000000000000000000000000000000081525061087d90919063ffffffff16565b905061076b81836109a490919063ffffffff16565b5050919050565b61077a611b02565b60006040518060400160405280600b81526020017f68656c6c6f20776f726c64000000000000000000000000000000000000000000815250905060006107e260006040518060a00160405280608081526020016129e76080913961087d90919063ffffffff16565b9050600061082f60006040518060400160405280600381526020017f010001000000000000000000000000000000000000000000000000000000000081525061087d90919063ffffffff16565b9050600061085f60006040518060e0016040528060c0815260200161284060c0913961087d90919063ffffffff16565b905061087481846109a490919063ffffffff16565b94505050505090565b610885611b02565b61089183836000610d6a565b905092915050565b6108a1611b02565b60006108ad84846109a4565b905060006108cd826108bd610e37565b6108c8856002610e79565b610c6d565b90506108d98585610bee565b6109285760006108e98686610ef5565b90506000610909826108f9610e37565b610904856002610e79565b610c6d565b905061091f6109188483610ef5565b6002611144565b94505050610936565b610933816002611144565b92505b505092915050565b610946611b02565b6109596109538585610899565b83610bcc565b90509392505050565b61096a611b02565b6040518060600160405280604051806040016040528060208152602001600081525081526020016000151581526020016000815250905090565b6109ac611b02565b600083604001511480156109c4575060008260400151145b156109d8576109d1610962565b9050610bc6565b60008360400151036109ec57819050610bc6565b6000826040015103610a0057829050610bc6565b6060600080610a11868660006112a6565b9050856020015180610a24575084602001515b15610b515785602001518015610a3b575084602001515b15610aa25760008112610a6c57610a5f866000015186600001518860400151611483565b8093508194505050610a8c565b610a83856000015187600001518760400151611483565b80935081945050505b6001846020019015159081151581525050610b4c565b60018103610add57610abc866000015186600001516115b9565b80935081945050508560200151846020019015159081151581525050610b4b565b7fffffffffffffffffffffffffffffffffffffffffffffffffffffffffffffffff8103610b3857610b16856000015187600001516115b9565b8093508194505050856020015115846020019015159081151581525050610b4a565b610b40610962565b9350505050610bc6565b5b5b610baf565b60008112610b7d57610b70866000015186600001518860400151611483565b8093508194505050610b9d565b610b94856000015187600001518760400151611483565b80935081945050505b60008460200190151590811515815250505b828460000181905250818460400181815250505050505b92915050565b610bd4611b02565b610be683610be06116e4565b84610c6d565b905092915050565b600080610bfd848460016112a6565b905060008114610c0e576000610c11565b60015b91505092915050565b60008360200151158015610c3057508260200151155b610c3957600080fd5b6000610c58610c4986858761093e565b610c516116e4565b60016112a6565b14610c6257600080fd5b600190509392505050565b610c75611b02565b6000151583602001511515148015610c9557506000151582602001511515145b8015610cab5750610ca98260000151611726565b155b610cb457600080fd5b6000610ccd85600001518560000151856000015161177d565b90506000610cda82611857565b905060008103610cf557610cec610962565b92505050610d63565b85602001518015610d0b5750610d0a85611897565b5b15610d4057610d37604051806060016040528084815260200160011515815260200183815250856109a4565b92505050610d63565b604051806060016040528083815260200160001515815260200182815250925050505b9392505050565b610d72611b02565b6020840184516000596000602084061460018114610da457602084066020036020818401019350808501835250610dae565b6020820192508382525b508282848660046101c2fa506020815101810160405280515b60006020821403610dfa57600060208301511460018114610de85750610dfa565b60208301925050602081039050610dc7565b808252818652876020870152505050505060008214610e195781610e27565b610e268160000151611857565b5b8160400181815250509392505050565b610e3f611b02565b6040518060600160405280604051806040016040528060208152602001600281525081526020016000151581526020016002815250905090565b610e81611b02565b6000604051806040016040528060208152602001600081525090506000836040860151029050600161010082061b6020600161010084040102835280602084015260208351018301604052506040518060600160405280838152602001600015158152602001828152509250505092915050565b610efd611b02565b60008360400151148015610f15575060008260400151145b15610f2957610f22610962565b905061113e565b6060600080610f3a868660006112a6565b9150856020015180610f4d575084602001515b156110845785602001518015610f64575084602001515b156110105760018203610fa157610f83866000015186600001516115b9565b8092508194505050600184602001901515908115158152505061100b565b7fffffffffffffffffffffffffffffffffffffffffffffffffffffffffffffffff8203610ff857610fda856000015187600001516115b9565b8092508194505050600084602001901515908115158152505061100a565b611000610962565b935050505061113e565b5b61107f565b6000821261103c5761102f866000015186600001518860400151611483565b809250819450505061105c565b611053856000015187600001518760400151611483565b80925081945050505b856020015161106c57600061106f565b60015b8460200190151590811515815250505b611127565b600182036110bc5761109e866000015186600001516115b9565b80925081945050506000846020019015159081151581525050611126565b7fffffffffffffffffffffffffffffffffffffffffffffffffffffffffffffffff8203611113576110f5856000015187600001516115b9565b80925081945050506001846020019015159081151581525050611125565b61111b610962565b935050505061113e565b5b5b828460000181905250808460400181815250505050505b92915050565b61114c611b02565b600083515190508360400151831061119b5760405180606001604052806040518060400160405280602081526020016000815250815260200160001515815260200160008152509150506112a0565b8284604001516111ab9190612755565b8460400181815250506101008314610100841117156111dc5760206101008404028103905080845152610100830692505b8351600060088506146001811461124d576000808661010003858501865b60008082140361124357602081146001811461121c5760208303519550611221565b600095505b5081518a1c935084831b945084841782526020820391506020810390506111fa565b505050505061127b565b6008850486518051602081018383018482038282848760046101c2fa6000601f840153848652505050505050505b506020810160008151146001810361129857602083510382528187525b505050839150505b92915050565b60008060019050821561137157846020015180156112c5575083602001515b156112f2577fffffffffffffffffffffffffffffffffffffffffffffffffffffffffffffffff9050611370565b600015158560200151151514801561131257506001151584602001511515145b1561132157600191505061147c565b600115158560200151151514801561134157506000151584602001511515145b1561136f577fffffffffffffffffffffffffffffffffffffffffffffffffffffffffffffffff91505061147c565b5b5b83604001518560400151111561138a578091505061147c565b8460400151846040015111156113ce57807fffffffffffffffffffffffffffffffffffffffffffffffffffffffffffffffff6113c69190612793565b91505061147c565b6000806000806000896000015151905060208a510194506020895101935060005b81811015611470578086015193508085015192508284111561141a578697505050505050505061147c565b8383111561145c57867fffffffffffffffffffffffffffffffffffffffffffffffffffffffffffffffff61144e9190612793565b97505050505050505061147c565b602081611469919061280b565b90506113ef565b50600096505050505050505b9392505050565b606060006060596000600160000388518901885189018a5160208601018b515b60008082140361154f5783518c518e51038211600181146114e75787820184526001881482881416600181146114dc57600098506114e1565b600198505b50611536565b8451888184010185528881038803831160018114611528576000821160008b1117898514166001811461151d5760009a50611522565b60019a505b5061152d565b600199505b50602086039550505b50602083039250602085039450506020810390506114a3565b506000851460018114611565576001825261156c565b6020870196505b50859650846020028c510187526020875101870160405260208701516001816101008d061c146001821417156115a35760018b019a505b5050505050505080849250925050935093915050565b6060600060606000807fffffffffffffffffffffffffffffffffffffffffffffffffffffffffffffffff90505987518751808203828b01828b0184860160208101865b60008082140361168c5784518682116001811461163d578c8203855260018d146000831416600181146116325760009d50611637565b60019d505b50611673565b85518d81840303865260018e148d8214168e8201841017600181146116655760009e5061166a565b60019e505b50602087039650505b50602084039350602086039550506020810390506115fc565b506020820191505b60008251036116b457602088019750602087039650602082019150611694565b879a50868b5280604052505050505050505060006116d184611857565b9050838195509550505050509250929050565b6116ec611b02565b6040518060600160405280604051806040016040528060208152602001600181525081526020016000151581526020016001815250905090565b600080600060208401905060005b8451811015611770578151925060008311156117565760009350505050611778565b602082019150602081611769919061280b565b9050611734565b506001925050505b919050565b606083518351835160405183815282602082015281604082015283606082018560208b0160046101c2fa84606001848184018660208c0160046101c2fa91508481019050838184018560208b0160046101c2fa915081600081036117dd57fe5b5083810190508360608401828560056105465a03fa915081600081036117ff57fe5b5083606084015b60006020831403611836576000815114600181146118245750611836565b60208201915050602082039150611806565b60208103985081895285856060010160405250505050505050509392505050565b600061186282611726565b156118705760009050611892565b600060208301519050611882816118ac565b9150600860208451030282019150505b919050565b60008151518251016002815106915050919050565b600080821460018114611af7578260018403935060028404841793506004840484179350601084048417935061010084048417935062010000840484179350640100000000840484179350680100000000000000008404841793507001000000000000000000000000000000008404841793506001840193506040517ff8f9cbfae6cc78fbefe7cdc3a1793dfcf4f0e8bbd8cec470b6a28a7a5a3e1efd81527ff5ecf1b3e9debc68e1d9cfabc5997135bfb7a7a3938b7b606b5b4b3f2f1f0ffe60208201527ff6e4ed9ff2d6b458eadcdf97bd91692de2d4da8fd2d0ac50c6ae9a827252361660408201527fc8c0b887b0a8a4489c948c7f847c6125746c645c544c444038302820181008ff60608201527ff7cae577eec2a03cf3bad76fb589591debb2dd67e0aa9834bea6925f6a4a2e0e60808201527fe39ed557db96902cd38ed14fad815115c786af479b7e8324736353433727170760a08201527fc976c13bb96e881cb166a933a55e490d9d56952b8d4e801485467d236242260660c08201527f753a6d1b65325d0c552a4d1345224105391a310b29122104190a11030902010060e082015261010081016040527e818283848586878898a8b8c8d8e8f929395969799a9b9d9e9faaeb6bedeeff7f01000000000000000000000000000000000000000000000000000000000000008082880204818160ff038501510496507f800000000000000000000000000000000000000000000000000000000000000085116101000287019650600060018603861603611aed576001870196505b5050505050611afc565b600091505b50919050565b604051806060016040528060608152602001600015158152602001600081525090565b6000604051905090565b600080fd5b600080fd5b600080fd5b600080fd5b6000601f19601f8301169050919050565b7f4e487b7100000000000000000000000000000000000000000000000000000000600052604160045260246000fd5b611b8c82611b43565b810181811067ffffffffffffffff82111715611bab57611baa611b54565b5b80604052505050565b6000611bbe611b25565b9050611bca8282611b83565b919050565b600067ffffffffffffffff821115611bea57611be9611b54565b5b611bf382611b43565b9050602081019050919050565b82818337600083830152505050565b6000611c22611c1d84611bcf565b611bb4565b905082815260208101848484011115611c3e57611c3d611b3e565b5b611c49848285611c00565b509392505050565b600082601f830112611c6657611c65611b39565b5b8135611c76848260208601611c0f565b91505092915050565b600067ffffffffffffffff821115611c9a57611c99611b54565b5b602082029050602081019050919050565b600080fd5b600067ffffffffffffffff821115611ccb57611cca611b54565b5b602082029050602081019050919050565b6000611cef611cea84611cb0565b611bb4565b90508083825260208201905060208402830185811115611d1257611d11611cab565b5b835b81811015611d5957803567ffffffffffffffff811115611d3757611d36611b39565b5b808601611d448982611c51565b85526020850194505050602081019050611d14565b5050509392505050565b600082601f830112611d7857611d77611b39565b5b8135611d88848260208601611cdc565b91505092915050565b6000611da4611d9f84611c7f565b611bb4565b90508083825260208201905060208402830185811115611dc757611dc6611cab565b5b835b81811015611e0e57803567ffffffffffffffff811115611dec57611deb611b39565b5b808601611df98982611d63565b85526020850194505050602081019050611dc9565b5050509392505050565b600082601f830112611e2d57611e2c611b39565b5b8135611e3d848260208601611d91565b91505092915050565b60008060008060008060c08789031215611e6357611e62611b2f565b5b600087013567ffffffffffffffff811115611e8157611e80611b34565b5b611e8d89828a01611c51565b965050602087013567ffffffffffffffff811115611eae57611ead611b34565b5b611eba89828a01611e18565b955050604087013567ffffffffffffffff811115611edb57611eda611b34565b5b611ee789828a01611d63565b945050606087013567ffffffffffffffff811115611f0857611f07611b34565b5b611f1489828a01611d63565b935050608087013567ffffffffffffffff811115611f3557611f34611b34565b5b611f4189828a01611c51565b92505060a087013567ffffffffffffffff811115611f6257611f61611b34565b5b611f6e89828a01611c51565b9150509295509295509295565b60008115159050919050565b611f9081611f7b565b82525050565b6000602082019050611fab6000830184611f87565b92915050565b600080600060608486031215611fca57611fc9611b2f565b5b600084013567ffffffffffffffff811115611fe857611fe7611b34565b5b611ff486828701611c51565b935050602084013567ffffffffffffffff81111561201557612014611b34565b5b61202186828701611c51565b925050604084013567ffffffffffffffff81111561204257612041611b34565b5b61204e86828701611c51565b9150509250925092565b600067ffffffffffffffff82111561207357612072611b54565b5b61207c82611b43565b9050602081019050919050565b600061209c61209784612058565b611bb4565b9050828152602081018484840111156120b8576120b7611b3e565b5b6120c3848285611c00565b509392505050565b600082601f8301126120e0576120df611b39565b5b81356120f0848260208601612089565b91505092915050565b6000819050919050565b61210c816120f9565b811461211757600080fd5b50565b60008135905061212981612103565b92915050565b600073ffffffffffffffffffffffffffffffffffffffff82169050919050565b600061215a8261212f565b9050919050565b61216a8161214f565b811461217557600080fd5b50565b60008135905061218781612161565b92915050565b6000806000606084860312156121a6576121a5611b2f565b5b600084013567ffffffffffffffff8111156121c4576121c3611b34565b5b6121d0868287016120cb565b93505060206121e18682870161211a565b92505060406121f286828701612178565b9150509250925092565b6000819050919050565b61220f816121fc565b82525050565b600060208201905061222a6000830184612206565b92915050565b600081519050919050565b600082825260208201905092915050565b60005b8381101561226a57808201518184015260208101905061224f565b60008484015250505050565b600061228182612230565b61228b818561223b565b935061229b81856020860161224c565b6122a481611b43565b840191505092915050565b6122b881611f7b565b82525050565b6122c7816120f9565b82525050565b600060608301600083015184820360008601526122ea8282612276565b91505060208301516122ff60208601826122af565b50604083015161231260408601826122be565b508091505092915050565b6000602082019050818103600083015261233781846122cd565b905092915050565b600067ffffffffffffffff82111561235a57612359611b54565b5b602082029050602081019050919050565b600080fd5b600080fd5b61237e81611f7b565b811461238957600080fd5b50565b60008135905061239b81612375565b92915050565b6000606082840312156123b7576123b661236b565b5b6123c16060611bb4565b9050600082013567ffffffffffffffff8111156123e1576123e0612370565b5b6123ed84828501611c51565b60008301525060206124018482850161238c565b60208301525060406124158482850161211a565b60408301525092915050565b600061243461242f8461233f565b611bb4565b9050808382526020820190506020840283018581111561245757612456611cab565b5b835b8181101561249e57803567ffffffffffffffff81111561247c5761247b611b39565b5b80860161248989826123a1565b85526020850194505050602081019050612459565b5050509392505050565b600082601f8301126124bd576124bc611b39565b5b81356124cd848260208601612421565b91505092915050565b6000806000606084860312156124ef576124ee611b2f565b5b600084013567ffffffffffffffff81111561250d5761250c611b34565b5b61251986828701611e18565b935050602084013567ffffffffffffffff81111561253a57612539611b34565b5b612546868287016124a8565b925050604084013567ffffffffffffffff81111561256757612566611b34565b5b612573868287016123a1565b9150509250925092565b60006020828403121561259357612592611b2f565b5b600082013567ffffffffffffffff8111156125b1576125b0611b34565b5b6125bd848285016123a1565b91505092915050565b7f4e487b7100000000000000000000000000000000000000000000000000000000600052603260045260246000fd5b7f4e487b7100000000000000000000000000000000000000000000000000000000600052601160045260246000fd5b600061262f826120f9565b91507fffffffffffffffffffffffffffffffffffffffffffffffffffffffffffffffff8203612661576126606125f5565b5b600182019050919050565b600081519050919050565b600081905092915050565b600061268d8261266c565b6126978185612677565b93506126a781856020860161224c565b80840191505092915050565b6000819050919050565b6126ce6126c9826120f9565b6126b3565b82525050565b60008160601b9050919050565b60006126ec826126d4565b9050919050565b60006126fe826126e1565b9050919050565b6127166127118261214f565b6126f3565b82525050565b60006127288286612682565b915061273482856126bd565b6020820191506127448284612705565b601482019150819050949350505050565b6000612760826120f9565b915061276b836120f9565b9250828203905081811115612783576127826125f5565b5b92915050565b6000819050919050565b600061279e82612789565b91506127a983612789565b92508282026127b781612789565b91507f800000000000000000000000000000000000000000000000000000000000000084146000841216156127ef576127ee6125f5565b5b8282058414831517612804576128036125f5565b5b5092915050565b6000612816826120f9565b9150612821836120f9565b9250828201905080821115612839576128386125f5565b5b9291505056fe6bd37cce7436ba529478c54d3969f91f6b807da4cb108d7359f2109eb322e5dde99c0c3dd5b7173b083cf254842c6bd1257eddd5308e3431c4ca97e2fb30a655b01b52aea181e1025e9d3df7082243d40e5486883d876e88c92bd0dad6febbf48b2e9e225129800000000000000000000000000000000000000000000000000000000000000000000000000000000000000000000000000000000000000000000000000000000000000000000000000000000000000000000000000000000001649420290310326129162254119500467218768306907220606612984880162663964403222012588101237853583864381409872326875081600491180970229675744463173478291577918876986852745897614703239499232282186868549690008488550391188447203873027812119950551634941227651863055020304956479547813767839418297240960317918869580828762285818584719361356117812685353478395099208868250134324510900053015712008969518882358040384736753124964380529663844689194972663272349191764266060135530497079bed733b48d69bdb03076cb17d9809072a5a765460bc72072d687dba492afe951d75b814f561f253ee5cc0f3d703b6eab5b5df635b03a5437c0a5c179309812f5b5c97650361c645bc99f806054de21eb187bc0a704ed38d3d4c2871a117c19b6da7e9a3d808481c46b22652d15b899ad3792da5419e50ee38759560002388a26469706673582212200b71ade8908282e78126e90c50ce5a9fb27d21dc5b3cc193c33fb74441ba9bb464736f6c63430008110033","opcodes":"PUSH1 0x80 PUSH1 0x40 MSTORE CALLVALUE DUP1 ISZERO PUSH2 0x10 JUMPI PUSH1 0x0 DUP1 REVERT JUMPDEST POP PUSH2 0x2A9C DUP1 PUSH2 0x20 PUSH1 0x0 CODECOPY PUSH1 0x0 RETURN INVALID PUSH1 0x80 PUSH1 0x40 MSTORE CALLVALUE DUP1 ISZERO PUSH2 0x10 JUMPI PUSH1 0x0 DUP1 REVERT JUMPDEST POP PUSH1 0x4 CALLDATASIZE LT PUSH2 0x7D JUMPI PUSH1 0x0 CALLDATALOAD PUSH1 0xE0 SHR DUP1 PUSH4 0x66E41CB7 GT PUSH2 0x5B JUMPI DUP1 PUSH4 0x66E41CB7 EQ PUSH2 0x112 JUMPI DUP1 PUSH4 0xB1E9DFAA EQ PUSH2 0x130 JUMPI DUP1 PUSH4 0xD5F679B1 EQ PUSH2 0x160 JUMPI DUP1 PUSH4 0xF8A8FD6D EQ PUSH2 0x190 JUMPI PUSH2 0x7D JUMP JUMPDEST DUP1 PUSH4 0x40068C9 EQ PUSH2 0x82 JUMPI DUP1 PUSH4 0x41A3AA0C EQ PUSH2 0xB2 JUMPI DUP1 PUSH4 0x5DDA416E EQ PUSH2 0xE2 JUMPI JUMPDEST PUSH1 0x0 DUP1 REVERT JUMPDEST PUSH2 0x9C PUSH1 0x4 DUP1 CALLDATASIZE SUB DUP2 ADD SWAP1 PUSH2 0x97 SWAP2 SWAP1 PUSH2 0x1E46 JUMP JUMPDEST PUSH2 0x1AE JUMP JUMPDEST PUSH1 0x40 MLOAD PUSH2 0xA9 SWAP2 SWAP1 PUSH2 0x1F96 JUMP JUMPDEST PUSH1 0x40 MLOAD DUP1 SWAP2 SUB SWAP1 RETURN JUMPDEST PUSH2 0xCC PUSH1 0x4 DUP1 CALLDATASIZE SUB DUP2 ADD SWAP1 PUSH2 0xC7 SWAP2 SWAP1 PUSH2 0x1FB1 JUMP JUMPDEST PUSH2 0x3D5 JUMP JUMPDEST PUSH1 0x40 MLOAD PUSH2 0xD9 SWAP2 SWAP1 PUSH2 0x1F96 JUMP JUMPDEST PUSH1 0x40 MLOAD DUP1 SWAP2 SUB SWAP1 RETURN JUMPDEST PUSH2 0xFC PUSH1 0x4 DUP1 CALLDATASIZE SUB DUP2 ADD SWAP1 PUSH2 0xF7 SWAP2 SWAP1 PUSH2 0x218D JUMP JUMPDEST PUSH2 0x41A JUMP JUMPDEST PUSH1 0x40 MLOAD PUSH2 0x109 SWAP2 SWAP1 PUSH2 0x2215 JUMP JUMPDEST PUSH1 0x40 MLOAD DUP1 SWAP2 SUB SWAP1 RETURN JUMPDEST PUSH2 0x11A PUSH2 0x450 JUMP JUMPDEST PUSH1 0x40 MLOAD PUSH2 0x127 SWAP2 SWAP1 PUSH2 0x231D JUMP JUMPDEST PUSH1 0x40 MLOAD DUP1 SWAP2 SUB SWAP1 RETURN JUMPDEST PUSH2 0x14A PUSH1 0x4 DUP1 CALLDATASIZE SUB DUP2 ADD SWAP1 PUSH2 0x145 SWAP2 SWAP1 PUSH2 0x24D6 JUMP JUMPDEST PUSH2 0x55C JUMP JUMPDEST PUSH1 0x40 MLOAD PUSH2 0x157 SWAP2 SWAP1 PUSH2 0x1F96 JUMP JUMPDEST PUSH1 0x40 MLOAD DUP1 SWAP2 SUB SWAP1 RETURN JUMPDEST PUSH2 0x17A PUSH1 0x4 DUP1 CALLDATASIZE SUB DUP2 ADD SWAP1 PUSH2 0x175 SWAP2 SWAP1 PUSH2 0x257D JUMP JUMPDEST PUSH2 0x704 JUMP JUMPDEST PUSH1 0x40 MLOAD PUSH2 0x187 SWAP2 SWAP1 PUSH2 0x231D JUMP JUMPDEST PUSH1 0x40 MLOAD DUP1 SWAP2 SUB SWAP1 RETURN JUMPDEST PUSH2 0x198 PUSH2 0x772 JUMP JUMPDEST PUSH1 0x40 MLOAD PUSH2 0x1A5 SWAP2 SWAP1 PUSH2 0x231D JUMP JUMPDEST PUSH1 0x40 MLOAD DUP1 SWAP2 SUB SWAP1 RETURN JUMPDEST PUSH1 0x0 DUP1 PUSH2 0x1BC DUP9 PUSH1 0x0 PUSH2 0x87D JUMP JUMPDEST SWAP1 POP PUSH1 0x0 PUSH2 0x1CB DUP5 PUSH1 0x0 PUSH2 0x87D JUMP JUMPDEST SWAP1 POP PUSH1 0x0 PUSH2 0x1E2 DUP3 DUP4 PUSH2 0x899 SWAP1 SWAP2 SWAP1 PUSH4 0xFFFFFFFF AND JUMP JUMPDEST SWAP1 POP PUSH1 0x0 DUP8 MLOAD PUSH8 0xFFFFFFFFFFFFFFFF DUP2 GT ISZERO PUSH2 0x201 JUMPI PUSH2 0x200 PUSH2 0x1B54 JUMP JUMPDEST JUMPDEST PUSH1 0x40 MLOAD SWAP1 DUP1 DUP3 MSTORE DUP1 PUSH1 0x20 MUL PUSH1 0x20 ADD DUP3 ADD PUSH1 0x40 MSTORE DUP1 ISZERO PUSH2 0x23A JUMPI DUP2 PUSH1 0x20 ADD JUMPDEST PUSH2 0x227 PUSH2 0x1B02 JUMP JUMPDEST DUP2 MSTORE PUSH1 0x20 ADD SWAP1 PUSH1 0x1 SWAP1 SUB SWAP1 DUP2 PUSH2 0x21F JUMPI SWAP1 POP JUMPDEST POP SWAP1 POP PUSH1 0x0 JUMPDEST DUP9 MLOAD DUP2 LT ISZERO PUSH2 0x2B9 JUMPI PUSH1 0x0 PUSH2 0x284 PUSH2 0x273 DUP12 DUP5 DUP2 MLOAD DUP2 LT PUSH2 0x264 JUMPI PUSH2 0x263 PUSH2 0x25C6 JUMP JUMPDEST JUMPDEST PUSH1 0x20 MUL PUSH1 0x20 ADD ADD MLOAD PUSH1 0x0 PUSH2 0x87D JUMP JUMPDEST DUP6 DUP9 PUSH2 0x93E SWAP1 SWAP3 SWAP2 SWAP1 PUSH4 0xFFFFFFFF AND JUMP JUMPDEST SWAP1 POP DUP1 DUP4 DUP4 DUP2 MLOAD DUP2 LT PUSH2 0x29A JUMPI PUSH2 0x299 PUSH2 0x25C6 JUMP JUMPDEST JUMPDEST PUSH1 0x20 MUL PUSH1 0x20 ADD ADD DUP2 SWAP1 MSTORE POP POP DUP1 DUP1 PUSH2 0x2B1 SWAP1 PUSH2 0x2624 JUMP JUMPDEST SWAP2 POP POP PUSH2 0x240 JUMP JUMPDEST POP PUSH1 0x0 PUSH2 0x2C4 PUSH2 0x962 JUMP JUMPDEST SWAP1 POP PUSH1 0x0 JUMPDEST DUP12 PUSH1 0x0 DUP2 MLOAD DUP2 LT PUSH2 0x2DD JUMPI PUSH2 0x2DC PUSH2 0x25C6 JUMP JUMPDEST JUMPDEST PUSH1 0x20 MUL PUSH1 0x20 ADD ADD MLOAD MLOAD DUP2 LT ISZERO PUSH2 0x36C JUMPI PUSH1 0x0 PUSH2 0x32F DUP14 PUSH1 0x0 DUP2 MLOAD DUP2 LT PUSH2 0x306 JUMPI PUSH2 0x305 PUSH2 0x25C6 JUMP JUMPDEST JUMPDEST PUSH1 0x20 MUL PUSH1 0x20 ADD ADD MLOAD DUP4 DUP2 MLOAD DUP2 LT PUSH2 0x320 JUMPI PUSH2 0x31F PUSH2 0x25C6 JUMP JUMPDEST JUMPDEST PUSH1 0x20 MUL PUSH1 0x20 ADD ADD MLOAD PUSH1 0x0 PUSH2 0x87D JUMP JUMPDEST SWAP1 POP PUSH2 0x356 DUP7 PUSH2 0x348 DUP4 DUP7 PUSH2 0x9A4 SWAP1 SWAP2 SWAP1 PUSH4 0xFFFFFFFF AND JUMP JUMPDEST PUSH2 0xBCC SWAP1 SWAP2 SWAP1 PUSH4 0xFFFFFFFF AND JUMP JUMPDEST SWAP3 POP POP DUP1 DUP1 PUSH2 0x364 SWAP1 PUSH2 0x2624 JUMP JUMPDEST SWAP2 POP POP PUSH2 0x2C9 JUMP JUMPDEST POP PUSH2 0x38A PUSH2 0x37B DUP10 PUSH1 0x0 PUSH2 0x87D JUMP JUMPDEST DUP3 PUSH2 0xBEE SWAP1 SWAP2 SWAP1 PUSH4 0xFFFFFFFF AND JUMP JUMPDEST PUSH2 0x39C JUMPI PUSH1 0x0 SWAP6 POP POP POP POP POP POP PUSH2 0x3CB JUMP JUMPDEST PUSH1 0x0 PUSH2 0x3A9 DUP13 DUP5 DUP8 PUSH2 0x55C JUMP JUMPDEST SWAP1 POP DUP1 ISZERO PUSH2 0x3C0 JUMPI PUSH1 0x1 SWAP7 POP POP POP POP POP POP POP PUSH2 0x3CB JUMP JUMPDEST PUSH1 0x0 SWAP7 POP POP POP POP POP POP POP JUMPDEST SWAP7 SWAP6 POP POP POP POP POP POP JUMP JUMPDEST PUSH1 0x0 DUP1 PUSH2 0x3E3 DUP6 PUSH1 0x0 PUSH2 0x87D JUMP JUMPDEST SWAP1 POP PUSH1 0x0 PUSH2 0x3F2 DUP6 PUSH1 0x0 PUSH2 0x87D JUMP JUMPDEST SWAP1 POP PUSH1 0x0 PUSH2 0x401 DUP6 PUSH1 0x0 PUSH2 0x87D JUMP JUMPDEST SWAP1 POP PUSH2 0x40E DUP4 DUP4 DUP4 PUSH2 0xC1A JUMP JUMPDEST SWAP4 POP POP POP POP SWAP4 SWAP3 POP POP POP JUMP JUMPDEST PUSH1 0x0 DUP4 DUP4 DUP4 PUSH1 0x40 MLOAD PUSH1 0x20 ADD PUSH2 0x431 SWAP4 SWAP3 SWAP2 SWAP1 PUSH2 0x271C JUMP JUMPDEST PUSH1 0x40 MLOAD PUSH1 0x20 DUP2 DUP4 SUB SUB DUP2 MSTORE SWAP1 PUSH1 0x40 MSTORE DUP1 MLOAD SWAP1 PUSH1 0x20 ADD KECCAK256 SWAP1 POP SWAP4 SWAP3 POP POP POP JUMP JUMPDEST PUSH2 0x458 PUSH2 0x1B02 JUMP JUMPDEST PUSH1 0x0 PUSH1 0x40 MLOAD DUP1 PUSH1 0x40 ADD PUSH1 0x40 MSTORE DUP1 PUSH1 0xB DUP2 MSTORE PUSH1 0x20 ADD PUSH32 0x68656C6C6F20776F726C64000000000000000000000000000000000000000000 DUP2 MSTORE POP SWAP1 POP PUSH1 0x0 PUSH2 0x4C0 PUSH1 0x0 PUSH1 0x40 MLOAD DUP1 PUSH1 0xA0 ADD PUSH1 0x40 MSTORE DUP1 PUSH1 0x80 DUP2 MSTORE PUSH1 0x20 ADD PUSH2 0x29E7 PUSH1 0x80 SWAP2 CODECOPY PUSH2 0x87D SWAP1 SWAP2 SWAP1 PUSH4 0xFFFFFFFF AND JUMP JUMPDEST SWAP1 POP PUSH1 0x0 PUSH2 0x50D PUSH1 0x0 PUSH1 0x40 MLOAD DUP1 PUSH1 0x40 ADD PUSH1 0x40 MSTORE DUP1 PUSH1 0x3 DUP2 MSTORE PUSH1 0x20 ADD PUSH32 0x100010000000000000000000000000000000000000000000000000000000000 DUP2 MSTORE POP PUSH2 0x87D SWAP1 SWAP2 SWAP1 PUSH4 0xFFFFFFFF AND JUMP JUMPDEST SWAP1 POP PUSH1 0x0 PUSH2 0x53E PUSH1 0x0 PUSH1 0x40 MLOAD DUP1 PUSH2 0x120 ADD PUSH1 0x40 MSTORE DUP1 PUSH1 0xE7 DUP2 MSTORE PUSH1 0x20 ADD PUSH2 0x2900 PUSH1 0xE7 SWAP2 CODECOPY PUSH2 0x87D SWAP1 SWAP2 SWAP1 PUSH4 0xFFFFFFFF AND JUMP JUMPDEST SWAP1 POP PUSH2 0x553 DUP2 DUP5 PUSH2 0x9A4 SWAP1 SWAP2 SWAP1 PUSH4 0xFFFFFFFF AND JUMP JUMPDEST SWAP5 POP POP POP POP POP SWAP1 JUMP JUMPDEST PUSH1 0x0 DUP1 PUSH2 0x572 DUP4 DUP5 PUSH2 0x899 SWAP1 SWAP2 SWAP1 PUSH4 0xFFFFFFFF AND JUMP JUMPDEST SWAP1 POP PUSH1 0x0 JUMPDEST DUP6 PUSH1 0x2 DUP2 MLOAD DUP2 LT PUSH2 0x58B JUMPI PUSH2 0x58A PUSH2 0x25C6 JUMP JUMPDEST JUMPDEST PUSH1 0x20 MUL PUSH1 0x20 ADD ADD MLOAD MLOAD DUP2 LT ISZERO PUSH2 0x6F6 JUMPI PUSH1 0x0 PUSH2 0x5DD DUP8 PUSH1 0x2 DUP2 MLOAD DUP2 LT PUSH2 0x5B4 JUMPI PUSH2 0x5B3 PUSH2 0x25C6 JUMP JUMPDEST JUMPDEST PUSH1 0x20 MUL PUSH1 0x20 ADD ADD MLOAD DUP4 DUP2 MLOAD DUP2 LT PUSH2 0x5CE JUMPI PUSH2 0x5CD PUSH2 0x25C6 JUMP JUMPDEST JUMPDEST PUSH1 0x20 MUL PUSH1 0x20 ADD ADD MLOAD PUSH1 0x0 PUSH2 0x87D JUMP JUMPDEST SWAP1 POP PUSH1 0x0 PUSH2 0x621 DUP9 PUSH1 0x1 DUP2 MLOAD DUP2 LT PUSH2 0x5F8 JUMPI PUSH2 0x5F7 PUSH2 0x25C6 JUMP JUMPDEST JUMPDEST PUSH1 0x20 MUL PUSH1 0x20 ADD ADD MLOAD DUP5 DUP2 MLOAD DUP2 LT PUSH2 0x612 JUMPI PUSH2 0x611 PUSH2 0x25C6 JUMP JUMPDEST JUMPDEST PUSH1 0x20 MUL PUSH1 0x20 ADD ADD MLOAD PUSH1 0x0 PUSH2 0x87D JUMP JUMPDEST SWAP1 POP PUSH1 0x0 PUSH2 0x665 DUP10 PUSH1 0x0 DUP2 MLOAD DUP2 LT PUSH2 0x63C JUMPI PUSH2 0x63B PUSH2 0x25C6 JUMP JUMPDEST JUMPDEST PUSH1 0x20 MUL PUSH1 0x20 ADD ADD MLOAD DUP6 DUP2 MLOAD DUP2 LT PUSH2 0x656 JUMPI PUSH2 0x655 PUSH2 0x25C6 JUMP JUMPDEST JUMPDEST PUSH1 0x20 MUL PUSH1 0x20 ADD ADD MLOAD PUSH1 0x0 PUSH2 0x87D JUMP JUMPDEST SWAP1 POP PUSH1 0x0 DUP9 DUP6 DUP2 MLOAD DUP2 LT PUSH2 0x67C JUMPI PUSH2 0x67B PUSH2 0x25C6 JUMP JUMPDEST JUMPDEST PUSH1 0x20 MUL PUSH1 0x20 ADD ADD MLOAD SWAP1 POP PUSH1 0x0 PUSH2 0x693 DUP3 DUP5 DUP10 PUSH2 0xC6D JUMP JUMPDEST SWAP1 POP PUSH1 0x0 PUSH2 0x6A2 DUP6 DUP4 DUP11 PUSH2 0x93E JUMP JUMPDEST SWAP1 POP PUSH1 0x0 PUSH2 0x6B1 DUP8 DUP13 DUP12 PUSH2 0xC6D JUMP JUMPDEST SWAP1 POP PUSH2 0x6C6 DUP3 DUP3 PUSH2 0xBEE SWAP1 SWAP2 SWAP1 PUSH4 0xFFFFFFFF AND JUMP JUMPDEST PUSH2 0x6DC JUMPI PUSH1 0x0 SWAP10 POP POP POP POP POP POP POP POP POP POP PUSH2 0x6FD JUMP JUMPDEST POP POP POP POP POP POP POP DUP1 DUP1 PUSH2 0x6EE SWAP1 PUSH2 0x2624 JUMP JUMPDEST SWAP2 POP POP PUSH2 0x577 JUMP JUMPDEST POP PUSH1 0x1 SWAP2 POP POP JUMPDEST SWAP4 SWAP3 POP POP POP JUMP JUMPDEST PUSH2 0x70C PUSH2 0x1B02 JUMP JUMPDEST PUSH1 0x0 PUSH2 0x756 PUSH1 0x0 PUSH1 0x40 MLOAD DUP1 PUSH1 0x40 ADD PUSH1 0x40 MSTORE DUP1 PUSH1 0x2 DUP2 MSTORE PUSH1 0x20 ADD PUSH31 0x1000000000000000000000000000000000000000000000000000000000000 DUP2 MSTORE POP PUSH2 0x87D SWAP1 SWAP2 SWAP1 PUSH4 0xFFFFFFFF AND JUMP JUMPDEST SWAP1 POP PUSH2 0x76B DUP2 DUP4 PUSH2 0x9A4 SWAP1 SWAP2 SWAP1 PUSH4 0xFFFFFFFF AND JUMP JUMPDEST POP POP SWAP2 SWAP1 POP JUMP JUMPDEST PUSH2 0x77A PUSH2 0x1B02 JUMP JUMPDEST PUSH1 0x0 PUSH1 0x40 MLOAD DUP1 PUSH1 0x40 ADD PUSH1 0x40 MSTORE DUP1 PUSH1 0xB DUP2 MSTORE PUSH1 0x20 ADD PUSH32 0x68656C6C6F20776F726C64000000000000000000000000000000000000000000 DUP2 MSTORE POP SWAP1 POP PUSH1 0x0 PUSH2 0x7E2 PUSH1 0x0 PUSH1 0x40 MLOAD DUP1 PUSH1 0xA0 ADD PUSH1 0x40 MSTORE DUP1 PUSH1 0x80 DUP2 MSTORE PUSH1 0x20 ADD PUSH2 0x29E7 PUSH1 0x80 SWAP2 CODECOPY PUSH2 0x87D SWAP1 SWAP2 SWAP1 PUSH4 0xFFFFFFFF AND JUMP JUMPDEST SWAP1 POP PUSH1 0x0 PUSH2 0x82F PUSH1 0x0 PUSH1 0x40 MLOAD DUP1 PUSH1 0x40 ADD PUSH1 0x40 MSTORE DUP1 PUSH1 0x3 DUP2 MSTORE PUSH1 0x20 ADD PUSH32 0x100010000000000000000000000000000000000000000000000000000000000 DUP2 MSTORE POP PUSH2 0x87D SWAP1 SWAP2 SWAP1 PUSH4 0xFFFFFFFF AND JUMP JUMPDEST SWAP1 POP PUSH1 0x0 PUSH2 0x85F PUSH1 0x0 PUSH1 0x40 MLOAD DUP1 PUSH1 0xE0 ADD PUSH1 0x40 MSTORE DUP1 PUSH1 0xC0 DUP2 MSTORE PUSH1 0x20 ADD PUSH2 0x2840 PUSH1 0xC0 SWAP2 CODECOPY PUSH2 0x87D SWAP1 SWAP2 SWAP1 PUSH4 0xFFFFFFFF AND JUMP JUMPDEST SWAP1 POP PUSH2 0x874 DUP2 DUP5 PUSH2 0x9A4 SWAP1 SWAP2 SWAP1 PUSH4 0xFFFFFFFF AND JUMP JUMPDEST SWAP5 POP POP POP POP POP SWAP1 JUMP JUMPDEST PUSH2 0x885 PUSH2 0x1B02 JUMP JUMPDEST PUSH2 0x891 DUP4 DUP4 PUSH1 0x0 PUSH2 0xD6A JUMP JUMPDEST SWAP1 POP SWAP3 SWAP2 POP POP JUMP JUMPDEST PUSH2 0x8A1 PUSH2 0x1B02 JUMP JUMPDEST PUSH1 0x0 PUSH2 0x8AD DUP5 DUP5 PUSH2 0x9A4 JUMP JUMPDEST SWAP1 POP PUSH1 0x0 PUSH2 0x8CD DUP3 PUSH2 0x8BD PUSH2 0xE37 JUMP JUMPDEST PUSH2 0x8C8 DUP6 PUSH1 0x2 PUSH2 0xE79 JUMP JUMPDEST PUSH2 0xC6D JUMP JUMPDEST SWAP1 POP PUSH2 0x8D9 DUP6 DUP6 PUSH2 0xBEE JUMP JUMPDEST PUSH2 0x928 JUMPI PUSH1 0x0 PUSH2 0x8E9 DUP7 DUP7 PUSH2 0xEF5 JUMP JUMPDEST SWAP1 POP PUSH1 0x0 PUSH2 0x909 DUP3 PUSH2 0x8F9 PUSH2 0xE37 JUMP JUMPDEST PUSH2 0x904 DUP6 PUSH1 0x2 PUSH2 0xE79 JUMP JUMPDEST PUSH2 0xC6D JUMP JUMPDEST SWAP1 POP PUSH2 0x91F PUSH2 0x918 DUP5 DUP4 PUSH2 0xEF5 JUMP JUMPDEST PUSH1 0x2 PUSH2 0x1144 JUMP JUMPDEST SWAP5 POP POP POP PUSH2 0x936 JUMP JUMPDEST PUSH2 0x933 DUP2 PUSH1 0x2 PUSH2 0x1144 JUMP JUMPDEST SWAP3 POP JUMPDEST POP POP SWAP3 SWAP2 POP POP JUMP JUMPDEST PUSH2 0x946 PUSH2 0x1B02 JUMP JUMPDEST PUSH2 0x959 PUSH2 0x953 DUP6 DUP6 PUSH2 0x899 JUMP JUMPDEST DUP4 PUSH2 0xBCC JUMP JUMPDEST SWAP1 POP SWAP4 SWAP3 POP POP POP JUMP JUMPDEST PUSH2 0x96A PUSH2 0x1B02 JUMP JUMPDEST PUSH1 0x40 MLOAD DUP1 PUSH1 0x60 ADD PUSH1 0x40 MSTORE DUP1 PUSH1 0x40 MLOAD DUP1 PUSH1 0x40 ADD PUSH1 0x40 MSTORE DUP1 PUSH1 0x20 DUP2 MSTORE PUSH1 0x20 ADD PUSH1 0x0 DUP2 MSTORE POP DUP2 MSTORE PUSH1 0x20 ADD PUSH1 0x0 ISZERO ISZERO DUP2 MSTORE PUSH1 0x20 ADD PUSH1 0x0 DUP2 MSTORE POP SWAP1 POP SWAP1 JUMP JUMPDEST PUSH2 0x9AC PUSH2 0x1B02 JUMP JUMPDEST PUSH1 0x0 DUP4 PUSH1 0x40 ADD MLOAD EQ DUP1 ISZERO PUSH2 0x9C4 JUMPI POP PUSH1 0x0 DUP3 PUSH1 0x40 ADD MLOAD EQ JUMPDEST ISZERO PUSH2 0x9D8 JUMPI PUSH2 0x9D1 PUSH2 0x962 JUMP JUMPDEST SWAP1 POP PUSH2 0xBC6 JUMP JUMPDEST PUSH1 0x0 DUP4 PUSH1 0x40 ADD MLOAD SUB PUSH2 0x9EC JUMPI DUP2 SWAP1 POP PUSH2 0xBC6 JUMP JUMPDEST PUSH1 0x0 DUP3 PUSH1 0x40 ADD MLOAD SUB PUSH2 0xA00 JUMPI DUP3 SWAP1 POP PUSH2 0xBC6 JUMP JUMPDEST PUSH1 0x60 PUSH1 0x0 DUP1 PUSH2 0xA11 DUP7 DUP7 PUSH1 0x0 PUSH2 0x12A6 JUMP JUMPDEST SWAP1 POP DUP6 PUSH1 0x20 ADD MLOAD DUP1 PUSH2 0xA24 JUMPI POP DUP5 PUSH1 0x20 ADD MLOAD JUMPDEST ISZERO PUSH2 0xB51 JUMPI DUP6 PUSH1 0x20 ADD MLOAD DUP1 ISZERO PUSH2 0xA3B JUMPI POP DUP5 PUSH1 0x20 ADD MLOAD JUMPDEST ISZERO PUSH2 0xAA2 JUMPI PUSH1 0x0 DUP2 SLT PUSH2 0xA6C JUMPI PUSH2 0xA5F DUP7 PUSH1 0x0 ADD MLOAD DUP7 PUSH1 0x0 ADD MLOAD DUP9 PUSH1 0x40 ADD MLOAD PUSH2 0x1483 JUMP JUMPDEST DUP1 SWAP4 POP DUP2 SWAP5 POP POP POP PUSH2 0xA8C JUMP JUMPDEST PUSH2 0xA83 DUP6 PUSH1 0x0 ADD MLOAD DUP8 PUSH1 0x0 ADD MLOAD DUP8 PUSH1 0x40 ADD MLOAD PUSH2 0x1483 JUMP JUMPDEST DUP1 SWAP4 POP DUP2 SWAP5 POP POP POP JUMPDEST PUSH1 0x1 DUP5 PUSH1 0x20 ADD SWAP1 ISZERO ISZERO SWAP1 DUP2 ISZERO ISZERO DUP2 MSTORE POP POP PUSH2 0xB4C JUMP JUMPDEST PUSH1 0x1 DUP2 SUB PUSH2 0xADD JUMPI PUSH2 0xABC DUP7 PUSH1 0x0 ADD MLOAD DUP7 PUSH1 0x0 ADD MLOAD PUSH2 0x15B9 JUMP JUMPDEST DUP1 SWAP4 POP DUP2 SWAP5 POP POP POP DUP6 PUSH1 0x20 ADD MLOAD DUP5 PUSH1 0x20 ADD SWAP1 ISZERO ISZERO SWAP1 DUP2 ISZERO ISZERO DUP2 MSTORE POP POP PUSH2 0xB4B JUMP JUMPDEST PUSH32 0xFFFFFFFFFFFFFFFFFFFFFFFFFFFFFFFFFFFFFFFFFFFFFFFFFFFFFFFFFFFFFFFF DUP2 SUB PUSH2 0xB38 JUMPI PUSH2 0xB16 DUP6 PUSH1 0x0 ADD MLOAD DUP8 PUSH1 0x0 ADD MLOAD PUSH2 0x15B9 JUMP JUMPDEST DUP1 SWAP4 POP DUP2 SWAP5 POP POP POP DUP6 PUSH1 0x20 ADD MLOAD ISZERO DUP5 PUSH1 0x20 ADD SWAP1 ISZERO ISZERO SWAP1 DUP2 ISZERO ISZERO DUP2 MSTORE POP POP PUSH2 0xB4A JUMP JUMPDEST PUSH2 0xB40 PUSH2 0x962 JUMP JUMPDEST SWAP4 POP POP POP POP PUSH2 0xBC6 JUMP JUMPDEST JUMPDEST JUMPDEST PUSH2 0xBAF JUMP JUMPDEST PUSH1 0x0 DUP2 SLT PUSH2 0xB7D JUMPI PUSH2 0xB70 DUP7 PUSH1 0x0 ADD MLOAD DUP7 PUSH1 0x0 ADD MLOAD DUP9 PUSH1 0x40 ADD MLOAD PUSH2 0x1483 JUMP JUMPDEST DUP1 SWAP4 POP DUP2 SWAP5 POP POP POP PUSH2 0xB9D JUMP JUMPDEST PUSH2 0xB94 DUP6 PUSH1 0x0 ADD MLOAD DUP8 PUSH1 0x0 ADD MLOAD DUP8 PUSH1 0x40 ADD MLOAD PUSH2 0x1483 JUMP JUMPDEST DUP1 SWAP4 POP DUP2 SWAP5 POP POP POP JUMPDEST PUSH1 0x0 DUP5 PUSH1 0x20 ADD SWAP1 ISZERO ISZERO SWAP1 DUP2 ISZERO ISZERO DUP2 MSTORE POP POP JUMPDEST DUP3 DUP5 PUSH1 0x0 ADD DUP2 SWAP1 MSTORE POP DUP2 DUP5 PUSH1 0x40 ADD DUP2 DUP2 MSTORE POP POP POP POP POP JUMPDEST SWAP3 SWAP2 POP POP JUMP JUMPDEST PUSH2 0xBD4 PUSH2 0x1B02 JUMP JUMPDEST PUSH2 0xBE6 DUP4 PUSH2 0xBE0 PUSH2 0x16E4 JUMP JUMPDEST DUP5 PUSH2 0xC6D JUMP JUMPDEST SWAP1 POP SWAP3 SWAP2 POP POP JUMP JUMPDEST PUSH1 0x0 DUP1 PUSH2 0xBFD DUP5 DUP5 PUSH1 0x1 PUSH2 0x12A6 JUMP JUMPDEST SWAP1 POP PUSH1 0x0 DUP2 EQ PUSH2 0xC0E JUMPI PUSH1 0x0 PUSH2 0xC11 JUMP JUMPDEST PUSH1 0x1 JUMPDEST SWAP2 POP POP SWAP3 SWAP2 POP POP JUMP JUMPDEST PUSH1 0x0 DUP4 PUSH1 0x20 ADD MLOAD ISZERO DUP1 ISZERO PUSH2 0xC30 JUMPI POP DUP3 PUSH1 0x20 ADD MLOAD ISZERO JUMPDEST PUSH2 0xC39 JUMPI PUSH1 0x0 DUP1 REVERT JUMPDEST PUSH1 0x0 PUSH2 0xC58 PUSH2 0xC49 DUP7 DUP6 DUP8 PUSH2 0x93E JUMP JUMPDEST PUSH2 0xC51 PUSH2 0x16E4 JUMP JUMPDEST PUSH1 0x1 PUSH2 0x12A6 JUMP JUMPDEST EQ PUSH2 0xC62 JUMPI PUSH1 0x0 DUP1 REVERT JUMPDEST PUSH1 0x1 SWAP1 POP SWAP4 SWAP3 POP POP POP JUMP JUMPDEST PUSH2 0xC75 PUSH2 0x1B02 JUMP JUMPDEST PUSH1 0x0 ISZERO ISZERO DUP4 PUSH1 0x20 ADD MLOAD ISZERO ISZERO EQ DUP1 ISZERO PUSH2 0xC95 JUMPI POP PUSH1 0x0 ISZERO ISZERO DUP3 PUSH1 0x20 ADD MLOAD ISZERO ISZERO EQ JUMPDEST DUP1 ISZERO PUSH2 0xCAB JUMPI POP PUSH2 0xCA9 DUP3 PUSH1 0x0 ADD MLOAD PUSH2 0x1726 JUMP JUMPDEST ISZERO JUMPDEST PUSH2 0xCB4 JUMPI PUSH1 0x0 DUP1 REVERT JUMPDEST PUSH1 0x0 PUSH2 0xCCD DUP6 PUSH1 0x0 ADD MLOAD DUP6 PUSH1 0x0 ADD MLOAD DUP6 PUSH1 0x0 ADD MLOAD PUSH2 0x177D JUMP JUMPDEST SWAP1 POP PUSH1 0x0 PUSH2 0xCDA DUP3 PUSH2 0x1857 JUMP JUMPDEST SWAP1 POP PUSH1 0x0 DUP2 SUB PUSH2 0xCF5 JUMPI PUSH2 0xCEC PUSH2 0x962 JUMP JUMPDEST SWAP3 POP POP POP PUSH2 0xD63 JUMP JUMPDEST DUP6 PUSH1 0x20 ADD MLOAD DUP1 ISZERO PUSH2 0xD0B JUMPI POP PUSH2 0xD0A DUP6 PUSH2 0x1897 JUMP JUMPDEST JUMPDEST ISZERO PUSH2 0xD40 JUMPI PUSH2 0xD37 PUSH1 0x40 MLOAD DUP1 PUSH1 0x60 ADD PUSH1 0x40 MSTORE DUP1 DUP5 DUP2 MSTORE PUSH1 0x20 ADD PUSH1 0x1 ISZERO ISZERO DUP2 MSTORE PUSH1 0x20 ADD DUP4 DUP2 MSTORE POP DUP6 PUSH2 0x9A4 JUMP JUMPDEST SWAP3 POP POP POP PUSH2 0xD63 JUMP JUMPDEST PUSH1 0x40 MLOAD DUP1 PUSH1 0x60 ADD PUSH1 0x40 MSTORE DUP1 DUP4 DUP2 MSTORE PUSH1 0x20 ADD PUSH1 0x0 ISZERO ISZERO DUP2 MSTORE PUSH1 0x20 ADD DUP3 DUP2 MSTORE POP SWAP3 POP POP POP JUMPDEST SWAP4 SWAP3 POP POP POP JUMP JUMPDEST PUSH2 0xD72 PUSH2 0x1B02 JUMP JUMPDEST PUSH1 0x20 DUP5 ADD DUP5 MLOAD PUSH1 0x0 MSIZE PUSH1 0x0 PUSH1 0x20 DUP5 MOD EQ PUSH1 0x1 DUP2 EQ PUSH2 0xDA4 JUMPI PUSH1 0x20 DUP5 MOD PUSH1 0x20 SUB PUSH1 0x20 DUP2 DUP5 ADD ADD SWAP4 POP DUP1 DUP6 ADD DUP4 MSTORE POP PUSH2 0xDAE JUMP JUMPDEST PUSH1 0x20 DUP3 ADD SWAP3 POP DUP4 DUP3 MSTORE JUMPDEST POP DUP3 DUP3 DUP5 DUP7 PUSH1 0x4 PUSH2 0x1C2 STATICCALL POP PUSH1 0x20 DUP2 MLOAD ADD DUP2 ADD PUSH1 0x40 MSTORE DUP1 MLOAD JUMPDEST PUSH1 0x0 PUSH1 0x20 DUP3 EQ SUB PUSH2 0xDFA JUMPI PUSH1 0x0 PUSH1 0x20 DUP4 ADD MLOAD EQ PUSH1 0x1 DUP2 EQ PUSH2 0xDE8 JUMPI POP PUSH2 0xDFA JUMP JUMPDEST PUSH1 0x20 DUP4 ADD SWAP3 POP POP PUSH1 0x20 DUP2 SUB SWAP1 POP PUSH2 0xDC7 JUMP JUMPDEST DUP1 DUP3 MSTORE DUP2 DUP7 MSTORE DUP8 PUSH1 0x20 DUP8 ADD MSTORE POP POP POP POP POP PUSH1 0x0 DUP3 EQ PUSH2 0xE19 JUMPI DUP2 PUSH2 0xE27 JUMP JUMPDEST PUSH2 0xE26 DUP2 PUSH1 0x0 ADD MLOAD PUSH2 0x1857 JUMP JUMPDEST JUMPDEST DUP2 PUSH1 0x40 ADD DUP2 DUP2 MSTORE POP POP SWAP4 SWAP3 POP POP POP JUMP JUMPDEST PUSH2 0xE3F PUSH2 0x1B02 JUMP JUMPDEST PUSH1 0x40 MLOAD DUP1 PUSH1 0x60 ADD PUSH1 0x40 MSTORE DUP1 PUSH1 0x40 MLOAD DUP1 PUSH1 0x40 ADD PUSH1 0x40 MSTORE DUP1 PUSH1 0x20 DUP2 MSTORE PUSH1 0x20 ADD PUSH1 0x2 DUP2 MSTORE POP DUP2 MSTORE PUSH1 0x20 ADD PUSH1 0x0 ISZERO ISZERO DUP2 MSTORE PUSH1 0x20 ADD PUSH1 0x2 DUP2 MSTORE POP SWAP1 POP SWAP1 JUMP JUMPDEST PUSH2 0xE81 PUSH2 0x1B02 JUMP JUMPDEST PUSH1 0x0 PUSH1 0x40 MLOAD DUP1 PUSH1 0x40 ADD PUSH1 0x40 MSTORE DUP1 PUSH1 0x20 DUP2 MSTORE PUSH1 0x20 ADD PUSH1 0x0 DUP2 MSTORE POP SWAP1 POP PUSH1 0x0 DUP4 PUSH1 0x40 DUP7 ADD MLOAD MUL SWAP1 POP PUSH1 0x1 PUSH2 0x100 DUP3 MOD SHL PUSH1 0x20 PUSH1 0x1 PUSH2 0x100 DUP5 DIV ADD MUL DUP4 MSTORE DUP1 PUSH1 0x20 DUP5 ADD MSTORE PUSH1 0x20 DUP4 MLOAD ADD DUP4 ADD PUSH1 0x40 MSTORE POP PUSH1 0x40 MLOAD DUP1 PUSH1 0x60 ADD PUSH1 0x40 MSTORE DUP1 DUP4 DUP2 MSTORE PUSH1 0x20 ADD PUSH1 0x0 ISZERO ISZERO DUP2 MSTORE PUSH1 0x20 ADD DUP3 DUP2 MSTORE POP SWAP3 POP POP POP SWAP3 SWAP2 POP POP JUMP JUMPDEST PUSH2 0xEFD PUSH2 0x1B02 JUMP JUMPDEST PUSH1 0x0 DUP4 PUSH1 0x40 ADD MLOAD EQ DUP1 ISZERO PUSH2 0xF15 JUMPI POP PUSH1 0x0 DUP3 PUSH1 0x40 ADD MLOAD EQ JUMPDEST ISZERO PUSH2 0xF29 JUMPI PUSH2 0xF22 PUSH2 0x962 JUMP JUMPDEST SWAP1 POP PUSH2 0x113E JUMP JUMPDEST PUSH1 0x60 PUSH1 0x0 DUP1 PUSH2 0xF3A DUP7 DUP7 PUSH1 0x0 PUSH2 0x12A6 JUMP JUMPDEST SWAP2 POP DUP6 PUSH1 0x20 ADD MLOAD DUP1 PUSH2 0xF4D JUMPI POP DUP5 PUSH1 0x20 ADD MLOAD JUMPDEST ISZERO PUSH2 0x1084 JUMPI DUP6 PUSH1 0x20 ADD MLOAD DUP1 ISZERO PUSH2 0xF64 JUMPI POP DUP5 PUSH1 0x20 ADD MLOAD JUMPDEST ISZERO PUSH2 0x1010 JUMPI PUSH1 0x1 DUP3 SUB PUSH2 0xFA1 JUMPI PUSH2 0xF83 DUP7 PUSH1 0x0 ADD MLOAD DUP7 PUSH1 0x0 ADD MLOAD PUSH2 0x15B9 JUMP JUMPDEST DUP1 SWAP3 POP DUP2 SWAP5 POP POP POP PUSH1 0x1 DUP5 PUSH1 0x20 ADD SWAP1 ISZERO ISZERO SWAP1 DUP2 ISZERO ISZERO DUP2 MSTORE POP POP PUSH2 0x100B JUMP JUMPDEST PUSH32 0xFFFFFFFFFFFFFFFFFFFFFFFFFFFFFFFFFFFFFFFFFFFFFFFFFFFFFFFFFFFFFFFF DUP3 SUB PUSH2 0xFF8 JUMPI PUSH2 0xFDA DUP6 PUSH1 0x0 ADD MLOAD DUP8 PUSH1 0x0 ADD MLOAD PUSH2 0x15B9 JUMP JUMPDEST DUP1 SWAP3 POP DUP2 SWAP5 POP POP POP PUSH1 0x0 DUP5 PUSH1 0x20 ADD SWAP1 ISZERO ISZERO SWAP1 DUP2 ISZERO ISZERO DUP2 MSTORE POP POP PUSH2 0x100A JUMP JUMPDEST PUSH2 0x1000 PUSH2 0x962 JUMP JUMPDEST SWAP4 POP POP POP POP PUSH2 0x113E JUMP JUMPDEST JUMPDEST PUSH2 0x107F JUMP JUMPDEST PUSH1 0x0 DUP3 SLT PUSH2 0x103C JUMPI PUSH2 0x102F DUP7 PUSH1 0x0 ADD MLOAD DUP7 PUSH1 0x0 ADD MLOAD DUP9 PUSH1 0x40 ADD MLOAD PUSH2 0x1483 JUMP JUMPDEST DUP1 SWAP3 POP DUP2 SWAP5 POP POP POP PUSH2 0x105C JUMP JUMPDEST PUSH2 0x1053 DUP6 PUSH1 0x0 ADD MLOAD DUP8 PUSH1 0x0 ADD MLOAD DUP8 PUSH1 0x40 ADD MLOAD PUSH2 0x1483 JUMP JUMPDEST DUP1 SWAP3 POP DUP2 SWAP5 POP POP POP JUMPDEST DUP6 PUSH1 0x20 ADD MLOAD PUSH2 0x106C JUMPI PUSH1 0x0 PUSH2 0x106F JUMP JUMPDEST PUSH1 0x1 JUMPDEST DUP5 PUSH1 0x20 ADD SWAP1 ISZERO ISZERO SWAP1 DUP2 ISZERO ISZERO DUP2 MSTORE POP POP JUMPDEST PUSH2 0x1127 JUMP JUMPDEST PUSH1 0x1 DUP3 SUB PUSH2 0x10BC JUMPI PUSH2 0x109E DUP7 PUSH1 0x0 ADD MLOAD DUP7 PUSH1 0x0 ADD MLOAD PUSH2 0x15B9 JUMP JUMPDEST DUP1 SWAP3 POP DUP2 SWAP5 POP POP POP PUSH1 0x0 DUP5 PUSH1 0x20 ADD SWAP1 ISZERO ISZERO SWAP1 DUP2 ISZERO ISZERO DUP2 MSTORE POP POP PUSH2 0x1126 JUMP JUMPDEST PUSH32 0xFFFFFFFFFFFFFFFFFFFFFFFFFFFFFFFFFFFFFFFFFFFFFFFFFFFFFFFFFFFFFFFF DUP3 SUB PUSH2 0x1113 JUMPI PUSH2 0x10F5 DUP6 PUSH1 0x0 ADD MLOAD DUP8 PUSH1 0x0 ADD MLOAD PUSH2 0x15B9 JUMP JUMPDEST DUP1 SWAP3 POP DUP2 SWAP5 POP POP POP PUSH1 0x1 DUP5 PUSH1 0x20 ADD SWAP1 ISZERO ISZERO SWAP1 DUP2 ISZERO ISZERO DUP2 MSTORE POP POP PUSH2 0x1125 JUMP JUMPDEST PUSH2 0x111B PUSH2 0x962 JUMP JUMPDEST SWAP4 POP POP POP POP PUSH2 0x113E JUMP JUMPDEST JUMPDEST JUMPDEST DUP3 DUP5 PUSH1 0x0 ADD DUP2 SWAP1 MSTORE POP DUP1 DUP5 PUSH1 0x40 ADD DUP2 DUP2 MSTORE POP POP POP POP POP JUMPDEST SWAP3 SWAP2 POP POP JUMP JUMPDEST PUSH2 0x114C PUSH2 0x1B02 JUMP JUMPDEST PUSH1 0x0 DUP4 MLOAD MLOAD SWAP1 POP DUP4 PUSH1 0x40 ADD MLOAD DUP4 LT PUSH2 0x119B JUMPI PUSH1 0x40 MLOAD DUP1 PUSH1 0x60 ADD PUSH1 0x40 MSTORE DUP1 PUSH1 0x40 MLOAD DUP1 PUSH1 0x40 ADD PUSH1 0x40 MSTORE DUP1 PUSH1 0x20 DUP2 MSTORE PUSH1 0x20 ADD PUSH1 0x0 DUP2 MSTORE POP DUP2 MSTORE PUSH1 0x20 ADD PUSH1 0x0 ISZERO ISZERO DUP2 MSTORE PUSH1 0x20 ADD PUSH1 0x0 DUP2 MSTORE POP SWAP2 POP POP PUSH2 0x12A0 JUMP JUMPDEST DUP3 DUP5 PUSH1 0x40 ADD MLOAD PUSH2 0x11AB SWAP2 SWAP1 PUSH2 0x2755 JUMP JUMPDEST DUP5 PUSH1 0x40 ADD DUP2 DUP2 MSTORE POP POP PUSH2 0x100 DUP4 EQ PUSH2 0x100 DUP5 GT OR ISZERO PUSH2 0x11DC JUMPI PUSH1 0x20 PUSH2 0x100 DUP5 DIV MUL DUP2 SUB SWAP1 POP DUP1 DUP5 MLOAD MSTORE PUSH2 0x100 DUP4 MOD SWAP3 POP JUMPDEST DUP4 MLOAD PUSH1 0x0 PUSH1 0x8 DUP6 MOD EQ PUSH1 0x1 DUP2 EQ PUSH2 0x124D JUMPI PUSH1 0x0 DUP1 DUP7 PUSH2 0x100 SUB DUP6 DUP6 ADD DUP7 JUMPDEST PUSH1 0x0 DUP1 DUP3 EQ SUB PUSH2 0x1243 JUMPI PUSH1 0x20 DUP2 EQ PUSH1 0x1 DUP2 EQ PUSH2 0x121C JUMPI PUSH1 0x20 DUP4 SUB MLOAD SWAP6 POP PUSH2 0x1221 JUMP JUMPDEST PUSH1 0x0 SWAP6 POP JUMPDEST POP DUP2 MLOAD DUP11 SHR SWAP4 POP DUP5 DUP4 SHL SWAP5 POP DUP5 DUP5 OR DUP3 MSTORE PUSH1 0x20 DUP3 SUB SWAP2 POP PUSH1 0x20 DUP2 SUB SWAP1 POP PUSH2 0x11FA JUMP JUMPDEST POP POP POP POP POP PUSH2 0x127B JUMP JUMPDEST PUSH1 0x8 DUP6 DIV DUP7 MLOAD DUP1 MLOAD PUSH1 0x20 DUP2 ADD DUP4 DUP4 ADD DUP5 DUP3 SUB DUP3 DUP3 DUP5 DUP8 PUSH1 0x4 PUSH2 0x1C2 STATICCALL PUSH1 0x0 PUSH1 0x1F DUP5 ADD MSTORE8 DUP5 DUP7 MSTORE POP POP POP POP POP POP POP JUMPDEST POP PUSH1 0x20 DUP2 ADD PUSH1 0x0 DUP2 MLOAD EQ PUSH1 0x1 DUP2 SUB PUSH2 0x1298 JUMPI PUSH1 0x20 DUP4 MLOAD SUB DUP3 MSTORE DUP2 DUP8 MSTORE JUMPDEST POP POP POP DUP4 SWAP2 POP POP JUMPDEST SWAP3 SWAP2 POP POP JUMP JUMPDEST PUSH1 0x0 DUP1 PUSH1 0x1 SWAP1 POP DUP3 ISZERO PUSH2 0x1371 JUMPI DUP5 PUSH1 0x20 ADD MLOAD DUP1 ISZERO PUSH2 0x12C5 JUMPI POP DUP4 PUSH1 0x20 ADD MLOAD JUMPDEST ISZERO PUSH2 0x12F2 JUMPI PUSH32 0xFFFFFFFFFFFFFFFFFFFFFFFFFFFFFFFFFFFFFFFFFFFFFFFFFFFFFFFFFFFFFFFF SWAP1 POP PUSH2 0x1370 JUMP JUMPDEST PUSH1 0x0 ISZERO ISZERO DUP6 PUSH1 0x20 ADD MLOAD ISZERO ISZERO EQ DUP1 ISZERO PUSH2 0x1312 JUMPI POP PUSH1 0x1 ISZERO ISZERO DUP5 PUSH1 0x20 ADD MLOAD ISZERO ISZERO EQ JUMPDEST ISZERO PUSH2 0x1321 JUMPI PUSH1 0x1 SWAP2 POP POP PUSH2 0x147C JUMP JUMPDEST PUSH1 0x1 ISZERO ISZERO DUP6 PUSH1 0x20 ADD MLOAD ISZERO ISZERO EQ DUP1 ISZERO PUSH2 0x1341 JUMPI POP PUSH1 0x0 ISZERO ISZERO DUP5 PUSH1 0x20 ADD MLOAD ISZERO ISZERO EQ JUMPDEST ISZERO PUSH2 0x136F JUMPI PUSH32 0xFFFFFFFFFFFFFFFFFFFFFFFFFFFFFFFFFFFFFFFFFFFFFFFFFFFFFFFFFFFFFFFF SWAP2 POP POP PUSH2 0x147C JUMP JUMPDEST JUMPDEST JUMPDEST DUP4 PUSH1 0x40 ADD MLOAD DUP6 PUSH1 0x40 ADD MLOAD GT ISZERO PUSH2 0x138A JUMPI DUP1 SWAP2 POP POP PUSH2 0x147C JUMP JUMPDEST DUP5 PUSH1 0x40 ADD MLOAD DUP5 PUSH1 0x40 ADD MLOAD GT ISZERO PUSH2 0x13CE JUMPI DUP1 PUSH32 0xFFFFFFFFFFFFFFFFFFFFFFFFFFFFFFFFFFFFFFFFFFFFFFFFFFFFFFFFFFFFFFFF PUSH2 0x13C6 SWAP2 SWAP1 PUSH2 0x2793 JUMP JUMPDEST SWAP2 POP POP PUSH2 0x147C JUMP JUMPDEST PUSH1 0x0 DUP1 PUSH1 0x0 DUP1 PUSH1 0x0 DUP10 PUSH1 0x0 ADD MLOAD MLOAD SWAP1 POP PUSH1 0x20 DUP11 MLOAD ADD SWAP5 POP PUSH1 0x20 DUP10 MLOAD ADD SWAP4 POP PUSH1 0x0 JUMPDEST DUP2 DUP2 LT ISZERO PUSH2 0x1470 JUMPI DUP1 DUP7 ADD MLOAD SWAP4 POP DUP1 DUP6 ADD MLOAD SWAP3 POP DUP3 DUP5 GT ISZERO PUSH2 0x141A JUMPI DUP7 SWAP8 POP POP POP POP POP POP POP POP PUSH2 0x147C JUMP JUMPDEST DUP4 DUP4 GT ISZERO PUSH2 0x145C JUMPI DUP7 PUSH32 0xFFFFFFFFFFFFFFFFFFFFFFFFFFFFFFFFFFFFFFFFFFFFFFFFFFFFFFFFFFFFFFFF PUSH2 0x144E SWAP2 SWAP1 PUSH2 0x2793 JUMP JUMPDEST SWAP8 POP POP POP POP POP POP POP POP PUSH2 0x147C JUMP JUMPDEST PUSH1 0x20 DUP2 PUSH2 0x1469 SWAP2 SWAP1 PUSH2 0x280B JUMP JUMPDEST SWAP1 POP PUSH2 0x13EF JUMP JUMPDEST POP PUSH1 0x0 SWAP7 POP POP POP POP POP POP POP JUMPDEST SWAP4 SWAP3 POP POP POP JUMP JUMPDEST PUSH1 0x60 PUSH1 0x0 PUSH1 0x60 MSIZE PUSH1 0x0 PUSH1 0x1 PUSH1 0x0 SUB DUP9 MLOAD DUP10 ADD DUP9 MLOAD DUP10 ADD DUP11 MLOAD PUSH1 0x20 DUP7 ADD ADD DUP12 MLOAD JUMPDEST PUSH1 0x0 DUP1 DUP3 EQ SUB PUSH2 0x154F JUMPI DUP4 MLOAD DUP13 MLOAD DUP15 MLOAD SUB DUP3 GT PUSH1 0x1 DUP2 EQ PUSH2 0x14E7 JUMPI DUP8 DUP3 ADD DUP5 MSTORE PUSH1 0x1 DUP9 EQ DUP3 DUP9 EQ AND PUSH1 0x1 DUP2 EQ PUSH2 0x14DC JUMPI PUSH1 0x0 SWAP9 POP PUSH2 0x14E1 JUMP JUMPDEST PUSH1 0x1 SWAP9 POP JUMPDEST POP PUSH2 0x1536 JUMP JUMPDEST DUP5 MLOAD DUP9 DUP2 DUP5 ADD ADD DUP6 MSTORE DUP9 DUP2 SUB DUP9 SUB DUP4 GT PUSH1 0x1 DUP2 EQ PUSH2 0x1528 JUMPI PUSH1 0x0 DUP3 GT PUSH1 0x0 DUP12 GT OR DUP10 DUP6 EQ AND PUSH1 0x1 DUP2 EQ PUSH2 0x151D JUMPI PUSH1 0x0 SWAP11 POP PUSH2 0x1522 JUMP JUMPDEST PUSH1 0x1 SWAP11 POP JUMPDEST POP PUSH2 0x152D JUMP JUMPDEST PUSH1 0x1 SWAP10 POP JUMPDEST POP PUSH1 0x20 DUP7 SUB SWAP6 POP POP JUMPDEST POP PUSH1 0x20 DUP4 SUB SWAP3 POP PUSH1 0x20 DUP6 SUB SWAP5 POP POP PUSH1 0x20 DUP2 SUB SWAP1 POP PUSH2 0x14A3 JUMP JUMPDEST POP PUSH1 0x0 DUP6 EQ PUSH1 0x1 DUP2 EQ PUSH2 0x1565 JUMPI PUSH1 0x1 DUP3 MSTORE PUSH2 0x156C JUMP JUMPDEST PUSH1 0x20 DUP8 ADD SWAP7 POP JUMPDEST POP DUP6 SWAP7 POP DUP5 PUSH1 0x20 MUL DUP13 MLOAD ADD DUP8 MSTORE PUSH1 0x20 DUP8 MLOAD ADD DUP8 ADD PUSH1 0x40 MSTORE PUSH1 0x20 DUP8 ADD MLOAD PUSH1 0x1 DUP2 PUSH2 0x100 DUP14 MOD SHR EQ PUSH1 0x1 DUP3 EQ OR ISZERO PUSH2 0x15A3 JUMPI PUSH1 0x1 DUP12 ADD SWAP11 POP JUMPDEST POP POP POP POP POP POP POP DUP1 DUP5 SWAP3 POP SWAP3 POP POP SWAP4 POP SWAP4 SWAP2 POP POP JUMP JUMPDEST PUSH1 0x60 PUSH1 0x0 PUSH1 0x60 PUSH1 0x0 DUP1 PUSH32 0xFFFFFFFFFFFFFFFFFFFFFFFFFFFFFFFFFFFFFFFFFFFFFFFFFFFFFFFFFFFFFFFF SWAP1 POP MSIZE DUP8 MLOAD DUP8 MLOAD DUP1 DUP3 SUB DUP3 DUP12 ADD DUP3 DUP12 ADD DUP5 DUP7 ADD PUSH1 0x20 DUP2 ADD DUP7 JUMPDEST PUSH1 0x0 DUP1 DUP3 EQ SUB PUSH2 0x168C JUMPI DUP5 MLOAD DUP7 DUP3 GT PUSH1 0x1 DUP2 EQ PUSH2 0x163D JUMPI DUP13 DUP3 SUB DUP6 MSTORE PUSH1 0x1 DUP14 EQ PUSH1 0x0 DUP4 EQ AND PUSH1 0x1 DUP2 EQ PUSH2 0x1632 JUMPI PUSH1 0x0 SWAP14 POP PUSH2 0x1637 JUMP JUMPDEST PUSH1 0x1 SWAP14 POP JUMPDEST POP PUSH2 0x1673 JUMP JUMPDEST DUP6 MLOAD DUP14 DUP2 DUP5 SUB SUB DUP7 MSTORE PUSH1 0x1 DUP15 EQ DUP14 DUP3 EQ AND DUP15 DUP3 ADD DUP5 LT OR PUSH1 0x1 DUP2 EQ PUSH2 0x1665 JUMPI PUSH1 0x0 SWAP15 POP PUSH2 0x166A JUMP JUMPDEST PUSH1 0x1 SWAP15 POP JUMPDEST POP PUSH1 0x20 DUP8 SUB SWAP7 POP POP JUMPDEST POP PUSH1 0x20 DUP5 SUB SWAP4 POP PUSH1 0x20 DUP7 SUB SWAP6 POP POP PUSH1 0x20 DUP2 SUB SWAP1 POP PUSH2 0x15FC JUMP JUMPDEST POP PUSH1 0x20 DUP3 ADD SWAP2 POP JUMPDEST PUSH1 0x0 DUP3 MLOAD SUB PUSH2 0x16B4 JUMPI PUSH1 0x20 DUP9 ADD SWAP8 POP PUSH1 0x20 DUP8 SUB SWAP7 POP PUSH1 0x20 DUP3 ADD SWAP2 POP PUSH2 0x1694 JUMP JUMPDEST DUP8 SWAP11 POP DUP7 DUP12 MSTORE DUP1 PUSH1 0x40 MSTORE POP POP POP POP POP POP POP POP PUSH1 0x0 PUSH2 0x16D1 DUP5 PUSH2 0x1857 JUMP JUMPDEST SWAP1 POP DUP4 DUP2 SWAP6 POP SWAP6 POP POP POP POP POP SWAP3 POP SWAP3 SWAP1 POP JUMP JUMPDEST PUSH2 0x16EC PUSH2 0x1B02 JUMP JUMPDEST PUSH1 0x40 MLOAD DUP1 PUSH1 0x60 ADD PUSH1 0x40 MSTORE DUP1 PUSH1 0x40 MLOAD DUP1 PUSH1 0x40 ADD PUSH1 0x40 MSTORE DUP1 PUSH1 0x20 DUP2 MSTORE PUSH1 0x20 ADD PUSH1 0x1 DUP2 MSTORE POP DUP2 MSTORE PUSH1 0x20 ADD PUSH1 0x0 ISZERO ISZERO DUP2 MSTORE PUSH1 0x20 ADD PUSH1 0x1 DUP2 MSTORE POP SWAP1 POP SWAP1 JUMP JUMPDEST PUSH1 0x0 DUP1 PUSH1 0x0 PUSH1 0x20 DUP5 ADD SWAP1 POP PUSH1 0x0 JUMPDEST DUP5 MLOAD DUP2 LT ISZERO PUSH2 0x1770 JUMPI DUP2 MLOAD SWAP3 POP PUSH1 0x0 DUP4 GT ISZERO PUSH2 0x1756 JUMPI PUSH1 0x0 SWAP4 POP POP POP POP PUSH2 0x1778 JUMP JUMPDEST PUSH1 0x20 DUP3 ADD SWAP2 POP PUSH1 0x20 DUP2 PUSH2 0x1769 SWAP2 SWAP1 PUSH2 0x280B JUMP JUMPDEST SWAP1 POP PUSH2 0x1734 JUMP JUMPDEST POP PUSH1 0x1 SWAP3 POP POP POP JUMPDEST SWAP2 SWAP1 POP JUMP JUMPDEST PUSH1 0x60 DUP4 MLOAD DUP4 MLOAD DUP4 MLOAD PUSH1 0x40 MLOAD DUP4 DUP2 MSTORE DUP3 PUSH1 0x20 DUP3 ADD MSTORE DUP2 PUSH1 0x40 DUP3 ADD MSTORE DUP4 PUSH1 0x60 DUP3 ADD DUP6 PUSH1 0x20 DUP12 ADD PUSH1 0x4 PUSH2 0x1C2 STATICCALL DUP5 PUSH1 0x60 ADD DUP5 DUP2 DUP5 ADD DUP7 PUSH1 0x20 DUP13 ADD PUSH1 0x4 PUSH2 0x1C2 STATICCALL SWAP2 POP DUP5 DUP2 ADD SWAP1 POP DUP4 DUP2 DUP5 ADD DUP6 PUSH1 0x20 DUP12 ADD PUSH1 0x4 PUSH2 0x1C2 STATICCALL SWAP2 POP DUP2 PUSH1 0x0 DUP2 SUB PUSH2 0x17DD JUMPI INVALID JUMPDEST POP DUP4 DUP2 ADD SWAP1 POP DUP4 PUSH1 0x60 DUP5 ADD DUP3 DUP6 PUSH1 0x5 PUSH2 0x546 GAS SUB STATICCALL SWAP2 POP DUP2 PUSH1 0x0 DUP2 SUB PUSH2 0x17FF JUMPI INVALID JUMPDEST POP DUP4 PUSH1 0x60 DUP5 ADD JUMPDEST PUSH1 0x0 PUSH1 0x20 DUP4 EQ SUB PUSH2 0x1836 JUMPI PUSH1 0x0 DUP2 MLOAD EQ PUSH1 0x1 DUP2 EQ PUSH2 0x1824 JUMPI POP PUSH2 0x1836 JUMP JUMPDEST PUSH1 0x20 DUP3 ADD SWAP2 POP POP PUSH1 0x20 DUP3 SUB SWAP2 POP PUSH2 0x1806 JUMP JUMPDEST PUSH1 0x20 DUP2 SUB SWAP9 POP DUP2 DUP10 MSTORE DUP6 DUP6 PUSH1 0x60 ADD ADD PUSH1 0x40 MSTORE POP POP POP POP POP POP POP POP SWAP4 SWAP3 POP POP POP JUMP JUMPDEST PUSH1 0x0 PUSH2 0x1862 DUP3 PUSH2 0x1726 JUMP JUMPDEST ISZERO PUSH2 0x1870 JUMPI PUSH1 0x0 SWAP1 POP PUSH2 0x1892 JUMP JUMPDEST PUSH1 0x0 PUSH1 0x20 DUP4 ADD MLOAD SWAP1 POP PUSH2 0x1882 DUP2 PUSH2 0x18AC JUMP JUMPDEST SWAP2 POP PUSH1 0x8 PUSH1 0x20 DUP5 MLOAD SUB MUL DUP3 ADD SWAP2 POP POP JUMPDEST SWAP2 SWAP1 POP JUMP JUMPDEST PUSH1 0x0 DUP2 MLOAD MLOAD DUP3 MLOAD ADD PUSH1 0x2 DUP2 MLOAD MOD SWAP2 POP POP SWAP2 SWAP1 POP JUMP JUMPDEST PUSH1 0x0 DUP1 DUP3 EQ PUSH1 0x1 DUP2 EQ PUSH2 0x1AF7 JUMPI DUP3 PUSH1 0x1 DUP5 SUB SWAP4 POP PUSH1 0x2 DUP5 DIV DUP5 OR SWAP4 POP PUSH1 0x4 DUP5 DIV DUP5 OR SWAP4 POP PUSH1 0x10 DUP5 DIV DUP5 OR SWAP4 POP PUSH2 0x100 DUP5 DIV DUP5 OR SWAP4 POP PUSH3 0x10000 DUP5 DIV DUP5 OR SWAP4 POP PUSH5 0x100000000 DUP5 DIV DUP5 OR SWAP4 POP PUSH9 0x10000000000000000 DUP5 DIV DUP5 OR SWAP4 POP PUSH17 0x100000000000000000000000000000000 DUP5 DIV DUP5 OR SWAP4 POP PUSH1 0x1 DUP5 ADD SWAP4 POP PUSH1 0x40 MLOAD PUSH32 0xF8F9CBFAE6CC78FBEFE7CDC3A1793DFCF4F0E8BBD8CEC470B6A28A7A5A3E1EFD DUP2 MSTORE PUSH32 0xF5ECF1B3E9DEBC68E1D9CFABC5997135BFB7A7A3938B7B606B5B4B3F2F1F0FFE PUSH1 0x20 DUP3 ADD MSTORE PUSH32 0xF6E4ED9FF2D6B458EADCDF97BD91692DE2D4DA8FD2D0AC50C6AE9A8272523616 PUSH1 0x40 DUP3 ADD MSTORE PUSH32 0xC8C0B887B0A8A4489C948C7F847C6125746C645C544C444038302820181008FF PUSH1 0x60 DUP3 ADD MSTORE PUSH32 0xF7CAE577EEC2A03CF3BAD76FB589591DEBB2DD67E0AA9834BEA6925F6A4A2E0E PUSH1 0x80 DUP3 ADD MSTORE PUSH32 0xE39ED557DB96902CD38ED14FAD815115C786AF479B7E83247363534337271707 PUSH1 0xA0 DUP3 ADD MSTORE PUSH32 0xC976C13BB96E881CB166A933A55E490D9D56952B8D4E801485467D2362422606 PUSH1 0xC0 DUP3 ADD MSTORE PUSH32 0x753A6D1B65325D0C552A4D1345224105391A310B29122104190A110309020100 PUSH1 0xE0 DUP3 ADD MSTORE PUSH2 0x100 DUP2 ADD PUSH1 0x40 MSTORE PUSH31 0x818283848586878898A8B8C8D8E8F929395969799A9B9D9E9FAAEB6BEDEEFF PUSH32 0x100000000000000000000000000000000000000000000000000000000000000 DUP1 DUP3 DUP9 MUL DIV DUP2 DUP2 PUSH1 0xFF SUB DUP6 ADD MLOAD DIV SWAP7 POP PUSH32 0x8000000000000000000000000000000000000000000000000000000000000000 DUP6 GT PUSH2 0x100 MUL DUP8 ADD SWAP7 POP PUSH1 0x0 PUSH1 0x1 DUP7 SUB DUP7 AND SUB PUSH2 0x1AED JUMPI PUSH1 0x1 DUP8 ADD SWAP7 POP JUMPDEST POP POP POP POP POP PUSH2 0x1AFC JUMP JUMPDEST PUSH1 0x0 SWAP2 POP JUMPDEST POP SWAP2 SWAP1 POP JUMP JUMPDEST PUSH1 0x40 MLOAD DUP1 PUSH1 0x60 ADD PUSH1 0x40 MSTORE DUP1 PUSH1 0x60 DUP2 MSTORE PUSH1 0x20 ADD PUSH1 0x0 ISZERO ISZERO DUP2 MSTORE PUSH1 0x20 ADD PUSH1 0x0 DUP2 MSTORE POP SWAP1 JUMP JUMPDEST PUSH1 0x0 PUSH1 0x40 MLOAD SWAP1 POP SWAP1 JUMP JUMPDEST PUSH1 0x0 DUP1 REVERT JUMPDEST PUSH1 0x0 DUP1 REVERT JUMPDEST PUSH1 0x0 DUP1 REVERT JUMPDEST PUSH1 0x0 DUP1 REVERT JUMPDEST PUSH1 0x0 PUSH1 0x1F NOT PUSH1 0x1F DUP4 ADD AND SWAP1 POP SWAP2 SWAP1 POP JUMP JUMPDEST PUSH32 0x4E487B7100000000000000000000000000000000000000000000000000000000 PUSH1 0x0 MSTORE PUSH1 0x41 PUSH1 0x4 MSTORE PUSH1 0x24 PUSH1 0x0 REVERT JUMPDEST PUSH2 0x1B8C DUP3 PUSH2 0x1B43 JUMP JUMPDEST DUP2 ADD DUP2 DUP2 LT PUSH8 0xFFFFFFFFFFFFFFFF DUP3 GT OR ISZERO PUSH2 0x1BAB JUMPI PUSH2 0x1BAA PUSH2 0x1B54 JUMP JUMPDEST JUMPDEST DUP1 PUSH1 0x40 MSTORE POP POP POP JUMP JUMPDEST PUSH1 0x0 PUSH2 0x1BBE PUSH2 0x1B25 JUMP JUMPDEST SWAP1 POP PUSH2 0x1BCA DUP3 DUP3 PUSH2 0x1B83 JUMP JUMPDEST SWAP2 SWAP1 POP JUMP JUMPDEST PUSH1 0x0 PUSH8 0xFFFFFFFFFFFFFFFF DUP3 GT ISZERO PUSH2 0x1BEA JUMPI PUSH2 0x1BE9 PUSH2 0x1B54 JUMP JUMPDEST JUMPDEST PUSH2 0x1BF3 DUP3 PUSH2 0x1B43 JUMP JUMPDEST SWAP1 POP PUSH1 0x20 DUP2 ADD SWAP1 POP SWAP2 SWAP1 POP JUMP JUMPDEST DUP3 DUP2 DUP4 CALLDATACOPY PUSH1 0x0 DUP4 DUP4 ADD MSTORE POP POP POP JUMP JUMPDEST PUSH1 0x0 PUSH2 0x1C22 PUSH2 0x1C1D DUP5 PUSH2 0x1BCF JUMP JUMPDEST PUSH2 0x1BB4 JUMP JUMPDEST SWAP1 POP DUP3 DUP2 MSTORE PUSH1 0x20 DUP2 ADD DUP5 DUP5 DUP5 ADD GT ISZERO PUSH2 0x1C3E JUMPI PUSH2 0x1C3D PUSH2 0x1B3E JUMP JUMPDEST JUMPDEST PUSH2 0x1C49 DUP5 DUP3 DUP6 PUSH2 0x1C00 JUMP JUMPDEST POP SWAP4 SWAP3 POP POP POP JUMP JUMPDEST PUSH1 0x0 DUP3 PUSH1 0x1F DUP4 ADD SLT PUSH2 0x1C66 JUMPI PUSH2 0x1C65 PUSH2 0x1B39 JUMP JUMPDEST JUMPDEST DUP2 CALLDATALOAD PUSH2 0x1C76 DUP5 DUP3 PUSH1 0x20 DUP7 ADD PUSH2 0x1C0F JUMP JUMPDEST SWAP2 POP POP SWAP3 SWAP2 POP POP JUMP JUMPDEST PUSH1 0x0 PUSH8 0xFFFFFFFFFFFFFFFF DUP3 GT ISZERO PUSH2 0x1C9A JUMPI PUSH2 0x1C99 PUSH2 0x1B54 JUMP JUMPDEST JUMPDEST PUSH1 0x20 DUP3 MUL SWAP1 POP PUSH1 0x20 DUP2 ADD SWAP1 POP SWAP2 SWAP1 POP JUMP JUMPDEST PUSH1 0x0 DUP1 REVERT JUMPDEST PUSH1 0x0 PUSH8 0xFFFFFFFFFFFFFFFF DUP3 GT ISZERO PUSH2 0x1CCB JUMPI PUSH2 0x1CCA PUSH2 0x1B54 JUMP JUMPDEST JUMPDEST PUSH1 0x20 DUP3 MUL SWAP1 POP PUSH1 0x20 DUP2 ADD SWAP1 POP SWAP2 SWAP1 POP JUMP JUMPDEST PUSH1 0x0 PUSH2 0x1CEF PUSH2 0x1CEA DUP5 PUSH2 0x1CB0 JUMP JUMPDEST PUSH2 0x1BB4 JUMP JUMPDEST SWAP1 POP DUP1 DUP4 DUP3 MSTORE PUSH1 0x20 DUP3 ADD SWAP1 POP PUSH1 0x20 DUP5 MUL DUP4 ADD DUP6 DUP2 GT ISZERO PUSH2 0x1D12 JUMPI PUSH2 0x1D11 PUSH2 0x1CAB JUMP JUMPDEST JUMPDEST DUP4 JUMPDEST DUP2 DUP2 LT ISZERO PUSH2 0x1D59 JUMPI DUP1 CALLDATALOAD PUSH8 0xFFFFFFFFFFFFFFFF DUP2 GT ISZERO PUSH2 0x1D37 JUMPI PUSH2 0x1D36 PUSH2 0x1B39 JUMP JUMPDEST JUMPDEST DUP1 DUP7 ADD PUSH2 0x1D44 DUP10 DUP3 PUSH2 0x1C51 JUMP JUMPDEST DUP6 MSTORE PUSH1 0x20 DUP6 ADD SWAP5 POP POP POP PUSH1 0x20 DUP2 ADD SWAP1 POP PUSH2 0x1D14 JUMP JUMPDEST POP POP POP SWAP4 SWAP3 POP POP POP JUMP JUMPDEST PUSH1 0x0 DUP3 PUSH1 0x1F DUP4 ADD SLT PUSH2 0x1D78 JUMPI PUSH2 0x1D77 PUSH2 0x1B39 JUMP JUMPDEST JUMPDEST DUP2 CALLDATALOAD PUSH2 0x1D88 DUP5 DUP3 PUSH1 0x20 DUP7 ADD PUSH2 0x1CDC JUMP JUMPDEST SWAP2 POP POP SWAP3 SWAP2 POP POP JUMP JUMPDEST PUSH1 0x0 PUSH2 0x1DA4 PUSH2 0x1D9F DUP5 PUSH2 0x1C7F JUMP JUMPDEST PUSH2 0x1BB4 JUMP JUMPDEST SWAP1 POP DUP1 DUP4 DUP3 MSTORE PUSH1 0x20 DUP3 ADD SWAP1 POP PUSH1 0x20 DUP5 MUL DUP4 ADD DUP6 DUP2 GT ISZERO PUSH2 0x1DC7 JUMPI PUSH2 0x1DC6 PUSH2 0x1CAB JUMP JUMPDEST JUMPDEST DUP4 JUMPDEST DUP2 DUP2 LT ISZERO PUSH2 0x1E0E JUMPI DUP1 CALLDATALOAD PUSH8 0xFFFFFFFFFFFFFFFF DUP2 GT ISZERO PUSH2 0x1DEC JUMPI PUSH2 0x1DEB PUSH2 0x1B39 JUMP JUMPDEST JUMPDEST DUP1 DUP7 ADD PUSH2 0x1DF9 DUP10 DUP3 PUSH2 0x1D63 JUMP JUMPDEST DUP6 MSTORE PUSH1 0x20 DUP6 ADD SWAP5 POP POP POP PUSH1 0x20 DUP2 ADD SWAP1 POP PUSH2 0x1DC9 JUMP JUMPDEST POP POP POP SWAP4 SWAP3 POP POP POP JUMP JUMPDEST PUSH1 0x0 DUP3 PUSH1 0x1F DUP4 ADD SLT PUSH2 0x1E2D JUMPI PUSH2 0x1E2C PUSH2 0x1B39 JUMP JUMPDEST JUMPDEST DUP2 CALLDATALOAD PUSH2 0x1E3D DUP5 DUP3 PUSH1 0x20 DUP7 ADD PUSH2 0x1D91 JUMP JUMPDEST SWAP2 POP POP SWAP3 SWAP2 POP POP JUMP JUMPDEST PUSH1 0x0 DUP1 PUSH1 0x0 DUP1 PUSH1 0x0 DUP1 PUSH1 0xC0 DUP8 DUP10 SUB SLT ISZERO PUSH2 0x1E63 JUMPI PUSH2 0x1E62 PUSH2 0x1B2F JUMP JUMPDEST JUMPDEST PUSH1 0x0 DUP8 ADD CALLDATALOAD PUSH8 0xFFFFFFFFFFFFFFFF DUP2 GT ISZERO PUSH2 0x1E81 JUMPI PUSH2 0x1E80 PUSH2 0x1B34 JUMP JUMPDEST JUMPDEST PUSH2 0x1E8D DUP10 DUP3 DUP11 ADD PUSH2 0x1C51 JUMP JUMPDEST SWAP7 POP POP PUSH1 0x20 DUP8 ADD CALLDATALOAD PUSH8 0xFFFFFFFFFFFFFFFF DUP2 GT ISZERO PUSH2 0x1EAE JUMPI PUSH2 0x1EAD PUSH2 0x1B34 JUMP JUMPDEST JUMPDEST PUSH2 0x1EBA DUP10 DUP3 DUP11 ADD PUSH2 0x1E18 JUMP JUMPDEST SWAP6 POP POP PUSH1 0x40 DUP8 ADD CALLDATALOAD PUSH8 0xFFFFFFFFFFFFFFFF DUP2 GT ISZERO PUSH2 0x1EDB JUMPI PUSH2 0x1EDA PUSH2 0x1B34 JUMP JUMPDEST JUMPDEST PUSH2 0x1EE7 DUP10 DUP3 DUP11 ADD PUSH2 0x1D63 JUMP JUMPDEST SWAP5 POP POP PUSH1 0x60 DUP8 ADD CALLDATALOAD PUSH8 0xFFFFFFFFFFFFFFFF DUP2 GT ISZERO PUSH2 0x1F08 JUMPI PUSH2 0x1F07 PUSH2 0x1B34 JUMP JUMPDEST JUMPDEST PUSH2 0x1F14 DUP10 DUP3 DUP11 ADD PUSH2 0x1D63 JUMP JUMPDEST SWAP4 POP POP PUSH1 0x80 DUP8 ADD CALLDATALOAD PUSH8 0xFFFFFFFFFFFFFFFF DUP2 GT ISZERO PUSH2 0x1F35 JUMPI PUSH2 0x1F34 PUSH2 0x1B34 JUMP JUMPDEST JUMPDEST PUSH2 0x1F41 DUP10 DUP3 DUP11 ADD PUSH2 0x1C51 JUMP JUMPDEST SWAP3 POP POP PUSH1 0xA0 DUP8 ADD CALLDATALOAD PUSH8 0xFFFFFFFFFFFFFFFF DUP2 GT ISZERO PUSH2 0x1F62 JUMPI PUSH2 0x1F61 PUSH2 0x1B34 JUMP JUMPDEST JUMPDEST PUSH2 0x1F6E DUP10 DUP3 DUP11 ADD PUSH2 0x1C51 JUMP JUMPDEST SWAP2 POP POP SWAP3 SWAP6 POP SWAP3 SWAP6 POP SWAP3 SWAP6 JUMP JUMPDEST PUSH1 0x0 DUP2 ISZERO ISZERO SWAP1 POP SWAP2 SWAP1 POP JUMP JUMPDEST PUSH2 0x1F90 DUP2 PUSH2 0x1F7B JUMP JUMPDEST DUP3 MSTORE POP POP JUMP JUMPDEST PUSH1 0x0 PUSH1 0x20 DUP3 ADD SWAP1 POP PUSH2 0x1FAB PUSH1 0x0 DUP4 ADD DUP5 PUSH2 0x1F87 JUMP JUMPDEST SWAP3 SWAP2 POP POP JUMP JUMPDEST PUSH1 0x0 DUP1 PUSH1 0x0 PUSH1 0x60 DUP5 DUP7 SUB SLT ISZERO PUSH2 0x1FCA JUMPI PUSH2 0x1FC9 PUSH2 0x1B2F JUMP JUMPDEST JUMPDEST PUSH1 0x0 DUP5 ADD CALLDATALOAD PUSH8 0xFFFFFFFFFFFFFFFF DUP2 GT ISZERO PUSH2 0x1FE8 JUMPI PUSH2 0x1FE7 PUSH2 0x1B34 JUMP JUMPDEST JUMPDEST PUSH2 0x1FF4 DUP7 DUP3 DUP8 ADD PUSH2 0x1C51 JUMP JUMPDEST SWAP4 POP POP PUSH1 0x20 DUP5 ADD CALLDATALOAD PUSH8 0xFFFFFFFFFFFFFFFF DUP2 GT ISZERO PUSH2 0x2015 JUMPI PUSH2 0x2014 PUSH2 0x1B34 JUMP JUMPDEST JUMPDEST PUSH2 0x2021 DUP7 DUP3 DUP8 ADD PUSH2 0x1C51 JUMP JUMPDEST SWAP3 POP POP PUSH1 0x40 DUP5 ADD CALLDATALOAD PUSH8 0xFFFFFFFFFFFFFFFF DUP2 GT ISZERO PUSH2 0x2042 JUMPI PUSH2 0x2041 PUSH2 0x1B34 JUMP JUMPDEST JUMPDEST PUSH2 0x204E DUP7 DUP3 DUP8 ADD PUSH2 0x1C51 JUMP JUMPDEST SWAP2 POP POP SWAP3 POP SWAP3 POP SWAP3 JUMP JUMPDEST PUSH1 0x0 PUSH8 0xFFFFFFFFFFFFFFFF DUP3 GT ISZERO PUSH2 0x2073 JUMPI PUSH2 0x2072 PUSH2 0x1B54 JUMP JUMPDEST JUMPDEST PUSH2 0x207C DUP3 PUSH2 0x1B43 JUMP JUMPDEST SWAP1 POP PUSH1 0x20 DUP2 ADD SWAP1 POP SWAP2 SWAP1 POP JUMP JUMPDEST PUSH1 0x0 PUSH2 0x209C PUSH2 0x2097 DUP5 PUSH2 0x2058 JUMP JUMPDEST PUSH2 0x1BB4 JUMP JUMPDEST SWAP1 POP DUP3 DUP2 MSTORE PUSH1 0x20 DUP2 ADD DUP5 DUP5 DUP5 ADD GT ISZERO PUSH2 0x20B8 JUMPI PUSH2 0x20B7 PUSH2 0x1B3E JUMP JUMPDEST JUMPDEST PUSH2 0x20C3 DUP5 DUP3 DUP6 PUSH2 0x1C00 JUMP JUMPDEST POP SWAP4 SWAP3 POP POP POP JUMP JUMPDEST PUSH1 0x0 DUP3 PUSH1 0x1F DUP4 ADD SLT PUSH2 0x20E0 JUMPI PUSH2 0x20DF PUSH2 0x1B39 JUMP JUMPDEST JUMPDEST DUP2 CALLDATALOAD PUSH2 0x20F0 DUP5 DUP3 PUSH1 0x20 DUP7 ADD PUSH2 0x2089 JUMP JUMPDEST SWAP2 POP POP SWAP3 SWAP2 POP POP JUMP JUMPDEST PUSH1 0x0 DUP2 SWAP1 POP SWAP2 SWAP1 POP JUMP JUMPDEST PUSH2 0x210C DUP2 PUSH2 0x20F9 JUMP JUMPDEST DUP2 EQ PUSH2 0x2117 JUMPI PUSH1 0x0 DUP1 REVERT JUMPDEST POP JUMP JUMPDEST PUSH1 0x0 DUP2 CALLDATALOAD SWAP1 POP PUSH2 0x2129 DUP2 PUSH2 0x2103 JUMP JUMPDEST SWAP3 SWAP2 POP POP JUMP JUMPDEST PUSH1 0x0 PUSH20 0xFFFFFFFFFFFFFFFFFFFFFFFFFFFFFFFFFFFFFFFF DUP3 AND SWAP1 POP SWAP2 SWAP1 POP JUMP JUMPDEST PUSH1 0x0 PUSH2 0x215A DUP3 PUSH2 0x212F JUMP JUMPDEST SWAP1 POP SWAP2 SWAP1 POP JUMP JUMPDEST PUSH2 0x216A DUP2 PUSH2 0x214F JUMP JUMPDEST DUP2 EQ PUSH2 0x2175 JUMPI PUSH1 0x0 DUP1 REVERT JUMPDEST POP JUMP JUMPDEST PUSH1 0x0 DUP2 CALLDATALOAD SWAP1 POP PUSH2 0x2187 DUP2 PUSH2 0x2161 JUMP JUMPDEST SWAP3 SWAP2 POP POP JUMP JUMPDEST PUSH1 0x0 DUP1 PUSH1 0x0 PUSH1 0x60 DUP5 DUP7 SUB SLT ISZERO PUSH2 0x21A6 JUMPI PUSH2 0x21A5 PUSH2 0x1B2F JUMP JUMPDEST JUMPDEST PUSH1 0x0 DUP5 ADD CALLDATALOAD PUSH8 0xFFFFFFFFFFFFFFFF DUP2 GT ISZERO PUSH2 0x21C4 JUMPI PUSH2 0x21C3 PUSH2 0x1B34 JUMP JUMPDEST JUMPDEST PUSH2 0x21D0 DUP7 DUP3 DUP8 ADD PUSH2 0x20CB JUMP JUMPDEST SWAP4 POP POP PUSH1 0x20 PUSH2 0x21E1 DUP7 DUP3 DUP8 ADD PUSH2 0x211A JUMP JUMPDEST SWAP3 POP POP PUSH1 0x40 PUSH2 0x21F2 DUP7 DUP3 DUP8 ADD PUSH2 0x2178 JUMP JUMPDEST SWAP2 POP POP SWAP3 POP SWAP3 POP SWAP3 JUMP JUMPDEST PUSH1 0x0 DUP2 SWAP1 POP SWAP2 SWAP1 POP JUMP JUMPDEST PUSH2 0x220F DUP2 PUSH2 0x21FC JUMP JUMPDEST DUP3 MSTORE POP POP JUMP JUMPDEST PUSH1 0x0 PUSH1 0x20 DUP3 ADD SWAP1 POP PUSH2 0x222A PUSH1 0x0 DUP4 ADD DUP5 PUSH2 0x2206 JUMP JUMPDEST SWAP3 SWAP2 POP POP JUMP JUMPDEST PUSH1 0x0 DUP2 MLOAD SWAP1 POP SWAP2 SWAP1 POP JUMP JUMPDEST PUSH1 0x0 DUP3 DUP3 MSTORE PUSH1 0x20 DUP3 ADD SWAP1 POP SWAP3 SWAP2 POP POP JUMP JUMPDEST PUSH1 0x0 JUMPDEST DUP4 DUP2 LT ISZERO PUSH2 0x226A JUMPI DUP1 DUP3 ADD MLOAD DUP2 DUP5 ADD MSTORE PUSH1 0x20 DUP2 ADD SWAP1 POP PUSH2 0x224F JUMP JUMPDEST PUSH1 0x0 DUP5 DUP5 ADD MSTORE POP POP POP POP JUMP JUMPDEST PUSH1 0x0 PUSH2 0x2281 DUP3 PUSH2 0x2230 JUMP JUMPDEST PUSH2 0x228B DUP2 DUP6 PUSH2 0x223B JUMP JUMPDEST SWAP4 POP PUSH2 0x229B DUP2 DUP6 PUSH1 0x20 DUP7 ADD PUSH2 0x224C JUMP JUMPDEST PUSH2 0x22A4 DUP2 PUSH2 0x1B43 JUMP JUMPDEST DUP5 ADD SWAP2 POP POP SWAP3 SWAP2 POP POP JUMP JUMPDEST PUSH2 0x22B8 DUP2 PUSH2 0x1F7B JUMP JUMPDEST DUP3 MSTORE POP POP JUMP JUMPDEST PUSH2 0x22C7 DUP2 PUSH2 0x20F9 JUMP JUMPDEST DUP3 MSTORE POP POP JUMP JUMPDEST PUSH1 0x0 PUSH1 0x60 DUP4 ADD PUSH1 0x0 DUP4 ADD MLOAD DUP5 DUP3 SUB PUSH1 0x0 DUP7 ADD MSTORE PUSH2 0x22EA DUP3 DUP3 PUSH2 0x2276 JUMP JUMPDEST SWAP2 POP POP PUSH1 0x20 DUP4 ADD MLOAD PUSH2 0x22FF PUSH1 0x20 DUP7 ADD DUP3 PUSH2 0x22AF JUMP JUMPDEST POP PUSH1 0x40 DUP4 ADD MLOAD PUSH2 0x2312 PUSH1 0x40 DUP7 ADD DUP3 PUSH2 0x22BE JUMP JUMPDEST POP DUP1 SWAP2 POP POP SWAP3 SWAP2 POP POP JUMP JUMPDEST PUSH1 0x0 PUSH1 0x20 DUP3 ADD SWAP1 POP DUP2 DUP2 SUB PUSH1 0x0 DUP4 ADD MSTORE PUSH2 0x2337 DUP2 DUP5 PUSH2 0x22CD JUMP JUMPDEST SWAP1 POP SWAP3 SWAP2 POP POP JUMP JUMPDEST PUSH1 0x0 PUSH8 0xFFFFFFFFFFFFFFFF DUP3 GT ISZERO PUSH2 0x235A JUMPI PUSH2 0x2359 PUSH2 0x1B54 JUMP JUMPDEST JUMPDEST PUSH1 0x20 DUP3 MUL SWAP1 POP PUSH1 0x20 DUP2 ADD SWAP1 POP SWAP2 SWAP1 POP JUMP JUMPDEST PUSH1 0x0 DUP1 REVERT JUMPDEST PUSH1 0x0 DUP1 REVERT JUMPDEST PUSH2 0x237E DUP2 PUSH2 0x1F7B JUMP JUMPDEST DUP2 EQ PUSH2 0x2389 JUMPI PUSH1 0x0 DUP1 REVERT JUMPDEST POP JUMP JUMPDEST PUSH1 0x0 DUP2 CALLDATALOAD SWAP1 POP PUSH2 0x239B DUP2 PUSH2 0x2375 JUMP JUMPDEST SWAP3 SWAP2 POP POP JUMP JUMPDEST PUSH1 0x0 PUSH1 0x60 DUP3 DUP5 SUB SLT ISZERO PUSH2 0x23B7 JUMPI PUSH2 0x23B6 PUSH2 0x236B JUMP JUMPDEST JUMPDEST PUSH2 0x23C1 PUSH1 0x60 PUSH2 0x1BB4 JUMP JUMPDEST SWAP1 POP PUSH1 0x0 DUP3 ADD CALLDATALOAD PUSH8 0xFFFFFFFFFFFFFFFF DUP2 GT ISZERO PUSH2 0x23E1 JUMPI PUSH2 0x23E0 PUSH2 0x2370 JUMP JUMPDEST JUMPDEST PUSH2 0x23ED DUP5 DUP3 DUP6 ADD PUSH2 0x1C51 JUMP JUMPDEST PUSH1 0x0 DUP4 ADD MSTORE POP PUSH1 0x20 PUSH2 0x2401 DUP5 DUP3 DUP6 ADD PUSH2 0x238C JUMP JUMPDEST PUSH1 0x20 DUP4 ADD MSTORE POP PUSH1 0x40 PUSH2 0x2415 DUP5 DUP3 DUP6 ADD PUSH2 0x211A JUMP JUMPDEST PUSH1 0x40 DUP4 ADD MSTORE POP SWAP3 SWAP2 POP POP JUMP JUMPDEST PUSH1 0x0 PUSH2 0x2434 PUSH2 0x242F DUP5 PUSH2 0x233F JUMP JUMPDEST PUSH2 0x1BB4 JUMP JUMPDEST SWAP1 POP DUP1 DUP4 DUP3 MSTORE PUSH1 0x20 DUP3 ADD SWAP1 POP PUSH1 0x20 DUP5 MUL DUP4 ADD DUP6 DUP2 GT ISZERO PUSH2 0x2457 JUMPI PUSH2 0x2456 PUSH2 0x1CAB JUMP JUMPDEST JUMPDEST DUP4 JUMPDEST DUP2 DUP2 LT ISZERO PUSH2 0x249E JUMPI DUP1 CALLDATALOAD PUSH8 0xFFFFFFFFFFFFFFFF DUP2 GT ISZERO PUSH2 0x247C JUMPI PUSH2 0x247B PUSH2 0x1B39 JUMP JUMPDEST JUMPDEST DUP1 DUP7 ADD PUSH2 0x2489 DUP10 DUP3 PUSH2 0x23A1 JUMP JUMPDEST DUP6 MSTORE PUSH1 0x20 DUP6 ADD SWAP5 POP POP POP PUSH1 0x20 DUP2 ADD SWAP1 POP PUSH2 0x2459 JUMP JUMPDEST POP POP POP SWAP4 SWAP3 POP POP POP JUMP JUMPDEST PUSH1 0x0 DUP3 PUSH1 0x1F DUP4 ADD SLT PUSH2 0x24BD JUMPI PUSH2 0x24BC PUSH2 0x1B39 JUMP JUMPDEST JUMPDEST DUP2 CALLDATALOAD PUSH2 0x24CD DUP5 DUP3 PUSH1 0x20 DUP7 ADD PUSH2 0x2421 JUMP JUMPDEST SWAP2 POP POP SWAP3 SWAP2 POP POP JUMP JUMPDEST PUSH1 0x0 DUP1 PUSH1 0x0 PUSH1 0x60 DUP5 DUP7 SUB SLT ISZERO PUSH2 0x24EF JUMPI PUSH2 0x24EE PUSH2 0x1B2F JUMP JUMPDEST JUMPDEST PUSH1 0x0 DUP5 ADD CALLDATALOAD PUSH8 0xFFFFFFFFFFFFFFFF DUP2 GT ISZERO PUSH2 0x250D JUMPI PUSH2 0x250C PUSH2 0x1B34 JUMP JUMPDEST JUMPDEST PUSH2 0x2519 DUP7 DUP3 DUP8 ADD PUSH2 0x1E18 JUMP JUMPDEST SWAP4 POP POP PUSH1 0x20 DUP5 ADD CALLDATALOAD PUSH8 0xFFFFFFFFFFFFFFFF DUP2 GT ISZERO PUSH2 0x253A JUMPI PUSH2 0x2539 PUSH2 0x1B34 JUMP JUMPDEST JUMPDEST PUSH2 0x2546 DUP7 DUP3 DUP8 ADD PUSH2 0x24A8 JUMP JUMPDEST SWAP3 POP POP PUSH1 0x40 DUP5 ADD CALLDATALOAD PUSH8 0xFFFFFFFFFFFFFFFF DUP2 GT ISZERO PUSH2 0x2567 JUMPI PUSH2 0x2566 PUSH2 0x1B34 JUMP JUMPDEST JUMPDEST PUSH2 0x2573 DUP7 DUP3 DUP8 ADD PUSH2 0x23A1 JUMP JUMPDEST SWAP2 POP POP SWAP3 POP SWAP3 POP SWAP3 JUMP JUMPDEST PUSH1 0x0 PUSH1 0x20 DUP3 DUP5 SUB SLT ISZERO PUSH2 0x2593 JUMPI PUSH2 0x2592 PUSH2 0x1B2F JUMP JUMPDEST JUMPDEST PUSH1 0x0 DUP3 ADD CALLDATALOAD PUSH8 0xFFFFFFFFFFFFFFFF DUP2 GT ISZERO PUSH2 0x25B1 JUMPI PUSH2 0x25B0 PUSH2 0x1B34 JUMP JUMPDEST JUMPDEST PUSH2 0x25BD DUP5 DUP3 DUP6 ADD PUSH2 0x23A1 JUMP JUMPDEST SWAP2 POP POP SWAP3 SWAP2 POP POP JUMP JUMPDEST PUSH32 0x4E487B7100000000000000000000000000000000000000000000000000000000 PUSH1 0x0 MSTORE PUSH1 0x32 PUSH1 0x4 MSTORE PUSH1 0x24 PUSH1 0x0 REVERT JUMPDEST PUSH32 0x4E487B7100000000000000000000000000000000000000000000000000000000 PUSH1 0x0 MSTORE PUSH1 0x11 PUSH1 0x4 MSTORE PUSH1 0x24 PUSH1 0x0 REVERT JUMPDEST PUSH1 0x0 PUSH2 0x262F DUP3 PUSH2 0x20F9 JUMP JUMPDEST SWAP2 POP PUSH32 0xFFFFFFFFFFFFFFFFFFFFFFFFFFFFFFFFFFFFFFFFFFFFFFFFFFFFFFFFFFFFFFFF DUP3 SUB PUSH2 0x2661 JUMPI PUSH2 0x2660 PUSH2 0x25F5 JUMP JUMPDEST JUMPDEST PUSH1 0x1 DUP3 ADD SWAP1 POP SWAP2 SWAP1 POP JUMP JUMPDEST PUSH1 0x0 DUP2 MLOAD SWAP1 POP SWAP2 SWAP1 POP JUMP JUMPDEST PUSH1 0x0 DUP2 SWAP1 POP SWAP3 SWAP2 POP POP JUMP JUMPDEST PUSH1 0x0 PUSH2 0x268D DUP3 PUSH2 0x266C JUMP JUMPDEST PUSH2 0x2697 DUP2 DUP6 PUSH2 0x2677 JUMP JUMPDEST SWAP4 POP PUSH2 0x26A7 DUP2 DUP6 PUSH1 0x20 DUP7 ADD PUSH2 0x224C JUMP JUMPDEST DUP1 DUP5 ADD SWAP2 POP POP SWAP3 SWAP2 POP POP JUMP JUMPDEST PUSH1 0x0 DUP2 SWAP1 POP SWAP2 SWAP1 POP JUMP JUMPDEST PUSH2 0x26CE PUSH2 0x26C9 DUP3 PUSH2 0x20F9 JUMP JUMPDEST PUSH2 0x26B3 JUMP JUMPDEST DUP3 MSTORE POP POP JUMP JUMPDEST PUSH1 0x0 DUP2 PUSH1 0x60 SHL SWAP1 POP SWAP2 SWAP1 POP JUMP JUMPDEST PUSH1 0x0 PUSH2 0x26EC DUP3 PUSH2 0x26D4 JUMP JUMPDEST SWAP1 POP SWAP2 SWAP1 POP JUMP JUMPDEST PUSH1 0x0 PUSH2 0x26FE DUP3 PUSH2 0x26E1 JUMP JUMPDEST SWAP1 POP SWAP2 SWAP1 POP JUMP JUMPDEST PUSH2 0x2716 PUSH2 0x2711 DUP3 PUSH2 0x214F JUMP JUMPDEST PUSH2 0x26F3 JUMP JUMPDEST DUP3 MSTORE POP POP JUMP JUMPDEST PUSH1 0x0 PUSH2 0x2728 DUP3 DUP7 PUSH2 0x2682 JUMP JUMPDEST SWAP2 POP PUSH2 0x2734 DUP3 DUP6 PUSH2 0x26BD JUMP JUMPDEST PUSH1 0x20 DUP3 ADD SWAP2 POP PUSH2 0x2744 DUP3 DUP5 PUSH2 0x2705 JUMP JUMPDEST PUSH1 0x14 DUP3 ADD SWAP2 POP DUP2 SWAP1 POP SWAP5 SWAP4 POP POP POP POP JUMP JUMPDEST PUSH1 0x0 PUSH2 0x2760 DUP3 PUSH2 0x20F9 JUMP JUMPDEST SWAP2 POP PUSH2 0x276B DUP4 PUSH2 0x20F9 JUMP JUMPDEST SWAP3 POP DUP3 DUP3 SUB SWAP1 POP DUP2 DUP2 GT ISZERO PUSH2 0x2783 JUMPI PUSH2 0x2782 PUSH2 0x25F5 JUMP JUMPDEST JUMPDEST SWAP3 SWAP2 POP POP JUMP JUMPDEST PUSH1 0x0 DUP2 SWAP1 POP SWAP2 SWAP1 POP JUMP JUMPDEST PUSH1 0x0 PUSH2 0x279E DUP3 PUSH2 0x2789 JUMP JUMPDEST SWAP2 POP PUSH2 0x27A9 DUP4 PUSH2 0x2789 JUMP JUMPDEST SWAP3 POP DUP3 DUP3 MUL PUSH2 0x27B7 DUP2 PUSH2 0x2789 JUMP JUMPDEST SWAP2 POP PUSH32 0x8000000000000000000000000000000000000000000000000000000000000000 DUP5 EQ PUSH1 0x0 DUP5 SLT AND ISZERO PUSH2 0x27EF JUMPI PUSH2 0x27EE PUSH2 0x25F5 JUMP JUMPDEST JUMPDEST DUP3 DUP3 SDIV DUP5 EQ DUP4 ISZERO OR PUSH2 0x2804 JUMPI PUSH2 0x2803 PUSH2 0x25F5 JUMP JUMPDEST JUMPDEST POP SWAP3 SWAP2 POP POP JUMP JUMPDEST PUSH1 0x0 PUSH2 0x2816 DUP3 PUSH2 0x20F9 JUMP JUMPDEST SWAP2 POP PUSH2 0x2821 DUP4 PUSH2 0x20F9 JUMP JUMPDEST SWAP3 POP DUP3 DUP3 ADD SWAP1 POP DUP1 DUP3 GT ISZERO PUSH2 0x2839 JUMPI PUSH2 0x2838 PUSH2 0x25F5 JUMP JUMPDEST JUMPDEST SWAP3 SWAP2 POP POP JUMP INVALID PUSH12 0xD37CCE7436BA529478C54D39 PUSH10 0xF91F6B807DA4CB108D73 MSIZE CALLCODE LT SWAP15 0xB3 0x22 0xE5 0xDD 0xE9 SWAP13 0xC RETURNDATASIZE 0xD5 0xB7 OR EXTCODESIZE ADDMOD EXTCODECOPY CALLCODE SLOAD DUP5 0x2C PUSH12 0xD1257EDDD5308E3431C4CA97 0xE2 0xFB ADDRESS 0xA6 SSTORE 0xB0 SHL MSTORE 0xAE LOG1 DUP2 0xE1 MUL 0x5E SWAP14 RETURNDATASIZE 0xF7 ADDMOD 0x22 NUMBER 0xD4 0xE SLOAD DUP7 DUP9 RETURNDATASIZE DUP8 PUSH15 0x88C92BD0DAD6FEBBF48B2E9E225129 DUP1 STOP STOP STOP STOP STOP STOP STOP STOP STOP STOP STOP STOP STOP STOP STOP STOP STOP STOP STOP STOP STOP STOP STOP STOP STOP STOP STOP STOP STOP STOP STOP STOP STOP STOP STOP STOP STOP STOP STOP STOP STOP STOP STOP STOP STOP STOP STOP STOP STOP STOP STOP STOP STOP STOP STOP STOP STOP STOP STOP STOP STOP STOP STOP STOP STOP STOP STOP STOP STOP STOP STOP STOP STOP STOP STOP STOP STOP STOP STOP STOP STOP STOP STOP STOP STOP STOP STOP STOP ADD PUSH5 0x9420290310 ORIGIN PUSH2 0x2916 0x22 SLOAD GT SWAP6 STOP CHAINID PUSH19 0x18768306907220606612984880162663964403 0x22 KECCAK256 SLT PC DUP2 ADD 0x23 PUSH25 0x53583864381409872326875081600491180970229675744463 OR CALLVALUE PUSH25 0x29157791887698685274589761470323949923228218686854 SWAP7 SWAP1 STOP DUP5 DUP9 SSTORE SUB SWAP2 XOR DUP5 SELFBALANCE KECCAK256 CODESIZE PUSH20 0x278121199505516349412276518630550203049 JUMP SELFBALANCE SWAP6 SELFBALANCE DUP2 CALLDATACOPY PUSH8 0x8394182972409603 OR SWAP2 DUP9 PUSH10 0x58082876228581858471 SWAP4 PUSH2 0x3561 OR DUP2 0x26 DUP6 CALLDATALOAD CALLVALUE PUSH25 0x39509920886825013432451090005301571200896951888235 DUP1 BLOCKHASH CODESIZE SELFBALANCE CALLDATASIZE PUSH22 0x31249643805296638446891949726632723491917642 PUSH7 0x6013553049707 SWAP12 0xED PUSH20 0x3B48D69BDB03076CB17D9809072A5A765460BC72 SMOD 0x2D PUSH9 0x7DBA492AFE951D75B8 EQ CREATE2 PUSH2 0xF253 0xEE 0x5C 0xC0 RETURN 0xD7 SUB 0xB6 0xEA 0xB5 0xB5 0xDF PUSH4 0x5B03A543 PUSH29 0xA5C179309812F5B5C97650361C645BC99F806054DE21EB187BC0A704E 0xD3 DUP14 RETURNDATASIZE 0x4C 0x28 PUSH18 0xA117C19B6DA7E9A3D808481C46B22652D15B DUP10 SWAP11 0xD3 PUSH26 0x2DA5419E50EE38759560002388A26469706673582212200B71AD 0xE8 SWAP1 DUP3 DUP3 0xE7 DUP2 0x26 0xE9 0xC POP 0xCE GAS SWAP16 0xB2 PUSH30 0x21DC5B3CC193C33FB74441BA9BB464736F6C634300081100330000000000 "},"methodIdentifiers":{"checkEvery(bytes[][],(bytes,bool,uint256)[],(bytes,bool,uint256))":"b1e9dfaa","generator((bytes,bool,uint256))":"d5f679b1","hash(string,uint256,address)":"5dda416e","test()":"f8a8fd6d","test2()":"66e41cb7","verifyInvMod(bytes,bytes,bytes)":"41a3aa0c","verifyMembershipZKP(bytes,bytes[][],bytes[],bytes[],bytes,bytes)":"040068c9"}}}}}