{"contracts/RegisterUpkeeper.sol":{"RegisterUpkeeper":{"abi":[{"inputs":[{"internalType":"contract LinkTokenInterface","name":"_link","type":"address"},{"internalType":"address","name":"_registrar","type":"address"},{"internalType":"contract AutomationRegistryInterface","name":"_registry","type":"address"}],"stateMutability":"nonpayable","type":"constructor"},{"anonymous":false,"inputs":[{"indexed":false,"internalType":"uint256","name":"upkeepID","type":"uint256"}],"name":"UpkeeperID","type":"event"},{"inputs":[],"name":"i_link","outputs":[{"internalType":"contract LinkTokenInterface","name":"","type":"address"}],"stateMutability":"view","type":"function"},{"inputs":[],"name":"i_registry","outputs":[{"internalType":"contract AutomationRegistryInterface","name":"","type":"address"}],"stateMutability":"view","type":"function"},{"inputs":[{"internalType":"string","name":"name","type":"string"},{"internalType":"bytes","name":"encryptedEmail","type":"bytes"},{"internalType":"address","name":"upkeepContract","type":"address"},{"internalType":"uint32","name":"gasLimit","type":"uint32"},{"internalType":"address","name":"adminAddress","type":"address"},{"internalType":"bytes","name":"checkData","type":"bytes"},{"internalType":"uint96","name":"amount","type":"uint96"},{"internalType":"uint8","name":"source","type":"uint8"}],"name":"registerAndPredictID","outputs":[],"stateMutability":"nonpayable","type":"function"},{"inputs":[],"name":"registrar","outputs":[{"internalType":"address","name":"","type":"address"}],"stateMutability":"view","type":"function"},{"inputs":[{"internalType":"address","name":"_registrar","type":"address"}],"name":"set_registrar","outputs":[],"stateMutability":"nonpayable","type":"function"},{"inputs":[{"internalType":"contract AutomationRegistryInterface","name":"_registry","type":"address"}],"name":"set_registry","outputs":[],"stateMutability":"nonpayable","type":"function"}],"evm":{"bytecode":{"linkReferences":{},"object":"60a0604052633659d66660e01b600160146101000a81548163ffffffff021916908360e01c02179055503480156200003657600080fd5b50604051620014193803806200141983398181016040528101906200005c91906200020e565b8273ffffffffffffffffffffffffffffffffffffffff1660808173ffffffffffffffffffffffffffffffffffffffff1681525050816000806101000a81548173ffffffffffffffffffffffffffffffffffffffff021916908373ffffffffffffffffffffffffffffffffffffffff16021790555080600160006101000a81548173ffffffffffffffffffffffffffffffffffffffff021916908373ffffffffffffffffffffffffffffffffffffffff1602179055505050506200026a565b600080fd5b600073ffffffffffffffffffffffffffffffffffffffff82169050919050565b60006200014c826200011f565b9050919050565b600062000160826200013f565b9050919050565b620001728162000153565b81146200017e57600080fd5b50565b600081519050620001928162000167565b92915050565b620001a3816200013f565b8114620001af57600080fd5b50565b600081519050620001c38162000198565b92915050565b6000620001d6826200013f565b9050919050565b620001e881620001c9565b8114620001f457600080fd5b50565b6000815190506200020881620001dd565b92915050565b6000806000606084860312156200022a57620002296200011a565b5b60006200023a8682870162000181565b93505060206200024d86828701620001b2565b92505060406200026086828701620001f7565b9150509250925092565b6080516111936200028660003960006103f801526111936000f3fe608060405234801561001057600080fd5b50600436106100625760003560e01c806318a9fb8a146100675780632a663606146100835780632b20e397146100a15780637d253aff146100bf5780639df590cd146100dd578063f1e300bb146100f9575b600080fd5b610081600480360381019061007c9190610772565b610115565b005b61008b6103ac565b60405161009891906108e4565b60405180910390f35b6100a96103d2565b6040516100b6919061090e565b60405180910390f35b6100c76103f6565b6040516100d4919061094a565b60405180910390f35b6100f760048036038101906100f29190610965565b61041a565b005b610113600480360381019061010e91906109d0565b61045d565b005b6000806000600160009054906101000a900473ffffffffffffffffffffffffffffffffffffffff1673ffffffffffffffffffffffffffffffffffffffff16631865c57d6040518163ffffffff1660e01b8152600401600060405180830381865afa158015610187573d6000803e3d6000fd5b505050506040513d6000823e3d601f19601f820116820180604052508101906101b09190610d49565b9250925092506000836000015163ffffffff16905060008e8e8e8e8e8e8e8e8e8e306040516020016101ec9b9a99989796959493929190610ea4565b6040516020818303038152906040529050600160009054906101000a900473ffffffffffffffffffffffffffffffffffffffff1673ffffffffffffffffffffffffffffffffffffffff16631865c57d6040518163ffffffff1660e01b8152600401600060405180830381865afa15801561026a573d6000803e3d6000fd5b505050506040513d6000823e3d601f19601f820116820180604052508101906102939190610d49565b8095508196508297505050506000856000015163ffffffff1690506001836102bb9190610f79565b810361035f5760006001436102d09190610fad565b40600160009054906101000a900473ffffffffffffffffffffffffffffffffffffffff16856040516020016103079392919061108a565b6040516020818303038152906040528051906020012060001c90507faf453283675bd1a828b70281a16c15640424afc1bcf306fb3bbdf6728692e4908160405161035191906110d6565b60405180910390a15061039a565b6040517f08c379a00000000000000000000000000000000000000000000000000000000081526004016103919061113d565b60405180910390fd5b50505050505050505050505050505050565b600160009054906101000a900473ffffffffffffffffffffffffffffffffffffffff1681565b60008054906101000a900473ffffffffffffffffffffffffffffffffffffffff1681565b7f000000000000000000000000000000000000000000000000000000000000000081565b806000806101000a81548173ffffffffffffffffffffffffffffffffffffffff021916908373ffffffffffffffffffffffffffffffffffffffff16021790555050565b80600160006101000a81548173ffffffffffffffffffffffffffffffffffffffff021916908373ffffffffffffffffffffffffffffffffffffffff16021790555050565b6000604051905090565b600080fd5b600080fd5b600080fd5b600080fd5b6000601f19601f8301169050919050565b7f4e487b7100000000000000000000000000000000000000000000000000000000600052604160045260246000fd5b610508826104bf565b810181811067ffffffffffffffff82111715610527576105266104d0565b5b80604052505050565b600061053a6104a1565b905061054682826104ff565b919050565b600067ffffffffffffffff821115610566576105656104d0565b5b61056f826104bf565b9050602081019050919050565b82818337600083830152505050565b600061059e6105998461054b565b610530565b9050828152602081018484840111156105ba576105b96104ba565b5b6105c584828561057c565b509392505050565b600082601f8301126105e2576105e16104b5565b5b81356105f284826020860161058b565b91505092915050565b600080fd5b600080fd5b60008083601f84011261061b5761061a6104b5565b5b8235905067ffffffffffffffff811115610638576106376105fb565b5b60208301915083600182028301111561065457610653610600565b5b9250929050565b600073ffffffffffffffffffffffffffffffffffffffff82169050919050565b60006106868261065b565b9050919050565b6106968161067b565b81146106a157600080fd5b50565b6000813590506106b38161068d565b92915050565b600063ffffffff82169050919050565b6106d2816106b9565b81146106dd57600080fd5b50565b6000813590506106ef816106c9565b92915050565b60006bffffffffffffffffffffffff82169050919050565b610716816106f5565b811461072157600080fd5b50565b6000813590506107338161070d565b92915050565b600060ff82169050919050565b61074f81610739565b811461075a57600080fd5b50565b60008135905061076c81610746565b92915050565b6000806000806000806000806000806101008b8d031215610796576107956104ab565b5b60008b013567ffffffffffffffff8111156107b4576107b36104b0565b5b6107c08d828e016105cd565b9a505060208b013567ffffffffffffffff8111156107e1576107e06104b0565b5b6107ed8d828e01610605565b995099505060406108008d828e016106a4565b97505060606108118d828e016106e0565b96505060806108228d828e016106a4565b95505060a08b013567ffffffffffffffff811115610843576108426104b0565b5b61084f8d828e01610605565b945094505060c06108628d828e01610724565b92505060e06108738d828e0161075d565b9150509295989b9194979a5092959850565b6000819050919050565b60006108aa6108a56108a08461065b565b610885565b61065b565b9050919050565b60006108bc8261088f565b9050919050565b60006108ce826108b1565b9050919050565b6108de816108c3565b82525050565b60006020820190506108f960008301846108d5565b92915050565b6109088161067b565b82525050565b600060208201905061092360008301846108ff565b92915050565b6000610934826108b1565b9050919050565b61094481610929565b82525050565b600060208201905061095f600083018461093b565b92915050565b60006020828403121561097b5761097a6104ab565b5b6000610989848285016106a4565b91505092915050565b600061099d8261067b565b9050919050565b6109ad81610992565b81146109b857600080fd5b50565b6000813590506109ca816109a4565b92915050565b6000602082840312156109e6576109e56104ab565b5b60006109f4848285016109bb565b91505092915050565b600080fd5b600081519050610a11816106c9565b92915050565b600081519050610a268161070d565b92915050565b6000819050919050565b610a3f81610a2c565b8114610a4a57600080fd5b50565b600081519050610a5c81610a36565b92915050565b600060808284031215610a7857610a776109fd565b5b610a826080610530565b90506000610a9284828501610a02565b6000830152506020610aa684828501610a17565b6020830152506040610aba84828501610a4d565b6040830152506060610ace84828501610a4d565b60608301525092915050565b600062ffffff82169050919050565b610af281610ada565b8114610afd57600080fd5b50565b600081519050610b0f81610ae9565b92915050565b600061ffff82169050919050565b610b2c81610b15565b8114610b3757600080fd5b50565b600081519050610b4981610b23565b92915050565b600081519050610b5e8161068d565b92915050565b60006101808284031215610b7b57610b7a6109fd565b5b610b86610180610530565b90506000610b9684828501610a02565b6000830152506020610baa84828501610a02565b6020830152506040610bbe84828501610b00565b6040830152506060610bd284828501610a02565b6060830152506080610be684828501610b00565b60808301525060a0610bfa84828501610b3a565b60a08301525060c0610c0e84828501610a17565b60c08301525060e0610c2284828501610a02565b60e083015250610100610c3784828501610a4d565b61010083015250610120610c4d84828501610a4d565b61012083015250610140610c6384828501610b4f565b61014083015250610160610c7984828501610b4f565b6101608301525092915050565b600067ffffffffffffffff821115610ca157610ca06104d0565b5b602082029050602081019050919050565b6000610cc5610cc084610c86565b610530565b90508083825260208201905060208402830185811115610ce857610ce7610600565b5b835b81811015610d115780610cfd8882610b4f565b845260208401935050602081019050610cea565b5050509392505050565b600082601f830112610d3057610d2f6104b5565b5b8151610d40848260208601610cb2565b91505092915050565b60008060006102208486031215610d6357610d626104ab565b5b6000610d7186828701610a62565b9350506080610d8286828701610b64565b92505061020084015167ffffffffffffffff811115610da457610da36104b0565b5b610db086828701610d1b565b9150509250925092565b600081519050919050565b600082825260208201905092915050565b60005b83811015610df4578082015181840152602081019050610dd9565b60008484015250505050565b6000610e0b82610dba565b610e158185610dc5565b9350610e25818560208601610dd6565b610e2e816104bf565b840191505092915050565b600082825260208201905092915050565b6000610e568385610e39565b9350610e6383858461057c565b610e6c836104bf565b840190509392505050565b610e80816106b9565b82525050565b610e8f816106f5565b82525050565b610e9e81610739565b82525050565b6000610120820190508181036000830152610ebf818e610e00565b90508181036020830152610ed4818c8e610e4a565b9050610ee3604083018b6108ff565b610ef0606083018a610e77565b610efd60808301896108ff565b81810360a0830152610f10818789610e4a565b9050610f1f60c0830186610e86565b610f2c60e0830185610e95565b610f3a6101008301846108ff565b9c9b505050505050505050505050565b7f4e487b7100000000000000000000000000000000000000000000000000000000600052601160045260246000fd5b6000610f8482610a2c565b9150610f8f83610a2c565b9250828201905080821115610fa757610fa6610f4a565b5b92915050565b6000610fb882610a2c565b9150610fc383610a2c565b9250828203905081811115610fdb57610fda610f4a565b5b92915050565b6000819050919050565b6000819050919050565b61100661100182610fe1565b610feb565b82525050565b60008160601b9050919050565b60006110248261100c565b9050919050565b600061103682611019565b9050919050565b61104e6110498261067b565b61102b565b82525050565b60008160e01b9050919050565b600061106c82611054565b9050919050565b61108461107f826106b9565b611061565b82525050565b60006110968286610ff5565b6020820191506110a6828561103d565b6014820191506110b68284611073565b600482019150819050949350505050565b6110d081610a2c565b82525050565b60006020820190506110eb60008301846110c7565b92915050565b7f6175746f2d617070726f76652064697361626c65640000000000000000000000600082015250565b6000611127601583610dc5565b9150611132826110f1565b602082019050919050565b600060208201905081810360008301526111568161111a565b905091905056fea26469706673582212201d2514096f018d250368ddc5c0dad84c106c619701f081255957bf1436e59f3c64736f6c63430008110033","opcodes":"PUSH1 0xA0 PUSH1 0x40 MSTORE PUSH4 0x3659D666 PUSH1 0xE0 SHL PUSH1 0x1 PUSH1 0x14 PUSH2 0x100 EXP DUP2 SLOAD DUP2 PUSH4 0xFFFFFFFF MUL NOT AND SWAP1 DUP4 PUSH1 0xE0 SHR MUL OR SWAP1 SSTORE POP CALLVALUE DUP1 ISZERO PUSH3 0x36 JUMPI PUSH1 0x0 DUP1 REVERT JUMPDEST POP PUSH1 0x40 MLOAD PUSH3 0x1419 CODESIZE SUB DUP1 PUSH3 0x1419 DUP4 CODECOPY DUP2 DUP2 ADD PUSH1 0x40 MSTORE DUP2 ADD SWAP1 PUSH3 0x5C SWAP2 SWAP1 PUSH3 0x20E JUMP JUMPDEST DUP3 PUSH20 0xFFFFFFFFFFFFFFFFFFFFFFFFFFFFFFFFFFFFFFFF AND PUSH1 0x80 DUP2 PUSH20 0xFFFFFFFFFFFFFFFFFFFFFFFFFFFFFFFFFFFFFFFF AND DUP2 MSTORE POP POP DUP2 PUSH1 0x0 DUP1 PUSH2 0x100 EXP DUP2 SLOAD DUP2 PUSH20 0xFFFFFFFFFFFFFFFFFFFFFFFFFFFFFFFFFFFFFFFF MUL NOT AND SWAP1 DUP4 PUSH20 0xFFFFFFFFFFFFFFFFFFFFFFFFFFFFFFFFFFFFFFFF AND MUL OR SWAP1 SSTORE POP DUP1 PUSH1 0x1 PUSH1 0x0 PUSH2 0x100 EXP DUP2 SLOAD DUP2 PUSH20 0xFFFFFFFFFFFFFFFFFFFFFFFFFFFFFFFFFFFFFFFF MUL NOT AND SWAP1 DUP4 PUSH20 0xFFFFFFFFFFFFFFFFFFFFFFFFFFFFFFFFFFFFFFFF AND MUL OR SWAP1 SSTORE POP POP POP POP PUSH3 0x26A JUMP JUMPDEST PUSH1 0x0 DUP1 REVERT JUMPDEST PUSH1 0x0 PUSH20 0xFFFFFFFFFFFFFFFFFFFFFFFFFFFFFFFFFFFFFFFF DUP3 AND SWAP1 POP SWAP2 SWAP1 POP JUMP JUMPDEST PUSH1 0x0 PUSH3 0x14C DUP3 PUSH3 0x11F JUMP JUMPDEST SWAP1 POP SWAP2 SWAP1 POP JUMP JUMPDEST PUSH1 0x0 PUSH3 0x160 DUP3 PUSH3 0x13F JUMP JUMPDEST SWAP1 POP SWAP2 SWAP1 POP JUMP JUMPDEST PUSH3 0x172 DUP2 PUSH3 0x153 JUMP JUMPDEST DUP2 EQ PUSH3 0x17E JUMPI PUSH1 0x0 DUP1 REVERT JUMPDEST POP JUMP JUMPDEST PUSH1 0x0 DUP2 MLOAD SWAP1 POP PUSH3 0x192 DUP2 PUSH3 0x167 JUMP JUMPDEST SWAP3 SWAP2 POP POP JUMP JUMPDEST PUSH3 0x1A3 DUP2 PUSH3 0x13F JUMP JUMPDEST DUP2 EQ PUSH3 0x1AF JUMPI PUSH1 0x0 DUP1 REVERT JUMPDEST POP JUMP JUMPDEST PUSH1 0x0 DUP2 MLOAD SWAP1 POP PUSH3 0x1C3 DUP2 PUSH3 0x198 JUMP JUMPDEST SWAP3 SWAP2 POP POP JUMP JUMPDEST PUSH1 0x0 PUSH3 0x1D6 DUP3 PUSH3 0x13F JUMP JUMPDEST SWAP1 POP SWAP2 SWAP1 POP JUMP JUMPDEST PUSH3 0x1E8 DUP2 PUSH3 0x1C9 JUMP JUMPDEST DUP2 EQ PUSH3 0x1F4 JUMPI PUSH1 0x0 DUP1 REVERT JUMPDEST POP JUMP JUMPDEST PUSH1 0x0 DUP2 MLOAD SWAP1 POP PUSH3 0x208 DUP2 PUSH3 0x1DD JUMP JUMPDEST SWAP3 SWAP2 POP POP JUMP JUMPDEST PUSH1 0x0 DUP1 PUSH1 0x0 PUSH1 0x60 DUP5 DUP7 SUB SLT ISZERO PUSH3 0x22A JUMPI PUSH3 0x229 PUSH3 0x11A JUMP JUMPDEST JUMPDEST PUSH1 0x0 PUSH3 0x23A DUP7 DUP3 DUP8 ADD PUSH3 0x181 JUMP JUMPDEST SWAP4 POP POP PUSH1 0x20 PUSH3 0x24D DUP7 DUP3 DUP8 ADD PUSH3 0x1B2 JUMP JUMPDEST SWAP3 POP POP PUSH1 0x40 PUSH3 0x260 DUP7 DUP3 DUP8 ADD PUSH3 0x1F7 JUMP JUMPDEST SWAP2 POP POP SWAP3 POP SWAP3 POP SWAP3 JUMP JUMPDEST PUSH1 0x80 MLOAD PUSH2 0x1193 PUSH3 0x286 PUSH1 0x0 CODECOPY PUSH1 0x0 PUSH2 0x3F8 ADD MSTORE PUSH2 0x1193 PUSH1 0x0 RETURN INVALID PUSH1 0x80 PUSH1 0x40 MSTORE CALLVALUE DUP1 ISZERO PUSH2 0x10 JUMPI PUSH1 0x0 DUP1 REVERT JUMPDEST POP PUSH1 0x4 CALLDATASIZE LT PUSH2 0x62 JUMPI PUSH1 0x0 CALLDATALOAD PUSH1 0xE0 SHR DUP1 PUSH4 0x18A9FB8A EQ PUSH2 0x67 JUMPI DUP1 PUSH4 0x2A663606 EQ PUSH2 0x83 JUMPI DUP1 PUSH4 0x2B20E397 EQ PUSH2 0xA1 JUMPI DUP1 PUSH4 0x7D253AFF EQ PUSH2 0xBF JUMPI DUP1 PUSH4 0x9DF590CD EQ PUSH2 0xDD JUMPI DUP1 PUSH4 0xF1E300BB EQ PUSH2 0xF9 JUMPI JUMPDEST PUSH1 0x0 DUP1 REVERT JUMPDEST PUSH2 0x81 PUSH1 0x4 DUP1 CALLDATASIZE SUB DUP2 ADD SWAP1 PUSH2 0x7C SWAP2 SWAP1 PUSH2 0x772 JUMP JUMPDEST PUSH2 0x115 JUMP JUMPDEST STOP JUMPDEST PUSH2 0x8B PUSH2 0x3AC JUMP JUMPDEST PUSH1 0x40 MLOAD PUSH2 0x98 SWAP2 SWAP1 PUSH2 0x8E4 JUMP JUMPDEST PUSH1 0x40 MLOAD DUP1 SWAP2 SUB SWAP1 RETURN JUMPDEST PUSH2 0xA9 PUSH2 0x3D2 JUMP JUMPDEST PUSH1 0x40 MLOAD PUSH2 0xB6 SWAP2 SWAP1 PUSH2 0x90E JUMP JUMPDEST PUSH1 0x40 MLOAD DUP1 SWAP2 SUB SWAP1 RETURN JUMPDEST PUSH2 0xC7 PUSH2 0x3F6 JUMP JUMPDEST PUSH1 0x40 MLOAD PUSH2 0xD4 SWAP2 SWAP1 PUSH2 0x94A JUMP JUMPDEST PUSH1 0x40 MLOAD DUP1 SWAP2 SUB SWAP1 RETURN JUMPDEST PUSH2 0xF7 PUSH1 0x4 DUP1 CALLDATASIZE SUB DUP2 ADD SWAP1 PUSH2 0xF2 SWAP2 SWAP1 PUSH2 0x965 JUMP JUMPDEST PUSH2 0x41A JUMP JUMPDEST STOP JUMPDEST PUSH2 0x113 PUSH1 0x4 DUP1 CALLDATASIZE SUB DUP2 ADD SWAP1 PUSH2 0x10E SWAP2 SWAP1 PUSH2 0x9D0 JUMP JUMPDEST PUSH2 0x45D JUMP JUMPDEST STOP JUMPDEST PUSH1 0x0 DUP1 PUSH1 0x0 PUSH1 0x1 PUSH1 0x0 SWAP1 SLOAD SWAP1 PUSH2 0x100 EXP SWAP1 DIV PUSH20 0xFFFFFFFFFFFFFFFFFFFFFFFFFFFFFFFFFFFFFFFF AND PUSH20 0xFFFFFFFFFFFFFFFFFFFFFFFFFFFFFFFFFFFFFFFF AND PUSH4 0x1865C57D PUSH1 0x40 MLOAD DUP2 PUSH4 0xFFFFFFFF AND PUSH1 0xE0 SHL DUP2 MSTORE PUSH1 0x4 ADD PUSH1 0x0 PUSH1 0x40 MLOAD DUP1 DUP4 SUB DUP2 DUP7 GAS STATICCALL ISZERO DUP1 ISZERO PUSH2 0x187 JUMPI RETURNDATASIZE PUSH1 0x0 DUP1 RETURNDATACOPY RETURNDATASIZE PUSH1 0x0 REVERT JUMPDEST POP POP POP POP PUSH1 0x40 MLOAD RETURNDATASIZE PUSH1 0x0 DUP3 RETURNDATACOPY RETURNDATASIZE PUSH1 0x1F NOT PUSH1 0x1F DUP3 ADD AND DUP3 ADD DUP1 PUSH1 0x40 MSTORE POP DUP2 ADD SWAP1 PUSH2 0x1B0 SWAP2 SWAP1 PUSH2 0xD49 JUMP JUMPDEST SWAP3 POP SWAP3 POP SWAP3 POP PUSH1 0x0 DUP4 PUSH1 0x0 ADD MLOAD PUSH4 0xFFFFFFFF AND SWAP1 POP PUSH1 0x0 DUP15 DUP15 DUP15 DUP15 DUP15 DUP15 DUP15 DUP15 DUP15 DUP15 ADDRESS PUSH1 0x40 MLOAD PUSH1 0x20 ADD PUSH2 0x1EC SWAP12 SWAP11 SWAP10 SWAP9 SWAP8 SWAP7 SWAP6 SWAP5 SWAP4 SWAP3 SWAP2 SWAP1 PUSH2 0xEA4 JUMP JUMPDEST PUSH1 0x40 MLOAD PUSH1 0x20 DUP2 DUP4 SUB SUB DUP2 MSTORE SWAP1 PUSH1 0x40 MSTORE SWAP1 POP PUSH1 0x1 PUSH1 0x0 SWAP1 SLOAD SWAP1 PUSH2 0x100 EXP SWAP1 DIV PUSH20 0xFFFFFFFFFFFFFFFFFFFFFFFFFFFFFFFFFFFFFFFF AND PUSH20 0xFFFFFFFFFFFFFFFFFFFFFFFFFFFFFFFFFFFFFFFF AND PUSH4 0x1865C57D PUSH1 0x40 MLOAD DUP2 PUSH4 0xFFFFFFFF AND PUSH1 0xE0 SHL DUP2 MSTORE PUSH1 0x4 ADD PUSH1 0x0 PUSH1 0x40 MLOAD DUP1 DUP4 SUB DUP2 DUP7 GAS STATICCALL ISZERO DUP1 ISZERO PUSH2 0x26A JUMPI RETURNDATASIZE PUSH1 0x0 DUP1 RETURNDATACOPY RETURNDATASIZE PUSH1 0x0 REVERT JUMPDEST POP POP POP POP PUSH1 0x40 MLOAD RETURNDATASIZE PUSH1 0x0 DUP3 RETURNDATACOPY RETURNDATASIZE PUSH1 0x1F NOT PUSH1 0x1F DUP3 ADD AND DUP3 ADD DUP1 PUSH1 0x40 MSTORE POP DUP2 ADD SWAP1 PUSH2 0x293 SWAP2 SWAP1 PUSH2 0xD49 JUMP JUMPDEST DUP1 SWAP6 POP DUP2 SWAP7 POP DUP3 SWAP8 POP POP POP POP PUSH1 0x0 DUP6 PUSH1 0x0 ADD MLOAD PUSH4 0xFFFFFFFF AND SWAP1 POP PUSH1 0x1 DUP4 PUSH2 0x2BB SWAP2 SWAP1 PUSH2 0xF79 JUMP JUMPDEST DUP2 SUB PUSH2 0x35F JUMPI PUSH1 0x0 PUSH1 0x1 NUMBER PUSH2 0x2D0 SWAP2 SWAP1 PUSH2 0xFAD JUMP JUMPDEST BLOCKHASH PUSH1 0x1 PUSH1 0x0 SWAP1 SLOAD SWAP1 PUSH2 0x100 EXP SWAP1 DIV PUSH20 0xFFFFFFFFFFFFFFFFFFFFFFFFFFFFFFFFFFFFFFFF AND DUP6 PUSH1 0x40 MLOAD PUSH1 0x20 ADD PUSH2 0x307 SWAP4 SWAP3 SWAP2 SWAP1 PUSH2 0x108A JUMP JUMPDEST PUSH1 0x40 MLOAD PUSH1 0x20 DUP2 DUP4 SUB SUB DUP2 MSTORE SWAP1 PUSH1 0x40 MSTORE DUP1 MLOAD SWAP1 PUSH1 0x20 ADD KECCAK256 PUSH1 0x0 SHR SWAP1 POP PUSH32 0xAF453283675BD1A828B70281A16C15640424AFC1BCF306FB3BBDF6728692E490 DUP2 PUSH1 0x40 MLOAD PUSH2 0x351 SWAP2 SWAP1 PUSH2 0x10D6 JUMP JUMPDEST PUSH1 0x40 MLOAD DUP1 SWAP2 SUB SWAP1 LOG1 POP PUSH2 0x39A JUMP JUMPDEST PUSH1 0x40 MLOAD PUSH32 0x8C379A000000000000000000000000000000000000000000000000000000000 DUP2 MSTORE PUSH1 0x4 ADD PUSH2 0x391 SWAP1 PUSH2 0x113D JUMP JUMPDEST PUSH1 0x40 MLOAD DUP1 SWAP2 SUB SWAP1 REVERT JUMPDEST POP POP POP POP POP POP POP POP POP POP POP POP POP POP POP POP JUMP JUMPDEST PUSH1 0x1 PUSH1 0x0 SWAP1 SLOAD SWAP1 PUSH2 0x100 EXP SWAP1 DIV PUSH20 0xFFFFFFFFFFFFFFFFFFFFFFFFFFFFFFFFFFFFFFFF AND DUP2 JUMP JUMPDEST PUSH1 0x0 DUP1 SLOAD SWAP1 PUSH2 0x100 EXP SWAP1 DIV PUSH20 0xFFFFFFFFFFFFFFFFFFFFFFFFFFFFFFFFFFFFFFFF AND DUP2 JUMP JUMPDEST PUSH32 0x0 DUP2 JUMP JUMPDEST DUP1 PUSH1 0x0 DUP1 PUSH2 0x100 EXP DUP2 SLOAD DUP2 PUSH20 0xFFFFFFFFFFFFFFFFFFFFFFFFFFFFFFFFFFFFFFFF MUL NOT AND SWAP1 DUP4 PUSH20 0xFFFFFFFFFFFFFFFFFFFFFFFFFFFFFFFFFFFFFFFF AND MUL OR SWAP1 SSTORE POP POP JUMP JUMPDEST DUP1 PUSH1 0x1 PUSH1 0x0 PUSH2 0x100 EXP DUP2 SLOAD DUP2 PUSH20 0xFFFFFFFFFFFFFFFFFFFFFFFFFFFFFFFFFFFFFFFF MUL NOT AND SWAP1 DUP4 PUSH20 0xFFFFFFFFFFFFFFFFFFFFFFFFFFFFFFFFFFFFFFFF AND MUL OR SWAP1 SSTORE POP POP JUMP JUMPDEST PUSH1 0x0 PUSH1 0x40 MLOAD SWAP1 POP SWAP1 JUMP JUMPDEST PUSH1 0x0 DUP1 REVERT JUMPDEST PUSH1 0x0 DUP1 REVERT JUMPDEST PUSH1 0x0 DUP1 REVERT JUMPDEST PUSH1 0x0 DUP1 REVERT JUMPDEST PUSH1 0x0 PUSH1 0x1F NOT PUSH1 0x1F DUP4 ADD AND SWAP1 POP SWAP2 SWAP1 POP JUMP JUMPDEST PUSH32 0x4E487B7100000000000000000000000000000000000000000000000000000000 PUSH1 0x0 MSTORE PUSH1 0x41 PUSH1 0x4 MSTORE PUSH1 0x24 PUSH1 0x0 REVERT JUMPDEST PUSH2 0x508 DUP3 PUSH2 0x4BF JUMP JUMPDEST DUP2 ADD DUP2 DUP2 LT PUSH8 0xFFFFFFFFFFFFFFFF DUP3 GT OR ISZERO PUSH2 0x527 JUMPI PUSH2 0x526 PUSH2 0x4D0 JUMP JUMPDEST JUMPDEST DUP1 PUSH1 0x40 MSTORE POP POP POP JUMP JUMPDEST PUSH1 0x0 PUSH2 0x53A PUSH2 0x4A1 JUMP JUMPDEST SWAP1 POP PUSH2 0x546 DUP3 DUP3 PUSH2 0x4FF JUMP JUMPDEST SWAP2 SWAP1 POP JUMP JUMPDEST PUSH1 0x0 PUSH8 0xFFFFFFFFFFFFFFFF DUP3 GT ISZERO PUSH2 0x566 JUMPI PUSH2 0x565 PUSH2 0x4D0 JUMP JUMPDEST JUMPDEST PUSH2 0x56F DUP3 PUSH2 0x4BF JUMP JUMPDEST SWAP1 POP PUSH1 0x20 DUP2 ADD SWAP1 POP SWAP2 SWAP1 POP JUMP JUMPDEST DUP3 DUP2 DUP4 CALLDATACOPY PUSH1 0x0 DUP4 DUP4 ADD MSTORE POP POP POP JUMP JUMPDEST PUSH1 0x0 PUSH2 0x59E PUSH2 0x599 DUP5 PUSH2 0x54B JUMP JUMPDEST PUSH2 0x530 JUMP JUMPDEST SWAP1 POP DUP3 DUP2 MSTORE PUSH1 0x20 DUP2 ADD DUP5 DUP5 DUP5 ADD GT ISZERO PUSH2 0x5BA JUMPI PUSH2 0x5B9 PUSH2 0x4BA JUMP JUMPDEST JUMPDEST PUSH2 0x5C5 DUP5 DUP3 DUP6 PUSH2 0x57C JUMP JUMPDEST POP SWAP4 SWAP3 POP POP POP JUMP JUMPDEST PUSH1 0x0 DUP3 PUSH1 0x1F DUP4 ADD SLT PUSH2 0x5E2 JUMPI PUSH2 0x5E1 PUSH2 0x4B5 JUMP JUMPDEST JUMPDEST DUP2 CALLDATALOAD PUSH2 0x5F2 DUP5 DUP3 PUSH1 0x20 DUP7 ADD PUSH2 0x58B JUMP JUMPDEST SWAP2 POP POP SWAP3 SWAP2 POP POP JUMP JUMPDEST PUSH1 0x0 DUP1 REVERT JUMPDEST PUSH1 0x0 DUP1 REVERT JUMPDEST PUSH1 0x0 DUP1 DUP4 PUSH1 0x1F DUP5 ADD SLT PUSH2 0x61B JUMPI PUSH2 0x61A PUSH2 0x4B5 JUMP JUMPDEST JUMPDEST DUP3 CALLDATALOAD SWAP1 POP PUSH8 0xFFFFFFFFFFFFFFFF DUP2 GT ISZERO PUSH2 0x638 JUMPI PUSH2 0x637 PUSH2 0x5FB JUMP JUMPDEST JUMPDEST PUSH1 0x20 DUP4 ADD SWAP2 POP DUP4 PUSH1 0x1 DUP3 MUL DUP4 ADD GT ISZERO PUSH2 0x654 JUMPI PUSH2 0x653 PUSH2 0x600 JUMP JUMPDEST JUMPDEST SWAP3 POP SWAP3 SWAP1 POP JUMP JUMPDEST PUSH1 0x0 PUSH20 0xFFFFFFFFFFFFFFFFFFFFFFFFFFFFFFFFFFFFFFFF DUP3 AND SWAP1 POP SWAP2 SWAP1 POP JUMP JUMPDEST PUSH1 0x0 PUSH2 0x686 DUP3 PUSH2 0x65B JUMP JUMPDEST SWAP1 POP SWAP2 SWAP1 POP JUMP JUMPDEST PUSH2 0x696 DUP2 PUSH2 0x67B JUMP JUMPDEST DUP2 EQ PUSH2 0x6A1 JUMPI PUSH1 0x0 DUP1 REVERT JUMPDEST POP JUMP JUMPDEST PUSH1 0x0 DUP2 CALLDATALOAD SWAP1 POP PUSH2 0x6B3 DUP2 PUSH2 0x68D JUMP JUMPDEST SWAP3 SWAP2 POP POP JUMP JUMPDEST PUSH1 0x0 PUSH4 0xFFFFFFFF DUP3 AND SWAP1 POP SWAP2 SWAP1 POP JUMP JUMPDEST PUSH2 0x6D2 DUP2 PUSH2 0x6B9 JUMP JUMPDEST DUP2 EQ PUSH2 0x6DD JUMPI PUSH1 0x0 DUP1 REVERT JUMPDEST POP JUMP JUMPDEST PUSH1 0x0 DUP2 CALLDATALOAD SWAP1 POP PUSH2 0x6EF DUP2 PUSH2 0x6C9 JUMP JUMPDEST SWAP3 SWAP2 POP POP JUMP JUMPDEST PUSH1 0x0 PUSH12 0xFFFFFFFFFFFFFFFFFFFFFFFF DUP3 AND SWAP1 POP SWAP2 SWAP1 POP JUMP JUMPDEST PUSH2 0x716 DUP2 PUSH2 0x6F5 JUMP JUMPDEST DUP2 EQ PUSH2 0x721 JUMPI PUSH1 0x0 DUP1 REVERT JUMPDEST POP JUMP JUMPDEST PUSH1 0x0 DUP2 CALLDATALOAD SWAP1 POP PUSH2 0x733 DUP2 PUSH2 0x70D JUMP JUMPDEST SWAP3 SWAP2 POP POP JUMP JUMPDEST PUSH1 0x0 PUSH1 0xFF DUP3 AND SWAP1 POP SWAP2 SWAP1 POP JUMP JUMPDEST PUSH2 0x74F DUP2 PUSH2 0x739 JUMP JUMPDEST DUP2 EQ PUSH2 0x75A JUMPI PUSH1 0x0 DUP1 REVERT JUMPDEST POP JUMP JUMPDEST PUSH1 0x0 DUP2 CALLDATALOAD SWAP1 POP PUSH2 0x76C DUP2 PUSH2 0x746 JUMP JUMPDEST SWAP3 SWAP2 POP POP JUMP JUMPDEST PUSH1 0x0 DUP1 PUSH1 0x0 DUP1 PUSH1 0x0 DUP1 PUSH1 0x0 DUP1 PUSH1 0x0 DUP1 PUSH2 0x100 DUP12 DUP14 SUB SLT ISZERO PUSH2 0x796 JUMPI PUSH2 0x795 PUSH2 0x4AB JUMP JUMPDEST JUMPDEST PUSH1 0x0 DUP12 ADD CALLDATALOAD PUSH8 0xFFFFFFFFFFFFFFFF DUP2 GT ISZERO PUSH2 0x7B4 JUMPI PUSH2 0x7B3 PUSH2 0x4B0 JUMP JUMPDEST JUMPDEST PUSH2 0x7C0 DUP14 DUP3 DUP15 ADD PUSH2 0x5CD JUMP JUMPDEST SWAP11 POP POP PUSH1 0x20 DUP12 ADD CALLDATALOAD PUSH8 0xFFFFFFFFFFFFFFFF DUP2 GT ISZERO PUSH2 0x7E1 JUMPI PUSH2 0x7E0 PUSH2 0x4B0 JUMP JUMPDEST JUMPDEST PUSH2 0x7ED DUP14 DUP3 DUP15 ADD PUSH2 0x605 JUMP JUMPDEST SWAP10 POP SWAP10 POP POP PUSH1 0x40 PUSH2 0x800 DUP14 DUP3 DUP15 ADD PUSH2 0x6A4 JUMP JUMPDEST SWAP8 POP POP PUSH1 0x60 PUSH2 0x811 DUP14 DUP3 DUP15 ADD PUSH2 0x6E0 JUMP JUMPDEST SWAP7 POP POP PUSH1 0x80 PUSH2 0x822 DUP14 DUP3 DUP15 ADD PUSH2 0x6A4 JUMP JUMPDEST SWAP6 POP POP PUSH1 0xA0 DUP12 ADD CALLDATALOAD PUSH8 0xFFFFFFFFFFFFFFFF DUP2 GT ISZERO PUSH2 0x843 JUMPI PUSH2 0x842 PUSH2 0x4B0 JUMP JUMPDEST JUMPDEST PUSH2 0x84F DUP14 DUP3 DUP15 ADD PUSH2 0x605 JUMP JUMPDEST SWAP5 POP SWAP5 POP POP PUSH1 0xC0 PUSH2 0x862 DUP14 DUP3 DUP15 ADD PUSH2 0x724 JUMP JUMPDEST SWAP3 POP POP PUSH1 0xE0 PUSH2 0x873 DUP14 DUP3 DUP15 ADD PUSH2 0x75D JUMP JUMPDEST SWAP2 POP POP SWAP3 SWAP6 SWAP9 SWAP12 SWAP2 SWAP5 SWAP8 SWAP11 POP SWAP3 SWAP6 SWAP9 POP JUMP JUMPDEST PUSH1 0x0 DUP2 SWAP1 POP SWAP2 SWAP1 POP JUMP JUMPDEST PUSH1 0x0 PUSH2 0x8AA PUSH2 0x8A5 PUSH2 0x8A0 DUP5 PUSH2 0x65B JUMP JUMPDEST PUSH2 0x885 JUMP JUMPDEST PUSH2 0x65B JUMP JUMPDEST SWAP1 POP SWAP2 SWAP1 POP JUMP JUMPDEST PUSH1 0x0 PUSH2 0x8BC DUP3 PUSH2 0x88F JUMP JUMPDEST SWAP1 POP SWAP2 SWAP1 POP JUMP JUMPDEST PUSH1 0x0 PUSH2 0x8CE DUP3 PUSH2 0x8B1 JUMP JUMPDEST SWAP1 POP SWAP2 SWAP1 POP JUMP JUMPDEST PUSH2 0x8DE DUP2 PUSH2 0x8C3 JUMP JUMPDEST DUP3 MSTORE POP POP JUMP JUMPDEST PUSH1 0x0 PUSH1 0x20 DUP3 ADD SWAP1 POP PUSH2 0x8F9 PUSH1 0x0 DUP4 ADD DUP5 PUSH2 0x8D5 JUMP JUMPDEST SWAP3 SWAP2 POP POP JUMP JUMPDEST PUSH2 0x908 DUP2 PUSH2 0x67B JUMP JUMPDEST DUP3 MSTORE POP POP JUMP JUMPDEST PUSH1 0x0 PUSH1 0x20 DUP3 ADD SWAP1 POP PUSH2 0x923 PUSH1 0x0 DUP4 ADD DUP5 PUSH2 0x8FF JUMP JUMPDEST SWAP3 SWAP2 POP POP JUMP JUMPDEST PUSH1 0x0 PUSH2 0x934 DUP3 PUSH2 0x8B1 JUMP JUMPDEST SWAP1 POP SWAP2 SWAP1 POP JUMP JUMPDEST PUSH2 0x944 DUP2 PUSH2 0x929 JUMP JUMPDEST DUP3 MSTORE POP POP JUMP JUMPDEST PUSH1 0x0 PUSH1 0x20 DUP3 ADD SWAP1 POP PUSH2 0x95F PUSH1 0x0 DUP4 ADD DUP5 PUSH2 0x93B JUMP JUMPDEST SWAP3 SWAP2 POP POP JUMP JUMPDEST PUSH1 0x0 PUSH1 0x20 DUP3 DUP5 SUB SLT ISZERO PUSH2 0x97B JUMPI PUSH2 0x97A PUSH2 0x4AB JUMP JUMPDEST JUMPDEST PUSH1 0x0 PUSH2 0x989 DUP5 DUP3 DUP6 ADD PUSH2 0x6A4 JUMP JUMPDEST SWAP2 POP POP SWAP3 SWAP2 POP POP JUMP JUMPDEST PUSH1 0x0 PUSH2 0x99D DUP3 PUSH2 0x67B JUMP JUMPDEST SWAP1 POP SWAP2 SWAP1 POP JUMP JUMPDEST PUSH2 0x9AD DUP2 PUSH2 0x992 JUMP JUMPDEST DUP2 EQ PUSH2 0x9B8 JUMPI PUSH1 0x0 DUP1 REVERT JUMPDEST POP JUMP JUMPDEST PUSH1 0x0 DUP2 CALLDATALOAD SWAP1 POP PUSH2 0x9CA DUP2 PUSH2 0x9A4 JUMP JUMPDEST SWAP3 SWAP2 POP POP JUMP JUMPDEST PUSH1 0x0 PUSH1 0x20 DUP3 DUP5 SUB SLT ISZERO PUSH2 0x9E6 JUMPI PUSH2 0x9E5 PUSH2 0x4AB JUMP JUMPDEST JUMPDEST PUSH1 0x0 PUSH2 0x9F4 DUP5 DUP3 DUP6 ADD PUSH2 0x9BB JUMP JUMPDEST SWAP2 POP POP SWAP3 SWAP2 POP POP JUMP JUMPDEST PUSH1 0x0 DUP1 REVERT JUMPDEST PUSH1 0x0 DUP2 MLOAD SWAP1 POP PUSH2 0xA11 DUP2 PUSH2 0x6C9 JUMP JUMPDEST SWAP3 SWAP2 POP POP JUMP JUMPDEST PUSH1 0x0 DUP2 MLOAD SWAP1 POP PUSH2 0xA26 DUP2 PUSH2 0x70D JUMP JUMPDEST SWAP3 SWAP2 POP POP JUMP JUMPDEST PUSH1 0x0 DUP2 SWAP1 POP SWAP2 SWAP1 POP JUMP JUMPDEST PUSH2 0xA3F DUP2 PUSH2 0xA2C JUMP JUMPDEST DUP2 EQ PUSH2 0xA4A JUMPI PUSH1 0x0 DUP1 REVERT JUMPDEST POP JUMP JUMPDEST PUSH1 0x0 DUP2 MLOAD SWAP1 POP PUSH2 0xA5C DUP2 PUSH2 0xA36 JUMP JUMPDEST SWAP3 SWAP2 POP POP JUMP JUMPDEST PUSH1 0x0 PUSH1 0x80 DUP3 DUP5 SUB SLT ISZERO PUSH2 0xA78 JUMPI PUSH2 0xA77 PUSH2 0x9FD JUMP JUMPDEST JUMPDEST PUSH2 0xA82 PUSH1 0x80 PUSH2 0x530 JUMP JUMPDEST SWAP1 POP PUSH1 0x0 PUSH2 0xA92 DUP5 DUP3 DUP6 ADD PUSH2 0xA02 JUMP JUMPDEST PUSH1 0x0 DUP4 ADD MSTORE POP PUSH1 0x20 PUSH2 0xAA6 DUP5 DUP3 DUP6 ADD PUSH2 0xA17 JUMP JUMPDEST PUSH1 0x20 DUP4 ADD MSTORE POP PUSH1 0x40 PUSH2 0xABA DUP5 DUP3 DUP6 ADD PUSH2 0xA4D JUMP JUMPDEST PUSH1 0x40 DUP4 ADD MSTORE POP PUSH1 0x60 PUSH2 0xACE DUP5 DUP3 DUP6 ADD PUSH2 0xA4D JUMP JUMPDEST PUSH1 0x60 DUP4 ADD MSTORE POP SWAP3 SWAP2 POP POP JUMP JUMPDEST PUSH1 0x0 PUSH3 0xFFFFFF DUP3 AND SWAP1 POP SWAP2 SWAP1 POP JUMP JUMPDEST PUSH2 0xAF2 DUP2 PUSH2 0xADA JUMP JUMPDEST DUP2 EQ PUSH2 0xAFD JUMPI PUSH1 0x0 DUP1 REVERT JUMPDEST POP JUMP JUMPDEST PUSH1 0x0 DUP2 MLOAD SWAP1 POP PUSH2 0xB0F DUP2 PUSH2 0xAE9 JUMP JUMPDEST SWAP3 SWAP2 POP POP JUMP JUMPDEST PUSH1 0x0 PUSH2 0xFFFF DUP3 AND SWAP1 POP SWAP2 SWAP1 POP JUMP JUMPDEST PUSH2 0xB2C DUP2 PUSH2 0xB15 JUMP JUMPDEST DUP2 EQ PUSH2 0xB37 JUMPI PUSH1 0x0 DUP1 REVERT JUMPDEST POP JUMP JUMPDEST PUSH1 0x0 DUP2 MLOAD SWAP1 POP PUSH2 0xB49 DUP2 PUSH2 0xB23 JUMP JUMPDEST SWAP3 SWAP2 POP POP JUMP JUMPDEST PUSH1 0x0 DUP2 MLOAD SWAP1 POP PUSH2 0xB5E DUP2 PUSH2 0x68D JUMP JUMPDEST SWAP3 SWAP2 POP POP JUMP JUMPDEST PUSH1 0x0 PUSH2 0x180 DUP3 DUP5 SUB SLT ISZERO PUSH2 0xB7B JUMPI PUSH2 0xB7A PUSH2 0x9FD JUMP JUMPDEST JUMPDEST PUSH2 0xB86 PUSH2 0x180 PUSH2 0x530 JUMP JUMPDEST SWAP1 POP PUSH1 0x0 PUSH2 0xB96 DUP5 DUP3 DUP6 ADD PUSH2 0xA02 JUMP JUMPDEST PUSH1 0x0 DUP4 ADD MSTORE POP PUSH1 0x20 PUSH2 0xBAA DUP5 DUP3 DUP6 ADD PUSH2 0xA02 JUMP JUMPDEST PUSH1 0x20 DUP4 ADD MSTORE POP PUSH1 0x40 PUSH2 0xBBE DUP5 DUP3 DUP6 ADD PUSH2 0xB00 JUMP JUMPDEST PUSH1 0x40 DUP4 ADD MSTORE POP PUSH1 0x60 PUSH2 0xBD2 DUP5 DUP3 DUP6 ADD PUSH2 0xA02 JUMP JUMPDEST PUSH1 0x60 DUP4 ADD MSTORE POP PUSH1 0x80 PUSH2 0xBE6 DUP5 DUP3 DUP6 ADD PUSH2 0xB00 JUMP JUMPDEST PUSH1 0x80 DUP4 ADD MSTORE POP PUSH1 0xA0 PUSH2 0xBFA DUP5 DUP3 DUP6 ADD PUSH2 0xB3A JUMP JUMPDEST PUSH1 0xA0 DUP4 ADD MSTORE POP PUSH1 0xC0 PUSH2 0xC0E DUP5 DUP3 DUP6 ADD PUSH2 0xA17 JUMP JUMPDEST PUSH1 0xC0 DUP4 ADD MSTORE POP PUSH1 0xE0 PUSH2 0xC22 DUP5 DUP3 DUP6 ADD PUSH2 0xA02 JUMP JUMPDEST PUSH1 0xE0 DUP4 ADD MSTORE POP PUSH2 0x100 PUSH2 0xC37 DUP5 DUP3 DUP6 ADD PUSH2 0xA4D JUMP JUMPDEST PUSH2 0x100 DUP4 ADD MSTORE POP PUSH2 0x120 PUSH2 0xC4D DUP5 DUP3 DUP6 ADD PUSH2 0xA4D JUMP JUMPDEST PUSH2 0x120 DUP4 ADD MSTORE POP PUSH2 0x140 PUSH2 0xC63 DUP5 DUP3 DUP6 ADD PUSH2 0xB4F JUMP JUMPDEST PUSH2 0x140 DUP4 ADD MSTORE POP PUSH2 0x160 PUSH2 0xC79 DUP5 DUP3 DUP6 ADD PUSH2 0xB4F JUMP JUMPDEST PUSH2 0x160 DUP4 ADD MSTORE POP SWAP3 SWAP2 POP POP JUMP JUMPDEST PUSH1 0x0 PUSH8 0xFFFFFFFFFFFFFFFF DUP3 GT ISZERO PUSH2 0xCA1 JUMPI PUSH2 0xCA0 PUSH2 0x4D0 JUMP JUMPDEST JUMPDEST PUSH1 0x20 DUP3 MUL SWAP1 POP PUSH1 0x20 DUP2 ADD SWAP1 POP SWAP2 SWAP1 POP JUMP JUMPDEST PUSH1 0x0 PUSH2 0xCC5 PUSH2 0xCC0 DUP5 PUSH2 0xC86 JUMP JUMPDEST PUSH2 0x530 JUMP JUMPDEST SWAP1 POP DUP1 DUP4 DUP3 MSTORE PUSH1 0x20 DUP3 ADD SWAP1 POP PUSH1 0x20 DUP5 MUL DUP4 ADD DUP6 DUP2 GT ISZERO PUSH2 0xCE8 JUMPI PUSH2 0xCE7 PUSH2 0x600 JUMP JUMPDEST JUMPDEST DUP4 JUMPDEST DUP2 DUP2 LT ISZERO PUSH2 0xD11 JUMPI DUP1 PUSH2 0xCFD DUP9 DUP3 PUSH2 0xB4F JUMP JUMPDEST DUP5 MSTORE PUSH1 0x20 DUP5 ADD SWAP4 POP POP PUSH1 0x20 DUP2 ADD SWAP1 POP PUSH2 0xCEA JUMP JUMPDEST POP POP POP SWAP4 SWAP3 POP POP POP JUMP JUMPDEST PUSH1 0x0 DUP3 PUSH1 0x1F DUP4 ADD SLT PUSH2 0xD30 JUMPI PUSH2 0xD2F PUSH2 0x4B5 JUMP JUMPDEST JUMPDEST DUP2 MLOAD PUSH2 0xD40 DUP5 DUP3 PUSH1 0x20 DUP7 ADD PUSH2 0xCB2 JUMP JUMPDEST SWAP2 POP POP SWAP3 SWAP2 POP POP JUMP JUMPDEST PUSH1 0x0 DUP1 PUSH1 0x0 PUSH2 0x220 DUP5 DUP7 SUB SLT ISZERO PUSH2 0xD63 JUMPI PUSH2 0xD62 PUSH2 0x4AB JUMP JUMPDEST JUMPDEST PUSH1 0x0 PUSH2 0xD71 DUP7 DUP3 DUP8 ADD PUSH2 0xA62 JUMP JUMPDEST SWAP4 POP POP PUSH1 0x80 PUSH2 0xD82 DUP7 DUP3 DUP8 ADD PUSH2 0xB64 JUMP JUMPDEST SWAP3 POP POP PUSH2 0x200 DUP5 ADD MLOAD PUSH8 0xFFFFFFFFFFFFFFFF DUP2 GT ISZERO PUSH2 0xDA4 JUMPI PUSH2 0xDA3 PUSH2 0x4B0 JUMP JUMPDEST JUMPDEST PUSH2 0xDB0 DUP7 DUP3 DUP8 ADD PUSH2 0xD1B JUMP JUMPDEST SWAP2 POP POP SWAP3 POP SWAP3 POP SWAP3 JUMP JUMPDEST PUSH1 0x0 DUP2 MLOAD SWAP1 POP SWAP2 SWAP1 POP JUMP JUMPDEST PUSH1 0x0 DUP3 DUP3 MSTORE PUSH1 0x20 DUP3 ADD SWAP1 POP SWAP3 SWAP2 POP POP JUMP JUMPDEST PUSH1 0x0 JUMPDEST DUP4 DUP2 LT ISZERO PUSH2 0xDF4 JUMPI DUP1 DUP3 ADD MLOAD DUP2 DUP5 ADD MSTORE PUSH1 0x20 DUP2 ADD SWAP1 POP PUSH2 0xDD9 JUMP JUMPDEST PUSH1 0x0 DUP5 DUP5 ADD MSTORE POP POP POP POP JUMP JUMPDEST PUSH1 0x0 PUSH2 0xE0B DUP3 PUSH2 0xDBA JUMP JUMPDEST PUSH2 0xE15 DUP2 DUP6 PUSH2 0xDC5 JUMP JUMPDEST SWAP4 POP PUSH2 0xE25 DUP2 DUP6 PUSH1 0x20 DUP7 ADD PUSH2 0xDD6 JUMP JUMPDEST PUSH2 0xE2E DUP2 PUSH2 0x4BF JUMP JUMPDEST DUP5 ADD SWAP2 POP POP SWAP3 SWAP2 POP POP JUMP JUMPDEST PUSH1 0x0 DUP3 DUP3 MSTORE PUSH1 0x20 DUP3 ADD SWAP1 POP SWAP3 SWAP2 POP POP JUMP JUMPDEST PUSH1 0x0 PUSH2 0xE56 DUP4 DUP6 PUSH2 0xE39 JUMP JUMPDEST SWAP4 POP PUSH2 0xE63 DUP4 DUP6 DUP5 PUSH2 0x57C JUMP JUMPDEST PUSH2 0xE6C DUP4 PUSH2 0x4BF JUMP JUMPDEST DUP5 ADD SWAP1 POP SWAP4 SWAP3 POP POP POP JUMP JUMPDEST PUSH2 0xE80 DUP2 PUSH2 0x6B9 JUMP JUMPDEST DUP3 MSTORE POP POP JUMP JUMPDEST PUSH2 0xE8F DUP2 PUSH2 0x6F5 JUMP JUMPDEST DUP3 MSTORE POP POP JUMP JUMPDEST PUSH2 0xE9E DUP2 PUSH2 0x739 JUMP JUMPDEST DUP3 MSTORE POP POP JUMP JUMPDEST PUSH1 0x0 PUSH2 0x120 DUP3 ADD SWAP1 POP DUP2 DUP2 SUB PUSH1 0x0 DUP4 ADD MSTORE PUSH2 0xEBF DUP2 DUP15 PUSH2 0xE00 JUMP JUMPDEST SWAP1 POP DUP2 DUP2 SUB PUSH1 0x20 DUP4 ADD MSTORE PUSH2 0xED4 DUP2 DUP13 DUP15 PUSH2 0xE4A JUMP JUMPDEST SWAP1 POP PUSH2 0xEE3 PUSH1 0x40 DUP4 ADD DUP12 PUSH2 0x8FF JUMP JUMPDEST PUSH2 0xEF0 PUSH1 0x60 DUP4 ADD DUP11 PUSH2 0xE77 JUMP JUMPDEST PUSH2 0xEFD PUSH1 0x80 DUP4 ADD DUP10 PUSH2 0x8FF JUMP JUMPDEST DUP2 DUP2 SUB PUSH1 0xA0 DUP4 ADD MSTORE PUSH2 0xF10 DUP2 DUP8 DUP10 PUSH2 0xE4A JUMP JUMPDEST SWAP1 POP PUSH2 0xF1F PUSH1 0xC0 DUP4 ADD DUP7 PUSH2 0xE86 JUMP JUMPDEST PUSH2 0xF2C PUSH1 0xE0 DUP4 ADD DUP6 PUSH2 0xE95 JUMP JUMPDEST PUSH2 0xF3A PUSH2 0x100 DUP4 ADD DUP5 PUSH2 0x8FF JUMP JUMPDEST SWAP13 SWAP12 POP POP POP POP POP POP POP POP POP POP POP POP JUMP JUMPDEST PUSH32 0x4E487B7100000000000000000000000000000000000000000000000000000000 PUSH1 0x0 MSTORE PUSH1 0x11 PUSH1 0x4 MSTORE PUSH1 0x24 PUSH1 0x0 REVERT JUMPDEST PUSH1 0x0 PUSH2 0xF84 DUP3 PUSH2 0xA2C JUMP JUMPDEST SWAP2 POP PUSH2 0xF8F DUP4 PUSH2 0xA2C JUMP JUMPDEST SWAP3 POP DUP3 DUP3 ADD SWAP1 POP DUP1 DUP3 GT ISZERO PUSH2 0xFA7 JUMPI PUSH2 0xFA6 PUSH2 0xF4A JUMP JUMPDEST JUMPDEST SWAP3 SWAP2 POP POP JUMP JUMPDEST PUSH1 0x0 PUSH2 0xFB8 DUP3 PUSH2 0xA2C JUMP JUMPDEST SWAP2 POP PUSH2 0xFC3 DUP4 PUSH2 0xA2C JUMP JUMPDEST SWAP3 POP DUP3 DUP3 SUB SWAP1 POP DUP2 DUP2 GT ISZERO PUSH2 0xFDB JUMPI PUSH2 0xFDA PUSH2 0xF4A JUMP JUMPDEST JUMPDEST SWAP3 SWAP2 POP POP JUMP JUMPDEST PUSH1 0x0 DUP2 SWAP1 POP SWAP2 SWAP1 POP JUMP JUMPDEST PUSH1 0x0 DUP2 SWAP1 POP SWAP2 SWAP1 POP JUMP JUMPDEST PUSH2 0x1006 PUSH2 0x1001 DUP3 PUSH2 0xFE1 JUMP JUMPDEST PUSH2 0xFEB JUMP JUMPDEST DUP3 MSTORE POP POP JUMP JUMPDEST PUSH1 0x0 DUP2 PUSH1 0x60 SHL SWAP1 POP SWAP2 SWAP1 POP JUMP JUMPDEST PUSH1 0x0 PUSH2 0x1024 DUP3 PUSH2 0x100C JUMP JUMPDEST SWAP1 POP SWAP2 SWAP1 POP JUMP JUMPDEST PUSH1 0x0 PUSH2 0x1036 DUP3 PUSH2 0x1019 JUMP JUMPDEST SWAP1 POP SWAP2 SWAP1 POP JUMP JUMPDEST PUSH2 0x104E PUSH2 0x1049 DUP3 PUSH2 0x67B JUMP JUMPDEST PUSH2 0x102B JUMP JUMPDEST DUP3 MSTORE POP POP JUMP JUMPDEST PUSH1 0x0 DUP2 PUSH1 0xE0 SHL SWAP1 POP SWAP2 SWAP1 POP JUMP JUMPDEST PUSH1 0x0 PUSH2 0x106C DUP3 PUSH2 0x1054 JUMP JUMPDEST SWAP1 POP SWAP2 SWAP1 POP JUMP JUMPDEST PUSH2 0x1084 PUSH2 0x107F DUP3 PUSH2 0x6B9 JUMP JUMPDEST PUSH2 0x1061 JUMP JUMPDEST DUP3 MSTORE POP POP JUMP JUMPDEST PUSH1 0x0 PUSH2 0x1096 DUP3 DUP7 PUSH2 0xFF5 JUMP JUMPDEST PUSH1 0x20 DUP3 ADD SWAP2 POP PUSH2 0x10A6 DUP3 DUP6 PUSH2 0x103D JUMP JUMPDEST PUSH1 0x14 DUP3 ADD SWAP2 POP PUSH2 0x10B6 DUP3 DUP5 PUSH2 0x1073 JUMP JUMPDEST PUSH1 0x4 DUP3 ADD SWAP2 POP DUP2 SWAP1 POP SWAP5 SWAP4 POP POP POP POP JUMP JUMPDEST PUSH2 0x10D0 DUP2 PUSH2 0xA2C JUMP JUMPDEST DUP3 MSTORE POP POP JUMP JUMPDEST PUSH1 0x0 PUSH1 0x20 DUP3 ADD SWAP1 POP PUSH2 0x10EB PUSH1 0x0 DUP4 ADD DUP5 PUSH2 0x10C7 JUMP JUMPDEST SWAP3 SWAP2 POP POP JUMP JUMPDEST PUSH32 0x6175746F2D617070726F76652064697361626C65640000000000000000000000 PUSH1 0x0 DUP3 ADD MSTORE POP JUMP JUMPDEST PUSH1 0x0 PUSH2 0x1127 PUSH1 0x15 DUP4 PUSH2 0xDC5 JUMP JUMPDEST SWAP2 POP PUSH2 0x1132 DUP3 PUSH2 0x10F1 JUMP JUMPDEST PUSH1 0x20 DUP3 ADD SWAP1 POP SWAP2 SWAP1 POP JUMP JUMPDEST PUSH1 0x0 PUSH1 0x20 DUP3 ADD SWAP1 POP DUP2 DUP2 SUB PUSH1 0x0 DUP4 ADD MSTORE PUSH2 0x1156 DUP2 PUSH2 0x111A JUMP JUMPDEST SWAP1 POP SWAP2 SWAP1 POP JUMP INVALID LOG2 PUSH5 0x6970667358 0x22 SLT KECCAK256 SAR 0x25 EQ MULMOD PUSH16 0x18D250368DDC5C0DAD84C106C619701 CREATE DUP2 0x25 MSIZE JUMPI 0xBF EQ CALLDATASIZE 0xE5 SWAP16 EXTCODECOPY PUSH5 0x736F6C6343 STOP ADDMOD GT STOP CALLER "},"methodIdentifiers":{"i_link()":"7d253aff","i_registry()":"2a663606","registerAndPredictID(string,bytes,address,uint32,address,bytes,uint96,uint8)":"18a9fb8a","registrar()":"2b20e397","set_registrar(address)":"9df590cd","set_registry(address)":"f1e300bb"}}}}}