{
  "contractName": "Evoting",
  "abi": [
    {
      "anonymous": false,
      "inputs": [
        {
          "indexed": false,
          "internalType": "address",
          "name": "admin1",
          "type": "address"
        },
        {
          "indexed": false,
          "internalType": "address",
          "name": "admin2",
          "type": "address"
        },
        {
          "indexed": false,
          "internalType": "address",
          "name": "admin3",
          "type": "address"
        },
        {
          "indexed": false,
          "internalType": "address",
          "name": "admin4",
          "type": "address"
        },
        {
          "indexed": false,
          "internalType": "address",
          "name": "admin5",
          "type": "address"
        }
      ],
      "name": "InitContract",
      "type": "event"
    },
    {
      "anonymous": false,
      "inputs": [
        {
          "indexed": false,
          "internalType": "address",
          "name": "admin",
          "type": "address"
        },
        {
          "indexed": false,
          "internalType": "bool",
          "name": "success",
          "type": "bool"
        }
      ],
      "name": "ParametersChanged",
      "type": "event"
    },
    {
      "anonymous": false,
      "inputs": [
        {
          "indexed": false,
          "internalType": "address",
          "name": "admin",
          "type": "address"
        },
        {
          "indexed": false,
          "internalType": "bool",
          "name": "success",
          "type": "bool"
        }
      ],
      "name": "ParametersCommitted",
      "type": "event"
    },
    {
      "inputs": [
        {
          "internalType": "string",
          "name": "_desc",
          "type": "string"
        },
        {
          "internalType": "address",
          "name": "_admin1",
          "type": "address"
        },
        {
          "internalType": "address",
          "name": "_admin2",
          "type": "address"
        },
        {
          "internalType": "address",
          "name": "_admin3",
          "type": "address"
        },
        {
          "internalType": "address",
          "name": "_admin4",
          "type": "address"
        },
        {
          "internalType": "address",
          "name": "_admin5",
          "type": "address"
        }
      ],
      "name": "init",
      "outputs": [],
      "stateMutability": "nonpayable",
      "type": "function"
    },
    {
      "inputs": [
        {
          "internalType": "uint256",
          "name": "_gg",
          "type": "uint256"
        },
        {
          "internalType": "uint256",
          "name": "_pp",
          "type": "uint256"
        },
        {
          "internalType": "uint256",
          "name": "_vk",
          "type": "uint256"
        }
      ],
      "name": "committParameters",
      "outputs": [],
      "stateMutability": "nonpayable",
      "type": "function"
    },
    {
      "inputs": [
        {
          "internalType": "uint256",
          "name": "_gg",
          "type": "uint256"
        },
        {
          "internalType": "uint256",
          "name": "_pp",
          "type": "uint256"
        },
        {
          "internalType": "uint256",
          "name": "_vk",
          "type": "uint256"
        }
      ],
      "name": "changeParameters",
      "outputs": [],
      "stateMutability": "nonpayable",
      "type": "function"
    },
    {
      "inputs": [
        {
          "internalType": "address",
          "name": "_admin",
          "type": "address"
        }
      ],
      "name": "getHashedParameters",
      "outputs": [
        {
          "internalType": "bytes32",
          "name": "value",
          "type": "bytes32"
        }
      ],
      "stateMutability": "view",
      "type": "function",
      "constant": true
    },
    {
      "inputs": [],
      "name": "getDescription",
      "outputs": [
        {
          "internalType": "string",
          "name": "description",
          "type": "string"
        }
      ],
      "stateMutability": "view",
      "type": "function",
      "constant": true
    }
  ],
  "bytecode": "0x608060405234801561001057600080fd5b506108bf806100206000396000f3fe608060405234801561001057600080fd5b50600436106100575760003560e01c80631a0925411461005c5780631a2a62611461007a578063cba381fb1461008f578063d0b369da146100c6578063fc8ad37c146100d9575b600080fd5b6100646100ec565b60405161007191906107f9565b60405180910390f35b61008d610088366004610709565b61017e565b005b6100b861009d3660046106e7565b6001600160a01b031660009081526007602052604090205490565b604051908152602001610071565b61008d6100d43660046107cd565b6102fa565b61008d6100e73660046107cd565b61049c565b6060600180546100fb9061084e565b80601f01602080910402602001604051908101604052809291908181526020018280546101279061084e565b80156101745780601f1061014957610100808354040283529160200191610174565b820191906000526020600020905b81548152906001019060200180831161015757829003601f168201915b5050505050905090565b600054610100900460ff166101995760005460ff161561019d565b303b155b6102055760405162461bcd60e51b815260206004820152602e60248201527f496e697469616c697a61626c653a20636f6e747261637420697320616c72656160448201526d191e481a5b9a5d1a585b1a5e995960921b60648201526084015b60405180910390fd5b600054610100900460ff16158015610227576000805461ffff19166101011790555b61023360018989610632565b50600280546001600160a01b038881166001600160a01b031992831681179093556003805489831690841681179091556004805489841690851681179091556005805489851690861681179091556006805494891694909516841790945560408051958652602086019290925290840152606083019190915260808201527f534b6b1a797f112f3c2c554b2e837a36509b46a46d553702d02843facd36a1f69060a00160405180910390a180156102f0576000805461ff00191690555b5050505050505050565b60025433906001600160a01b031681148061032257506003546001600160a01b038281169116145b8061033a57506004546001600160a01b038281169116145b8061035257506005546001600160a01b038281169116145b8061036a57506006546001600160a01b038281169116145b6103b65760405162461bcd60e51b815260206004820152601d60248201527f596f75277265206e6f7420616e2061646d696e6973747261746f72202100000060448201526064016101fc565b336000908152600760205260409020541561041e5760405162461bcd60e51b815260206004820152602260248201527f596f75206861766520616c726561647920636f6d6d697474656420612076616c604482015261756560f01b60648201526084016101fc565b60408051602081018690529081018490526060810183905260800160408051808303601f190181528282528051602091820120336000818152600784528490209190915583526001908301527f3f85b0c3eefb78fcc44f8e059323e3b844c74f2d8563eef188366f152bd6614c91015b60405180910390a150505050565b60025433906001600160a01b03168114806104c457506003546001600160a01b038281169116145b806104dc57506004546001600160a01b038281169116145b806104f457506005546001600160a01b038281169116145b8061050c57506006546001600160a01b038281169116145b6105585760405162461bcd60e51b815260206004820152601d60248201527f596f75277265206e6f7420616e2061646d696e6973747261746f72202100000060448201526064016101fc565b336000908152600760205260409020546105be5760405162461bcd60e51b815260206004820152602160248201527f596f75206e65656420746f20666972737420636f6d6d69747420612076616c756044820152606560f81b60648201526084016101fc565b60408051602081018690529081018490526060810183905260800160408051808303601f190181528282528051602091820120336000818152600784528490209190915583526001908301527fe5178b891ee067510694447832c623b05bdec9f995e8c4e9deb9bd77836ed9f9910161048e565b82805461063e9061084e565b90600052602060002090601f01602090048101928261066057600085556106a6565b82601f106106795782800160ff198235161785556106a6565b828001600101855582156106a6579182015b828111156106a657823582559160200191906001019061068b565b506106b29291506106b6565b5090565b5b808211156106b257600081556001016106b7565b80356001600160a01b03811681146106e257600080fd5b919050565b6000602082840312156106f957600080fd5b610702826106cb565b9392505050565b600080600080600080600060c0888a03121561072457600080fd5b873567ffffffffffffffff8082111561073c57600080fd5b818a0191508a601f83011261075057600080fd5b81358181111561075f57600080fd5b8b602082850101111561077157600080fd5b602092830199509750610787918a0190506106cb565b9450610795604089016106cb565b93506107a3606089016106cb565b92506107b1608089016106cb565b91506107bf60a089016106cb565b905092959891949750929550565b6000806000606084860312156107e257600080fd5b505081359360208301359350604090920135919050565b600060208083528351808285015260005b818110156108265785810183015185820160400152820161080a565b81811115610838576000604083870101525b50601f01601f1916929092016040019392505050565b600181811c9082168061086257607f821691505b6020821081141561088357634e487b7160e01b600052602260045260246000fd5b5091905056fea2646970667358221220ef6871f1f08c2b628110e37e824dbd125e5dce3cd123a183fd1bb5976c53cf0d64736f6c63430008070033",
  "immutableReferences": {},
  "source": "// SPDX-License-Identifier: UNLICENSED\npragma solidity ^0.8.0;\n\nimport \"@openzeppelin/contracts/proxy/utils/Initializable.sol\";\n\n\ncontract Evoting is Initializable{\n\n    string private _description;\n    address private _administrator1;\n    address private _administrator2;\n    address private _administrator3;\n    address private _administrator4;\n    address private _administrator5;\n\n    mapping(address => bytes32) private values;\n\n    event ParametersCommitted(address admin, bool success);\n    event ParametersChanged(address admin, bool success);\n    event InitContract(address admin1, address admin2, address admin3, address admin4, address admin5);\n\n    modifier onlyAdministrator(address caller) {\n        require(caller == _administrator1 || caller == _administrator2 || \n        caller == _administrator3 || caller == _administrator4 || \n        caller == _administrator5, \"You're not an administrator !\");\n        _;\n    }\n\n\n    function init(string calldata _desc, address _admin1, address _admin2, address _admin3, address _admin4, address _admin5) initializer external{\n        _description = _desc;\n        _administrator1 = _admin1;\n        _administrator2 = _admin2;\n        _administrator3 = _admin3;\n        _administrator4 = _admin4;\n        _administrator5 = _admin5;\n        emit InitContract(_administrator1, _administrator2, _administrator3, _administrator4, _administrator5);\n    } \n    \n    function committParameters(uint256 _gg, uint256 _pp, uint256 _vk) external onlyAdministrator(msg.sender){\n        require(values[msg.sender] == bytes32(0), \"You have already committed a value\");\n        values[msg.sender] = keccak256(abi.encodePacked(_gg, _pp, _vk));\n        emit ParametersCommitted(msg.sender, true);\n    }\n\n    function changeParameters(uint256 _gg, uint256 _pp, uint256 _vk) external onlyAdministrator(msg.sender) { \n        require(values[msg.sender] != bytes32(0), \"You need to first committ a value\");\n        values[msg.sender] = keccak256(abi.encodePacked(_gg, _pp, _vk));\n        emit ParametersChanged(msg.sender, true);\n    }\n\n    function getHashedParameters(address _admin) external view returns(bytes32 value){\n        value = values[_admin];\n    }\n\n    function getDescription() external view returns(string memory description){\n        description = _description;\n    }\n\n   \n}\n\n\n",
  "sourcePath": "/Users/kemlohalex/Documents/blockchain-projects/test_truffle_react/contracts/Evoting.sol",
  "compiler": {
    "name": "solc",
    "version": "0.8.7+commit.e28d00a7.Emscripten.clang"
  },
  "schemaVersion": "3.4.3",
  "updatedAt": "2021-12-30T14:15:09.476Z",
  "networkType": "ethereum",
  "devdoc": {
    "kind": "dev",
    "methods": {},
    "version": 1
  },
  "userdoc": {
    "kind": "user",
    "methods": {},
    "version": 1
  }
}