{
  "contractName": "EvotingLogic",
  "abi": [
    {
      "anonymous": false,
      "inputs": [
        {
          "indexed": false,
          "internalType": "string",
          "name": "desc",
          "type": "string"
        },
        {
          "indexed": false,
          "internalType": "address",
          "name": "admin1",
          "type": "address"
        },
        {
          "indexed": false,
          "internalType": "address",
          "name": "admin2",
          "type": "address"
        },
        {
          "indexed": false,
          "internalType": "address",
          "name": "admin3",
          "type": "address"
        },
        {
          "indexed": false,
          "internalType": "address",
          "name": "admin4",
          "type": "address"
        },
        {
          "indexed": false,
          "internalType": "address",
          "name": "admin5",
          "type": "address"
        }
      ],
      "name": "InitContract",
      "type": "event"
    },
    {
      "anonymous": false,
      "inputs": [
        {
          "indexed": false,
          "internalType": "address",
          "name": "admin",
          "type": "address"
        },
        {
          "indexed": false,
          "internalType": "bool",
          "name": "success",
          "type": "bool"
        }
      ],
      "name": "ParametersCommited",
      "type": "event"
    },
    {
      "anonymous": false,
      "inputs": [
        {
          "indexed": false,
          "internalType": "address",
          "name": "admin",
          "type": "address"
        },
        {
          "indexed": false,
          "internalType": "bool",
          "name": "success",
          "type": "bool"
        }
      ],
      "name": "ParametersUpdated",
      "type": "event"
    },
    {
      "inputs": [
        {
          "internalType": "string",
          "name": "_desc",
          "type": "string"
        },
        {
          "internalType": "address",
          "name": "_admin1",
          "type": "address"
        },
        {
          "internalType": "address",
          "name": "_admin2",
          "type": "address"
        },
        {
          "internalType": "address",
          "name": "_admin3",
          "type": "address"
        },
        {
          "internalType": "address",
          "name": "_admin4",
          "type": "address"
        },
        {
          "internalType": "address",
          "name": "_admin5",
          "type": "address"
        }
      ],
      "name": "init",
      "outputs": [],
      "stateMutability": "nonpayable",
      "type": "function"
    },
    {
      "inputs": [
        {
          "internalType": "uint256",
          "name": "_gg",
          "type": "uint256"
        },
        {
          "internalType": "uint256",
          "name": "_pp",
          "type": "uint256"
        },
        {
          "internalType": "uint256",
          "name": "_vk",
          "type": "uint256"
        }
      ],
      "name": "commitParameters",
      "outputs": [],
      "stateMutability": "nonpayable",
      "type": "function"
    },
    {
      "inputs": [
        {
          "internalType": "uint256",
          "name": "_gg",
          "type": "uint256"
        },
        {
          "internalType": "uint256",
          "name": "_pp",
          "type": "uint256"
        },
        {
          "internalType": "uint256",
          "name": "_vk",
          "type": "uint256"
        }
      ],
      "name": "updateParameters",
      "outputs": [],
      "stateMutability": "nonpayable",
      "type": "function"
    },
    {
      "inputs": [
        {
          "internalType": "address",
          "name": "_admin",
          "type": "address"
        }
      ],
      "name": "getHashedParameters",
      "outputs": [
        {
          "internalType": "bytes32",
          "name": "value",
          "type": "bytes32"
        }
      ],
      "stateMutability": "view",
      "type": "function",
      "constant": true
    },
    {
      "inputs": [],
      "name": "getDescription",
      "outputs": [
        {
          "internalType": "string",
          "name": "description",
          "type": "string"
        }
      ],
      "stateMutability": "view",
      "type": "function",
      "constant": true
    }
  ],
  "bytecode": "0x608060405234801561001057600080fd5b506109bf806100206000396000f3fe608060405234801561001057600080fd5b50600436106100575760003560e01c80631a0925411461005c5780631a2a62611461007a578063cba381fb1461008f578063f76d50ad146100c6578063fe6dcc97146100d9575b600080fd5b6100646100ec565b60405161007191906107f1565b60405180910390f35b61008d610088366004610701565b61017e565b005b6100b861009d3660046106df565b6001600160a01b031660009081526007602052604090205490565b604051908152602001610071565b61008d6100d43660046107c5565b6102ed565b61008d6100e73660046107c5565b61048f565b6060600180546100fb9061094e565b80601f01602080910402602001604051908101604052809291908181526020018280546101279061094e565b80156101745780601f1061014957610100808354040283529160200191610174565b820191906000526020600020905b81548152906001019060200180831161015757829003601f168201915b5050505050905090565b600054610100900460ff166101995760005460ff161561019d565b303b155b6102055760405162461bcd60e51b815260206004820152602e60248201527f496e697469616c697a61626c653a20636f6e747261637420697320616c72656160448201526d191e481a5b9a5d1a585b1a5e995960921b60648201526084015b60405180910390fd5b600054610100900460ff16158015610227576000805461ffff19166101011790555b6102336001898961062a565b50600280546001600160a01b038089166001600160a01b03199283168117909355600380548983169084168117909155600480548984169085168117909155600580548985169086168117909155600680549489169490951684179094556040517f8de6b8241d88a83c958a3138466e1b51c7c8d80685994e981814f44a7a23449e956102c99560019591949392909190610846565b60405180910390a180156102e3576000805461ff00191690555b5050505050505050565b60025433906001600160a01b031681148061031557506003546001600160a01b038281169116145b8061032d57506004546001600160a01b038281169116145b8061034557506005546001600160a01b038281169116145b8061035d57506006546001600160a01b038281169116145b6103a95760405162461bcd60e51b815260206004820152601d60248201527f596f75277265206e6f7420616e2061646d696e6973747261746f72202100000060448201526064016101fc565b336000908152600760205260409020546104115760405162461bcd60e51b8152602060048201526024808201527f596f75206e65656420746f20666972737420636f6d6d69747420706172616d656044820152637465727360e01b60648201526084016101fc565b60408051602081018690529081018490526060810183905260800160408051808303601f190181528282528051602091820120336000818152600784528490209190915583526001908301527f5989bb28b7fa111b14ca724d60459cd82f9673cacabc179e449c8a0fd7dc606291015b60405180910390a150505050565b60025433906001600160a01b03168114806104b757506003546001600160a01b038281169116145b806104cf57506004546001600160a01b038281169116145b806104e757506005546001600160a01b038281169116145b806104ff57506006546001600160a01b038281169116145b61054b5760405162461bcd60e51b815260206004820152601d60248201527f596f75277265206e6f7420616e2061646d696e6973747261746f72202100000060448201526064016101fc565b33600090815260076020526040902054156105b65760405162461bcd60e51b815260206004820152602560248201527f596f75206861766520616c726561647920636f6d6d697474656420706172616d604482015264657465727360d81b60648201526084016101fc565b60408051602081018690529081018490526060810183905260800160408051808303601f190181528282528051602091820120336000818152600784528490209190915583526001908301527f8319dae2f2fc1c340cdd40f40c07ef73027a20ab4ab5886f7b2600a48846cf559101610481565b8280546106369061094e565b90600052602060002090601f016020900481019282610658576000855561069e565b82601f106106715782800160ff1982351617855561069e565b8280016001018555821561069e579182015b8281111561069e578235825591602001919060010190610683565b506106aa9291506106ae565b5090565b5b808211156106aa57600081556001016106af565b80356001600160a01b03811681146106da57600080fd5b919050565b6000602082840312156106f157600080fd5b6106fa826106c3565b9392505050565b600080600080600080600060c0888a03121561071c57600080fd5b873567ffffffffffffffff8082111561073457600080fd5b818a0191508a601f83011261074857600080fd5b81358181111561075757600080fd5b8b602082850101111561076957600080fd5b60209283019950975061077f918a0190506106c3565b945061078d604089016106c3565b935061079b606089016106c3565b92506107a9608089016106c3565b91506107b760a089016106c3565b905092959891949750929550565b6000806000606084860312156107da57600080fd5b505081359360208301359350604090920135919050565b600060208083528351808285015260005b8181101561081e57858101830151858201604001528201610802565b81811115610830576000604083870101525b50601f01601f1916929092016040019392505050565b60c081526000808854818160011c9050600182168061086657607f821691505b602080831082141561088657634e487b7160e01b85526022600452602485fd5b60c0870183905260e087018280156108a557600181146108b6576108e3565b60ff198616825282820196506108e3565b60008f81526020902060005b868110156108dd5781548482015260019091019084016108c2565b83019750505b50508495506108fc8188018d6001600160a01b03169052565b505050505061091660408301876001600160a01b03169052565b6001600160a01b03851660608301526001600160a01b03841660808301526001600160a01b03831660a0830152979650505050505050565b600181811c9082168061096257607f821691505b6020821081141561098357634e487b7160e01b600052602260045260246000fd5b5091905056fea2646970667358221220c4294fc533c914d27ed23d0f2e539b2bd719e0d9913b4cfd6276e4f2bfbf82bf64736f6c63430008070033",
  "immutableReferences": {},
  "source": "// SPDX-License-Identifier: UNLICENSED\npragma solidity ^0.8.0;\n\nimport \"@openzeppelin/contracts/proxy/utils/Initializable.sol\";\n\n\ncontract EvotingLogic is Initializable{\n\n    string private _description;\n    address private _administrator1;\n    address private _administrator2;\n    address private _administrator3;\n    address private _administrator4;\n    address private _administrator5;\n    // Store the administrator parameters\n    mapping(address => bytes32) private parameters;\n\n    event ParametersCommited(address admin, bool success);\n    event ParametersUpdated(address admin, bool success);\n    event InitContract(string desc, address admin1, address admin2, address admin3, address admin4, address admin5);\n\n    /// @dev Restrict a function to only be called by an administrator\n    /// @param _caller The adminstrator address\n    modifier onlyAdministrator(address _caller) {\n        require(_caller == _administrator1 || _caller == _administrator2 || \n        _caller == _administrator3 || _caller == _administrator4 || \n        _caller == _administrator5, \"You're not an administrator !\");\n\n        _;\n    }\n\n    /// @dev Init the contract, can only call once\n    /// @param _desc The voting description\n    /// @param _admin1 The first administrator\n    /// @param _admin2 The second administrator\n    /// @param _admin3 The third administrator\n    /// @param _admin4 The fourth administrator\n    /// @param _admin5 The fifth administrator   \n    function init(string calldata _desc, address _admin1, address _admin2, address _admin3, address _admin4, address _admin5) initializer external{\n        _description = _desc;\n        _administrator1 = _admin1;\n        _administrator2 = _admin2;\n        _administrator3 = _admin3;\n        _administrator4 = _admin4;\n        _administrator5 = _admin5;\n        emit InitContract(_description, _administrator1, _administrator2, _administrator3, _administrator4, _administrator5);\n    } \n    \n    /// @dev Hash and store the parameters, can only be called by administrator\n    /// @param _gg The gg parameter\n    /// @param _pp The pp parameter\n    /// @param _vk The vk parameter\n    function commitParameters(uint256 _gg, uint256 _pp, uint256 _vk) external onlyAdministrator(msg.sender){\n        require(parameters[msg.sender] == bytes32(0), \"You have already committed parameters\");\n        parameters[msg.sender] = keccak256(abi.encodePacked(_gg, _pp, _vk));\n        emit ParametersCommited(msg.sender, true);\n    }\n\n    /// @dev Hash and update the parameters, can only be called by administrator\n    /// @param _gg The gg parameter\n    /// @param _pp The pp parameter\n    /// @param _vk The vk parameter\n    function updateParameters(uint256 _gg, uint256 _pp, uint256 _vk) external onlyAdministrator(msg.sender) { \n        require(parameters[msg.sender] != bytes32(0), \"You need to first committ parameters\");\n        parameters[msg.sender] = keccak256(abi.encodePacked(_gg, _pp, _vk));\n        emit ParametersUpdated(msg.sender, true);\n    }\n\n    /// @dev Retrieve the stored parameters\n    /// @param _admin The administrator address \n    /// @return value The stored parameters\n    function getHashedParameters(address _admin) external view returns(bytes32 value){\n        value = parameters[_admin];\n    }\n\n    /// @dev Retrieve the voting description\n    /// @return description The description\n    function getDescription() external view returns(string memory description){\n        description = _description;\n    }\n\n   \n}\n\n\n",
  "sourcePath": "/Users/kemlohalex/Documents/evoting/contracts/EvotingLogic.sol",
  "compiler": {
    "name": "solc",
    "version": "0.8.7+commit.e28d00a7.Emscripten.clang"
  },
  "schemaVersion": "3.4.3",
  "updatedAt": "2021-12-30T16:11:36.642Z",
  "networkType": "ethereum",
  "devdoc": {
    "kind": "dev",
    "methods": {
      "commitParameters(uint256,uint256,uint256)": {
        "details": "Hash and store the parameters, can only be called by administrator",
        "params": {
          "_gg": "The gg parameter",
          "_pp": "The pp parameter",
          "_vk": "The vk parameter"
        }
      },
      "getDescription()": {
        "details": "Retrieve the voting description",
        "returns": {
          "description": "The description"
        }
      },
      "getHashedParameters(address)": {
        "details": "Retrieve the stored parameters",
        "params": {
          "_admin": "The administrator address "
        },
        "returns": {
          "value": "The stored parameters"
        }
      },
      "init(string,address,address,address,address,address)": {
        "details": "Init the contract, can only call once",
        "params": {
          "_admin1": "The first administrator",
          "_admin2": "The second administrator",
          "_admin3": "The third administrator",
          "_admin4": "The fourth administrator",
          "_admin5": "The fifth administrator   ",
          "_desc": "The voting description"
        }
      },
      "updateParameters(uint256,uint256,uint256)": {
        "details": "Hash and update the parameters, can only be called by administrator",
        "params": {
          "_gg": "The gg parameter",
          "_pp": "The pp parameter",
          "_vk": "The vk parameter"
        }
      }
    },
    "version": 1
  },
  "userdoc": {
    "kind": "user",
    "methods": {},
    "version": 1
  }
}