{
  "contractName": "EvotingFactory",
  "abi": [
    {
      "anonymous": false,
      "inputs": [
        {
          "indexed": false,
          "internalType": "address",
          "name": "proxy",
          "type": "address"
        }
      ],
      "name": "ProxyCreated",
      "type": "event"
    },
    {
      "inputs": [
        {
          "internalType": "address",
          "name": "_implementation",
          "type": "address"
        }
      ],
      "name": "createClone",
      "outputs": [
        {
          "internalType": "address",
          "name": "",
          "type": "address"
        }
      ],
      "stateMutability": "nonpayable",
      "type": "function"
    }
  ],
  "bytecode": "0x608060405234801561001057600080fd5b506101b6806100206000396000f3fe608060405234801561001057600080fd5b506004361061002b5760003560e01c806357894c1b14610030575b600080fd5b61004361003e366004610150565b61005f565b6040516001600160a01b03909116815260200160405180910390f35b60008061006b836100af565b6040516001600160a01b03821681529091507efffc2da0b561cae30d9826d37709e9421c4725faebc226cbbb7ef5fc5e73499060200160405180910390a192915050565b6000604051733d602d80600a3d3981f3363d3d373d3d3d363d7360601b81528260601b60148201526e5af43d82803e903d91602b57fd5bf360881b60288201526037816000f09150506001600160a01b03811661014b5760405162461bcd60e51b8152602060048201526016602482015275115490cc4c4d8dce8818dc99585d194819985a5b195960521b604482015260640160405180910390fd5b919050565b60006020828403121561016257600080fd5b81356001600160a01b038116811461017957600080fd5b939250505056fea26469706673582212208486e16dac679219d1205d51f857a43e878482ce3a98929d7a4918ff575a19c964736f6c63430008070033",
  "immutableReferences": {},
  "source": "// SPDX-License-Identifier: UNLICENSED\npragma solidity ^0.8.0;\n\nimport \"./EvotingLogic.sol\";\nimport \"@openzeppelin/contracts/proxy/Clones.sol\";\n\n\n\ncontract EvotingFactory {\n\n    //address[] public evotingClones;\n    event ProxyCreated(address proxy);\n\n    /// @dev Create a minimal proxy of a deployed contract \n    /// @param _implementation The address of the deployed contract\n    /// @return The proxy address\n    function createClone(address _implementation) public returns (address) {\n        address proxy = Clones.clone(_implementation);\n       // evotingClones.push(proxy);\n        emit ProxyCreated(proxy);\n        return proxy;\n    }\n    \n\n}",
  "sourcePath": "/Users/kemlohalex/Documents/evoting/contracts/EvotingFactory.sol",
  "compiler": {
    "name": "solc",
    "version": "0.8.7+commit.e28d00a7.Emscripten.clang"
  },
  "schemaVersion": "3.4.3",
  "updatedAt": "2021-12-30T16:11:36.638Z",
  "networkType": "ethereum",
  "devdoc": {
    "kind": "dev",
    "methods": {
      "createClone(address)": {
        "details": "Create a minimal proxy of a deployed contract ",
        "params": {
          "_implementation": "The address of the deployed contract"
        },
        "returns": {
          "_0": "The proxy address"
        }
      }
    },
    "version": 1
  },
  "userdoc": {
    "kind": "user",
    "methods": {},
    "version": 1
  }
}