{
  "contractName": "VRFTestHelper_SECP256R1",
  "abi": [
    {
      "inputs": [
        {
          "internalType": "uint256[2]",
          "name": "_publicKey",
          "type": "uint256[2]"
        },
        {
          "internalType": "uint256[4]",
          "name": "_proof",
          "type": "uint256[4]"
        },
        {
          "internalType": "bytes",
          "name": "_message",
          "type": "bytes"
        }
      ],
      "name": "verify",
      "outputs": [
        {
          "internalType": "bool",
          "name": "",
          "type": "bool"
        }
      ],
      "stateMutability": "pure",
      "type": "function"
    },
    {
      "inputs": [
        {
          "internalType": "uint256[2]",
          "name": "_publicKey",
          "type": "uint256[2]"
        },
        {
          "internalType": "uint256[4]",
          "name": "_proof",
          "type": "uint256[4]"
        },
        {
          "internalType": "bytes",
          "name": "_message",
          "type": "bytes"
        },
        {
          "internalType": "uint256[2]",
          "name": "_uPoint",
          "type": "uint256[2]"
        },
        {
          "internalType": "uint256[4]",
          "name": "_vComponents",
          "type": "uint256[4]"
        }
      ],
      "name": "fastVerify",
      "outputs": [
        {
          "internalType": "bool",
          "name": "",
          "type": "bool"
        }
      ],
      "stateMutability": "pure",
      "type": "function"
    },
    {
      "inputs": [
        {
          "internalType": "uint256[2]",
          "name": "_publicKey",
          "type": "uint256[2]"
        },
        {
          "internalType": "uint256[4]",
          "name": "_proof",
          "type": "uint256[4]"
        },
        {
          "internalType": "bytes",
          "name": "_message",
          "type": "bytes"
        }
      ],
      "name": "computeFastVerifyParams",
      "outputs": [
        {
          "internalType": "uint256[2]",
          "name": "",
          "type": "uint256[2]"
        },
        {
          "internalType": "uint256[4]",
          "name": "",
          "type": "uint256[4]"
        }
      ],
      "stateMutability": "pure",
      "type": "function"
    },
    {
      "inputs": [
        {
          "internalType": "bytes",
          "name": "_proof",
          "type": "bytes"
        }
      ],
      "name": "decodeProof",
      "outputs": [
        {
          "internalType": "uint256[4]",
          "name": "",
          "type": "uint256[4]"
        }
      ],
      "stateMutability": "pure",
      "type": "function"
    },
    {
      "inputs": [
        {
          "internalType": "uint256",
          "name": "_gammaX",
          "type": "uint256"
        },
        {
          "internalType": "uint256",
          "name": "_gammaY",
          "type": "uint256"
        }
      ],
      "name": "proofToHash",
      "outputs": [
        {
          "internalType": "bytes32",
          "name": "",
          "type": "bytes32"
        }
      ],
      "stateMutability": "pure",
      "type": "function"
    },
    {
      "inputs": [
        {
          "internalType": "uint256[2]",
          "name": "_publicKey",
          "type": "uint256[2]"
        },
        {
          "internalType": "bytes",
          "name": "_message",
          "type": "bytes"
        }
      ],
      "name": "hashToTryAndIncrement",
      "outputs": [
        {
          "internalType": "uint256",
          "name": "",
          "type": "uint256"
        },
        {
          "internalType": "uint256",
          "name": "",
          "type": "uint256"
        }
      ],
      "stateMutability": "pure",
      "type": "function"
    },
    {
      "inputs": [
        {
          "internalType": "uint256",
          "name": "_hPointX",
          "type": "uint256"
        },
        {
          "internalType": "uint256",
          "name": "_hPointY",
          "type": "uint256"
        },
        {
          "internalType": "uint256",
          "name": "_gammaX",
          "type": "uint256"
        },
        {
          "internalType": "uint256",
          "name": "_gammaY",
          "type": "uint256"
        },
        {
          "internalType": "uint256",
          "name": "_uPointX",
          "type": "uint256"
        },
        {
          "internalType": "uint256",
          "name": "_uPointY",
          "type": "uint256"
        },
        {
          "internalType": "uint256",
          "name": "_vPointX",
          "type": "uint256"
        },
        {
          "internalType": "uint256",
          "name": "_vPointY",
          "type": "uint256"
        }
      ],
      "name": "hashPoints",
      "outputs": [
        {
          "internalType": "bytes16",
          "name": "",
          "type": "bytes16"
        }
      ],
      "stateMutability": "pure",
      "type": "function"
    }
  ],
  "bytecode": "0x608060405234801561001057600080fd5b50611d7e806100206000396000f3fe608060405234801561001057600080fd5b506004361061007d5760003560e01c8063472300001161005b578063472300001461033f578063bbe95b4c14610374578063c95ac47a14610470578063c9d4ef1f146105d35761007d565b806307ce9d0f1461008257806309baf9971461016b57806345899df4146101d9575b600080fd5b6101526004803603606081101561009857600080fd5b6040805180820182529183019291818301918390600290839083908082843760009201919091525091949392602081019250359050600160201b8111156100de57600080fd5b8201836020820111156100f057600080fd5b803590602001918460018302840111600160201b8311171561011157600080fd5b91908080601f0160208091040260200160405190810160405280939291908181526020018383808284376000920191909152509295506106af945050505050565b6040805192835260208301919091528051918290030190f35b6101b3600480360361010081101561018257600080fd5b5080359060208101359060408101359060608101359060808101359060a08101359060c08101359060e001356106c8565b604080516fffffffffffffffffffffffffffffffff199092168252519081900360200190f35b61032b60048036036101a08110156101f057600080fd5b60408051808201825291830192918183019183906002908390839080828437600092019190915250506040805160808181019092529295949381810193925090600490839083908082843760009201919091525091949392602081019250359050600160201b81111561026257600080fd5b82018360208201111561027457600080fd5b803590602001918460018302840111600160201b8311171561029557600080fd5b91908080601f01602080910402602001604051908101604052809392919081815260200183838082843760009201919091525050604080518082018252939695948181019493509150600290839083908082843760009201919091525050604080516080818101909252929594938181019392509060049083908390808284376000920191909152509194506106e79350505050565b604080519115158252519081900360200190f35b6103626004803603604081101561035557600080fd5b5080359060200135610702565b60408051918252519081900360200190f35b61032b600480360360e081101561038a57600080fd5b60408051808201825291830192918183019183906002908390839080828437600092019190915250506040805160808181019092529295949381810193925090600490839083908082843760009201919091525091949392602081019250359050600160201b8111156103fc57600080fd5b82018360208201111561040e57600080fd5b803590602001918460018302840111600160201b8311171561042f57600080fd5b91908080601f016020809104026020016040519081016040528093929190818152602001838380828437600092019190915250929550610715945050505050565b61056c600480360360e081101561048657600080fd5b60408051808201825291830192918183019183906002908390839080828437600092019190915250506040805160808181019092529295949381810193925090600490839083908082843760009201919091525091949392602081019250359050600160201b8111156104f857600080fd5b82018360208201111561050a57600080fd5b803590602001918460018302840111600160201b8311171561052b57600080fd5b91908080601f01602080910402602001604051908101604052809392919081815260200183838082843760009201919091525092955061072a945050505050565b6040518083600260200280838360005b8381101561059457818101518382015260200161057c565b5050505090500182600460200280838360005b838110156105bf5781810151838201526020016105a7565b505050509050019250505060405180910390f35b610677600480360360208110156105e957600080fd5b810190602081018135600160201b81111561060357600080fd5b82018360208201111561061557600080fd5b803590602001918460018302840111600160201b8311171561063657600080fd5b91908080601f016020809104026020016040519081016040528093929190818152602001838380828437600092019190915250929550610751945050505050565b6040518082608080838360005b8381101561069c578181015183820152602001610684565b5050505090500191505060405180910390f35b6000806106bc8484610848565b915091505b9250929050565b60006106da8989898989898989610b0b565b9998505050505050505050565b60006106f68686868686610d37565b90505b95945050505050565b600061070e8383610e5b565b9392505050565b6000610722848484610f7f565b949350505050565b610732611cea565b61073a611d08565b610745858585611079565b91509150935093915050565b610759611d08565b60405163c9d4ef1f60e01b815260206004820181815284516024840152845173__VRF_P256______________________________9363c9d4ef1f9387939283926044019185019080838360005b838110156107be5781810151838201526020016107a6565b50505050905090810190601f1680156107eb5780820380516001836020036101000a031916815260200191505b509250505060806040518083038186803b15801561080857600080fd5b505af415801561081c573d6000803e3d6000fd5b505050506040513d601f19601f82011682018060405250608081101561084157600080fd5b5092915050565b600080606060018061086787856020020151886001602002015161117d565b86604051602001808560ff1660f81b81526001018460ff1660f81b815260010183805190602001908083835b602083106108b25780518252601f199092019160209182019101610893565b51815160209384036101000a600019018019909216911617905285519190930192850191508083835b602083106108fa5780518252601f1990920191602091820191016108db565b6001836020036101000a038019825116818451168082178552505050505050905001945050505050604051602081830303815290604052905060005b6101008160ff161015610abd576000600283836040516020018083805190602001908083835b6020831061097b5780518252601f19909201916020918201910161095c565b6001836020036101000a0380198251168184511680821785525050505050509050018260ff1660f81b8152600101925050506040516020818303038152906040526040518082805190602001908083835b602083106109eb5780518252601f1990920191602091820191016109cc565b51815160209384036101000a60001901801990921691161790526040519190930194509192505080830381855afa158015610a2a573d6000803e3d6000fd5b5050506040513d6020811015610a3f57600080fd5b50519050806000610a516002836111bb565b9050610a9f82826003600160601b0363ffffffff60c01b03197f5ac635d8aa3a93e7b3ebbd55769886bc651d06b0cc53b0f63bce3c3e27d2604b600160601b63ffffffff60c01b0319611209565b15610ab25790955093506106c192505050565b505050600101610936565b506040805162461bcd60e51b815260206004820152601860248201527f4e6f2076616c696420706f696e742077617320666f756e640000000000000000604482015290519081900360640190fd5b6000606060016002610b1d8c8c61117d565b610b278b8b61117d565b610b318a8a61117d565b610b3b898961117d565b604051602001808760ff1660f81b81526001018660ff1660f81b815260010185805190602001908083835b60208310610b855780518252601f199092019160209182019101610b66565b51815160209384036101000a600019018019909216911617905287519190930192870191508083835b60208310610bcd5780518252601f199092019160209182019101610bae565b51815160209384036101000a600019018019909216911617905286519190930192860191508083835b60208310610c155780518252601f199092019160209182019101610bf6565b51815160209384036101000a600019018019909216911617905285519190930192850191508083835b60208310610c5d5780518252601f199092019160209182019101610c3e565b6001836020036101000a0380198251168184511680821785525050505050509050019650505050505050604051602081830303815290604052905060006002826040518082805190602001908083835b60208310610ccc5780518252601f199092019160209182019101610cad565b51815160209384036101000a60001901801990921691161790526040519190930194509192505080830381855afa158015610d0b573d6000803e3d6000fd5b5050506040513d6020811015610d2057600080fd5b50516040518190529b9a5050505050505050505050565b6000806000610d468887610848565b606089015160408a01518b5160208d8101518b51918c0151969850949650610d74959394929391929161129e565b1580610d9b575060608701518451610d999190849084908860015b60200201516113b3565b155b80610dc15750604080880151885160208a015192870151610dbf9390886003610d8f565b155b15610dd1576000925050506106f9565b83516020850151604086015160608701516000938493610e169391929091906003600160601b0363ffffffff60c01b0319600160601b63ffffffff60c01b031961147c565b8a516020808d01518b51918c0151949650929450600093610e3e938993899390928989610b0b565b6040909a015160809a909a1c9099149a9950505050505050505050565b6000606060016003610e6d868661117d565b604051602001808460ff1660f81b81526001018360ff1660f81b815260010182805190602001908083835b60208310610eb75780518252601f199092019160209182019101610e98565b6001836020036101000a038019825116818451168082178552505050505050905001935050505060405160208183030381529060405290506002816040518082805190602001908083835b60208310610f215780518252601f199092019160209182019101610f02565b51815160209384036101000a60001901801990921691161790526040519190930194509192505080830381855afa158015610f60573d6000803e3d6000fd5b5050506040513d6020811015610f7557600080fd5b5051949350505050565b6000806000610f8e8685610848565b6060870151604088015189519395509193506000928392610ffc92917f6b17d1f2e12c4247f8bce6e563a440f277037d812deb33a0f4a13945d898c296917f4fe342e2fe1a7f9b8ee7eb4a7c0f9e162bce33576b315ececbb6406837bf51f5918d60015b60200201516114b1565b606089015160408a01518a5193955091935060009283926110249291899189918e6001610ff2565b9092509050600061104887878c8460200201518d6001602002015189898989610b0b565b905089600260200201516001600160801b03168160801c6001600160801b0316149750505050505050509392505050565b611081611cea565b611089611d08565b6000806110968786610848565b606088015160408901518a5193955091935060009283926110fe92917f6b17d1f2e12c4247f8bce6e563a440f277037d812deb33a0f4a13945d898c296917f4fe342e2fe1a7f9b8ee7eb4a7c0f9e162bce33576b315ececbb6406837bf51f5918e6001610ff2565b90925090506000806111188a60036020020151878761151d565b60408c01518c5160208e01519395509193506000928392611139929161151d565b6040805180820182529889526020808a0198909852805160808101825296875296860194909452948401949094525060608201529199919850909650505050505050565b604080516001600160f81b0319600190931660020160f81b929092166020830152602180830193909352805180830390930183526041909101905290565b600061070e83836003600160601b0363ffffffff60c01b03197f5ac635d8aa3a93e7b3ebbd55769886bc651d06b0cc53b0f63bce3c3e27d2604b600160601b63ffffffff60c01b031961154c565b60008515806112185750818610155b80611221575084155b8061122c5750818510155b15611239575060006106f9565b6000828061124357fe5b86870990506000838061125257fe5b88858061125b57fe5b8a8b09099050851561127f57838061126f57fe5b848061127757fe5b878a09820890505b841561129357838061128d57fe5b85820890505b149695505050505050565b60007bffffffff00000000000000004319055258e8617b0c46353d039cdaae198781038190069086820990507bffffffff00000000000000004319055258e8617b0c46353d039cdaae198781030660006001838882166112ff57601b611302565b601c5b8a7bffffffff00000000000000004319055258e8617b0c46353d039cdaae198c870960001b60405160008152602001604052604051808581526020018460ff1681526020018381526020018281526020019450505050506020604051602081039080840390855afa15801561137b573d6000803e3d6000fd5b505050602060405103519050806001600160a01b031661139b878761160e565b6001600160a01b0316149a9950505050505050505050565b600080600181600287066113c857601b6113cb565b601c5b887bffffffff00000000000000004319055258e8617b0c46353d039cdaae198a8c0960001b60405160008152602001604052604051808560001b81526020018460ff1681526020018381526020018281526020019450505050506020604051602081039080840390855afa158015611447573d6000803e3d6000fd5b505050602060405103519050806001600160a01b0316611467858561160e565b6001600160a01b031614979650505050505050565b60008060008061148d888887611643565b9150915061149f8a8a84848a8a61165f565b9350935050505b965096945050505050565b6000806000806114c28a8a8a61151d565b915091506000806114d489898961151d565b91509150600080611508868686866003600160601b0363ffffffff60c01b0319600160601b63ffffffff60c01b031961147c565b909f909e509c50505050505050505050505050565b6000806107458585856003600160601b0363ffffffff60c01b0319600160601b63ffffffff60c01b03196116de565b60008560ff166002148061156357508560ff166003145b61159e5760405162461bcd60e51b8152600401808060200182810382526022815260200180611d276022913960400191505060405180910390fd5b600082806115a857fe5b83806115b057fe5b8585806115b957fe5b888a090884806115c557fe5b85806115cd57fe5b898a0989090890506115e6816004600186010485611718565b90506000600260ff89168301061561160057818403611602565b815b98975050505050505050565b60408051602080820194909452808201929092528051808303820181526060909201905280519101206001600160a01b031690565b60008084838585038161165257fe5b0691509150935093915050565b6000806000806000888b14156116a757858061167757fe5b888b0861168d57600080945094505050506114a6565b61169b8b8b60018a8a6117dd565b919450925090506116c0565b6116b88b8b60018c8c60018c6118f3565b919450925090505b6116cc83838389611b70565b94509450505050965096945050505050565b60008060008060006116f58a8a8a60018b8b611bc7565b92509250925061170783838389611b70565b945094505050509550959350505050565b60008161175e576040805162461bcd60e51b815260206004820152600f60248201526e4d6f64756c7573206973207a65726f60881b604482015290519081900360640190fd5b8361176b5750600061070e565b826117785750600161070e565b6001600160ff1b5b80156117d457838186161515870a85848509099150836002820486161515870a85848509099150836004820486161515870a85848509099150836008820486161515870a8584850909915060109004611780565b50949350505050565b60008080856117f35750869150859050846118e8565b600084806117fd57fe5b898a0990506000858061180c57fe5b898a0990506000868061181b57fe5b898a0990506000878061182a57fe5b888061183257fe5b848e0960040990506000888061184457fe5b898061184c57fe5b8a8061185457fe5b8586098c098a8061186157fe5b87600309089050888061187057fe5b898061187857fe5b8384088a038a8061188557fe5b838409089450888061189357fe5b898061189b57fe5b8a806118a357fe5b8687096008098a038a806118b357fe5b8b806118bb57fe5b888d038608840908935088806118cd57fe5b89806118d557fe5b8c8e096002099497509295509293505050505b955095509592505050565b6000808089158015611903575088155b15611915575085915084905083611b63565b86158015611921575085155b15611933575088915087905086611b63565b61193b611d08565b848061194357fe5b898a098152848061195057fe5b81518a096020820152848061196157fe5b8687096040820152848061197157fe5b604082015187096060820152604080516080810190915280868061199157fe5b60408401518e09815260200186806119a557fe5b60608401518d09815260200186806119b957fe5b83518b09815260200186806119ca57fe5b60208401518a099052604081015181519192501415806119f257506060810151602082015114155b611a43576040805162461bcd60e51b815260206004820152601e60248201527f557365206a6163446f75626c652066756e6374696f6e20696e73746561640000604482015290519081900360640190fd5b611a4b611d08565b8580611a5357fe5b82516040840151908803900881528580611a6957fe5b60208301516060840151908803900860208201528580611a8557fe5b8151800960408201528580611a9657fe5b8151604083015109606082015260008680611aad57fe5b606083015188038880611abc57fe5b602085015180090890508680611ace57fe5b8780611ad657fe5b8880611ade57fe5b604085015186510960020988038208905060008780611af957fe5b8880611b0157fe5b838a038a80611b0c57fe5b60408701518851090860208501510990508780611b2557fe5b8880611b2d57fe5b606085015160208701510989038208905060008880611b4857fe5b8980611b5057fe5b8b8f098551099297509095509093505050505b9750975097945050505050565b6000806000611b7f8585611c3e565b905060008480611b8b57fe5b828309905060008580611b9a57fe5b828a09905060008680611ba957fe5b8780611bb157fe5b8486098a09919a91995090975050505050505050565b6000808088611bdd575086915085905084611c32565b8860008060015b8315611c29576001841615611c0a57611c028383838f8f8f8e6118f3565b919450925090505b600284049350611c1d8c8c8c8c8c6117dd565b919d509b509950611be4565b91955093509150505b96509650969350505050565b60008215801590611c4f5750818314155b8015611c5a57508115155b611c9c576040805162461bcd60e51b815260206004820152600e60248201526d24b73b30b634b210373ab6b132b960911b604482015290519081900360640190fd5b6000600183825b8615611cdf57868281611cb257fe5b049050828680611cbe57fe5b8780611cc657fe5b8584098803860882890290930397909450919250611ca3565b509195945050505050565b60405180604001604052806002906020820280368337509192915050565b6040518060800160405280600490602082028036833750919291505056fe496e76616c696420636f6d7072657373656420454320706f696e7420707265666978a2646970667358221220abfa178e3158a87e1f98215386aa8d67ec3e53a74a1385462685d4d19df7688864736f6c634300060c0033",
  "immutableReferences": {},
  "source": "// SPDX-License-Identifier: MIT\npragma solidity ^0.6.0;\n\nimport \"./VRF_P256.sol\";\n\n\ncontract VRFTestHelper_SECP256R1 {\n\n\n  function verify(uint256[2] memory _publicKey, uint256[4] memory _proof, bytes memory _message) public pure returns (bool){\n    return VRF_P256.verify(_publicKey, _proof, _message);\n  }\n\n  function fastVerify(\n    uint256[2] memory _publicKey,\n    uint256[4] memory _proof,\n    bytes memory _message,\n    uint256[2] memory _uPoint,\n    uint256[4] memory _vComponents)\n  public pure returns (bool)\n  {\n    return VRF_P256.fastVerify(\n      _publicKey,\n      _proof,\n      _message,\n      _uPoint,\n      _vComponents);\n  }\n\n  function computeFastVerifyParams(uint256[2] memory _publicKey, uint256[4] memory _proof, bytes memory _message)\n    public pure returns (uint256[2] memory, uint256[4] memory)\n  {\n    return VRF_P256.computeFastVerifyParams(_publicKey, _proof, _message);\n  }\n\n  function decodeProof(bytes memory _proof) public pure returns (uint[4] memory) {\n    return VRF_P256.decodeProof(_proof);\n  }\n\n  function proofToHash(uint256 _gammaX, uint256 _gammaY) public pure returns (bytes32) {\n    return VRF_P256.gammaToHash(_gammaX, _gammaY);\n  }\n\n  function hashToTryAndIncrement(uint256[2] memory _publicKey, bytes memory _message) public pure returns (uint, uint) {\n    return VRF_P256.hashToTryAndIncrement(_publicKey, _message);\n  }\n\n  function hashPoints(\n    uint256 _hPointX,\n    uint256 _hPointY,\n    uint256 _gammaX,\n    uint256 _gammaY,\n    uint256 _uPointX,\n    uint256 _uPointY,\n    uint256 _vPointX,\n    uint256 _vPointY)\n  public pure returns (bytes16)\n  {\n    return VRF_P256.hashPoints(\n      _hPointX,\n      _hPointY,\n      _gammaX,\n      _gammaY,\n      _uPointX,\n      _uPointY,\n      _vPointX,\n      _vPointY);\n  }\n\n}",
  "sourcePath": "/Users/kemlohalex/Documents/evoting/contracts/VRFTestHelper_SECP256R1.sol",
  "compiler": {
    "name": "solc",
    "version": "0.6.12+commit.27d51765.Emscripten.clang"
  },
  "schemaVersion": "3.4.3",
  "updatedAt": "2022-03-18T14:44:55.992Z",
  "devdoc": {
    "kind": "dev",
    "methods": {},
    "version": 1
  },
  "userdoc": {
    "kind": "user",
    "methods": {},
    "version": 1
  }
}