{
  "contractName": "VRFTestHelper_SECP256K1",
  "abi": [
    {
      "inputs": [
        {
          "internalType": "uint256[2]",
          "name": "_publicKey",
          "type": "uint256[2]"
        },
        {
          "internalType": "uint256[4]",
          "name": "_proof",
          "type": "uint256[4]"
        },
        {
          "internalType": "bytes",
          "name": "_message",
          "type": "bytes"
        }
      ],
      "name": "verify",
      "outputs": [
        {
          "internalType": "bool",
          "name": "",
          "type": "bool"
        }
      ],
      "stateMutability": "pure",
      "type": "function"
    },
    {
      "inputs": [
        {
          "internalType": "uint256[2]",
          "name": "_publicKey",
          "type": "uint256[2]"
        },
        {
          "internalType": "uint256[4]",
          "name": "_proof",
          "type": "uint256[4]"
        },
        {
          "internalType": "bytes",
          "name": "_message",
          "type": "bytes"
        },
        {
          "internalType": "uint256[2]",
          "name": "_uPoint",
          "type": "uint256[2]"
        },
        {
          "internalType": "uint256[4]",
          "name": "_vComponents",
          "type": "uint256[4]"
        }
      ],
      "name": "fastVerify",
      "outputs": [
        {
          "internalType": "bool",
          "name": "",
          "type": "bool"
        }
      ],
      "stateMutability": "pure",
      "type": "function"
    },
    {
      "inputs": [
        {
          "internalType": "uint256[2]",
          "name": "_publicKey",
          "type": "uint256[2]"
        },
        {
          "internalType": "uint256[4]",
          "name": "_proof",
          "type": "uint256[4]"
        },
        {
          "internalType": "bytes",
          "name": "_message",
          "type": "bytes"
        }
      ],
      "name": "computeFastVerifyParams",
      "outputs": [
        {
          "internalType": "uint256[2]",
          "name": "",
          "type": "uint256[2]"
        },
        {
          "internalType": "uint256[4]",
          "name": "",
          "type": "uint256[4]"
        }
      ],
      "stateMutability": "pure",
      "type": "function"
    },
    {
      "inputs": [
        {
          "internalType": "bytes",
          "name": "_proof",
          "type": "bytes"
        }
      ],
      "name": "decodeProof",
      "outputs": [
        {
          "internalType": "uint256[4]",
          "name": "",
          "type": "uint256[4]"
        }
      ],
      "stateMutability": "pure",
      "type": "function"
    },
    {
      "inputs": [
        {
          "internalType": "uint256",
          "name": "_gammaX",
          "type": "uint256"
        },
        {
          "internalType": "uint256",
          "name": "_gammaY",
          "type": "uint256"
        }
      ],
      "name": "proofToHash",
      "outputs": [
        {
          "internalType": "bytes32",
          "name": "",
          "type": "bytes32"
        }
      ],
      "stateMutability": "pure",
      "type": "function"
    },
    {
      "inputs": [
        {
          "internalType": "uint256[2]",
          "name": "_publicKey",
          "type": "uint256[2]"
        },
        {
          "internalType": "bytes",
          "name": "_message",
          "type": "bytes"
        }
      ],
      "name": "hashToTryAndIncrement",
      "outputs": [
        {
          "internalType": "uint256",
          "name": "",
          "type": "uint256"
        },
        {
          "internalType": "uint256",
          "name": "",
          "type": "uint256"
        }
      ],
      "stateMutability": "pure",
      "type": "function"
    },
    {
      "inputs": [
        {
          "internalType": "uint256",
          "name": "_hPointX",
          "type": "uint256"
        },
        {
          "internalType": "uint256",
          "name": "_hPointY",
          "type": "uint256"
        },
        {
          "internalType": "uint256",
          "name": "_gammaX",
          "type": "uint256"
        },
        {
          "internalType": "uint256",
          "name": "_gammaY",
          "type": "uint256"
        },
        {
          "internalType": "uint256",
          "name": "_uPointX",
          "type": "uint256"
        },
        {
          "internalType": "uint256",
          "name": "_uPointY",
          "type": "uint256"
        },
        {
          "internalType": "uint256",
          "name": "_vPointX",
          "type": "uint256"
        },
        {
          "internalType": "uint256",
          "name": "_vPointY",
          "type": "uint256"
        }
      ],
      "name": "hashPoints",
      "outputs": [
        {
          "internalType": "bytes16",
          "name": "",
          "type": "bytes16"
        }
      ],
      "stateMutability": "pure",
      "type": "function"
    }
  ],
  "bytecode": "0x608060405234801561001057600080fd5b50611c3d806100206000396000f3fe608060405234801561001057600080fd5b506004361061007d5760003560e01c8063472300001161005b578063472300001461033f578063bbe95b4c14610374578063c95ac47a14610470578063c9d4ef1f146105d35761007d565b806307ce9d0f1461008257806309baf9971461016b57806345899df4146101d9575b600080fd5b6101526004803603606081101561009857600080fd5b6040805180820182529183019291818301918390600290839083908082843760009201919091525091949392602081019250359050600160201b8111156100de57600080fd5b8201836020820111156100f057600080fd5b803590602001918460018302840111600160201b8311171561011157600080fd5b91908080601f0160208091040260200160405190810160405280939291908181526020018383808284376000920191909152509295506106af945050505050565b6040805192835260208301919091528051918290030190f35b6101b3600480360361010081101561018257600080fd5b5080359060208101359060408101359060608101359060808101359060a08101359060c08101359060e001356106c8565b604080516fffffffffffffffffffffffffffffffff199092168252519081900360200190f35b61032b60048036036101a08110156101f057600080fd5b60408051808201825291830192918183019183906002908390839080828437600092019190915250506040805160808181019092529295949381810193925090600490839083908082843760009201919091525091949392602081019250359050600160201b81111561026257600080fd5b82018360208201111561027457600080fd5b803590602001918460018302840111600160201b8311171561029557600080fd5b91908080601f01602080910402602001604051908101604052809392919081815260200183838082843760009201919091525050604080518082018252939695948181019493509150600290839083908082843760009201919091525050604080516080818101909252929594938181019392509060049083908390808284376000920191909152509194506106e79350505050565b604080519115158252519081900360200190f35b6103626004803603604081101561035557600080fd5b5080359060200135610702565b60408051918252519081900360200190f35b61032b600480360360e081101561038a57600080fd5b60408051808201825291830192918183019183906002908390839080828437600092019190915250506040805160808181019092529295949381810193925090600490839083908082843760009201919091525091949392602081019250359050600160201b8111156103fc57600080fd5b82018360208201111561040e57600080fd5b803590602001918460018302840111600160201b8311171561042f57600080fd5b91908080601f016020809104026020016040519081016040528093929190818152602001838380828437600092019190915250929550610715945050505050565b61056c600480360360e081101561048657600080fd5b60408051808201825291830192918183019183906002908390839080828437600092019190915250506040805160808181019092529295949381810193925090600490839083908082843760009201919091525091949392602081019250359050600160201b8111156104f857600080fd5b82018360208201111561050a57600080fd5b803590602001918460018302840111600160201b8311171561052b57600080fd5b91908080601f01602080910402602001604051908101604052809392919081815260200183838082843760009201919091525092955061072a945050505050565b6040518083600260200280838360005b8381101561059457818101518382015260200161057c565b5050505090500182600460200280838360005b838110156105bf5781810151838201526020016105a7565b505050509050019250505060405180910390f35b610677600480360360208110156105e957600080fd5b810190602081018135600160201b81111561060357600080fd5b82018360208201111561061557600080fd5b803590602001918460018302840111600160201b8311171561063657600080fd5b91908080601f016020809104026020016040519081016040528093929190818152602001838380828437600092019190915250929550610751945050505050565b6040518082608080838360005b8381101561069c578181015183820152602001610684565b5050505090500191505060405180910390f35b6000806106bc8484610768565b915091505b9250929050565b60006106da89898989898989896109f5565b9998505050505050505050565b60006106f68686868686610c21565b90505b95945050505050565b600061070e8383610d2c565b9392505050565b6000610722848484610e50565b949350505050565b610732611ba9565b61073a611bc7565b610745858585610f19565b91509150935093915050565b610759611bc7565b6107628261101d565b92915050565b600080606060fe60016107888785602002015188600160200201516110cf565b86604051602001808560ff1660f81b81526001018460ff1660f81b815260010183805190602001908083835b602083106107d35780518252601f1990920191602091820191016107b4565b51815160209384036101000a600019018019909216911617905285519190930192850191508083835b6020831061081b5780518252601f1990920191602091820191016107fc565b6001836020036101000a038019825116818451168082178552505050505050905001945050505050604051602081830303815290604052905060005b6101008160ff1610156109a7576000600283836040516020018083805190602001908083835b6020831061089c5780518252601f19909201916020918201910161087d565b6001836020036101000a0380198251168184511680821785525050505050509050018260ff1660f81b8152600101925050506040516020818303038152906040526040518082805190602001908083835b6020831061090c5780518252601f1990920191602091820191016108ed565b51815160209384036101000a60001901801990921691161790526040519190930194509192505080830381855afa15801561094b573d6000803e3d6000fd5b5050506040513d602081101561096057600080fd5b5051905080600061097260028361110d565b90506109898282600060076401000003d019611124565b1561099c5790955093506106c192505050565b505050600101610857565b506040805162461bcd60e51b815260206004820152601860248201527f4e6f2076616c696420706f696e742077617320666f756e640000000000000000604482015290519081900360640190fd5b6000606060fe6002610a078c8c6110cf565b610a118b8b6110cf565b610a1b8a8a6110cf565b610a2589896110cf565b604051602001808760ff1660f81b81526001018660ff1660f81b815260010185805190602001908083835b60208310610a6f5780518252601f199092019160209182019101610a50565b51815160209384036101000a600019018019909216911617905287519190930192870191508083835b60208310610ab75780518252601f199092019160209182019101610a98565b51815160209384036101000a600019018019909216911617905286519190930192860191508083835b60208310610aff5780518252601f199092019160209182019101610ae0565b51815160209384036101000a600019018019909216911617905285519190930192850191508083835b60208310610b475780518252601f199092019160209182019101610b28565b6001836020036101000a0380198251168184511680821785525050505050509050019650505050505050604051602081830303815290604052905060006002826040518082805190602001908083835b60208310610bb65780518252601f199092019160209182019101610b97565b51815160209384036101000a60001901801990921691161790526040519190930194509192505080830381855afa158015610bf5573d6000803e3d6000fd5b5050506040513d6020811015610c0a57600080fd5b50516040518190529b9a5050505050505050505050565b6000806000610c308887610768565b606089015160408a01518b5160208d8101518b51918c0151969850949650610c5e95939492939192916111b9565b1580610c85575060608701518451610c839190849084908860015b60200201516112ad565b155b80610cab5750604080880151885160208a015192870151610ca99390886003610c79565b155b15610cbb576000925050506106f9565b83516020850151604086015160608701516000938493610ce7939192909190856401000003d01961136b565b8a516020808d01518b51918c0151949650929450600093610d0f9389938993909289896109f5565b6040909a015160809a909a1c9099149a9950505050505050505050565b6000606060fe6003610d3e86866110cf565b604051602001808460ff1660f81b81526001018360ff1660f81b815260010182805190602001908083835b60208310610d885780518252601f199092019160209182019101610d69565b6001836020036101000a038019825116818451168082178552505050505050905001935050505060405160208183030381529060405290506002816040518082805190602001908083835b60208310610df25780518252601f199092019160209182019101610dd3565b51815160209384036101000a60001901801990921691161790526040519190930194509192505080830381855afa158015610e31573d6000803e3d6000fd5b5050506040513d6020811015610e4657600080fd5b5051949350505050565b6000806000610e5f8685610768565b6060870151604088015189519395509193506000928392610ecd92917f79be667ef9dcbbac55a06295ce870b07029bfcdb2dce28d959f2815b16f81798917f483ada7726a3c4655da4fbfc0e1108a8fd17b448a68554199c47d08ffb10d4b8918d60015b60200201516113a0565b606089015160408a01518a519395509193506000928392610ef59291899189918e6001610ec3565b90925090506000610d0f87878c8460200201518d60016020020151898989896109f5565b610f21611ba9565b610f29611bc7565b600080610f368786610768565b606088015160408901518a519395509193506000928392610f9e92917f79be667ef9dcbbac55a06295ce870b07029bfcdb2dce28d959f2815b16f81798917f483ada7726a3c4655da4fbfc0e1108a8fd17b448a68554199c47d08ffb10d4b8918e6001610ec3565b9092509050600080610fb88a6003602002015187876113f4565b60408c01518c5160208e01519395509193506000928392610fd992916113f4565b6040805180820182529889526020808a0198909852805160808101825296875296860194909452948401949094525060608201529199919850909650505050505050565b611025611bc7565b8151605114611071576040805162461bcd60e51b815260206004820152601360248201527226b0b63337b936b2b2102b292310383937b7b360691b604482015290519081900360640190fd5b60018201516021830151603184015160518501516000611091858561110d565b6040805160808101825295865260208601919091526fffffffffffffffffffffffffffffffff90931692840192909252606083015250915050919050565b604080516001600160f81b0319600190931660020160f81b929092166020830152602180830193909352805180830390930183526041909101905290565b600061070e8383600060076401000003d01961140b565b60008515806111335750818610155b8061113c575084155b806111475750818510155b15611154575060006106f9565b6000828061115e57fe5b86870990506000838061116d57fe5b88858061117657fe5b8a8b09099050851561119a57838061118a57fe5b848061119257fe5b878a09820890505b84156111ae5783806111a857fe5b85820890505b149695505050505050565b600070014551231950b75fc4402da1732fc9bebe1987810381900690868209905070014551231950b75fc4402da1732fc9bebe1987810306600060018388821661120457601b611207565b601c5b8a70014551231950b75fc4402da1732fc9bebe198c870960001b60405160008152602001604052604051808581526020018460ff1681526020018381526020018281526020019450505050506020604051602081039080840390855afa158015611275573d6000803e3d6000fd5b505050602060405103519050806001600160a01b031661129587876114cd565b6001600160a01b0316149a9950505050505050505050565b600080600181600287066112c257601b6112c5565b601c5b8870014551231950b75fc4402da1732fc9bebe198a8c0960001b60405160008152602001604052604051808560001b81526020018460ff1681526020018381526020018281526020019450505050506020604051602081039080840390855afa158015611336573d6000803e3d6000fd5b505050602060405103519050806001600160a01b031661135685856114cd565b6001600160a01b031614979650505050505050565b60008060008061137c888887611502565b9150915061138e8a8a84848a8a61151e565b9350935050505b965096945050505050565b6000806000806113b18a8a8a6113f4565b915091506000806113c38989896113f4565b915091506000806113df8686868660006401000003d01961136b565b909f909e509c50505050505050505050505050565b60008061074585858560006401000003d01961159d565b60008560ff166002148061142257508560ff166003145b61145d5760405162461bcd60e51b8152600401808060200182810382526022815260200180611be66022913960400191505060405180910390fd5b6000828061146757fe5b838061146f57fe5b85858061147857fe5b888a0908848061148457fe5b858061148c57fe5b898a0989090890506114a58160046001860104856115d7565b90506000600260ff8916830106156114bf578184036114c1565b815b98975050505050505050565b60408051602080820194909452808201929092528051808303820181526060909201905280519101206001600160a01b031690565b60008084838585038161151157fe5b0691509150935093915050565b6000806000806000888b141561156657858061153657fe5b888b0861154c5760008094509450505050611395565b61155a8b8b60018a8a61169c565b9194509250905061157f565b6115778b8b60018c8c60018c6117b2565b919450925090505b61158b83838389611a2f565b94509450505050965096945050505050565b60008060008060006115b48a8a8a60018b8b611a86565b9250925092506115c683838389611a2f565b945094505050509550959350505050565b60008161161d576040805162461bcd60e51b815260206004820152600f60248201526e4d6f64756c7573206973207a65726f60881b604482015290519081900360640190fd5b8361162a5750600061070e565b826116375750600161070e565b6001600160ff1b5b801561169357838186161515870a85848509099150836002820486161515870a85848509099150836004820486161515870a85848509099150836008820486161515870a858485090991506010900461163f565b50949350505050565b60008080856116b25750869150859050846117a7565b600084806116bc57fe5b898a099050600085806116cb57fe5b898a099050600086806116da57fe5b898a099050600087806116e957fe5b88806116f157fe5b848e0960040990506000888061170357fe5b898061170b57fe5b8a8061171357fe5b8586098c098a8061172057fe5b87600309089050888061172f57fe5b898061173757fe5b8384088a038a8061174457fe5b838409089450888061175257fe5b898061175a57fe5b8a8061176257fe5b8687096008098a038a8061177257fe5b8b8061177a57fe5b888d0386088409089350888061178c57fe5b898061179457fe5b8c8e096002099497509295509293505050505b955095509592505050565b60008080891580156117c2575088155b156117d4575085915084905083611a22565b861580156117e0575085155b156117f2575088915087905086611a22565b6117fa611bc7565b848061180257fe5b898a098152848061180f57fe5b81518a096020820152848061182057fe5b8687096040820152848061183057fe5b604082015187096060820152604080516080810190915280868061185057fe5b60408401518e098152602001868061186457fe5b60608401518d098152602001868061187857fe5b83518b098152602001868061188957fe5b60208401518a099052604081015181519192501415806118b157506060810151602082015114155b611902576040805162461bcd60e51b815260206004820152601e60248201527f557365206a6163446f75626c652066756e6374696f6e20696e73746561640000604482015290519081900360640190fd5b61190a611bc7565b858061191257fe5b8251604084015190880390088152858061192857fe5b6020830151606084015190880390086020820152858061194457fe5b815180096040820152858061195557fe5b815160408301510960608201526000868061196c57fe5b60608301518803888061197b57fe5b60208501518009089050868061198d57fe5b878061199557fe5b888061199d57fe5b6040850151865109600209880382089050600087806119b857fe5b88806119c057fe5b838a038a806119cb57fe5b604087015188510908602085015109905087806119e457fe5b88806119ec57fe5b606085015160208701510989038208905060008880611a0757fe5b8980611a0f57fe5b8b8f098551099297509095509093505050505b9750975097945050505050565b6000806000611a3e8585611afd565b905060008480611a4a57fe5b828309905060008580611a5957fe5b828a09905060008680611a6857fe5b8780611a7057fe5b8486098a09919a91995090975050505050505050565b6000808088611a9c575086915085905084611af1565b8860008060015b8315611ae8576001841615611ac957611ac18383838f8f8f8e6117b2565b919450925090505b600284049350611adc8c8c8c8c8c61169c565b919d509b509950611aa3565b91955093509150505b96509650969350505050565b60008215801590611b0e5750818314155b8015611b1957508115155b611b5b576040805162461bcd60e51b815260206004820152600e60248201526d24b73b30b634b210373ab6b132b960911b604482015290519081900360640190fd5b6000600183825b8615611b9e57868281611b7157fe5b049050828680611b7d57fe5b8780611b8557fe5b8584098803860882890290930397909450919250611b62565b509195945050505050565b60405180604001604052806002906020820280368337509192915050565b6040518060800160405280600490602082028036833750919291505056fe496e76616c696420636f6d7072657373656420454320706f696e7420707265666978a2646970667358221220c581c314f7b3d49210bb67a6f1854578ec5950913eb831765c05ef907949c31764736f6c634300060c0033",
  "immutableReferences": {},
  "source": "// SPDX-License-Identifier: MIT\npragma solidity ^0.6.0;\n\n//import \"vrf-solidity/contracts/VRF.sol\";\nimport \"../client/node_modules/vrf-solidity/contracts/VRF.sol\";\n\n\ncontract VRFTestHelper_SECP256K1 {\n\n\n function verify(uint256[2] memory _publicKey, uint256[4] memory _proof, bytes memory _message) public pure returns (bool){\n    return VRF.verify(_publicKey, _proof, _message);\n  }\n\n  function fastVerify(\n    uint256[2] memory _publicKey,\n    uint256[4] memory _proof,\n    bytes memory _message,\n    uint256[2] memory _uPoint,\n    uint256[4] memory _vComponents)\n  public pure returns (bool)\n  {\n    return VRF.fastVerify(\n      _publicKey,\n      _proof,\n      _message,\n      _uPoint,\n      _vComponents);\n  }\n\n  function computeFastVerifyParams(uint256[2] memory _publicKey, uint256[4] memory _proof, bytes memory _message)\n    public pure returns (uint256[2] memory, uint256[4] memory)\n  {\n    return VRF.computeFastVerifyParams(_publicKey, _proof, _message);\n  }\n\n  function decodeProof(bytes memory _proof) public pure returns (uint[4] memory) {\n    return VRF.decodeProof(_proof);\n  }\n\n  function proofToHash(uint256 _gammaX, uint256 _gammaY) public pure returns (bytes32) {\n    return VRF.gammaToHash(_gammaX, _gammaY);\n  }\n\n  function hashToTryAndIncrement(uint256[2] memory _publicKey, bytes memory _message) public pure returns (uint, uint) {\n    return VRF.hashToTryAndIncrement(_publicKey, _message);\n  }\n\n  function hashPoints(\n    uint256 _hPointX,\n    uint256 _hPointY,\n    uint256 _gammaX,\n    uint256 _gammaY,\n    uint256 _uPointX,\n    uint256 _uPointY,\n    uint256 _vPointX,\n    uint256 _vPointY)\n  public pure returns (bytes16)\n  {\n    return VRF.hashPoints(\n      _hPointX,\n      _hPointY,\n      _gammaX,\n      _gammaY,\n      _uPointX,\n      _uPointY,\n      _vPointX,\n      _vPointY);\n  }\n\n}",
  "sourcePath": "/Users/kemlohalex/Documents/evoting/contracts/VRFTestHelper_SECP256K1.sol",
  "compiler": {
    "name": "solc",
    "version": "0.6.12+commit.27d51765.Emscripten.clang"
  },
  "schemaVersion": "3.4.3",
  "updatedAt": "2022-03-18T14:44:55.990Z",
  "devdoc": {
    "kind": "dev",
    "methods": {},
    "version": 1
  },
  "userdoc": {
    "kind": "user",
    "methods": {},
    "version": 1
  }
}